S0130000666C6173686C6F616465722E737265638C
S31520250000D8D527207D0825207B0825207B08252057
S315202500101DEB252031EB252041EB25200000000076
S315202500200000000000000000000000007B082520BD
S315202500307B082520000000007B0825207B0825201D
S31520250040A32D2620A32D2620A32D2620A32D26200D
S31520250050A32D2620A32D2620A32D2620A32D2620FD
S31520250060A32D2620A32D2620A32D2620A32D2620ED
S31520250070A32D2620A32D2620A32D2620A32D2620DD
S31520250080A32D2620A32D2620A32D2620A32D2620CD
S315202500903F0B2620A32D2620A32D2620A32D262043
S315202500A0A32D2620A32D2620A32D2620A32D2620AD
S315202500B0A32D2620A32D2620A32D2620A32D26209D
S315202500C0A32D2620A32D2620A32D2620A32D26208D
S315202500D0A32D2620A32D2620A32D2620A32D26207D
S315202500E0A32D2620A32D2620A32D2620A32D26206D
S315202500F0A32D2620A32D2620A32D2620A32D26205D
S31520250100A32D2620A32D2620A32D2620A32D26204C
S31520250110A32D2620A32D2620A32D2620A32D26203C
S31520250120A32D2620A32D2620A32D2620A32D26202C
S31520250130A32D2620A32D2620A32D2620A32D26201C
S31520250140A32D2620A32D2620A32D2620A32D26200C
S31520250150A32D2620A32D2620A32D2620A32D2620FC
S31520250160A32D2620A32D2620A32D2620B5182620EF
S31520250170D10D2620A32D2620A32D2620A32D2620CE
S31520250180A32D2620A32D2620A32D2620A32D2620CC
S31520250190A32D2620A32D2620A32D2620A32D2620BC
S315202501A0A32D2620A32D2620A32D2620A32D2620AC
S315202501B0A32D2620A32D2620A32D2620A32D26209C
S315202501C0A32D2620A32D2620A32D2620A32D26208C
S315202501D0A32D2620A32D2620A32D2620A32D26207C
S315202501E0A32D26202F1E2520A32D2620A32D2620F0
S315202501F0A32D2620A32D2620A32D2620A32D26205C
S31520250200A32D2620A32D2620A32D2620A32D26204B
S31520250210A32D2620A32D2620A32D2620A32D26203B
S31520250220A32D2620A32D2620A32D2620A32D26202B
S31520250230A32D2620A32D2620A32D2620A32D26201B
S31520250240A32D2620A32D2620A32D2620A32D26200B
S31520250250A32D2620A32D2620A32D2620A32D2620FB
S31520250260C1292620A32D2620A32D2620A32D2620D1
S31520250270A32D2620A32D2620A32D2620A32D2620DB
S31520250280A32D2620A32D2620A32D2620A32D2620CB
S31520250290A32D2620A32D2620A32D2620A32D2620BB
S315202502A0A32D2620A32D2620A32D2620A32D2620AB
S315202502B0A32D2620A32D2620A32D2620A32D26209B
S315202502C0A32D2620A32D2620A32D2620A32D26208B
S315202502D0A32D2620A32D2620A32D2620A32D26207B
S315202502E0A32D2620A32D2620A32D2620A32D26206B
S315202502F0A32D2620A32D2620A32D2620A32D26205B
S31520250300A32D2620A32D2620A32D2620A32D26204A
S31520250310A32D2620A32D2620A32D2620A32D26203A
S31520250320A32D2620A32D2620A32D2620A32D26202A
S31520250330A32D2620A32D2620A32D2620A32D26201A
S31520250340A32D2620A32D2620A32D2620A32D26200A
S31520250350A32D2620A32D2620A32D2620A32D2620FA
S31520250360A32D2620A32D2620A32D2620A32D2620EA
S31520250370A32D2620A32D2620A32D2620A32D2620DA
S31520250380A32D2620A32D2620BD182620C5182620B8
S31520250390CD182620D5182620A32D2620A32D262088
S315202503A0A32D2620A32D2620A32D2620A32D2620AA
S315202503B0A32D2620A32D2620A32D2620A32D26209A
S315202503C0A32D2620A32D2620A32D2620A32D26208A
S315202503D0A32D2620A32D2620A32D2620A32D26207A
S315202503E0A32D2620A32D2620A32D2620A32D26206A
S315202503F0A32D2620A32D2620A32D2620A32D26205A
S31520250400D8D527207D0825207B0825207B08252053
S315202504101DEB252031EB252041EB25200000000072
S315202504200000000000000000000000007B082520B9
S315202504307B082520000000007B0825207B08252019
S31520250440A32D2620A32D2620A32D2620A32D262009
S31520250450A32D2620A32D2620A32D2620A32D2620F9
S31520250460A32D2620A32D2620A32D2620A32D2620E9
S31520250470A32D2620A32D2620A32D2620A32D2620D9
S31520250480A32D2620A32D2620A32D2620A32D2620C9
S315202504903F0B2620A32D2620A32D2620A32D26203F
S315202504A0A32D2620A32D2620A32D2620A32D2620A9
S315202504B0A32D2620A32D2620A32D2620A32D262099
S315202504C0A32D2620A32D2620A32D2620A32D262089
S315202504D0A32D2620A32D2620A32D2620A32D262079
S315202504E0A32D2620A32D2620A32D2620A32D262069
S315202504F0A32D2620A32D2620A32D2620A32D262059
S31520250500A32D2620A32D2620A32D2620A32D262048
S31520250510A32D2620A32D2620A32D2620A32D262038
S31520250520A32D2620A32D2620A32D2620A32D262028
S31520250530A32D2620A32D2620A32D2620A32D262018
S31520250540A32D2620A32D2620A32D2620A32D262008
S31520250550A32D2620A32D2620A32D2620A32D2620F8
S31520250560A32D2620A32D2620A32D2620B5182620EB
S31520250570D10D2620A32D2620A32D2620A32D2620CA
S31520250580A32D2620A32D2620A32D2620A32D2620C8
S31520250590A32D2620A32D2620A32D2620A32D2620B8
S315202505A0A32D2620A32D2620A32D2620A32D2620A8
S315202505B0A32D2620A32D2620A32D2620A32D262098
S315202505C0A32D2620A32D2620A32D2620A32D262088
S315202505D0A32D2620A32D2620A32D2620A32D262078
S315202505E0A32D26202F1E2520A32D2620A32D2620EC
S315202505F0A32D2620A32D2620A32D2620A32D262058
S31520250600A32D2620A32D2620A32D2620A32D262047
S31520250610A32D2620A32D2620A32D2620A32D262037
S31520250620A32D2620A32D2620A32D2620A32D262027
S31520250630A32D2620A32D2620A32D2620A32D262017
S31520250640A32D2620A32D2620A32D2620A32D262007
S31520250650A32D2620A32D2620A32D2620A32D2620F7
S31520250660C1292620A32D2620A32D2620A32D2620CD
S31520250670A32D2620A32D2620A32D2620A32D2620D7
S31520250680A32D2620A32D2620A32D2620A32D2620C7
S31520250690A32D2620A32D2620A32D2620A32D2620B7
S315202506A0A32D2620A32D2620A32D2620A32D2620A7
S315202506B0A32D2620A32D2620A32D2620A32D262097
S315202506C0A32D2620A32D2620A32D2620A32D262087
S315202506D0A32D2620A32D2620A32D2620A32D262077
S315202506E0A32D2620A32D2620A32D2620A32D262067
S315202506F0A32D2620A32D2620A32D2620A32D262057
S31520250700A32D2620A32D2620A32D2620A32D262046
S31520250710A32D2620A32D2620A32D2620A32D262036
S31520250720A32D2620A32D2620A32D2620A32D262026
S31520250730A32D2620A32D2620A32D2620A32D262016
S31520250740A32D2620A32D2620A32D2620A32D262006
S31520250750A32D2620A32D2620A32D2620A32D2620F6
S31520250760A32D2620A32D2620A32D2620A32D2620E6
S31520250770A32D2620A32D2620A32D2620A32D2620D6
S31520250780A32D2620A32D2620BD182620C5182620B4
S31520250790CD182620D5182620A32D2620A32D262084
S315202507A0A32D2620A32D2620A32D2620A32D2620A6
S315202507B0A32D2620A32D2620A32D2620A32D262096
S315202507C0A32D2620A32D2620A32D2620A32D262086
S315202507D0A32D2620A32D2620A32D2620A32D262076
S315202507E0A32D2620A32D2620A32D2620A32D262066
S315202507F0A32D2620A32D2620A32D2620A32D262056
S31520250800002A01D101207047F0B41F460346032450
S315202508102340002B09D00424E31A01700130082433
S31520250820E141521E26D05B1EF7D1042A1ADB13D0AE
S31520250830002F11D00C460D460E46102A02DB72C01B
S31520250840103AFAE70C2A02DB32C00C3AFAE7082AD4
S3152025085002DB12C0083AFAE7042A03DB01600430DA
S31520250860121FF9E7002A05D0017001300824E1413D
S31520250870521EF7D1F0BC00207047FEE772B60E480F
S315202508800E49886000220023002400250026002703
S31520250890B846B946BA46BB46BC46094885460948A0
S315202508A08047094880470948804762B600200021AD
S315202508B0074A9047FEE700000000252000ED00E0CE
S315202508C0D8D527202519262029702520837025204F
S315202508D0ABD3252001000000CF3C252000000000B9
S315202508E0020000000F3D2520000000000B0000001F
S315202508F0833C2520000000000C000000793D2520A2
S315202509000000000004000000D33D2520773E252049
S3152025091007000000493D25200000000009000000B1
S3152025092083402520000000000A000000E140252004
S315202509300000000003000000EB3D25208B3F2520ED
S315202509400500000063402520000000000800000067
S315202509501F3D2520773E2520110000008F3D25208F
S31520250960000000000000000000000000000000003C
S3152025097000000000B71DC1046E3B8209D926430D10
S31520250980DC7604136B6BC517B24D861A0550471EA8
S31520250990B8ED08260FF0C922D6D68A2F61CB4B2B48
S315202509A0649B0C35D386CD310AA08E3CBDBD4F38F0
S315202509B070DB114CC7C6D0481EE09345A9FD524190
S315202509C0ACAD155F1BB0D45BC2969756758B565228
S315202509D0C836196A7F2BD86EA60D9B6311105A67C8
S315202509E014401D79A35DDC7D7A7B9F70CD665E7470
S315202509F0E0B6239857ABE29C8E8DA19139906095D0
S31520250A003CC0278B8BDDE68F52FBA582E5E66486E7
S31520250A10585B2BBEEF46EABA3660A9B7817D68B307
S31520250A20842D2FAD3330EEA9EA16ADA45D0B6CA02F
S31520250A30906D32D42770F3D0FE56B0DD494B71D94F
S31520250A404C1B36C7FB06F7C32220B4CE953D75CA67
S31520250A5028803AF29F9DFBF646BBB8FBF1A679FF87
S31520250A60F4F63EE143EBFFE59ACDBCE82DD07DECAF
S31520250A7077708634C06D4730194B043DAE56C5393F
S31520250A80AB0682271C1B4323C53D002E7220C12A77
S31520250A90CF9D8E1278804F16A1A60C1B16BBCD1F77
S31520250AA013EB8A01A4F64B057DD00808CACDC90CBF
S31520250AB007AB9778B0B6567C69901571DE8DD475BF
S31520250AC0DBDD936B6CC0526FB5E6116202FBD066F7
S31520250AD0BF469F5E085B5E5AD17D1D576660DC53F7
S31520250AE063309B4DD42D5A490D0B1944BA16D8403F
S31520250AF097C6A5AC20DB64A8F9FD27A54EE0E6A17F
S31520250B004BB0A1BFFCAD60BB258B23B69296E2B236
S31520250B102F2BAD8A98366C8E41102F83F60DEE87B6
S31520250B20F35DA9994440689D9D662B902A7BEA947E
S31520250B30E71DB4E0500075E4892636E93E3BF7EDFE
S31520250B403B6BB0F38C7671F7555032FAE24DF3FEB6
S31520250B505FF0BCC6E8ED7DC231CB3ECF86D6FFCB36
S31520250B608386B8D5349B79D1EDBD3ADC5AA0FBD8FE
S31520250B70EEE00C6959FDCD6D80DB8E6037C64F645E
S31520250B803296087A858BC97E5CAD8A73EBB04B7716
S31520250B90560D044FE110C54B383686468F2B4742D6
S31520250BA08A7B005C3D66C158E4408255535D43519E
S31520250BB09E3B1D252926DC21F0009F2C471D5E28DE
S31520250BC0424D1936F550D8322C769B3F9B6B5A3B96
S31520250BD026D6150391CBD40748ED970AFFF0560E56
S31520250BE0FAA011104DBDD014949B93192386521D1E
S31520250BF00E562FF1B94BEEF5606DADF8D7706CFC1E
S31520250C00D2202BE2653DEAE6BC1BA9EB0B0668EF55
S31520250C10B6BB27D701A6E6D3D880A5DE6F9D64DA95
S31520250C206ACD23C4DDD0E2C004F6A1CDB3EB60C9DD
S31520250C307E8D3EBDC990FFB910B6BCB4A7AB7DB09D
S31520250C40A2FB3AAE15E6FBAACCC0B8A77BDD79A3D5
S31520250C50C660369B717DF79FA85BB4921F46759615
S31520250C601A163288AD0BF38C742DB081C33071855D
S31520250C7099908A5D2E8D4B59F7AB085440B6C950AD
S31520250C8045E68E4EF2FB4F4A2BDD0C479CC0CD43C5
S31520250C90217D827B9660437F4F460072F85BC17625
S31520250CA0FD0B86684A16476C93300461242DC5654D
S31520250CB0E94B9B115E565A1587701918306DD81C2D
S31520250CC0353D9F0282205E065B061D0BEC1BDC0F45
S31520250CD051A69337E6BB52333F9D113E8880D03AA5
S31520250CE08DD097243ACD5620E3EB152D54F6D429CD
S31520250CF07926A9C5CE3B68C1171D2BCCA000EAC8ED
S31520250D00A550ADD6124D6CD2CB6B2FDF7C76EEDB84
S31520250D10C1CBA1E376D660E7AFF023EA18EDE2EE64
S31520250D201DBDA5F0AAA064F4738627F9C49BE6FD0C
S31520250D3009FDB889BEE0798D67C63A80D0DBFB846C
S31520250D40D58BBC9A62967D9EBBB03E930CADFF9704
S31520250D50B110B0AF060D71ABDF2B32A66836F3A2E4
S31520250D606D66B4BCDA7B75B8035D36B5B440F7B18C
S31520250D7009000000A742252001010000E34D25207A
S31520250D8000010000B158252020010000E965252015
S31520250D9021010000536125200000000000000000ED
S31520250DA06F01000065090000700137016D013801CA
S31520250DB06E012E0271012F0172013001730131015D
S31520250DC0740132016C0133016B0134016A0135014D
S31520250DD06901360167080000660900006D013801A2
S31520250DE000000000680800006C0133016B01340106
S31520250DF06A01350169013601000000000000000066
S31520250E0000000000000000000C0000000C0000007F
S31520250E100C0000000800000051030000000000001F
S31520250E20520337004F03380050032E0153032F005A
S31520250E305403300055033100560332004E03330048
S31520250E404D0334004C0335004B03360000000000CB
S31520250E500000000000000000000000000000000047
S31520250E600000000000000000000000000000000037
S31520250E700000000000000000000000000000000027
S31520250E800300000003000000030000000700000007
S31520250E90350400000000000034043D003304000022
S31520250EA0360400003704390038043A0039043B005B
S31520250EB03A043C003B0400003C0400003D040000AD
S31520250EC03E04000032040000000000003304000028
S31520250ED00000000031040000300400002F0400002B
S31520250EE02E0400002D0400002C0400002B040000F5
S31520250EF02A040000290400000C0000000C00000034
S31520250F000C00000008000000630600000000000019
S31520250F1064063D0100000000000000006506390139
S31520250F2066063A0167063B0168063C01000000007B
S31520250F300000000000000000000000000000000066
S31520250F400000000000000000000000000000000056
S31520250F500000000000000000000000000000000046
S31520250F600000000000000000000000000000000036
S31520250F700C0000000C0000000C00000008000000FA
S31520250F8000000710060805080706060407040504B9
S31520250F90040406020000020D0208020602050204C8
S31520250FA002030203020302020000070806040504C1
S31520250FB007030602070205020402060100000206AF
S31520250FC002040203020302020202020202020201B3
S31520250FD05A0418080830FF240000000000000000ED
S31520250FE05A0518090831FF250000000000000000D9
S31520250FF05A06180A0832FF260000000000000000C5
S315202510000000000000000000000000000000000095
S31520251010060000000600000006000000060000006D
S31520251020080000000A0000000E0000001000000045
S315202510301200000014000000070000000700000031
S31520251040070000000700000006000000050000003C
S31520251050040000000300000002000000010000003B
S31520251060000000009F04032400000000000000006B
S31520251070000000009F076007200B042700000000C2
S31520251080000000009F876087208B04A700000000B2
S3152025109000000000040000000400000005000000F8
S315202510A00600000007000000090000000B000000D4
S315202510B00D000000100000001000000008000000B0
S315202510C00800000008000000080000000A000000B3
S315202510D00C0000000E000000100000001200000089
S315202510E014000000000000000000000000000000A1
S315202510F0000000000100000002000000030000009F
S31520251100040000000500000006000000070000007E
S315202511105A0418080830FF240000000000000000AB
S315202511205A06180AFF2600000000000000000000CD
S315202511305A07180BFF2700000000000000000000BA
S315202511405A06188AFFA600000000000000000000AD
S315202511505A07208BFFA70000000000000000000092
S31520251160214325208D44252000000000AD4425203F
S315202511702D452520C545252089462520000000000A
S31520251180004000420080004200C00042000001428B
S31520251190004001420080014200C012400000134059
S315202511A0004013400080134000C013400000144027
S315202511B000C0C5400000C6400040C6400080C6404D
S315202511C000C0C6400000C7400000CA4000000000FD
S315202511D000C0074000000840004008400080084025
S315202511E000C0084000000940004009400080094011
S315202511F000C0094000000A400040C2400080C2408D
S315202512000000000000000000000000000000000093
S315202512100000000000000000000000000000000083
S315202512200000000000000000000000000000000073
S315202512300000000000000000000000000000000063
S315202512400000000000000000000000000A00000049
S315202512500C0000000D0000000F0000001400000007
S315202512601A0000001E0000002300000028000000B0
S315202512702D00000034000000370000003C0000004F
S31520251280460000005000000000000000000000007D
S315202512900000000000000000000000000000000003
S315202512A000000000000000000000000000000000F3
S315202512B000000000000000000000000000000000E3
S315202512C000000000000000000000000000000000D3
S315202512D000000000000000000000000000000000C3
S315202512E000000000000000000000000000000000B3
S315202512F000000000000000000000000000000000A3
S315202513000000000000000000000000000000000092
S315202513100000000000000000000000000000000082
S315202513200000000000000000000000000001000170
S3152025133000004001C0000000800180000000C0019F
S3152025134040000000000200000000C000400100000F
S315202513508000800100004000C0010000000000023E
S3152025136000000001C00040004001800040008001AF
S3152025137040004000C00100004000C00000014000A0
S315202513808000400140004000800140000000C0014F
S315202513904000C000C0008000000180008000480178
S315202513A04000800080010000800080000001800030
S315202513B0400040018000000080018000C0008000A0
S315202513C0C00000014000C00040010000C000800090
S315202513D0C000C00040000001C00000004001C00040
S315202513E0800080000001C0004000000100010000AF
S315202513F000014000C000000100000001000180001E
S3152025140040004001C000000040014000800040010E
S315202514100000C000400140004000800180000000FF
S31520251420800100008000800140000000C0010000EE
S315202514304000C0010000000000020000650A2620A9
S31520251440E10A2620FB0A26200000000000000000D5
S315202514502D0B26209B6E2520A16B2520016C252072
S315202514603B6C25201D6D25205D6D25206D6D252048
S31520251470B56C2520695D25206D5F252007602520F3
S31520251480CF602520C95D2520B1602520C360252074
S315202514901B61252000555603590C0F5A5A0F0C59F6
S315202514A003565500653033663C696A3F3F6A693C79
S315202514B066333065663330653F6A693C3C696A3FE9
S315202514C065303366035655005A0F0C59590C0F5A59
S315202514D000555603693C3F6A306566333366653069
S315202514E06A3F3C690C595A0F550003565603005539
S315202514F00F5A590C0F5A590C5603005555000356A9
S315202515000C595A0F6A3F3C69336665303065663318
S31520251510693C3F6A6A3F3C69336665303065663388
S31520251520693C3F6A0F5A590C5603005555000356F8
S315202515300C595A0F0C595A0F550003565603005568
S315202515400F5A590C693C3F6A3065663333666530D8
S315202515506A3F3C69035655005A0F0C59590C0F5AA8
S3152025156000555603663330653F6A693C3C696A3FB8
S3152025157065303366653033663C696A3F3F6A693C28
S315202515806633306500555603590C0F5A5A0F0C5998
S31520251590035655006D2D2620752D2620000000008A
S315202515A0812D2620912D26200000000000000000F8
S315202515B0000000000100000001000000B31B2520CB
S315202515C03C1425204C1425207C18252000020000BB
S315202515D0010000001F1D25204016252050162520F8
S315202515E07C182520100000000000000000000000C7
S315202515F0EC18252000000000FC18252000010000FD
S31520251600000000001B1C25202C172520000000008B
S315202516103C172520000000000000000000000000E7
S31520251620000000000000000000000000690B2620B5
S31520251630850B2620350C2620FF0C2620F82E272044
S31520251640330E2620750E2620510F26200000000059
S31520251650000000007D0F2620CD622520116425203F
S31520251660AB64252073652520F76225205565252021
S3152025167067652520AF65252021020C00222A010039
S315202516800000000000000000000300080080FF0085
S31520251690000000FFFFFF0000000000000000000002
S315202516A00000000000000000FF00000003020100EA
S315202516B0070605040B0A09080F0E0D0C1312111027
S315202516C0171615141B1A19181F1E1D1C2322212017
S315202516D0272625242B2A29282F2E2D2C3332313007
S315202516E0373635343B3A39383F3E3D3C43424140F7
S315202516F0474645444B4A49484F4E4D4C53525150E7
S31520251700575655545B5A59585F5E5D5C63626160D6
S31520251710676665646B6A69686F6E6D6C73727170C6
S31520251720777675747B7A79787F7E7D7CCD0F26209A
S315202517300110262053102620000000008F10262079
S3152025174093102620F71026209F112620AD1126201E
S31520251750DF112620000000000000FE1F00000220C9
S3152025176000002200000000000000040000002000E8
S31520251770000000000000000000000000000000001E
S31520251780000000000000000000000000000000000E
S3152025179000000000000000000000000000000000FE
S315202517A0000000040804080001210621212100004B
S315202517B00204020400011003211021000002040264
S315202517C0020001100321102100000103010200015E
S315202517D0100321102100000102010100011003211F
S315202517E01021000001020101000110032110210012
S315202517F00000000000000000000000004D49435273
S315202518004F4E2020202020205350414E53494F4EC5
S315202518102020202053414D53554E4720202020203F
S3152025182057494E424F4E44202020202048594E4984
S315202518305820202020202020544F534849424120FB
S31520251840202020204D4143524F4E495820202020EC
S31520251850000000000000000000000000E9522520BD
S315202518608F552520815625208D5725206D532520BA
S315202518707B5825208D58252000000000611526201F
S3152025188067152620EB152620891626206515262060
S31520251890951626204115262061472520EB4925200A
S315202518A01B4B2520F34C2520F3482520B54C2520F8
S315202518B0C74C252000000000C104262049052620E6
S315202518C0000000004905262000000000E10526200D
S315202518D02906262000000000D106262007072620D7
S315202518E05B0726209B072620CF0726203526262060
S315202518F041272620ED27262047282620552826201D
S315202519007928262007292620A5292620B7292620F5
S31520251910BB2926200000000038B504463E4D002070
S315202519202862C5E90000C5E90200C5E90400686208
S315202519303A4800F0B3F8C5E9060120460FF25D01C5
S31520251940BDE8344000F080BA00F094BA70B50C4654
S31520251950314E316A072904BF756AA8421BD100F08A
S315202519606BFE0546C5EB0515D6E90023D6E902010A
S3152025197082184FF49666B5FBF2F00A250A236843AA
S315202519804FF49662B0FBF6F6761D0020B6FBF3F3F0
S315202519905343236070BD012070BD00002DE9F84317
S315202519A01D4F064600F070F83A6A0446D7E90459D1
S315202519B08846521C651BD7E9060168EB0909494566
S315202519C002D82CBFA8420122012A3A6206D0042A2F
S315202519D008D0052A0ED0072A0FD018E0C7E90048D7
S315202519E07E6214E0D7E90023A21A68EB0303C7E930
S315202519F000230CE0C7E9024809E0D7E90201201AAD
S31520251A0068EB0101C7E90201304600F033FAC7E940
S31520251A100448BDE8F1830000001C272080380100FA
S31520251A2080B50120364908600022364B36481A6093
S31520251A304FF0FF31016182610122C261836943F042
S31520251A4004038361826942F00102826101600121DA
S31520251A50C160816000F0F0FD2C49B0FBF1F000B9A2
S31520251A6001202B4A906001BD10B50320264900236D
S31520251A7002018C18401EA3608B50F9D52148016898
S31520251A8041F00201016010BD81B0224801684268FB
S31520251A900092009801B0C943C04370471C498A6803
S31520251AA0A2FB0001704770B50646FFF7EDFF0446F9
S31520251AB00D4617488168E1FB0645FFF7E5FFA94254
S31520251AC0FBD301D8A042F8D370BD10B50446FFF745
S31520251AD0DBFF0F4A9368E3FB0401C2E9000110BD31
S31520251AE038B5FFF7D1FF0A4AD2E90045A94204D3E2
S31520251AF001D8A04201D3012032BD002032BD0000ED
S31520251B00C067CC4000800D4000810D4040420F002B
S31520251B10281C2720E0800D404901020003D4DFF848
S31520251B20840381547047DFF8802300F00F001318B3
S31520251B3003F8041C704710B5039C01F00F012401FE
S31520251B4004F010042143016002B1136010BD002169
S31520251B50016002B11160009808B1019901607047B2
S31520251B60FEB5089C0027099D0A9E01970094FFF73C
S31520251B70E2FF0C2020606C68012000FA06F624EA94
S31520251B8006066E60F7BD7CB50AE07CB5069C002668
S31520251B90079D01960094FFF7CEFF256073BD7CB582
S31520251BA0069C002501950E260094FFF7C4FF266086
S31520251BB073BD7FB5BD4CBE4DBE48BF4A19B102295E
S31520251BC01DD011D37FBD0226009501960023002224
S31520251BD02046FFF7BCFF0196002300950022002111
S31520251BE02046FFF7B4FF7FBD1821B44B029105216E
S31520251BF00193002300920022FFF7B2FF7FBD0092BA
S31520251C000023AF4A0021FFF7BEFF009500230022BF
S31520251C1000212046FFF7B7FF7FBD002800D070475B
S31520251C202DE9FE4FA74CDFF8A0A2DFF8A0B2A84FDA
S31520251C30DFF8A082DFF8A092A84DA948A94AAA4B89
S31520251C4011B1022923D045E00821019104210093D1
S31520251C500023FFF77CFF082000F04AF8FFF777FFDF
S31520251C60082000F039F8FFF772FF0821009401912A
S31520251C7000F039F8FFF76BFF082000F048F8FFF74A
S31520251C8066FF082000F03BF8FFF761FF22E0974E1C
S31520251C9031680093019100230421FFF776FF7068B0
S31520251CA000F026F8FFF771FFB06800F015F8FFF76A
S31520251CB06CFFB0680094019000F015F8FFF765FFDA
S31520251CC0B06800F024F8FFF760FFB06800F017F839
S31520251CD0FFF75BFFBDE8F78F0097019000235A4653
S31520251CE00421504670470023814A042181487047A4
S31520251CF0002301904A4600950421404670477E4997
S31520251D000190002300917D4A04217D4870477D4915
S31520251D100190002300917C4A04217C4870472DE9B7
S31520251D20FE4F7B487B4A7C4B7C4C7D4DDFF8F481EE
S31520251D30DFF8F4B17D4EDFF8F891DFF8F8A17E4F74
S31520251D4019B102294CD03FD359E04FF0060C009308
S31520251D50CDF804C00023FFF7FAFE0E2000230190BC
S31520251D605246009700214846FFF7F1FE062000231C
S31520251D7001905A46009600214046FFF7E8FE0621A7
S31520251D800095019100F04EF8FFF7E1FE06206B49FC
S31520251D9001900023009100F034F8FFF7D8FE0620A5
S31520251DA06749019000230091664A00216648FFF77E
S31520251DB0CEFE06206549019000230091644A002124
S31520251DC06448FFF7C4FE1AE0009300230021FFF79D
S31520251DD0E6FE00F01AF800F01EF800F022F80CE0D6
S31520251DE000F013F800F017F800F01BF8FFF7D7FEE0
S31520251DF052480023009000F004F8FFF7D0FEBDE8F6
S31520251E00F78F554A0021554870470097002352469B
S31520251E1000214846C3E6009600235A46002140461F
S31520251E20BDE600950023224600214D48704710B572
S31520251E304C4C2068C10106D54B4A0120536898474A
S31520251E404FF08071216010BD10B5474B1B4C596052
S31520251E5004221821204600F0A1FC6369012169206E
S31520251E6043F080736361FFF757FE4FF400703F49B7
S31520251E70086010BD80B500203B4948604FF40072AC
S31520251E803B4B1A60BFF34F8FBFF36F8F002169201D
S31520251E90FFF742FE002218210848BDE8084000F039
S31520251EA07DBC000000E400E018ED00E06C810E40CA
S31520251EB0B0830E4070810E40B4830E4000401340FF
S31520251EC01C860E40EC830E40A4810E408C860E4047
S31520251ED0E8830E40A0810E4084860E40E4830E4082
S31520251EE09C810E4088860E40E0830E4038012720AF
S31520251EF090860E40A8810E40F4830E4098860E408B
S31520251F00B0810E40F0830E4094860E40AC810E4063
S31520251F1050810E406C860E4094830E4074860E406A
S31520251F20A0830E4058810E4070860E409C830E401D
S31520251F3054810E4078860E4098830E40A4830E4009
S31520251F40A8830E407C860E4064810E40AC830E40CD
S31520251F5080860E4068810E4000800E4060810E40AE
S31520251F605C810E4018401340F02E27200CE100E01E
S31520251F708CE100E0DFF8CC060068810500D47047A7
S31520251F8010B5030ADFF8C046202203F00103000618
S31520251F90226040EA832020612168012041F4807156
S31520251FA0216000F09CF8226822F48072226010BD00
S31520251FB018B50020DFF8941600900A68C2F3405021
S31520251FC040B30098DFF88826DFF8881690B91423C1
S31520251FD01362106A4300FCD50C6844F480740C60A7
S31520251FE0106840F0040010600A6B0B6803F48073B8
S31520251FF00B6011BD009801280CD10B6843F4807322
S315202520000B60146844F004041460086B0A6802F413
S3152025201080720A6011BD10B5DFF83C46DFF83C0614
S315202520202168014041F0080100F045F821F4F052DD
S3152025203042F4002242F4A0522260BFF36F8FC820BB
S3152025204000F04DF8216841F0200100F034F8642095
S3152025205000F045F8206840F0040028E010B5DFF8A8
S315202520600046DFF800062168014041F0040100F012
S3152025207022F841F001022260BFF36F8F4FF496704C
S3152025208000F02DF8216841F4003100F014F84FF4C2
S31520252090C87000F024F8206840F480202060BFF323
S315202520A06F8F322000F01BF8206820F00400206076
S315202520B0BFF36F8F10BD2160BFF36F8F7047DFF899
S315202520C0A825DFF8A8051168C1F34011002903BF0B
S315202520D0116FC1F380010029DFF894057047002888
S315202520E000D1704710B5DFF88C25DFF88C451368AD
S315202520F0DFF888150522B3FBF4F4604348600020F9
S3152025210088600A600B68D803FCD500220A608A609D
S3152025211010BDDFF86C050168490849000160026990
S3152025212042F00102026125E7DFF840158842F8B51D
S315202521301DD1DFF85045DFF850552C60BFF34F8F62
S31520252140BFF36F8F1E20DFF83065FFF7C8FFDFF856
S3152025215024251E2013680021B3FBF6F242432F685F
S31520252160BB000DD4491C8A42F9D20520F2BDDFF8E1
S315202521700015884208BFDFF81445DCD00420F2BDBF
S3152025218044F4804400202C6024F080442C60F2BD49
S31520252190DFF8D8148842F8B507D1DFF8F454DFF8EC
S315202521A0F4442068810009D538E0DFF8C42490421C
S315202521B008BFDFF8E454F2D00420F2BD206ADFF808
S315202521C0B86460F0C03020621E20256045F40015D5
S315202521D0FFF785FF45F400651E20256025F400655B
S315202521E0FFF77DFF2560DFF88C2413681E2000214C
S315202521F0B3FBF6F242432768BB0004D4491C8A4226
S31520252200F9D20520F2BD45F4005545F0080525608F
S3152025221025F080452560DFF8840420620020F2BD64
S315202522200021DFF84824904270B52CD11620DFF8FE
S3152025223070444FF0FF33226BDFF83C5462F07F3237
S31520252240226323662164DFF85C1420651E20216025
S31520252250FFF745FFDFF85024FA202260FFF73FFFDE
S31520252260DFF81024DFF8441421601368FA200021B2
S31520252270B3FBF5F242432668B3000ED4491C8A42A5
S31520252280F9D2052070BDDFF8E813884203D14FF037
S3152025229000411B20CBE7042070BDDFF81404DFF8AE
S315202522A014142060DFF81024216040F201402263B7
S315202522B0DFF808341860DFF808442060002070BD58
S315202522C070B50546DFF8FC0314210160026853002A
S315202522D0FCD5FFF7F4FE0446DFF8AC6335B130684C
S315202522E0810006D42046FFF71FFF70B9306981008B
S315202522F001D5002070BD00F0E3F82046FFF748FF02
S3152025230018B92046BDE870408AE770BD2DE9F84FFB
S31520252310DFF8B45301212A68C2F3011401FA04F423
S31520252320092C28BF0124002874D1FFF7F2FEFFF7D8
S315202523303FFE601E00F0FF0B2868A30004EB440136
S315202523404FEA440C40F20476DFF88073DFF8808369
S31520252350DFF88093DFF880A3DFF88023C0F3C00061
S3152025236048BB4FF002101060106A0028FCD44BF4AD
S315202523700070491ECAF80000ACF1010000F0FF00EC
S3152025238040F4007001F0FF015B1EC9F8000041F4FE
S31520252390007103F0FF03C8F8001043F400730020F2
S315202523A03B60FFF78DFFDFF83803DFF8381306602B
S315202523B0B1FBF4F125E05B1E03F00F001B0403F4AB
S315202523C07F03034364460D461360106A0028FCD418
S315202523D00120641EFFF774FF4BF4806004F0FF0490
S315202523E06D1ECAF8000044F4007405F0FF05C9F8EF
S315202523F0004045F48065C8F80050B9483D60BA4983
S3152025240006609C4A116000F08DFC0421BDE8F44F3E
S3152025241000F0C0BBBDE8F18FF8B5AB4A01211368A2
S31520252420C3F3011401FA04F4092C28BF012400283A
S3152025243045D1FFF76EFEFFF7BBFDFFF7ECFDFFF756
S315202524400DFE04EB4401A54B6000A200491E0E0497
S3152025245001F00F0506F47F0635431D601F6A002F00
S31520252460FCD4631E03F0FF0343F400739A4E401EEB
S31520252470336000F0FF0001F0FF0140F40070954B1A
S31520252480186041F400719248521E016002F0FF0245
S3152025249042F400728D490A600020FFF711FF40F2B1
S315202524A004708F4A8F491060B1FBF4F1714B196086
S315202524B000F038FC0421BDE8F44000F06BBBF1BDEB
S315202524C038B58A4C0020206040F205112161884DBF
S315202524D02A68642082F480322A60FFF700FE4FF4B2
S315202524E080314FF4807021602A68824B82F48032B5
S315202524F02A6018600120FFF7F2FD286F40F01000B2
S31520252500286731BD10B5040002D1584859490860BD
S3152025251000F017FD0028204602D0FFF77DFF01E0B9
S31520252520FFF7F4FE40F203207349086010BD70B50D
S31520252530724C4FF00040A063216B714D21F08041F4
S315202525402163206B40F440402063216B41F4C01168
S315202525502163286840F4001028602E68FFF7AFFD18
S31520252560424926F0E07688420CBF46F4400646F0DE
S31520252570A0762E60286840F4405028606420FFF716
S3152025258092FA29684FF4803041F040012960A860ED
S31520252590226B002022F0804222632060012070BD1C
S315202525A0072819D8DFE800F004070A180D0F121599
S315202525B00520102112E006200F210FE006200C21F0
S315202525C00CE0052000E00720052107E0072004214F
S315202525D004E00620032101E005200821491E01F0FB
S315202525E0FF0141EA0021474801607047012000E0AC
S315202525F000204549086070473548016801F0FF00ED
S31520252600090A01F00701891E052904D8DFE801F00A
S315202526100507090B0D0F15490AE0324908E03B4904
S3152025262006E03B4904E03B4902E03B4900E03B49C3
S31520252630401CB1FBF0F07047DEE739487047354836
S31520252640704700001041C8402049C84010CACA40DA
S315202526500040C840C040C8401045C840DAFFF7FFB3
S315202526603045C840FEFFF9FF30C9CA4000366E0105
S3152025267000F824018C01272040420F0010E000E0BD
S315202526805040C840742000400042C8409120004058
S31520252690130000401042C840150000400D11201897
S315202526A04042C84008000040080880400800804075
S315202526B008208040082080001B101820001DCC40B3
S315202526C0801DCC402040C840A0C9CA408001CC40AE
S315202526D00001CC408000CC400000CC400040CC40BE
S315202526E0800CCC400084D717001E7C292048C84062
S315202526F00045C8408045C8400020CC400040434086
S31520252700A04043400002CC402064CC400024F40065
S3152025271000389C1C00C2EB0B00A4781F40DCB311AB
S3152025272000879303F8B506460C461546002014491E
S3152025273051F82020B24202D0401C1328F8D300BFDE
S3152025274030A3012118560F4A01FA04F740011150EA
S315202527507269F9430A407261287818B97368194055
S31520252760716007E06A782146304600F00DF87368D7
S315202527701F437760AA7821463046BDE8F8400DE00C
S31520252780801125200060CC40012303FA01F18430F5
S315202527900AB941607047016070470000F0B5C369EA
S315202527A0012404FA01F5AB431029C36132BF00F198
S315202527B00C0300F110031039490003268E40F743F8
S315202527C0521E042A1DD8DFE802F003070D1519002D
S315202527D0186807401F60F0BD1A688C4017403C4397
S315202527E01C60F0BD1C68022505FA01F127403943F6
S315202527F01960F0BD186806431E60F0BDC1690D43FA
S31520252800C561F0BDFF3333333333000038B5144665
S3152025281000252CB1042903DA012818BF022801D066
S31520252820042032BD11B1022906D042E0002000F055
S315202528302BFC2060284632BD0021012808BFDFF861
S31520252840F41403D0022808BFDFF8EC1408680968B9
S3152025285001F0FF01491CDFF8E424000A00F00700F7
S31520252860072824D8DFE800F004071114171A1D209D
S31520252870B2FBF1F0DDE7DFF8C8040368C3F3800077
S315202528800028F5D0DFF8BC24F2E7DFF8BC24EFE7F3
S31520252890DFF8B824ECE7DFF8B824E9E7DFF8B42435
S315202528A0E6E7DFF8B424E3E7DFF8B024E0E70325FD
S315202528B0C0E70425BEE701282DE9F84F84B014D1B9
S315202528C000220091096CCB05DFF89C1448BF521CC9
S315202528D0782042438C18009A04F1440502F15006CB
S315202528E03069002808BF686A04E0022840F0008184
S315202528F00222E6E70390D6F81C80706904F12407A6
S31520252900DFF86894DFF85CA4B8F1000FDFF850B43F
S3152025291008BFD5F83080002812BF0290A96A0291F7
S31520252920B069002812BF0190E96A0191316811B971
S31520252930706820B971E02078617800F0EDF871682B
S3152025294000291CBF2079002802D0617900F0E4F8FF
S31520252950207A10B1617A00F0E5F80023019904EB7D
S31520252960830000F1140292F800E050784BF82E00EF
S3152025297000F0C8F8042BF2D30191009991F845204F
S31520252980082A11D1387878B10423019904EB8300DC
S3152025299000F1140292F800E050784BF82E0000F052
S315202529A0B1F8082BF2D301910098007B032818BF94
S315202529B0012821D10098016C8A0509D5D6F81C80D5
S315202529C00FF2C430B8F1000F04D14FF0080801E00A
S315202529D004F1100000281CBF017800290CD042786C
S315202529E042F010024BF8212001784AF8218081787F
S315202529F011B1C27849F82120009800F0DCFB002887
S31520252A001CBF207B002808D0617B00F08BF8A07B9B
S31520252A1018B1E17B024649F82210B06810B9F16851
S31520252A2029B965E0387C10B1797C00F075F8F16814
S31520252A3000291CBF387D002802D0797D00F06CF84E
S31520252A40387C002804BF397D002951D0387E10B125
S31520252A50797E00F067F80022019904EB820000F1C7
S31520252A60480393F800C05E784BF82C6018784AF80E
S31520252A70201000F040F8042AEFD3009890F845203E
S31520252A80082A11D1287D78B1042204EB8203483304
S31520252A901E7858784BF8260093F800C04AF82C1053
S31520252AA000F029F8082AF0D30098007B032818BFC0
S31520252AB001280DD1287858B1697841F010014BF8B5
S31520252AC020104AF82080A87810B1E97849F82010F6
S31520252AD0009800F070FB00281CBF387F002807D0FF
S31520252AE0797F00F01FF8B87F10B1F97F49F82010BB
S31520252AF005B0BDE8F08F987810B1DB7849F82030FD
S31520252B00521C704710784AF82010907810B1D27848
S31520252B1049F820205B1C70474BF82010039A4AF869
S31520252B202020704741F010014BF82010029A4AF8D0
S31520252B3020207047000038B504460D46002000F0B9
S31520252B40A3FA8C49B0FBF1F122462B46541E63F19C
S31520252B500005002B08BF002A08D08A08521C1046DB
S31520252B60421E002818BF00BFF9D1EDE731BD8049A7
S31520252B700860002070477E490A6802600020704759
S31520252B80042011B17C48086000207047002070473A
S31520252B9000000000FEB5044604207CB3022C2DD867
S31520252BA008292BD20025012C08BF624D02D0022CE4
S31520252BB008BF614D2E68684661F30A2673A191E800
S31520252BC08C0080E88C002868864216D0204600F0A6
S31520252BD092F808B92E6010E05DF8247020463968F1
S31520252BE041F00201396000F079F82E60204600F088
S31520252BF068F8386820F0020038600020FEBD000005
S31520252C00012AF8B584B0044653D8002951D0012C81
S31520252C1008BF484D02D0022C4BD1474D2B680126A3
S31520252C2000201B0A03F00703032B03D8DFE803F054
S31520252C3011454347514B1F18012A04BF181800F187
S31520252C4028070A2928BF012107EB4100467817F8CE
S31520252C501100761E000206F0FF0600F4E06000BF94
S31520252C604DA2064301A9204692E8881081E88810BE
S31520252C7001AF00F040F840B157F82400016841F033
S31520252C8002010160204600F029F828688642204660
S31520252C9018BF2E6000F015F857F824006A460168FB
S31520252CA021F0020101600020009002212046FFF735
S31520252CB0ADFD05B0F0BD1420BCE70120C9E70320F2
S31520252CC0C7E701282E4902D0022806D12031012026
S31520252CD00860BFF34F8FBFF36F8F704701282849B0
S31520252CE002D0022806D1203100200860BFF34F8F5D
S31520252CF0BFF36F8F7047014600200129204A02D055
S31520252D00022903D12032116801B10120704741B132
S31520252D10C90001F0380141F00102C166026642660A
S31520252D208266704700E0000016480068C0F3C02080
S31520252D30401C7047000ACC40800ACC4000366E01E4
S31520252D40A0C9CA4000B0710B0084D7170024F4000F
S31520252D50E04B9D2700A4781F007B9A1700389C1CE2
S31520252D6010800E4054820E40A00D252098840E40BA
S31520252D701C40C04040420F0080F5E409800F2520E5
S31520252D808063CC400840C04012062E00000000007B
S31520252D9000C00C4000000D400000000000C00C4083
S31520252DA000000D4040010329DFF8742202D10121BC
S31520252DB011507047002313507047F0B5DFF8642271
S31520252DC000211160DFF860320C2400251C6000F1FB
S31520252DD0080655605C6091600C219C600024D560B6
S31520252DE00C25D960002114610C241D610025516113
S31520252DF05C6195619C61D561DFF83052DC61317863
S31520252E00DFF82C4221B1012904BF717E102918D162
S31520252E1000260C27966700219F670C26D167002759
S31520252E20DE672F60266069600C2166600026AF600C
S31520252E300C27A1600021EE60E76029612761696181
S31520252E40676100260C27D6640021DF640C261165D0
S31520252E5004271E6591659E650C2629622762916445
S31520252E609E6490F83000042802D151645E64F0BD3A
S31520252E7069626662F0BD0000002070476D49FF201B
S31520252E800A68120912F00F0209D0921E052A08D9BE
S31520252E90921F032A07D9121F032A06D97047012014
S31520252EA0704708207047402070470220704710B58C
S31520252EB06148C1680A6961490B681C0402F18C00C6
S31520252EC003D00A680968090C02E041F2A25273214F
S31520252ED0C182828210BD5848C168086958490A6846
S31520252EE082640969C164704780B50020FFF70AFB13
S31520252EF000F033F803217320BDE8044052E7002172
S31520252F0073204FE710B54F4A4F481168C1F3031177
S31520252F1009B14E4810BD4E4B11691C68C1F34001BD
S31520252F2004F002042143012901D14A4810BD116923
S31520252F301A68C1F3400102F00202114308BF464830
S31520252F4010BD464840F624410068C0F30B10884240
S31520252F5001D1012070470020704770B540483F4C6D
S31520252F600168C1F305412D290BD3BFF34F8FE068A7
S31520252F703C4900F4E0600843E060BFF34F8F00BF73
S31520252F80FDE724680620414340F62445364A37483E
S31520252F90C4F30B14AC420A44354B364906D1364C7C
S31520252FA0364D0C604D604C618D610EE000246FF02E
S31520252FB060460C6055884FF000544C61AD026D1E5D
S31520252FC04D60158806EB85268E618B62928800EBEF
S31520252FD08220C86270BDC169026A29480368C3F385
S31520252FE04030002800D1704710B500200B1890429C
S31520252FF006D21C78202C1EBF5B789B1C1818F5D171
S31520253000401D90420BD21F48016899700268120A0A
S31520253010DA700468240C1C710068000E587110BDE6
S315202530200060CC4010800E4054820E4090800E4089
S31520253030D4820E400840C04010002720E0CACA404E
S3152025304000C9CA40D0C8CA40CC4241403342414833
S3152025305060C9CA40F04241480042414800ED00E09F
S3152025306070CCCA400400FA052C132520FFFF3720F3
S3152025307000002020480027200000FE1FFFFF0120FA
S3152025308070C9CA4090CCCA40112810B53FD8DFE870
S3152025309000F0093E3E3E3E1F222426282A2C3E307D
S315202530A03436383AFFF74DFF002819BF30480068D7
S315202530B03049086800F0FF04641CC0F3022002286A
S315202530C00EBF2D48002000F024F8B0FBF4F010BDEB
S315202530D04FF4004010BD00200CE003200AE000201C
S315202530E004E0012002E0022000E00320BDE8104094
S315202530F02EE00220BDE810400BE0002004E0012050
S3152025310002E0022000E00320BDE8104010E0002068
S3152025311010BD20B1022804D0032804D005E0174885
S31520253120704717487047174870470020704700009A
S315202531300146002003290AD8DFE801F00204060803
S3152025314011487047114870471148704711487047F4
S315202531500146002003290AD8DFE801F002040608E3
S315202531600D4870470D4870470D4870470D487047E4
S315202531708000CC400000CC400084D7178083902F38
S3152025318000A4781F00389C1C0018FB1480B86723E0
S31520253190007B9A1740DCB311D9399D27A5104B1EE4
S315202531A080DF1710002A751590F8400010F00400CE
S315202531B018BF0120704790F8400010F0010018BF75
S315202531C0012070472DE9FF4781460D46042600F04C
S315202531D0A6F8040018BF002D7CD0287B042879DA90
S315202531E0032801AE15D195F84000810711D46A46EA
S315202531F002214846FFF70AFB0098DFF8BC158842CE
S315202532000CD395F84020130608D4792101917160B5
S315202532103FE04FF48070019070603AE000274FF42C
S315202532207A7805EB47007830417829BB00786421E8
S31520253230484319D1286C03A9800900F0010A524672
S315202532404846FFF79DFC0399BAF1000FDFF86C0578
S31520253250B0FBF1F101D1490800E089084B2208FB92
S3152025326001F1B1FBF2F106E04B23B0FBF3F103FBB1
S3152025327001F2824200D2491C402928BF3F2149021A
S3152025328001F4FC4141F4807146F827107F1C022F5A
S31520253290C7D32068400800F0010090F0010003D034
S315202532A0216841F0020121602A6D04F1C003002A1C
S315202532B007BF696D0029019A1A60A96D002907BFE4
S315202532C0EA6D002A7168596018B1206820F002003D
S315202532D020600026304604B0BDE8F08710B50446A8
S315202532E00420002C18BF002A0FD073B1DFF8CC0498
S315202532F0B0FBF2F04343B1FBF3F000E0401C00FBAA
S3152025330003F28A42FAD32060002010BDD0F8E010BF
S31520253310CA07FBD5D0F8E0309907FBD5704701467B
S31520253320002003293CBF0FF6840050F82100704762
S315202533302DE9FE4F0E460021814600910424FFF7F4
S31520253340EEFF5FEA000B18BF002E4BD006F1500882
S31520253350002506F5C87458F8040B0BEB850A800A58
S31520253360CAF86000707BB77BF17B400100F478704A
S3152025337007F01F07074396F84000C90201F4F041DC
S315202533800F430107706F48BF47F4806768B101AACC
S3152025339002214846FFF73AFA019A716F01236846BA
S315202533A0FFF79CFF009947EA0147CAF8707096F8FF
S315202533B0470000281EBF21784A0112F0E00F09D0C8
S315202533C06078491E490301F46041000200F47060CB
S315202533D0084301E04FF410606D1C042DCAF88000C7
S315202533E0B9D300242046BDE8FE8F0422002810B537
S315202533F018BF00291ED040310A79012A0AD1C26870
S3152025340009785208520042F040024B0748BF42F045
S315202534100102C260C168DFF8A84341F02001C160DE
S31520253420002100EB8102491C136A234007291362D8
S31520253430F7D30022104610BDF0B5044689B00420E6
S3152025344031B30020012603278DF800000396029725
S315202534508DF81020019391F84720002A1EBF01F5EB
S31520253460C4721078002803D05378029312780392D9
S31520253470029D039B01EB05160121204606F18002BC
S3152025348000F066F9012369460293204600F09EF94D
S3152025349009B0F0BDF0B589B006460D461746042479
S315202534A0FFF73DFF002818BF002D33D001210197B6
S315202534B08DF800106A7D3B4630460292297D0022F2
S315202534C00694039105F11801059129468DF81020BA
S315202534D0FFF7B2FF0298039B05EB0011304600F05B
S315202534E072F8012069460290304600F06FF90400F3
S315202534F010D1688A60B9697C022918BF032907D0AB
S315202535003B4600222946304600F058FA044601E07B
S3152025351000F05DF8204609B0F0BD2DE9F84189B0C7
S3152025352080460C4616460427FFF7F9FE002818BFC5
S31520253530002C3ED001200697002225468DF8000036
S315202535400424019600278DF8102005EB870101F12B
S3152025355020025078002832D0029012783031334616
S3152025356003920022059129464046FFF765FF040070
S315202535701ED10298039B05EB0011404600F023F847
S31520253580012069460290404600F020F904000FD11B
S31520253590688A90B9E919497F022918BF03290CD0D1
S315202535A0334600222946404600F008FA040006D074
S315202535B0274638460AB0BDE8F08100F008F87F1C7A
S315202535C0032FC2D3F4E701F180020121C0E0642153
S315202535D048430021FFF7AFBA2DE9F84F80460D461F
S315202535E00424FFF79CFE070018BF002D00F09A80C3
S315202535F0297C0029734904BF287F002828681DBFF8
S315202536002E6C360906F00106002688425ED14046F4
S31520253610FFF764FB29464046FFF74DF9300002D0D7
S315202536200022012106E02A6C05F145004178920900
S3152025363002F001024046FFF7E3FA4046FFF741FB39
S3152025364000F07AF839684DF60F7041F0020139609D
S31520253650396895F845200140287B082A08BF41F47A
S315202536600051000100F03000014341F07F4141F433
S315202536707F013960B96821F40041B96095F8400089
S31520253680C10703D5BA6842F40022BA6029463846CE
S31520253690FFF7ABFE29464046FFF74AFE2946404618
S315202536A0FFF790FD00F048F8287C80B100F03DF822
S315202536B059F8044B34B1524629464046FFF7EAFECF
S315202536C018B9A244BBF1010BF2D104002AD1287FD7
S315202536D080B100F02AF859F8044B34B152462946D0
S315202536E04046FFF71AFF18B9A244BBF1010BF2D1C8
S315202536F0040017D1AEB1386840F0020038602A6C34
S3152025370005F1450041784046920902F00102FFF76E
S3152025371077FA29464046FFF755FD386820F00200FE
S31520253720386000242046BDE8F28F04204FF0000A99
S3152025373005F1500983467047386820F00200386025
S31520253740396841F0010139603A68D307FCD47047BE
S315202537502DE9F8430E4691461D464FF00408FFF7FE
S31520253760DEFD040018BFB9F1000F21D00027002166
S315202537707019794100291BD8112819D22046FFF71F
S31520253780C5FD11480221A061E161B10004EB81024A
S31520253790AE1902F5007204E059F8043B491C42F89B
S315202537A0043BB1EB860FF7D3A0610120E061B84633
S315202537B04046BDE8F283000000E1F50500CA9A3BA4
S315202537C000FEF0F846434642F05AF05A2DE9F843D2
S315202537D0074600F0D4F904004FF0040818BF002D41
S315202537E000F0CA802878042880F2C68095F81090A3
S315202537F02046FFF78BFD384604F1A00700F08DF90A
S315202538006069002640F01E00606169683960287865
S31520253810022808BFAE6902D0032801D12E6AB6B286
S31520253820A868E968000400F470200643491E0906A5
S3152025383001F0E0610E4346EAC9767E6028780328A2
S3152025384034D1EA69286A12F0030138D11C23BB61D9
S31520253850B96941F00101B961BB69D907FCD4396938
S3152025386041F00101396108B3402804F5807314D34A
S3152025387061694FF0100C890604D414E053F8041B13
S3152025388042F8041B5FEA0C01ACF1010CF6D1616903
S31520253890403841F02001616105E0396DC90001F408
S315202538A0FF61814222D261690B07DCD5287802285F
S315202538B018BF01283AD16A69A96912F003005BD19C
S315202538C01C23FB61F86940F00100F861FB69D807E4
S315202538D0FCD40026002929DD606904F5C07340063D
S315202538E021D540294FF0100C38D30CE0042822BFCF
S315202538F053F8041B42F8041B001FF7D23DE052F86B
S31520253900040B43F8040B5FEA0C00ACF1010CF6D14D
S31520253910403926B93869012640F0010038616069A9
S3152025392040F04000606163691807D3D5287818B917
S31520253930396941F0010139612046FFF7E7FC6069C5
S31520253940010717D5786CC0F303600E280CBF41F606
S31520253950583841F659380FE043F8040B5FEA0C0036
S31520253960ACF1010CD5D00029D2BF0020091F52F871
S31520253970040BF1E74FF000081AE740B119680091CA
S31520253980694611F8013B401E02F8013BF9D16069D1
S315202539908CE780B5FFF7C3FC18B1D0F8E0108A076D
S315202539A0FBD501BD80B5FFF7BAFC30B1016841F0E2
S315202539B0010101600268D307FCD401BD00292DE948
S315202539C0F84B8FB016464FF0040900F09F8001F181
S315202539D070070122BC89B7F80EB0002502FA04F833
S315202539E0002401EB85092246D9F850E074449C42EF
S315202539F014D26D1C042DF4D38DF800609DF800207B
S31520253A00032401258DF8184003AC0793002A099530
S31520253A1008950D9414BF0822042201E01346EBE7EE
S31520253A200E92BA89102A02D20E9B5B080E939DF818
S31520253A3000408DF8284091F84730002B1EBF01F510
S31520253A40C2742278002A03D06578089524780994AB
S31520253A500590089801EB0014099B0146059804F169
S31520253A608002FFF775FE3C68200018BF01208DF8DF
S31520253A7001000025059806A9FFF7A8FE5FEA00099B
S31520253A8044D19DF80000D8B102A901AA03AB042090
S31520253A9013F8016B401E01F8016B13F8016B02F830
S31520253AA0016BF5D1BBF1000F0299019803D0014096
S31520253AB038EA010102E0014311EA08010E4610E029
S31520253AC0BBF1000F09D0B889102802DA03A90A8884
S31520253AD00392039838EA000002E0039818EA0000CA
S31520253AE006469DF8013018BF01261E420BD0002D13
S31520253AF008BF002C0ED04FF47A700021FFF71BF853
S31520253B00641E65F10005F6B2002EB3D1484610B0E5
S31520253B10BDE8F08B41F65A39F8E780B5FFF7FFFB6C
S31520253B2058B1002100EB8102491C0429D2F88030A6
S31520253B3043F00043C2F88030F4D301BD38B500F0F8
S31520253B401EF804000BD0FFF7E1FB25B1206840F4D1
S31520253B500060206031BD216821F40061216031BDDE
S31520253B6038B500F00CF8040008D06D0205F4FC45A4
S31520253B70FFF7CCFB45F48075C4F8C05031BD0D4602
S31520253B80FFF7CDBB38B5FFF7FAFF04000CD0FFF7BA
S31520253B90BDFB206865F305102060216841F00101F1
S31520253BA021602268D007FCD431BD0000000000002A
S31520253BB000C00C4000000D40DFF80C1600200A69D5
S31520253BC0D36818607047F8B5DFF8FC650024F069DE
S31520253BD08DF800404569002D51D03169C9680F6897
S31520253BE0012F3BD06C6801F108020DF10203091D56
S31520253BF0A04704001FBF42F21270844242F213717D
S31520253C008C423CD1BDF802204FF2F000824236D1BB
S31520253C103069C3689968002931D05C6822781500F7
S31520253C200AD0142A08DA8568686830B12F68974241
S31520253C3018BF0C35F8D100E0002528001D631CBFD0
S31520253C406B68002B03D020460024984713E042F2C8
S31520253C5010741146204600F05AFA10E0086B58B128
S31520253C60816811B16846884704460CB1002003E0D7
S31520253C709DF8000000B101203169CA6810602046F0
S31520253C80F2BD80B50178002000F041FADFF838250D
S31520253C90D06941690A699047022000F09FFABFF34F
S31520253CA04F8FDFF82815DFF828050A6802F4E06229
S31520253CB002430A60BFF34F8F00BFFDE7DFF80805F3
S31520253CC024210269D36803F10C0000F0B3BA10B59C
S31520253CD004466068093808D0F7380CD0401E07D02E
S31520253CE01F380ED0401E09D00EE000F0F7FC0CE060
S31520253CF001F04FF809E001F095FD06E002F00DFAF6
S31520253D0003E002F054FC00E004202178FCE1DFF8F2
S31520253D10B83470B500F0AFF9EE69B047A7E110B514
S31520253D200446FFF7CBFFDFF8A00462680169C8685F
S31520253D300821026180F820102178002000F0E7F97B
S31520253D40BDE8104002F090BE7CB5DFF87C44002209
S31520253D50E56801920092816840686B46AE6801AAA3
S31520253D60C0B2B04722690021D3681961009A01990A
S31520253D70920800F0E2F973BDDFF84C2438B5D368F4
S31520253D8004466068A168DD68C0B2A847B6E138B5A3
S31520253D90044604206268092A03D1A06800F0C2FAE5
S31520253DA013E0C2F3032101290FD16946104603F0FA
S31520253DB03EF850B9009DDFF8102414219368A06899
S31520253DC04D4359190A6913699847217800F09FF9B7
S31520253DD031BD10B50446FFF771FFDFF8EC03E26825
S31520253DE00169042300F011F88CE110B50446FFF78C
S31520253DF065FFDFF8D403E2680169032300F005F89F
S31520253E00A1680020BDE81040B2E1C8688261A1689A
S31520253E1001616268426180F82030704738B50446D2
S31520253E20DFF8A45328690021C0684161016190F813
S31520253E302000042804D129684A69904704B90446F4
S31520253E4028688169884704B904462869C1682046B7
S31520253E5091F8201000F05BF942F21270844201BFDE
S31520253E602969CA6892F82000082803D1BDE831407F
S31520253E7002F03DBE31BD2DE9FE430646DFF84873E7
S31520253E803869C068016929B9002200203270FFF7F8
S31520253E90C5FF77E0012101AB3170D0F8189005696F
S31520253EA0D0F8148000206A460090F86902A9446952
S31520253EB0D4F804C0E047040002BFBDF804004AF642
S31520253EC0AA2188420AD0F8694269D16888472046BE
S31520253ED0FFF7A4FF00220020327054E0009830B965
S31520253EE042F21270FFF79AFF002030704BE0A8426D
S31520253EF0396988BF28460090C86890F82010082977
S31520253F0012D10299C160009AC2610099029802F0E5
S31520253F10B5FD044642F27D7084421CBF42F274717F
S31520253F208C4216D1002414E0132907D1009A029930
S31520253F30404602F0CBFF009880440AE03C68029A6E
S31520253F4000994B464046D4F80CC0E04700990446D4
S31520253F50884400982D1A05D12046FFF75FFF0021BA
S31520253F6031700FE04CB1F8694169CA6890472046FF
S31520253F70FFF754FF0020307004E03969C9680D61C8
S31520253F80C1F814800020BDE8FE832DE9FE4F0546A5
S31520253F908D4E3069C068016929B9002200202A7012
S31520253FA0FFF73CFF5AE001214AF6AA2929708269A2
S31520253FB0019204694769C168009190F820B0F0699B
S31520253FC0DFF810A241694A6990478046A0450098A6
S31520253FD088BFA046B0B101464246504602F076FF3C
S31520253FE0F069A4EB080442464B465146D0F814C046
S31520253FF0DCF80880C04704B160B3FFF70FFF002126
S3152025400029702BE0BBF1030F19D1D6F800C0019BEF
S315202540105246414638464744DCF804B0D8475FEA3D
S31520254020000BDDD0F0694B46002251464469A6682F
S31520254030B0475846FFF7F2FE002028700FE0BBF167
S31520254040130F01D04744CBE742463946504602F066
S315202540503DFFF7E73069C068046147610020BDE868
S31520254060FE8F594B70B500F006F82E69B04721789A
S31520254070BDE870404BE01D680446E268A16860688B
S3152025408070472DE9F0410546534F6E68D5F80880CF
S31520254090E8680024386018B102F060FF00B90424CE
S315202540A0304602F044FF00B904242978204600F042
S315202540B02EF89CB97E60002000F090F8C7F808807D
S315202540C0386818B180F3088880F3098879684046CE
S315202540D088470020BDE8F04100F080B8BDE8F08192
S315202540E038B50446606802F022FF08B9042005E0A9
S315202540F06568012000F072F8A068A8472178BDE8F8
S31520254100344004E021780020BDE81040FFE73EB585
S31520254110002401908DF80140A0238DF80240022429
S315202541208DF80340284CE0698DF8003002914FF236
S31520254130F0030C226946446935E070B5002588B020
S31520254140A7248DF801508DF800400026551C019096
S315202541508DF8026000208DF803506C4605E004EBAF
S31520254160800551F82030401CAB609042F7D304E0FF
S315202541703EB500F01BF8A3230DE013489DF8032038
S31520254180C0694FF2F003694644699200121DA5685D
S31520254190A84708B070BD8DF800304FF2F003029184
S315202541A044690C226946A568A84737BD0124019094
S315202541B08DF8014002248DF80340034CE069002543
S315202541C08DF8025070470000100027200CED00E0E6
S315202541D00400FA05681C272064202720012870B5AD
S315202541E004461DD00025114E05E07018C168896842
S315202541F001B188476D1C1821694370580028F4D1D0
S3152025420074B902F0FCFEFDF72FFC02F03AFF0020E0
S31520254210074908600120FEF775F9FEF770FE62B69C
S31520254220BFF36F8FBFF34F8F70BD00BFB415252009
S3152025423008ED00E0002202F059BF30B4002513E036
S3152025424050F8042BD30744BFA9F101039A18091F57
S31520254250042942F8045BFAD213468C0744BF1580FD
S315202542609B1CC90748BF1D7050F8041B0029E7D1A0
S3152025427030BC7047BFF34F8FDFF8C42402E01060AF
S31520254280203020390129FADABFF34F8FBFF36F8FFC
S31520254290704780B500920B460246DFF8AC14012004
S315202542A004F0A6FD02BD002930B52FD0DFF89844AD
S315202542B004F5E07260B1012815D0022816D003280E
S315202542C019D004281AD005281AD010281BD01DE06D
S315202542D0DFF870241078002814BF002042F2DD7004
S315202542E00860002030BD4FF0C040F9E700F010F8F7
S315202542F0AD0A0D60F5E713680B60F2E75068EFE726
S31520254300106918B1ECE700F003F8F2E7042030BD78
S31520254310256D636DA26DE06D5D195519451970479B
S31520254320012070472DE9F843ADF5007D0746042485
S3152025433002F0FDFD002838D007F2FF1002F0F7FD28
S31520254340002832D03868DFF8FC53DFF8FC63010FEC
S315202543500C2918D13A463146012004F011FC0400D7
S3152025436020D1002031462870012002F0D9FE0400F4
S3152025437018D10120FFF716FB69461020FFF793FF7A
S31520254380002858D07CE0DFF8C4234FF400789042EB
S3152025439005D142463946304602F098FDE1E7DFF859
S315202543A0B03398426DD1287800286AD03046B14658
S315202543B0FEF7FAFE050006F5E07718D04246314687
S315202543C06846E94602F082FD306C20F00400306410
S315202543D03968490839607868400878603969012044
S315202543E049083961314602F09BFE00283FD14146D6
S315202543F04FF0C04000F0BCF8B0B3B87A68B10020C1
S3152025440031180DEB000449780DF80010335C801C1B
S31520254410B0F5007F6370F3D3E9464A464146DFF877
S31520254420340300F043F8040014D041464FF0C04031
S3152025443000F07CF91AE0DFF820130120009B486460
S315202544406FF020404FF0C042CA63C3180B64012188
S31520254450297016E000F0B6F8040007D079684FF0E9
S31520254460C04000F011F901E042F2DB744DB142461D
S315202544704946304602F02AFD3146012002F050FEFB
S31520254480044620460DF5017DBDE8F08310B513467B
S31520254490AC4C227812B942F2DD7010BD0A46AE4CDC
S315202544A0E16BBDE81040411A1846F2E62DE9F8439E
S315202544B00546A44F38780C46914690BB42F2DD70CE
S315202544C032E07878A04968B9D1F8C021521E154224
S315202544D002D044F6896027E0012000227870BA6050
S315202544E07D6004E0B8687A681018A84216D1B868A5
S315202544F0D1F8C08121184145494634BF2646A8EB27
S315202545000006384432461030751902F0DFFCB868AB
S31520254510A41BB14430184045B86002D100F052F8AA
S3152025452010B9002CCDD10020BDE8F28376B50D46F5
S3152025453006468449087810B942F2DD7076BDAC0866
S31520254540A40005F0030507E001AA04213046FFF75C
S31520254550ADFF60B9361D241F002CF5D12DB101AA3A
S3152025456029463046FFF7A2FF08B900F02BF876BD7D
S31520254570F8B5ADF5806D05460C46774E11E0491CFC
S31520254580B1EB970F0BD250F8042B12F1010FF6D071
S31520254590002000E001200DF5806D01B0F0BDE41B63
S315202545A07D19002CF6D04FF48067B4F5806FF16B1A
S315202545B0684698BF27463A46691AFFF76AFE68462F
S315202545C00021DDE72DE9F8435E4E00257078ADF50F
S315202545D0806D002852D075705B4CD4F8C051B068D8
S315202545E0A84206D0291A06F11003FF22184404F002
S315202545F03DFD70682946FFF7BBFF10B942F2DB70F7
S315202546003DE0554F756802F0FAFCF86B06F110036C
S3152025461021462A1A012002F036FE054602F0F5FC2F
S3152025462000207070B0604DBB4C480268D10304D57C
S31520254630D4F8C0117068FFF71DFE06F11008D4F8CE
S31520254640C041766803E0A4EB09044E44C844ACB1C6
S315202546504FF48069B4F5806FF96B684698BFA146FB
S315202546604A46711AFFF715FE4A464146684604F022
S3152025467007FD0028E7D044F68A6000E028460DF598
S31520254680806D01B0BDE8F08370B504462D4A1078BB
S3152025469010B942F2DD7070BD2B4AD2F8C45168425A
S315202546A000EA04060C19644204406442A41B2146F0
S315202546B0304600F03BF880B928480168CA0303D55F
S315202546C029463046FFF7D6FD21463046FFF750FFCF
S315202546D010B944F68A6070BD002070BDE0B5194931
S315202546E0087810B942F2DD700EBD1749012002F077
S315202546F017FED0B901A90120FFF7D5FDA8B969462E
S315202547001020FFF7D0FD80B914480168CA0303D5C8
S3152025471000990198FFF7AEFD00990198FFF728FF2C
S3152025472010B944F68A600EBD00200EBD0B46024602
S315202547300949C86B0449121A012004F01DBB000043
S315202547405CEF00E078222720782027204643464222
S315202547500F0000F0000400604800272014ED00E03B
S315202547603EB5FEF78BFB022801D001203EBDDFF8A2
S31520254770544B42F224102518284604F0A5FC48BBA4
S31520254780284600F03EFD28BB01A902A804F088FC96
S315202547900199029800F0FBFBE0B9284600F031FD8F
S315202547A0C0B942F22400204400F071FC90B90121C1
S315202547B040F201102170694602F039FB50B900F00C
S315202547C00CF9E01804681144CC60C269806842431C
S315202547D08A6000203EBD00002DE9F04106460424CE
S315202547E00D46002E18BF002D0ED0287800F00F007C
S315202547F0C01E08283FD24FF480613046FFF71AFDA8
S31520254800686802F094FB002870D06868083002F0AA
S315202548108EFB00286AD06A6806F58071002004F090
S315202548204FFF040062D12868DFF8981AC0F30320C9
S3152025483000281CBF012800204860286800F00F03A7
S315202548409B1E082B52D8C0F30357032FC0F30361B1
S315202548500CD8DFE807F002040609402708E0802760
S3152025486006E04FF4807703E0202701E0202F3DD373
S3152025487000293BD0052939D2DFF84C0A0122706060
S3152025488017FB01FC378200207182B260C6F80CC066
S31520254890736116E0B2F806C0B2F804E0E644B2F831
S315202548A00AC0F4451CD31289D6F8C8E206EBC008FF
S315202548B0401C0EFB0CFC0EFB02F2C8F84420C8F85F
S315202548C040C098420CD2002805EB8002E2D1D6F8CA
S315202548D0C8C2B7FBFCFE01FB0EFE4FEA4E0EDEE7F5
S315202548E04FF47F71301D00F0ABFC30602046BDE8CB
S315202548F0F081F8B50424074602F019FB00283D4629
S3152025490069D005F2FF35284602F011FB002862D032
S315202549103968DFF8B05942F224002E18090F0C29E0
S3152025492008D139463046FFF757FF040053D10020DA
S31520254930287013E07968DFF8902991424BD14FF4FE
S315202549408061384600F06FFC002844D000204FF4C3
S31520254950806228703946304602F0B8FA42F2241190
S31520254960681800F04EFC040035D1304600F08FFB48
S31520254970C8B1DFF85849FF224FF48461204602F05A
S31520254980B1FBDFF84C09012160600022A16040F2CD
S315202549901C412261201D00F053FC2060304600F08A
S315202549A0A3FB040017D1304600F026FB040012D1C4
S315202549B001206946287040F2011002F038FA0400D9
S315202549C009D100F00AF8E81805681144CD60C269B6
S315202549D0806842438A602046F2BD009A142042F21E
S315202549E0E423DFF8F018424370472DE9FE4F92461F
S315202549F00425BAF1000F034688464CD0DFF8C46853
S31520254A00307810B942F2DD7545E0726842F2E4212C
S31520254A1077183968012A019118D1307B48B9F96967
S31520254A208B4238D2B868B36032730024434300934F
S31520254A3012E0B068BA68424301FB02331B1A01987B
S31520254A40B3FBF1F1009100FB113304E0B3FBF1F048
S31520254A5001FB103300901C46684641F20D0900F0F3
S31520254A6023FC12E006F10D0001192A46504602F0D4
S31520254A702DFA01992C19A8EB0508AA448C4203D3B3
S31520254A80009A641A521C00920025B8F1000F11D104
S31520254A900DB1002030732846BDE8FE8F084600F06C
S31520254AA0E0FBF8B142F220003158491C31500098DC
S31520254AB05844009041F210050099725916F80900BC
S31520254AC08A4200D108BBD7F808B0B1FBFBF118B153
S31520254AD0B2FBFBF0814205D0F8698142DED342F252
S31520254AE0D875D6E7DDF800B00020396806F8090024
S31520254AF006F10D02584600F037FB20B9012146F86C
S31520254B0005B006F809100500C2D1019808EB040264
S31520254B1090422CBF4546051BA4E72DE9F84F934621
S31520254B200424BBF1000F05D0DFF898773A7812B91F
S31520254B3042F2DD7494E08946796842F2E42342F212
S31520254B401406FA58BD1901290646904640D1387BC8
S31520254B50A0B9DFF88407C1698E42EBD20022012352
S31520254B602A7092463B73DFF87427BE6080684643D9
S31520254B700096314608FB019111602FE03B44B86829
S31520254B809968414302FB0162DFF85017121AB2FBDE
S31520254B90F8F008FB102A00900868824213D028785E
S31520254BA018B100F05AF9040058D1012042F2E42226
S31520254BB038733A44BE60906831464FF0000A414327
S31520254BC0009108FB01F24A44DFF810170A6005E038
S31520254BD0B6FBF8F008FB10660090B2460098296DC2
S31520254BE088423DD3684600F05FFB1EE009EB0A00AC
S31520254BF0804507EB0A0041F214035946184434BF71
S31520254C00A8EB0A044C462246A24402F05FF96868BE
S31520254C10A9EB0409A3442018C245686004D300994A
S31520254C20AAEB080A491C00910024B9F1000F06D1E8
S31520254C3013E0E868401CE860009976180096A96874
S31520254C4000982C7881420ED16CB169685145CDD01A
S31520254C5000F003F90028F2D004460CB10020387361
S31520254C602046BDE8F28F42F2E4223A449668B0FB0C
S31520254C70F6F01CB1B1FBF6F188420AD0D1698842FB
S31520254C8002D342F2D874E9E700F0EBFA0028D0D116
S31520254C901CB100F0E2F80400DFD1BAF1000F06D1ED
S31520254CA00020012268600099A9602A709EE744F6B3
S31520254CB02A64D3E7DFF8282600201178002918BF93
S31520254CC000F0CBB8704738B5DFF8F8450020617875
S31520254CD021B142F22400204400F006FA42F21401C2
S31520254CE02144002241F20D050A706255CA602273BD
S31520254CF032BD2DE9F8430D46DFF8C87539780424E9
S31520254D0011B942F2DD7441E00DB900243EE07B68FD
S31520254D1042F2E4213944CE698A68012B08BF8146AF
S31520254D200DD00968B0FBF1F82818401EB0FBF1F02C
S31520254D30B8FBF2F9B0FBF2F5A5EB09056D1C42F29D
S31520254D4064017B58B3FBF2F2914507D21EE0484613
S31520254D5000F056FA040003D16D1EC14625B90DE093
S31520254D60484600F08FFAC146B14507D2484609F193
S31520254D70010800F076FA0028E9D0F4E7787828B1FA
S31520254D8042F22401781800F0AFF904462046BDE802
S31520254D90F28370B5DFF82C45207810B942F2DD7004
S31520254DA070BD04F50C500025066800E06D1CB54243
S31520254DB00CD2284600F055FA0028F7D1284600F0CF
S31520254DC01FFA0028F2D070BD002070BD607800281B
S31520254DD0FAD042F22401601800F086F90028F3D093
S31520254DE070BD002930B52ED0DFF8D82442F2E42331
S31520254DF042F274141344144450B1012811D00228C8
S31520254E0011D0032814D0052815D0102818D01AE03B
S31520254E101078002814BF002042F2DD70086000209B
S31520254E2030BD0020FAE700F010F8ED0A0D60F6E710
S31520254E301B680B60F3E71A68986842430A60EEE719
S31520254E4000F003F8F2E7042030BD25686368A268E0
S31520254E50E0685D195519451970472DE9FE4FDFF88C
S31520254E60645442F2140042F2E4212E186F18726817
S31520254E703B6842F2DB789A421CBF00202873D6F87D
S31520254E8008A0002232700121504600F05CF8002847
S31520254E9048D0716841F214022A44504600F07EF922
S31520254EA0002843D0B868BAFBF0F42046641C00F0ED
S31520254EB0E9F9F168F8690190491CF16006E0204678
S31520254EC000F0E0F9F068641C401CF06001998C42E2
S31520254ED02AD2204600F0C5F90028F3D1B868BAFBB6
S31520254EE0F0FB00FB0BFB60430090AAEB0B01491C52
S31520254EF000F029F8B0B1DDF80090D345396817D2EE
S31520254F0005F10D02584600F02FF9B8B9396805F193
S31520254F100D02484600F042F980B90BF1010B09F143
S31520254F200109EAE7404601E042F2D870BDE8FE8F46
S31520254F3041F214002A18484600F030F90028F5D009
S31520254F404045BCD1F2E7F8B50546DFF8786342F24D
S31520254F50E4200C4637580CE0001DB84208D251F8FB
S31520254F60042B12F1010FF7D00020F2BD0120F2BD4E
S31520254F70641E002CFAD006F10D02394628466D1CF2
S31520254F8000F0F2F80028EFD106F10D01E5E72DE92D
S31520254F90F041002705460E46B846CA4C01E07F1C3F
S31520254FA0B044B8B2A84224D204F10D024FF4806150
S31520254FB0404600F0D9F8002802BFD4F81100C2498E
S31520254FC0884204BFD4F81520012AE8D14FF4806100
S31520254FD004F10D0000F027F90028E0D042F2240044
S31520254FE04FF4806204F10D01204401F06FFF00206B
S31520254FF000E00120BDE8F0812DE9F84F054644F66D
S315202550002968B5F81290B5F810A0D5F8C81200264B
S315202550100027DFF8B0B209FB0AF0B0FBF1F44E45C4
S315202550202FD20BF10D024FF48061384600F09CF803
S3152025503058BB4FF4806229460BF10D0004F020F869
S3152025504018BB761C5744EAE73046761C00F0E6F86E
S31520255050A642F9D30024002647464C4512D22A4695
S315202550604FF48061304600F099F800280FBF0027BD
S31520255070D5F8C802B6FBF0F000F0D0F8641C5644EB
S31520255080EBE700273846BDE8F28F0026E0E72DE935
S31520255090F0418E4C00216160458A068A0027D0F88A
S315202550A00C8001E07F1CB044B8B2A84219D208284A
S315202550B017DA22464FF48461404600F055F8002839
S315202550C002BF60688249884204BFA268012AE9D1C5
S315202550D04FF48461204600F0A6F80028E2D000206F
S315202550E000E00120BDE8F0812DE9F84F814644F600
S315202550F02966B9F81280B9F810A0D9F8C802D9F8C6
S315202551000C20002508FB0AF1B2FBF0F4B1FBF0F7E1
S3152025511003E000196D1C00F081F8A8B2B842F8D337
S315202551206A4F40F21C41381D002500F089F8386069
S31520255130D9F80CB0634CA8B2404512D23A464FF462
S315202551408461584600F02AF810B96070002605E0DB
S31520255150D9F8C812BBFBF1F000F060F86D1CD344DA
S31520255160E9E73046BDE8F28F2DE9F04105460C46A4
S315202551709046544F08E042463146284600F045F8E9
S3152025518050B9B044A41B6D1C34B142F2E4203E58DC
S31520255190A64228BF2646EEE7BDE8F0812DE9F8434D
S315202551A007460C469046474E12E006F10D02294643
S315202551B0384600F02AF85FEA00091ED12A4606F16C
S315202551C00D01404603F05CFFA8B9A844641B7F1C4B
S315202551D09CB142F2E42042F22411355843463A4600
S315202551E03144A54228BF25460095002004F0C8F95C
S315202551F00028DAD002E0012000E04846BDE8F28307
S315202552000CE00146002004F0A5B880B51346009190
S3152025521002463449002004F0AFF802BD0246314942
S31520255220002004F04FB910B50446091F201D00F0B3
S3152025523007F82268904201D1012010BD002010BD1B
S315202552403EB504460D4601A804F0A4FB2A46214670
S3152025525001A804F0A5FB694601A804F0B6FB009831
S315202552603EBD30B5194A0021136900E0491C9942F3
S3152025527006D202EB8104256A8542F7D1012030BD6D
S31520255280002030BD11490A69B2F5807F0AD201EB8B
S315202552908202106208690B4A401C0861012151705F
S315202552A00020704701207047064942F2200330B579
S315202552B0CC5842F2EC250268495901FB04220260AA
S315202552C0002030BD2C9627204243464E50BA272013
S315202552D054424244D400272010B9272070BE2720C7
S315202552E040B6272050B727203EB5FDF7C7FD2028F5
S315202552F001D001203EBD00F0DDFCDFF83C4A44F21A
S3152025530018102518284604F04AFC70BB284605F0B7
S31520255310C0F950BB694601A804F06EFB009B019A93
S315202553200021002000F0E3FBF8B944F218004FF4E1
S315202553308062A11C204401F0C9FD284605F0A9F963
S3152025534098B9009B019A44F224002158012000F0A7
S31520255350CEFB50B94FF48462A11CDFF8E00901F099
S31520255360B5FD0120207000F0BEFC3EBD2DE9F84F8D
S3152025537007463C4601F0DBFD28B104F2FF342046E2
S3152025538001F0D5FD08B90420F6E0DFF8AC4944F252
S31520255390240044F21811251804EB0109394600206A
S315202553A000F08AFB90B3002044F2180320704FF4B6
S315202553B080623946E01801F089FD484605F069F9ED
S315202553C00028E1D1AB88EA8829680120DFF86C69B5
S315202553D04FF4846700F08BFB002800F0BF80FF2266
S315202553E03946304601F07EFEDFF8540901217060EA
S315202553F00022B16040F21C413261301D00F049FC8B
S31520255400306000F038FA0028BED1ACE03968080FA4
S315202554100D2840F0A080786810F00F0F14BF00F0FB
S315202554200F060126C0F30348B8F1000FC1F301206A
S3152025543008BF4FF0010800B9012021F4407141EA47
S31520255440002139607968C1F30720002821F47F419E
S3152025545008BF012041EA00217960387810F007003D
S31520255460D8BF45F2E4208FDDB8F1090F28BF45F2D4
S31520255470E5206FD20020207000F01CFC484604F061
S315202554808EFB002878D144F26A102044002144F26C
S3152025549021128172A11806230022CB70C2720A70AE
S315202554A03A7802F0070202703B68C3F3C002CA7538
S315202554B03A68C2F30212521C42703B681B0ADA0074
S315202554C002F018020A76396844F24812090B01F0CF
S315202554D00701A1543B681B0C03F00103C3703968EF
S315202554E0490C01F001010171484605F0D2F8002842
S315202554F042D1796844F2C01E54F80E00BC46C1F349
S31520255500072A16FB0AFAC1F3072200FB02F9002215
S315202555104FEA4A0A10E004EBC20144F2580754F830
S315202555200EB0521C394407890BFB07F74F6040897B
S3152025553054F80E707843086042451FD20CEB820042
S315202555401AB1C188878807EB010A47895745E2D2D0
S3152025555045F2E62010E045F2E0200DE03A46A11C72
S31520255560304601F0B3FC002000F0EFFA20B90120E7
S315202555702070BDE8F14FB6E3BDE8F28FEE8009FB3A
S3152025558006F6A5F804902E60C5F808801AE72DE9B9
S31520255590F84F5FEA0208DFF8A06744F2B8120546FD
S315202555A006EB02073C68009408BF0420B5FBF4F9F6
S315202555B004FB195521D0327812B942F2DD701CE050
S315202555C044F21403BA68F45802FB04990C4610E0F9
S315202555D0B01C41195246404601F078FC009A5544A4
S315202555E0A4EB0A04D044954224BFAD1A09F101093A
S315202555F00020002C42F2040A0BD1BDE8F28F484642
S3152025560000F032FBF0B144F21400D9443158491C3C
S31520255610315056F80A1042F20200305C494500D135
S3152025562030BBD7F808B0B9FBFBF218B1B1FBFBF0BC
S31520255630824207D0F868396948438242DFD342F24D
S31520255640D870DAE742F2020B00203B6806F80B00F9
S3152025565044F2181CB21C494606EB0C0005F0A8F8A6
S3152025566020B9012146F80A9006F80B100028C4D146
S315202556700098621990422CBFA246A0EB050AA7E7FF
S315202556802DE9F84F5FEA02080746DFF8AC5644F2C3
S31520255690B812AC58009408BF0420A146B7FBF9F9E7
S315202556A004FB197747D02A7812B942F2DD7042E0F9
S315202556B044F20803EE18326D914538BF45F2E320B2
S315202556C039D344F2B8142C19F368A2688A4602FB0A
S315202556D003991CE000980AEB070142F20803884249
S315202556E0414634BFC41B5446E81922461844E719B7
S315202556F001F0ECFB7268AAEB040AA044A21872609A
S3152025570000998F4224BF7F1A09F101090020BAF199
S31520255710000F04D10FE0F068D944401CF060B06832
S315202557203478484509D144B17068B842D2D000F0C2
S315202557300CF90028F3D0BDE8F28F44F2B8116A1887
S31520255740D2F808B0B9FBFBF11CB1B0FBFBF08142C6
S315202557500DD0D06812695043814202D342F2D870C7
S31520255760E9E7484600F080FA0028D4D11CB100F09C
S31520255770ECF80028DFD137B9002001217060C6F862
S3152025578008903170A6E745F2D120D4E72DE9F047D8
S31520255790DFF8A47544F2B8157C193A782569E368AB
S315202557A05D4312B942F2DD703AE009B9002037E0AF
S315202557B02368A268B0FBF3F60818401E44F2580168
S315202557C0B6FBF2F9B0FBF3F07B58B0FBF2F6A6EB6D
S315202557D00906761CB3FBF2F2914509D245F2E32060
S315202557E01EE0504600F05EF95FEA000802D1761EDB
S315202557F086B102E0504600F08DFACA46AA4509D25E
S31520255800A0680AF1010900FB0AF000F02DFA00280C
S31520255810E7D0F2E7787810B100F02DF8804640469B
S31520255820BDE8F08744F2C0122DE9F041DFF808657E
S315202558300025B7183078BC6879684C4388B942F278
S31520255840DD7016E03868684300F00EFA40B9284620
S3152025585000F028F95FEA00081CBF284600F05AFA0E
S315202558606D1CA542EED3707810B100F004F8804661
S315202558704046BDE8F081012067E1DFF8C8240020F5
S315202558801178002918BF00F060B8704738B5DFF8C1
S31520255890A8440020617809B1FFF7EDFF44F20801FD
S315202558A02144002242F202050A706255CA6032BDA1
S315202558B0002930B52BD0DFF8802444F2B813D4182C
S315202558C050B1012811D0022811D0032814D005283B
S315202558D015D0102818D01AE01078002814BF0020DB
S315202558E042F2DD700860002030BD0020FAE700F086
S315202558F010F8AD0A0D60F6E723680B60F3E7A2687A
S31520255900206842430A60EEE700F003F8F2E7042018
S3152025591030BD2569E368A26820685D435543454324
S315202559207047DFF8141444F2F8120A441078002838
S3152025593000D0704710B5002342F2020442F204003B
S315202559400B550B50891C516010BD2DE9FE4FDFF8F4
S31520255950E84344F2080044F2B81125186618D5F80C
S3152025596008A03369F068B268434301930020287064
S3152025597068683168BAFBF2F8884207D042F20803F4
S31520255980091A2344FF22184403F070FB44F2181306
S3152025599001225146E01805F09BF8002842F2DB7BD0
S315202559A048D1306842F208016218014600FB0AF008
S315202559B000F052F8002841D0404608F1010800F0B1
S315202559C0A9F9E86805E0404600F0A4F9E86808F159
S315202559D00108401CE860019988452DD2B76807FB48
S315202559E008F9484600F040F90028EFD1BAFBF7F030
S315202559F0474344F21810204449460090AAEB070253
S31520255A00521C05F065F8A8B95745316818D2009873
S31520255A100B46A21C394604F0CBFEC0B93068A21C21
S31520255A20014600FB09F000F017F880B97F1C09F123
S31520255A300109E9E7584601E042F2D870BDE8FE8F14
S31520255A4042F20800221801FB0AF000F005F800288A
S31520255A50F4D05845B7D1F1E72DE9F047904644F2E1
S31520255A60B815B54E08EB010972590C46B0FBF2FA6A
S31520255A70FFF757FF38460CE044F218103B464246BE
S31520255A805146304404F02EFF50B9B844E41B0AF1A0
S31520255A90010AC84504D27759BC4238BF2746EBE7C9
S31520255AA0BDE8F08710B50446FFF73BFF2146A648FB
S31520255AB0BDE8104004F0B0BF10B50C4620B9A34A66
S31520255AC0201D4FF47F7103E09D4A201D40F21C4185
S31520255AD06368934204BFA268012A06D100F0D9F84B
S31520255AE02168884201D1012010BD002010BD2DE955
S31520255AF0F04782460F46904D914698464FF40051E1
S31520255B00A81C05F025F85FEA0A000CBF4FF480642F
S31520255B104FF48464002601E04744761C4E4511D275
S31520255B2044F2B810AA1C285821467843FFF72FFDA2
S31520255B300028F1D1A91C5046FFF7BEFF0028EBD03F
S31520255B40002000E00120BDE8F0872DE9F84F804DA3
S31520255B5084B06A8A2B8A0192019A0293012A06D950
S31520255B6053437C4AD2F808A0B3FBFAFA01E04FF05A
S31520255B70010A8DF80000774CF8B90026B146B346C0
S31520255B80DDF80480029FC14558D22068724A4FF419
S31520255B90806100FB0BF0FFF7FAFC002851D16648FF
S31520255BA04FF480622946801C03F06AFA002804BF38
S31520255BB009F10109BB44E6D043E0D5F80C90A0684D
S31520255BC05E4D45F2E22703954FF48468B9FBF0F440
S31520255BD040F21C41281D00F05CF82860002503E0D2
S31520255BE028196D1CFFF75EFF5545F9D30024DDF8EE
S31520255BF004A0029D039EDFF85CB1544532D2DBF822
S31520255C0000003246414600FB09F0FFF725FF40B943
S31520255C109DF80000012802D10021474A517000270E
S31520255C2005E0DBF80800B9FBF0F0FFF73BFF641C25
S31520255C30A944E2E7002005B0BDE8F08FCDF8048021
S31520255C4002E0CDF80480012602970024002EA146E5
S31520255C5045F2E12703954FF48068EBD04FF47F7109
S31520255C603E48B8E73846E6E770B53D4B01461C6801
S31520255C70324B00220020B1FBF4F11C6900E0521CB6
S31520255C80A24205D203EB82052E6AB142F7D1012025
S31520255C9070BD3EB504460D4601A803F07BFE2A4677
S31520255CA0214601A803F07CFE694601A803F08DFE56
S31520255CB000983EBD70B5204C44F21803E518FF2206
S31520255CC04FF48061284601F00DFA204E012344F237
S31520255CD01C006E60AB604FF47F712044FFF7D9FF1F
S31520255CE02860002070BD1CB569464FF4807001F0F0
S31520255CF09EF870B9009A14201A494243154803681C
S31520255D000A44D3600469C16880684C43444394603F
S31520255D10002016BD09490A69B2F5807F0AD201EB12
S31520255D20820210620869044A401C086101215170CB
S31520255D300020704701207047E0452720F889272035
S31520255D4054424244E8852720F88627204243464E5A
S31520255D50F885272098872720E2452720FC85272098
S31520255D60A0872720D40027203EB5DFF8004540F21E
S31520255D70FF1104F538750222A98420466A8405F088
S31520255D804FF8E8B9204606F068F9B0B901A940F2DE
S31520255D90211001F04CF898B900F013F880B9019B31
S31520255DA01421DFF8CC242D684B43D118CD60009AD9
S31520255DB08A60012184F808133EBD002384F8083320
S31520255DC03EBD6946204661E2F0B585B0054601F01F
S31520255DD0AEF8002863D0E81D01F0A9F800285ED08A
S31520255DE02868000F0C285AD1DFF880444FF44771D4
S31520255DF02046FEF71FFA287910F00F0002D0022838
S31520255E0043D04CD2DFF86C1410202160FDF73CF9E5
S31520255E10DFF86424116801F0FF01491CB0FBF1F07D
S31520255E206060DFF858042168026804F538769142C7
S31520255E3004BF002380F8D43040F2FF100221B0841D
S31520255E407184286804F12C01020B000A02F00F0246
S31520255E5000F00F000A7048706868C20C02F0010233
S31520255E600A7341F28832C30D000E00F0030003F0B9
S31520255E70010301284B7340F6C41313D002D30328FC
S31520255E8015D012D344F6206012E0DFF8F403206003
S31520255E901020FDF7F9F8DFF8EC130968BBE7042095
S31520255EA005B0F0BD42F2107002E0104600E018461B
S31520255EB048606868C0F3005000B11A468A60686851
S31520255EC0800C00F001008873204606F0C6F80028CD
S31520255ED0E6D129682046090E01F0070106F0D5F8F6
S31520255EE00028DDD101A9FFF76DFF0028D8D1694605
S31520255EF040F2211000F09BFF0028D1D1009B1421D0
S31520255F00DFF86C2336684B43D118CE60019A8A6018
S31520255F102978CB0726D502A800220026002780E847
S31520255F20C40029688DF80D600D0C05F00305C1F315
S31520255F3001108DF80B500A0D8B08C90801F00101B7
S31520255F408DF80A0002F0070203F001038DF80C10E4
S31520255F508DF8092002A98DF80830204606F094F9F7
S31520255F6000289DD1012184F8081399E72DE9F84FBA
S31520255F70DFF8F892824609F542760C463078904627
S31520255F8010B942F2DD703CE04FEA5A2509F54770F3
S31520255F90AAEB45254FEA5A2700900FE000985A4646
S31520255FA0A4EB0B044119404600F090FF5D44B5F55E
S31520255FB0007FD84424BFA5F500757F1C04B37078CF
S31520255FC078B1706887420CD3411C8F4209D2AAEB3F
S31520255FD040256019B0F5007F94BFA346C5F5007B03
S31520255FE0DCE700200099707001233A46484606F0E2
S31520255FF06BF8002802BF012070707760E9D000E099
S315202560000020BDE8F28F2DE9F84FDFF8609209F5DB
S3152025601042773B7813B942F2DD703EE082464FEA5D
S315202560205A26AAEB46264FEA5A240D46904613E0D1
S3152025603009F21C5041465A46801900F047FFF96857
S315202560405E44B6F5007FA5EB0B05D8445944F96087
S3152025605024BFA6F50076641CF5B1387A18B33869BD
S3152025606084421CD3411C8C4219D2AAEB4026F868BF
S31520256070B04209D000F09AF80028EED00DE0002095
S315202560800121F8603C613972A819B0F5007F94BFCB
S31520256090AB46C6F5007BCBE70020BDE8F28F00F0A6
S315202560A085F80028F9D1002EE9D042F2DE70F4E7F2
S315202560B06E4A002092F81013002918BF00F076B8F2
S315202560C0704771480021C17101700020704770B555
S315202560D00646664D95F808030C4610B942F2DD7042
S315202560E070BD284605F0C9FF10B142F2E07070BD9B
S315202560F094B105F53870A419C1690068641EB4FBEE
S31520256100F0F2B2FBF1F2B6FBF0F0B0FBF1F1284646
S31520256110BDE8704006F01CB870BD38B5534C04F563
S315202561203F75287B10B942F2DD7032BD204605F039
S31520256130A4FF10B142F2E07032BDFFF742FE38B916
S3152025614000982968B0FBF1F20021204606F000F8D8
S3152025615032BD38B50C0027D0444D30B101280ED09C
S3152025616002280ED005281BD01EE095F80803002806
S3152025617014BF002042F2DD702060002032BD0020B1
S31520256180FAE76946284600F081F80028F6D1009AD4
S31520256190D5F8E012A1FB0201800A40EA8150EBE7FF
S315202561A0D5F8E0222260E8E7042032BD2DE9F84F14
S315202561B0DFF8B880404605F060FF10B142F2E07066
S315202561C052E008F5447608F21C5A70684FF0FF3BDA
S315202561D0B0F5007F0AD098F8B0120129C0F50071D4
S315202561E050440CBF5A46002202F040FF98F8B012C0
S315202561F000203070B56808F54779012918BF8346F0
S315202562000124274602E0012CFBD901273B462A46B5
S315202562104946404605F058FFD0B9494604E051F88D
S31520256220042B5A4514D1001DB0EB472FF7D3E41B79
S31520256230E9D1B26801235146404605F05EFF98B95B
S31520256240B26801234946404605F03EFF18B10BE0CA
S3152025625042F2DB7008E04FF400724946504602F0C0
S315202562600FFF08B142F2DF70BDE8F28FD427272031
S31520256270D400272000804140001DCC4064302720B3
S3152025628000C04140801DCC40DD2A272010B502467E
S3152025629002F53972137F0020072B14D8DFE803F087
S315202562A004060613090B0D10126807E054680C60C6
S315202562B010BD926802E0D36803E012690A6010BD1A
S315202562C053690B6010BD042010BD000038B5DFF8DA
S315202562D02044204604F088FE60B92046C83406F0BE
S315202562E077FF28B900F083F820B900F085F832BD6C
S315202562F00023237332BD7CB5054600F018FE002801
S3152025630058D0E81C00F013FE002853D02E68300FF5
S315202563100D284FD1DFF8D843E8212046FDF78AFFFF
S3152025632016F00F0602D0022E3BD043D2DFF8C40347
S3152025633020601020FCF7A8FEDFF8BC13096801F0C1
S31520256340FF01491CB0FBF1F06060DFF8B00321683E
S315202563500268914204F12C0104BF002380F80833FA
S315202563602868020B02F007020A70C20D030AC60C22
S31520256370000E00F0030003F0010302F001020128BC
S315202563804B7006F001064A730E7341F2883240F6A9
S31520256390C41311D002D3032813D010D344F620607A
S315202563A010E0DFF85C0320601020FCF76DFEDFF897
S315202563B05413C3E7042076BD42F2107002E010463E
S315202563C000E0184648602868C0F3005000B11A46F8
S315202563D08A60204606F0FCFEC83428B900F007F866
S315202563E020B900F009F876BD0023237376BD6946CA
S315202563F04FF4907000F01BBD009B1421C24A65689E
S315202564004B43D118CD6022688A60012121737047BC
S315202564102DE9F84FDFF8D892824609F1D4060C46A5
S315202564203078904610B942F2DD703CE04FEA5A2585
S3152025643009F1E800AAEB45254FEA5A2700900FE0F7
S3152025644000985A46A4EB0B044119404600F03EFD20
S315202564505D44B5F5007FD84424BFA5F500757F1C7E
S3152025646004B3707878B1706887420CD3411C8F426B
S3152025647009D2AAEB40256019B0F5007F94BFA34623
S31520256480C5F5007BDCE700200099707001233A468C
S31520256490484606F074FC002802BF012070707760FC
S315202564A0E9D000E00020BDE8F28F2DE9F84FDFF88E
S315202564B0409209F1D4073B7813B942F2DD703EE0CC
S315202564C082464FEA5A26AAEB46264FEA5A240D46F5
S315202564D0904613E009F53A7041465A46801900F050
S315202564E0F5FCF9685E44B6F5007FA5EB0B05D84487
S315202564F05944F96024BFA6F50076641CF5B1387A8F
S3152025650018B33869A0421CD1411C8C4219D2AAEB5A
S315202565104026F868B04209D000F089F80028EED048
S315202565200DE000200121F8603C613972A819B0F5EB
S31520256530007F94BFAB46C6F5007BCBE70020BDE8A0
S31520256540F28F00F074F80028F9D1002EE9D042F216
S31520256550DE70F4E7664A002092F8DC10002918BF81
S3152025656000F065B8704769480021C1710170002087
S31520256570704770B505465E4E96F8D4000C4610B980
S3152025658042F2DD7070BD304606F0F1FB10B142F2C5
S31520256590E07070BD54B1690A65196D1E3046C1EB90
S315202565A05522BDE87040521C06F032BC70BD38B568
S315202565B04F4C04F1C805287B10B942F2DD7032BD57
S315202565C0204606F0D4FB10B142F2E07032BD286891
S315202565D06968A1FB002320460021520A42EAC352BC
S315202565E0BDE8384006F014BC10B5F1B1484A30B1A3
S315202565F001280DD002280DD0052814D015E0107BB2
S31520256600002814BF002042F2DD700860002010BD4E
S315202566100020FAE714685368A3FB0423920A42EA6A
S3152025662083520A60F2E75068EFE7042010BD2DE972
S31520256630F84FDFF8BC80404606F099FB10B142F2B0
S31520256640E07052E008F1E00608F53A7A306808F15C
S31520256650BE044FF0FF3BB0F5007F09D02178CA074D
S31520256660C0F5007150444CBF5A46002202F0FEFC6C
S3152025667021780020A077756808F1E809CA0758BF50
S3152025668083460124274602E0012CFBD901273B46D8
S315202566902A464946404606F072FBD0B9494604E0CB
S315202566A051F8042B5A4514D1001DB0EB472FF7D3AB
S315202566B0E41BE9D1726801235146404606F07CFB4E
S315202566C098B9726801234946404606F058FB18B109
S315202566D00BE042F2DB7008E04FF400724946504643
S315202566E002F0CEFC08B142F2DF70BDE8F28F000041
S315202566F06430272000804140001DCC40D427272008
S3152025670000C04140801DCC40D40027203931272088
S315202567102C312720416882688A4209D2891A8266C5
S3152025672041600FF2B9210160012282600020704765
S3152025673042F2787070470FF20901016000207047F8
S3152025674010B5416ADFF830444A898282CB689B1E80
S3152025675043604A68A24202D1097A022902DB42F223
S31520256760757010BD0FF209020260002010BD0000D1
S31520256770416A43684A6882610A68D21E9A428260C3
S3152025678002D342F2767070470989002908BFFFF7A0
S31520256790C1BF42F277707047F8B50446DFF8DC634F
S315202567A0B4F85A30376804F15C05626A6968D7F807
S315202567B00CC01806000F1B0A43EA00232868E04769
S315202567C0A0B930684169884780B9616A102204F1E9
S315202567D01C0003F0E5F800F044F80098A9688842E3
S315202567E000D043E00FF2F51020600020F2BDF8B569
S315202567F004461022616A04F11C00DFF8806304F147
S315202568005C0503F0CDF8B4F85A303768626A102152
S315202568101806000F1B0AD7F80CC043EA0023286860
S31520256820E047E8B9286810302860686810381028AD
S31520256830686088BFDFF8480310D810B1DFF8440315
S315202568400CE030684169884750B900F00AF800986D
S31520256850A968884200D009E00FF281102060002027
S31520256860F2BD694604F11C0003F0AFB842F27A70F6
S31520256870F2BD10B5044604F11C0003F08BF8216EF9
S3152025688011292CBFBE48BF482060002010BD38B531
S31520256890BA4B426E1C68016EC06D2569A84732BD6C
S315202568A0B0F85A2013061B0F110AD20741EA0321F5
S315202568B04CBF08230423042901D00420704700F166
S315202568C06002C16DB04806F0AFBC70B5044642F2F1
S315202568D07F76E56D284600F02AFB80B1606E04F1AF
S315202568E01801A8470646012E03D12046BDE870404B
S315202568F010E7022E03D100F0B7F8002070BD3046F0
S3152025690070BD10B5436800F15C02516881608B42E9
S3152025691002D242F2767010BD147AE30707D51268A3
S315202569208469A24203D111B1C160002010BD90F81F
S315202569305A10CA0702D542F27C7010BDBDE8104018
S31520256940E8E638B5B0F85A108A0719D40B061B0F76
S315202569500A0AC90716D542EA0322093A04D0F73A84
S315202569600AD0521E04D00BE0BDE83140FDF7B6BE55
S31520256970BDE83140FEF70DBABDE83140FEF752BFDE
S31520256980042032BD42EA03227C4B1C685C304168D8
S315202569900068E569A84732BD1CB50446B4F85A00F7
S315202569A00106090F000A40EA0120092803D1E06DD6
S315202569B0FDF7B8FC16BD01290ED1694600F037FA38
S315202569C058B9E06D009C6D4A142193684C431919DA
S315202569D00A691369984716BD042016BDF8B50446DD
S315202569E004F15806616A304610225A2500F06EFABF
S315202569F00120375C401CED191028FAD3307805F094
S31520256A00FF05A84202D042F27970F2BD717842F292
S31520256A1012700A2925D8DFE801F01A060A0E261251
S31520256A201A16261C20002046BDE8F24069E7204696
S31520256A30BDE8F2401DE72046BDE8F24027E720467F
S31520256A40BDE8F24041E72046BDE8F24079E700203F
S31520256A50F2BD2046BDE8F2409EE72046BDE8F2403D
S31520256A601EE742F27B70F2BD10B5484C70212046B8
S31520256A70FDF7E0FB464A0020226010BDF8B5064604
S31520256A800C4600200027434DA74218D02969E01B34
S31520256A90C1F1100109E080B12B69F25D7F1C491EE9
S31520256AA0401EEA542A69521C2A610029F3D1002066
S31520256AB0286100F005F810B9E6E742F27D70F2BDAF
S31520256AC080B53248334A4262C26800212AB1036919
S31520256AD093420AD05B1C036101E0826E1AB90168D4
S31520256AE08847014601E0521E8266084602BDF8B552
S31520256AF0224C20684169884700283CD1234F97F8A6
S31520256B005900042823D107F15C052E68304600F06C
S31520256B100EFAC8B10020FDF761FB97F85A008107C8
S31520256B2010D568686861616860B10A68904222BF9D
S31520256B304968491C814201D20420F2BD80F3088888
S31520256B4080F30988A868B04742F27E70F2BD0828EE
S31520256B500FD10220FDF742FBBFF34F8F0E490F4879
S31520256B600A6802F4E06202430A60BFF34F8F00BF32
S31520256B70FDE742F27B70F2BD53544D50100027207D
S31520256B80EF6725209967252000C0CA40DC2F2720BE
S31520256B9037672520503027200CED00E00400FA0524
S31520256BA07CB50C00164605461A4601D1002076BD31
S31520256BB0100A10F00F0002D001280DD01DE06A46DC
S31520256BC0284600F0DBF8D0B9009B214628463246D8
S31520256BD01C696568A84776BD6B46284600F0F7F8F8
S31520256BE068B90098DFF8DC2203692846996951603F
S31520256BF05B6832462146984776BD42F2D87076BDE7
S31520256C007CB50C00054601D1042076BD100A10F06E
S31520256C100F0042F2D87602D0012807D00BE028466D
S31520256C2000F01AF938B900F095F876BD6B46284656
S31520256C3000F0CDF876BD304676BDF8B50C00174662
S31520256C4006461A4601D10020F2BD100A10F00F0083
S31520256C50DFF8705202D0012812D028E0304600F005
S31520256C60FBF820BB6A462146304600F087F800BB54
S31520256C70009B214630463A461C69E668B0470DE01A
S31520256C806B46304600F0A3F898B900983A46036932
S31520256C903046996969609B682146984720B90099AD
S31520256CA00A6953692B60F2BD00212960F2BD42F2A3
S31520256CB0D870F2BD7CB5130A13F00F0305460C4692
S31520256CC042F2D87602D0012B14D025E06A4600F070
S31520256CD055F8F0B900990A69906998B12146284650
S31520256CE000F0BAF8C0B9009A2146284613699C694E
S31520256CF0A04776BD6B4600F06AF850B90098016921
S31520256D00CA6812B942F2E57076BD214628469047D3
S31520256D1076BD14B9002076BD304676BD7CB50C00EF
S31520256D200546164601D1002076BD00F095F810B10E
S31520256D3042F2D87076BD00F00DF850B90098016959
S31520256D400B6923B1324621462846984776BD42F21D
S31520256D50E57076BD6A46214628460FE010B5594C82
S31520256D60206810B180470021216010BD10B5554CF3
S31520256D70606810B180470021616010BDF0B50546D9
S31520256D8042F2D87C0AB34E19761E00274E48436810
S31520256D9001208742136018D819B916E003F114008B
S31520256DA0106013688BB11968002904BF5C68002C14
S31520256DB001D1186948B18D4224BF5868A842EDD320
S31520256DC0BF4201D8B04200D3BC466046F0BDF0B5DF
S31520256DD00646174642F2D87C3BB33B4882681A6062
S31520256DE019B922E005F114041C601D68EDB12A6845
S31520256DF0002A04BF6C68002C07D1A868002804BF88
S31520256E00EC68002C01D1286978B19742EAD1AA6885
S31520256E10E8680027A0FB0245701847EB07018D423D
S31520256E2003D301D8844200D3BC466046F0BD70B555
S31520256E3005460420002671B1234A946801E0761C74
S31520256E40143444B1236833B12269002A03D09D42E4
S31520256E50F5D10E60002070BDF0B509181A4B491ED4
S31520256E6000225F68DC68256905EBC206142506F134
S31520256E707C0405FB02F6BD5966682468AC4208BF2A
S31520256E80AE4203D0864228BFA14204D2521C012AF3
S31520256E90E8D90020F0BD0120F0BD70B50A4D6E68F9
S31520256EA003E0006800B18047143630690028F8D100
S31520256EB0AD6803E0096801B1884714352969002999
S31520256EC0F8D162BDCC272720100027204AB1000003
S31520256ED011F8013B521E00F8013B1CBF11F8013B5E
S31520256EE0F8E77047002202600A6070472748C16884
S31520256EF00A6992F8AA0000F0010080F00100704787
S31520256F0038B504460D460020FDF768F920480021AE
S31520256F100560204A44601160036883F3088883F35B
S31520256F20098840688047BDE8314006F05ABA0028CE
S31520256F301CB51EBF10F1010F1749884201D100202B
S31520256F4016BD6A4602210024FFF718FF20B90098AE
S31520256F50017ACA0748BF0124204616BD10B5024628
S31520256F600A4900204B6800E01433196961B11C7A5F
S31520256F7004F01104112CF7D119689142F4D25C68DA
S31520256F80641C9442F0D3012010BD00001000272058
S31520256F907020272008ED00E07D082520C7E7000082
S31520256FA00A0018BF01220260704738B504460D46EF
S31520256FB072B62168491C216062B615F1010F04D0ED
S31520256FC04FF47A706843FAF780FD216841B115F1AF
S31520256FD0010FFAD0FAF784FD0028F6D0002032BD1D
S31520256FE0012032BD72B60168491EFFE7016062B6EF
S31520256FF0704772B600200B49086062B6704772B694
S3152025700008480168491C016070470648016802291D
S3152025701003D20022026062B6704703685B1E0360B6
S31520257020704700008826272080B500F003F8BDE8A4
S3152025703001401FE01D491E4A521A1E4880B5884226
S315202570401CBF002AFFF742FF1B481C49091A18BFF7
S3152025705003F07EFD1A481B49091A18BF03F078FD4F
S3152025706019491A4A521A04D01948BDE80840FFF78B
S315202570702DBF01BD17481849091A18BF03F068BD49
S31520257080704716484FF0FF31016041608160C1602D
S31520257090016141618161C161114801604160816061
S315202570A0C160016141618161C1617047482A2620FD
S315202570B06C2D26200000272000082720DCC327202A
S315202570C0DCC32720D4C52720CC2D2620CC2D262031
S315202570D0D4C52720000000000000000080E100E044
S315202570E080E200E062F30F2262F31F4200B500BF63
S315202570F0130096469446103928BFA0E80C50FAD896
S315202571005FEA417C28BF0CC048BF40F8042BC9073D
S3152025711028BF20F8022B48BF00F8012B00BD000010
S3152025712070B505460E46FCF757FA040010D1012303
S3152025713006F1800200212846FCF70AFB707C0128EF
S3152025714004BF00213174D6F8D40108B1FBF70FFD11
S31520257150204670BDF8B50C4684B00421ACB194F810
S31520257160CC1104F1B00502290AD16E4695E8825044
S3152025717086E8825004F1C00191E8C05085E8C050C8
S315202571802146FCF759F900F01FF81AE0F8B50C4608
S3152025719084B00421ACB194F8CC1104F190050229D0
S315202571A00AD16E4695E8825086E8825004F1A001E0
S315202571B091E8C05085E8C0502146FCF7FFFB00F03A
S315202571C003F8084605B0F0BD014694F8CC010228FF
S315202571D004D16A4692E8590085E8590070472DE979
S315202571E0FE435FEA0108814615464AD0012D48D837
S315202571F008F5E4763078002843D008F1400748463C
S315202572003C68FCF7C6FB3178A40904F0010465B96E
S3152025721039B122464846FBF7F3FC41464846FBF75B
S31520257220D1FFB07988B101210CE041B1B979224647
S315202572304846FBF7E5FC41464846FBF7C3FFB079B0
S3152025724018B100214846FCF779FC6A4602214846B2
S31520257250FBF7DCFA14B100984008009001AA00211A
S315202572604846FBF7D3FA0199009A0A20B1FBF2F199
S31520257270491C4143890800E000BF0846411E0028D5
S31520257280FAD1BDE8F7832DE9F0430546894689B02D
S3152025729017461E464846FBF787FF80460022494665
S315202572A000F01FF93B46424649462846FFF752FF3E
S315202572B004002AD1022109238DF8001001220293E8
S315202572C0039299F8471009F5C87200291CBF107832
S315202572D0002803D0517802911378039301978DF8CE
S315202572E010800596116B0691029809EB0011039BD8
S315202572F000F0ABF800F09FF8040006D13B46424645
S3152025730049462846FFF742FF04462846FCF74AFB0E
S315202573100122494600F0E5F8204609B0BDE8F0836C
S315202573202DE9F04F89B0002601220B2389468DF8B9
S3152025733000600392804602938DF8106099F84710D5
S3152025734000291EBF09F5CA710878002800F06DF8B6
S31520257350029FDDF80CA000224946404609F1500B34
S31520257360FFF73DFF002004245BF8045B9DB13346DF
S31520257370002249464046FFF7EDFE78B909EB07106E
S3152025738001965346012100F180024046FCF7E0F99B
S3152025739000F077FA10B9AE19641EE5D104004646E9
S315202573A013D1002709F1500A04255AF8048BB8F180
S315202573B0000F07D03B46002249463046FFF7E6FE1A
S315202573C0040002D16D1E4744EFD13046FCF7EAFA78
S315202573D0012249463046FFF702FF204600F0CCBC65
S315202573E02DE9F84105460E4689B017463046FBF766
S315202573F0DBFE00F073F800F061F8040014D10022BA
S315202574000123052400F05FF81EBF06F5C67108780E
S31520257410002800F00AF800F014F800F00CF8040013
S3152025742002D100F046F8044639E003D04A78029284
S315202574300978039170470120694602902846FCF772
S31520257440C5B90298039B06EB0011284601F1800257
S315202574500121FCF77DB92DE9F84105460E4689B06F
S3152025746017463046FBF7A0FE00F038F800F026F840
S31520257470040014D100220123082400F024F81EBF7D
S3152025748006F5CE7108780028FFF7CFFFFFF7D9FF3D
S31520257490FFF7D1FF040002D100F00BF80446284659
S315202574A0FCF780FA012200F01BF820460AB0BDE839
S315202574B0F0813B4642463146284667E63B464246CC
S315202574C03146284646E601978DF8002003930294F7
S315202574D08DF8108096F8471000297047804600229F
S315202574E0314628467BE6F0B5054689B00E46144634
S315202574F01F46042084B124216846FCF79BFE0322DF
S3152025750001238DF800206946029328460393079484
S3152025751008970196FCF75AF909B0F0BDF8B50D463E
S315202575201E468EB00746002101A8002300248C463E
S3152025753080E81A101168042902D85068402817D3E4
S3152025754001212974106C000D00F00700401E052826
S315202575500CD8DFE800F003070903030502240CE015
S3152025756004240AE0012408E0032406E02B747BE0AA
S315202575703168C1F30324002C76D000930322069389
S3152025758001218DF82430631E032B8DF81420CDF888
S3152025759030D00D91079108910ED8DFE803F0060229
S315202575A00A02DFF8482B019206E0DFF8441B0191F9
S315202575B002E0DFF8400B0190012301AA012138467C
S315202575C0FCF7C6F805A93846FCF700F900284CD162
S315202575D03068C0F3036000281FBF7068C0F30720FA
S315202575E000280090641E0021032C29743CD8DFE84E
S315202575F004F00210271C009A510635D4DFF8F80A24
S31520257600C5F8C000009A02F0C30242F0400200925B
S3152025761021E00099880727D4DFF8E02AC5F8C0207D
S315202576200099090241F4007114E0009988071BD4BA
S31520257630DFF8CC2AC5F8C020009941F0020109E0DF
S315202576400099080610D4DFF8BC2AC5F8C020009971
S3152025765041F08001009101200121042228742975F9
S315202576606A750098A861697400200FB0F0BD0022C4
S31520257670F8B50C460023002605468EB00AA90292A7
S31520257680002081E84D00032200908DF81430012139
S315202576908DF804200126DFF8707ACDF820D00991BF
S315202576A0012303910AAA049628460A97FCF750F83F
S315202576B001A9FFF7C3FEB8B90099042201F0F70105
S315202576C00091267400992675090401F47F0141F05D
S315202576D0042141F08101C4F860110E216175009BBA
S315202576E0A361627484F8CF610FB0F0BD2DE9F84708
S315202576F0914600220C4691B08DF810204FF400714A
S315202577000292012280460191039254B3032109AAAC
S315202577108DF800101026079204F18007089601237C
S315202577203A460121FCF714F8012669460296404679
S31520257730FCF74CF8A8B9099848A610F1010F02BF05
S3152025774009A8416811F1010F07D1826812F1010FAD
S3152025775004BFC06810F1010F09D000F08DF800286C
S3152025776038D044F68E6A504612B0BDE8F0870023FD
S31520257770002221464046FFF7EDFC0028F1D10920BD
S315202577801023029002220693039B8DF8002002984F
S3152025779007EB0012059601214046FBF7D9FF00F09D
S315202577A070F80028DDD10023002221464046FCF72B
S315202577B005F90028D5D100F059F869468DF800201D
S315202577C040460793FCF702F80028CAD100F054F862
S315202577D00028C6D104F1400701223868B979022547
S315202577E0322440F0400038604046FBF709FA00E095
S315202577F06D1C641EB5D000210DA8002200238C46C1
S3152025780080E80E103969DFF8E02C4046914205F0D4
S31520257810FF0227BFDFF8F4380D93DFF8F4180D9112
S31520257820DFF8C83C00211A4301230E920DAAFBF747
S315202578308FFF002000F01AF88DF80020694607935F
S315202578404046FBF7C3FF5FEA000A8AD100F014F809
S315202578500028CDD1C9F8005085E700000011223334
S31520257860445566778899AABBCCDDEEFF1021029078
S31520257870032209AB08917047102209A9304601F049
S31520257880FFBB0121404602916946FBF79FBF2DE9A3
S31520257890F04305460C46E06816464FF0010905F1EA
S315202578A05002002847BFC01E09FA00FC401C4FEA9B
S315202578B0D00C04211068002804D1121D491EF9D1A7
S315202578C004206EE0FCD0C2F800C061684FF48070B9
S315202578D0402908D3216BC1F3031109FA01F1B1F52A
S315202578E0004F18BF084605F5E07C6FF07F4ECCF893
S315202578F000004FF0000800250021002704EB470053
S3152025790090F8240058B109FA00F070453CBF864608
S31520257910394680453EBFB0F5801F80463D467F1CB3
S31520257920042FEBD3C645CCF804E0CCF810800CBF49
S31520257930012000208CF809001268DFF8AC0B824262
S3152025794025D394F8580038B104F160026034515C8F
S315202579503160605D186023E004F1250010F81110D0
S31520257960202904D0D82904BFDC22326001E0212039
S31520257970306004F1250111F81500202802D0D828D9
S3152025798003D00DE021221A600AE0DC2107E004F16C
S315202579902500253410F81120326014F815101960A9
S315202579A00020BDE8F0832DE9FC4F87B08046186876
S315202579B000244FF0040AC20902F001028DF80520A1
S315202579C0C0F30352012A01BF079A9368C3F3C04423
S315202579D0002C00F0D081C0F30312052A41D10120C5
S315202579E08DF8040000260F4600213973089A1820A1
S315202579F089468B4607F15005137806AA03F00F030F
S31520257A0087F8463005AB0091029007993846FFF74F
S31520257A103EFF2A68DFF8D00A824239BFA96881420B
S31520257A202020029008980168C1F3033000280AD146
S31520257A30CDF8108056BB089B079A39464046FFF756
S31520257A406DFD5FEA000A40F0968100F098F990B125
S31520257A5007984FF0020B0069C0F3421900F01F006A
S31520257A6013E00023062A8DF80430BBD101260024F5
S31520257A708DF80460B7E7C1F3805038B107980069BF
S31520257A80410D01F00709C0F3044000900798029B99
S31520257A9000F1580207F1D001039242F20402202B6D
S31520257AA01CD1DDF80CA09AF8000098B196B9DAF821
S31520257AB0043042F2042AC3F3002010B1DFF8300A3D
S31520257AC004E0C3F3C01028B1DFF8280A0864C1F8FA
S31520257AD044A007E0DFF8203A0B6402E0DFF81C0A11
S31520257AE008644A64012240F206403A73DFF8103AC8
S31520257AF028662B640698DDF8088000F0FF0040EA0A
S31520257B00084040F0006040F480600860059A4FF4F4
S31520257B108C60086602F0FF0242EA084242F00062C3
S31520257B2042F480620A6308990868C0F3036048B165
S31520257B304868020606D000F0FF00009014B34000E6
S31520257B4000901FE014B39DF80500C8B90299202995
S31520257B5005D1DFF8B009DFF8B02928636A630498D0
S31520257B603946FBF739FD5FEA000A06D104986A46AD
S31520257B703946FFF7BBFD5FEA000A40F0FC8001E0AD
S31520257B8008220092009BA3EB09030093029818284C
S31520257B9034D18EBB0CB1ED2056E000F0F0F820B3A1
S31520257BA007980069000AC0B240EA084040EA0B60FF
S31520257BB040F0006040F4806007F2CD1628630899CE
S31520257BC000200A68C2F30211002977D0012975D130
S31520257BD007994A68402A04D30A6CC2F34021002912
S31520257BE03BD10098484400906BE0C1F3805018B1F2
S31520257BF007980069000ED6E7032020E0F6B90CB1D8
S31520257C00EE2021E00399087870B14968C1F3401028
S31520257C1018B1EC204FF0020BC5E7C1F3001068B16F
S31520257C206C204FF0000BBEE700F0A9F808B1EC2038
S31520257C30B9E7C1F3805008B16C20B4E713200021A1
S31520257C40002C00918946AED0396C40EA084041F097
S31520257C504001396440F00A40ACE7120C12F0050FBA
S31520257C6018BFA5200BD1910709D5089B079A0498FB
S31520257C703946FFF7FCFC5FEA000A7CD101200799EB
S31520257C8007F5B872096C890A11F00A0F0AD06FF028
S31520257C90F92111605160029920290DD140F2FF6307
S31520257CA0936009E011F0110F06D04FF006211160DF
S31520257CB05160DFF8E81A916001223270B9F1000F80
S31520257CC025D10098E8B1ACB100F0FF01DFF81C08FA
S31520257CD00143696301227270386C40F04000386494
S31520257CE0396C41F0100139649DF8040000283BD0F9
S31520257CF000213DE000F0FF02DFF8A40A02436A6373
S31520257D00EEE7002C42F204416963E3D1E8E7ACB102
S31520257D10B9F1010F06BF26220009272200F034F8E3
S31520257D2041F03241002841F40071696307BF4AF2C8
S31520257D300461A963DFF86C0AA863CBE7B9F1010FC3
S31520257D4006BF06220009072200F01EF841F04851F9
S31520257D50002841F40071696307BF42F20461A963D3
S31520257D60DFF8440AA863BBE79DF8050008B103217F
S31520257D7039734FF0000A504609B0BDE8F08F0798B1
S31520257D808168C1F34050704740EA8221009A120447
S31520257D9002F47F02114370472DE9F84F0D0096B066
S31520257DA0144608BF4FF0040869D0834608236A463F
S31520257DB00021FFF798FB5FEA000860D10098DFF8DD
S31520257DC06C1D884218BF44F68B6858D19DF804004F
S31520257DD028609DF806707F1C0A2F88BF0A27082150
S31520257DE00CB14FF40061FB0002AA5846FFF77BFB36
S31520257DF05FEA000843D164212846FCF71BFA4FF099
S31520257E00000A4FF6847904E0012085F858000AF106
S31520257E10010ABA4533D202A901EBCA000278C379F1
S31520257E2002EB0322B2F57F4F18BF4A45EFD1002139
S31520257E300223C6185B1E367946EA0121F9D5C6786E
S31520257E40B60004B10902B2F57F4F0DD1502E05F1AA
S31520257E500802584688BF50263346FFF744FB5FEA7B
S31520257E6000080CD16E60D2E74A45D0D1334605F1BC
S31520257E705C025846FFF737FB5FEA0008C4D0404628
S31520257E8017B0BDE8F08FF0B5490089B003250191DB
S31520257E90002601278DF800506946029603978DF80E
S31520257EA0106007920893FBF791FC0AB0E0BD4900C4
S31520257EB060B589B002250191002101268DF8101083
S31520257EC08DF8005069460296039605920693FBF790
S31520257ED07DFC09B060BD2DE9F84705460C468BB0DB
S31520257EE00320E07304F14500082158230170032659
S31520257EF0236426731AB1216C41F0010121640122E4
S31520257F0004F1500682700F200121B085F18504F5F4
S31520257F10C2774FF400724FF48020FA6304F2C91811
S31520257F203864C4F8D001284688F800102146FBF786
S31520257F3053FB002855D1202103A8FCF77BF903A85C
S31520257F40DFF8EC1BDFF8EC2B41600261DFF8E80B4C
S31520257F50DFF8E89B0890CDF80C90022303AA002190
S31520257F602846FBF7F5FB4FF418400223029002AA78
S31520257F7040F255512846FFF79AFF002831D108238C
S31520257F806A4610212846FFF77EFF002829D100982A
S31520257F90DFF8AC2B0199904289B2019108BFB1F542
S31520257FA0B24F40F09F8008236A4627212846FFF7AF
S31520257FB06AFF002815D10098C0F30720A0F11701E4
S31520257FC00A29009080F08E800122824032604FF46B
S31520257FD070410291022302AA00212846FFF767FF56
S31520257FE000287CD1DFF85C1B4AF20475DFF858CBD4
S31520257FF07163B5634FF08721C6F84CC0DFF84C2B4B
S31520258000B565DFF84C3BDFF84CEBDFF84C5BDFF84A
S315202580104CCBC6F854E0DFF848EBC6F830903164EF
S3152025802048F2307A7264B364C6F85090DFF8349BF0
S3152025803031667266B366F26631677567C6F878C0AB
S31520258040F56704F1D006C6F84CE0DFF81CEBC6F838
S3152025805050E004F5A874C6F85490DFF8109BC6F8AE
S3152025806030E0DFF80CEB31647264B3643160726002
S31520258070B360C6F80C9031617261B361F2613162E9
S315202580807562C6F828C0F562C6F834E0C6F838A069
S3152025809031667266B366C6F86C9031677267B367C8
S315202580A0F26721602161DFF8C01C626102226560CA
S315202580B0C4F808C0E560A3610323E16104213A7170
S315202580C001247B7109233A703A7305223972397452
S315202580D00B217C707B737A72797488F803400CB0F7
S315202580E0BDE8F08744F68D60F9E7000035040124C4
S315202580F0050401243F040124010401200104022052
S31520258100310401203E04022085040124EE04208A20
S31520258110ED04188A2DE9F04F8FB09046D8F8003017
S31520258120C3F30352052AC3F303320092C3F3034252
S315202581300192C3F303120CBF01240024052A009AB9
S315202581400CBF4FF0010B4FF0000B002A18BF032A56
S315202581500AD102900F46019807F1300538B10199C9
S31520258160032901D1100019D14FF00409B7E10FF2E7
S315202581709C3100F0FFFC06460020FAF7F8FC3EB9B4
S31520258180029803AA394600F062FE5FEA0009EDD17E
S31520258190002010213873032229610CE003201021A9
S315202581A038732961D8F80000C0F30350042804BF8A
S315202581B0502129610622009801990E924FF0040A32
S315202581C0DFF8A86B084308BF0124002114EA0B0F0A
S315202581D003911BD0D8F80000C0F303610029C4BF42
S315202581E098F804A0BAF1000F10DC00F00F010B2936
S315202581F00AD3C0F30361C0F3036006EB800056F86B
S3152025820021A0816A039101E04FF0140A009839468E
S3152025821003280CBF0820012068750298FBF7DCF996
S315202582205FEA0009A2D10198002118B1002C14BFBC
S315202582300121022106EB01100123012100F154021F
S315202582400298FBF785FA00200323079004AA8DF8C8
S31520258250280001208DF8183006A908900990029843
S315202582600D92FBF7B3FA5FEA000904BF9DF81000CB
S31520258270C22840F03481D8F8000007F15001C0F318
S315202582800360002808DDD8F80420120F022A03D11E
S315202582900020086007F15801019804AB4FF480327D
S315202582A007F1B006002807BF9B78A3F1300058793F
S315202582B0303802FA00F007F5E07308604FF4805154
S315202582C059604FF48070C7F8C00107F5E070026148
S315202582D00321397310222A61019884F0010200288E
S315202582E004BF0099032940F0808001200223387499
S315202582F00620012178757B740FF61C507982072379
S3152025830039750068019000218DF80410DFF8600A80
S315202583108DF807304FF00421DFF8583ABAB182227A
S315202583208DF805200222BA6133637163B063D8F8CC
S315202583300000C0F30310032804D1012107F5E072BC
S3152025834091724BE0002007F5E073987246E0812272
S315202583508DF80520BCB1D8F80020C2F30362002A87
S31520258360C4BF98F80420002A02DDBBF1000F0AD0ED
S31520258370039ABA6100227A74DFF8F02B336372638D
S315202583800122B06300E000223A7401223A7707F1F0
S3152025839021024FF0070C4FF0010E82F800C04FF056
S315202583A0000887F820E04FF0020C87F81D80DFF8BB
S315202583B0C0EBC5F800C04FF00A0833644FF0010C16
S315202583C0C6F844E0B06482F8048082F803C002220D
S315202583D0BA77C5F804C033677167B067019807F582
S315202583E0E07148610198FAF7C2FB40F20641444AFA
S315202583F031602A660098B8B90121DFF8782B3973C0
S31520258400DFF8740B2A653C49686542F20402316619
S31520258410DFF8680B7266DFF8681B30624FF48C62D2
S315202584203165C7F8302155E03CB9212022212C245D
S3152025843029222823DFF84CCB06E0012002210C2413
S3152025844009220823DFF840CB4FEA0A4A89020AF493
S315202584507F0A4AEA010A4AEA84649202C5F850C08C
S3152025846042F4417241EA836341F4487144F003247E
S3152025847044F0200A8406C5F854A044EA8024DFF86F
S315202584800C0BAA6520433061DFF8040B20432867AF
S31520258490DFF8000BC5F874A00343AA67DFF8F82A8E
S315202584A02243DFF8F80A326620437366DFF8F02A7E
S315202584B0306222437162DFF8EC0A32650443716526
S315202584C00220C7F83041296907F5E07241F04001BD
S315202584D029611073BBF1000F1CBF00203873484655
S315202584E00FB0BDE8F08F00000100000100B204A600
S315202584F03E04200A34042008120420080204180801
S315202585000504042413042008042401000000000087
S315202585102DE9F84F9CB0044616460D463068C0F323
S315202585200352072AC0F30312C0F303400CBF0127C9
S315202585300027052A0CBF4FF001084FF00008D0B9B7
S315202585400FF6F82168460A680092FAF714FB814649
S315202585500020FAF70CFBB9F1000F07D16A46294608
S31520258560204600F074FC5FEA00095DD10020102129
S315202585702873296403E0032250202A7328640821BE
S31520258580204685F845102946FBF726F85FEA000997
S315202585904AD130680FF68422C0F3034008B9012357
S315202585A003E0032840D10123103201212046FBF781
S315202585B0CFF80820002285F8450003A92046FFF795
S315202585C0EBFB5FEA00092FD101AB02AA03A92846B6
S315202585D0FFF75DF9380003D150200321286429733C
S315202585E0DFF8C41905F15002116440F206401066E1
S315202585F03168002005F15004A46842F2010AC1F32E
S315202586000343032BDFF8A4B91ABFC1F30333032B86
S3152025861001202B6DA34238BF2346002805F1D0041F
S315202586206BD1C1F30330002840F0B380B3F1807FAE
S31520258630DDF808E027BF20218E201821C220DFF86B
S3152025864070C940EA01400EF0FF0E4EEA014E4CEA73
S315202586500E0EC4F800E0DDF804E00EF0FF0E4EEA1B
S31520258660014E4CEA0E0CC4F830C0DFF848C94CEA56
S31520258670000020644FF40E50606457B9DFF838198E
S31520258680DFF83809116305F5E673506301229A70E0
S315202586902FE0CB27B3F1807F336828BFCC27C3F3C0
S315202586A0036028B17668300618BF06F0FF0608D184
S315202586B003F00F030B2B2EBF0426DFF8040950F8F1
S315202586C02360C4F810B0DFF8FC38636147EA01411E
S315202586D0C4F818A001200623AE61287406F0FF06EB
S315202586E06B754CEA01012875DFF8DC080643116312
S315202586F056634FF48C61216646E0DFF8D008DFF813
S31520258700D0381065DFF8CC1840F206701363516314
S31520258710DFF8C4381067DFF8C42822604FF4EC61EF
S315202587202363DFF8BC0821664AF20432206462649A
S315202587303068C0F3034020BB0FF6041200261368C9
S315202587400627009382218DF8006005F5E6708DF8C1
S3152025875003708DF80110009A82600098FAF707FABF
S31520258760022101206974E72201212874AA614FF08C
S3152025877004206F7529756982C4F810B06061C4F824
S3152025878018A0022185F8CC11B8F1000F1CBF0020B6
S31520258790287348461DB0BDE8F08F0000001E103214
S315202587A00032042604A6017C0426017C2DE9F04FFF
S315202587B0A3B01668034644F68D68DFF82858C6F315
S315202587C003500928C6F303100CBF012400240528CD
S315202587D007BF01270297002002901727C6F30360BB
S315202587E0079730B1576838061CBF002C07F0FF09BC
S315202587F00FD106F00F06092E03D94FF008090020C0
S3152025880004E005EB860055F82690806A40F0100096
S3152025881007900F4607F1300B04204FF0000A8BF8FE
S3152025882015001068C0F3034100911021C0F30336CB
S31520258830CBF8101000980193C0B90FF6080100F067
S3152025884099F980460020FAF792F9B8F1000F07D159
S31520258850019803AA394600F0FAFA5FEA00085ED1A4
S3152025886001208BF8150087F80CA00EE0022802D1EE
S315202588700321397309E0032851D1032108223973AD
S315202588808BF815200CB94FF0010A002E1CBF022E9D
S31520258890032E44D10098304308BF0124022E03D14C
S315202588A004208BF8150004E0032E04BF08218BF83D
S315202588B01510DBF81000002C394614BF20F0400097
S315202588C040F04000CBF810000198FAF785FE5FEAC4
S315202588D0000824D1002C009808D0022802D003288D
S315202588E002D00CE010200BE0202009E0022802D03F
S315202588F0032802D003E0302002E0402000E00020BB
S31520258900281800F15402019801230121FAF720FFA6
S31520258910019852460AA9FFF73FFA5FEA000840F078
S31520258920018108AB09AA0AA93846FEF7B0FF03201C
S31520258930387334B94FF0220C2C234FF0290E2825D5
S3152025894005E04FF0020C0C234FF0090E08253106C1
S3152025895001F040713002069100F4407A41EA0A017D
S3152025896041EA8362DFF88006024340F206400592FB
S315202589704AEA8E2240EA0A000390009842F0040231
S31520258980049207F1800230B940F206401063DFF8E1
S315202589901806106105E00598106104985061039822
S315202589A0106341EA8C600190DDF804C0DFF83C06AF
S315202589B040EA0C004AEA852C106009F0FF004AEAB5
S315202589C0000040EA8320069B1843DFF8243640EA38
S315202589D08E6007F5807E40F480205060019840F017
S315202589E0201040F48060106501981843CEF80000C9
S315202589F0019BDFF8000618434CF08003022ECEF8A3
S31520258A001000CEF814304AF48C60CEF8300007F5E5
S31520258A10E67318BF032E07D1059802251062049800
S31520258A205062039810641D70029804420FD00125C8
S31520258A303D740798B86100207874DFF8BC55156613
S31520258A4042F2010050660620787501253D750020E5
S31520258A50022ECBF8000008BF4FF4802003D0032E2A
S31520258A6003D14FF40020CBF8000034B9DBF80050B1
S31520258A7045F40005CBF800500AE0029840B9DBF80A
S31520258A801000012540F08000CBF8100087F879509A
S31520258A90009820B9DFF8641542F203000AE0002C7D
S31520258AA014BF0120212041EA806140F27140014313
S31520258AB04CF003001167002E506719BF02207877E6
S31520258AC000217977012007223877002187F8212070
S31520258AD00FF2745287F820007882106800908DF85E
S31520258AE000103CB1022E08BF41200AD0032E0BD1FF
S31520258AF0812109E0022E08BF422002D0032E03D170
S31520258B0082208DF8010001E08DF8011008228DF8CC
S31520258B100320009898600098FAF729F8029808B15A
S31520258B2000213973404623B0BDE8F08F5346445083
S31520258B30108F04A72087188B108F02A3A087188B48
S31520258B4000510052108F0CB3008770870087AA87A3
S31520258B5000870587108F0BB70087558700870287E3
S31520258B600087A087108F80A30087188B0087808792
S31520258B70108F008703A80A680392F9F7FCBF000027
S31520258B802DE9F8470D00164699B082464FF0040880
S31520258B9018BF002E00F0E3804FF400712846FBF71E
S31520258BA049FB05F144040122A2704FF08079C4F8CF
S31520258BB00C90DFF84C0428600322DFF848146A73EA
S31520258BC0696005F5E077AA73012038723168C1F30B
S31520258BD0036000281FDD7068C0F30340012803D1F8
S31520258BE0296C41F4807129647068C0F3036111B141
S31520258BF02846FAF78CF87068000F0CD0012806D085
S31520258C00022802BF0021E160C4F8149003E0286CF5
S31520258C1040F0040028643068020D02F00F02092A6C
S31520258C2060D8DFE802F0050545474D4D5353595980
S31520258C30C0F30340002855D184F80180DFF8C813F6
S31520258C40E163DFF8C823226429465046FAF7C4FC97
S31520258C505FEA000846D13168DFF8B4030123C1F362
S31520258C60034100EB011201215046FAF771FD00223E
S31520258C7069465046FFF790F85FEA000832D1334619
S31520258C806A4629465046FEF78EFE5FEA000829D118
S31520258C902846FAF789FA28B3E068606139684900D9
S31520258CA039607A6852007A6038694000386119E05F
S31520258CB0012200E0002229465046FFF70CF910E054
S31520258CC0324629465046FFF725FA0AE032462946F6
S31520258CD05046FFF71DFC04E0324629465046FFF74D
S31520258CE065FD8046B8F1000F37D12846F9F74EFFA6
S31520258CF0307800F00F00A0703168C1F3036028B1E9
S31520258D007068000F032804BFE16861613168C1F3EB
S31520258D10034080B9C1F3033068B1E068BD490FF23D
S31520258D202C328842504628BF0FF2303201230021AB
S31520258D30FAF70EFD11E011F00F0F03D0152150463D
S31520258D40FAF70EFF012305F1800200215046FAF796
S31520258D50FFFC297B5046FAF715FF01202070404657
S31520258D601AB0BDE8F087000000871087101025204F
S31520258D7000040120720400042DE9F04180460C46AA
S31520258D80042074B304F5E2759F1829687F42494269
S31520258D9001EA02066A790F407F420AB9E96889B94C
S31520258DA0BE421ED200F01FF8002804BF29688E195E
S31520258DB0F6D016E0324621464046FEF74CFB80B9D2
S31520258DC0E9688E19BE420CD2E96836EA010002D13D
S31520258DD0B81B8842EED200F006F8002808BF29687D
S31520258DE0EFD0BDE8F081324621464046FEF7F8BA57
S31520258DF02DE9F841804604201546002989B01F46CD
S31520258E0018BF002D21D0109CFCB10846FAF7CCF9C5
S31520258E10032101238DF800100021039302918DF85B
S31520258E2010004FF6FF76B4420197694607954046CE
S31520258E3098BF26460896FAF7C9FC30B9A41BF71918
S31520258E40B608002C05EB8605EBD1FEF72FBB2DE9C1
S31520258E50F04315460424002D91B0804604D0687829
S31520258E602A78904208BF00247CD00C4604F1450779
S31520258E7008200326387068784FF00109422818BF44
S31520258E80412802D10420022638706878822814BF0A
S31520258E9042284FF021090020202101908DF810002D
S31520258EA08DF800000120029009A8FBF7C3F9ED787B
S31520258EB0320209AB062D0ED031D3082D01D014D37D
S31520258EC02DE040F20640104340F2FF4109900A4327
S31520258ED01A61022224E040F2994140F26645154363
S31520258EE00A431A61022209951AE042EA8922B9F132
S31520258EF0210F42EA066242EA896242F4190042F4C7
S31520258F00CC0240F0660042F0990209901A6103D1FD
S31520258F10206C40F0400020640221039101E00122CB
S31520258F20039201204FF080717870354A21652146BC
S31520258F30226084F8C801002020734046FAF74CFBAE
S31520258F4004000FD1039B09AA01214046FAF700FC0C
S31520258F5069464046FAF73AFC04464FF47A700021D2
S31520258F60F9F7E9FD204611B0BDE8F0830004030496
S31520258F70000402040C0420080830042421042008B7
S31520258F80DC042008EE871187EC0713070603F9036F
S31520258F900503FA03200304031203ED032103DE034D
S31520258FA0DC03230360039F030504042481040004B2
S31520258FB0000400080004000BFD04208B0CB304A735
S31520258FC0941025200004010400330427050704A74F
S31520258FD0FD07208B06B304A7DC07208B2107208BD2
S31520258FE01207208BBC102520050404000B04200025
S31520258FF0D80420000204200071040304710400040F
S315202590004643464200040156030418080424010059
S31520259010D00F252001000001000000005A04180861
S315202590200830FF2400000000000000005A07208B8E
S31520259030FFA700000000000000000000000000003F
S3152025904000000000000000000000000003041808AE
S31520259050042400000000000000000000130420085E
S315202590600424000000000000000000004018491CD0
S315202590701CBFB1F1010100F8012DF9D1704700007F
S3152025908003000020521E22BF13F8010B11F801CB35
S31520259090B0EB0C00F6D0521C08BF104670470000D6
S315202590A010B55F4B01221C68240A04F00104641CB8
S315202590B002FA04F40460186800F00300801D82403B
S315202590C000200A6010BD00002DE9F04188B0044635
S315202590D068461021FBF7AEF804A81021FBF7AAF85D
S315202590E00C25504FF9F7CAFE02284F4E18BF0420EB
S315202590F040F093804FF4E0712046FBF79BF84B48D0
S315202591004B4920600222616004F144010A70444AD9
S315202591101068C0F3401000B9022088704FF08050A7
S31520259120C860032363730120A37364234870CB622D
S31520259130404B1868000E03D018683F4F47EA106742
S3152025914000973E4F01971F68C7F3074020B11E6839
S315202591503B48C6F30746064304961668C6F3001011
S3152025916000B10D250127E57304F5E07607FA05F00C
S315202591707060681E87406D46376004F1800795E844
S31520259180015187E8015104A804F5987C90E8A0416F
S315202591908CE8A0411D68C5F3C03038B929A004F153
S315202591A0900590E8805185E880510CE0012737739A
S315202591B01868C0F3C03010B94B25758203E00A27FD
S315202591C010FB07F070821D68C5F380300028707368
S315202591D007D100BF1FA504F5A87495E8C11084E81A
S315202591E0C1101C68C4F3C01018B11868C0F3C0108C
S315202591F008871268520A02F00302012A05D002D3F3
S31520259200032A07D003D3642005E0C82003E04FF4C2
S31520259210C87000E032200863002008B0BDE8F08140
S315202592200840C0400304100C130418084643464240
S315202592300004015680CCCA400004100C08300424B2
S31520259240000418080F04C0040124000000000000B3
S31520259250000000000F04C0040124000000000000C7
S3152025926000000000F8B506460D4604201C46002DB4
S315202592708AB018BF002C38D00123032104930D274B
S3152025928000238DF8041003978DF81430029295F853
S31520259290470028B105F5CC714A78039209780491BF
S315202592A00421CDF820D0099101212370039F05EBB8
S315202592B00710049B00F180023046FAF749FA01236C
S315202592C001A903933046FAF781FA70B905F5E872B4
S315202592D0009B1178002919BF5168926830212022D8
S315202592E0194091421CBF012121700BB0F0BDF8B564
S315202592F004468AB0042039B3032609908DF80460E4
S3152025930000268DF81460012701EB07160292002509
S31520259310049700950123039706F18002CDF820D0E6
S3152025932001212046FAF714FA039701A92046FAF7D0
S315202593304DFA48B900994A0748BF44F6256003D413
S315202593400A0748BF44F624600BB0F0BD1346002219
S31520259350FAF772B870B506460D46042455B1FAF7C4
S315202593603BF9040006D1012305F180020021304670
S31520259370FAF7EEF9204670BD2DE9F84F88460424E4
S31520259380B8F1000F8CB01EBF5FEA030ADDF85890AE
S31520259390B9F1000F52D0029208F5CA7715463A6BD5
S315202593A00B230124554304950593069498F84720C5
S315202593B0002A1CBF3978002903D07B7805933C7871
S315202593C006940190002308F180048DF81C308DF831
S315202593D00C30059804EB0012069B01980121FAF71B
S315202593E0B7F901980122059203A9FAF7EFF90400A6
S315202593F018BF44F6206461D108F5E676327822B185
S31520259400F0880021F9F797FB06E001982B4641467F
S31520259410FAF7D4FA040051D10198FAF7C3FA7078ED
S3152025942068B901986B462A464146FFF71BFF04007B
S3152025943044D19DF8000010B944F622643EE0B07868
S315202594404FF0000B70B10299786BB1FBF0F0C20793
S3152025945008D50198012308F1C00200214FF0010B00
S31520259460FAF776F9B5F1805F0AD2019B0FF21851EA
S315202594704A4651F8230041195046FDF727FD13E0AA
S31520259480032304958DF80C300198002201238DF8AD
S315202594901C2003A9CDF828A0CDF82C90059206935B
S315202594A0FAF794F9040009D1BBF1000F06D00198EB
S315202594B0012308F180020021FAF74AF920460DB04A
S315202594C0BDE8F08FF8B505460C460420002C8AB059
S315202594D0164653D0002004F5C6778DF80000FB6B81
S315202594E0B86B5E43464328463246FFF72FFF0028B2
S315202594F044D1002305228DF804308DF8143001231C
S315202595000392049394F8471000291CBF3878002825
S3152025951000F0C8F80398049B04EB00110296284610
S3152025952001F180020121FAF713F9012001A90390FF
S315202595302846FAF74BF910B144F625601EE0334646
S31520259540002221462846FAF739FAB8B93246214665
S315202595502846FFF7CCFE002804BF94F8CD11002914
S315202595600CD16B46324621462846FFF77BFE00283E
S3152025957002BF9DF80010002944F622600BB0F0BDED
S315202595802DE9F0478246894604201E46B9F1000F6B
S315202595908AB090461EBF002E129D002D45D0002351
S315202595A009F5C8778DF800307C6B504604FB08F406
S315202595B02246FFF7CBFE0294002006960223079526
S315202595C0092501268DF814008DF804300395049677
S315202595D099F8471000291CBF3878002800F062F832
S315202595E009F2CD15687888B1B96BB8FBF1F1C807B2
S315202595F00CD50A22039299F8471000291CBF387DDD
S31520259600002803D0797D03913A7D049209F18006BD
S31520259610049B0398012106EB00125046FAF798F889
S3152025962000F046F810B144F6236038E00E220123D7
S315202596308DF804000392049399F8470018B1797B95
S3152025964003913A7B0492049B039806EB0012012191
S315202596505046FAF77DF800F02BF810B144F6246031
S315202596601DE02346002249465046FAF7A7F9B0B908
S31520259670224649465046FFF73AFE002804BF297858
S3152025968000290CD16B46224649465046FFF7EAFD6E
S31520259690002802BF9DF80010002944F622600AB052
S315202596A0BDE8F08703D0797803913A7804927047FC
S315202596B001215046039101A9FAF788B80000000038
S315202596C02DE9F8430D4604241646002D8EB08146F5
S315202596D018BF002E00F033813268120F0C2A40F075
S315202596E02E814FF400712846FAF7A4FD964A974B0A
S315202596F02A6005F130076B600220387503216973CE
S315202597003220A9730022786401207C754FF0805879
S315202597102A732946B8754846C7F82080FFF71AFECA
S3152025972004003ED10AA9002000220023002481E836
S315202597301D00874A42F202430A920AAA0B93012365
S3152025974001214846FAF704F8032202218DF8042040
S315202597500122099101A90094484602948DF81440C6
S31520259760CDF820D003920492FAF730F8040017D1C9
S31520259770009844F62B6400F0FF00FF2818BF002828
S315202597800ED03168C1F303610029C2BF716801F08B
S31520259790FF02002A03DD01F0FF01884200D10024C3
S315202597A0002C40F0C88001202873317801F00F0164
S315202597B0B9753068C0F30310022818BF042840F075
S315202597C0BB80800205F5E07210604000506031684C
S315202597D0C1F3032103290CD8DFE801F00204060989
S315202597E0402108E0802106E04FF4807103E0202106
S315202597F001E0202927D39160396A9368B1FBF0F0DF
S31520259800B0FBF3F3D3611068B0F5805F0CBF0D2054
S315202598100C20E8733068C0F30340010009D00128E5
S315202598200AD002280BD0042818BF082800F08380E8
S3152025983007E04FF0806007E04FF0006004E04046E7
S3152025984002E0B0F5007F77D3400005F1B0013862FC
S3152025985040F2064008603F4842F2014338667B665F
S3152025986005F5987CDFF8F0E0DFF8F080CCF800E00D
S31520259870DFF8EC90CCF83080C1F82090CCF8200089
S315202598803848CCF82430384B386538487B65002352
S3152025989008664FF40950486693733068C0F3033041
S315202598A060B13348334B486733480B67334B0861E0
S315202598B04FF41A50886101204B619073012305F1DD
S315202598C021002B774FF0020C80F800C04FF0000CBA
S315202598D085F820302A4B3B6742F201037B674FF000
S315202598E0060EC7F800C04FF0010880F804E080F87E
S315202598F00380244808634B631921796082F81080F8
S315202599003068C0F3036000280EDD7068C0F3074178
S3152025991000291CBFC0F30720002805D05161706897
S31520259920C0F30720906103E0302020235061936106
S315202599300221397500E014B92846F9F727F920467A
S315202599400FB0BDE8F0830000464346420004015689
S315202599509F0400040F04C0041304180810041808D3
S31520259960D80418086B04100C083280263204100CF3
S315202599700C0C4022320401186B0401180C0C0832F9
S315202599801F04A0041F04B0040000000000000030BE
S31520259990000000604FF0FF310022016042607047D1
S315202599A030B543680468134DD318436007E011F892
S315202599B0013B83EA146355F8233083EA04241346AE
S315202599C05A1E002BF3D1046030BD70B5426803685A
S315202599D012F0030F0BD002F00302C2F10402054C4C
S315202599E01D0E521E54F8256086EA0323F8D10360FE
S315202599F00B6070BD7009252010B59A4B01221C6875
S31520259A0004F0010402FA04F404601868C0F3430044
S31520259A1000281DBF1868C0F34300824040220A60F3
S31520259A20002010BD30B58F4C00F1520221688E4B97
S31520259A30C1F30021491E8941C90F11701968C1F347
S31520259A40001101B10121D170196800F12105C1F359
S31520259A50C001002914BF1021082129702168C1F3CE
S31520259A604021491E8941C90F80F820101968C1F364
S31520259A70401101B1012129741968C1F3801101B161
S31520259A80012191721968C1F3C011002914BF07213C
S31520259A90062101731968090A01F00701891E05297E
S31520259AA00ED8DFE801F003050707090B022108E098
S31520259AB0042106E0012104E0032102E0072100E03C
S31520259AC0002169701968C90A01F00701491E06296E
S31520259AD013D8DFE801F00406080A0C0E1000092128
S31520259AE00CE00A210AE00B2108E00D2106E00E21D3
S31520259AF004E00F2102E0102100E00C21A97019684D
S31520259B00C1F3803101B10121D1722168C1F38021B0
S31520259B10491E8941C90F41721968090C01F00701AF
S31520259B20072915D8DFE801F00C0406080A140E11BA
S31520259B3008210FE010210DE020210BE0402109E02E
S31520259B40802107E04FF4007104E04FF4806101E0A5
S31520259B504FF48071C0F8A8101078F8B11868C0F3B2
S31520259B60006000B1012010711868400E00F0070032
S31520259B70052811D8DFE800F0030507090B0D01207C
S31520259B800BE0022106E0032007E0042102E0052060
S31520259B9003E00621517030BD0720507030BD70B5C9
S31520259BA004464FF48071FAF745FB04F1500501224E
S31520259BB00023AA706B7104F12106082040213070FC
S31520259BC0062084F820200C2233742B732073012041
S31520259BD07370B2706B73A965AB71E870204663729A
S31520259BE0FFF720FF00204FF40073012128706870AD
S31520259BF0012228714FF47A70AB602982E881317869
S31520259C00286D082908BF96F9020003D0102903D10B
S31520259C10B078401C02FA00F02865400968654FF4A3
S31520259C208061E96500202A66104984F8E000FF2036
S31520259C3021604FF01E4122724FF0007260734FF45F
S31520259C408033A073002021614FF0004162610022FC
S31520259C506360E073A0614020E161F0700020F2731B
S31520259C6070BD00000840C04080CCCA4053454D43B6
S31520259C702DE9F84FDFF8603C00F140021C78002CD6
S31520259C8062D18DF8031001BB002504278DF80250DB
S31520259C9006268DF801504FF0210E8DF80070D17CC7
S31520259CA0042500270824F146A0464FF0010C491F1C
S31520259CB00229CA46CB4606D290F82010491E89414C
S31520259CC0C90F80F820105F703EE001293CD1D47C55
S31520259CD0A41E042C0CD8DFE804F00C090705030084
S31520259CE0052106E0042104E0032102E0022100E00B
S31520259CF000215970D17C491F022906D290F820408F
S31520259D00611E8941C90F80F820105B780D20DFF868
S31520259D10CC1B434319444C7B8DF802408B7B8DF815
S31520259D200130CC7B8DF800400C7C4D7C91F812803F
S31520259D30CF7C91F814C091F815E08E7D91F8179077
S31520259D4091F818A091F819B082F800C057709DF89F
S31520259D50020082F803809070157154719DF80000D9
S31520259D6090719DF8011082F807B0117382F808A02A
S31520259D7082F80990967282F80BE0BDE8F18F2DE9DD
S31520259D80F8438046DFF8586B4FF480713046FAF752
S31520259D9051FA0022012100920422EC2008F15007D5
S31520259DA003F044FC00F04CF90400DFF82C5B13D1BA
S31520259DB0A868397BB0F57A7F38BF4FF47A700129A8
S31520259DC005D1014600F0CCF8040005D101E0F7F7CE
S31520259DD06AFE00F0C8F80446002C1DD13068DFF84D
S31520259DE0309C484515D100216846ADF8021003F070
S31520259DF002FEFE223146684603F001FE0DF10201E0
S31520259E00684603F0F5FDBDF80200B6F8FE10884237
S31520259E1016D000F0A8F8040040F09A8000200021F2
S31520259E20CDF800901DF80130725C934208BF401C86
S31520259E30491C0429F6D30128D0D845F2D52088E017
S31520259E400720DFF8D02B3870002000210C2306EBC5
S31520259E50010E43439EF8209013445B5C4B4502D16B
S31520259E60491C0C29F2D30C2975D13870308900214B
S31520259E700006800E00F001002877306D386500E059
S31520259E80491C4008FCD108F121000278082A02D075
S31520259E90102A01D1491E817006F154010A887A6556
S31520259EA08B68BB65CA68FA650B7C3B66497C11299C
S31520259EB010D012290CD0132908D0212904D02229E3
S31520259EC00CBF0221002106E0042104E0012102E045
S31520259ED0032100E007214170F97806F18100072941
S31520259EE01CD10178C1F340120AB1062112E0C1F333
S31520259EF000120AB105210DE0C1F3C0020AB10421E1
S31520259F0008E0C1F380020AB1032103E0C1F3400131
S31520259F1011B10221F97001E00122FA70027A417A03
S31520259F2002EB0121A9608279C379890802EB0322F4
S31520259F306A6106794379920806EB03232B61A9608A
S31520259F406A619B082B61C17A807A00EB0120A86182
S31520259F502046BDE8F283401C0728FFF476AF85E727
S31520259F600122404605E04FF480723146404603F0F3
S31520259F70E4BA2DE9F84F80468B46144608F15C0550
S31520259F80F7F782FD06460F46688800F029F98146AF
S31520259F908A46F7F779FD801BB9418A4502D828BF1D
S31520259FA0814511D3287890B98DF800005846F7F7C2
S31520259FB07AFD6946404600F0A2F8C0B99DF8000012
S31520259FC0800900F0010006E045F2D0200FE00128A7
S31520259FD0DFD103F024FB0028DBD0012C404604BF2B
S31520259FE02978002902D100F031F800B90020BDE8F2
S31520259FF0F28F38B505460C4600230422009301210D
S3152025A000902003F013FB00F01BF880B9DFF8C80871
S3152025A01095F85C108068B0F57A7F38BF4FF47A7052
S3152025A020012905D10146012200F063F810B132BD80
S3152025A030F7F739FD02222146284603F07EFA32BD5E
S3152025A04001466B460022002003F00EBB1CB500F00E
S3152025A0500AF838B90222002103F0E8FA0146A06958
S3152025A06000F049F816BD002304460093002200215E
S3152025A0707FE77CB50023054600930E4630780422DB
S3152025A080012103F0D3FA0146707800F034F8040054
S3152025A0902CD13078EF2813D10422B11C284603F081
S3152025A0A071FA040022D195F85C00012803D10022FB
S3152025A0B000F01EF819E04FF47A70F7F7F4FC15E056
S3152025A0C0EE2813D195F85C00012805D1012200F050
S3152025A0D00FF804000AD103E04FF47A70F7F7E3FC72
S3152025A0E00422B11C284603F028FA0446204676BDCC
S3152025A0F0002128463DE76B46002203F0B5BA7CB5FC
S3152025A10004460D4694F85D0001280FD1DFF8C8676F
S3152025A1103378022B03D108220021712009E006225B
S3152025A1200521782003F082FA746805E008220021AB
S3152025A130702003F07BFAA46901466B46002220464F
S3152025A14003F092FA10B900982870002076BD2DE9E3
S3152025A150FC4704468946F7F797FC064604F15C0535
S3152025A16068880F4600F03CF8002380468DF800309D
S3152025A1708A460193F7F788FC801BB9418A4502D880
S3152025A18028BF80451ED3287808BB4846F7F78BFC81
S3152025A19069462046FFF7B3FF00BB9DF80010CA0786
S3152025A1A013D4607AC8B901F0C001C0290DD1022285
S3152025A1B0002103F03BFA0146A06901ABFFF79CFF7E
S3152025A1C058B10BE045F2D02008E0012006E0012811
S3152025A1D0D0D103F024FA0028CCD00020BDE8F6877C
S3152025A1E04FF47A714843F7F759BCF8B50F46FFF770
S3152025A1F03AFF10BBDFF8E066307802280FD100F051
S3152025A20024F800F027F8C0B994F85500012815D16F
S3152025A210B4F86000B568854212D2054610E000F0F4
S3152025A22014F800F017F840B903220021302003F056
S3152025A230FDF900F00FF80028E6D0F2BD00B9F56843
S3152025A24029462046FFF783FFF2BD04220021002060
S3152025A25003F0ECB901466B460022384603F004BAD2
S3152025A2607CB50023160004460D4600930CD1FFF736
S3152025A270FDFE40B904220021802003F0D7F900F005
S3152025A2801BF800B9002076BD012AFBD10222002128
S3152025A290102003F0CBF900F00FF80028F3D1B4F8FD
S3152025A2A06010DFF834060069884228BF014600F091
S3152025A2B005FC0028E6D076BD01466B4600222846B9
S3152025A2C003F0D2B9FEB50C4600F15005A979A14275
S3152025A2D01BD02A78DAB9DFF80066317FB9B10FF6B7
S3152025A2E06803012CD3E90067CDE9006703D1002156
S3152025A2F08DF8021004E0210004BF08228DF80220E3
S3152025A3006946FFF7B6FE08B9AC710020FEBD2000D0
S3152025A31002D145F2D620FEBD012CF6D145F2DB2011
S3152025A320FEBD38B5044604F15401087801250028D8
S3152025A33004BF4978002915D1002269468DF80020C9
S3152025A3402046FFF7DCFE0028204603BF9DF8005057
S3152025A35005F0010585F001050025FFF777FE08B1F3
S3152025A360012032BD284632BD0246012000E0491E85
S3152025A37021B112F8013BFF2BF9D0002070472DE99A
S3152025A380FC41DFF854550024804628780E4608F1EE
S3152025A3906007022820D1100017D100940022002121
S3152025A3A0FFF7DFFD04003ED104220021502003F0D3
S3152025A3B03DF900F03BF8040035D13988A868884254
S3152025A3C028BF0146FFF7CCFD04E0012A2BD14046C4
S3152025A3D0FFF70BFF044626E00AB9386C86190021BB
S3152025A3E000220091FFF7BDFD04001CD10422022185
S3152025A3F0052003F01BF900F019F8040013D10322D8
S3152025A4000021E02003F012F900F010F804000AD10B
S3152025A410A86900281DBF4FF47A71B0FBF1F0401CC6
S3152025A4200120F7F740FB2046BDE8F68101466B461D
S3152025A4300022304603F018B92DE9F8430546C0B069
S3152025A44005F15406002430788946002804BF717802
S3152025A450012949D1F76C7368FF224FF4807168462C
S3152025A460B7FBF3F8FCF73EFE687A01280AD128695E
S3152025A470326D6946B9FBF0F300FB0377384603F0C6
S3152025A480C0F813E0A0B9002249462846FFF777FFF2
S3152025A490040029D1326D6946284603F04EF804007A
S3152025A4A022D1012249462846FFF769FF04001BD100
S3152025A4B04FF480716846FFF757FF00B10120DFF87A
S3152025A4C018648021707706F12000F9F7B3FE002065
S3152025A4D0694606F1200505E001EBC002536845F8DB
S3152025A4E02030401C4045F7D3204641B0BDE8F083B7
S3152025A4F02DE9F0470C4600F154063178012500292F
S3152025A50001BF7278012AF17800293DD1F26C716854
S3152025A5100027DFF8C49309F1A40AB2FBF1F8427AA1
S3152025A520012A0AD10069241A07E0706809F52971DC
S3152025A53082448A4528D204197F1C474524D2F06CAB
S3152025A5407168B4FBF0F200FB1240B0FBF1F0B84283
S3152025A550F2D15046FFF708FF00281CBF99F81D00A9
S3152025A5600028E2D109EB8701706801F120025146C6
S3152025A57000B203F012FB45F2343188421CBF45F266
S3152025A58035329042D1D000252846BDE8F0872DE9E1
S3152025A590F34F1546E5B0659A002101911C4602F137
S3152025A5A054063078002804BF7178012963D1F26CCE
S3152025A5B07368802144A8B2FBF3FBF9F73BFEF278BA
S3152025A5C0002A5CD14FF00008AA46DFF8E02403953F
S3152025A5D0C1460092002525E0B9F1000F15D17168F5
S3152025A5E00098FF224FF00109FCF77CFD0BE000982F
S3152025A5F022465146FCF76AFC0098FF22391B204447
S3152025A6000024FEF733FDDDF800A0706802AA514626
S3152025A61000B203F00BFA029944AA42F82510706875
S3152025A6206D1C80445D452AD20021002C0291D3D071
S3152025A63077680398BC4200EB080AD8D3E41BE4E7E5
S3152025A64002EBC40351F82400641C58605C45F7D3FB
S3152025A6506598407A012807D16698F36C326D04A94E
S3152025A660181802F0D6FF05E028B9326D659804A999
S3152025A67002F088FF0190019867B0BDE8F08FFF2290
S3152025A6804FF4807104A80024FCF72CFD44A904AAC4
S3152025A690DCE72DE9FE4304468F4E20213046F9F787
S3152025A6A0C9FD19222D234FF4167040F6B831B26014
S3152025A6B004F15205F36004F1180730617161287899
S3152025A6C008B1002008E0B87A00281CBF02280428F3
S3152025A6D001D1012000E002203070A878002804BF8F
S3152025A6E0E978012907BF0120787300217973002194
S3152025A6F02046FFF7BDFA204603F0F7F8002851D16A
S3152025A7003178002945D1009002220121FF2002F02F
S3152025A7108DFF01463868FFF7EEFC00224FF47A714B
S3152025A72000F0CDF900283DD12046FFF728FB00284B
S3152025A73038D101212046FFF79BFA7278FAB1062AED
S3152025A7401DDA317F0020C9B10FF2F4336946D3E9EA
S3152025A7500089CDE9008900F027F818BBEE210022D3
S3152025A7608DF80010694600F01FF8D8B99DF802101B
S3152025A7707278914218BF45F2D72013D190B9204639
S3152025A78003F0B3F870B906F1A0012046FFF731FC96
S3152025A79040B9A97831B9E978002912BF012920467F
S3152025A7A0FFF790FDBDE8FE838DF80220204660E464
S3152025A7B02DE9FF4E05469346D5F8A000EA691C46A5
S3152025A7C04143914228BF45F2D12034D2A04238BFF9
S3152025A7D045F2D3207CD3284602F031FF01463E4858
S3152025A7E04160687A0F46012806D12F692846FFF74A
S3152025A7F0FCFC00286CD105E020B92846FFF7F5FC9E
S3152025A800002865D139462846FFF716FE00285FD150
S3152025A810019400240295019860B10299A34E487AA5
S3152025A820012809D14FF400723146384602F0E9FE57
S3152025A83004000AD020464BE038B902984FF400721E
S3152025A840314602F07AFE0400F4D102983946FFF704
S3152025A8504FFE88B301994FF4007558468D4288BF1F
S3152025A8600D462A463146FCF731FB00217E1941EB60
S3152025A870010A01239A458E480090DFF838E23ABF2F
S3152025A880EF19CDF800E00090009A72451FD11BEBF9
S3152025A890050241EB01090121894500903ABFAB44C8
S3152025A8A0CDF800E000900099714510D10090019ACD
S3152025A8B0AA4204D2009007E045F2D42008E0019B65
S3152025A8C05D1B0195CDF800E000987045A3D00320A7
S3152025A8D004B0BDE8F08E00003C42272094172520A1
S3152025A8E0E04427202DE9F34F83B00546D5F8A0006F
S3152025A8F09346EA6900274143914228BF45F2D12054
S3152025A9006BD29842029338BF45F2D32065D3284689
S3152025A910694E02F094FE01907060687A012808BF7E
S3152025A9202F6901D000B9019F019900222846FFF7FA
S3152025A93097FC040050D14FF0000806F1A400029C94
S3152025A940C24600901FE0E8B932464946284602F01D
S3152025A95019FE16E0BAF1000F0AD100984FF40076B9
S3152025A960FF2231464FF0010AFCF7BCFBDDF80090AB
S3152025A970687A0128E7D13246494608EB070002F0D6
S3152025A98048FE40BBB044D5F8A000804528D2002CEF
S3152025A990E0D0B4F5007F04D3660A7602D946A41BF7
S3152025A9A0E6E7009822460BEB08014FF40076FCF7E4
S3152025A9B08DFA0098FF22C4F5007120440024FEF765
S3152025A9C055FBD3E795F8E00030B9029B04995A4602
S3152025A9D0284600F09FF80446204605B0BDE8F08FAE
S3152025A9E0029B39465A462846FFF7D1FD0400F3D166
S3152025A9F0019901222846FFF733FC0400ECD128468D
S3152025AA00FFF78FFC0028DDD145F2D420E5E70000AD
S3152025AA104F4E4649FC1725202DE9FC4104460D4677
S3152025AA2004F16006E269B16C306C69434143914279
S3152025AA3028BF45F2D12036D220461F4F02F0FFFDF2
S3152025AA408046002000900022C7F80480002100F0CF
S3152025AA5036F840BB04220521602002F0E7FD00F0F0
S3152025AA6031F800BB03220521D02002F0DFFD00F0BE
S3152025AA7029F8C0B931887869884228BF014600F06F
S3152025AA801DF880B92046FFF74CFC10B945F2D42095
S3152025AA9009E094F8E00028B9B26C204655432946AA
S3152025AAA000F016F80020BDE8F6810000E0422720B8
S3152025AAB0A66A95C359956A3C3C4227200022204602
S3152025AAC0FFF757BA01466B460022404602F0CCBD19
S3152025AAD02DE9F041804608F1A0056C6C0E461746F7
S3152025AAE044B945F2DA2013E029682046FFF73CFCD5
S3152025AAF060B1761C3846471E50B12B682246314612
S3152025AB004046FFF755FE0028EED001E045F2D92034
S3152025AB10BDE8F08170B5D0F8E44015461E4614B937
S3152025AB2045F2DA2070BD2246FFF742FE38B9324675
S3152025AB3021462846FEF7A4FA08B145F2D82070BD4D
S3152025AB40EF01000000000000EF900000000000004B
S3152025AB500022FEF78BBA000010B5039C01F00F01E9
S3152025AB60240104F010042143016002B1136010BDB5
S3152025AB70009808B1019901607047DFF8D014884202
S3152025AB802DE9FC41DFF8C844DFF8C854DFF8C8644E
S3152025AB9013D10020DFF8C484DFF8C47400F035F81B
S3152025ABA036680023019600F02BF80FF260500168D5
S3152025ABB000912A680221920816E0DFF8A814884217
S3152025ABC01CD10020DFF8A084DFF8A07400F01DF842
S3152025ABD070680023019000F013F80FF234500168B5
S3152025ABE000912A680F21520802F0010282F0010203
S3152025ABF08DF801206A462046F7F794FDBDE8F381B6
S3152025AC000022009705214046B2E7019000970023B0
S3152025AC100022052140469FE738B5DFF830440A460D
S3152025AC20A042DFF82C3408BF022104D0DFF83454A3
S3152025AC30A84205D10F211846BDE83840F7F7A4BD0F
S3152025AC4031BDFEB5DFF80414DFF82444884212D13D
S3152025AC50DFF82054DFF8206400270096019700238B
S3152025AC600022042100F021F824680096019400236F
S3152025AC700022042114E0DFF8EC13884213D10020AA
S3152025AC80DFF8F863DFF8F8530190009600230022B9
S3152025AC9000F00AF8206800960190002300220B2157
S3152025ACA02846FFF765FFF7BD0B21284654E730B523
S3152025ACB0DFF8E0432568056060680860A1681160B3
S3152025ACC0DFF890231468240904F0010484F0010494
S3152025ACD01C7030BD2DE9F84F86B000F0F6F8DFF868
S3152025ACE06C339C421AD16D1E012D84BF2D1F012D3B
S3152025ACF00BD800F000F900F06BF900F060F900F0B0
S3152025AD002CF900F03AF900F030F900F019F900F0A5
S3152025AD104DF9DFF88483DFF8844370E0DFF84403B8
S3152025AD20844276D1012D37D0022D03D0052D33D05F
S3152025AD30062D5CD1DFF86893DFF8685300F0D4F848
S3152025AD400020DFF86473DFF8646300F0DEF8DFF8AF
S3152025AD506083FFF701FF0020DFF8584300F0DCF879
S3152025AD600020DFF854B3DFF854A30190CDF800B0C6
S3152025AD7000F052F85046FFF7EFFE00F0EEF800F00F
S3152025AD80FCF800F0F2F80398CDF800B0019000F019
S3152025AD9043F85046FFF7ECFE0020DFF82453DFF872
S3152025ADA024930190009500F037F84846DFF818637C
S3152025ADB0FFF7D2FE0020DFF81473019000230097B9
S3152025ADC0002200213046FFF7C7FE0020DFF8BC828F
S3152025ADD0DFF8BC420190009400F01EF84046FFF7AC
S3152025ADE0BBFE00F0BAF800F0C8F800F0BEF800F077
S3152025ADF09AF800F0D2F8DFF8D882DFF8D84200F0AA
S3152025AE00C4F8059800F0AAF8049800F0B7F800F0E1
S3152025AE10ACF807B0BDE8F08F00230022002170474B
S3152025AE20012070472DE9F84386B000F04EF8874B70
S3152025AE309C4217D1002D0DD0012D43D100F05BF872
S3152025AE4000F0C6F800F0BBF800F087F800F095F87A
S3152025AE5000F08BF800F074F800F0A8F8DFF83882B7
S3152025AE608E4C25E07F4884422CD1002D19D0012DEA
S3152025AE7028D1DFF85092924D00F036F80020934FD6
S3152025AE80914E00F042F8DFF80482FFF765FE002098
S3152025AE907F4C00F041F800F060F800F06EF800F0E5
S3152025AEA064F800F040F800F078F8DFF82482894C21
S3152025AEB000F06BF8059800F051F8049800F05EF83C
S3152025AEC000F053F807B0BDE8F083002204460D466E
S3152025AED00592002604920127039602AB8DF8087069
S3152025AEE003AA04A905A8E2E60021009501910023DD
S3152025AEF00022484630E6DFF8E091784D019600237A
S3152025AF00009500220021484626E601900097002339
S3152025AF10002200213046704701900023009400220C
S3152025AF200021404618E69DF808006D4DDFF8B491BE
S3152025AF300095019000230022002148466A4E0BE603
S3152025AF409DF80800694DDFF8A8910095019000230A
S3152025AF50002200214846674EFEE50398009501907C
S3152025AF60002300220021484602E60398002301906B
S3152025AF700022009400214046FAE503980097019087
S3152025AF800023002200213046F2E5002000230190EF
S3152025AF900022009400214046DEE50020564F0190F0
S3152025AFA000230097002200213046D5E50020534F67
S3152025AFB0019000230097002200213046CCE5002071
S3152025AFC0314C019000230094002200214046C3E500
S3152025AFD000204B4F4B4E0190009700230022002145
S3152025AFE03046DFF8A080B7E501207047F8B504463E
S3152025AFF00D461646F7F7A5FF10B3002376190C2123
S3152025B0004148594347183968002904BF7A68002AD8
S3152025B01001D1B868A0B18D4224BF7968B1420DD23D
S3152025B0207868854238BFB0420DD33868854238BF07
S3152025B030B04208D35B1C052BE1D301E0B86845193E
S3152025B04025600020F2BD41F66510F2BD0080414005
S3152025B0500080134070C9CA407401272098810E406C
S3152025B060DC830E4000C04140CC810E4010840E402A
S3152025B0707C01272094810E40D8830E40C0830E4024
S3152025B0807C810E40B0810E40F4830E40B4810E4063
S3152025B090F8830E4080012720A4810E40E8830E40A8
S3152025B0A0D4810E4018840E401C840E40D8810E4033
S3152025B0B0DC810E4020840E4024840E40E0810E4003
S3152025B0C000840E40BC810E40B8810E40FC830E4084
S3152025B0D0C0810E4004840E40A8810E40EC830E408C
S3152025B0E00C840E40C8810E40C4810E40E0830E405C
S3152025B0F09C810E40A0810E4008840E40E4830E409C
S3152025B100F0830E40AC810E40581725200100000003
S3152025B11001000000826A490001F0060122F006029C
S3152025B12011438162704731B1D0F8C01041F0020138
S3152025B130C0F8C0107047D0F8C02022F00202C0F80F
S3152025B140C02070470029816C0BD021F04001920147
S3152025B1508164836C02F0400242F008021A4382641D
S3152025B160704721F00801816470470B46826C816AFD
S3152025B170006802F091BD816A006802F0EFBD0A469B
S3152025B180816A006802F00ABEE0B590F80713012906
S3152025B1900AD1402302210A2201910092816A006860
S3152025B1A0152202F061FE0EBD022908BF8023F1D0AB
S3152025B1B000200EBD2DE9F84307468946154640F25F
S3152025B1C0297641F66A183868BA6A49469047044668
S3152025B1D041F669118C4218BF44451AD197F80603C2
S3152025B1E0022818BF032814D1444506D1386842F2CF
S3152025B1F010724FF0B05103F034F93846FFF7C4FFEB
S3152025B20018B91CB1B442DED100E034462046BDE84B
S3152025B210F2830CB140F20974002D18BF6D1EF0D1B2
S3152025B220F4E700002DE9F04315A68BB000F01BFDB1
S3152025B2300D27F8F7FFFF0297A56C01218DF8111030
S3152025B2402D040395002102AB009100220193694626
S3152025B25000F0C1FD38B90598DFF86819084205D0F0
S3152025B2604FF4E36009E040F2097006E0C105E9D50F
S3152025B270C0F343200728E5D000200BB0BDE8F08396
S3152025B2800000000000000000F0B5044611A58BB093
S3152025B2902421D5E90060CDE9006002A80C27F8F71E
S3152025B2A0C9FF02970026039603210222DFF81839C3
S3152025B2B002AD8DF810108DF8112069460993204688
S3152025B2C001950096FFF776FF08B140F209700BB07D
S3152025B2D0F0BD000000000000000000002DE9F04F21
S3152025B2E08BB004460E4602A8242100BF25A5F8F7D3
S3152025B2F0A1FFD5E900AB04220127CDE900AB00F05B
S3152025B30045F8039640F6B83901930092F6F7BCFB2B
S3152025B31007460D46DFF8B408F6F7C0FB17EB0008FD
S3152025B3204D412068A26A69469047C8B90599C4F84F
S3152025B33074120598BEB9002815D000275FEA0900A2
S3152025B340A9F1010918BF002F06D0F6F79DFBA942C2
S3152025B350E7D301D84045E4D338460BB0BDE8F08F76
S3152025B36040F20970F9E7002858BF0527E6D50027BA
S3152025B370C1F341700228E1D1206D40F4807020650B
S3152025B380DCE700000000000000000000029702AB69
S3152025B3908DF81120002270472DE9D8438BB000F077
S3152025B3A096FC00BF11A64FF4003201230392D6E95D
S3152025B3B000898DF811300327CDE9008902AA0023BB
S3152025B3C002976946019200932068A26A9047002831
S3152025B3D01EBF0598DFF8F017084203BF0222A26494
S3152025B3E0002040F209700CB0BDE8D0830000000093
S3152025B3F00000000030B5CB6800F523729B0F137033
S3152025B400CC68A40E04F00F045470CB681B0C9370E3
S3152025B410CC68240AD470CB6813718B681C0D1B0C41
S3152025B42003F00F03D48013728B681C0403D555892A
S3152025B43045F0010555815C0403D5558945F002055E
S3152025B44055819C0403D5558945F004055581DC0491
S3152025B45003D5558945F00805558140F6FC754C6878
S3152025B46005EA830505EB9475E40E04F0070495811A
S3152025B47094734B681B0E03F00703D3734C68640D36
S3152025B48004F0070414744B689B0C03F007035374CC
S3152025B4904C68E40B04F0070494744B689B0A03F06C
S3152025B4A01F03D3744C68640904F01F0414750B79A3
S3152025B4B003F01F0353750B68002B03D5558945F0DB
S3152025B4C0100555815B0F03F0030393750B689B0EBF
S3152025B4D003F00703D3750C68A40D04F00F04147626
S3152025B4E00B689C0203D5558945F020055581DC033B
S3152025B4F003D5558945F0400555811C0403D5558925
S3152025B50045F0800555815C0403D5558945F480751C
S3152025B51055819C0403D5558945F400755581DC0450
S3152025B52003D5558945F4806555819B0A03F0030388
S3152025B53053760968090A01F003019176006DC10544
S3152025B54008D4917C93890220491C88405B1C43435F
S3152025B5505B0A93654FF40070506530BD38B50446B7
S3152025B5600BA194F89002DFF83C5900F00702C0F3AE
S3152025B570C30051F8223055F8200061680A2243433A
S3152025B5802068B3FBF2F202F092FF606431BD000021
S3152025B590A086010040420F008096980000E1F5051F
S3152025B5A080B5016DCA0507D500F2CD214A78002A36
S3152025B5B01CBF097800290AD100F29F210A784978EB
S3152025B5C0521C491C4A43C0F8FC22002002BD920287
S3152025B5D0AF23C0F8FC2201218DF8023000238DF8F7
S3152025B5E003108DF8011069468DF8003000F006F815
S3152025B5F00028EAD040F21E7002BD00002DE9F04356
S3152025B6008BB004460E4602A8242100BF15A7F8F7BD
S3152025B61011FED7E90089CDE9008932787078B1788D
S3152025B620F378062542EA0022029502AD204642EA13
S3152025B63001420195694642EA0362DFF8883503927D
S3152025B6400222099300238DF811200093FFF7B2FDDE
S3152025B65010B140F2097004E000F0B8FB08B14FF4B0
S3152025B660E3600AE60000000000000000F0B501F1C5
S3152025B6708F0601F1CF057778B27896F800C0AB7B97
S3152025B68000F532743F0207EB02476A7CBC4403FB74
S3152025B6900CF35A4362623279777900F0B0F8F7785D
S3152025B6A000F0A8F8A762F279377A00F0A8F8B779DA
S3152025B6B000F0A0F8E762B27AF77A00F0A0F8777A58
S3152025B6C000F098F800F52A722763B37F9370F77FE9
S3152025B6D001F1AF03D7701F7817719F785771DF78DF
S3152025B6E097711F79D7719F7917721F7A57729F7A0B
S3152025B6F097721F7BD7729F7B17731F7C57735F7C2F
S3152025B7009773DF7CD773767B167001F5F7763778B6
S3152025B71067755F7D1774D0F850C047EA0C07076513
S3152025B7209F7D57745F7E97749F7ED774DF7E1775AE
S3152025B7301F7F57756F7FA772AF7FE772EF7F2773BE
S3152025B74011F8EF7F67738F7B27759F7F9775DB7F33
S3152025B750D3752B7813766F785776AB789376EF78E3
S3152025B760D776EB7E23722F7F6772EF792B7A3F046C
S3152025B77007EB0367AB7995F805C007EB032707EB9E
S3152025B7800C03D361026DD70548BFE361AA7A2270DF
S3152025B7902B7B63706F7BA770AA7BE270EB7B237173
S3152025B7A02A7C62716B7CA371AA7CE271EB7C1B02DD
S3152025B7B023626A7DD30703D5026D42F400720AE01F
S3152025B7C0930703D5026D42F4806204E0530703D51F
S3152025B7D0026D42F4006202650A7B487BCB7A12040D
S3152025B7E042EA0062887A42EA032202432261B17A3A
S3152025B7F0A175F0BDD7196A7C5F4357437047AB7B4C
S3152025B800120202EB074270472DE9704C90B005468F
S3152025B8100C46164600F0A6FD2BA000F0A7FDF8F74E
S3152025B82009FD0022012308924FF400728DF8253058
S3152025B8300821049305F17403039207AA059302AB05
S3152025B8400192009307912868AA6A6946904700289D
S3152025B85002BF0A98DFF87013084230D12A7B1AB125
S3152025B860022A0ED013D320E0002005F1740305F11A
S3152025B870740151F8202011BA43F82010401C802845
S3152025B880F5D3ACB105F17400815D217015E000205A
S3152025B89005F1740205F1740352F8201049BA43F8CC
S3152025B8A02010401C8028F7D3EBE74FF4E16008E011
S3152025B8B005F174012846FFF7D9FE002001E040F264
S3152025B8C0097010B0BDE8708C000000000000000053
S3152025B8D02DE9F84FFF26012990B0DFF84C470DD0EA
S3152025B8E0022903D0052909D006290CD14AF6552146
S3152025B8F04FF6FF7A08252160564609E05A22042567
S3152025B9002260B24604E08021042521604FF0C00A3A
S3152025B910834620689BF80C201AB1022A06D05DD3CF
S3152025B92067E000BA36BA20609AFA8AFA36A0242227
S3152025B930D0E90089CDE90089DFF8F49807A849469A
S3152025B9400027FBF7C3FA00F049FA132001220790B6
S3152025B95002AB089769468DF8252000F05DF80694F8
S3152025B96001920093DBF80000DBF828209047002879
S3152025B97002BFDFF854820A9810EA080F3CD12768BF
S3152025B9800022226022A3D3E90001CDE9000107A8E0
S3152025B99009F124012422FBF799FA00F01FFA012246
S3152025B9A002AB8DF825200E2100F036F8059401925C
S3152025B9B000930791DBF80000DBF82820694690479D
S3152025B9C0002804BF0A9810EA080F18D121684F408D
S3152025B9D03E40564514BF0120002012E042BA70BAD7
S3152025B9E022609AFA9AF112BA06BA226091FA81FA57
S3152025B9F09CE74FF4E16004E04FF4E46001E040F277
S3152025BA00217011B0BDE8F08F000000000000000075
S3152025BA1000000000000000008DF80A20049207AAE5
S3152025BA20039570477CB500F01BFCB72300F00DFC71
S3152025BA3008B100F01BBC84F8B15276BD28680121D7
S3152025BA40FFF768BB28680221FFF764BB38B5044693
S3152025BA5094F82D50012D15D0022D03D0052D11D06A
S3152025BA60062D20D12068FFF7EEFF29462046FFF731
S3152025BA702FFF20B929462046FFF7D4FF88B140F26B
S3152025BA80127032BD2068FFF7DAFF29462046FFF7D8
S3152025BA901FFF0028F3D129462046FFF7C3FF00289C
S3152025BAA0EDD184F80753002032BDF8B50C4600F2B7
S3152025BAB0B225E97901239340194204D12F79072FFD
S3152025BAC001DB00F03EBC04F00F04032144EA0214F6
S3152025BAD08DF80310B92600F004F800B10AE02C7081
S3152025BAE0F2BD00278DF8026069468DF801408DF854
S3152025BAF0007083E540F21E70F2BD20680121FFF714
S3152025BB0012BB2DE9F041044604F12C06317840F28A
S3152025BB100C7040F21275491E05D0491E012943D8BD
S3152025BB204FF4E1604AE07178052918BF062907D127
S3152025BB3096F8241011F00C0F40D0DFF8188809E06C
S3152025BB40716A8A0748BFDFF8008803D4CB0735D525
S3152025BB50DFF8FC8700F03CF810B140F21B752CE08D
S3152025BB6070786168052818BF0628206819BF002720
S3152025BB70424601274FEA580202F099FCB061204639
S3152025BB80FFF764FFC8B957B161682068424602F0BD
S3152025BB908EFCB061206800220121FFF7D3FA01200F
S3152025BBA0002584F8060308E07178052918BF06299B
S3152025BBB004D02046FFF74AFF00B12846BDE8F0818C
S3152025BBC0000000008800F9FF0800F9FF40420F0019
S3152025BBD000220121204668E72DE9F0430FF29C76C5
S3152025BBE08BB000F040F80227F8F724FB0026032225
S3152025BBF002AB0297039669468DF81120019300968C
S3152025BC002068A36A984750BB05A804F1540190E8FB
S3152025BC106C0081E86C00089A04F51E70120E0270DD
S3152025BC200899090A4180089A02710799090E4171D6
S3152025BC30079A120C82710799090AC171079A02720D
S3152025BC400699090E817206990902C160059A41EA6B
S3152025BC501261C1600599090A0174002001E040F2AC
S3152025BC600970FFF70ABB044602A8D6E90089CDE963
S3152025BC700089242170472DE9F0438BB000F027F861
S3152025BC800FF200760927D6E90089CDE900890297A2
S3152025BC900322A16C8DF8112002AB0022019300927C
S3152025BCA0090403912068A36A6946984758B905A8C7
S3152025BCB004F1640190E86C0081E86C002046FFF7CA
S3152025BCC099FB002001E040F20970FFF7D6BA044619
S3152025BCD002A82421F8F7AEBA10B5034603F5397321
S3152025BCE01C7F0020072C09D8DFE804F0040A0A085F
S3152025BCF00C0E10121B6851188B4200D2042010BD41
S3152025BD005B68F8E79B68F6E7DB68F4E71B69F2E7EB
S3152025BD105B69F0E72DE9F84390B000F0CEF800F006
S3152025BD205DF80FF2686000F0BFF802D5B9F5007FFF
S3152025BD3009D1D4F8E002484524BFE169494502D313
S3152025BD4019F0030F02D040F20C703CE000F03EF8CB
S3152025BD5010B14FF4E36036E0189FCDF80C90049788
S3152025BD6001230499059512258DF808300795012973
S3152025BD7004BF11220792CDF820807168C80503D407
S3152025BD80039942464A4308928DF82530DFF8C8356F
S3152025BD900E9307AA019202AB00930122694600F071
S3152025BDA01AF880B9012F0DD99DF80810002904BF4E
S3152025BDB03078002806D12046FFF766FA10B140F2E2
S3152025BDC0177000E0002011B0BDE8F0832046FFF76C
S3152025BDD029BA694600932046FFF7ECB902A8142113
S3152025BDE0F8F728BA2DE9F84390B000F066F8FFF762
S3152025BDF0F5FF0FF2A05000F057F802D5B9F5007FD0
S3152025BE0009D1D4F8E002484524BFE169494502D342
S3152025BE1019F0030F3AD040F20C7036E00122189F14
S3152025BE20CDF80C90192304978DF80820049A0695A9
S3152025BE3007AD0793DFF82035012A04BF182107917E
S3152025BE40CDF820807168C80569465CBF09FB08F0D6
S3152025BE5008900E93012202AB8DF8252001952046C8
S3152025BE600093FFF7A7F980B9012F0DD99DF8081062
S3152025BE70002904BF3078002806D12046FFF704FA8A
S3152025BE8010B140F2177000E000209CE72068406A38
S3152025BE90C101FBD5FFF79AFF0028BFD04FF4E360F9
S3152025BEA0F3E7000048122520D0E90067CDE9006791
S3152025BEB004F14C067168CA05704704460D4690461E
S3152025BEC0994607A82421F8F7B5B920680021FFF758
S3152025BED021B970B5044604F13006307CDFF87C5450
S3152025BEE010B940F22E7070BD94F82D102068FEF7FB
S3152025BEF0F1FE307A98B12068FEF73FFE717A2068E8
S3152025BF00FEF78AFE3068F5F7CEFD707A411E894107
S3152025BF102068C90FFEF780FE7068F5F7C4FDB07A54
S3152025BF2020B12068FEF78DFEFFF7E7FDFFF7CDFF51
S3152025BF3000F073F87061206842F2107102F00CFB54
S3152025BF4000F066F82046FFF716F910B140F2137077
S3152025BF5070BD00212046FFF7C1F9B8B9D4F874027F
S3152025BF6010F0C04F03D0316A41F480713162E06907
S3152025BF70B0F5007FB07A28BFDFF8E45308B145F045
S3152025BF80800529462046FFF7A9F910B140F21470FD
S3152025BF9070BD2046FFF720FE10B140F20D7070BD12
S3152025BFA02046FFF7F9F910B140F21A7070BD2046E8
S3152025BFB0FFF761FE10B140F20F7070BD2046FFF7E6
S3152025BFC0CDFA01212046FFF7D0F810B14FF4E260D3
S3152025BFD070BD00F02BF810B140F21C7070BD00F03A
S3152025BFE012F810B140F20A7070BD2046FFF789FD80
S3152025BFF040B92046FFF7D4FA10B140F21F7070BD24
S3152025C00084F8000370BD4FF400712046FFF7B7B8BA
S3152025C010206804F1140102F037BA61682068DFF838
S3152025C0202C2302F044BA0000942627200022002142
S3152025C0302046FFF7E9BB10B5044694F8401021B9F0
S3152025C04002F0D5FC08B1012010BD012084F840005E
S3152025C050002010BD006802F0E3BC10B50446FFF7AA
S3152025C060F9FF2046FFF7E7FF00B103E02046BDE8AC
S3152025C07010402EE740F22E7010BDB0F8960210F42F
S3152025C080C06018BF0120C0B27047F8B504460D46DA
S3152025C09094F8AF6203208DF80300B32300278DF88B
S3152025C0A002308DF80070694606F0F8062E438DF885
S3152025C0B001602046FFF7A2FA08B1FFF71BBD84F8D9
S3152025C0C0AF6284F80053F2BD2DE9FC4700F036F81F
S3152025C0D038B104200FE000F029F8FFF71BFE50B9F0
S3152025C0E0564444B1D8F820A0A24532BFA4EB0A0471
S3152025C0F0A2460024EFE7BDE8F6872DE9FC4700F0A8
S3152025C1001DF838B104200FE000F010F8FFF76AFE7D
S3152025C11050B9564444B1D8F820A0A24532BFA4EB45
S3152025C1200A04A2460024EFE7BDE8F68709EB462157
S3152025C13000954FF40073F2194046704789461746F5
S3152025C14080461D462A4639462C460026C4E500004B
S3152025C1502DE9F04C8BB004460E46154602A800F074
S3152025C16002F90FF2382004F53971D0E900ABCDE973
S3152025C17000AB087F07281BD8DFE800F00E0C0C1A29
S3152025C1800A080604486908E0086906E0C86804E044
S3152025C190886802E0486800E008688969B0FBF1F202
S3152025C1A001FB120000B1521CB24228BFAA4232D24C
S3152025C1B004202DE0012323210396674E8DF8113087
S3152025C1C002AB029100270996002201936946009722
S3152025C1D0204640F20977FEF7EDFFC0B9242102AAB1
S3152025C1E002910023019200220395FFF7F2FD70B9F3
S3152025C1F000220223039226208DF8113002AA0290CE
S3152025C2000023019200220996FFF7E3FD00B1384667
S3152025C2100BB0BDE8F08C2068406AC201FBD5206DA5
S3152025C2204D434E43C1055CBF76026D02C2E7000031
S3152025C230001225207CB500F013F8B22300F005F86E
S3152025C24000B113E084F8AE5276BD00268DF8023073
S3152025C25069468DF8015020468DF80060FFF7CEB946
S3152025C260044603200D468DF80300704740F21E70C4
S3152025C27076BD7CB5FFF7F4FFAD23FFF7E6FF00B1CA
S3152025C280F4E784F8AA5276BDF8B5044604F2AA2521
S3152025C290287B0E46032800DC53E06F79307807F09B
S3152025C2A0870700B101207178B3238DF80230C900A4
S3152025C2B041EA801103208DF8030000208DF8000027
S3152025C2C020460F4369468DF80170FFF797F908B187
S3152025C2D0FFF710BC6F71EF78307907F0E00700B1D2
S3152025C2E00120F2780323694642EA8002B0788DF848
S3152025C2F0033002431743B1228DF801708DF80220B1
S3152025C3002046FFF77BF9B8B9EF707079B8B1B179C6
S3152025C310F0792B7941EA0011CAB29A4204D0C9B2E2
S3152025C3202046FFF787FF38B9317A2878884206D004
S3152025C3302046FFF79EFF10B140F21D70F2BD00206A
S3152025C340F2BD4FF4E160F2BD00751903801A06008F
S3152025C35080BA8C0100EA32060800F9FF0080FF002A
S3152025C3600080FF4007A82421F7F764BF1421D0E9D0
S3152025C37000ABCDE900AB02A8704700000000000005
S3152025C3800000000000000000000000000000000062
S3152025C3900000000000000000000000000000000052
S3152025C3A000000000826A490001F0060122F00602FB
S3152025C3B01143816270470B46426D816A006801F000
S3152025C3C06BBC0A46816A006801F094BC816A0068C4
S3152025C3D001F0C4BC0A46816A006801F0DFBCE0B5DD
S3152025C3E0016C40230191C26B0092816A0068132259
S3152025C3F001F03AFD0EBD816A006801F0F3BC2DE9F6
S3152025C400F84306460F46154640F2297841F66A191D
S3152025C4103068B26A39469047044641F669118C42FE
S3152025C42018BF4C4505D07868DFF82819C2680A4216
S3152025C43014D096F8D000032818BF02280ED14C45D3
S3152025C44006D1306842F210724FF0B05102F009F849
S3152025C4503046FFF7C4FF30B1444602E00CB140F226
S3152025C460097425B16D1E002C18BF4445D0D1204610
S3152025C470BDE8F2832DE9F04314A58BB0044602A826
S3152025C480D5E90089CDE9008924210D27F7F7D2FEA4
S3152025C4900297666D0121DFF8BC288DF81110360428
S3152025C4A00992039602A900230191022200F08EFB10
S3152025C4B040B90598C105F5D5C0F343200728F1D005
S3152025C4C00020DEE240F20970FBE7000000000000B4
S3152025C4D000000000F0B5044611A58BB02421D5E92E
S3152025C4E00060CDE9006002A80C27F7F7A3FE029786
S3152025C4F00026039603210222DFF8583802AD8DF84F
S3152025C50010108DF8112001220993694601952046A0
S3152025C5100096FFF774FF08B140F209700BB0F0BD05
S3152025C52000000000000000002DE9D84309A68BB0A5
S3152025C53000F0AAFA0327F7F77DFE0026082200F049
S3152025C540E9FA20B90598000C6065002001E040F243
S3152025C5500970AAE100000000000000002DE9FC4D2D
S3152025C560074600BF1CA090B00D461A9E9046D0E9DE
S3152025C57000AB1C4607A8CDE900AB2421ED07F7F72C
S3152025C58059FE00F033FB06200F2107904FEA88003D
S3152025C59065F07F4581408D438440254301220895BA
S3152025C5A040238DF825206946039307AB049202AADA
S3152025C5B00596019300923868BB6A9847002802BFE2
S3152025C5C00A98DFF89017084212B014BF40F2097076
S3152025C5D00020BDE8F08D00000000000000000000CE
S3152025C5E030B50B6800F1BC021B0F13700C68240EA6
S3152025C5F004F00F0454700B681C0203D5558845F0AA
S3152025C600010555801B0D03F0070313710B681B0CC1
S3152025C61003F00F0353710B681C0403D5558845F089
S3152025C620020555809B0A03F01E0393710B7803F0B0
S3152025C6300303D3714968537891602BB1022B06D019
S3152025C6403CBF0221816509E00124846506E0042397
S3152025C650836591788C0744BF0823836551794B07D9
S3152025C66003D5C46D44F00404C465D179CA0703D51E
S3152025C670C36D43F08003C365890703D5C26D42F098
S3152025C6804002C26530BD00002DE970432AA690B030
S3152025C690044607A8D6E90089CDE900892421DFF8B3
S3152025C6A0B457F7F7C7FD00F0A1FA00F0C4F800F05B
S3152025C6B047F810B140F2157032E0012200238DF89B
S3152025C6C025203321089302AB049207AA0791082136
S3152025C6D005950093019203912068A26A69469047A1
S3152025C6E0002803BF0A98DFF86C16084240F2097025
S3152025C6F016D1217B286841B1022901D013D317E011
S3152025C70000BA2860686800BA686004F18001D5E916
S3152025C7100002C1E9000229462046FFF761FF0020D5
S3152025C72010B0BDE8708340BA2860686840BAEBE748
S3152025C7304FF4E160F4E7000000000000000000004F
S3152025C740616D20463DE62DE9FC4104460F46DFF87E
S3152025C7500457904600F06FF8A26D012A98BF40F243
S3152025C7600C7066D9009543463A4600212046FFF7A8
S3152025C770F5FE002837D1217B2868F9B1022901D079
S3152025C7800ED354E000BAA9682860686800BA6860A4
S3152025C79008BAA860E868296900BAE86008BA0CE0F2
S3152025C7A040BAA9682860686840BA686048BAA8600F
S3152025C7B0E868296940BAE86048BA2861E86829699D
S3152025C7C0BE00000200F47F4040EA1160F04000F0F0
S3152025C7D00F0040452BD1009543463A460121204658
S3152025C7E0FFF7BCFE10B140F2097022E0217BE868F4
S3152025C7F041B1022901D015D319E000BAE86028698C
S3152025C80000BA2861E9682869090201F47F4141EACD
S3152025C8101061F14001F00F01414514BF40F2167019
S3152025C820002006E040BAE860286940BAE9E74FF4D7
S3152025C830E160BDE8F6814FF480712846F7F7FABC0A
S3152025C8402DE9D8431AA78BB004460E46D7E9008989
S3152025C850CDE9008902A800F0C6F9FFF771FF10B1CE
S3152025C86040F2157021E00621012202918DF8112032
S3152025C87016B1012E15D017E00021039102AA002119
S3152025C880019200912068A26A69469047002802BF36
S3152025C8900598DFF8C014084214BF40F2097000201D
S3152025C8A003E002200390E9E704200CB0BDE8D083FD
S3152025C8B0000000000000000070B5CB6800F1A00242
S3152025C8C09B0F1370CC68240C5470CB681B0A93706D
S3152025C8D0CC68D4708B681D0D1B0C03F00F03958037
S3152025C8E093718B681C0400F09DF85C0400F09AF87F
S3152025C8F09C0403D5158945F004051581DC0403D54B
S3152025C900158945F00805158116784FF4007416B15A
S3152025C910012E35D049E040F6FC70012500EA83003A
S3152025C920D0604B6840EA9370D0604868C00E00F00E
S3152025C930070010744B681B0E03F0070353744868D1
S3152025C940000D00F00E0090744B689B0C03F0070336
S3152025C950D3744868D368C00B00F007001075801C77
S3152025C9605B1C03FA00F09379906205FA03F3B3F57D
S3152025C970007FD36219D05843D462400A906214E0CE
S3152025C980D4628B684FF6FF751B0403F47C13D360A2
S3152025C9904C6843EA1443D360AB4203D3C46D44F0B9
S3152025C9A01004C4655B1C9B0293624868430403D527
S3152025C9B0148944F010041481C00900F07F005075B5
S3152025C9C0087900F07F0090750B689B0E03F007030E
S3152025C9D0D3750868800D00F00F001076086881024F
S3152025C9E003D5138943F040031381010403D5138905
S3152025C9F043F080031381410403D5138943F48073BF
S3152025CA001381810403D5138943F400731381C1044B
S3152025CA1003D5138943F480631381800A00F003002C
S3152025CA20507670BD03D5158945F0010515817047CA
S3152025CA302DE9F0430FF2B8768BB000F025F80927BB
S3152025CA40F7F7F8FB0297656D032202AB8DF81120C7
S3152025CA5000222D0401930395694600922068A36A36
S3152025CA60984760B905A804F1700190E86C0081E823
S3152025CA706C0005A92046FFF71FFF002001E040F2A4
S3152025CA8009700BB0BDE8F083044602A8D6E90089D3
S3152025CA90CDE90089242170472DE9F0430FF25876F8
S3152025CAA08BB0FFF7F1FF0227F7F7C4FB00260322F9
S3152025CAB000F030F858BB05A804F1600190E86C0019
S3152025CAC081E86C00089A04F18C00120E02700899F0
S3152025CAD0090A4180089A02710799090E4171079A18
S3152025CAE0120C82710799090AC171079A0272069951
S3152025CAF0090E417206990902C160059A41EA126119
S3152025CB00C16005990903090D0182002001E040F243
S3152025CB100970B6E702AB0297039669468DF8112070
S3152025CB20019300962068A36A184700002DE9FC4D3D
S3152025CB3004460FF2DC6090B000F04DF800F056F870
S3152025CB4094F85C70B80702D5B8F5007F09D1D4F8DA
S3152025CB50CC10414524BFE069404502D318F0030F88
S3152025CB6002D040F20C702EE02046FFF783FC10B150
S3152025CB704FF4E36027E01A9ACDF80C80049212220E
S3152025CB80049B05950792012B04BF1121079100F0DF
S3152025CB9087F801226F4B8DF8252007AA0E9302AB25
S3152025CBA00192012200F012F868B90499022909D3C5
S3152025CBB09DF8080030B92046FFF78CFC10B140F2CD
S3152025CBC0177000E0002012B0BDE8F08D009369466D
S3152025CBD02046FFF714BC0D46D0E900AB16469846ED
S3152025CBE0CDE900AB07A82421F7F724BB02A81421F9
S3152025CBF0F7F720BB2DE9FC4D04460FF21C6090B0BB
S3152025CC00FFF7E9FFFFF7F2FF94F85C70B80702D526
S3152025CC10B8F5007F09D1D4F8CC10414524BFE06969
S3152025CC20404502D318F0030F2ED040F20C702AE08F
S3152025CC301A9ACDF80C8004921922049B0695079200
S3152025CC40012B04BF1821079100F02AF8DFF820359B
S3152025CC5001220E9307AD02AB8DF825200195694655
S3152025CC6000932046FFF7CBFB68B90499022909D3FF
S3152025CC709DF8080030B92046FFF72CFC10B140F26C
S3152025CC80177000E000209EE72068406AC101FBD589
S3152025CC902046FFF7EFFB0028CAD04FF4E360F2E7E2
S3152025CCA0089694F85C10880703D4039932464A439C
S3152025CCB0089270472DE9F84D0FF264540E468BB035
S3152025CCC08046D4E900AB174602A8CDE900ABFFF78D
S3152025CCD08AFFD8F80040606AC001FAD54046FFF79A
S3152025CCE0C9FB10B14FF4E36030E098F85C00BF191A
S3152025CCF07F1EDFF87C5409958107694640465CBF2F
S3152025CD0076027F0220220123029202AA8DF8113073
S3152025CD10002301920122039640F209760093FFF71C
S3152025CD206EFB90B9212000F017F8039700F01AF82A
S3152025CD3058B900220223039226208DF8113000F0BF
S3152025CD400BF8099500F00EF800B130460CB0BDE879
S3152025CD50F08D00000800F9FF02AA02900023019217
S3152025CD6000227047694600934046FFF748BBB0F836
S3152025CD70A80010F4C06018BF0120C0B270472DE965
S3152025CD80F84300F035F83919884238BF042011D3E5
S3152025CD90002500E0751964B100F031F832BFA41BD7
S3152025CDA0264600240096EA19FFF7C0FE0028F1D072
S3152025CDB000E00020BDE8F2832DE9F84300F018F8BD
S3152025CDC000253919884202D204200FE0751964B14D
S3152025CDD000F015F832BFA41B264600240096EA1932
S3152025CDE0FFF708FF0028F1D000E00020BDE8F283F8
S3152025CDF080468946D8F8C80017461C467047D8F875
S3152025CE00206009EB45214FF400734046A642704722
S3152025CE102DE9F04180460E46D8F8C800144600274D
S3152025CE203119884202D2042012E0EF197CB198F8F4
S3152025CE30B55040466D1CA54232BF641B25460024AD
S3152025CE402A46B919FFF736FF0028EED000E0002044
S3152025CE50BDE8F081942627202DE9F84F06468CB08B
S3152025CE6006F14C07387810B940F22E703CE106F1D0
S3152025CE702C0230685178FDF7D5FF96F82C0002282C
S3152025CE801CBF0328042801D1012500E0002506F131
S3152025CE902C01087B28431BD03068FDF76EFE06F152
S3152025CEA02C00417B3068FDF7B7FE06F12C00406843
S3152025CEB0F4F7F9FD06F12C01487B411E894130689E
S3152025CEC0C90FFDF7A9FE06F12C008068F4F7EBFDC6
S3152025CED035B1012006F12C0148703068FDF7B1FEE9
S3152025CEE00020002138613068FFF75CFA71683068C8
S3152025CEF0A04A01F0DCFA7860306842F2107101F020
S3152025CF002BFB306806F1140101F0BEFA3046FFF7F7
S3152025CF105DFA002840F0F880012006F1D001DFF8DF
S3152025CF205C82C8700DB1DFF858820FF2DC22DFF85B
S3152025CF305492D2E90001CDE9000102A809F1240184
S3152025CF4024220A24F9F7C2FF00F026F9029101923C
S3152025CF5040F20C7A00933068B26A6946904710B140
S3152025CF6040F2097007E00598C0F30800B0F5D57F93
S3152025CF7000F0CD805046641E00F0BE805045EAD193
S3152025CF8044E0F4F781FD594511D828BFB04280F0F9
S3152025CF90E6800021FFF7D5FB002808D1002203A92A
S3152025CFA0009201912068A36A69469847002840F097
S3152025CFB0D6800698002840F1CC80400003D53969D3
S3152025CFC041F0020139610698C1010AD4F863387CFB
S3152025CFD0810618D52046FFF70EFA48B140F225706E
S3152025CFE082E0386940F0200038610699F963EEE73A
S3152025CFF0032004F1D002D0702046FFF74DFD38B12D
S3152025D00040F20D7070E05FEAC810F5D550466BE00A
S3152025D0102046FFF789FA10B140F20E7064E02046CB
S3152025D020FFF706FD10B140F20F705DE00121204685
S3152025D030FFF7C1F910B14FF4E26055E06168206829
S3152025D0404D4A04F12C0601F032FA786070780128D1
S3152025D05000D05DB101212046FFF7F2FB10B140F249
S3152025D060127041E020680121FFF79CF92046FFF741
S3152025D0700BFB10B140F2117036E04FF400712046BB
S3152025D080FFF7A8F910B140F20A702DE03078364D19
S3152025D090401E03282ED8DFE800F00205070A0122C4
S3152025D0A0304D05E0022203E00322304D00E0042224
S3152025D0B000212046FFF747FBC8B9307804F1D00870
S3152025D0C02A4688F800006168206801F0F0F9786022
S3152025D0D098F80000022818BF03280BD12046FFF711
S3152025D0E07EF938B140F229700DB0BDE8F08F40F2B7
S3152025D0F01B70F9E70020F7E7504502963FF486AFE7
S3152025D1003046FFF763F948B140F21370ECE70296F3
S3152025D1103A6948F0804842F008023A6138A300F07F
S3152025D12035F803A84946F9F7D1FE29240421039485
S3152025D13040F6B839CDF810808DF81510F4F7A4FCF3
S3152025D14006468B461048F4F7A9FC36184BEB010BFF
S3152025D150029C5FEA0900A9F101097FF412AF40F28A
S3152025D1601470C1E780F0FA0200E1F50500D4650CBC
S3152025D1700800F9FF801A060040787D010080FF000F
S3152025D1800080FF010012252040420F002422D3E9EA
S3152025D1900001CDE9000170474FF4D572092303928A
S3152025D1A008218DF8113002AA0023704710B500F109
S3152025D1B04404217A29B9216801F019FC08B10120F6
S3152025D1C010BD01202072002010BD006801F028BC6A
S3152025D1D010B50446FFF7F9FF2046FFF7E7FF00B114
S3152025D1E003E02046BDE8104036E640F22E7010BDFD
S3152025D1F000000000000000000000000000000000E4
S3152025D20000000000000000000000000000000000D3
S3152025D21000000000000000000000000000000000C3
S3152025D2200000000000000000F8B504460D4616460D
S3152025D2300BB90020F2BD042B02D1A80A800201D009
S3152025D2400420F2BD00F02FF8204600F03BF848BB1D
S3152025D2504FF400676FF47C41A760C5F3090517488D
S3152025D260A16005436421656032682262204600F06C
S3152025D27029F8B8B92068010502D544F6E960F2BD3A
S3152025D2806421204644F6EA6500F01CF848B9A760D3
S3152025D2904FF4805060606421204600F013F800B9D1
S3152025D2A000252846F2BD0649087818B90122024BE1
S3152025D2B01A600A7064217047A064CC400000773E2E
S3152025D2C0DAC327202DE9F04782460F464FF47A7098
S3152025D2D00026F4F7E3FBA0FB078901FB0799F4F762
S3152025D2E0D3FB04460D46DAF8001048050CD5002F49
S3152025D2F0F9D0F4F7C9FB001BA9414945F3D301D839
S3152025D3004045F0D344F6EB663046BDE8F08700006D
S3152025D3104FF47A707CB5314D0024E9680A6902F10B
S3152025D3208C06F4F7BBFB01A96846F9F7DBFDF5F773
S3152025D330A3FD88B90098F9F731FE68B1F9F7D6FD2E
S3152025D34018B101990098F9F7DBFD748A4FF6FF701D
S3152025D350844208BF41F28834204601F071FBE861FA
S3152025D36018B901990098F9F7CBFD73BD38B51B4C33
S3152025D370E069016900291EBF096800298847E269F5
S3152025D380506900281FBF0168002910468847206953
S3152025D39001688847E569206941688847EA68D16830
S3152025D3A00029F8D028468847F5E710B5F9F721FE54
S3152025D3B0F5F79AFD094CE06801688847F4F730FBB4
S3152025D3C0226810688047E1684A689047FFF7A0FFE2
S3152025D3D0FFF7CCFF00F005F8002010BD1000272010
S3152025D3E0FEE7012080F3138830BFFBE710B5DFF871
S3152025D3F0A405DFF8A4150A68D30709D404686107AC
S3152025D400F7D5026842F00402026045F20A2010BDD3
S3152025D410002010BD0146042901DC020002D145F277
S3152025D4200C207047DFF8742500F00700106050683F
S3152025D430032920F00E00506003DC506840F00800D8
S3152025D4405060022908DC506840F00400506003DA59
S3152025D450506840F00200506000207047DFF83C05F8
S3152025D460006810F0070001D0052800DB042070474E
S3152025D470082808BF012002D0102801D10220C9E79B
S3152025D48045F20E207047DFF80C050168CA07FCD542
S3152025D490036843F00103036001688A0706D50368FC
S3152025D4A043F00203036045F20920704700207047A8
S3152025D4B0F8B505460C4616461F46FFF7CFFFB84258
S3152025D4C003D03846FFF7A6FF70B9DFF8C814DFF872
S3152025D4D0D0040A68041942F001020A604E664D6599
S3152025D4E00C66BDE8F140CEE7F2BD2DE9F0410746B1
S3152025D4F00E4614469846FFF7B1FF404503D04046D1
S3152025D500FFF788FFB8B9DFF88C54DFF8940429682B
S3152025D510861941F0010129606F652E66FFF7B3FF55
S3152025D52048B9686F002103E004F8010B000A491C5D
S3152025D5304145F9D30020BDE8F0812DE9F04100F0E1
S3152025D54059F81ED10A220021002000F06FF88046C6
S3152025D55009E0B06904233A464146FFF7C6FF040091
S3152025D5600BD12D1F3F1D042DF3D235B1B069EBB25A
S3152025D5703A464146FFF7B9FF044696F82100FFF7BC
S3152025D58077FF2EE02DE9F04100F034F829D10B2242
S3152025D5900021002000F04AF880460EE000220020D7
S3152025D5A000F022F80428FBD3B06904234146FFF76F
S3152025D5B07FFF040011D12D1F3F1D042DEED265B10D
S3152025D5C00022002001E000F00FF8A842FBD3B06925
S3152025D5D0EBB24146FFF76CFF044696F82100FFF78C
S3152025D5E047FF2046BDE8F081395CC300401C9940A1
S3152025D5F00A43704706460024337A0F461546012BE3
S3152025D60070470B46014680B51846F9F75FFC002082
S3152025D61002BD80B5F9F75AFCBDE80140E6E6DFF8FC
S3152025D62078030068400800F0010070470907090EB5
S3152025D63041EA002102F00F0242EA0100704710B5A7
S3152025D64000F118021068537B4118012B0AD1D27A92
S3152025D6504FF0FF3321FA02F4501C03FA02F28440DC
S3152025D66091432143084610BDF8B50C46C94E31686D
S3152025D6701D4641F00101316004F00F0106290BD129
S3152025D68001270021706501B17266C54804193466E3
S3152025D690FFF7F9FE88B1F2BD0A29F1D0002914BF7A
S3152025D6A00129012707D00829EAD0002707291CBFE9
S3152025D6B00B290929E5D10121E4E70FB1706F2860EF
S3152025D6C00020F2BDB74A904208D20022400B01E045
S3152025D6D04008521C0028FBD10A70704745F20B20C2
S3152025D6E0704700007CB50546AF4C206A694600F494
S3152025D6F07C602062226A2B691B0B42EA0332226256
S3152025D7006869FFF7DFFF002869D1206A00F0E6F86F
S3152025D7102062206A40F001002062216B01F47C61A1
S3152025D7202163206BA969090B40EA013069462063EC
S3152025D730E869FFF7C7FF002851D1206B00F0CEF806
S3152025D7402063206B40F0010020636168890C8904E1
S3152025D750616005F12101C87B04283ED8DFE800F069
S3152025D7602C3135390300626842F001026260606817
S3152025D770606022688D4822F08002226023680E7C14
S3152025D780F60106F0800633432360226D024022658A
S3152025D790236D95F82020D20102F0800213432365BC
S3152025D7A0C878E8B141281BD20022400800281CBF92
S3152025D7B04008521CFAD17EE0606840F02000606067
S3152025D7C0D5E7626842F48072D0E7606840F400604D
S3152025D7D0F5E7626842F48042C8E745F20F2076BD18
S3152025D7E045F2102076BD102803D1206D40F001008A
S3152025D7F06CE045F20E2076BDA0F10902082A57D203
S3152025D800C0F11000236D0006000C00F4E0601843DB
S3152025D810206505F14100C37A427805791B0603F078
S3152025D820706343EA02734279120502F470022D04CD
S3152025D8301343C27805F470252B438578120302F409
S3152025D8407042134302782D0205F470652B43CD7F54
S3152025D850120102F0F002134305F00F052B436365F1
S3152025D860827A437A057A120602F07C529B0403F4C7
S3152025D8707C031A43C37980792D0305F47C352A4305
S3152025D8809B0103F47C631A4300F03F000243A26503
S3152025D89048788108890001F004014208520002F0E7
S3152025D8A00202114300F001000843E065002076BD01
S3152025D8B045F2112076BD206D1206120D02F070025A
S3152025D8C002432265087808288DD1206D20650A799E
S3152025D8D08878012A90D1401CC0B28DE79DF800108A
S3152025D8E0490001F03E010843704770B5044630498A
S3152025D8F02068884201D0042070BDF4F779FE2046A1
S3152025D900F5F75BFA207B082827DAF4F749FEF4F7A2
S3152025D9106DFE254D286820F002002860296841F0F3
S3152025D920010129602A68D007FCD4BFF34F8FBFF3A6
S3152025D9306F8F296841F002012960227A012A0FD1A9
S3152025D94094F821602046FFF7CDFE10BB1948A86024
S3152025D9503046FFF78DFD30B170BD45F2122070BDE2
S3152025D96045F2082070BD2968637B1348A27B0140B8
S3152025D970E07B41EA02411B0603F0F853800000F0C4
S3152025D98004001943014329602968002021F002015A
S3152025D990296070BD3C400D40C0400D4094400D404F
S3152025D9A000005AA50100008000400D400EF8FFFF1B
S3152025D9B053454D4385404000FBFF00E00021018073
S3152025D9C0704770B5048800250EE04B5D84EA032454
S3152025D9D008236600240444BF86F4805686F0210653
S3152025D9E05B1E3446F5D16D1C9542EED3048070BD61
S3152025D9F000880880704744F64E710180704770B5BF
S3152025DA00048800250EE04B5D84EA0324082366005E
S3152025DA10240444BF86F4004686F005065B1E34465C
S3152025DA20F5D16D1C9542EED3048070BDF8B504461C
S3152025DA300E461546032168460027F6F7FBFBDFF839
S3152025DA4034E12346324600212AE012F8010B1EF83E
S3152025DA50000000F03F067140400620D57C40FE435D
S3152025DA608DF801409DF800407440B3F5007F8DF870
S3152025DA70004014D19DF802403E0A04F0FD0084EAB8
S3152025DA804604F64304F0020404438DF8024004F0CC
S3152025DA90FE00744004F0010404438DF802407F1CE7
S3152025DAA09F429DF80140D0D3B3F5807F05D19DF8BF
S3152025DAB0020040F003008DF802009DF8002063083F
S3152025DAC09DF80200520840EA81009DF800108DF845
S3152025DAD0020001F0FD0141EA440101F0FB0141EA82
S3152025DAE082019DF8002001F0F70141EAC301A30830
S3152025DAF001F0EF01920841EA02119DF8002001F07C
S3152025DB00DF0141EA4311E30801F0BF01D20841EACA
S3152025DB108211220901F07F0141EAC31129709DF85E
S3152025DB2000109DF80030C1F3001141EA4201620937
S3152025DB3001F0FB015B0941EA83019DF8003001F0E4
S3152025DB40F70141EAC201A20901F0EF0104F08004A0
S3152025DB509B0941EA03119DF80030A87001F0DF01E9
S3152025DB6041EA4211DB0901F0BF0141EA83110C4349
S3152025DB706C70F1BD941425200346002010B50A4665
S3152025DB80511E4AB113F8012B14001EBF02F00104C1
S3152025DB9020185208F8D1F2E710BD2DE9FC41174689
S3152025DBA001AB002680460D461E6001AAFFF73EFFE3
S3152025DBB0002001A90A5C3B5C5A400DF80020401C38
S3152025DBC00328F7D303216846FFF7D6FFB8F5807FCC
S3152025DBD008BF0B2403D0B8F5007F08BF0C2410B945
S3152025DBE045F2343045E0A0423DD19DF802109DF8FE
S3152025DBF0006008460209C1F3C00102F0020243096A
S3152025DC00114303F004031943B708F4089DF801309E
S3152025DC10C6F3400207F002073A4304F00404360906
S3152025DC20224306F008063243DE0006F010069F0042
S3152025DC30324307F020075C003A4304F04004224390
S3152025DC4003F080031A43B8F5007F03D1C00100F401
S3152025DC5080700243A85C012303FA01F1414045F275
S3152025DC603530A95405E001280CBF45F2373045F259
S3152025DC703630BDE8F681000031B1D0F8C01041F428
S3152025DC808071C0F8C0107047D0F8C02022F4807269
S3152025DC90C0F8C020704700002DE9F84EA6A6894673
S3152025DCA08BB00746D6E900AB14461D46CDE900AB19
S3152025DCB000F066F8072002902DB124040120039454
S3152025DCC08DF8110003E0002203928DF8112002A978
S3152025DCD000220191694600923846C847002802BF8E
S3152025DCE00598934908420CB014BF40F209700020CC
S3152025DCF0BDE8F08E2DE9F84D91A588468BB00646D0
S3152025DD00D5E900AB00F023F83727F6F793FA012259
S3152025DD1002978DF81120240402AB0022039469462C
S3152025DD20019330460092C047002803BF05988049B5
S3152025DD30084240F2097004D1800654BF40F20C7087
S3152025DD4000200CB0BDE8F08D0546D6E900AB14467B
S3152025DD5002A8CDE900AB2421704700002DE9F04328
S3152025DD6079A60D468BB000F006F8002702AE02975D
S3152025DD706946019608E00446D6E90089CDE9008959
S3152025DD8002A82421F6F756BA20460097A84708B1B7
S3152025DD9040F209700BB0BDE8F08300002DE9F84D5F
S3152025DDA06BA688468BB0FFF7CFFF1027F6F742FAEA
S3152025DDB000F00CF8002802BF05985D4908420CB0F2
S3152025DDC014BF40F209700020BDE8F08D029702AA03
S3152025DDD00394012400238DF811400192694600936E
S3152025DDE0284640472DE9F8475BA78A468BB0044647
S3152025DDF0D7E90089FFF7C2FF0B26002702960122C5
S3152025DE0002AB03978DF8112069460193204600978A
S3152025DE10D04710B140F2097022E0606A40F22A7597
S3152025DE2010F0706F19D1D4F8C01041F2883041F026
S3152025DE300201C4F8C010F3F736FE01212046FFF76C
S3152025DE401BFF4FF47A70F3F72EFE00212046FFF7AD
S3152025DE5013FF606A10F0706F01D1284600E000207C
S3152025DE600CB0BDE8F08700002DE9F24F0446314F6E
S3152025DE703BA0B0B016469946D0E900AB3A9DDDF8D1
S3152025DE80EC80CDE900AB07A839462422F9F71EF800
S3152025DE9002A81421F6F7CEF910A807F1240180222D
S3152025DEA00127F9F713F80796002007AB02AA089051
S3152025DEB010A80590294601930123009242468DF804
S3152025DEC025702046CDF80C9004978DF80B7000F020
S3152025DED00FFD309E0AE0012342462946204600F0C2
S3152025DEE007FD0A212046002700F0F8FC6946204632
S3152025DEF0B04700280ED1E06B4102F7D4A26E12F06E
S3152025DF00802F18BF002FE6D1E06B010205D440F201
S3152025DF10297009E040F2097006E0206C20F4706033
S3152025DF202064216C2164002031B0BDE8F08F0000EB
S3152025DF300800F9FF881225200000000000000000B7
S3152025DF400000000000000000000000000000000086
S3152025DF500000000000000000000000000000000076
S3152025DF60000000000000000040010329DFF8C82931
S3152025DF7002D101211150704700231350704721B13A
S3152025DF80816C41F0010181647047826C52085200F0
S3152025DF908264816A21F4407181627047014600209E
S3152025DFA02DE9104005A2C3B252F823308B4203D067
S3152025DFB0401CC4B2032CF6D3C0B210BD000000000D
S3152025DFC00080414000C0414070B50D460446616B36
S3152025DFD0DFF8680901406163A26B1040A0632046E3
S3152025DFE0FFF7DCFF0FF65C116FF07F0331F9100088
S3152025DFF098420FD001000DD4012600F01F0006FA05
S3152025E00000F0DFF83C29490942F82100BFF34F8F5C
S3152025E010BFF36F8F616BDFF834090143616315B157
S3152025E020A26B1043A06370BD70B5034600299D6C75
S3152025E03025F0360556D0C878032808D1996A21F4C3
S3152025E04080319962986A40F4003098624BE0586A8C
S3152025E050840702D541F6641070BD8E68B6F5803FDB
S3152025E06005D20C69C868002C08BF002801D10420D8
S3152025E07070BD08B145F01005022E05D3087845F068
S3152025E080220508B145F00405487850B1D3F8C84093
S3152025E09045F0800544F48054C3F8C8408868186044
S3152025E0A007E0D3F8C84025F0800524F48054C3F82A
S3152025E0B0C840C87802280BD05C68486804F46044B8
S3152025E0C08968C0F30C00044344EA01445C6005E0FA
S3152025E0D0986A45F0220540F480109862116841F42B
S3152025E0E0001111609D64002070BD10B54A7AD2B109
S3152025E0F003694A7ACB60032A15D143690B61826964
S3152025E1004A61C0698861042201EB820083681B026B
S3152025E110022A836003D3446843EA14638360104646
S3152025E120421E0028F0D1C86970B14A7A012A18BF43
S3152025E130022A03D0082A18BF062A05D1C96808420B
S3152025E14002D041F6661010BD002010BD03461046AC
S3152025E15070B55C6C9A6CD50704F0FF040AD400F0E0
S3152025E16063F805E01D6ACE68521C46F82050401CEF
S3152025E170A242F7D370BD2DE9F04104460D466B68C2
S3152025E18000220021884613F0030002D01B1D1B1AEE
S3152025E1906B60AF6868684FF0B876474321E0216BFE
S3152025E1A00142FCD0EB78012B0BD1880609D544F208
S3152025E1B02001216320E04FF0806041F66A18206314
S3152025E1C018E04B01F7D411F0B87F02D0A87870B1AA
S3152025E1D0266329462046FFF7B9FF024620202063DD
S3152025E1E00021B2EB970F05D2DFF86407D8E74FF069
S3152025E1F001082663022020634046BDE8F0810346B8
S3152025E200104670B55A6C9D6CEE07C2F307440AD4A6
S3152025E21000F00AF805E00D69521C55F82050401CDF
S3152025E2201D62A242F7D370BD4A6812F0030F04D0AF
S3152025E230151D02F00302AA1A4A608D684A685543BD
S3152025E240AD08AC4202D22D1AAC4200D92C4600226A
S3152025E25070472DE9F04104460E46706800220021BC
S3152025E260002510F0030F04D0031D00F00300181A13
S3152025E2707060B76870684FF0B878474319E0216B0E
S3152025E2800142FCD04B0105D54FF08060206341F635
S3152025E2906A1025E011F0B87F03D0B07878B1C4F89C
S3152025E2A0308031462046FFF7AAFF024610202063FC
S3152025E2B00021B2EB970F07D2DFF89806E0E7012574
S3152025E2C0C4F8308000E0216BDFF88C261142FAD085
S3152025E2D011F0B87F02D0B07800B9012522632846EF
S3152025E2E0BDE8F08130B5C3680C6A426AD5072AD4C1
S3152025E2F00A7A042A2AD04D7A6D1E082D11D8DFE8F0
S3152025E30005F005080B0E0E050805050044F4D01466
S3152025E31007E044F4D81404E044F4102401E044F43E
S3152025E3200034032A0D68DFF8342608BF44F4400458
S3152025E3302D06134005F07C552B4304F47B044A68AF
S3152025E34023438260C360097A042903D1826B52084C
S3152025E3505200826330BD10B50446002000230AB939
S3152025E36010BD236BDFF8F8050342FAD05A0148BFC2
S3152025E37041F66A1006D413F4702F12BF01202046C9
S3152025E380FFF7B3FEDFF8DC15216310BD70B5134604
S3152025E390002200242BB9CA6812B3FFF7ECFE21E030
S3152025E3A0046BDFF8C4351C42FAD0650148BF41F617
S3152025E3B06A1211D4DFF8B465344205D08B780BB1B7
S3152025E3C0E40201D5012207E0CB78032B04D1C968C5
S3152025E3D0DFF89C4525680D60DFF89835036302E054
S3152025E3E0FFF737FF0246104670BDF8B504460D46A1
S3152025E3F0FFF7D4FD0FF2905203211056FFF7B4FDF7
S3152025E40042F210724FF08071204600F02AF8A16A58
S3152025E410626CE36A2E796879EF7921F44C7102F0E2
S3152025E420E022360106F030063143AE790243287ABA
S3152025E43042EA06423F022D6807F4F857000600F007
S3152025E440F8503A43024365F31343E3626264A162BB
S3152025E450A06C002120F00900A0642046BDE8F440E8
S3152025E460B2E510B5C46A01F0E0631C43C46201E03D
S3152025E4703AB1521EC36A0B42FAD1100002D00120AE
S3152025E48000E00020C0B210BD10B5026C4FF400701C
S3152025E4904FF6FF74CC60130C03F007039840886071
S3152025E4A0DFF8D404024042F030020A6110BD03464B
S3152025E4B01046F0B59D6C0026002200244FF4807767
S3152025E4C02D07B1FBF0F544BF01244FF4007795B312
S3152025E4D0B1FBF5FC604538BF6D1C102D17D92A09CF
S3152025E4E000E0521CB7FBF2F002FB10700028F8D191
S3152025E4F0012AF6D0B5FBF2F600E0761C02FB06F0E3
S3152025E500A842FAD3B1FBF6F0B0FBF2F10BE01020CE
S3152025E510B0FBF5F06843B1FBF5F1D0F1100008BF4B
S3152025E5202A4602D02E4606B1761E22B1002C14BFCD
S3152025E53002200120C240D86A360106F0F0061202D2
S3152025E54002F47F426FF30F1006431643DE62586AA4
S3152025E5500207FCD50846F0BDC26A42F00062C262B7
S3152025E56001E039B1491EC26A1301FAD4080002D046
S3152025E570012000E00020C0B270472DE9F043002796
S3152025E58021F040481446210518BF41F668105DD173
S3152025E5901A4612F003011CBF131D5A1A4FF6FC7199
S3152025E5A08C46B2FBF1F60CFB162101B1761CDDF863
S3152025E5B01CE0BEF1010F09D1002100E0491C41458F
S3152025E5C004D210F82130DB07F8D40F4607EB46098D
S3152025E5D0C84538BF032039D303461046224613E0C3
S3152025E5E03403002843F8274044F0110443F82740F4
S3152025E5F06A6014BF2124002414436C60B40802EBFE
S3152025E600840200B1801BBF1CBEF1000F03EB8705DA
S3152025E6100CBF4C464446A74208D2604588BF66466D
S3152025E620DED800280CBF04260646D9E755F8040C63
S3152025E630BEF1010F40F0020045F8040C05D153F830
S3152025E640290040F0210043F829000020BDE8F08369
S3152025E6502DE9F84F0A9D0C46A4000021E408022D39
S3152025E66006BF02F1040B1B1F93461BF0030218BF9E
S3152025E67041F668106FD113F003024FF6FC771CBFC5
S3152025E6801E1DB31AB3FBF7F74FF6FC7202FB1732A2
S3152025E69002B17F1C022D0AD1002200E0521CA24283
S3152025E6A008D210F83260F607F8D4114602E0BC42AB
S3152025E6B000D235B101EB070A0AF10102944202D2B2
S3152025E6C00DB1032047E04FF0704980461C460E4683
S3152025E6D01CE0CDF800903A4659466846FCF786FC5C
S3152025E6E040BB009808F1040141F836003904002C76
S3152025E6F048F8361014BF21200020084348F8360054
S3152025E700B8080BEB800B04B1E41B761C564524D2A6
S3152025E7104FF6FC77BC42DCD8002C0CBF04272746B5
S3152025E720D7E7CDF800900422DFF844126846FCF797
S3152025E7305DFC10B141F665100DE0009808F1040145
S3152025E74041F83A004FF4802248F83A20DFF82C3257
S3152025E75048F83A300020BDE8F28F002DE1D108EBAC
S3152025E760C60050F8082C42F0020240F8082CF1E7A2
S3152025E77038B50D460446297851B912F0030002D042
S3152025E78041F6681032BD002B0CBF2260A2650FE032
S3152025E79000204FF07043206068460093AA68696878
S3152025E7A0FCF724FC10B141F6651032BD0099A16510
S3152025E7B0A26ADFF8CC010240A262A16A2B7868788A
S3152025E7C01B0203F44073C00600F06050034319432F
S3152025E7D0A162A16C002041F00101A16432BDF8B5EA
S3152025E7E016460546F4680F4604B93469387878B153
S3152025E7F0022819D022D200937368B268B96878683E
S3152025E80053432246FFF7B9FE3A78032A0BD050B94F
S3152025E810F178032907D0737822463946284601B050
S3152025E820BDE8F040A4E7F2BD00937368B068B968E7
S3152025E830224643437868FFF70BFFE5E741F6651047
S3152025E840F2BDF8B5146805465668012714B1E07857
S3152025E850012800D000202A6BD30403D54FF48050FD
S3152025E860286338E0002C18BF00290ED068B9E07837
S3152025E870022808BF012303D003280CBF0223002327
S3152025E88022462846FFF7ABFF20B100212846002740
S3152025E890FFF775FB06F1200221462846FFF7C4FB24
S3152025E8A008B10420F2BD31462846FFF71BFD24B1C9
S3152025E8B0E078421E9241D20F00E0012231462846B9
S3152025E8C0FFF749FD34B128B93A4621462846BDE801
S3152025E8D0F8405BE5F2BD41F66910F2BD826E61F323
S3152025E8E00E228266806E10F0802018BF0120704788
S3152025E8F030B5B3B1846C234B01F0FF01120402F429
S3152025E900E02244F000748464D0F8CC501D4029437D
S3152025E910114341F08071C0F8CC10C16B41F4400100
S3152025E92008E0D0F8CC2022F08072C0F8CC20C16B2C
S3152025E93021F44001C16330BD0060CC40C0AE80EAE1
S3152025E94080E100E080FF850086000000FF507F15CE
S3152025E950200070051000700502007001FFFF04C01D
S3152025E96001000F0001000F04020070150000701130
S3152025E970B4272720024070150700F0072100040040
S3152025E980FFFCFFC700FFF8FFFF757600FEB504469E
S3152025E9900A46106878B1694600200023002581E8BB
S3152025E9A02900022301258DF800301B4908238DF8DF
S3152025E9B001500191029369462046FFF742FF0546FD
S3152025E9C0012D12D1666A42F21077F00705D53A460F
S3152025E9D04FF000712046FFF744FDB00705D53A468E
S3152025E9E04FF080612046FFF73CFD2846FEBD10B539
S3152025E9F0044680220F200823A06002216273A27379
S3152025EA00E37323742173206804F10801FFF7EDFCD5
S3152025EA10024A0020A26210BD942727208DE92520B1
S3152025EA2000F148018A6F22F002028A670B680022CC
S3152025EA3023F008030B6000230021FFF759BF0000B0
S3152025EA402DE9F84F04462B48C1682B4F4FF0000877
S3152025EA503D460A6902F18C0609E0317C014205D042
S3152025EA606B69EA682846996953689847183528684E
S3152025EA700028F2D14FF47A70F3F710F8A0FB04950D
S3152025EA8001FB0455F3F700F882468B46002D08BF77
S3152025EA90B9F1000F0AD0F2F7F7FFB0EB0A0061EBC8
S3152025EAA00B01A94222D828BF48451FD23C4600E063
S3152025EAB0183421680029E9D0327C0A42F8D0E16849
S3152025EAC020460B6898470028F2D05FEA0408DDD057
S3152025EAD009E0317C014218BFB84503D0FB6838468A
S3152025EAE099688847183738680028F2D14046BDE806
S3152025EAF0F28F00BF10002720B4152520BFF34F8F96
S3152025EB00134914480A6802F4E06202430A60BFF3F7
S3152025EB104F8F00BFFDE7BDE81040EFE710B50E4843
S3152025EB200E4A416813680068C40700D5F3E710BD6F
S3152025EB30094841680068820748BFFFF7DFBF70474D
S3152025EB40054841680068020748BFFFF7D7BF7047C9
S3152025EB500CED00E00400FA0524ED00E0A8EF00E026
S3152025EB6001294FF4801002D1044908607047044AD0
S3152025EB701060BFF34F8FBFF36F8F704700E100E022
S3152025EB8080E100E001294FF4805002D10449086034
S3152025EB907047044A1060BFF34F8FBFF36F8F7047BE
S3152025EBA008E100E088E100E040010329DFF88C2117
S3152025EBB002D1012111507047002313507047014679
S3152025EBC00020DFF87C2152F820308B4202D0401CD1
S3152025EBD00C28F8D370472DE9F04104460D462868C0
S3152025EBE00026B0460423014603FB00FCB2FBFCFCB1
S3152025EBF01FFA8CF70FB94FF0010C1FFA8CF707FB7C
S3152025EC0003FE7F1C5F43B2FBFEFEAEEB000EB2FB7E
S3152025EC10F7F7C71B77453CBFBE460CF1010C71455E
S3152025EC2002D371461E46E0465B1C212BDCD364228B
S3152025EC30B0FBF2F000EB4000884238BF40F221506D
S3152025EC4042D32046FFF7BBFF0FF2FC0203211056C5
S3152025EC50FFF7AAFFA069321F042A20F44020A061CD
S3152025EC602169DFF8E00038BF41F40031761E3606EB
S3152025EC70014006F0F8560E43C8F30C0006432661DC
S3152025EC80206920F000502061A16921F01001A161A1
S3152025EC90A06980088000A061A16928790143A16126
S3152025ECA022696879400300F4005022F40052024379
S3152025ECB02261A169A87908B141F40021E87908B132
S3152025ECC041F48021A1610020BDE8F08180B541690C
S3152025ECD04A02FCD500238361FFF771FF0FF26802F4
S3152025ECE000211056BDE804405EE74FF4E1310022AD
S3152025ECF00160027142718271C271704710B500F0B0
S3152025ED0007F81A430261846944EA0121816110BD0D
S3152025ED1002690B0203F44043090A7047406970478C
S3152025ED2030B505E043691C02FCD511F8015BC561A8
S3152025ED3013465A1E002BF5D130BD00000060CC406D
S3152025ED40CC11252000E0FFE0FF565758595A5B5C29
S3152025ED505D00000040010329DFF8982502D1012115
S3152025ED60115070470023135070470321F2E7000006
S3152025ED700146002004A252F820308B4202D0401CA6
S3152025ED800528F8D3704700000000000000404040C9
S3152025ED900080404000C040400000C44038B50446AD
S3152025EDA00D46FFF7E5FF00F010F9204600F03DF966
S3152025EDB02978DFF84405042936D8DFE801F0030948
S3152025EDC0121E2A00226942F00072226161690FE033
S3152025EDD0216941F0007121616269520952016261FE
S3152025EDE009E0206940F0007020616169DFF80C0593
S3152025EDF0490949016161A06116E0216921F0007167
S3152025EE0021616069DFF8F814400940016061A1613C
S3152025EE100AE02069DFF8EC2420F000702061616982
S3152025EE20490949016161A261E87888B9216941F0DA
S3152025EE3080712161A06940F00100A0612169A8782F
S3152025EE40800600F0406021F040610143216107E002
S3152025EE50206920F080702061A16949084900A161B7
S3152025EE60687803281FD8DFE800F00207141A2169DD
S3152025EE7021F04041216116E0206920F0404040F0F4
S3152025EE8080402061D4F8901021F04041C4F890109C
S3152025EE9009E0206920F0404040F0004002E020694A
S3152025EEA040F040402061A16941F08051A16131BDEA
S3152025EEB070B504460D46FFF75BFF00F086F8204621
S3152025EEC000F0C1F82A7804F19001DFF82C04042AF1
S3152025EED039D8DFE802F0030C15212D000B6843F005
S3152025EEE000730B604E68760976014E6012E00A683B
S3152025EEF042F000720A604B685B095B014B6009E0B2
S3152025EF00086840F0007008604A68DFF8F003520967
S3152025EF1052014A60886016E00A6822F000720A606B
S3152025EF204868DFF8DC234009400148608A600AE00A
S3152025EF300868DFF8D03320F0007008604A68520947
S3152025EF4052014A608B60E8780A68002810D142F081
S3152025EF5080720A60886840F0010088600A68A8786F
S3152025EF60800600F0406022F0406202430A6006E0F7
S3152025EF7022F080720A6088684008400088606A7896
S3152025EF80032A1DD8DFE802F002061118086820F0AA
S3152025EF90404014E00B6823F0404343F080430B6048
S3152025EFA0206920F0404020610AE00A6822F040428C
S3152025EFB042F000420A6003E0086840F040400860BD
S3152025EFC08A6842F080528A6070BD0FF24031085619
S3152025EFD0CBE610B50446002100F044F80021204652
S3152025EFE000F063F82046FFF7C3FE0FF220320021FA
S3152025EFF01056BDE81040ADE610B504460421FBF7B2
S3152025F000A7FD00F00BF8637010BD10B5044604214A
S3152025F010FBF79EFD00F002F8627010BD0122002349
S3152025F020A2700220E370207070474FF040718160F6
S3152025F0308268002122F080728260016141618161AE
S3152025F040C161016670474FF04071002340F8881F43
S3152025F050026822F0807202608360C3600361436187
S3152025F0608365704700F18802A9B10169890F0129B5
S3152025F07005D1136823F4E01343F000431360816818
S3152025F08021F4E01141F000418160826822F4E012EA
S3152025F09042F4802207E09168890F012904D08268ED
S3152025F0A0DFF864120A408260704700F18802A9B110
S3152025F0B09168890F012905D1836823F4E01343F04C
S3152025F0C000438360106820F4E01040F00040106073
S3152025F0D0116821F4E01141F4802107E003699B0F93
S3152025F0E0012B04D01168DFF82002014011607047FA
S3152025F0F0F0B50C460246A17D00260020B9B1257A19
S3152025F100D4F800C0002D6568D2F818E005FB0CFC64
S3152025F1100CBF022701276D1E2D022EF4F85E05F45D
S3152025F120F85545EA0E0507FB0CF7956101E027689A
S3152025F130BF011569ED0113D515692D0A2D02156116
S3152025F140B3FBF7F505B90125B3FBF5F39F42136903
S3152025F15038BF6D1C6D086D1E05F0FF051D43156115
S3152025F1600029677D1ABF6168491E1F210B060D04DC
S3152025F17003F0F85305F4F8152B43012F05D1090281
S3152025F18001F4F8511943D16106E09169CD0602D5DE
S3152025F190676800F0A9F8D361237A1366A17C19B98B
S3152025F1A0637C01259D40A574A17CF140CB0703D521
S3152025F1B000B96674401CE674761C012EF4D9207598
S3152025F1C0207D012803D9916921F0406191615069FB
S3152025F1D020F4702050615169A07C000400F4702031
S3152025F1E001435161217CD160F0BDF0B504460D4621
S3152025F1F0AA7D0021002004F18C06BAB12C7AD5F8F7
S3152025F20000C0002C6C68D6F80CE004FB0CFC0CBF67
S3152025F21002270127641E24022EF4F85E04F4F854EE
S3152025F22044EA0E0407FB0CF7F46001E02F68BF01C2
S3152025F2307468E40113D57468240A24027460B3FB28
S3152025F240F7F404B90124B3FBF4F39F42736838BF5E
S3152025F250641C6408641E04F0FF041C437460002AA1
S3152025F2606F7D1ABF6A68521E1F221306140403F0E7
S3152025F270F85304F4F8142343012F05D1120202F47E
S3152025F280F8521A43326106E0F268D40602D56F6831
S3152025F29000F02AF833612B7A7365AA7C1AB96B7C20
S3152025F2A001249C40AC74AA7CCA40D30703D500B957
S3152025F2B06974401CE974491C0129F4D92875287DCF
S3152025F2C0012803D9F16821F04061F160B06820F466
S3152025F2D07020B060B168A87C000400F4702001433A
S3152025F2E0B160297C3160F0BD7F1E3F0207F4F857B7
S3152025F2F03B4370470060CC40101F01001A1F0100B8
S3152025F3001800010010000100FFFFE37FFF7B7C7DB5
S3152025F31040010329DFF8702402D1012111507047BD
S3152025F32000231350704701238B404362C5E00146D5
S3152025F3300020DFF85824914218BF0120704780B558
S3152025F340FFF7F5FF0FF25C4203211056BDE8044076
S3152025F350DEE738B50446FFF7EAFF00F0FBF80FD0C5
S3152025F36001000DD4012500F01F0005FA00F0DFF875
S3152025F3702024490942F82100BFF34F8FBFF36F8F11
S3152025F3802046FFF7D4FF0FF21C4200211056BDE878
S3152025F3903440BDE7F8B504460D46E068C00702D4DB
S3152025F3A042F22830F2BD00260FF2FC3705EBC600C7
S3152025F3B0C16900291CBF026A002A07D0A81990F81E
S3152025F3C02C0018B157F82600F7F780FD761C022E5B
S3152025F3D0ECD3286860606968E162A8686063E9689B
S3152025F3E0A16395F82D0028B104F58270296901605D
S3152025F3F06A6982610020F2BDF0B513F0030402D0BC
S3152025F40042F22930F0BD059C250C260418BF6D1C1B
S3152025F4109200D208AA4201D20320F0BD0022AA4298
S3152025F42001EBC20716D2B4F5803F7B6091BF2646F5
S3152025F4304FF4803604F17F4404F57F043704B6085B
S3152025F44041F8327047F0210741F8327003EB8603E5
S3152025F450521CE4E757F8082C42F0020247F8082CFC
S3152025F460BFF36F8FBFF34F8F81600020F0BD11B1A1
S3152025F470012904D0704741690A4342617047D0F873
S3152025F48018311A430BE0D24311B1012904D0704714
S3152025F49041690A4042617047D0F818311A40C0F8B0
S3152025F4A0182170470246002011B1012902D0704744
S3152025F4B090697047D2F81401704711B1012902D0FD
S3152025F4C0704782617047C0F814217047012905D1FC
S3152025F4D0D0F8201149084900C0F82011704700F5B9
S3152025F4E086700160016A41F0010101627047F8B515
S3152025F4F004460D4616461F463C212846F4F79AFE15
S3152025F50032682A6273686B62B068A862F168E9621C
S3152025F51030692863716969632046AF639D4EFFF77D
S3152025F52006FF46F820500FF2E90070602046FFF7C7
S3152025F530FEFE00F00FF80AD0010008D4012400F0C1
S3152025F5401F0004FA00F0944A490942F82100F1BD2A
S3152025F5500000000092A16FF07F0331F91000984238
S3152025F56070472DE9F04104460E46307817469846D1
S3152025F57010B142F2293028E0069D206A40F6FF7216
S3152025F580002180088000206200F040F800F03BF83A
S3152025F5901421301DF4F74EFE01203070B761C6F8D0
S3152025F5A01C80216A2943E807216205D540F2F132DC
S3152025F5B000212046FFF75BFFA80705D542F2FF125B
S3152025F5C001212046FFF753FF0020BDE8F08170B5C5
S3152025F5D004460D462878164698B1216AB143F30785
S3152025F5E0216204D540F6FF72002100F00FF8B307FB
S3152025F5F001D500F008F81421281DF4F71BFE00205C
S3152025F6002870002070BD43F6FF72012120463AE777
S3152025F6102DE9FE4F82460AF590777A690E460192A4
S3152025F620DAF8248000214FF0000BFFF73BFF8146B7
S3152025F63001215046FFF736FF08F0010109F00102A6
S3152025F640114205461CBF326A002A02D0B16B5046AC
S3152025F65090475FEA887076D5290705D5B36A1BB109
S3152025F660B26B012150469847A8040AD5736A43B13F
S3152025F670B26B01215046984718B9386840F00100E9
S3152025F6803860E90605D5336B1BB1B26B012150468F
S3152025F6909847680703D5F46A64B100F068F8E90548
S3152025F6A008D5F46A34B100F062F818B9306908B182
S3152025F6B04FF0010BE80705D5F46A0CB100F057F891
S3152025F6C00021B961A80705D5F46A0CB100F04FF8D9
S3152025F6D00021F96115F0C00F2AD0DAF80400800D33
S3152025F6E000F03F0030710199490A71719DF8070094
S3152025F6F0C00930759DF80710080707D5386901997F
S3152025F700CA05C0F30B0008D1244908E00199012038
S3152025F710CA0508BF4FF4007101D0C1F30801F46A68
S3152025F720B160F08024B100F022F808B9306910B90B
S3152025F730BBF1000F07D030690090F368F269B169F3
S3152025F7405046FFF759FE5FEAC87004D54A46002180
S3152025F7505046FFF7E8FD5FEA887006D52A465046CB
S3152025F76003B00121BDE8F04FDDE5BDE8F78FB06B8D
S3152025F770331D00902A46012150462047054A034835
S3152025F78011685268104700000060CC400000904167
S3152025F79080E100E08C26272000E100E0FFFF1F0006
S3152025F7A04B0000007400000000009841000198419C
S3152025F7B0491EF8B501250829434F16463C6852D8D7
S3152025F7C0DFE801F005152547472C47514500706888
S3152025F7D010F1010F18BF00280FD0A069002814DDCD
S3152025F7E094F81A14012910D104F118000BE0706839
S3152025F7F010F1010F18BF002801D10120F2BDE061CB
S3152025F80004F114002573F7F7EDFB00252BE04FF4C3
S3152025F8107E7104F12000F4F70DFD24E0B17800294E
S3152025F82004BFF078002804D13178012908BF6573F3
S3152025F83019D07268314604F12000F7F747FB706826
S3152025F8402573E06104F11400F7F7CCFB0BE00525C1
S3152025F85009E0002104F11400F7F7A2FB38680021FE
S3152025F8601830F7F79DFB2846F2BD0020012900D048
S3152025F870704738B5144C012520684FF47E7380F8DF
S3152025F8801A54022100F12002806800F068FA2168C6
S3152025F89081F81B5432BD002059B90B484FF47E738D
S3152025F8A00068022180F81C2400F12002806800F0DF
S3152025F8B056BA7047044908600020704702490860F7
S3152025F8C00968002088607047B827272010B5134679
S3152025F8D001200BB9032010BD1A1D00245477126868
S3152025F8E0002A1CBF1468002C03D00A46012118467D
S3152025F8F0A04710BD10B5134601200BB9032010BD16
S3152025F9001A1D002494771268002A1CBF1468002C1F
S3152025F91003D00A4602211846A04710BD2DE9F847EF
S3152025F92085B0037F002183B34268926854799C422F
S3152025F9302BD312684AB302EBC30200260C27A2F169
S3152025F94008056B6800E0761C2A7896421DDA07FBA7
S3152025F95006F41A1992F800E0BEF1030FF3D1884672
S3152025F96001E008F1010803F10806375DB84509DAF3
S3152025F9701D1D4FEA08172E5990F81E90F55D4D4509
S3152025F980EFD1F119D278427709B9012044E0816077
S3152025F99000F1230405464FF00009DFF868834FF070
S3152025F9A0FF36DFF864738A4601209AF804108945C4
S3152025F9B032DA002006218DF80400DAF8082001FB2A
S3152025F9C009F1101D435C8DF80530DAF80820525CC4
S3152025F9D08DF80220DAF80800D209831C012A5B5A01
S3152025F9E00144ADF8003048788DF8030006D0CDF8CF
S3152025F9F0088000206E616070A86104E002970020CF
S3152025FA00EE60207028610395286802AA694609F1C7
S3152025FA10010900F007FBC8E706B0BDE8F08738B531
S3152025FA2004460120A16879B1002507E006228868C9
S3152025FA306A43815C20686D1C00F014FBA1680A7955
S3152025FA409542F3DB0021A16032BD00002DE9F84F58
S3152025FA50074615460120002D86B014BF002F03200A
S3152025FA6013D0491E052907F121044FF006080CD885
S3152025FA70DFE811F0AC0006000C001C003200530014
S3152025FA800021397721706170B960FDE079680029F8
S3152025FA901EBF397F2A788A42F7D011B13846FFF71B
S3152025FAA0BEFF28780022BA77387711E079680029B1
S3152025FAB0EBD029887A7F0C460904B2EB116F0AD13F
S3152025FAC0BB7FE1B2994206D03846FFF7A8FFBC771F
S3152025FAD03846FFF723FFD7E07A68002A1CBFB96886
S3152025FAE00029F8D000268346B86801798E4222DA85
S3152025FAF0806808FB06F22B78805C83420BD1C009EF
S3152025FB00012819BF0120E0700121A17029783868C4
S3152025FB1000F0C3FA8346761CE6E77A68002A1CBFDE
S3152025FB20B9680029D7D04FF000094FF0FF36834614
S3152025FB30B8680179894580F2AA8008FB09FA806888
S3152025FB40297810F80A2091423DD1386800F0AFFA7D
S3152025FB5029788346C90901291AD0E07800281EBFAD
S3152025FB60E1707A6912F1010F2DD0B868BB6900F0D2
S3152025FB7098F800F054FA834630B179690391BA6929
S3152025FB8000F096F8FFF7B6FE00217E61B9611AE0EE
S3152025FB90A07800281FBF0021A170FA6812F1010F55
S3152025FBA011D0B8683B6900F07CF800F033FA83461B
S3152025FBB030B1F96803913A6900F07AF8FFF786FEA5
S3152025FBC00020FE60386109F10109B1E729680A7824
S3152025FBD002F01F02012A02BF0B797A7F934253D165
S3152025FBE04B783846012B0AD0022B0DD0032B14D067
S3152025FBF0092B1CD00A2B35D00B2B3AD043E04A882B
S3152025FC00032100F046F81AE07B6807F11F0204213C
S3152025FC101C68A04707F11F0107E07B6807F1200232
S3152025FC2004211C68A04707F1200169602CE04A8839
S3152025FC3000F02FF8297B59B1AA68092101926A4635
S3152025FC407B681C68A04700996960019AAA601BE019
S3152025FC506B6806210093AA6801927B686A461C6810
S3152025FC60A04711E0498807F11F02090AF9770721DC
S3152025FC7005E0498807F1200287F8201008217B68AE
S3152025FC801C68A04700E0052007B0BDE8F08F584640
S3152025FC90FAE7120A8DF808202B685A888DF809204C
S3152025FCA070478168386811F80A1001F00F017047EE
S3152025FCB0002104928DF8141038683A4603A9704716
S3152025FCC070B50C46154603460021104A28264E4374
S3152025FCD01644306850B1491CF8DD022070BD00203D
S3152025FCE0FF2174603077B1772E6070BD3146184676
S3152025FCF000F0A1FA0100F8D130680028EFD10320C1
S3152025FD0070BD0000F5F82520CDF82520ACC5272087
S3152025FD1010B5040001D1032010BDFFF780FE002178
S3152025FD20216061602177A17710BD70B508B90320C0
S3152025FD3070BD00F121052C780CB1022070BDAC7860
S3152025FD4001262E701CB1C2600361002070BD00689B
S3152025FD5000F060F901001CBF0021297070BD70B527
S3152025FD6008B9032070BD00F122052C780CB102209C
S3152025FD7070BDAC7801262E701CB1426183610020AE
S3152025FD8070BD006800F04BF901001CBF00212970C9
S3152025FD9070BD00001CB5044600F040F80021216006
S3152025FDA084F8CD1000F01FF9002016BD2DE9FC4161
S3152025FDB004000D461646984605F00F0108BF032078
S3152025FDC02AD0606830B34B000C2143EAD5124A432A
S3152025FDD0A718387D08B102201EE000F01FF8012063
S3152025FDE000F000F92906D4F804C020684346324697
S3152025FDF0294603D5DCF80840A04702E0DCF80C505C
S3152025FE00A8470446200006D000F008F8002000F078
S3152025FE10E9F800E006242046BDE8F681684600F08C
S3152025FE2045BB08B903207047436813B100685B6951
S3152025FE30184706207047FEB504460E7A01200C2564
S3152025FE40F309102E06F00F021ED104F1CC0600224E
S3152025FE50F0700E2120460027FFF7E3FF022300221C
S3152025FE60B37000203270002305FB00F1401C1028BA
S3152025FE702144CF600B610A75F6D3A368012120465C
S3152025FE8098470020F070FEBD082A19D243EA42037E
S3152025FE906B432344DA689AB10D6800954A68019226
S3152025FEA04D7A8DF80850487A00281DBF00212175E6
S3152025FEB084F8201018751A69DB6869462046984704
S3152025FEC0FEBD002918BF002801D10320704782686E
S3152025FED0002A18BFFFF7AFBF01207047F8B51400D9
S3152025FEE005460E4601D10320F2BDFFF797FF364A78
S3152025FEF00021D02302F1CD0C03FB01F7D05918B1EF
S3152025FF001CF80770BD4227D0491C0129F4D90021A8
S3152025FF1003FB01F7D05918B3491C0129F8D900F05C
S3152025FF2062F80220F2BD3846FFF734FF0620F2BDDF
S3152025FF3027607B6828463A4639461D68A847050026
S3152025FF4006D0384600F055F8002020602846F2BD18
S3152025FF5002210020B170F2BD00F045F80120F2BD46
S3152025FF60174487F8CD5000F03EF8BE6007F1CC0641
S3152025FF700020757030700023F07084460C22424391
S3152025FF80401CB9181028CB60C1F810C00B75F5D3C5
S3152025FF90A81E0128C7D80D497BA0002978601CBF3B
S3152025FFA00B4A002A0BD00B4800281CBF0A490029DA
S3152025FFB005D00A4800281CBF09490029B8D138464A
S3152025FFC0FFF7E8FE0720F2BD0CC427203122262084
S3152025FFD0BF2226201D232620272326202D23262003
S3152025FFE0412426203875009800F066BA0022002183
S3152025FFF017E710B5040001D1032010BD616821B192
S31520260000206849688847002060602046FFF7C2FEA0
S31520260010002010BD01F00F0141F08001C6E601F057
S315202600200F01C3E670B508B9032070BD002918BF95
S31520260030002A15D08C7804F00F03082B10D25D00E9
S315202600400C2345EAD41400255C4303191468DC6086
S3152026005056681E610A461D750221BDE87040E0E6F7
S31520260060042070BD73B504000E4606F00F0501D197
S31520260070032076BD01AA0321FFF7D3FE082D0AD237
S315202600806A000C2142EAD61600234E43A119CB60DC
S315202600900B610B7576BD042076BD02B501F00F01E6
S315202600A0082902D26A4604210BE0042002BD02B5A5
S315202600B001F00F01082902D26A46052101E0042013
S315202600C002BDFFF7AEFE02BD0000000010B50123DB
S315202600D00AB9042010BD891E062900F1CC0419D898
S315202600E0DFE801F004061012080C14000F210EE09A
S315202600F010210CE0A078002310700BE02178002335
S31520260100117007E0062102E0072100E00921FFF70A
S3152026011088FE0346184610BD10B50124032900F192
S31520260120CC030CD006290CD007290FD00A2922D099
S315202601300B2922D00C291AD00E291AD021E01121DA
S315202601401CE0F2B11078002498701AE099780329D9
S315202601500AD0B2B1117803229A701A461970142140
S315202601600024FFF75EFE0CE01A46082106E00A2147
S3152026017004E00B2102E00C2100E00D21FFF751FEC1
S315202601800446204610BD000031222620BF222620E6
S315202601901D232620272326202D23262041242620BC
S315202601A038B504466846002500F080F9934901EBC8
S315202601B00511086810B18B7B9C4207D06D1C012D3A
S315202601C0F4DD009800F078F9042032BD002008607E
S315202601D048608873009800F06FF9002032BD7CB500
S315202601E000F00DF885493201885818B18818837B86
S315202601F09D4203D0761C012EF5DD17E02AE0054622
S315202602000C466846002600F051B97CB504460D46B4
S31520260210FFF7F7FF794831014258944203D0761CDE
S31520260220012EF8DD02E00844286014E0009800F04C
S3152026023043F9042076BD7CB5FFF7E1FF6F493201ED
S31520260240885818B18B189B7B9D4203D0761C012E8D
S31520260250F5DDEBE72060009800F02EF9002076BD2C
S315202602602DE9FC478846144601261CB16946FFF728
S31520260270CCFF08B104202EE0002703E000B9002693
S315202602807F1CFFB2009841680A7A974222DA0C2010
S31520260290002210FB07F00B687CA54FEA026E05EBC1
S315202602A01E5C03EB0009D9F808A09CF80C509AF896
S315202602B004E0754504D0521CD3B2022BEBD3DFE7DC
S315202602C01D1DDCF808302858224641469847052821
S315202602D0D4D100E03046BDE8F6877CB50D460446E7
S315202602E016466946FFF791FF010011D1012D08D147
S315202602F00099204600F084FB009A02212046FFF72B
S31520260300AFFF009B2046294632465C686568A8478B
S3152026031076BD00002DE9F84F924601240F46BAF104
S31520260320000F804618BF002F01D0786808B9042010
S3152026033045E0684600F0BAF83049002201F10E055C
S315202603401301C85810B1EB5C98453AD0521C012AA5
S31520260350F6DD002201EB02152868A0B3521C012ADD
S31520260360F8DD0098022400F0A7F8204627E000278B
S3152026037046A41CE04FF00C09002619FB07F96868ED
S31520260380330104EB030E9EF80CB0006800EB09013E
S315202603908A6812795A4505D1001D00EB0902E358D1
S315202603A040469847761C022EE9D37F1CFFB2686802
S315202603B0017A8F42DEDB2A680020CAF80020BDE8B3
S315202603C0F28F0098CFE701EBC20085F80E8000F168
S315202603D02001A960009800F06FF86F602A46084928
S315202603E04046FFF77BFD0700C1D02868FFF701FEB0
S315202603F04046FFF7D5FE3846E1E70000DCC3272036
S31520260400DB0226202DE9FC4180466946FFF7E7FEDA
S3152026041005002AD15FF000061CA519E000270098C2
S315202604200C2212FB06F24168086839016C188318DB
S315202604309B6893F804E0237B9E4504D1001D8058B3
S315202604402A1D515888477F1C012FE8D9761CF6B2DB
S31520260450009841680A7A9642E0DB0068FFF7C9FDD4
S31520260460050004BF4046FFF79BFE2846BDE8F681D9
S315202604701CB50C466946FFF7B2FE010005D1009849
S31520260480224602210068FFF721FE16BDC1FC252043
S3152026049011FD25204DFA2520010000000000000030
S315202604A0000000000000000000000000EFF310818D
S315202604B072B6016072B6704780F3108870470000C6
S315202604C02DE9FC4104460D46206890461E466A467E
S315202604D006210527FFF7FAFD9DF80020012A01D0DF
S315202604E010002ED1287810F01F0F08D1206804F18D
S315202604F00C020421FFF7EAFD0746207B18E000F0D0
S315202605001F02012A02D10027A78114E000F01F002E
S31520260510022812D1A9880022ADF8062001AA8DF834
S31520260520041020680521FFF7D1FD07469DF8060011
S3152026053000F00300A0810221316004F10C02C8F8E4
S3152026054000203846BDE8F6817CB5002305468DF881
S31520260550003028680C460DF1010206210526FFF7F4
S31520260560B5FD9DF80120012A03D0100001D00520D3
S3152026057076BD6078032804BF01218DF800102078E7
S3152026058010F01F0F08D16088012827D128686A46CF
S315202605901421FFF7A2FE20E000F01F00022804BF48
S315202605A0608800281AD1A18811F00F0F0AD19DF84C
S315202605B000202868C9B2002A02D0FFF76EFD01E086
S315202605C0FFF775FD9DF800102868002919BF221D02
S315202605D00521221D0621FFF743FE0646304676BD17
S315202605E038B500F0B3F89DF80020032A0CD0012A4E
S315202605F018BF022A02D00AB1052032BD68886A466B
S3152026060007218DF800000BE0206800220721FFF73E
S3152026061083FD010007D101206A468DF800000621B8
S315202606202068FFF779FD32BD2DE9FF47044691461E
S3152026063020680D469A466A4606216F88FFF746FDAC
S315202606409DF800204FF005083E0A012A03D0100007
S3152026065018BF022A38D1E888012E029002D101AA93
S315202606600B2127E0022E04D18DF80C7001AA0C212D
S3152026067020E0032E07D18DF80E70A98801AAADF8A1
S315202606800C100D2116E0212E03D1A88801AA0E21B1
S3152026069004E0222E05D1A88801AA0F218DF80C0068
S315202606A008E0232E0AD18DF80C70A98801AA8DF888
S315202606B00D1010212068FFF710FE80460198C9F8F4
S315202606C000000299CAF80010404604B0BDE8F0871B
S315202606D07CB50446154620681E4600F05AF89DF835
S315202606E00020012A03D0100001D0052076BD012145
S315202606F004F10C00316004F10C02286020681521D3
S31520260700FFF7EBFD76BD38B500F020F89DF80020E2
S31520260710012A03D0100001D0052032BD002100F089
S315202607200EF8688810B9012100F009F82068AA1C5D
S315202607300321FFF795FD2068AA1C092144E06A4675
S315202607408DF8001020680621FFF7E6BC04460D46E4
S3152026075020686A460621FFF7B9BCF8B504460D4639
S31520260760206816461F4600F014F89DF8000008B1AA
S315202607700520F2BD012104F10C00396016213060D6
S31520260780AA881202A281206804F10C02FFF7A5FD91
S31520260790F2BD6A460621FFF799BC38B5FFF7D6FF84
S315202607A09DF8000008B1052032BDA978A88804F155
S315202607B00C0241EA0021A18120680421FFF750FD81
S315202607C0206804F10C020A21FFF787FD32BDF8B511
S315202607D005460E46286817461C46FFF7DAFF9DF87B
S315202607E0001009B10520F2BDB08805F10C020821BA
S315202607F0A8812868FFF76AFC05F10C0102223960D8
S315202608002260F2BD38B50D468021052A04460ED132
S31520260810287810F0600F05D0020603D4E88808B1A0
S3152026082003B900212046BDE83440FFF736BC05999A
S31520260830E8880A68904238BF086004980B68002129
S3152026084002682046FFF7E6FB01000BD129780A0627
S3152026085008D5204601B0002300220021BDE83040DD
S31520260860FFF7DDBB32BD2DE9F8410D4689B00021C3
S3152026087005260391144604916968804611F1010FD5
S3152026088018BF002C0ED0A76802AA0621FFF71EFC49
S315202608902A7ADFF8C8C1002A59D06868082801D1E3
S315202608A0296809B905208EE0488878808A88BA8002
S315202608B0C888F8804A787A70097811F0600F3970DE
S315202608C00CD10D2A3ED25CF82250002D3AD004AB0C
S315202608D003AA39462046A847064633E0F0B108063D
S315202608E01CD48A0608D500230124069301218DF8D7
S315202608F0204000F071F803E0480623D500F073F86F
S31520260900064630000799069A049103921AD1FB8847
S31520260910039A00214046FFF782FB54E0880608D535
S3152026092000220123069201218DF8203000F054F86A
S3152026093003E0480606D500F056F80799069A064695
S315202609400491039204A803A90190002333E09DF87D
S315202609500800032808D120467C7804AB03AA39460A
S315202609605CF82450A8472CE0696800291CBFF88823
S31520260970002827D03878010624D482060AD52B6863
S315202609800024069301218DF8204000F01FF8FFF75A
S3152026099067FC0BE040060AD52A6800230692132117
S315202609A08DF8203000F012F8FFF797FC064604A8AB
S315202609B003A9019001230091324639464046FFF786
S315202609C021FF064630460AB0BDE8F0814046059707
S315202609D06A68079205AA704740460597FA880792BD
