:0200000460009A
:1020000000000220355F0060EB3E0060233F00606F
:10201000273F00603F4A0060274B0060000000003F
:102020000000000000000000000000001B590060DC
:10203000F15F0060000000007B600060876000606E
:102040007162006079620060816200608962006094
:102050009162006099620060A1620060A962006004
:10206000B1620060B9620060C1620060C962006074
:10207000D1620060D9620060E1620060E9620060E4
:10208000F1620060ED630060ED630060ED6300608D
:10209000F962006001630060096300601163006021
:1020A0001963006021630060296300603163006090
:1020B0003963006041630060496300605163006000
:1020C0005963006061630060696300607163006070
:1020D0007963006081630060ED630060ED63006020
:1020E000ED630060ED630060ED630060ED63006030
:1020F000ED630060ED630060ED630060ED63006020
:10210000ED630060ED630060ED630060ED6300600F
:10211000ED630060ED630060ED630060ED630060FF
:10212000896300609163006099630060A16300604F
:10213000A9630060ED630060ED630060ED63006023
:10214000ED630060ED630060ED630060ED630060CF
:10215000ED630060ED630060ED630060ED630060BF
:10216000ED630060ED630060ED630060ED630060AF
:10217000ED630060ED630060ED630060ED6300609F
:10218000ED630060ED630060ED630060ED6300608F
:10219000ED630060ED630060ED630060ED6300607F
:1021A000ED630060ED630060B1630060B9630060DF
:1021B000ED630060ED630060ED630060ED6300605F
:1021C000ED630060ED630060ED630060ED6300604F
:1021D000ED630060ED630060ED630060ED6300603F
:1021E000ED630060ED630060ED630060ED6300602F
:1021F000C1630060ED630060C9630060D16300608B
:10220000ED630060ED630060D9630060E16300602E
:10221000ED630060ED630060ED630060ED630060FE
:10222000ED630060ED630060ED630060ED630060EE
:10223000ED630060ED630060ED630060ED630060DE
:10224000ED630060ED630060ED630060ED630060CE
:10225000ED630060ED630060ED630060ED630060BE
:10226000ED630060ED630060ED630060ED630060AE
:10227000ED630060ED630060ED630060ED6300609E
:10228000ED630060ED630060ED630060ED6300608E
:10229000ED630060ED630060ED630060ED6300607E
:1022A000ED630060ED630060ED630060ED6300606E
:1022B000ED630060ED630060ED630060ED6300605E
:1022C000ED630060ED630060ED630060ED6300604E
:1022D000ED630060ED630060ED630060ED6300603E
:1022E000ED630060ED630060ED630060ED6300602E
:1022F000ED630060ED630060ED630060ED6300601E
:10230000ED630060ED630060ED630060ED6300600D
:10231000ED630060ED630060ED630060ED630060FD
:10232000ED630060ED630060ED630060ED630060ED
:10233000ED630060ED630060ED630060ED630060DD
:10234000ED630060ED630060ED630060ED630060CD
:10235000ED630060ED630060ED630060ED630060BD
:10236000ED630060ED630060ED630060ED630060AD
:10237000ED630060ED630060ED630060ED6300609D
:10238000ED630060ED630060ED630060ED6300608D
:10239000ED630060ED630060ED630060ED6300607D
:1023A000ED630060ED630060ED630060ED6300606D
:1023B000ED630060ED630060ED630060ED6300605D
:1023C000ED630060ED630060ED630060ED6300604D
:1023D000ED630060ED630060ED630060ED6300603D
:1023E000ED630060ED630060ED630060ED6300602D
:1023F000ED630060ED630060ED630060FFFFFFFFD1
:10240000F8B52DED0A8B82B004001CBF00202060BF
:10241000B0EE418B51EC180B21F000430026002751
:1024200020F00002BB420FBFB242B7EE002BB4EE69
:10243000420BF1EE10FA0CD0BFEE004BB4EE440BA1
:10244000F1EE10FA09D148004015401C05D10903EE
:1024500003D102B0B7EE000B42E251EC100B480082
:102460004015401C0ED051EC100B21F00041B14240
:1024700008BFB04206D051EC180B48004015401C74
:1024800040F0C98051EC100B48004015401C02D1AF
:10249000090340F0238251EC180B48004015401C02
:1024A00005D1090318BFB0EE480B40F0178253EC7A
:1024B000182B590001204915491C55D05D0045EAEB
:1024C000D2755400BD4208BFB44219D040F2334126
:1024D000A1EB5554352C04DB02F0000203F000435D
:1024E0000CE0202C03DD203CE340A34000E001D1C0
:1024F000002203E0002CC4BFE240A24043EC112BB9
:10250000B4EE418BF1EE10FA18BF002053EC112B02
:102510005D0045EAD2755400BD4204BFB442B0EE3E
:10252000412B19D040F23441A1EB5554352C04DB3A
:1025300002F0000203F000430CE0202C03DD203CFD
:10254000E340A34000E001D1002203E0002CC4BF1F
:10255000E240A24043EC122B30B1B4EE421BF1EE4C
:1025600010FA0CBF0020012053EC102B5900491524
:10257000491C08D11A0306D1DA0F1ED151EC180BF1
:10258000C80F44D03AE053EC182B59004915491CA8
:1025900019D11A0317D153EC102B23F00041B1F5D8
:1025A000801F22F0000016D2B14208BFB042009650
:1025B00015D0684600F0ECFB11E053EC182BDA0F55
:1025C00020D0D8B103E0A8B9DA0F1BD1B0B102B066
:1025D0009FEDBA0B84E1C44C04EB1150009051EC18
:1025E000180BC80F009802D1002810DC06E0002864
:1025F00004DC0CE051EC100BC80FE5E702B09FEDD6
:10260000B10B6DE118B102B09FEDB00B68E102B003
:102610009FEDB00B64E151EC180B4B0043EAD07313
:102620004200BB4204BFB242B0EE489B19D040F218
:102630003345A5EB5352352A04DB00F0000001F0CE
:1026400000410CE0202A03DD203AD140914000E017
:1026500001D1002003E0002AC4BFD040904041ECEB
:10266000190B51EC100BC80F1CBFB4EE498BF1EEE7
:1026700010FA05D0AFF3008002B09FED9C0B2FE164
:1026800053EC102B23F00041B1F5801F22F0000025
:1026900008D2B94208BFB04200960ED0684600F09A
:1026A00077FB0AE0904E06EB11500090914992485A
:1026B00003401046194341EC100B51EC100BC80FAE
:1026C00031D021F0004053EC102B034643EC102B8B
:1026D00051EC190B4B0043EAD0734200BB4204BFDC
:1026E000BA42B0EE491B19D040F23445A5EB535223
:1026F000352A04DB00F0000001F000410CE0202A44
:1027000003DD203AD140914000E001D1002003E0F8
:10271000002AC4BFD040904041EC110BB4EE419B65
:10272000F1EE10FA01D1002500E001250098012802
:102730000ED19FED722BB4EE420BF1EE10FA07D5DD
:10274000B0EE004B0020B7EE001B20EE040B17E0AC
:10275000B6EE001B9FED6B6BB0EE413B00EE063B0F
:10276000BDEEC33B13EE100A203802EE100A12EE43
:10277000101A04EE101BBAEECD4B34EE011B4001D3
:1027800030EE412B30EE010B82EE000B20EE003BD1
:102790009FED5E6B9FED5F7B03EE067B9FED5FAB76
:1027A00007EE03AB9FED5FCB0AEE03CB9FED5F6BB4
:1027B0000CEE036B9FED5F7B06EE037B9FED5FAB43
:1027C00007EE03AB2AEE033BB7EE00CB33EE423B02
:1027D0003CEE411BB0EE006B01EE063B64A123EE24
:1027E000000B0A1832EE000B9DED001A92ED002B43
:1027F000B8EEC11B31EE021B9FED524BB0EE413BD8
:1028000000EE043B23EE082B9FED506BB4EE462BFD
:10281000F1EE10FA4FD49FED4F9BB4EE492BF1EE41
:1028200010FA41DA51EC120BC80F06D0BEEE004B85
:1028300032EE042BBDEEC22B05E0B6EE006B32EE9D
:10284000065BBDEEC52B92ED025B92ED044B35EEBF
:10285000044B9FED423B20EE080B24EE084B04EEA8
:10286000030B21EE081BB8EEC24B31EE441B01EE08
:10287000030B1CB184ED002A9FED3A2A12EE100AD8
:10288000B7EE001B00F0C2FA51EC100B21F0004330
:1028900020F00002BB4208BFBA420CD048004015ED
:1028A000401C03D1090301D19FED0A0BB5B102B061
:1028B000B1EE400B14E09FED030BF7E700000000C2
:1028C0000000008000000000000000000000000088
:1028D0000000F0FF000000000000F07F02B000BF29
:1028E000BDEC0A8BF1BD000002FCFFFFFFFFFFFF04
:1028F000FFFFFF7F0000E03FFFFF0F80CD3B7F66C3
:102900009EA0E63F0000000000005040F7DE29BF17
:10291000D8F8C23FF4B3FECC1A99C33F62CB68D952
:102920006F46C73FC6C912DAC471CC3F4AE98A94E0
:102930002449D23FF75F97999999D93FBC5555558E
:102940005555E53FFE822B654715F73F0000000017
:102950000000E0C0010000000000E040EF39FAFE96
:10296000422EE63F00000000002049E50000000084
:10297000000000000000F0BF000000000000008028
:1029800000000000000000800000000000000000C7
:10299000000000C05294EEBF00000048204E51BE1F
:1029A000000000F86467BCBC0000000000000000EC
:1029B000000000208133EDBF00000080B3DB14BEB7
:1029C000000000506706A3BC0000000000000000EB
:1029D000000000D0E9DCEBBF00000008C39259BE44
:1029E00000000080B0D3B8BC000000000000000070
:1029F00000000070F98FEABF000000C0A51028BEDB
:102A0000000000E8BFC0B0BC0000000000000000F3
:102A100000000070284CE9BF00000060134B42BE6C
:102A2000000000C03D20B8BC000000000000000015
:102A300000000050FA10E8BF000000C05FF62BBE97
:102A4000000000905C71A7BC0000000000000000C6
:102A500000000020FCDDE6BF000000C0F8F154BE1D
:102A600000000018E9F6B9BC0000000000000000FA
:102A7000000000D0C3B2E5BF00000070E43254BED5
:102A800000000050DB06B4BC0000000000000000A5
:102A900000000010EF8EE4BF00000020F36252BE81
:102AA000000000C02A879ABC00000000000000005F
:102AB000000000B02272E3BF000000F0E8E056BE64
:102AC00000000028352DBDBC000000000000000003
:102AD000000000000A5CE2BF000000B0FA8E41BEB8
:102AE00000000040AE6FBDBC000000000000000010
:102AF00000000000564CE1BF000000F015CD5FBEA5
:102B000000000000141C90BC000000000000000049
:102B100000000040BD42E0BF00000030F93457BE65
:102B2000000000E06C1E93BC0000000000000000EC
:102B3000000000E0F57DDEBF000000B08A535EBEFD
:102B400000000080DA77AABC00000000000000004E
:102B5000000000C09D81DCBF00000000FFA226BE77
:102B60000000006057E2B0BC000000000000000060
:102B700000000060F98FDABF000000580A8151BEE2
:102B8000000000F05F60B8BC000000000000000022
:102B90000000000098A8D8BF000000607A7F45BE02
:102BA000000000D05433A3BC00000000000000006F
:102BB000000000600FCBD6BF000000D091CB40BE1C
:102BC000000000406D1BA0BC0000000000000000E1
:102BD000000000A0FBF6D4BF00000098C5CE52BE96
:102BE000000000003A397EBC000000000000000038
:102BF000000000E0FE2BD3BF0000004073872BBE17
:102C000000000000926879BC000000000000000095
:102C100000000040C069D1BF00000058F16353BEFE
:102C200000000080438D7CBC00000000000000001C
:102C300000000080D85FCFBF000000181F8354BE83
:102C4000000000B03F42A2BC0000000000000000F5
:102C50000000008067FCCBBF00000060FAFF53BE9D
:102C600000000050E00DB8BC0000000000000000B3
:102C70000000000098A8C8BF000000607A7F35BE41
:102C8000000000C0543393BC0000000000000000AE
:102C900000000000DC63C5BF00000058D6FF54BE32
:102CA00000000000396490BC00000000000000003B
:102CB000000000C0AD2DC2BF00000080A45915BEA9
:102CC000000000E0484BABBC00000000000000002A
:102CD000000000801A0BBEBF00000050BF3C5ABE6F
:102CE000000000A0B364B6BC0000000000000000BB
:102CF0000000008004D6B7BF00000040BBCF36BE46
:102D00000000008076CEA8BC00000000000000009B
:102D10000000008032BBB1BF000000402A0043BE6B
:102D200000000028C60CBDBC000000000000000030
:102D3000000000009473A7BF000000182B3B59BE91
:102D4000000000C0E55DA5BC000000000000000020
:102D500000000000EE4397BF000000A0E6C340BEA5
:102D600000000020958DB5BC0000000000000000B0
:102D70000000000000000080000000000000008053
:102D800000000000000000800000000000000000C3
:102D9000024651EC100B10B5144600F005F841EC5A
:102DA000100B226010BD0000C1F30A5343B14A006A
:102DB00012F5001F28D2A3F2FE32A1EB0251704798
:102DC00050EA410C20D001F0004C31EA0C01B1FA7C
:102DD00081F204BFB0FA80F3D2180B3AB2F12003AB
:102DE0002CBF00FA03F1914041EA0C013EBFC2F151
:102DF000200C20FA0CF319439040524240F2FD336C
:102E0000D21A01EB0351704700227047F8B553EC1A
:102E1000102B59004915491C2DED089B1ED023F09D
:102E200000430024A34208BFA24217D053EC112B49
:102E300059004915491C11D033F0004308BFA24284
:102E40000CD09FEDB33BB4EE430BF1EE10FA40F122
:102E5000A98053EC112B03F00045B7E053EC102B85
:102E600059004915491C02D11A0340F04E8153EC18
:102E7000112B59004915491C01D11A0357D153ECA4
:102E8000112B23F000430024A34208BFA24208D123
:102E900051EC100B48004015401C48D1090346D1A5
:102EA0000FE053EC112B59004915491C10D11A039E
:102EB0000ED151EC100B48004015401C37D10903CE
:102EC00035D1AFF30080BDEC089B9FED930BF1BDB6
:102ED00053EC102B33F0004308BFA2422CD153EC2B
:102EE000112B1A465100490D00EB010331D153EC6F
:102EF000112B33F0004308BFA24205D0B0EE410BC6
:102F000000F03AF9B0EE401B51EC110B21F00043F8
:102F1000002420F00002A34208BFA24205D04800CE
:102F20004015401C03D1090301D1AFF30080BDEC73
:102F3000089BB0EE410BF1BD51EC100B4800401561
:102F4000401C22D1090320D1BDEC089B20EE010BCF
:102F5000F1BD002BCBDD40F2FF7083420BDB9FED18
:102F6000700B55EC114B53EC102B05F000410B434B
:102F700043EC112BC8E76FF31E5242EA035251ECA7
:102F8000110B114641EC110BBEE79FED670B53ECA3
:102F9000102B55EC114B05F00043BDEC089B43ECA6
:102FA000102BF1BD9FED623BB4EE430BF1EE10FA36
:102FB00011DB9FED5B0B51EC100B084653EC112B12
:102FC000AFF3008003F0004141EA0005BDEC089B2F
:102FD00045EC104BF1BD9FED583B20EE033BB6EEA8
:102FE000002B53EC122B55EC134B05F0004242EA38
:102FF000030153EC122B0B4643EC142B33EE043B32
:10300000BDEEC33B13EE101AB8EEC33B9FED4C5B15
:1030100003EE450B9FED4C7B03EE470B55EC104B3D
:1030200025F0004257EC106B174647EC136B9FEDF1
:10303000485BB4EE453BF1EE10FA48BFB0EE410BF1
:1030400021D49FED45AB9FED46CB20EE003B9FED9D
:10305000467B9FED479B03EE0ACB03EE079B0CEEEE
:10306000032B29EE034B22EE000BB7EE002B34EEC0
:10307000003B34EE400B33EE023B30EE020B83EEAE
:10308000000B20EE010B53EC102B40181A46510098
:10309000490D00EB01031BD0002B19DD40F2FF703E
:1030A00083420BDB9FED1E1B55EC104B53EC112B99
:1030B00005F000410B4343EC102B13E06FF31E525D
:1030C00042EA035251EC100B114641EC100B09E09F
:1030D00053EC102B23F000430024A3420CBFA24268
:1030E00000F04AF851EC100B21F00043002420F0CE
:1030F0000002A34208BFA24205D048004015401C70
:1031000003D1090301D1AFF30080BDEC089BF1BDF1
:103110000000000000C89CC0FFFFFFFFFFFFFF7F13
:10312000000000000000F07F000000000000000030
:103130000100000000C89C40FE822B654715F73F48
:10314000000000F8422EE63FF2E4D5BCE7E84B3E33
:10315000000000000000903C4BE8A541B752013F41
:103160000BBDF3DAE8708C3F112E5781A03F503F22
:103170005843128C8F71BC3F020030EE101B40F29E
:10318000FF7C37D41CEA115313D063456BD09B18D6
:10319000634504D201EB025120EE101B704701F091
:1031A000004141EA0C51002041EC100BAFF30080CC
:1031B000704710EE100B50EA410054D0B2F57F7FFB
:1031C00008D202EB5C010905002041EC110B20EE56
:1031D000010B70474FF0FE41002341EC113B20EE04
:1031E000010BB2F57E7230EE101B4FEA410342EB49
:1031F0005353CDE752421CEA115316D0634532D0E7
:103200009A4204D2A1EB025120EE101B70475B1EC4
:10321000D21AA1EB035120EE101B372A0CD3002049
:1032200001F0004141EC100BC0E710EE100B50EA2A
:10323000410018D0372AF2D2C2EB5C0211050020FF
:1032400041EC110BF1EE100A20F01F0121F4F851AE
:10325000E1EE101A20EE010BF1EE101AE1EE100A69
:1032600011F0080FA2D170472DE9F04798460027CA
:103270000646384606F8010B002AD1E900452BD056
:1032800001468D4201D184422DD0002001468D425D
:1032900001D1844257D02046294642464FEAE8737E
:1032A00000F026FC4FEAE879A8FB002308FB013375
:1032B00009FB0033A21A65EB03030025AB4201DCD6
:1032C00002DB01D3303201E0D243313204460D46F5
:1032D00006F8012B7F1CD8E7DDF820A001468D42BF
:1032E00012D1844210D13020307001202CE06122B4
:1032F00003E05246002AFAD041220A3AA2180446B4
:103300000D4606F8012B7F1C002001468D4201D19D
:10331000844218D02046294642464FEAE87300F01E
:1033200009FC4FEAE879A8FB002308FB013309FBFD
:103330000033A41A9D41002DDBD801D30A2CD8D22A
:1033400004F13002DBE73846BDE8F0872DE9F843A9
:103350002DED068B82B00546164698460024204681
:1033600005F8010B91ED009B9FED5A1BB4EE419BBC
:10337000F1EE10FA03D130202870012083E0684676
:10338000B0EE490B00F0EEFCB0EE401B204600EE24
:10339000106A04E0B8EEC02B22EE011B401C404531
:1033A000F8D310EE107A08EE108A9FED4A2BB4EE97
:1033B000429BF1EE10FA17DBB6EE002B31EE029BCA
:1033C000B8EE481BB2EE040BFFF7CEFAB4EE409B0A
:1033D000F1EE10FA21DB9DED000BB7EE002B30EE85
:1033E000020B8DED000B18E0BEEE002B31EE029BC0
:1033F000B8EE481BB2EE040BFFF7B6FAB1EE400B85
:10340000B4EE490BF1EE10FA07DB9DED000BBFEEB9
:10341000002B30EE020B8DED000B264608EE907A65
:1034200018EE107A18EE908A4FEAE879BE423FD241
:10343000B8EEE80B89EE00AB51EC1A0B00F0FEFC85
:1034400002460B46A8FB020108FB031109FB02110F
:1034500000F022FD41EC100B39EE400BBDEEC00B2D
:1034600010EE100A002801D4303001E0C0433130A2
:10347000B0EE4A9B05F8010B641C761CD6E73020A1
:103480002870641C204602B0BDEC068BBDE8F283B8
:10349000303208E090FBF1F3024601FB1322002AD0
:1034A000F6D5D2433132184605F8012B641C0DE0E5
:1034B00018EE901A2E2005F8010B641C9DED000BF0
:1034C000BDEEC00B10EE100A0028D8D00028D9D0CD
:1034D000E0E7000000000000000000002DE9FE4FC2
:1034E00094B08846002100910C4601910A460B4693
:1034F000CDE904230290EAE201234A4601A9159886
:10350000169DA847E0E246F00106002840F0AB8295
:1035100012F8011F20290BD023290FD02B2904D00A
:103520002D29F0D0302906D00BE046F00206ECE75A
:1035300046F00406E9E746F00806E6E746F010061E
:10354000E3E7521E2846E0E703EB8307303901EB3F
:1035500047010B46002840F0898212F8011FA1F1B3
:1035600030070A2FF0D32A2902D158F8043BF1E79B
:10357000521E2846EEE703EB8301ACF1300C0CEB56
:10358000410C63462946002840F07E8212F801CFA4
:10359000ACF1300EBEF10A0FEDD3BCF12A0F03D10E
:1035A00058F8043B2946EEE7521E2846EBE7501E2A
:1035B000029002984078682802D06C280FD01CE056
:1035C0000298801C02900078682805D046F04006DA
:1035D0000298401E029010E046F020060DE002988E
:1035E000801C029000786C2805D046F08006029876
:1035F000401E029001E046F480760298401C029042
:1036000090F80090B9F1640F1BD0B9F1690F18D090
:10361000B9F1660F15D0B9F1460F12D0B9F1780F94
:103620000FD0B9F1580F0CD0B9F16F0F09D0B9F123
:10363000620F06D0B9F1700F03D0B9F1750F40F0E9
:10364000C981B9F1640F02D0B9F1690F6DD1F005EC
:1036500008D508F1070828F00708F8E80201CDE9C5
:10366000060104E058F8040BC117CDE9060128460D
:1036700000900A23024606A90BA8FFF7F5FD0446B1
:103680000BA820440090DDE9062300218B4205DCD5
:1036900000DB03D24FF02D0A641C0CE0B00703D509
:1036A0004FF02B0A641C06E0700703D54FF0200A88
:1036B000641C00E08A468B46300714D5BAF1000F2F
:1036C00007D02B465046024601A91598DDF858C090
:1036D000E047AB463C1B2346302201A91598169CB7
:1036E000A0473C4614E0F00712D43B1B202201A95E
:1036F0001598DDF858C0E047BAF1000F07D02B4607
:103700005046024601A91598DDF858C0E047AB467F
:10371000BBF1000F09D1BAF1000F06D02B4652467B
:1037200001A91598DDF858C0E047B9F1660F02D03D
:10373000B9F1460F6DD108F1070828F0070898ED98
:10374000000B08F108088DED080B0A9B0A2208A956
:103750000BA8FFF7FBFD04460BA8204400909DED4D
:10376000080B9FED052BB4EE420BF1EE10FA07D5D6
:103770004FF02D0A641C11E0000000000000000062
:10378000B00703D54FF02B0A641C07E0700703D580
:103790004FF0200A641C01E04FF0000A4FF0000BCC
:1037A000300714D5BAF1000F07D02B465046024619
:1037B00001A91598DDF858C0E047AB463C1B2346ED
:1037C000302201A91598169CA0473C4614E0F0074A
:1037D00012D43B1B202201A91598DDF858C0E04700
:1037E000BAF1000F07D02B465046024601A91598A2
:1037F000DDF858C0E047AB46BBF1000F09D1BAF184
:10380000000F06D02B46524601A91598DDF858C086
:10381000E047B9F1580F02D0B9F1780F7DD1B9F175
:10382000780F01D100200546F00508D508F10708FA
:1038300028F00708F8E80201CDE9040104E058F88F
:10384000040B0021CDE9040128460090102300223A
:1038500004A90BA8FFF708FD04460BA8204400901C
:103860004FF0000A30071ED5F00613D50123302291
:1038700001A91598DDF858C0E047280001D058226A
:1038800000E07822012301A91598DDF858C0E0472F
:103890004FF0010A3C1B2346302201A91598169CC3
:1038A000A0473C4621E0F0071FD4F00600D5A41C39
:1038B0003B1B202201A91598DDF858C0E047F0060F
:1038C00013D50123302201A91598DDF858C0E0472F
:1038D000280001D0582200E07822012301A9159880
:1038E000DDF858C0E0474FF0010AF00615D5BAF1EF
:1038F000000F12D10123302201A91598DDF858C01C
:10390000E047280001D0582200E07822012301A9D5
:103910001598DDF858C0E047A41CB9F16F0F08D026
:10392000B9F1620F05D0B9F1700F02D0B9F1750F7E
:103930003CD1F00508D508F1070828F00708F8E899
:103940000201CDE9040104E058F8040B0021CDE99F
:103950000401B9F16F0F01D108230AE0B9F1620F38
:1039600001D1022305E0B9F1700F01D1102300E06D
:103970000A230095002204A90BA8FFF775FC044652
:103980000BA820440090300708D53C1B234630226A
:1039900001A91598169CA0473C4607E0F00705D4FE
:1039A0003B1B202201A91598169DA84700980028C6
:1039B00000F08180DDF85490DDF858A083469BF834
:1039C0000000002864D001231BF8012901A9484602
:1039D000D047F4E7B9F1630F09D158F8040BC0B22E
:1039E0002B46024601A91598169DA8476CE0B9F12F
:1039F000730F7FF481AD58F8040B0390002863D057
:103A00005046002801D00A9C03E0039800F06EFAAB
:103A10000446F00705D43B1B202201A91598169DEA
:103A2000A847BAF1000FDDF85490DDF858A036D160
:103A3000039DDDF800B02878002829D0012315F86F
:103A4000012B01A94846D047F5E7012C2DDB0123C6
:103A50001BF8012B01A94846D047641E21E00198BC
:103A600017B0BDE8F08F0023184673E51F46062007
:103A70000A904FF0000A12F8010F2E287FF497AD3C
:103A80005346184651467EE502920A938A4690E5CF
:103A9000CDF85490CDF858A0CDF800B00BE0DDF88B
:103AA0000CB09BF800000028CFD1CDF85490CDF891
:103AB00058A00A98041BF00706D53F1B3B4620225E
:103AC00001A91598169EB0470298401C02900298D2
:103AD00090F80090B9F1000FC1D0B9F1250F7FF433
:103AE0000BAD0120054600263046029A0DE5000088
:103AF00013F0004C03D55B42524263F100039CEA91
:103B0000210C00F0178010B5644603D349424042AF
:103B100061F1000100F00EF8640004D34942404214
:103B200061F10001244203D55B42524263F100037C
:103B300010BD0000BBBBE1B1B2F5803F80F07E80DC
:103B4000022A1ED98C46B1FBF2F102FB11C31B0401
:103B500043EA1043B3FBF2FC02FB1C3380B240EAA1
:103B60000343B3FBF2F002FB103240EA0C400023A7
:103B70007047022A05D98446B0FBF2F002FB10C25E
:103B800070474AB105D100F0010249085FEA3000F0
:103B9000704700220023704700F0C4B90B000200F8
:103BA000002100207047904271EB030CF6D3B3F56F
:103BB000803F2FD2F0B5B3FA83F7B1FA81F4A7F1C1
:103BC0000F0E3D1B5340CEF1200602FA0EF2F341D8
:103BD0005340B5F10F0746D80F3C2C444140C4F187
:103BE0002006A040F1414140B1FBF3F603FB161162
:103BF000A2FB0645001BA94102D2761E801859413E
:103C000080EA010221FA0EF362FA0EF200215A4014
:103C10003046F0BD30B4B1FBF3FC03FB1C11A2FB3A
:103C20000C45001BA94103D2ACF1010C801859418D
:103C300030BC02460B46604600217047B2F1807FDF
:103C400065D3F0B5B2FA82F7B1FA81F4C7F10F0685
:103C50003D1B22FA06F307F1110EF24120355A40BE
:103C6000B5F10F07B8D94140C4F12006A040F14199
:103C70004140B1FBF3FC03FB1C11A2FB0C45001BF4
:103C8000A94103D2BCF1010C801859410F2F12D366
:103C90000F3FC90341EA5041B1FBF3F603FB161194
:103CA000A2FB0645D4EBC030A94102D2761E801893
:103CB000594146EACC3C07B34140C7F12006B84021
:103CC000F1414140B1FBF3F603FB1611A2FB06459F
:103CD000001BA94102D2761E8018594180EA0102D8
:103CE00021FA0EF3C7F1200462FA0EF20CFA07F083
:103CF0005A402CFA04F13043F0BD80EA010221FA67
:103D00000EF3002162FA0EF260465A40F0BD8C4676
:103D1000B1FBF2F102FB11C31B0243EA1063B3FBD8
:103D2000F2FC02FB1C331B024CEA002043EA106346
:103D3000B3FBF2FC02FB1C331B024CEA002043EAFB
:103D40001063B3FBF2FC02FB1C331B024CEA0020A5
:103D500043EA1063B3FBF2FC02FB1C324CEA002086
:103D6000002370470246F44600F004F882ED001B81
:103D7000604700BF30EE101BC1F30A53A3F57C73FC
:103D80000E3BCCBFD3F1350027E0B3F1150012DABA
:103D90006FF000000B33D84021EA0003002043EC11
:103DA000110B30EE410B01F0004130EE100B0843D7
:103DB00020EE100B70476FF00003C34010EE100BA5
:103DC000984341EC110B30EE410B01F0004130EE15
:103DD000100B084320EE100B70470020352BBEBFA0
:103DE00001F0004141EC110B0AE0B0EE401B4FF432
:103DF000001313EB410F9CBF01F0004141EC100B8D
:103E0000704730B4002513E050F8042BD30744BFAB
:103E1000A9F101039A18091F042942F8045BFAD298
:103E200013468C0744BF15809B1CC90748BF1D70F3
:103E300050F8041B0029E7D130BC7047C1F30A5386
:103E400040F2FE329B1A24DDCA17C902D3F12003C7
:103E500041EA505141F0004104DDD94088185040FA
:103E60001146704720330CDDC002C3F1200C01FA6B
:103E70000CFCD940D840604480185141504051401A
:103E8000704740F2C1301B1803D0D04380F000418E
:103E90007047002000217047CB17C0185941584087
:103EA0005940DB07A1B1B1FA81F241409040C2F123
:103EB0002002D141414002F21D4243EA025CC30AA2
:103EC000420572F1004253EB41504CEBD121704757
:103ED00050B1B0FA80F29040C4F2D011A1EB02527E
:103EE00002EBD021194340057047FEE700F10103C2
:103EF000810704D010F8011B820781B1FAD1026852
:103F0000A2F10131914311F0803104BF50F8042F28
:103F1000F6E709BAB1FA81F100EBD100401CC01AF2
:103F20007047FEE77047FEE7090110EB115000688B
:103F3000000C00F0010070470A46120110EB12500D
:103F4000006801F01F01C84000F001007047DFF871
:103F500064040068C00602D5DFF85C047047DFF82F
:103F60005C0400687047090110EB11500068C0F351
:103F70008130002800D1EAE7002070474FF400406C
:103F8000704710B5DFF8384420688001DFF834044A
:103F900000681ED510F4405006D0B0F5805F08D000
:103FA000B0F5005F08D00CE0DFF81C0400F0E7F883
:103FB00008E0FFF7CCFF05E0DFF8100400F0DFF8C1
:103FC00000E000202168C1F3C261491CB0FBF1F0A0
:103FD00010BD10F4402009D0B0F5802F0BD0B0F503
:103FE000002F0CD0B0F5402F0DD018E0DFF8DC0327
:103FF000BDE81040C3E00220BDE8104082E100208F
:10400000BDE810407EE10D2000F0B9F8DFF8C013E4
:10401000096801F00701491CB0FBF1F010BD002058
:1040200010BD000010B5152800F28F80DFE800F009
:104030000B0B162F4043464A4F53575B5F64696D25
:104040007175797E8388FFF79CFFDFF87413096828
:10405000C1F38221491CB0FBF1F010BDDFF86043D1
:10406000206840060AD52068000603D5012000F02C
:1040700075F905E0022000F045F901E0FFF781FF46
:104080002168C1F30241491CB0FBF1F010BDFFF7FC
:1040900078FFDFF82C130A68C2F38222521CB0FBAF
:1040A000F2F00968C1F30121491CB0FBF1F010BD29
:1040B000BDE810404BE7BDE810405FE70D20BDE8CC
:1040C00010405CE0DFF80003BDE8104057E000203E
:1040D000BDE8104042E10120BDE810403EE1022071
:1040E000BDE810403AE10320BDE8104036E1DFF8BA
:1040F000E402BDE8104042E0DFF8D002BDE8104025
:104100003DE00020BDE81040FCE00120BDE810408B
:10411000F8E00220BDE81040F4E00320BDE81040C4
:10412000F0E0DFF8B402BDE8104028E0DFF8AC02B0
:10413000BDE8104023E0DFF8A802BDE810401EE013
:10414000DFF8A002BDE8104019E0002010BDDFF844
:104150009812007800F07F0040F400500860086872
:104160000028FCD57047DFF88412007800F00100C9
:1041700040F40050086008680028FCD5704770B50E
:104180000546DFF8646229463046FFF7D5FE002871
:1041900001D1002070BD29463046FFF7E4FE0446F9
:1041A00029463046FFF7C0FE002840F0A8800D3DAC
:1041B00018D04FF480102D1A32D02D1A00F09580AF
:1041C0002D1A15D04FF480002D1A33D04FF4401023
:1041D0002D1A5AD04FF480002D1A7CD0083D00F0E3
:1041E00082808BE0306800F07F004443640886E002
:1041F000DFF828020068A0FB0401DFF8242212681F
:104200000023FFF797FCDFF8E4211268D20702D5FC
:104210001622544302E004EB8402940004196EE079
:10422000DFF8CC010068800701D5162000E01420DB
:10423000444364E0DFF8D0512E6806F07F06DFF8D3
:10424000B8010068A0FB0401DFF8B0211268002368
:10425000FFF770FC06FB0404286810F4C01003D0BC
:10426000B0F5002F02D002E0A40800E06408DFF8F7
:1042700094010168DFF888010140B1F5004F02D0D8
:10428000814226D03BE0640839E0624D2E6806F09A
:104290007F065E480068A0FB04015D4A12680023A7
:1042A000FFF748FC06FB0404286810F4C01003D094
:1042B000B0F5002F02D002E0A40800E064085148E5
:1042C000006800F04040B0F1804FDCD0B0F1404FCA
:1042D00015D1A40813E05048006800F003005149CC
:1042E00051F820400BE0504C09E04248006880073C
:1042F00001D5162000E01420444300E000242046AD
:1043000070BD000010B504463048FFF738FF032C9D
:104310001FD8DFE804F0020910174449096801F0CA
:104320003F01B0FBF1F015E040490968C1F30521F8
:10433000B0FBF1F00EE03D490968C1F30541B0FB67
:10434000F1F007E039490968C1F30561B0FBF1F00C
:1043500000E0002000EBC001480010BD10B504468D
:104360001948FFF70CFF032C1FD8DFE804F00209FF
:1043700010172F49096801F03F01B0FBF1F015E07B
:104380002B490968C1F30521B0FBF1F00EE0284983
:104390000968C1F30541B0FBF1F007E02449096861
:1043A000C1F30561B0FBF1F000E0002000EBC001BB
:1043B000480010BD70820D4000366E0104000020E0
:1043C00014C00F4018C00F400D0010000D00300049
:1043D00010C00F400D0020000D00E0001500E000AF
:1043E0000D0070000D00A00000800D4030800D40D9
:1043F00010800D4020800D4080800D4090800D4049
:104400000080800070810D4070800D40B0800D40B4
:10441000C0800D40A0800D40E0800D4050800D40D8
:1044200060800D40D861006040787D0100810D40C2
:10443000F0800D4070B504460D462646360A04F05D
:104440001F04072E09D340F27532DFF80014DFF89D
:10445000000400F063FAAFF30080DFF8F80300EB2C
:10446000860001680322A240914305FA04F40C433C
:10447000046070BD0321DDE7816841F002018160C5
:10448000816821F002018160704710B50024092C79
:1044900007D2DFF8C41351F82410814201D0641C04
:1044A000F5E7092C08D39022DFF8B013DFF8DC031E
:1044B00000F034FAAFF30080204610BD2DE9F04142
:1044C00006460C461546002C08D1E722DFF88C136F
:1044D000DFF8A80300F022FAAFF30080206800287C
:1044E00008D1E822DFF87413DFF8A40300F016FA0D
:1044F000AFF30080207A052808DBEA22DFF85C139E
:10450000DFF8900300F00AFAAFF30080607A052824
:1045100008DBEB22DFF84413DFF8880300F0FEF934
:10452000AFF3008021684FF00008474604222FE0D7
:104530005043B5FBF0F003469BB2002B00D10120A5
:1045400003469BB25343B5FBF3FC2368ACEB030378
:10455000D4F800C086461FFA8EFE0EF1010E0EFB47
:1045600002FEB5FBFEFEACEB0E0C9C450AD2D4F865
:1045700000C003469BB25B1C5343B5FBF3F3ACEBAB
:104580000303401C994202D3194690460746521C29
:10459000212A2068CCD36422B0FBF2F000EB40006B
:1045A000884202D240F2215091E035462846FFF77A
:1045B0006CFFDFF8281331F91000FFF75BFF284686
:1045C000FFF75AFF2969A8F10400042801D241F439
:1045D0000031DFF80C030140A8F101084FEA086838
:1045E00008F0F85848EA0108BFB2C7F30C0747EAD9
:1045F0000808C5F81080286920F000502861A969D2
:10460000DFF8E00201402079E27B120202F4E0626E
:104610001043A27B920002F0040210430143607930
:104620000128207907D1002802D021F4006106E09A
:1046300041F4006103E0002801D041F01001A961BC
:10464000286920F40050E179490301F4005108433E
:104650002861607A217A41EA0041E962A86A40F063
:104660008800A862A86A40F44040A862DFF8781287
:10467000686A627B120102F01002237B5B0103F087
:1046800020031A4310436862A07A002803D0686AA6
:1046900040F008006862E07A002803D0686A40F0C1
:1046A00001006862A079002801D0DFF84012686933
:1046B00001436961A969207C002801D041F40021EF
:1046C000607C002801D041F48021A9610020BDE870
:1046D000F08110B5040009D140F2E512DFF87C1139
:1046E000DFF8980100F01AF9AFF300804FF4E130E1
:1046F0002060002020716071A071E07120726072F2
:10470000A072E07260732073A073E0732074607411
:1047100010BD01464869896A090C01F0C3010843CC
:10472000704710B50C46816A21F44031220402F42E
:104730004032114381624269DFF8B4110A40DFF868
:10474000A81121400A434261FFF7E3FF044202D06F
:1047500040F21A5010BD002010BD70B505460C4641
:104760001646002C10D14FF42B72DFF8F010DFF852
:104770005C0100F0D3F8AFF3008005E06869000247
:10478000FCD514F8010BE8613046461E0028F5D12F
:1047900070BDF8B507460D461646002D09D140F20A
:1047A000BB22DFF8B810DFF8240100F0B7F8AFF350
:1047B0000080B969080504D440F6120001400229BE
:1047C00001D1012405E0002403E000F07F0005F89A
:1047D000010B3046461E00282FD0F86AC0F3026055
:1047E00000282CD13846FFF794FF01030DD4410374
:1047F00013D4810319D4C003EFD54FF48031384668
:10480000FFF78FFF4FF4A460F2BD4FF4002138464C
:10481000FFF787FF40F21D50F2BD4FF4802138466C
:10482000FFF77FFF40F21E50F2BD4FF400313846D3
:10483000FFF777FF40F21F50F2BD0020F2BD002CC1
:10484000F869C2D105F8010BC3E70000F85B00600E
:104850003462006068C00F40845F0060885C006064
:10486000244841682548244A126810472148816835
:104870002348214A12681047000000006862006067
:104880001C48C1681F481C4A12681047345E00600B
:10489000AC610060F45F0060164801691A48164A6E
:1048A0001268104714600060124841691748124AA4
:1048B000126810470F48816915480F4A126810475F
:1048C0000C48C16913480C4A1268104760620060C6
:1048D0000848016A1048084A12681047C46100601D
:1048E00000E0FFE0E8F8FFFF00C01FC000C01FE0CD
:1048F000FF3FE03F14000020380000200040184037
:104900000080184000C018400000194000401940C5
:104910000080194000C0194000001A4080B51346BD
:104920000A460146024800F021F800BEFDE700BF3C
:10493000B05E0060F8B504460D4616461F463000CE
:1049400006D1692207490848FFF7E8FFAFF3008066
:104950003B462A463146204601B0BDE8F04000F013
:104960003BB800001C590060E86100600EB418B547
:10497000A0B004466846802100F05EF823A90FF23B
:104980001D036A462046FEF7A9FD0146684600F071
:1049900030F821B010BC5DF810FB00002DE9F041AB
:1049A00004460D4616461F464FF0000810E02868E2
:1049B000401C802805D32968204600F01AF8002002
:1049C0002860286826542868401C286008F10108DF
:1049D000B845ECDBBDE8F0811CB514461A460090E2
:1049E0008DF8041000232146684600F03FF80020AF
:1049F00016BD38B504460D46002C07D140F23F12D3
:104A00000B490C48FFF78AFFAFF300802946204688
:104A1000BDE8344010B50C0007D0002805D00122B5
:104A200000F04DF8002800D00024204610BD000002
:104A3000B459006028620060002200F05BB8FEE715
:104A40000029816903D041F400218161704721F47C
:104A50000021816170470029816903D041F48021E0
:104A60008161704721F4802181617047F0B585B084
:104A700004460D461646002C06D1F0221A491B4862
:104A8000FFF74CFFAFF30080194F20793871206891
:104A900038603879022810D16846FFF71AFE009571
:104AA000324669463868FFF709FD01213868FFF78B
:104AB000C7FF01213868FFF7CEFF05B0F0BD38B55C
:104AC00000240B4B1D79022D0BD1002A0A4601460A
:104AD000186802D0FFF741FE04E0FFF75AFE0446D3
:104AE00000E00124204632BD685B0060586200602F
:104AF0000C00002000B500BF130096469446103904
:104B000028BFA0E80C50FAD85FEA417C28BF0CC04F
:104B100048BF40F8042BC90728BF20F8022B48BF24
:104B200000F8012B00BDFEE770B50446A40EB64A9E
:104B300000F0FF03D3181B68C0F34C350646360A55
:104B400006F01F06B540AB4301EA5031C1F30C013A
:104B500005462D0A05F01F05A940194300F0FF0086
:104B600010180160212C07D340F22E32A749A84823
:104B7000FFF7D4FEAFF30080202C04D0A5480068D6
:104B8000E040C007FAD470BD70B50446A40E9E4A3A
:104B900000F0FF03D3181B68C0F34C350646360AF5
:104BA00006F01F06B540AB4301EA5031C1F30C01DA
:104BB00005462D0A05F01F05A940194300F0FF0026
:104BC00010180160212C07D340F253328F499048CE
:104BD000FFF7A4FEAFF30080202C04D08D480068BE
:104BE000E040C007FAD470BD8B49086070478B491C
:104BF0000860704738B54FF40040FFF7F8FF884869
:104C0000FFF7F2FF874C01212046FFF78DFF864D0D
:104C100001212846FFF788FF8448016849094901B6
:104C200041F012010160824800680028FBD58148EC
:104C3000FFF78DFA8048FFF796FA8048016841F443
:104C4000005101607E48016841F4005101607D48D7
:104C5000016841F400510160016841F400110160F4
:104C600000212046FFF760FF00217748FFF78CFF07
:104C700000212846FFF758FF00217448FFF784FF02
:104C800003217348FFF780FF01217248FFF77CFF83
:104C900003217148FFF748FF01217048FFF774FFB7
:104CA00000216F48FFF740FF00216E48FFF73CFFEF
:104CB00001216D48FFF768FF00216C48FFF734FFC2
:104CC00001216B48FFF760FF00216A48FFF72CFFC6
:104CD00001216948FFF728FF01214FF21400FFF777
:104CE00053FF00216548FFF71FFF01216448FFF7CC
:104CF0004BFF02216348FFF717FF04216248FFF7CB
:104D000043FF02216148FFF70FFF02216048FFF7D0
:104D10003BFF00215F48FFF707FF03215E48FFF7D5
:104D200033FF01215D48FFF72FFF00215C48FFF7AB
:104D3000FBFE03215B48FFF727FF01215A48FFF7DD
:104D400023FF00215948FFF7EFFE03215848FFF7E2
:104D50001BFF01215748FFF717FF00215648FFF7B7
:104D6000E3FE00215548FFF70FFF02215448FFF7EB
:104D7000DBFE01215348FFF707FF00215248FFF7F0
:104D8000D3FE00215148FFF7FFFE05215048FFF7F1
:104D9000CBFE01214F48FFF7F7FE03214E48FFF7F6
:104DA000F3FE03214D48FFF7BFFE01214C48FFF7FA
:104DB000EBFE07214B48FFF7E7FE03214A48FFF7C8
:104DC000B3FE01214948FFF7DFFE07214848FFF7FE
:104DD000DBFE03214748FFF7A7FE01214648FFF706
:104DE000D3FE07214548FFF7CFFE00214448FFF7D7
:104DF0009BFE444801684909490101604248434912
:104E0000086031BD0000000000C00F40485A00603B
:104E10007C61006048C00F400400002008000020B2
:104E200000366E01186C0080143900140C00084024
:104E300000000840E8630060F861006070800D4089
:104E4000A0800D40E0800D4014FB008014EA0004B7
:104E50001468008010E00040187200801CE0078099
:104E60001C2600801C30008024EB00801C31008058
:104E700024F0008014270080142600803C69008004
:104E80003CEB00801864008018FA0080186E0080E7
:104E9000247900801C6A008028E6008028E00780D2
:104EA0001C6C00802CE600802CE007801C6E0080CB
:104EB00028F6008028F007803832008038F3078019
:104EC0002068008020E207802426008024E00780FC
:104ED00038EF008038EC008018F7008030740080D4
:104EE00030F9008030F600803067008030EC0080C0
:104EF00030E900802073008028E9008028F90080D4
:104F00000C20008060810D400046C323000000207B
:104F1000BFF34F8FBFF36F8F40F0010092490860DD
:104F20009248016841F4803101607047BFF34F8FB0
:104F3000BFF36F8F8D48016821F4803101608A488A
:104F400001684908490001607047BFF34F8FBFF304
:104F50006F8F002086490860BFF34F8FBFF36F8FBC
:104F60008448016841F400310160BFF34F8FBFF303
:104F70006F8F7047BFF34F8FBFF36F8F7D4801680E
:104F800021F400310160002079490860BFF34F8FA0
:104F9000BFF36F8F704710B4002077490860BFF3EC
:104FA0004F8F76480168C1F34E32754CC1F3C90387
:104FB00043F6E07000EA421040EA83702060184631
:104FC000431E0028F4D11046421E0028EED1BFF344
:104FD0004F8F6848016841F480310160BFF34F8F03
:104FE000BFF36F8F10BC704710B400206249086097
:104FF000BFF34F8F5F48016821F480310160BFF338
:105000004F8F5E480168C1F34E325E4CC1F3C90355
:1050100043F6E07000EA421040EA837020601846D0
:10502000431E0028F4D11046421E0028EED1BFF3E3
:105030004F8FBFF36F8F10BC7047014601F0FF0028
:1050400000F1804000F57C200068C1F34C320B4633
:105050001B0A03F01F039A401040090A01F01F01C8
:10506000C8407047014601F0FF0000F1804000F5A4
:105070007C200068C1F34C320B461B0A03F01F036F
:105080009A401040090A01F01F01C84070473E488D
:105090000068C00601D53D4870473D48006870472C
:1050A00010B53C48FFF7C9FF00280CD13A48FFF77C
:1050B00066F80621B0FBF1F43848FFF7D3FF401C37
:1050C000B4FBF0F010BDFFF7E2FF04463348FFF7F2
:1050D000C9FF401CB4FBF0F010BD80B5FFF7E0FF46
:1050E000034602224FF4E1312D48BDE80050FFF79E
:1050F00021BC10B51F4C2068800301D5FFF73AFF93
:105100002068C00301D5FFF76FFFFFF70FFF2548A9
:10511000254901602549264A0A60264A0260264A36
:105120000A60264B0360264B0B60132303600A6062
:1051300014220260234A0A60234B03600A60234A58
:105140000260234A0A60234A0260234A0A60234A13
:105150000260234808600420FFF7DAFEFFF71BFF18
:10516000BDE81040F1E6000094ED00E024ED00E021
:1051700050EF00E014ED00E084ED00E080ED00E091
:1051800060EF00E074EF00E070820D4000366E01C9
:1051900004000020242600800D00100024E0078079
:1051A000004018409CED00E0100000C0A0ED00E0C1
:1051B00039001003110000803B0010031200006052
:1051C00039000303210003031500002016002020EE
:1051D0002300030317000080310003031800E0815F
:1051E0002900080381B000210091009103E000BF75
:1051F0000099491C009100998142F8D301B0704791
:1052000038B5FFF776FF00F041F9FFF7F3FCFFF741
:1052100064FF77A0FFF7AAFB7648FFF7A7FB002003
:10522000FEF700FF01467448FFF7A0FB0120FEF7E0
:10523000F9FE01467148FFF799FB0220FEF7F2FEE6
:1052400001466F48FFF792FB0D20FEF7EBFE01468B
:105250006C48FFF78BFB0E20FEF7E4FE01466A4820
:10526000FFF784FB0F20FEF7DDFE01466748FFF7DE
:105270007DFB1020FEF7D6FE01466548FFF776FB62
:105280001120FEF7CFFE01466248FFF76FFB624830
:10529000FFF76CFB00F0D6F9604C614D206820F4FC
:1052A000007020602846FFF79DFF206820F0807086
:1052B00020602846FFF796FF206840F0807020604D
:1052C0002846FFF78FFF206820F0007020602846F6
:1052D000FFF788FF206840F0007020602846FFF745
:1052E00081FF206820F4806020602846FFF77AFF65
:1052F000206840F4806020602846FFF773FF206834
:1053000020F080702060206840F0007020602068ED
:1053100040F4806020602846FFF764FF206840F07A
:1053200080702060206820F000702060206840F4C9
:10533000806020602846FFF755FF206840F08070AD
:105340002060206840F000702060206820F48060B9
:1053500020602846FFF746FF206820F0807020601C
:10536000206820F000702060206840F48060206099
:105370002846FFF737FF206820F080702060206803
:1053800040F000702060206820F480602060284693
:10539000FFF728FF206840F080702060206820F030
:1053A00000702060206820F4806020602846FFF7AD
:1053B00019FF206820F080702060206820F00070C5
:1053C0002060206820F4806020602846FFF70AFFF4
:1053D000206840F080702060206840F000702060FD
:1053E000206840F4806020602846FFF7FBFE55E708
:1053F0000D0A0000DC5E00609C600060B860006028
:10540000D4600060F06000600C61006028610060A2
:1054100044610060606100603460006000801B4097
:10542000801D2C0470B504460D462646360A04F04D
:105430001F04072E07D340F275322E492E48FFF77E
:105440006DFAAFF300802D4800EB8600016803225F
:10545000A240914305FA04F40C43046070BD03219B
:10546000E0E710B4029C01F00701240104F01004ED
:1054700021430160002A00D0136010BC70470098DF
:10548000002801D001990160704700002DE9FC411E
:1054900040F20240FFF7E3FF194C1A4D0020019043
:1054A00000950346024602212046FFF7DAFF164E1A
:1054B000164F002001900097034602460221304615
:1054C000FFF7CFFF41F2B008CDF80480009500232C
:1054D0001A4602212046FFF7D2FFCDF8048000973C
:1054E00000231A4602213046FFF7C9FFBDE8F381C9
:1054F00000000000185D00604062006068C00F405E
:10550000EC801F40DC821F40F0801F40E0821F4083
:1055100010B4029C01F00701240104F0100421439F
:105520000160002A00D0136010BC7047009800286A
:1055300001D0019901607047E0B500200190384822
:10554000009000231A4605213648FFF7E1FF0020AE
:1055500001903548009000231A4605213348FFF793
:10556000D7FF002001903248009000231A46052101
:105570003048FFF7CDFF002001902F480090002316
:105580001A4605212D48FFF7C3FF07BDE0B5B0203F
:1055900001902348009000231A4605212148FFF777
:1055A000C5FFB02001902048009000231A46052135
:1055B0001E48FFF7BBFFB02001901F48009000235A
:1055C0001A4605211D48FFF7B1FFB0200190184889
:1055D000009000231A4605211648FFF7A7FF07BDD4
:1055E0001CB501208DF800008DF8010000208DF819
:1055F0000200134C6A460921204600F061F86A4611
:105600001821204600F05CF86A461921204600F077
:1056100057F86A460A21204600F052F813BD0000F0
:10562000D0821F40E0801F400C831F401C811F4020
:10563000D4821F40E4801F4010831F4020811F4000
:1056400000801B4080B5FFF777FFFFF79FFFBDE8A5
:105650000140C5E770B504460D462646360A04F0FB
:105660001F04072E07D340F2753238493848FFF738
:1056700055F9AFF30080374800EB8600016803223C
:10568000A240914305FA04F40C43046070BD032169
:10569000E0E76BE010B50024062C06D22E4951F845
:1056A0002410814201D0641CF6E7062C06D34E225A
:1056B0002A492B48FFF732F9AFF30080204610BD8E
:1056C000F8B504460D461646FFF7E4FF254931F9C3
:1056D0001000FFF7DCFF0127616907FA05F081433D
:1056E00061613078002805D16068AF4020EA070783
:1056F000676008E072782946204600F00AF8606882
:10570000AF4007436760B27829462046BDE8F840BD
:10571000BFE770B504460D461646202D06D36E220F
:105720000E491148FFF7FAF8AFF30080002E206809
:1057300006D1012101FA05F520EA0505256070BDB5
:10574000012101FA05F50543256070BDD85A0060B6
:105750000462006068C00F4094610060A85D006052
:10576000745E00601C6200601062006070B40C46E1
:105770000125C66905FA01F39E43C661102902D2CC
:1057800000F10C0302E000F11003103C521E042A49
:105790002AD8DFE802F0030A131D24001968032247
:1057A00060008240914319601EE019680322600086
:1057B0008240914385400D431D6015E01968032226
:1057C00060008240914302228240114319600BE045
:1057D00019680322600082401143196004E0C26925
:1057E00005FA01F11143C16170BC7047BFF34F8FDF
:1057F000BFF36F8F00203B490860BFF34F8FBFF3AB
:105800006F8F3948016841F400310160BFF34F8F59
:10581000BFF36F8F704710B4002034490860BFF3A6
:105820004F8F33480168C1F34E32324CC1F3C90384
:1058300043F6E07000EA421040EA837020601846A8
:10584000431E0028F4D11046421E0028EED1BFF3BB
:105850004F8F2548016841F480310160BFF34F8FBD
:10586000BFF36F8F10BC704710B52348016841F437
:105870007001016021490888400704D50A884FF665
:10588000FB7002400A801E490888400704D50A8838
:105890004FF6FB7002400A801A481B4908604FF619
:1058A000FF701A4908601A48016821F0800141F030
:1058B0002001016017480168C90703D5016849083C
:1058C00049000160084C2068800301D4FFF78EFF77
:1058D0002068C00301D4FFF79EFFBDE8104000F030
:1058E0001BB8000050EF00E014ED00E084ED00E094
:1058F00080ED00E060EF00E088ED00E000800B400C
:1059000000000D4020C528D904C00B4008C00B4042
:1059100000C00B4010E000E07047FEE7443A5C72C4
:1059200065735F692E6D7872745CE9878EE781AB71
:10593000692E4D582B525431303532E5BC80E58FFD
:1059400091E69DBF5CE9878EE781AB692E4D5820BB
:10595000525431303532E6A0B8E5BF83E69DBF5CD6
:10596000362D4750494FE8BE93E587BAE28094E46C
:10597000BDBFE794A8E59BBAE4BBB6E5BA93E7825E
:10598000B9E4BAAE4C4544E781AF5C6C69627261C0
:10599000726965735C7574696C69746965735C665A
:1059A000736C5F64656275675F636F6E736F6C6560
:1059B0002E630000443A5C7265735F692E6D7872E5
:1059C000745CE9878EE781AB692E4D582B525431B8
:1059D000303532E5BC80E58F91E69DBF5CE9878E6E
:1059E000E781AB692E4D5820525431303532E6A054
:1059F000B8E5BF83E69DBF5C362D4750494FE8BEF2
:105A000093E587BAE28094E4BDBFE794A8E59BBA2A
:105A1000E4BBB6E5BA93E782B9E4BAAE4C4544E7D5
:105A200081AF5C6C69627261726965735C7574697F
:105A30006C69746965735C6C6F675C66736C5F6CD2
:105A40006F672E6300000000443A5C7265735F6903
:105A50002E6D7872745CE9878EE781AB692E4D58A4
:105A60002B525431303532E5BC80E58F91E69DBF35
:105A70005CE9878EE781AB692E4D58205254313056
:105A80003532E6A0B8E5BF83E69DBF5C362D4750B2
:105A9000494FE8BE93E587BAE28094E4BDBFE7943E
:105AA000A8E59BBAE4BBB6E5BA93E782B9E4BAAE1F
:105AB0004C4544E781AF5C6C6962726172696573E1
:105AC0005C647269766572735C66736C5F636C6F3D
:105AD000636B2E6800000000443A5C7265735F6976
:105AE0002E6D7872745CE9878EE781AB692E4D5814
:105AF0002B525431303532E5BC80E58F91E69DBFA5
:105B00005CE9878EE781AB692E4D582052543130C5
:105B10003532E6A0B8E5BF83E69DBF5C362D475021
:105B2000494FE8BE93E587BAE28094E4BDBFE794AD
:105B3000A8E59BBAE4BBB6E5BA93E782B9E4BAAE8E
:105B40004C4544E781AF5C6C696272617269657350
:105B50005C647269766572735C66736C5F636C6FAC
:105B6000636B2E6800000000443A5C7265735F69E5
:105B70002E6D7872745CE9878EE781AB692E4D5883
:105B80002B525431303532E5BC80E58F91E69DBF14
:105B90005CE9878EE781AB692E4D58205254313035
:105BA0003532E6A0B8E5BF83E69DBF5C362D475091
:105BB000494FE8BE93E587BAE28094E4BDBFE7941D
:105BC000A8E59BBAE4BBB6E5BA93E782B9E4BAAEFE
:105BD0004C4544E781AF5C6C6962726172696573C0
:105BE0005C7574696C69746965735C696F5C667314
:105BF0006C5F696F2E630000443A5C7265735F6985
:105C00002E6D7872745CE9878EE781AB692E4D58F2
:105C10002B525431303532E5BC80E58F91E69DBF83
:105C20005CE9878EE781AB692E4D582052543130A4
:105C30003532E6A0B8E5BF83E69DBF5C362D475000
:105C4000494FE8BE93E587BAE28094E4BDBFE7948C
:105C5000A8E59BBAE4BBB6E5BA93E782B9E4BAAE6D
:105C60004C4544E781AF5C6C69627261726965732F
:105C70005C647269766572735C66736C5F636C6F8B
:105C8000636B2E6800000000443A5C7265735F69C4
:105C90002E6D7872745CE9878EE781AB692E4D5862
:105CA0002B525431303532E5BC80E58F91E69DBFF3
:105CB0005CE9878EE781AB692E4D58205254313014
:105CC0003532E6A0B8E5BF83E69DBF5C362D475070
:105CD000494FE8BE93E587BAE28094E4BDBFE794FC
:105CE000A8E59BBAE4BBB6E5BA93E782B9E4BAAEDD
:105CF0004C4544E781AF5C6C69627261726965739F
:105D00005C647269766572735C66736C5F6C7075E7
:105D10006172742E63000000443A5C7265735F69BF
:105D20002E6D7872745CE9878EE781AB692E4D58D1
:105D30002B525431303532E5BC80E58F91E69DBF62
:105D40005CE9878EE781AB692E4D58205254313083
:105D50003532E6A0B8E5BF83E69DBF5C362D4750DF
:105D6000494FE8BE93E587BAE28094E4BDBFE7946B
:105D7000A8E59BBAE4BBB6E5BA93E782B9E4BAAE4C
:105D80004C4544E781AF5C6C69627261726965730E
:105D90005C647269766572735C66736C5F636C6F6A
:105DA000636B2E6800000000443A5C7265735F69A3
:105DB0002E6D7872745CE9878EE781AB692E4D5841
:105DC0002B525431303532E5BC80E58F91E69DBFD2
:105DD0005CE9878EE781AB692E4D582052543130F3
:105DE0003532E6A0B8E5BF83E69DBF5C362D47504F
:105DF000494FE8BE93E587BAE28094E4BDBFE794DB
:105E0000A8E59BBAE4BBB6E5BA93E782B9E4BAAEBB
:105E10004C4544E781AF5C6C69627261726965737D
:105E20005C647269766572735C66736C5F677069D7
:105E30006F2E6300696E7374616E6365203C202869
:105E400073697A656F6628735F6C707561727442EE
:105E50006173657329202F2073697A656F6628281E
:105E6000735F6C70756172744261736573295B3026
:105E70005D292900696E7374616E6365203C20287A
:105E800073697A656F6628735F6770696F426173C3
:105E9000657329202F2073697A656F662828735FE0
:105EA0006770696F4261736573295B305D292900F2
:105EB000415353455254204552524F5220222025DF
:105EC0007320223A2066696C652022257322204CBB
:105ED000696E652022256422200A00002A2A2A2AC7
:105EE0002ABBB6D3ADCAB9D3C320D2B0BBF0692E9A
:105EF0004D582052543130353220BFAAB7A2B0E5F8
:105F00002A2A2A2A2A0D0A0030B450F8041B79B133
:105F10000268436802440830DC0744BFA9F1010469
:105F2000E31852F8045B43F8045B091FF9D1ECE76E
:105F300030BC704772B60548054901600A6882F3B3
:105F400008880448804762B60348004708ED00E02F
:105F500000200060695800604D62006010B507497C
:105F600079441831064C7C44163404E00A68081D54
:105F7000114488470146A142F8D110BD50000000ED
:105F80007000000000000000004018400080184031
:105F900000C018400000194000401940008019401E
:105FA00000C0194000001A404EF68851CEF20001A0
:105FB000086840F470000860BFF34F8FBFF36F8F25
:105FC0004FF00070E1EE100A7047000037DEFFFF6F
:105FD0003800000004000020000000002DFFFFFF3B
:105FE000040000000C04000000000020000000007D
:105FF000FEE70000283429203E3D20636F6E66696D
:10600000672D3E74784669666F57617465726D617D
:10601000726B0000283429203E3D20636F6E666954
:10602000672D3E72784669666F57617465726D615F
:10603000726B00004750494FCAE4B3F62DCAB9D37A
:10604000C3B9CCBCFEBFE2B5E3C1C14C45440D0AA7
:106050000000000000F00DF8002801D0FFF77EFFDF
:10606000AFF300800020AFF30080FFF7C9F800F025
:1060700002F80120704700F001B8FEE707463846F5
:1060800000F002F8FBE7FEE780B5AFF30080024ABC
:1060900011001820ABBEFBE7260002004350553A22
:1060A00020202020202020202020202020256420A7
:1060B000487A0D0A000000004148423A2020202082
:1060C000202020202020202020256420487A0D0A2E
:1060D0000000000053454D433A202020202020207E
:1060E0002020202020256420487A0D0A000000008E
:1060F000535953504C4C3A2020202020202020205F
:1061000020256420487A0D0A00000000535953509E
:106110004C4C504644303A2020202020202564203A
:10612000487A0D0A00000000535953504C4C504619
:1061300044313A202020202020256420487A0D0A6E
:1061400000000000535953504C4C504644323A2002
:106150002020202020256420487A0D0A000000001D
:10616000535953504C4C504644333A202020202061
:1061700020256420487A0D0A0000000062757379BA
:106180005368696674203C3D2028307832305529A8
:10619000000000000000000000801B4000C01B4009
:1061A00000001C4000401C4000000C40636F6E6605
:1061B00069672D3E62617564526174655F427073F8
:1061C00000000000FFFF18051C000C00180102036E
:1061D00006031A050E06000040787D0180F0FA02E1
:1061E00000E1F50540597307646576696365202110
:1061F0003D203055000000000100000000000000BC
:1062000001000000696E646578203C3D2036000086
:1062100070696E203C20333200000000FFFF1A013D
:106220001E001A020C031E0162756620213D2030FB
:1062300000000000696E646578203C3D2036000057
:10624000696E646578203C3D20360000AFF3008025
:10625000FFF7AAFEFFF7FEFE3020213D20696F0008
:106260006461746100000000636F6E66696700001E
:1062700000480047ED63006000480047ED630060A0
:1062800000480047ED63006000480047ED63006090
:1062900000480047ED63006000480047ED63006080
:1062A00000480047ED63006000480047ED63006070
:1062B00000480047ED63006000480047ED63006060
:1062C00000480047ED63006000480047ED63006050
:1062D00000480047ED63006000480047ED63006040
:1062E00000480047ED63006000480047ED63006030
:1062F00000480047ED6300600048004761480060C7
:10630000004800476D480060004800478148006031
:10631000004800479948006000480047A9480060CD
:1063200000480047B548006000480047C148006089
:1063300000480047D148006000480047ED63006016
:1063400000480047ED63006000480047ED630060CF
:1063500000480047ED63006000480047ED630060BF
:1063600000480047ED63006000480047ED630060AF
:1063700000480047ED63006000480047ED6300609F
:1063800000480047ED63006000480047ED6300608F
:1063900000480047ED63006000480047ED6300607F
:1063A00000480047ED63006000480047ED6300606F
:1063B00000480047ED63006000480047ED6300605F
:1063C00000480047ED63006000480047ED6300604F
:1063D00000480047ED63006000480047ED6300603F
:1063E00000480047ED63006058000000FFF7FEBF63
:0463F00000A4781F6E
:040000056000624DE8
:00000001FF
