:0200000460009A
:10A000000080002019C70060CBB200606FB500600F
:10A01000A7B60060DFB60060CBBE006000000000A5
:10A02000000000000000000000000000B3C7006056
:10A03000BFC7006000000000ADCA006017BF00602D
:10A04000A9C90060B1C90060B9C90060C1C9006098
:10A05000C9C90060D1C90060D9C90060E1C9006008
:10A06000E9C90060F1C90060F9C9006001CA006077
:10A0700009CA006011CA006019CA006021CA0060E4
:10A0800029CA0060A5CA0060A5CA0060A5CA006010
:10A0900031CA006039CA006041CA006049CA006024
:10A0A000A5CA0060A5CA006051CA0060A5CA0060C8
:10A0B00059CA006061CA0060A5CA0060A5CA0060F4
:10A0C00069CA006071CA0060A5CA0060A5CA0060C4
:10A0D000A5CA0060A5CA0060A5CA0060A5CA006044
:10A0E000A5CA0060A5CA0060A5CA0060A5CA006034
:10A0F000A5CA0060A5CA0060A5CA0060A5CA006024
:10A10000A5CA0060A5CA0060A5CA0060A5CA006013
:10A11000A5CA0060A5CA0060A5CA0060A5CA006003
:10A1200079CA0060A5CA006081CA006089CA00605F
:10A1300091CA0060A5CA0060A5CA0060A5CA0060F7
:10A14000A5CA0060A5CA0060A5CA0060A5CA0060D3
:10A1500099CA0060A5CA0060A5CA0060A5CA0060CF
:10A16000A5CA0060A5CA0060A5CA0060A5CA0060B3
:10A17000A5CA0060A5CA0060A5CA0060A5CA0060A3
:10A18000A5CA0060A5CA0060A5CA0060A5CA006093
:10A19000A5CA0060A5CA0060A5CA0060A5CA006083
:10A3F000A5CA0060A5CA0060A5CA0060FFFFFFFFF4
:10A4000070B5C0F38564DFF8682400F0FF03D3184B
:10A410001B68C0F34C350646361206F01F06B540E1
:10A42000AB4301EA6031C1F30C0105462D1205F082
:10A430001F05A940194300F0FF0010180160212CEE
:10A4400009D34FF43372DFF82C14DFF82C0400F03A
:10A450007BFAAFF30080202C05D0DFF820040068E1
:10A46000E040C007F9D470BD70B5C0F38564DFF873
:10A47000002400F0FF03D3181B68C0F34C350646D8
:10A48000361206F01F06B540AB4301EA6031C1F356
:10A490000C0105462D1205F01F05A940194300F0D7
:10A4A000FF0010180160212C09D340F2F122DFF8DF
:10A4B000C413DFF8C40300F047FAAFF30080202C88
:10A4C00005D0DFF8B8030068E040C007F9D470BDDC
:10A4D00070B504460D462646360A04F01F04072EC2
:10A4E00009D340F21332DFF88C13DFF8940300F045
:10A4F0002BFAAFF30080DFF88C0300EB86000168D5
:10A500000322A240914305FA04F40C43046070BD99
:10A510000021DDE7DC4908607047DC4908607047CE
:10A52000002AC1F30B4105D00818001D4FF48031FB
:10A5300001607047081808304FF48031016070479F
:10A5400010B40B46042B44680ADB03238B4024EA37
:10A55000030302F0030202FA01F11943416009E02A
:10A5600007238B4024EA030302F0070202FA01F1F9
:10A570001943416010BC704710B48468C44B1C4040
:10A58000890601F08061214341EA0241816010BCEB
:10A590007047000038B54FF40040FFF7BEFFBD48DC
:10A5A000016841F480310160016821F400310160EB
:10A5B000B948FFF7AFFF002000F0FCF900F028FADF
:10A5C000012000F019FAAA480168090A090241F0BD
:10A5D0007F010160B14C01212046FFF711FFB04D12
:10A5E00001212846FFF70CFFAE48016849094901DF
:10A5F00041F012010160AC4800680028FBD5002141
:10A60000AA48FFF731FF4FF48870FFF781FF40F24F
:10A610001620FFF77DFF0321A548FFF725FF4FF424
:10A620008A70FFF775FF4FF48B70FFF771FF1820EA
:10A63000FFF76EFF1A20FFF76BFF4FF48670FFF7EE
:10A6400067FF01219B48FFF70FFF9B48016821F03E
:10A65000004101600B219948FFF706FF4FF480701D
:10A66000FFF756FF4FF48170FFF752FF0421944823
:10A67000FFF7FAFE02219348FFF7C2FE1620FFF70C
:10A6800047FF02219048FFF7EFFE02218F48FFF7B6
:10A69000B7FE40F21250FFF73BFF03218C48FFF753
:10A6A000E3FE01218B48FFF7DFFE00218A48FFF718
:10A6B000A7FE40F21650FFF72BFF03218748FFF754
:10A6C000D3FE01218648FFF7CFFE00218548FFF722
:10A6D00097FE40F20620FFF71BFF4FF40270FFF7D2
:10A6E00017FF00218048FFF7BFFE00217F48FFF7DA
:10A6F00087FE4FF4A360FFF70BFF1C20FFF708FF56
:10A700000C20FFF705FF4FF48C70FFF701FF0021CD
:10A710007748FFF7A9FE00217648FFF771FE40F267
:10A720000E50FFF7F5FE01217348FFF79DFE07214C
:10A730007248FFF799FE03217148FFF761FE40F26E
:10A740000250FFF7E5FE01216E48FFF78DFE07215D
:10A750006D48FFF789FE03216C48FFF751FE002189
:10A760006B48FFF74DFE6B4800F059F91B210020A4
:10A7700000F025FA1021012000F021FA1821022012
:10A7800000F01DFA1421032000F019FA00F081F9FD
:10A79000012261496148FFF7C3FE6148016821F465
:10A7A00000410160016821F4000101605D48016819
:10A7B00041F4005101605C4800F070F903215B48EE
:10A7C000FFF71EFE00212846FFF71AFE0021204653
:10A7D000FFF716FE00215648FFF712FE55480168A4
:10A7E00021F07001016001680909090141F00101CE
:10A7F0000160016821F460010160016821F4F81131
:10A8000041F490110160016821F4807101600168D8
:10A8100021F080010160016821F080710160464CE7
:10A82000002211462046FFF78BFE0022032120461E
:10A83000FFF786FE002206212046FFF781FE002258
:10A840000A212046FFF77CFE002211462046FFF732
:10A8500093FE3A48016821F080510160016821F0BF
:10A860000051016036483749086031BD00000000E2
:10A8700000C00F4084C20060F0C7006048C00F40B5
:10A88000ACC8006068C00F40040000200800002031
:10A89000FFFF00FBC0820D4000366E01186C008087
:10A8A000143900140C0008400000084014EA0004A9
:10A8B000146800801CE0078020C00F4020FB01804E
:10A8C00018FA01801864008024F90180186E008055
:10A8D00028E6008028E007801C6A008028F60080B7
:10A8E00028F007801C6E008038F307803832008023
:10A8F00024E007802466008030F9008030F6008074
:10A900003074008028E9008028F9018020730080DD
:10A910000C20008020C800600D00700000800D40F9
:10A9200070810D4070800D4048C900601872008031
:10A930001C26008060C00F4000C00A4014C00A40BE
:10A940000065CD1D0000002080B513460A46014673
:10A95000024800F01CFA00BEFDE700BF20C6006000
:10A96000DFF888020068C00602D5DFF8840270476D
:10A97000DFF8800200687047090110EB1150006891
:10A98000000C00F0010070470A46120110EB125053
:10A99000006801F01F01C84000F001007047090184
:10A9A00010EB11500068C0F38130002800D1D7E7C8
:10A9B0000020704780B5002808D09722DFF84412A5
:10A9C000DFF84402FFF7C0FFAFF30080DFF83C027E
:10A9D0004FF080410160DFF814120968C903FAD50D
:10A9E0004FF48031DFF828221160DFF82822126846
:10A9F0001204FAD5016001BD002804D11020DFF84F
:10AA00001812086070471020DFF8101208607047B5
:10AA1000DFF8D801016841F0010101607047DFF8FB
:10AA20000C22116821F44041037B9B0303F4404353
:10AA3000194341F4803111601368DFF8F4110B40C1
:10AA4000017801F001010B4343F4005313604168A6
:10AA500021F04041DFF8DC311960816821F040418C
:10AA6000DFF8D4311960418AC1F30E01037CDB03A6
:10AA700003F400431943C08941EA0041DFF8BC01F7
:10AA8000016010680028FCD5106820F48030106048
:10AA900070474FF480506A490860704710B4002135
:10AAA0006C4A136823F440430479A40304F440443B
:10AAB000234343F4803313604078002801D04FF4DF
:10AAC0008001106820F48050014311601068002854
:10AAD000FCD5106820F48030106010BC704770B551
:10AAE00005465D4E29463046FFF74EFF002801D14E
:10AAF000002070BD29463046FFF751FF0446294625
:10AB00003046FFF739FF002857D13B48854221D016
:10AB10003A48854206D04348854224D04048854281
:10AB200048D049E043480068A0FB0401424A12684B
:10AB3000002300F05BF902463C480068C00703D5DB
:10AB400016204443204602E004EB840080000446C3
:10AB5000141932E034480068800701D5162000E05F
:10AB60001420444329E0364D2E6806F07F06354810
:10AB70000068A0FB0401344A1268002300F036F993
:10AB800006FB0404286810F4C01003D0B0F5002FB1
:10AB900002D002E0A40800E064082D4801682B48B8
:10ABA0000140B1F5004F03D0814206D1A40804E072
:10ABB000640802E0124C00E00024204670BD30B46E
:10ABC000264B1A68BF25C40005FA04F422EA0404DF
:10ABD0008025C200954025431D6001F03F01C00063
:10ABE00081402143196030BC7047000070820D40E5
:10ABF00000366E01040000200D0010000D00300032
:10AC00000065CD1DE0C200605CC8006058810D4049
:10AC100054810D4050810D4074820D4078820D406A
:10AC20001600E0000D00700010800D4030800D40D7
:10AC3000FEEFFFFF50800D4060800D4040800D40D2
:10AC400070800D4080800D4090800D40008080001D
:10AC500070810D40E0800D4000800D4000810D406E
:10AC600038B505460C46002D07D140F2D1125649A1
:10AC70005648FFF769FEAFF30080002C07D14FF470
:10AC8000E97251495248FFF75FFEAFF30080224658
:10AC90002946504800F08BFA002801D04FF0FF34CD
:10ACA000204632BD2DE9F04104460D4616461F46AA
:10ACB0004FF0000810E02868401C802805D3296860
:10ACC0002046FFF7CDFF002028602868265428681A
:10ACD000401C286008F10108B845ECDBBDE8F081B4
:10ACE000F8B588B005460E4614461F4668463A49F0
:10ACF000102200F06DFA009701968DF80A508DF839
:10AD00001840204601283AD168460790334C00226B
:10AD10001C21204600F0BCFA246104A9204600F062
:10AD2000CAF9002807D04FF4337227492C48FFF79F
:10AD30000BFEAFF3008004F11401206900F0E5F987
:10AD4000002807D040F2D6221F492548FFF7FCFD16
:10AD5000AFF3008004F11801206900F0FCF900282D
:10AD600007D040F2E12218491D48FFF7EDFDAFF38F
:10AD7000008020691B490860002009B0F0BD02284E
:10AD800002D143F22150F8E743F22150F5E70EB427
:10AD900018B5A0B004466846802100F097FA114823
:10ADA0000068002801D1002009E023A90E4B6A4663
:10ADB000204600F0CDFA01466846FFF751FF21B06A
:10ADC00010BC5DF810FB000050C1006050C900606D
:10ADD000B8C80060200000206CC800600C00002093
:10ADE00078C6006028000020A5AC0060BBBBE1B1C4
:10ADF000B2F5803F80F07E80022A1ED98C46B1FBDE
:10AE0000F2F102FB11C31B0443EA1043B3FBF2FC53
:10AE100002FB1C3380B240EA0343B3FBF2F002FBB7
:10AE2000103240EA0C4000237047022A05D98446BC
:10AE3000B0FBF2F002FB10C270474AB105D100F03E
:10AE4000010249085FEA3000704700220023704782
:10AE500000F08CBB0B0002000021002070479042E4
:10AE600071EB030CF6D3B3F5803F2FD2F0B5B3FAF4
:10AE700083F7B1FA81F4A7F10F0E3D1B5340CEF1D9
:10AE8000200602FA0EF2F3415340B5F10F0746D8FF
:10AE90000F3C2C444140C4F12006A040F141414008
:10AEA000B1FBF3F603FB1611A2FB0645001BA941FB
:10AEB00002D2761E8018594180EA010221FA0EF36F
:10AEC00062FA0EF200215A403046F0BD30B4B1FBB8
:10AED000F3FC03FB1C11A2FB0C45001BA94103D290
:10AEE000ACF1010C8018594130BC02460B4660465B
:10AEF00000217047B2F1807F65D3F0B5B2FA82F7D6
:10AF0000B1FA81F4C7F10F063D1B22FA06F307F1EF
:10AF1000110EF24120355A40B5F10F07B8D9414022
:10AF2000C4F12006A040F1414140B1FBF3FC03FB1A
:10AF30001C11A2FB0C45001BA94103D2BCF1010C62
:10AF4000801859410F2F12D30F3FC90341EA5041D6
:10AF5000B1FBF3F603FB1611A2FB0645D4EBC030A0
:10AF6000A94102D2761E8018594146EACC3C07B36B
:10AF70004140C7F12006B840F1414140B1FBF3F632
:10AF800003FB1611A2FB0645001BA94102D2761E47
:10AF90008018594180EA010221FA0EF3C7F120041A
:10AFA00062FA0EF20CFA07F05A402CFA04F1304320
:10AFB000F0BD80EA010221FA0EF3002162FA0EF2DE
:10AFC00060465A40F0BD8C46B1FBF2F102FB11C362
:10AFD0001B0243EA1063B3FBF2FC02FB1C331B02AF
:10AFE0004CEA002043EA1063B3FBF2FC02FB1C3383
:10AFF0001B024CEA002043EA1063B3FBF2FC02FBA5
:10B000001C331B024CEA002043EA1063B3FBF2FC42
:10B0100002FB1C324CEA002000237047EFF3108043
:10B0200072B6704780F31088704710B514461A4600
:10B0300043F22153002907D0017B012904D1214685
:10B04000083000F0C9FA0346184610BDF8B50746A7
:10B050000E461546002F07D140F20E32544955488E
:10B06000FFF772FCAFF30080002E07D140F20F32E1
:10B070004F495148FFF768FCAFF30080002D07D11E
:10B080004FF444724A494D48FFF75EFCAFF300802D
:10B090003C68002C07D140F2153245494848FFF77B
:10B0A00053FCAFF300802B4632463946204601B0B0
:10B0B000BDE8F040B9E770B505460C0043F22156F3
:10B0C00007D140F231323A493F48FFF73DFCAFF338
:10B0D0000080002D07D140F2363235493B48FFF75A
:10B0E00033FCAFF3008000221021284600F0A8FABC
:10B0F000207A2873207A012805D1E16805F108003B
:10B1000000F036FA0646304670BD38B505460C46A6
:10B11000002D07D140F2E73225492C48FFF714FCF7
:10B12000AFF30080002C07D14FF47A7220492148F8
:10B13000FFF70AFCAFF3008000220421204600F054
:10B140007FFAFFF76BFF6968491C6960FFF76AFFC8
:10B150002560002032BD38B505460C46002D07D1CC
:10B1600040F2214212491948FFF7EEFBAFF300808D
:10B17000002C07D140F222420D491248FFF7E4FBB0
:10B18000AFF30080FFF74AFF2968002904D0FFF7DA
:10B1900049FF43F2225032BD2C60FFF743FF0022EB
:10B1A0000421204600F04CFA2560002032BD4DE716
:10B1B000C4C1006024C9006078C9006080C9006013
:10B1C00088C9006030C9006090C900607CC8006018
:10B1D000103A07D330B4B1E83810103AA0E838106C
:10B1E000F9D230BC530724BFB1E80810A0E808101A
:10B1F00044BF51F8043B40F8043BD20724BF31F868
:10B20000022B20F8022B44BF0B7803707047121FEB
:10B2100017D35B0009D151F8043B20F8023B1B0C0B
:10B22000121F20F8023BF6D20BE051F8043B00F865
:10B23000013B1B0A20F8023B1B0C121F00F8013BCC
:10B24000F3D238BF121D521E24BF11F8013B00F883
:10B25000013BF8D8704730B4002513E050F8042BB8
:10B26000D30744BFA9F101039A18091F042942F822
:10B27000045BFAD213468C0744BF15809B1CC90798
:10B2800048BF1D7050F8041B0029E7D130BC70473F
:10B2900062F30F2262F31F4200B500BF130096460F
:10B2A0009446103928BFA0E80C50FAD85FEA417CD8
:10B2B00028BF0CC048BF40F8042BC90728BF20F89E
:10B2C000022B48BF00F8012B00BDFEE70022FFF76C
:10B2D000E3BF70B404460025284604F8010B002A99
:10B2E000086814D0002815D000282ED090FBF3F267
:10B2F00003FB1200002802D43030014602E0C043B4
:10B3000031300146104604F8011B6D1CECE703992F
:10B3100000280FD130202070012017E0612202E0C8
:10B320000A00FBD041220A3A10180246304604F8BF
:10B33000012B6D1C002808D0B0FBF3F603FB1600B0
:10B340000A28EDD230300246F0E7284670BC70473C
:10B350002DE9F64F8DB00C469A46002100910D461E
:10B3600001910291064605E00123424601A90E988B
:10B37000D047761C96F80080B8F1000F00F0E2800C
:10B38000B8F1250FF0D14FF0010B0027384605E04A
:10B3900007EB8702303901EB42010F46002840F0ED
:10B3A000D58016F8011FA1F130020A2AF0D3761ECB
:10B3B0005846F3E716F8011F30390A29C0F0CC804F
:10B3C000761E5846C8E0761E16F8018FB8F1640F55
:10B3D0001AD0B8F1690F17D0B8F1660F14D0B8F1D0
:10B3E000460F11D0B8F1780F0ED0B8F1580F0BD02E
:10B3F000B8F16F0F08D0B8F1620F05D0B8F1700F37
:10B4000002D0B8F1750F70D1B8F1640F02D0B8F165
:10B41000690F0ED154F8040B0390584600900A238C
:10B42000024603A904A8FFF754FF054604A82844D0
:10B430000090B8F1580F02D0B8F1780F13D1B8F1DD
:10B44000780F01D14FF0000B54F8040B02905846CE
:10B4500000901023002202A904A8FFF73AFF054636
:10B4600004A828440090B8F16F0F08D0B8F1620F1B
:10B4700005D0B8F1700F02D0B8F1750F1DD154F896
:10B48000040B0290B8F16F0F01D108230AE0B8F164
:10B49000620F01D1022305E0B8F1700F01D1102332
:10B4A00000E00A23CDF800B0002202A904A8FFF7AB
:10B4B00010FF054604A8284400907F1B3B4620222D
:10B4C00001A90E98D047009800283FF452AF0E9F74
:10B4D000D046814699F80000002841D0012319F890
:10B4E000012901A93846C047F4E7B8F1630F08D134
:10B4F00054F8040BC0B25B46024601A90E98D0472F
:10B5000037E7B8F1730F7FF42FAF54F8049BB9F10C
:10B51000000F3FF42EAF484600F0C6F805467F1BEB
:10B520003B46202201A90E98D0470E9FD04699F89D
:10B530000000002818D05B4619F8012B01A93846F5
:10B54000C047F4E701980FB0BDE8F08F16F8010F7F
:10B550002E287FF438AF002000287FF435AF29E78C
:10B560000E97CDF8009004E70E9702E77047FEE7CC
:10B5700038B584B004460D0006D18B222B492C48E7
:10B58000FFF7E2F9AFF30080002C06D18C222749A7
:10B590002848FFF7D9F9AFF3008068680190287A4E
:10B5A0008DF80800687A8DF80900E87A8DF80A00AD
:10B5B000287B8DF80B0028680090A87A8DF80C0085
:10B5C0006946204600F093F8002802D043F221504B
:10B5D00000E0002005B030BD70B506460D461446AB
:10B5E000002E07D140F20B1210491248FFF7ACF9B8
:10B5F000AFF30080002D07D14FF486720B490E483F
:10B60000FFF7A2F9AFF30080002C07D140F20D1232
:10B6100006490A48FFF798F9AFF300802246294609
:10B620003046BDE8704000F0CDB8000024C2006094
:10B630008CC800609CC8006098C90060A0C9006008
:10B6400062F30F2262F31F42401810F0030308D088
:10B65000C91A1FD3DB0748BF00F8012D28BF20F807
:10B66000022D130030B414461546103928BF20E9C6
:10B670003C00FAD8490728BF20E90C0048BF40F831
:10B68000042D890028BF20F8022D48BF00F8012DA5
:10B6900030BC7047C91818BF00F8012DCB0728BF70
:10B6A00000F8012D7047FEE700F10103810704D087
:10B6B00010F8011B820781B1FAD10268A2F10131B1
:10B6C000914311F0803104BF50F8042FF6E709BA16
:10B6D000B1FA81F100EBD100401CC01A7047FEE7BF
:10B6E000002801D10020704742F6AF70704778B54E
:10B6F00085B004460D46002C06D1E422474948484F
:10B70000FFF722F9AFF30080002D06D1E52243496F
:10B710004448FFF719F9AFF30080287B052806D3CA
:10B72000E6223E494048FFF70FF9AFF300803F4E55
:10B73000287B56F82000002806D1E72237493C48EC
:10B74000FFF702F9AFF30080684600F0C8F96868B7
:10B750000090287A012803D102208DF8040008E027
:10B76000022803D103208DF8040002E000208DF8A8
:10B770000400687A012803D101208DF8070002E057
:10B7800000208DF80700A87A401E8041C043C00FFA
:10B790008DF81100E87A401E8041C043C00F8DF83B
:10B7A00010002A686946287B56F8200000F08AF8C5
:10B7B000002802D0FFF794FF02E0287B20700020D1
:10B7C00006B070BD70B506460D461446002E07D172
:10B7D00040F2551211491248FFF7B6F8AFF3008056
:10B7E000002D07D14FF4AB720C491248FFF7ACF8AB
:10B7F000AFF30080002C07D140F2571207490E48E2
:10B80000FFF7A2F8AFF300802246294607483378B5
:10B8100050F8230000F088F9002070BD04C50060D6
:10B8200058C9006060C9006058C5006048C8006021
:10B83000F0C6006068C9006070C9006070B5044659
:10B840000D462646360A04F01F04072E09D340F29F
:10B850001332DFF80C13DFF80C03FFF775F8AFF3C2
:10B860000080DFF8040300EB860001680322A24099
:10B87000914305FA04F40C43046070BD0321DDE735
:10B88000816841F002018160816821F002018160DC
:10B89000704710B50024052C07D2DFF8D01251F8FC
:10B8A0002410814201D0641CF5E7052C08D37A22CC
:10B8B000DFF8BC12DFF8BC02FFF746F8AFF30080F8
:10B8C000204610BD2DE9F04106460C461546002CD9
:10B8D00008D1F122DFF89812DFF89C02FFF734F864
:10B8E000AFF300802068002808D1F222DFF8801230
:10B8F000DFF88802FFF728F8AFF30080207A0528E8
:10B9000008DBF422DFF86812DFF87402FFF71CF896
:10B91000AFF30080607A052808DBF522DFF85012CB
:10B92000DFF86002FFF710F8AFF30080226800270D
:10B930003946042338E020685843B5FBF0F08446CC
:10B940001FFA8CFCBCF1000F00D1012084461FFAC5
:10B950008CFC0CFB03FCB5FBFCFED4F800C0AEEB8A
:10B960000C0CD4F800E080461FFA88F808F10108B2
:10B9700008FB03F8B5FBF8F8AEEB080EE6450DD270
:10B98000D4F800E084461FFA8CFC0CF1010C0CFB8F
:10B9900003FCB5FBFCFCAEEB0C0C401C624502D377
:10B9A00062461F4601465B1C212BC4D30D4620680E
:10B9B0006421B0FBF1F000EB4000904202D240F273
:10B9C00021508AE03046FFF764FFDFF8F41131F9C7
:10B9D0001000FFF753FF3046FFF752FF3169381F61
:10B9E000042801D241F40031DFF8D80101407F1E64
:10B9F0003F0607F0F8570F43ADB2C5F30C052F43D0
:10BA00003761306920F000503061B169DFF8B8016A
:10BA100001402079E27B120202F4E0621043A27B33
:10BA2000920002F00402104301436079012820795A
:10BA300007D1002802D021F4006106E041F4006142
:10BA400003E0002801D041F01001B161306920F419
:10BA50000050E179490301F4005108433061607AF4
:10BA6000217A41EA0041F162B06A40F08800B06298
:10BA7000B06A40F44040B062DFF85001716A627B06
:10BA8000120102F01002237B5B0103F020031A4332
:10BA900011437162A17A012903D1716A41F0080151
:10BAA0007162E17A012903D1716A41F00101716289
:10BAB000A179012901D1DFF818017169084370618A
:10BAC000B069217C012901D140F40020617C012969
:10BAD00001D140F48020B0610020BDE8F08110B5B4
:10BAE000040009D14FF40272DFF88410DFF88800F7
:10BAF000FEF72AFFAFF30080002214212046FFF753
:10BB0000C7FB4FF4E1302060002020716071A0710C
:10BB1000E07120726072A072E07260732073A07393
:10BB2000E0732074607410BD70B506460D4614466F
:10BB3000002D11D140F24132DFF83410DFF86400FB
:10BB4000FEF702FFAFF3008006E070690002FCD54B
:10BB500015F8010BF061641E002CF6D170BD0000D9
:10BB600098C30060E8C8006068C00F4034C8006037
:10BB7000F4C30060A4C5006000C90060D4C70060C1
:10BB8000A0C60060C8C60060124841681348124A47
:10BB9000126810470F48816811480F4A1268104711
:10BBA00000000000F4C800600A48C1680D480A4A55
:10BBB00012681047074801690B48074A1268104786
:10BBC0000CC9006000E0FFE0E8F8FFFF00C01FC004
:10BBD00000C01FE02C000020400000200040184062
:10BBE0000080184000C018400000194070B504469D
:10BBF0000D462646360A04F01F04072E07D340F2EE
:10BC000013323B493B48FEF79FFEAFF300803A48B2
:10BC100000EB860001680322A240914305FA04F478
:10BC20000C43046070BD0321E0E771E010B500240F
:10BC3000062C06D2314951F82410814201D0641CEF
:10BC4000F6E7062C06D339222D492E48FEF77CFE56
:10BC5000AFF30080204610BDF8B504460D461646E9
:10BC6000FFF7E4FF062808D2274931F9102012F126
:10BC7000010F02D01046FFF7D6FF0127616907FACE
:10BC800005F0814361613078002805D16068AF40DC
:10BC900020EA0707676008E072782946204600F02E
:10BCA0000AF86068AF4007436760B27829462046CB
:10BCB000BDE8F840B9E770B504460D461646202D9C
:10BCC00006D371220E491148FEF73EFEAFF3008005
:10BCD000002E206806D1012101FA05F520EA0505AC
:10BCE000256070BD012101FA05F50543256070BD91
:10BCF0003CC30060C4C8006068C00F4008C8006052
:10BD0000ACC40060E4C50060DCC80060D0C800605E
:10BD100070B40C460125C66905FA01F39E43C6615D
:10BD2000102902D200F10C0302E000F11003103CD4
:10BD3000521E042A2AD8DFE802F0030A131D240049
:10BD40001968032260008240914319601EE019685F
:10BD5000032260008240914385400D431D6015E041
:10BD600019680322600082409143022282401143FD
:10BD700019600BE0196803226000824011431960CA
:10BD800004E0C26905FA01F11143C16170BC70475A
:10BD9000BFF34F8FBFF36F8F00203D490860BFF3A3
:10BDA0004F8FBFF36F8F3B48016841F40031016052
:10BDB000BFF34F8FBFF36F8F704710B40020364929
:10BDC0000860BFF34F8F35480168C1F34E32344CE1
:10BDD000C1F3C90343F6E07000EA421040EA837001
:10BDE00020601846431E0028F4D11046421E002849
:10BDF000EED1BFF34F8F2748016841F480310160D5
:10BE0000BFF34F8FBFF36F8F10BC704710B525493C
:10BE10000A884FF6FE7002400A8023490A880240D1
:10BE20000A8022490888400704D50A884FF6FB702B
:10BE300002400A801E490888400704D50A884FF648
:10BE4000FB7002400A801B481B4908604FF6FF70D8
:10BE50001A4908601A48016821F0800141F0200168
:10BE6000016018480168C90703D5016849084900FD
:10BE70000160084C2068800301D4FFF789FF206827
:10BE8000C00301D4FFF799FFBDE8104000F01CB8D3
:10BE900050EF00E014ED00E084ED00E080ED00E004
:10BEA00060EF00E008800B4008000D4000800B4070
:10BEB00000000D4020C528D904C00B4008C00B402D
:10BEC00000C00B4010E000E07047FEE7020003D422
:10BED0000901314A115470470901304A00F00F003E
:10BEE000104400F8041C704780B5411EB1F1807FFA
:10BEF00001D3012002BD401E294908600F214FF0E7
:10BF0000FF30FFF7E3FF002026490860072026499D
:10BF10000860002002BD25490868002802D0086892
:10BF2000401E086070472149086008680028FCD15D
:10BF3000704738B51E480068009000F075F8FEF7AD
:10BF400029FB00F0EDF81B4C6A460B212046FFF759
:10BF500083FE194800684FF47A71B0FBF1F0FFF7E7
:10BF6000C3FF0028154D07D0FEE700220B21204615
:10BF7000FFF7A1FE002028704FF47A70FFF7D3FF7F
:10BF800028780028F1D101220B212046FFF793FEEB
:10BF900001202870F0E7000000E400E018ED00E068
:10BFA00014E000E018E000E010E000E044000020B1
:10BFB000A0CA006000801B40000000204800002054
:10BFC00070B504460D462646360A04F01F04072EB7
:10BFD00007D340F2133224492448FEF7B5FCAFF3EF
:10BFE0000080234800EB860001680322A2409143B1
:10BFF00005FA04F40C43046070BD0321E0E710B4BB
:10C00000029C01F00701240104F0100421430160A7
:10C01000002A00D0136010BC70470098002801D09F
:10C0200001990160704700003EB540F20240FFF701
:10C03000E4FF104C104D002001900095034602468D
:10C0400005212046FFF7DBFF0C4801680021016055
:10C050004FF48550019000950B460A460521204675
:10C06000FFF7DBFF37BD000050C4006018C9006057
:10C0700068C00F4090801F4040811F4068C00A4048
:10C08000014601F0FF0000F1804000F57C200068CF
:10C09000C1F34C320B461B1203F01F039A401040B1
:10C0A000091201F01F01C8407047014601F0FF006E
:10C0B00000F1804000F57C200068C1F34C320B4653
:10C0C0001B1203F01F039A401040091201F01F01D8
:10C0D000C840704718480068C00601D51748704727
:10C0E00017480068704710B51648FFF7C9FF0028C9
:10C0F0000CD11548FEF7F3FC0621B0FBF1F4134810
:10C10000FFF7D3FF401CB4FBF0F010BDFFF7E2FFD8
:10C1100004460E48FFF7C9FF401CB4FBF0F010BD09
:10C1200080B5FFF7E0FF034601224FF4E1311046EE
:10C13000BDE80050FEF7D4BD70820D4000366E01A0
:10C1400004000020246600800D00100024E0078019
:10C15000443A5C7265735F636869705F692E6D78DD
:10C1600072745F636D375C53444B5F4272696E67F4
:10C1700075705F45564B2D4D494D585254313031F5
:10C18000305C646576696365735C4D494D58525403
:10C19000313031315C7574696C69746965735C64E4
:10C1A000656275675F636F6E736F6C655C66736CF9
:10C1B0005F64656275675F636F6E736F6C652E6336
:10C1C00000000000443A5C7265735F636869705FE9
:10C1D000692E6D7872745F636D375C53444B5F42B8
:10C1E00072696E6775705F45564B2D4D494D5852BB
:10C1F00054313031305C636F6D706F6E656E747387
:10C200005C73657269616C5F6D616E616765725CBC
:10C2100073657269616C5F6D616E616765722E63D3
:10C2200000000000443A5C7265735F636869705F88
:10C23000692E6D7872745F636D375C53444B5F4257
:10C2400072696E6775705F45564B2D4D494D58525A
:10C2500054313031305C636F6D706F6E656E747326
:10C260005C73657269616C5F6D616E616765725C5C
:10C2700073657269616C5F706F72745F75617274FF
:10C280002E630000443A5C7265735F636869705F97
:10C29000692E6D7872745F636D375C53444B5F42F7
:10C2A00072696E6775705F45564B2D4D494D5852FA
:10C2B00054313031305C646576696365735C4D4937
:10C2C0004D585254313031315C6472697665727305
:10C2D0005C66736C5F636C6F636B2E6800000000BC
:10C2E000443A5C7265735F636869705F692E6D784C
:10C2F00072745F636D375C53444B5F4272696E6763
:10C3000075705F45564B2D4D494D58525431303163
:10C31000305C646576696365735C4D494D58525471
:10C32000313031315C647269766572735C66736C4E
:10C330005F636C6F636B2E6300000000443A5C72B5
:10C3400065735F636869705F692E6D7872745F638F
:10C350006D375C53444B5F4272696E6775705F4521
:10C36000564B2D4D494D585254313031305C646537
:10C3700076696365735C4D494D58525431303131A3
:10C380005C647269766572735C66736C5F636C6F14
:10C39000636B2E6800000000443A5C7265735F6353
:10C3A0006869705F692E6D7872745F636D375C5376
:10C3B000444B5F4272696E6775705F45564B2D4DF9
:10C3C000494D585254313031305C6465766963654B
:10C3D000735C4D494D585254313031315C6472694F
:10C3E000766572735C66736C5F636C6F636B2E68EB
:10C3F00000000000443A5C7265735F636869705FB7
:10C40000692E6D7872745F636D375C53444B5F4285
:10C4100072696E6775705F45564B2D4D494D585288
:10C4200054313031305C646576696365735C4D49C5
:10C430004D585254313031315C6472697665727393
:10C440005C66736C5F6C70756172742E63000000C3
:10C45000443A5C7265735F636869705F692E6D78DA
:10C4600072745F636D375C53444B5F4272696E67F1
:10C4700075705F45564B2D4D494D585254313031F2
:10C48000305C646576696365735C4D494D58525400
:10C49000313031315C647269766572735C66736CDD
:10C4A0005F636C6F636B2E6800000000443A5C723F
:10C4B00065735F636869705F692E6D7872745F631E
:10C4C0006D375C53444B5F4272696E6775705F45B0
:10C4D000564B2D4D494D585254313031305C6465C6
:10C4E00076696365735C4D494D5852543130313132
:10C4F0005C647269766572735C66736C5F677069A1
:10C500006F2E6300443A5C7265735F636869705FA5
:10C51000692E6D7872745F636D375C53444B5F4274
:10C5200072696E6775705F45564B2D4D494D585277
:10C5300054313031305C636F6D706F6E656E747343
:10C540005C756172745C6C70756172745F6164615A
:10C55000707465722E630000636F6E6669672D3EAE
:10C56000696E7374616E6365203C202873697A6517
:10C570006F6628735F4C707561727441646170748A
:10C5800065724261736529202F2073697A656F6631
:10C59000284C50554152545F54797065202A2929FE
:10C5A00000000000696E7374616E6365203C202892
:10C5B00073697A656F6628735F6C70756172744217
:10C5C0006173657329202F2073697A656F66282847
:10C5D000735F6C70756172744261736573295B304F
:10C5E0005D292900696E7374616E6365203C2028A3
:10C5F00073697A656F6628735F6770696F426173EC
:10C60000657329202F2073697A656F662828735F08
:10C610006770696F4261736573295B305D2929001A
:10C62000415353455254204552524F522022202507
:10C630007320223A2066696C652022257322204CE3
:10C64000696E652022256422200A000030B450F86B
:10C65000041B79B10268436802440830DC0744BF18
:10C66000A9F10104E31852F8045B43F8045B091FC5
:10C67000F9D1ECE730BC70476B5374617475735F2C
:10C6800053657269616C4D616E616765725F537568
:10C690006363657373203D3D20737461747573002B
:10C6A0002875696E74385F7429283429203E3D202E
:10C6B000636F6E6669672D3E74784669666F576171
:10C6C0007465726D61726B002875696E74385F7481
:10C6D00029283429203E3D20636F6E6669672D3E10
:10C6E00072784669666F57617465726D61726B002E
:10C6F000735F4C70756172744164617074657242ED
:10C700006173655B636F6E6669672D3E696E7374F6
:10C71000616E63655D00000072B605480549016001
:10C720000A6882F308880448804762B603480047D5
:10C7300008ED00E000A000600DBE00603DC9006093
:10C7400010B5074979441831064C7C44163404E08E
:10C750000A68081D114488470146A142F8D110BD5E
:10C760000800000028000000EFEAFFFF480000007A
:10C770000400002000000000D5FEFFFF04000000C0
:10C7800028030000000000200000000000F00DF869
:10C79000002801D0FFF7D4FFAFF300800020AFF3F3
:10C7A0000080FFF7C6FB00F002F80120704700F0A0
:10C7B00001B8FEE70746384600F002F8FBE7FEE75F
:10C7C00080B5AFF30080024A11001820ABBEFBE732
:10C7D000260002003055203C20636F6E6669672D8D
:10C7E0003E62617564526174655F4270730000005F
:10C7F000627573795368696674203C3D20283078EF
:10C8000032305529000000000000000000801B406D
:10C8100000000042000000000000000000000C408A
:10C820000100000000000000010000000000000006
:10C830000000000000000000004018400080184088
:10C8400000C01840000019400000000000401840DF
:10C850000080184000C01840000019402162797023
:10C860006173735874616C4F7363000000000000C3
:10C870000000000000000001010000007365726903
:10C88000616C48616E646C650000000073657269DC
:10C89000616C436F6E6669670000000073657269C2
:10C8A000616C48616E646C6500000000696E6465CF
:10C8B00078203C3D203600003020213D2073697AED
:10C8C00065000000696E646578203C3D20360000FC
:10C8D00070696E203C20333200000000FFFF1A0117
:10C8E0001E00FFFFFFFF1E01696E646578203C3D5E
:10C8F000203600003020213D20646174610000007A
:10C900003020213D20636F6E66696700FFFF1805C8
:10C910001C000C0018010000696E646578203C3D25
:10C9200020360000777269746548616E646C65003A
:10C930007265616448616E646C650000AFF30080ED
:10C94000AFF30080FFF722FF0001000000000000AD
:10C950003020213D2063680068616E646C650000D2
:10C96000636F6E66696700006461746100000000B7
:10C970006C656E67746800006275666665720000BB
:10C980006C656E677468000068616E646C650000B9
:10C99000636F6E66696700006275666665720000A7
:10C9A0006C656E677468000000480047A5CA0060A7
:10C9B00000480047A5CA006000480047A5CA0060BB
:10C9C00000480047A5CA006000480047A5CA0060AB
:10C9D00000480047A5CA006000480047A5CA00609B
:10C9E00000480047A5CA006000480047A5CA00608B
:10C9F00000480047A5CA006000480047A5CA00607B
:10CA000000480047A5CA006000480047A5CA00606A
:10CA100000480047A5CA006000480047A5CA00605A
:10CA200000480047A5CA006000480047A5CA00604A
:10CA30000048004789BB00600048004795BB006084
:10CA400000480047A9BB006000480047B5BB006034
:10CA500000480047A5CA006000480047A5CA00601A
:10CA600000480047A5CA006000480047A5CA00600A
:10CA700000480047A5CA006000480047A5CA0060FA
:10CA800000480047A5CA006000480047A5CA0060EA
:10CA900000480047A5CA006000480047A5CA0060DA
:0ECAA00001000000FFF7FEBF40DCB311FEE70F
:040000056000C93D91
:00000001FF
