S01E00006C65645F626C696E6B6C795F307830303038613030302E73726563BD
S21408A00000003020CDD608006BBF0800A3BF0800AC
S21408A01053CA080047CE080061D80800CBD8080005
S21408A020000028000000000000000000D7D8080044
S21408A03025DE080000A0080027DE0800D5CE0800A8
S21408A040D1DB0800D9DB0800E1DB0800E9DB080003
S21408A050F1DB0800F9DB080001DC080009DC080071
S21408A06011DC080019DC080021DC080029DC0800DF
S21408A07031DC080039DC080041DC080049DC08004F
S21408A08051DC080059DC080061DC080069DC0800BF
S21408A09071DC080079DC080081DC080089DC08002F
S21408A0A091DC080099DC0800A1DC0800A9DC08009F
S21408A0B0B1DC0800B9DC0800C1DC0800C9DC08000F
S21408A0C0D1DC0800D9DC0800E1DC0800E9DC08007F
S21408A0D0F1DC0800F9DC080001DD080009DD0800ED
S21408A0E011DD080019DD080021DD080029DD08005B
S21408A0F031DD080039DD080041DD080049DD0800CB
S21408A10051DD080059DD080061DD080069DD08003A
S21408A11071DD080079DD080081DD080089DD0800AA
S21408A12091DD080099DD0800A1DD0800A9DD08001A
S21408A130B1DD0800B9DD0800C1DD0800C9DD08008A
S21408A140D1DD0800D9DD0800E1DD0800E9DD0800FA
S21408A150F1DD0800F9DD080001DE080009DE080068
S20C08A16011DE080059DB0800B7
S21408A180DFF860090068002803D1DFF86C0A006869
S21408A19000E000207047DFF8640A00687047DFF8C0
S21408A1A0600A7047DFF85C0A0068C00702D54FF4FB
S21408A1B0004000E00020704780B5DFF8840900689A
S21408A1C010F0070F0AD0FFF7EAFFDFF8B41A09689D
S21408A1D001F0FF01491CB0FBF1F001E0FFF7E2FFD8
S21408A1E002BD70B4010000240025022D28D22000EC
S21408A1F0C0B2002824D10E2000FB05F00E00C64091
S21408A2003200002909D541F6FC7010EA820000F1F8
S21408A210804010F50430030008E041F6FC7010EAB0
S21408A220820000F1804010F580500300500503D0EE
S21408A230C2F3C220186001E0012004006D1CD4E7B8
S21408A240480004D5C1F30170DFF8906A306070BC2E
S21408A2507047002808D541F6FC7212EA800202F11F
S21408A260804212F5043207E041F6FC7212EA8002D8
S21408A27002F1804212F58052136853F000531360BF
S21408A280002904D1136853F08043136001E04B1E85
S21408A29013601368002BFCD47047F8B50026DFF867
S21408A2A06809006810F00700002802D0012804D0CA
S21408A2B007E0DFF85809060003E0FFF761FF06002D
S21408A2C0FFE7DFF84C793868C00711D4DFF8B4091F
S21408A2D00068A0FB0601DFF8582A1268002301F080
S21408A2E06DF804000D003868C0F307404643A61909
S21408A2F03000F2BD10B50400FFF7CFFF01002000C4
S21408A300C0B2002805D002281BD00ED3032824D0BC
S21408A3102FE01220A0FB0101DFF8182A126812F0BD
S21408A3203F02002301F04AF824E01220A0FB0101B6
S21408A330DFF8002A1268C2F30522002301F03EF86F
S21408A34018E01220A0FB0101DFF8E8291268C2F322
S21408A3500542002301F032F80CE01220A0FB0101B0
S21408A360DFF8D0291268C2F30562002301F026F848
S21408A37000E0002010BDF8B50026DFF89809006850
S21408A38010F00700002802D0012804D007E0DFF804
S21408A3907C08060003E0FFF7F3FE0600FFE7DFF899
S21408A3A098793868C00711D4DFF890090068A0FBD0
S21408A3B00601DFF88C291268002300F0FFFF04006E
S21408A3C00D003868C0F307404643A6193000F2BDB2
S21408A3D010B50400FFF7CFFF01002000C0B2002828
S21408A3E005D002281BD00ED3032824D02FE0122035
S21408A3F0A0FB0101DFF84C29126812F03F02002387
S21408A40000F0DCFF24E01220A0FB0101DFF834296D
S21408A4101268C2F30522002300F0D0FF18E01220CD
S21408A420A0FB0101DFF81C291268C2F305420023CD
S21408A43000F0C4FF0CE01220A0FB0101DFF804299D
S21408A4401268C2F30562002300F0B8FF00E000209F
S21408A45010BD80B50020FFF7BBFFDFF8EC180968D1
S21408A46001F0FF01491CB0FBF1F002BD0020DFF847
S21408A4706C18096811F00301002905D002290BD0D1
S21408A48006D303290CD00FE0DFF8C01808000BE04D
S21408A490DFF8BC18080007E0DFF87017080003E0CC
S21408A4A0DFF8B0180800FFE7704710B50024DFF89B
S21408A4B0A808006810F00300002803D0022824D05B
S21408A4C01ED326E0DFF89408006810F00300002882
S21408A4D005D002280BD006D303280CD00FE0FFF7D0
S21408A4E05EFE04000BE0FFF7C1FF040007E0FFF77D
S21408A4F047FE040003E0DFF868080400FFE708E00A
S21408A5000020FFF7F7FE040003E0FFF74BFE040009
S21408A510FFE7200010BD10B50024DFF848080068E3
S21408A52010F00300002805D0022820D01AD30328EC
S21408A53022D025E0DFF83008006810F00300002875
S21408A54003D0022809D004D30BE0DFF8B40A0400CD
S21408A55007E0FFF715FE040003E0FFF720FE0400FF
S21408A560FFE70DE00020FFF7C5FE040008E0012025
S21408A570FFF7C0FE040003E0FFF714FE0400FFE741
S21408A580200010BD10B50024DFF8E007006810F0C2
S21408A5900700002805D0022820D01AD3032822D086
S21408A5A026E0DFF8CC07006810F00700002803D084
S21408A5B0022809D004D30BE0FFF7E2FD040007E009
S21408A5C0FFF7EDFD040003E0DFF884070400FFE76B
S21408A5D00EE00020FFF78EFE040009E00220FFF7D9
S21408A5E089FE040004E00320FFF784FE0400FFE76A
S21408A5F0DFF8100A006800F0FF00401CB4FBF0F01B
S21408A60010BD10B50024DFF8000A006810F0070037
S21408A610002809D002282FD029D3042836D030D3D2
S21408A62006283CD037D33EE0DFF8E009006810F093
S21408A6300700002806D002280CD007D3042811D01B
S21408A6400CD313E0FFF79CFD04000FE0FFF7A7FD0F
S21408A65004000BE0DFF80807040007E0FFF725FF13
S21408A660040003E0FFF757FF0400FFE71BE00020A5
S21408A670FFF740FE040016E00220FFF73BFE04004A
S21408A68011E00120FFF736FE04000CE00320FFF778
S21408A69031FE040007E0FFF7DCFE040003E0FFF7E6
S21408A6A081FD0400FFE7DFF8DC0A006800F0FF0021
S21408A6B0401CB4FBF0F010BD2DE9FE4F04005FF01F
S21408A6C0000B012500200290002001900020009039
S21408A6D0DFF83CA9DFF83C69122C09D34FF4F9726D
S21408A6E0DFF83419DFF8340900F080FFAFF3008094
S21408A6F060015AF8007017F0070760013058C0F379
S21408A7000728600156F8009009F0FF09002F03D0CB
S21408A710022F13D004D315E0FFF7C7FE834611E0D7
S21408A720DFF8F809006800F0FF00401C050000206C
S21408A730FFF7E0FDB0FBF5F0834603E0DFF8100610
S21408A7408346FFE719F10100A0FB0B0119EB080986
S21408A75019F10102002300F031FEBDE8FE8FF8B5BE
S21408A760040000250026112C09D34FF40672DFF8E2
S21408A770A818DFF8140A00F039FFAFF30080DFF8F6
S21408A7800C0A6101475817F00700002805D0022870
S21408A7900BD006D303280DD011E0DFF8B40505006A
S21408A7A00DE0FFF756FE050009E0DFF850040068E4
S21408A7B0050004E02000FFF77FFF0500FFE72800FC
S21408A7C0F2BD10B50024DFF8C809006810F00700CD
S21408A7D0002805D002280BD006D303280CD010E09A
S21408A7E0DFF8680504000CE0FFF733FE040008E015
S21408A7F0FFF7D1FC040004E01120FFF75DFF04001A
S21408A800FFE7DFF8E40A006800F0FF00401CB4FB2E
S21408A810F0F010BDF8B504000025022C09D340F26C
S21408A8208622DFF8F417DFF8540A00F0DFFEAFF3ED
S21408A8300080002C0AD1DFF8480A066816F00706DA
S21408A840DFF8400A076807F0FF0709E0DFF89C0A08
S21408A850066816F00706DFF8980A076807F0FF0785
S21408A860002E06D0022E0DD007D3042E13D00ED3FA
S21408A87016E0FFF71AFE050012E00020FFF73AFD83
S21408A88005000DE00220FFF735FD050008E0DFF8BB
S21408A8907007050004E00320FFF72CFD0500FFE71E
S21408A8A07F1CB5FBF7F0F2BD10B50024DFF8440AAC
S21408A8B0006810F00700002808D002280FD009D337
S21408A8C0042815D010D3052817D01AE0FFF7EDFD99
S21408A8D0040016E00020FFF70DFD040011E002203A
S21408A8E0FFF708FD04000CE0DFF87404040008E035
S21408A8F00320FFF7FFFC040003E0FFF7AAFD0400AF
S21408A900FFE7DFF8040A006800F0FF00401CB4FB0D
S21408A910F0F010BD10B50024DFF8DC09016811F06E
S21408A920070F03D1DFF8E402040007E0006810F020
S21408A9300700012802D1FFF78CFD0400DFF8CC09D8
S21408A940006800F0FF00401CB4FBF0F010BD38B5FE
S21408A95004000025022C09D340F2F722DFF8B816C7
S21408A960DFF8980900F042FEAFF30080002C09D10A
S21408A970DFF88C09006810F0070F0CD1FFF70FFC02
S21408A980050008E0DFF88809006810F0070F02D114
S21408A990FFF705FC0500280032BD10B50024DFF8D7
S21408A9A06409006810F00700002803D0022811D0B8
S21408A9B00CD313E0FFF779FDDFF85819096801F0A2
S21408A9C0FF01491CB0FBF1F0040007E0FFF7E7FBC6
S21408A9D0040003E0FFF7E6FB0400FFE7200010BDD5
S21408A9E0F8B504000025022C09D340F23732DFF808
S21408A9F02816DFF8880800F0F9FDAFF30080002C71
S21408AA0004D1DFF81469DFF8147903E0DFF8106979
S21408AA10DFF81079306810F00700002806D0022802
S21408AA200DD007D3042813D00ED316E0FFF73DFD4C
S21408AA30050012E00020FFF75DFC05000DE002208F
S21408AA40FFF758FC050008E0DFF80003050004E0FF
S21408AA500320FFF74FFC0500FFE7386800F0FF000B
S21408AA60401CB5FBF0F0F2BD10B50024DFF8B808BE
S21408AA70006810F00700002802D0012804D006E07D
S21408AA80FFF713FD040002E060480400FFE7DFF864
S21408AA909C08006800F0FF00401CB4FBF0F010BDF6
S21408AAA010B50024DFF88808006810F007000028B2
S21408AAB003D0022809D004D30AE0FFF761FB04009C
S21408AAC006E0FFF7F2FC040002E050480400FFE747
S21408AAD0DFF86008006800F0FF00401CB4FBF0F0E8
S21408AAE010BD00006811004010B50024DFF84808C3
S21408AAF0006810F00700002806D002280BD006D3FE
S21408AB00042810D00BD312E0914804000FE0FFF79A
S21408AB10A0FC04000BE0FFF73EFB040007E0FFF78D
S21408AB203EFB040003E0FFF747FB0400FFE7DFF8FF
S21408AB300C08006800F0FF00401CB4FBF0F010BDE5
S21408AB403017004010B50024DFF8F407006810F04E
S21408AB500700002805D002280AD006D303280CD000
S21408AB6010E0FFF7A2FC04000CE07948040009E0B6
S21408AB700220FFF7BFFB040004E00320FFF7BAFB40
S21408AB800400FFE7DFF8BC07006800F0FF00401C81
S21408AB90B4FBF0F010BD000010B50024DFF8A807DD
S21408ABA0006810F00700002806D002280BD007D34C
S21408ABB0042812D00CD315E0FFF777FC040011E048
S21408ABC0674804000EE00020FFF794FB040009E045
S21408ABD00220FFF78FFB040004E00320FFF78AFB40
S21408ABE00400FFE7DFF86407006800F0FF00401C79
S21408ABF0B4FBF0F010BD000004001C2008001C2068
S21408AC0040420F00C01100400012004000366E019E
S21408AC100412004010B50024DFF83407006810F06E
S21408AC200700002808D002280ED009D3042813D01D
S21408AC300DD3052815D019E000F026F8040015E015
S21408AC40FFF733FC040011E0454804000EE000203E
S21408AC50FFF750FB040009E00220FFF74BFB040057
S21408AC6004E00320FFF746FB0400FFE7DFF8E406EE
S21408AC70006800F0FF00401CB4FBF0F010BD0000B8
S21408AC80341700401012004010B50024DFF8C8063C
S21408AC90006810F00700002805D002280BD005D35E
S21408ACA003280DD011E02E4804000EE00020FFF720
S21408ACB021FB040009E00220FFF71CFB040004E067
S21408ACC00320FFF717FB0400FFE7DFF8900600688D
S21408ACD000F0FF00401CB4FBF0F010BD0811004067
S21408ACE00020DFF87C16096811F00701002902D059
S21408ACF0012903D005E01A49080002E015490800B2
S21408AD00FFE7DFF86016096801F0FF01491CB0FB91
S21408AD10F1F070470012024080B5FFF7E1FFDFF858
S21408AD204816096801F0FF01491CB0FBF1F002BDA6
S21408AD30141200401812004004120240101202407A
S21408AD4014120240181202404012024000D8B805F9
S21408AD50006CDC02001BB7003414004030140040BE
S21408AD6000B0710B3414024030140240D416004070
S21408AD70D016004038B5040000252000C0B20028D0
S21408AD8059D0022863D056D3042868D063D306283F
S21408AD906ED068D3082874D06FD30A287BD075D3B2
S21408ADA00C2800F081807AD30E2800F08680C0F048
S21408ADB08080102800F08980C0F08380122800F078
S21408ADC09480C0F08E80142800F09980C0F092809D
S21408ADD0162800F09E80C0F09780182800F0A38000
S21408ADE0C0F09C801A2800F0A880C0F0A1801C281B
S21408ADF000F0AD80C0F0A6801E2800F0B280C0F03B
S21408AE00AB80202800F0B780C0F0B080222800F081
S21408AE10BC80C0F0B580242800F0C080C0F0BA809E
S21408AE20262800F0C380C0F0BD80282800F0C68021
S21408AE30C0F0C080C6E0FFF738FBDFF830150968B9
S21408AE4001F0FF01491CB0FBF1F00500BAE0FFF77E
S21408AE5061FD0500B6E0FFF7D4FB0500B2E0FFF79A
S21408AE6091FB0500AEE00020FFF7D4FC0500A9E042
S21408AE700120FFF7CFFC0500A4E0FFF715FD05004D
S21408AE80A0E00020FFF763FD05009BE00120FFF728
S21408AE905EFD050096E0FFF780FD050092E00020C5
S21408AEA0FFF79EFD05008DE00120FFF799FD0500E0
S21408AEB088E0FFF7D9FD050084E0FFF7F1FD0500FF
S21408AEC080E0FFF711FE05007CE0FFF724FBDFF8C3
S21408AED0A014096801F0FF01491CB0FBF1F0050059
S21408AEE070E0FFF72FFE05006CE00020FFF737FC48
S21408AEF0050067E00120FFF732FC050062E002204B
S21408AF00FFF72DFC05005DE00320FFF728FC050091
S21408AF1058E00420FFF723FC050053E00520FFF760
S21408AF201EFC05004EE00620FFF719FC050049E068
S21408AF300720FFF714FC050044E00820FFF70FFC85
S21408AF4005003FE00920FFF70AFC05003AE00A2062
S21408AF50FFF705FC050035E00B20FFF700FC0500B1
S21408AF6030E00C20FFF7FBFB05002BE00D20FFF779
S21408AF70F6FB050026E00E20FFF7F1FB050021E0B2
S21408AF800F20FFF7ECFB05001CE01020FFF7E7FB9F
S21408AF90050017E0FFF715FC050013E0FFF7FCFDBA
S21408AFA005000FE0FFF736FE05000BE0FFF76CFE26
S21408AFB0050007E0FFF794FE050003E0FFF7ACFE88
S21408AFC00500FFE7280032BDF8B504002578104EC6
S21408AFD0104F122D08D340F2F3420F49DFF89403BE
S21408AFE000F004FBAFF30080607810F007006901FA
S21408AFF07050E078A17851EA002168013950F1BD17
S21408B00000B0710BD8160040E4170240E017024063
S21408B010001502400415024044D30800F8DA080078
S21408B02038B505005FF4C024DFF84C0304602878C0
S21408B030DFF8481308606868DFF844130860A868F3
S21408B040DFF840130860287B002808D0022818D0AC
S21408B0500ED3042827D01DD305282DD035E0DFF8D9
S21408B0602803016831F47F0151F48011016036E04D
S21408B070DFF81403016831F47F0151F48811016088
S21408B0802DE0DFF80403016831F47F0151F4A011C4
S21408B090016024E0DFF8F002016831F47F0151F422
S21408B0A0B01101601BE0DFF8E002016831F47F01AF
S21408B0B051F4D811016012E0DFF8CC02016831F4CF
S21408B0C07F0151F40411016009E040F22452DFF8D0
S21408B0D0BC12DFF8BC0200F089FAAFF30080DFF894
S21408B0E0A802016831F002010160DFF8A8020460D6
S21408B0F00020FFF73FFE0400DFF89C02006880B2DD
S21408B100A0FB0401DFF89422002300F057F9002181
S21408B110814202D200BF491CFAE731BD60170240DF
S21408B120F0B40300DBB2DFF878422268BF261D00C1
S21408B130EDB2ED0016FA05F532EA050580261A0086
S21408B140D2B2D20096402E4326600E00F6B216F013
S21408B1503F061A00D2B2D20096402E4326604026FA
S21408B16022681F00FFB2FF0016FA07F73A42F6D029
S21408B17027681A00D2B2D20096403E432660F0BC3A
S21408B18070470000E817024004DB08000815024074
S21408B1902817024038B505005FF4C014DFF8D80158
S21408B1A004602878DFF8FC1108606868DFF8F81192
S21408B1B00860A868DFF8F4110860287B002808D023
S21408B1C0022818D00ED3042825D01CD305282AD048
S21408B1D031E0DFF8DC01016831F47F0151F48011B9
S21408B1E0016030E0DFF8C801016831F47F0151F4EE
S21408B1F08811016027E06E48016831F47F0151F438
S21408B200A01101601FE06A48016831F47F0151F41B
S21408B210B011016017E06648016831F47F0151F407
S21408B220D81101600FE06248016831F47F0151F4DB
S21408B2300411016007E040F27D525449544800F07A
S21408B240D5F9AFF300805A48016831F00201016071
S21408B250504804600020FFF78DFD0400554800683C
S21408B26080B2A0FB04014D4A002300F0A7F8002195
S21408B270814202D200BF491CFAE731BD10DB080044
S21408B2802016004024160040F0B40300DBB24A4CF7
S21408B2902268BF261D00EDB2ED0016FA05F532EA63
S21408B2A0050580261A00D2B2D20096402E432660A4
S21408B2B00E00F6B216F03F061A00D2B2D20096403A
S21408B2C02E432660402622681F00FFB2FF0016FAAB
S21408B2D007F73A42F6D027681A00D2B2D20096404C
S21408B2E03E432660F0BC70474017024030160040C8
S21408B2F03416004040160040C017024070DB0800B5
S21408B300201700406017004044160040C41702404B
S21408B310201802406417004080160040841600403B
S21408B320901600409416004000180240101802407C
S21408B33060160040641600408017024084170240DA
S21408B3403018024034180240901700409417004006
S21408B350A0170040A417004070170040741700405C
S21408B360781700407C170040801700400014004003
S21408B370001402401CDB0800202600400012004093
S21408B38010120040141200400412004044D3080073
S21408B390E2BA0800302600400C120040C0C62D0055
S21408B3A01812004000120240101202401412024006
S21408B3B0041202400C12024018120240BBBBE1B154
S21408B3C0B2F5803F80F07E80022A1ED98C46B1FBFB
S21408B3D0F2F102FB11C31B0443EA1043B3FBF2FC71
S21408B3E002FB1C3380B240EA0343B3FBF2F002FBD5
S21408B3F0103240EA0C4000237047022A05D98446DA
S21408B400B0FBF2F002FB10C270474AB105D100F05B
S21408B410010249085FEA300070470022002370479F
S21408B42000F0F2B80B00020000210020704790429E
S21408B43071EB030CF6D3B3F5803F2FD2F0B5B3FA11
S21408B44083F7B1FA81F4A7F10F0E3D1B5340CEF1F6
S21408B450200602FA0EF2F3415340B5F10F0746D81C
S21408B4600F3C2C444140C4F12006A040F141414025
S21408B470B1FBF3F603FB1611A2FB0645001BA94118
S21408B48002D2761E8018594180EA010221FA0EF38C
S21408B49062FA0EF200215A403046F0BD30B4B1FBD5
S21408B4A0F3FC03FB1C11A2FB0C45001BA94103D2AD
S21408B4B0ACF1010C8018594130BC02460B46604678
S21408B4C000217047B2F1807F65D3F0B5B2FA82F7F3
S21408B4D0B1FA81F4C7F10F063D1B22FA06F307F10D
S21408B4E0110EF24120355A40B5F10F07B8D9414040
S21408B4F0C4F12006A040F1414140B1FBF3FC03FB38
S21408B5001C11A2FB0C45001BA94103D2BCF1010C7F
S21408B510801859410F2F12D30F3FC90341EA5041F3
S21408B520B1FBF3F603FB1611A2FB0645D4EBC030BD
S21408B530A94102D2761E8018594146EACC3C07B388
S21408B5404140C7F12006B840F1414140B1FBF3F64F
S21408B55003FB1611A2FB0645001BA94102D2761E64
S21408B5608018594180EA010221FA0EF3C7F1200437
S21408B57062FA0EF20CFA07F05A402CFA04F130433D
S21408B580F0BD80EA010221FA0EF3002162FA0EF2FB
S21408B59060465A40F0BD8C46B1FBF2F102FB11C37F
S21408B5A01B0243EA1063B3FBF2FC02FB1C331B02CC
S21408B5B04CEA002043EA1063B3FBF2FC02FB1C33A0
S21408B5C01B024CEA002043EA1063B3FBF2FC02FBC2
S21408B5D01C331B024CEA002043EA1063B3FBF2FC60
S21408B5E002FB1C324CEA00200023704770B50400AA
S21408B5F00D00160033002A002100024800F0DEF88D
S21408B60000BEFDE700D70800704730B4002513E0F9
S21408B61050F8042BD30744BFA9F101039A18091F51
S21408B620042942F8045BFAD213468C0744BF1580F7
S21408B6309B1CC90748BF1D7050F8041B0029E7D19A
S21408B64030BC704770B505000C0043F22156002D3B
S21408B65007D140F2D1126B496B48FFF7C7FFAFF32B
S21408B6600080002C07D14FF4E97266496748FFF757
S21408B670BDFFAFF3008022002900654800F0D4F92A
S21408B680002801D05FF0FF34200070BD2DE9F0419E
S21408B69004000D0016001F0000205FF00008B845E3
S21408B6A011DA2868401C802805D329682000FFF78F
S21408B6B0C9FF00202860286826542868401C28608F
S21408B6C018F10108EBE7BDE8F0812DE9F14F88B0E5
S21408B6D00E001700984643F2215568464D49102239
S21408B6E000F0BCF9CDF8008001969DF820008DF892
S21408B6F00A008DF818703800C0B2012818D16846BC
S21408B70007905FF01C0A5FF0000BDFF80C914C46C0
S21408B7105A465146200000F0E5F9C9F8109004A9E9
S21408B720D9F8100000F0E2F80400002C14D11BE051
S21408B7303800C0B2022801D128003CE03800C0B268
S21408B740032801D1280036E03800C0B2042801D109
S21408B750280030E028002EE04FF4337229492F489D
S21408B760FFF744FFAFF3008019F11401D9F8100071
S21408B77000F0F1F80500002D07D040F2D622214946
S21408B7802648FFF733FFAFF3008019F11801D9F800
S21408B790100000F011F90400002C07D040F2E12256
S21408B7A018491E48FFF722FFAFF30080D9F81000AB
S21408B7B01B490860002009B0BDE8F08F0EB42DE9DB
S21408B7C0F841A0B00400002500266846802100F055
S21408B7D0BDF913480068002801D100200BE027AF08
S21408B7E0104B6A463900200000F013FA804641469E
S21408B7F06846FFF727FF21B0BDE8F0015DF810FBAB
S21408B800000000009CD1080078DB080028DB080050
S21408B81020001C2088DA08000C001C2058D70800D6
S21408B82028001C208DB60800EFF3108072B670470B
S21408B83080F3108870472DE9F04105000C001600CB
S21408B8401F0043F221508046002C0BD0297B01298B
S21408B85007D13A00310015F1080000F03AFB80469F
S21408B86000E08046404600B2BDE8F0812DE9F04190
S21408B87007000E001500002F09D140F20E32DFF83F
S21408B880BC11DFF8BC01FFF7B1FEAFF30080002E55
S21408B89009D140F20F32DFF8A411DFF8A801FFF74C
S21408B8A0A5FEAFF30080002D09D14FF44472DFF8EF
S21408B8B08C11DFF89401FFF799FEAFF30080B846C5
S21408B8C0D8F80040002C09D140F21532DFF86C1188
S21408B8D0DFF87801FFF78AFEAFF300802B0032000E
S21408B8E041462000FFF7A7FFBDE8F0812DE9F047A5
S21408B8F004000D0043F22156002D07D140F23132E4
S21408B9004E495448FFF772FEAFF30080002C07D16B
S21408B91040F2363249495048FFF768FEAFF30080D8
S21408B92027005FF010085FF00009BA464A4641460D
S21408B930504600F0D7F8287A3873287A012806D1B6
S21408B940E96817F1080000F08DFA0600FFE73000F6
S21408B95000B2BDE8F0872DE9F04704000D00002C82
S21408B96007D140F2E73235493B48FFF73FFEAFF3D1
S21408B9700080002D07D14FF47A7230493048FFF71F
S21408B98035FEAFF3008026002F005FF004085FF056
S21408B9900009AA464A464146504600F0A3F8FFF773
S21408B9A043FF82467068401C70605046FFF740FFB1
S21408B9B03E600020BDE8F0872DE9F84F04000D0032
S21408B9C0002C07D140F221421C492348FFF70EFEFF
S21408B9D0AFF30080002D07D140F2224217491C48D9
S21408B9E0FFF704FEAFF3008026002F00FFF71CFFCA
S21408B9F080463068002805D04046FFF719FF43F216
S21408BA0022500FE037604046FFF712FF5FF0040948
S21408BA105FF0000AAB4652464946584600F062F8C0
S21408BA203E600020BDE8F28F70B504000D001600D9
S21408BA30320029002000FFF719FF70BDE0D2080089
S21408BA4040DB080080DB080088DB080090DB080085
S21408BA504CDB080098DB0800C8DA0800103A07D361
S21408BA6030B4B1E83810103AA0E83810F9D230BC33
S21408BA70530724BFB1E80810A0E8081044BF51F8DF
S21408BA80043B40F8043BD20724BF31F8022B20F8C9
S21408BA90022B44BF0B7803707047121F17D35B0046
S21408BAA009D151F8043B20F8023B1B0C121F20F862
S21408BAB0023BF6D20BE051F8043B00F8013B1B0AA8
S21408BAC020F8023B1B0C121F00F8013BF3D238BFCC
S21408BAD0121D521E24BF11F8013B00F8013BF8D88E
S21408BAE07047300062F30F2262F31F42401810F0CE
S21408BAF0030308D0C91A1FD3DB0748BF00F8012D77
S21408BB0028BF20F8022D130030B414461546103905
S21408BB1028BF20E93C00FAD8490728BF20E90C00CE
S21408BB2048BF40F8042D890028BF20F8022D48BFDA
S21408BB3000F8012D30BC7047C91818BF00F8012D51
S21408BB40CB0728BF00F8012D70473000002200F010
S21408BB50F3B92DE9F04F84460D001400099E002025
S21408BB60E2465FF0000B8AF800B01AF1010A002CD2
S21408BB7024D0D5F800B05946002905D15FF0300B1F
S21408BB808AF800B0401C42E0002940D091FBF3FB45
S21408BB90DE4603FB1E1BBBF1000F05D55F467FEA9A
S21408BBA0070919F1310902E0D94619F13009714639
S21408BBB08AF800901AF1010A401CE5E7D5F800B0AB
S21408BBC05A46002A05D15FF0300B8AF800B0401CB0
S21408BBD01DE0002A1BD0B2FBF3FBD84603FB182B4C
S21408BBE0BBF10A0F02D25F46303709E03700FFB2D2
S21408BBF0002F01D0412700E061270A3F17EB0B070B
S21408BC0042468AF800701AF1010A401CE1E7BDE8CE
S21408BC10F08F2DE9F54F91B08B461F0000265FF098
S21408BC2000080020029000208DF8040000200490F0
S21408BC30DDF844A09AF800000500002D00F00D81FC
S21408BC40252D07D0012328000200D2B202A9129897
S21408BC50B847FFE001208DF8050000208146002047
S21408BC6003900398002813D11AF1010A9AF80000E5
S21408BC700500302D07DB3A2D05DA0A21B5F130002C
S21408BC8001FB0909EDE7BAF1010A01200390E8E78C
S21408BC90062005901AF1010108782E2819D10020EF
S21408BCA00590002003900398002813D1491C0878B3
S21408BCB00500302D09DB3A2D07DA059A0A23B5F177
S21408BCC0300003FB02020592EDE7491E01200390AF
S21408BCD0E9E7491E11F1010A9AF800000500642DEB
S21408BCE011D0692D0FD0662D0DD0462D0BD0782D8E
S21408BCF009D0582D07D06F2D05D0622D03D0702D92
S21408BD0001D0752D72D1642D01D0692D11D1DBF8C3
S21408BD1000001BF1040B06909DF8050000900A230E
S21408BD20012206A908A8FFF714FF804608A8404481
S21408BD300600582D01D0782D16D1782D02D1002076
S21408BD408DF80500DBF800001BF1040B04909DF845
S21408BD50050000901023002204A908A8FFF7F9FEA2
S21408BD60804608A8404406006F2D05D0622D03D0F3
S21408BD70702D01D0752D27D1DBF800001BF1040BC0
S21408BD8004906F2D03D108208DF804000EE0622D74
S21408BD9003D102208DF8040008E0702D03D110208E
S21408BDA08DF8040002E00A208DF804009DF80500CE
S21408BDB000909DF80430002204A908A8FFF7C9FEE1
S21408BDC0804608A840440600B9EB0803202202A9CA
S21408BDD01298B847002E3DD0307800283AD0012374
S21408BDE0327802A91298B847761EF5E7632D0DD16A
S21408BDF0DBF800001BF1040BC0B20790012307987C
S21408BE000200D2B202A91298B84723E0732D1AD1BD
S21408BE10DBF800001BF1040B0400002C1AD02000ED
S21408BE2000F0A4F88046B9EB0803202202A912986D
S21408BE30B847207800280DD00123227802A9129846
S21408BE40B847641CF5E7012328000200D2B202A90D
S21408BE501298B8471AF1010AECE6029813B0BDE842
S21408BE60F08F0100F8B584B004000D00002D06D14F
S21408BE708B222C492C48FFF7B9FBAFF30080002C27
S21408BE8006D18C2227492948FFF7B0FBAFF300807C
S21408BE902E00270070680190307A8DF80800707AB6
S21408BEA08DF80900F07A8DF80A00307B8DF80B00C3
S21408BEB030680090B07A8DF80C006946380000F0BB
S21408BEC079F8002802D043F2215000E0002005B09F
S21408BED0F0BDF8B506000D001400002E07D140F29C
S21408BEE00B1210491148FFF781FBAFF30080002DB5
S21408BEF007D14FF486720B490D48FFF777FBAFF36F
S21408BF000080002C07D140F20D1206490948FFF7B9
S21408BF106DFBAFF30080370022002900380000F0E0
S21408BF20BFF8F2BD14D20800D8DA0800E8DA08002C
S21408BF30A0DB0800A8DB080000B500BF1300964683
S21408BF409446103928BFA0E80C50FAD85FEA417C1E
S21408BF5028BF0CC048BF40F8042BC90728BF20F8E4
S21408BF60022B48BF00F8012B00BDFEE700F10103D5
S21408BF70810704D010F8011B820781B1FAD1026844
S21408BF80A2F10131914311F0803104BF50F8042F1B
S21408BF90F6E709BAB1FA81F100EBD100401CC01AE5
S21408BFA07047FEE70100002901D1002001E042F6B3
S21408BFB0AF7070477FB504000D00002C06D1DC2258
S21408BFC04E494F48FFF712FBAFF30080002D06D10D
S21408BFD0DD224A494B48FFF709FBAFF30080287B70
S21408BFE00E2806D3DE2245494748FFF7FFFAAFF387
S21408BFF00080464E287B56F82000002806D1DF220F
S21408C0003E494348FFF7F2FAAFF30080684600F06F
S21408C0102CF968680090287A012803D102208DF848
S21408C020040009E0287A022803D103208DF80400CA
S21408C03002E000208DF80400687A012803D1012068
S21408C0408DF8050002E000208DF80500A87A002883
S21408C05001D0012000E000208DF80800E87A0028CA
S21408C06001D0012000E000208DF8090000208DF89E
S21408C0700B0000208DF80C002A686946287B56F8C5
S21408C080200000F059F80600002E03D03000FFF715
S21408C09089FF03E02100287B0870002004B070BDEB
S21408C0A0F8B506000D001400002E07D140F2451220
S21408C0B012491348FFF79AFAAFF30080002D07D10C
S21408C0C04FF4A3720D491348FFF790FAAFF30080B8
S21408C0D0002C07D140F2471208490F48FFF786FAA6
S21408C0E0AFF3008037002200290008483B7850F854
S21408C0F0230000F04FF90020F2BD0000C4D4080069
S21408C100B0DB0800B8DB08001CD508005CD60800C1
S21408C11080D70800C0DB0800C8DB08000A00D2B2D7
S21408C120002A04D0426852F48072426003E04268F3
S21408C13032F48072426070472DE9F04104000D0029
S21408C1401600002C03D0002D01D0002E08D1B722EF
S21408C150DFF89812DFF89802FFF748FAAFF3008086
S21408C160002C03D0002D01D0002E01D104207AE047
S21408C1700121200000F0DAF90700002F01D038006E
S21408C18071E0687A00281AD0D4F8000E50F0011032
S21408C190C4F8000ED4F8080E30F47060C4F8080E20
S21408C1A0D4F8080EE97A090211F470610843C4F855
S21408C1B0080ED4F8080E50F00100C4F8080E287AC5
S21408C1C000281AD0D4F8000E50F00210C4F8000E5A
S21408C1D0D4F8080E30F47020C4F8080ED4F8080E08
S21408C1E0297B090411F470210843C4F8080ED4F812
S21408C1F0080E50F00200C4F8080E2879000110F066
S21408C20030006979890111F040010843A97989004D
S21408C21011F00C010843E97950EAC130697BC9B2CC
S21408C2204908C9B2C90211F400610843697B890349
S21408C23011F480410843A97B090311F4805108438F
S21408C24050F00100206032002968200000F03DF818
S21408C2508046B8F1000F01D0404604E0A97A2000D5
S21408C260FFF75CFF0020BDE8F081F8B50400002C5D
S21408C27009D14FF48972DFF87411DFF87801FFF7F7
S21408C280B5F9AFF3008010250026270032002900F4
S21408C2903800FFF727FC5FF4E130206000202071AB
S21408C2A0002060710120A0710020E071002020723B
S21408C2B0002060720020E072002020730020607367
S21408C2C00020A0720020A073F1BD2DE9FE4F0400E7
S21408C2D00D0016005FF0FF3ACDF804A05FF00F09D6
S21408C2E0002C03D0002D01D0002E09D14FF49E72E9
S21408C2F0DFF8F810DFF80001FFF778F9AFF30080F1
S21408C300002C03D0002D01D0002E01D104203FE0E0
S21408C3102068000509D52068400438D5B6FBF5F036
S21408C3208046B8F10100206231E04F46082F24D33A
S21408C330781C6843B6FBF0F0401E8046B8F5803F90
S21408C34019D2791C18F101004143B6FBF1F00090B0
S21408C3500098854204D2DDF800B0BBEB050B03E07D
S21408C360DDF800B0B5EB0B0B0198834503D2CDF88A
S21408C37004B0B946C2467F1ED8E7BAF5803F02D356
S21408C38041F2516004E0C4F82890C4F820A00020C8
S21408C390BDE8FE8F70B504000D001600002C01D015
S21408C3A0002D09D14FF4BE72DFF84010DFF84C00BC
S21408C3B0FFF71CF9AFF30080002C01D0002D00D148
S21408C3C012E0D4F8000EC0070ED5002E09D0D4F817
S21408C3D0040E8006FBD52878C4F8200E6D1C761E41
S21408C3E0F3E7A0680007FCD570BD000064D4080019
S21408C3F024D6080034DB0800E8D5080084D80800EE
S21408C400010009B2C1F30721002908D0022912D079
S21408C4100BD304291BD014D305291ED023E00122F0
S21408C4208240DFF814341A601DE001228240DFF8EB
S21408C4300C341A6017E001228240DFF804341A60D0
S21408C44011E001228240DFF8FC331A600BE001227B
S21408C4508240DFF8F4331A6005E001228240DFF8F4
S21408C460EC331A60FFE7704702000800C0B20028E5
S21408C47001D1012015E00800C0B2052806DAD2F876
S21408C480F80FC91CC84010F001000AE00800C0B246
S21408C490052805D1D2F8F80FC00910F0010000E011
S21408C4A00020704738B504000025112D09DADFF89A
S21408C4B0A00350F82500844201D128000BE06D1C2B
S21408C4C0F3E75F22DFF88C13DFF88C03FFF78EF8AC
S21408C4D0AFF30080002032BD70B505000E001400D2
S21408C4E03100C9B22800FFF7BFFF002801D103209A
S21408C4F01BE0D5F8F80F000709D5D5F8F80F10F0A7
S21408C50007003100C9B2884201D001200DE0002C96
S21408C51006D03000C0B250F00800C5F8F80F03E0A7
S21408C5203000C0B2C5F8F80F002070BD70B5040022
S21408C5300D002000FFF7B6FF0600002E01D50420E8
S21408C54011E0DFF8180330F91600FFF759FFDFF897
S21408C550100330F9160000F071FA00222900C9B25B
S21408C5602000FFF7B9FF70BD10B5DFF8F842206865
S21408C570002806D1AF22B749BC48FFF737F8AFF313
S21408C5800080B9480168B24800682268904710BD24
S21408C59010B5B44C6068002806D1BC22AD49B44832
S21408C5A0FFF724F8AFF30080AF484168A848406812
S21408C5B06268904710BD10B5AA4CA068002806D13E
S21408C5C0C922A449AB48FFF711F8AFF30080A64884
S21408C5D081689F488068A268904710BD10B5A14C36
S21408C5E0E068002806D1D6229A49A348FEF7FEFF3F
S21408C5F0AFF300809C48C1689548C068E2689047D9
S21408C60010BD10B5974C2069002806D1E322914941
S21408C6109A48FEF7EBFFAFF30080934801698C4811
S21408C62000692269904710BD10B58E4C60690028D5
S21408C63006D1F12287499248FEF7D8FFAFF300806B
S21408C64089484169824840696269904710BD10B5BB
S21408C650844CA069002806D1FE227E498948FEF748
S21408C660C5FFAFF300808048816979488069A26970
S21408C670904710BD10B57B4CE069002807D140F202
S21408C6800B1274498048FEF7B1FFAFF30080764876
S21408C690C1696F48C069E269904710BD10B5714C12
S21408C6A0206A002807D14FF48C726A497748FEF74B
S21408C6B09DFFAFF300806C48016A6548006A226AED
S21408C6C0904710BD10B5674C606A002807D140F245
S21408C6D0251260496E48FEF789FFAFF3008062486E
S21408C6E0416A5B48406A626A904710BD10B55D4C67
S21408C6F0A06A002807D14FF4997256496548FEF794
S21408C70075FFAFF300805848816A5148806AA26A6C
S21408C710904710BD10B5534CE06A002807D140F288
S21408C7203F124C495C48FEF761FFAFF300804E4865
S21408C730C16A4748C06AE26A904710BD10B5494CBE
S21408C740206B002807D14FF4A67242495348FEF7DB
S21408C7504DFFAFF300804448016B3D48006B226BE9
S21408C760904710BD10B53F4C606B002807D140F2CB
S21408C770591238494A48FEF739FFAFF300803A485D
S21408C780416B3348406B626B904710BD38B54548DF
S21408C790FFF788FE0400334D55F82400002807D11B
S21408C7A04FF4B5722B494048FEF720FFAFF30080E0
S21408C7B02D4850F82410264850F8240055F8242010
S21408C7C0904731BD38B53948FFF76CFE0400254D53
S21408C7D055F82400002807D140F27B121D4932483C
S21408C7E0FEF704FFAFF300801F4850F824101848DF
S21408C7F050F8240055F82420904731BD38B52C4809
S21408C800FFF750FE0400174D55F82400002807D1FE
S21408C8104FF4C6720F492448FEF7E8FEAFF30080CF
S21408C820114850F824100A4850F8240055F82420D7
S21408C830904731BD00000000401000404410004002
S21408C8404810004040100240441002404810024081
S21408C85064D508007CD208004ABB0800D0D7080078
S21408C860F4D708002C001C2070001C2078D908007B
S21408C87090D90800A8D90800C0D90800D8D9080057
S21408C880F0D9080008DA080020DA080038DA0800C4
S21408C89050DA0800ECD8080008D9080024D908009F
S21408C8A040D908000060124064D8080000701240A2
S21408C8B000801240F8B50400200000B2C0F3072537
S21408C8C0260036B206F0FF060127B740202E06D30C
S21408C8D02E2246494648FEF789FEAFF30080002D13
S21408C8E008D0022D14D00CD3042D1FD017D3052D35
S21408C8F023D029E03F4807603F4800683842FBD00D
S21408C90022E03E4807603E4800683842FBD01BE0FD
S21408C9103C4807603C4800683842FBD014E03B4877
S21408C92007603B4800683842FBD00DE0394807608E
S21408C930394800683842FBD006E03848076038486F
S21408C94000683842FBD0FFE7F1BDF8B504002000C8
S21408C95000B2C0F30725260036B206F0FF06012708
S21408C960B740202E06D3692220492148FEF73EFE0E
S21408C970AFF30080002D08D0022D16D00DD3042D5D
S21408C98023D01AD3052D28D02FE0264807601A484A
S21408C990006838408742FAD027E0234807601848DE
S21408C9A0006838408742FAD01FE0204807601648DB
S21408C9B0006838408742FAD017E01D4807601448D8
S21408C9C0006838408742FAD00FE01A4807601248D5
S21408C9D0006838408742FAD007E0174807601048D2
S21408C9E0006838408742FAD0FFE7F1BD04D4080053
S21408C9F0B8DA08004000004010000040440000403C
S21408CA001400004048000040180000404000024063
S21408CA101000024044000240140002404800024051
S21408CA201800024070000040740000407800004083
S21408CA3070000240740002407800024010B50400FE
S21408CA40200000B2FFF736FF200000B2FFF77DFF98
S21408CA5010BDFEE70100C9B2002906D00121704AC0
S21408CA60116000216F4A116004E06D490A6852F0AF
S21408CA7002020A6070470100C9B2002905D06A4957
S21408CA800A6852F001020A6004E067490A68520818
S21408CA9052000A60704765490860704730B400283D
S21408CAA034D0634B1C688C4206D1624C246804F070
S21408CAB0FF04551EAC4229D0D0F8E040A40703D4A2
S21408CAC0D0F8E040E407F7D4046854F002040460A1
S21408CAD05FF48034584D2C601960564B1D6855F02D
S21408CAE000551D60551E05F0FF051D601D68002DCC
S21408CAF0FCD4524B1C60036833F0020303600368DF
S21408CB0053F0010303600368DB07FCD430BC7047AE
S21408CB1070B500264A48FFF7BEFF4A484FF48041E2
S21408CB2001605FF4803101604FF40051016001201C
S21408CB30FFF790FF0120FFF79EFF1F20424908607D
S21408CB4042F2107041490860414908604148B0F116
S21408CB50006F02D3B0F1805F05D3B0F1C05F04D395
S21408CB60B0F1005F01D23C480600012203213000E4
S21408CB70FFF794FF02214FF48070FDF76AFB3748F1
S21408CB80FDF72FFB364D002D02D000BF6D1EFAE7CD
S21408CB903448FEF745FA18210020FEF7C1FA182196
S21408CBA00120FEF7BDFA18210220FEF7B9FA2E4832
S21408CBB0FEF7F0FA1A210020FEF766FB0F212B4835
S21408CBC0FDF747FB40F60D10FDF70BFB284C002C35
S21408CBD002D000BF641EFAE74FF4EC70FDF701FBC5
S21408CBE0022140F2D910FDF734FB02220021300062
S21408CBF0FFF754FF1F48FDF7F4FA02211E48FDF719
S21408CC0028FB0B211D48FDF724FB1D48FDF7E9FA14
S21408CC1064211C48FDF71DFB00F051F870BD0000AC
S21408CC206011004068110040C011004004001C203C
S21408CC3020160040241600407010004040100040A7
S21408CC4000366E0130260040101100400C120040DD
S21408CC500C12024011CB0800004013400C59430048
S21408CC6040420F0068DA080078DA08009000008072
S21408CC7080841E000D11008000010080D80100800D
S21408CC80F8517E80FA01008040487047404909689C
S21408CC9011F00301002905D0022909D005D303297C
S21408CCA009D00BE03B49080008E03B49080005E0CE
S21408CCB03649080002E039490800FFE77047F8B52A
S21408CCC00026002400253648006810F003000028D7
S21408CCD003D002284CD01BD34EE03248006810F030
S21408CCE00300002805D002280AD005D303280BD055
S21408CCF00DE02D4806000AE0FFF7C8FF060006E02C
S21408CD00FFF7C2FF060002E028480600FFE733E008
S21408CD102748006810F00700002802D0012803D032
S21408CD2006E01A48060003E0FFF7AEFF0600FFE736
S21408CD30204F3868C0070FD41F480068A0FB0601BC
S21408CD401E4A12680023FEF739FB04000D003868F7
S21408CD50C0F307404643A6191220A0FB0601184A4E
S21408CD60126812F03F020023FEF728FB060003E0D5
S21408CD704FF400400600FFE71248006800F0FF0086
S21408CD80401CB6FBF0F010490860F1BD00366E0195
S21408CD900811004000D8B805006CDC02001BB7007C
S21408CDA0341400403014004040420F0000B0710BAD
S21408CDB000120040041200401012004014120040F6
S21408CDC0181200400014004000001C2080B51648C9
S21408CDD0016851F470010160016851F00F010160AB
S21408CDE012490A6840F6034002430A6010485FF09A
S21408CDF0A0610160016851F00041016001680029E6
S21408CE00FCD4032101600B480B49086000200B493D
S21408CE10086001200A490860BFF36F8FBFF34F8F81
S21408CE2000F010F801BD00BF88ED00E08CED00E0D2
S21408CE300038034000FCFF07143003401830034056
S21408CE401C3003407047FEE710B4020052B2002AB6
S21408CE5005D44A01554B040064B21A5508E04A0145
S21408CE60534B040064B214F00F04234403F8042C54
S21408CE7010BC704710B50400601EB0F1807F01D367
S21408CE8001200EE0601E4B49086007215FF0FF3066
S21408CE90FFF7DAFF0020484908600720474908607E
S21408CEA0002010BD10B44C010444A35410BC7047B5
S21408CEB000EB810313F50C531A60704700EB8103EF
S21408CEC013F502531A60704700EB810313F50653F7
S21408CED01A6070473A490868002802D00868401E59
S21408CEE008607047364A106011680029FCD1704700
S21408CEF07CB504000D0033480088ADF80000324EBB
S21408CF002100300000F094F86B462A00210030001B
S21408CF1000F0BAF801232A0021003000FFF7C2FF0C
S21408CF204FF6FF7221003000FFF7C8FF5FF0FF32B0
S21408CF3021003000FFF7C8FF73BD10B500F0E0F819
S21408CF40FFF7E6FD00F00CF92048FEF737FC0E2147
S21408CF500020FFF7CDFF00210120FFF7C9FF1F21A2
S21408CF600020FFF7C5FF1A4800684FF47A71B0FB37
S21408CF70F1F0FFF77FFF002800D0FEE74FF47A7045
S21408CF80FFF7B0FF104C4FF4804200212000FFF757
S21408CF908FFF012201212000FFF78AFF5FF0004281
S21408CFA000212000FFF784FFE8E7000000E400E027
S21408CFB018ED00E014E000E018E000E010E000E003
S21408CFC0C0001C2062BE0800000010405CD90800A3
S21408CFD000001C20010009B2C1F30721002908D06F
S21408CFE0022910D00AD3042917D011D3052919D03D
S21408CFF01DE0012282401A4B1A6018E00122824086
S21408D000184B1A6013E001228240174B1A600EE094
S21408D01001228240154B1A6009E001228240144B17
S21408D0201A6004E001228240124B1A60FFE770473C
S21408D03038B504000D00082D06D32E220E490F48D9
S21408D040FEF7D4FAAFF300800D4830F91500FFF765
S21408D050C1FF0C4830F91500FFF7F0FC31BD0000A1
S21408D0604010004044100040481000404010024065
S21408D0704410024048100240A4D30800A8D508006F
S21408D08098DA0800A8DA080070B41C78002C0BD1CF
S21408D0904FF4005400EB81052D5901269640B54300
S21408D0A000EB810635511CE05C78002C07D1012482
S21408D0B0944000EB810515F50A552C6006E001241E
S21408D0C0944000EB810515F508552C604FF4005484
S21408D0D000EB81052D5901269640354300EB810665
S21408D0E0355170BC704730B40D00EDB280246543EE
S21408D0F000EB05041500EDB244F8253030BC704747
S21408D100F8B501242300012200215FF04020FFF734
S21408D110EAFF40252B000A2200215FF04020FFF797
S21408D120E2FF002633000E2200215FF04020FFF7C2
S21408D130DAFF33001F2200215FF04020FFF7D3FFFD
S21408D1403300002201215FF04020FFF7CCFF412783
S21408D1503B00022200215FF04020FFF7C4FFF1BD2C
S21408D1601CB54FF44270FFF7F0FB0A4800680090C1
S21408D1706846FDF729FF0848FDF733F80020FDF755
S21408D180EEFA0400230001225FF4E1310020FEF7E6
S21408D1909CFA13BD1CDE080042190080443A5C72F3
S21408D1A065735F636869705F692E6D7872745F6314
S21408D1B06D33335C53444B5F322E352E305F455605
S21408D1C04B2D4D494D5852543539355F4541525FC0
S21408D1D0322E305C646576696365735C4D494D58DC
S21408D1E05254353935535C7574696C69746965735E
S21408D1F05C64656275675F636F6E736F6C655C66AB
S21408D200736C5F64656275675F636F6E736F6C657A
S21408D2102E630000443A5C7265735F636869705FEA
S21408D220692E6D7872745F636D33335C53444B5F5D
S21408D230322E352E305F45564B2D4D494D5852549B
S21408D2403539355F4541525F322E305C636F6D70FD
S21408D2506F6E656E74735C73657269616C5F6D6121
S21408D2606E616765725C73657269616C5F706F7218
S21408D270745F756172742E6300000000443A5C7235
S21408D28065735F636869705F692E6D7872745F6333
S21408D2906D33335C53444B5F322E352E305F455624
S21408D2A04B2D4D494D5852543539355F4541525FDF
S21408D2B0322E305C646576696365735C4D494D58FB
S21408D2C05254353935535C647269766572735C6698
S21408D2D0736C5F666C6578636F6D6D2E6300000017
S21408D2E0443A5C7265735F636869705F692E6D782F
S21408D2F072745F636D33335C53444B5F322E352E46
S21408D300305F45564B2D4D494D5852543539355F8B
S21408D3104541525F322E305C636F6D706F6E656E7E
S21408D32074735C73657269616C5F6D616E61676565
S21408D330725C73657269616C5F6D616E6167657258
S21408D3402E630000443A5C7265735F636869705FB9
S21408D350692E6D7872745F636D33335C53444B5F2C
S21408D360322E352E305F45564B2D4D494D5852546A
S21408D3703539355F4541525F322E305C64657669D3
S21408D3806365735C4D494D585254353935535C6462
S21408D3907269766572735C66736C5F636C6F636BD9
S21408D3A02E630000443A5C7265735F636869705F59
S21408D3B0692E6D7872745F636D33335C53444B5FCC
S21408D3C0322E352E305F45564B2D4D494D5852540A
S21408D3D03539355F4541525F322E305C6465766973
S21408D3E06365735C4D494D585254353935535C6402
S21408D3F07269766572735C66736C5F6770696F2EA8
S21408D40063000000443A5C7265735F636869705F26
S21408D410692E6D7872745F636D33335C53444B5F6B
S21408D420322E352E305F45564B2D4D494D585254A9
S21408D4303539355F4541525F322E305C6465766912
S21408D4406365735C4D494D585254353935535C64A1
S21408D4507269766572735C66736C5F726573657401
S21408D4602E630000443A5C7265735F636869705F98
S21408D470692E6D7872745F636D33335C53444B5F0B
S21408D480322E352E305F45564B2D4D494D58525449
S21408D4903539355F4541525F322E305C64657669B2
S21408D4A06365735C4D494D585254353935535C6441
S21408D4B07269766572735C66736C5F757361727495
S21408D4C02E630000443A5C7265735F636869705F38
S21408D4D0692E6D7872745F636D33335C53444B5FAB
S21408D4E0322E352E305F45564B2D4D494D585254E9
S21408D4F03539355F4541525F322E305C636F6D704B
S21408D5006F6E656E74735C756172745C7573617248
S21408D510745F616461707465722E6300636F6E6613
S21408D52069672D3E696E7374616E6365203C2028BA
S21408D53073697A656F6628735F55736172744164A0
S21408D54061707465724261736529202F2073697A49
S21408D550656F662855534152545F54797065202A82
S21408D560292900000060104000701040008010401C
S21408D5700090104000201240003012400040124038
S21408D580005012400090204000A0204000B02040EC
S21408D59000C0204000D0204000E02040006012403C
S21408D5A00070124000801240706F7274203C202871
S21408D5B073697A656F6628735F6770696F436C6F07
S21408D5C0636B4E616D6529202F2073697A656F66D7
S21408D5D02828735F6770696F436C6F636B4E616D65
S21408D5E065295B305D29290021282830203D3D200B
S21408D5F06261736529207C7C202830203D3D2062AE
S21408D600617564726174655F42707329207C7C2042
S21408D6102830203D3D20737263436C6F636B5F4810
S21408D6207A29290021282830203D3D20626173652B
S21408D63029207C7C202830203D3D20636F6E66695B
S21408D6406729207C7C202830203D3D207372634368
S21408D6506C6F636B5F487A292900000000601040F1
S21408D66000701040008010400090104000201240CB
S21408D67000301240004012400050124000902040F7
S21408D68000A0204000B0204000C0204000D020402D
S21408D69000E0204010B5094C2068002804D0216816
S21408D6A00848074A126890476068002804D06168EE
S21408D6B00548034A1268904710BD0000B4001C20B5
S21408D6C0BC001C200040134000C0134072B6074838
S21408D6D0074901600A6882F30888064880F30A88C2
S21408D6E062B60548804705480047000008ED00E098
S21408D6F000A0080000FC2F20CDCD080065DB080040
S21408D700415353455254204552524F522022202509
S21408D7107320223A2066696C652022257322204CE5
S21408D720696E652022256422200A000030B450F86D
S21408D730041B79B10268436802440830DC0744BF1A
S21408D740A9F10104E31852F8045B43F8045B091FC7
S21408D750F9D1ECE730BC70476B5374617475735F2E
S21408D76053657269616C4D616E616765725F53756A
S21408D7706363657373203D3D20737461747573002D
S21408D780735F557361727441646170746572426147
S21408D79073655B636F6E6669672D3E696E73746149
S21408D7A06E63655D0000000010B5074979441831BE
S21408D7B0064C7C44163404E00A68081D1144884761
S21408D7C00146A142F8D110BD740000009400000084
S21408D7D0080309030A030B030C030D030E030F03C8
S21408D7E01003110312031303140315031603170378
S21408D7F019030000080309030A030B030C030D03AF
S21408D8000E030F0310031103120313031403150367
S21408D81016031703190300004EF68851CEF20001CE
S21408D820086840F470000860BFF34F8FBFF36F8F2F
S21408D8304FF00070E1EE100A70470000CFDDFFFFE2
S21408D840C000000004001C2000000000E1FEFFFFEE
S21408D85004000000CC05000000001C2000000000AA
S21408D860FEE70000735F666C6578636F6D6D4972DE
S21408D8707148616E646C65725B696E7374616E6321
S21408D880655D000021282830203D3D2062617365D3
S21408D89029207C7C202830203D3D20646174612945
S21408D8A02900000000F00DF8002801D0FFF77CFFE3
S21408D8B0AFF300800020AFF30080FFF73EFB00F0D8
S21408D8C002F80120704700F001B8FEE70746384620
S21408D8D000F002F8FBE7FEE780B5AFF30080024AE7
S21408D8E011001820ABBEFBE726000200735F666CCB
S21408D8F06578636F6D6D49727148616E646C6572A8
S21408D9005B31305D00000000735F666C6578636F9E
S21408D9106D6D49727148616E646C65725B31315D1C
S21408D92000000000735F666C6578636F6D6D497202
S21408D9307148616E646C65725B31325D0000000090
S21408D940735F666C6578636F6D6D49727148616E5A
S21408D950646C65725B31335D000000000D0A204779
S21408D96050494F20447269766572206578616D70FB
S21408D9706C650D0A00000000735F666C6578636F5F
S21408D9806D6D49727148616E646C65725B305D00DE
S21408D990735F666C6578636F6D6D49727148616E0A
S21408D9A0646C65725B315D00735F666C6578636F87
S21408D9B06D6D49727148616E646C65725B325D00AC
S21408D9C0735F666C6578636F6D6D49727148616EDA
S21408D9D0646C65725B335D00735F666C6578636F55
S21408D9E06D6D49727148616E646C65725B345D007A
S21408D9F0735F666C6578636F6D6D49727148616EAA
S21408DA00646C65725B355D00735F666C6578636F22
S21408DA106D6D49727148616E646C65725B365D0047
S21408DA20735F666C6578636F6D6D49727148616E79
S21408DA30646C65725B375D00735F666C6578636FF0
S21408DA406D6D49727148616E646C65725B385D0015
S21408DA50735F666C6578636F6D6D49727148616E49
S21408DA60646C65725B395D00010000000000000010
S21408DA70010000000300000001000000B0130000D1
S21408DA8078690000030000000000000000000000A5
S21408DA900000000101000000000401040204030461
S21408DAA0040405040604070400040104020403042D
S21408DAB00404050406040704626974506F73203C66
S21408DAC0203332750000000073657269616C486126
S21408DAD06E646C650000000073657269616C436F64
S21408DAE06E6669670000000073657269616C48615C
S21408DAF06E646C65000000006964203C3D20313788
S21408DB00550000006964203C3D2031365500000071
S21408DB106964203C3D2031550000000069203C3DEA
S21408DB2020313755000000003020213D2073697AE7
S21408DB30650000003020213D20636F6E666967002F
S21408DB40777269746548616E646C650072656164B5
S21408DB5048616E646C65000001480047FEE70000F7
S21408DB605DDB0800AFF30080FFF756FEFFF79AFE6E
S21408DB706964203C3D2031003020213D2063680048
S21408DB8062756666657200006C656E67746800008C
S21408DB9068616E646C650000636F6E666967000096
S21408DBA062756666657200006C656E67746800006C
S21408DBB068616E646C650000636F6E666967000076
S21408DBC064617461000000006C656E67746800002C
S21408DBD0004800475DDB0800004800475DDB08009A
S21408DBE0004800475DDB0800004800475DDB08008A
S21408DBF0004800475DDB0800004800475DDB08007A
S21408DC00004800475DDB0800004800475DDB080069
S21408DC10004800475DDB0800004800475DDB080059
S21408DC20004800475DDB0800004800475DDB080049
S21408DC30004800475DDB0800004800475DDB080039
S21408DC400048004769C508000048004791C5080015
S21408DC5000480047B7C5080000480047DDC508006B
S21408DC600048004703C608000048004729C60800C1
S21408DC70004800478DC7080000480047C5C7080089
S21408DC80004800475DDB0800004800475DDB0800E9
S21408DC90004800475DDB0800004800475DDB0800D9
S21408DCA0004800475DDB0800004800475DDB0800C9
S21408DCB0004800475DDB0800004800475DDB0800B9
S21408DCC0004800475DDB0800004800475DDB0800A9
S21408DCD0004800475DDB0800004800475DDB080099
S21408DCE0004800475DDB0800004800475DDB080089
S21408DCF0004800475DDB0800004800475DDB080079
S21408DD00004800475DDB0800004800475DDB080068
S21408DD10004800475DDB0800004800475DDB080058
S21408DD200048004795D60800004800474FC6080038
S21408DD300048004775C60800004800475DDB080035
S21408DD40004800475DDB0800004800475DDB080028
S21408DD50004800475DDB0800004800475DDB080018
S21408DD60004800475DDB0800004800475DDB080008
S21408DD70004800475DDB0800004800475DDB0800F8
S21408DD80004800475DDB0800004800475DDB0800E8
S21408DD90004800475DDB0800004800475DDB0800D8
S21408DDA0004800475DDB0800004800475DDB0800C8
S21408DDB0004800479DC6080000480047C5C608003A
S21408DDC000480047EDC608000048004715C7080089
S21408DDD0004800473DC708000048004765C70800D8
S21408DDE000480047FDC70800004800475DDB0800FC
S21408DDF0004800475DDB0800004800475DDB080078
S21408DE00004800475DDB0800004800475DDB080067
S21408DE10004800475DDB0800FFFFFFFF0001000029
S20C08DE2040420F00FEE7FEE792
S80408DB65B3
