S01D00006C65645F626C696E6B795F307830383030313030302E737265635A
S315080004004643464200040156000000000303030069
S3150800041001020100010600000200000000000000C1
S3150800042000000000000000000000000000000000BE
S3150800043000000000000000000000000000000000AE
S315080004405000000001080400000000000000000041
S31508000450000000040000000000000000000000008A
S31508000460000000000000000000000000000000007E
S31508000470000000000000000010000000000000005E
S31508000480EE871187208B04B304A700000000000044
S31508000490050404240000000000000000000000001D
S315080004A0000000000000000000000000000000003E
S315080004B00604000000000000000000000000000024
S315080004C0000000000000000000000000000000001E
S315080004D0000000000000000000000000000000000E
S315080004E07204000400040004000401200000000057
S315080004F000000000000000000000000000000000EE
S3150800050000000000000000000000000000000000DD
S3150800051000000000000000000000000000000000CD
S3150800052000000000000000000000000000000000BD
S3150800053000000000000000000000000000000000AD
S31508000540000000000000000000000000000000009D
S31508000550000000000000000000000000000000008D
S31508000560000000000000000000000000000000007D
S31508000570000000000000000000000000000000006D
S31508000580000000000000000000000000000000005D
S31508000590000000000000000000000000000000004D
S315080005A0000000000000000000000000000000003D
S315080005B0000000000000000000000000000000002D
S315080005C0000100000010000000000000000000000C
S315080005D00000010000820007000000000000000083
S315080005E000000000000000000000000000000000FD
S315080005F000000000000000000000000000000000ED
S3150800100000003020014400088B2D0008C32D00087D
S315080010102F380008DB390008933E0008A945000868
S315080010200000280000000000000000001346000829
S315080010301F460008001000086D4B0008073C000812
S3150800104019490008214900082949000831490008BA
S31508001050394900084149000849490008514900082A
S31508001060594900086149000869490008714900089A
S31508001070794900088149000889490008914900080A
S3150800108099490008A1490008A9490008B14900087A
S31508001090B9490008C1490008C9490008D1490008EA
S315080010A0D9490008E1490008E9490008F14900085A
S315080010B0F9490008014A0008094A0008114A0008C7
S315080010C0194A0008214A0008294A0008314A000836
S315080010D0394A0008414A0008494A0008514A0008A6
S315080010E0594A0008614A0008694A0008714A000816
S315080010F0794A0008814A0008894A0008914A000886
S31508001100994A0008A14A0008A94A0008B14A0008F5
S31508001110B94A0008C14A0008C94A0008D14A000865
S31508001120D94A0008E14A0008E94A0008F14A0008D5
S31508001130F94A0008014B0008094B0008114B000842
S31508001140194B0008214B0008294B0008314B0008B1
S31508001150394B0008414B0008494B0008514B000821
S30D08001160594B0008A1480008DC
S31508001180DFF848090068002803D1DFF8500A00682C
S3150800119000E000207047DFF8480A00687047DFF86B
S315080011A0440A7047DFF8400A0068C00702D54FF4C2
S315080011B0004000E00020704780B5DFF86C09006841
S315080011C010F0070F0AD0FFF7EAFFDFF85C1A096884
S315080011D001F0FF01491CB0FBF1F001E0FFF7E2FF67
S315080011E002BD30B4002200230FE001220CE041F6D4
S315080011F0FC7414EA810404F1804414F580544D0506
S31508001200F3D0C1F3C22121605B1C022B13D211005B
S31508001210C9B200290FD10E2404FB03F40100E140F2
S315080012200028E4D541F6FC7414EA810404F18044EC
S3150800123014F50434E3E7410004D5C0F30170DFF880
S31508001240081A086030BC7047002808D541F6FC72B9
S3150800125012EA800202F1804212F5043207E041F6F2
S31508001260FC7212EA800202F1804212F5805210687E
S3150800127050F000501060002904D1106850F08040EA
S31508001280106001E0491E116010680028FCD4704700
S3150800129038B50024DFF85409006810F00700002864
S315080012A002D0012803D006E0DFF8444903E0FFF73F
S315080012B067FF0400FFE7DFF83C592868C0070FD42A
S315080012C0DFF868090068A0FB0401DFF880291268C6
S315080012D0002300F0F1FF2A68C2F3074254430419B9
S315080012E0200032BD10B50400FFF7D2FFE4B2002C8F
S315080012F005D0022C1BD00ED3032C24D02FE01221AC
S31508001300A1FB0001DFF84829126812F03F0200230A
S3150800131000F0D2FF24E01221A1FB0001DFF83029FA
S315080013201268C2F30522002300F0C6FF18E0122156
S31508001330A1FB0001DFF818291268C2F30542002351
S3150800134000F0BAFF0CE01221A1FB0001DFF800292A
S315080013501268C2F30562002300F0AEFF00E0002029
S3150800136010BD38B50024DFF8EC08006810F0070057
S31508001370002802D0012803D006E0DFF8744803E00D
S31508001380FFF7FEFE0400FFE7DFF8CC582868C00721
S315080013900FD4DFF8C8080068A0FB0401DFF8C028EE
S315080013A01268002300F088FF2A68C2F307425443F4
S315080013B00419200032BD10B50400FFF7D2FFE4B2CD
S315080013C0002C05D0022C1BD00ED3032C24D02FE0E2
S315080013D01221A1FB0001DFF88C28126812F03F02E7
S315080013E0002300F069FF24E01221A1FB0001DFF8C9
S315080013F074281268C2F30522002300F05DFF18E086
S315080014001221A1FB0001DFF85C281268C2F305422D
S31508001410002300F051FF0CE01221A1FB0001DFF8C8
S3150800142044281268C2F30562002300F045FF00E075
S31508001430002010BD80B50020FFF7BDFFDFF8281893
S31508001440096801F0FF01491CB0FBF1F002BD00205C
S31508001450DFF8F417096811F00301002905D00229FD
S3150800146009D005D3032909D00BE0DFF8000808E006
S31508001470DFF8FC0705E0DFF8780702E0DFF84C0A3A
S31508001480FFE7704780B50020DFF8E817096811F014
S315080014900301002903D002291FD01AD320E0DFF860
S315080014A0D817096811F00301002905D0022909D0C7
S315080014B005D3032909D00BE0FFF771FE08E0FFF713
S315080014C0C6FF05E0FFF75CFE02E0DFF8400AFFE72B
S315080014D006E00020FFF706FF02E0FFF763FEFFE7DE
S315080014E002BD80B50020DFF89417096811F00301E2
S315080014F0002905D002291CD017D303291DD01FE0C7
S31508001500DFF8CC19096811F00301002903D0022974
S3150800151007D003D308E0DFF8F40905E0FFF730FE4B
S3150800152002E0FFF73CFEFFE70AE00020FFF7DAFEDD
S3150800153006E00120FFF7D6FE02E0FFF733FEFFE7DD
S3150800154002BD80B50020DFF8C819096811F0070147
S31508001550002905D002291CD017D303291DD020E065
S31508001560DFF8B019096811F00701002903D002292C
S3150800157007D003D308E0FFF703FE05E0FFF70FFEE9
S3150800158002E0DFF8EC06FFE70BE00020FFF7AAFE13
S3150800159007E00220FFF7A6FE03E00320FFF7A2FEFE
S315080015A0FFE7DFF8DC1A096801F0FF01491CB0FB08
S315080015B0F1F002BD80B50020DFF85C19096811F06A
S315080015C00701002909D0022929D024D304292ED0BD
S315080015D029D3062932D02ED333E0DFF8401909681B
S315080015E011F00701002906D002290AD006D30429DA
S315080015F00DD009D30EE0FFF7C3FD0BE0FFF7CFFDD3
S3150800160008E0DFF8080905E0FFF73CFF02E0FFF70E
S3150800161068FFFFE715E00020FFF764FE11E00220EF
S31508001620FFF760FE0DE00120FFF75CFE09E00320EE
S31508001630FFF758FE05E0FFF7FDFE02E0FFF7B2FDF3
S31508001640FFE7DFF8401A096801F0FF01491CB0FB03
S31508001650F1F002BDF8B504000026012000200020A4
S315080016600020DFF8B459DFF8B479122C09D34FF407
S31508001670F972DFF8AC19DFF8100A00F035FFAFF39E
S3150800168000806001285810F0070061017958C1F3FD
S31508001690072561017C5804F0FF04002803D00228BE
S315080016A011D004D312E0FFF7EDFE06000EE0DFF8D6
S315080016B0DC09066806F0FF06761C0020FFF712FE16
S315080016C0B0FBF6F602E0DFF8A865FFE7601CA0FBB2
S315080016D006016419641C2200002300F0EDFDF2BD2A
S315080016E038B5040000250020112C09D34FF40672E2
S315080016F0DFF82C19DFF8980900F0F6FEAFF3008042
S31508001700DFF890096101405810F00700002805D05D
S3150800171002280AD005D303280BD00FE0DFF850556E
S315080017200CE0FFF787FE050008E0DFF8B40405685B
S3150800173004E02000FFF78EFF0500FFE7280032BD12
S3150800174080B50020DFF85019096811F00701002953
S3150800175005D0022909D005D3032909D00CE0DFF802
S315080017600C0509E0FFF766FE06E0FFF714FD03E047
S315080017701120FFF76FFFFFE7DFF85C1A096801F031
S31508001780FF01491CB0FBF1F002BD38B50400002585
S31508001790022C09D340F28622DFF88418DFF83C0AC7
S315080017A000F0A2FEAFF30080002C0AD1DFF8300A61
S315080017B0006810F00700DFF82C1A0C6804F0FF0424
S315080017C009E0DFF8240A006810F00700DFF81C1AA1
S315080017D00C6804F0FF04002806D002280DD007D3B1
S315080017E0042812D00ED315E0FFF74CFE050011E0D1
S315080017F00020FFF777FD05000CE00220FFF772FDD9
S31508001800050007E0DFF8045704E00320FFF76AFD48
S315080018100500FFE7641CB5FBF4F032BD80B5002077
S31508001820DFF8CC19096811F00701002908D0022948
S315080018300DD008D3042911D00DD3052912D014E0F0
S31508001840FFF720FE11E00020FFF74CFD0DE0022017
S31508001850FFF748FD09E0DFF8B40606E00320FFF7C6
S3150800186041FD02E0FFF7E6FDFFE7DFF89419096896
S3150800187001F0FF01491CB0FBF1F002BD80B5002064
S31508001880DFF870190A6812F0070F02D1DFF8600353
S3150800189006E0096811F00701012901D1FFF7CAFD21
S315080018A0DFF86019096801F0FF01491CB0FBF1F087
S315080018B002BD38B504000025022C09D340F2F722F0
S315080018C0DFF85C17DFF8300900F00EFEAFF3008092
S315080018D0002C09D1DFF82409006810F0070F0CD195
S315080018E0FFF75DFC050008E0DFF81C09006810F04A
S315080018F0070F02D1FFF753FC0500280032BD80B55B
S315080019000020DFF80819096811F00701002903D03B
S3150800191002290FD00BD310E0FFF7B4FDDFF8F0185B
S31508001920096801F0FF01491CB0FBF1F005E0FFF77B
S3150800193036FC02E0FFF736FCFFE702BD38B50400C7
S315080019400025022C09D340F23732DFF8D416DFF827
S315080019508C0800F0C9FDAFF30080002C04D1DFF835
S31508001960B408DFF8B44803E0DFF8B008DFF8B04899
S31508001970006810F00700002806D002280DD007D30B
S31508001980042811D00ED314E0FFF77CFD050010E003
S315080019900020FFF7A7FC05000BE00220FFF7A2FCDA
S315080019A0050006E0B14D04E00320FFF79BFC0500A7
S315080019B0FFE7206800F0FF00401CB5FBF0F032BDE1
S315080019C080B50020DFF85C18096811F007010029C6
S315080019D002D0012903D004E0FFF754FD01E0844852
S315080019E0FFE7DFF84418096801F0FF01491CB0FB5E
S315080019F0F1F002BD80B50020DFF83018096811F053
S31508001A000701002903D0022907D003D307E0FFF70F
S31508001A10B7FB04E0FFF736FD01E07548FFE7DFF89E
S31508001A201018096801F0FF01491CB0FBF1F002BD6E
S31508001A3080B50020DFF8FC17096811F007010029B6
S31508001A4006D0022909D005D304290CD008D30DE005
S31508001A5087480BE0FFF7EEFC08E0FFF79CFB05E084
S31508001A60FFF79DFB02E0FFF7A7FBFFE7DFF8C817C4
S31508001A70096801F0FF01491CB0FBF1F002BD000046
S31508001A8080B50020DFF8B417096811F007010029AE
S31508001A9005D0022908D005D3032909D00CE0FFF7A1
S31508001AA0F1FC09E0724807E00220FFF71BFC03E09F
S31508001AB00320FFF717FCFFE7DFF88417096801F032
S31508001AC0FF01491CB0FBF1F002BD0000681100409F
S31508001AD080B50020DFF86C17096811F007010029A6
S31508001AE006D002290AD006D304290FD00AD311E05A
S31508001AF0FFF7C8FC0EE0DFF814040BE00020FFF740
S31508001B00F1FB07E00220FFF7EDFB03E00320FFF7F8
S31508001B10E9FBFFE7DFF83017096801F0FF01491C08
S31508001B20B0FBF1F002BD00003017004080B5002080
S31508001B30DFF81817096811F00701002908D00229EB
S31508001B400CD008D3042910D00BD3052911D014E0E2
S31508001B5000F01CF811E0FFF795FC0EE0DFF8AC0387
S31508001B600BE00020FFF7BEFB07E00220FFF7BAFBF9
S31508001B7003E00320FFF7B6FBFFE7DFF8D416096892
S31508001B8001F0FF01491CB0FBF1F002BD80B5002051
S31508001B90DFF8C016096811F00701002905D00229E7
S31508001BA00AD005D303290BD00EE0DFF860030BE05B
S31508001BB00020FFF797FB07E00220FFF793FB03E0FF
S31508001BC00320FFF78FFBFFE7DFF88C16096801F0A3
S31508001BD0FF01491CB0FBF1F002BD0000040008201B
S31508001BE00800082040420F00C011004000120040C3
S31508001BF000366E01041200400020DFF860160968FE
S31508001C0011F00701002902D0012902D003E0BF48DC
S31508001C1001E0AE48FFE7DFF84816096801F0FF0162
S31508001C20491CB0FBF1F07047341700401012004011
S31508001C3080B5FFF7E1FFDFF82C16096801F0FF0110
S31508001C40491CB0FBF1F002BD081100401412004017
S31508001C5018120040001202400412024010120240FC
S31508001C6014120240181202404012024000D8B80569
S31508001C70006CDC0234140040301400403414024076
S31508001C8080B50021C0B2002859D0022862D056D3A8
S31508001C90042867D062D306286DD067D3082873D086
S31508001CA06ED30A287AD074D30C2800F0808079D3B2
S31508001CB00E2800F08580C0F07F80102800F088800C
S31508001CC0C0F08280122800F09280C0F08C80142820
S31508001CD000F09780C0F09080162800F09C80C0F035
S31508001CE09580182800F0A180C0F09A801A2800F084
S31508001CF0A680C0F09F801C2800F0AB80C0F0A480AE
S31508001D001E2800F0B080C0F0A980202800F0B58019
S31508001D10C0F0AE80222800F0BA80C0F0B380242834
S31508001D2000F0BE80C0F0B880262800F0C180C0F060
S31508001D30BB80282800F0C480C0F0BE80C4E0FFF74E
S31508001D40A1FBDFF82415096801F0FF01491CB0FB67
S31508001D50F1F1B9E0FFF792FD0100B5E0FFF72AFCC3
S31508001D600100B1E0FFF7EDFB0100ADE00020FFF751
S31508001D700CFD0100A8E00120FFF707FD0100A3E024
S31508001D80FFF74CFD01009FE00020FFF792FD0100E0
S31508001D909AE00120FFF78DFD010095E0FFF7AFFD02
S31508001DA0010091E00020FFF7C9FD01008CE0012049
S31508001DB0FFF7C4FD010087E0FFF702FE010083E09C
S31508001DC0FFF718FE01007FE0FFF732FE01007BE017
S31508001DD0FFF787FBDFF89414096801F0FF01491C37
S31508001DE0B0FBF1F170E0FFF74BFE01006CE000205C
S31508001DF0FFF776FC010067E00120FFF771FC0100A0
S31508001E0062E00220FFF76CFC01005DE00320FFF7AB
S31508001E1067FC010058E00420FFF762FC010053E06C
S31508001E200520FFF75DFC01004EE00620FFF758FC91
S31508001E30010049E00720FFF753FC010044E00820B1
S31508001E40FFF74EFC01003FE00920FFF749FC0100BF
S31508001E503AE00A20FFF744FC010035E00B20FFF7C3
S31508001E603FFC010030E00C20FFF73AFC01002BE0B4
S31508001E700D20FFF735FC010026E00E20FFF730FCA9
S31508001E80010021E00F20FFF72BFC01001CE01020C9
S31508001E90FFF726FC010017E0FFF752FC010013E0EC
S31508001EA0FFF716FE01000FE0FFF740FE01000BE00A
S31508001EB0FFF76CFE010007E0FFF79EFE010003E056
S31508001EC0FFF7B6FE0100FFE7080002BD001BB700DA
S31508001ED030140240F8B505002E784F4F4F4C122E9D
S31508001EE008D340F2F3424E49DFF8840300F0FCFAC7
S31508001EF0AFF30080687810F0070071017850E87831
S31508001F00A97851EA002170012150F1BD00B0710B8A
S31508001F10D4160040D0160040E4170240E0170240ED
S31508001F2010B55FF4C024DFF84C130C600178DFF8B5
S31508001F30482311604168DFF8442311608168DFF89F
S31508001F4040231160007B002808D0022818D00ED341
S31508001F50042827D01DD305282DD035E0DFF8240323
S31508001F60016831F47F0151F48011016035E0DFF832
S31508001F701403016831F47F0151F4881101602CE0E3
S31508001F80DFF80003016831F47F0151F4A011016004
S31508001F9023E0DFF8F002016831F47F0151F4B01153
S31508001FA001601AE0DFF8DC02016831F47F0151F4C0
S31508001FB0D811016011E0DFF8CC02016831F47F0125
S31508001FC051F40411016008E040F224521449DFF884
S31508001FD0B80200F089FAAFF30080DFF8A8020168BA
S31508001FE031F002010160DFF8A40204600020FFF767
S31508001FF047FEDFF89C12096889B2A1FB0001DFF8E9
S315080020009422002300F058F9002101E000BF491C82
S315080020108142FBD310BD00000015024004150240A2
S315080020207840000830B4C0B2DFF86C321A68BF25B1
S315080020300400E4B2E40015FA04F432EA0404802544
S315080020400200D2B2D200954025431D60C9B211F0F4
S315080020503F010200D2B2D2009140214319604021CB
S315080020601A680400E4B2E40011FA04F42242F6D035
S315080020701A68C0B2C00081401143196030BC70476D
S31508002080D8160040E817024040480008601702408A
S315080020904C480008081502402817024010B55FF49E
S315080020A0C014DFF8D0110C600178DFF8F021116058
S315080020B04168DFF8EC2111608168DFF8E8211160DA
S315080020C0007B002808D0022816D00DD3042823D078
S315080020D01AD3052828D02FE07348016831F47F0108
S315080020E051F4801101602FE06F48016831F47F01D7
S315080020F051F48811016027E06B48016831F47F01CB
S3150800210051F4A01101601FE06748016831F47F01AE
S3150800211051F4B011016017E06348016831F47F019A
S3150800212051F4D81101600FE05F48016831F47F016E
S3150800213051F40411016007E040F27D525B495248B0
S3150800214000F0D2F9AFF300805748016831F0020178
S3150800215001604E4804600020FFF792FD5449096863
S3150800216089B2A1FB00014B4A002300F0A5F8002123
S3150800217001E000BF491C8142FBD310BD30B4C0B298
S315080021804C4B1A68BF250400E4B2E40015FA04F4BF
S3150800219032EA040480250200D2B2D20095402543D3
S315080021A01D60C9B211F03F010200D2B2D2009140BF
S315080021B02143196040211A680400E4B2E40011FAC8
S315080021C004F42242F6D01A68C0B2C0008140114316
S315080021D0196030BC70470000401702405848000894
S315080021E020160040241600403016004034160040E1
S315080021F040160040C0170240B848000820170040A3
S3150800220044160040C41702402018024060170040D8
S31508002210641700408016004084160040901600405F
S31508002220941600400018024010180240601600403C
S315080022306416004080170240841702403018024096
S31508002240341802409017004094170040A017004029
S31508002250A417004070170040741700407817004014
S315080022607C1700408017004000140040001402400C
S315080022706448000820260040001200401012004062
S315080022801412004004120040462900083026004077
S315080022900C120040C0C62D00181200400012024061
S315080022A0101202401412024004120240784000083C
S315080022B00C12024018120240BBBBE1B1B2F5803FD6
S315080022C080F07E80022A1ED98C46B1FBF2F102FB11
S315080022D011C31B0443EA1043B3FBF2FC02FB1C3395
S315080022E080B240EA0343B3FBF2F002FB103240EA45
S315080022F00C4000237047022A05D98446B0FBF2F049
S3150800230002FB10C270474AB105D100F00102490824
S315080023105FEA3000704700220023704700F0F0B8EB
S315080023200B000200002100207047904271EB030C5D
S31508002330F6D3B3F5803F2FD2F0B5B3FA83F7B1FAE7
S3150800234081F4A7F10F0E3D1B5340CEF1200602FA89
S315080023500EF2F3415340B5F10F0746D80F3C2C4413
S315080023604140C4F12006A040F1414140B1FBF3F6DB
S3150800237003FB1611A2FB0645001BA94102D2761ED5
S315080023808018594180EA010221FA0EF362FA0EF228
S3150800239000215A403046F0BD30B4B1FBF3FC03FBD4
S315080023A01C11A2FB0C45001BA94103D2ACF1010C80
S315080023B08018594130BC02460B46604600217047DA
S315080023C0B2F1807F65D3F0B5B2FA82F7B1FA81F43B
S315080023D0C7F10F063D1B22FA06F307F1110EF2416B
S315080023E020355A40B5F10F07B8D94140C4F1200647
S315080023F0A040F1414140B1FBF3FC03FB1C11A2FBD9
S315080024000C45001BA94103D2BCF1010C80185941A7
S315080024100F2F12D30F3FC90341EA5041B1FBF3F620
S3150800242003FB1611A2FB0645D4EBC030A94102D224
S31508002430761E8018594146EACC3C07B34140C7F19D
S315080024402006B840F1414140B1FBF3F603FB1611F3
S31508002450A2FB0645001BA94102D2761E80185941E7
S3150800246080EA010221FA0EF3C7F1200462FA0EF29D
S315080024700CFA07F05A402CFA04F13043F0BD80EA12
S31508002480010221FA0EF3002162FA0EF260465A4062
S31508002490F0BD8C46B1FBF2F102FB11C31B0243EA05
S315080024A01063B3FBF2FC02FB1C331B024CEA002050
S315080024B043EA1063B3FBF2FC02FB1C331B024CEA33
S315080024C0002043EA1063B3FBF2FC02FB1C331B0239
S315080024D04CEA002043EA1063B3FBF2FC02FB1C3211
S315080024E04CEA00200023704780B513000A0001005B
S315080024F0024800F0CFF800BEFDE700BF34440008EC
S31508002500704730B4002513E050F8042BD30744BFB6
S31508002510A9F101039A18091F042942F8045BFAD2A3
S3150800252013468C0744BF15809B1CC90748BF1D70FE
S3150800253050F8041B0029E7D130BC704738B50500B0
S315080025400C0043F22150002D07D140F2D112604908
S315080025506048FFF7C9FFAFF30080002C07D14FF49E
S31508002560E9725B495C48FFF7BFFFAFF300802200C2
S3150800257029005A4800F090F9002801D05FF0FF348E
S31508002580200032BD2DE9F04104000D0016001F00A1
S3150800259000205FF0000810E02868401C802805D35A
S315080025A029682000FFF7CAFF0020286028682654FB
S315080025B02868401C286018F10108B845ECDBBDE81E
S315080025C0F0812DE9F04188B006000F001400984606
S315080025D043F2215568464249102200F071F9CDF8B8
S315080025E0008001978DF80A608DF818402000C0B267
S315080025F001283CD1684607901C210022394C250049
S31508002600280000F0A1F9246104A9206900F0C2F8A5
S31508002610002807D04FF433722D493348FFF764FF7B
S31508002620AFF3008014F11401206900F0E1F80028E6
S3150800263007D040F2D62226492B48FFF755FFAFF3BD
S31508002640008014F11801206900F0F9F8002807D075
S3150800265040F2E1221E492448FFF746FFAFF3008007
S31508002660206922490860002008B0BDE8F0812000F2
S31508002670C0B2022801D12800F6E72000C0B203281C
S3150800268001D12800F0E7E4B2042C01D12800EBE7D9
S315080026902800E9E70EB418B5A0B004000020002011
S315080026A06846802100F084F910480068002801D1A6
S315080026B0002009E023A90E4B6A46200000F0C0F965
S315080026C001006846FFF73AFF21B010BC5DF810FB21
S315080026D0D03E0008C04800087048000820000820BE
S315080026E0D04700080C0008208C4400082800082061
S315080026F085250008EFF3108072B6704780F31088BE
S31508002700704738B514001A0043F221552B000029EA
S3150800271009D0017B012905D12100083000F0E9FA2A
S31508002720030000E02B00180000B232BDF8B5070020
S315080027300E001500002F07D140F20E3258495948AD
S31508002740FFF7D2FEAFF30080002E07D140F20F321A
S3150800275053495548FFF7C8FEAFF30080002D07D14F
S315080027604FF444724E495148FFF7BEFEAFF300805E
S315080027703C68002C07D140F2153249494C48FFF70E
S31508002780B3FEAFF300802B00320039002000FFF7BC
S31508002790B8FFF2BDF8B505000C0043F22156002C2F
S315080027A007D140F231323E494348FFF79DFEAFF369
S315080027B00080002D07D140F2363239493F48FFF7ED
S315080027C093FEAFF30080102100222F00380000F09E
S315080027D0BBF8207A2873207A012806D1E16815F11A
S315080027E0080000F051FA0600FFE7300000B2F2BD1B
S315080027F070B505000C00002D07D140F2E7322849D4
S315080028002E48FFF771FEAFF30080002C07D14FF476
S315080028107A7223492348FFF767FEAFF30080260044
S3150800282004210022200000F08FF8FFF763FF696893
S31508002830491C6960FFF762FF3560002070BD70B5FE
S3150800284005000C00002D07D140F2214214491B480F
S31508002850FFF74AFEAFF30080002C07D140F2224270
S315080028600F491448FFF740FEAFF300802600FFF734
S3150800287041FF2968002904D0FFF740FF43F22250A0
S3150800288009E02E60FFF73AFF04210022200000F03D
S315080028905BF83560002070BD80B5FFF747FF02BDC5
S315080028A01440000888480008C8480008D0480008AE
S315080028B0D848000894480008E0480008104800086E
S315080028C0103A07D330B4B1E83810103AA0E83810F7
S315080028D0F9D230BC530724BFB1E80810A0E80810A5
S315080028E044BF51F8043B40F8043BD20724BF31F8F3
S315080028F0022B20F8022B44BF0B7803707047121F77
S3150800290017D35B0009D151F8043B20F8023B1B0C96
S31508002910121F20F8023BF6D20BE051F8043B00F8F0
S31508002920013B1B0A20F8023B1B0C121F00F8013B57
S31508002930F3D238BF121D521E24BF11F8013B00F80E
S31508002940013BF8D87047300062F30F2262F31F424A
S31508002950401810F0030308D0C91A1FD3DB0748BF75
S3150800296000F8012D28BF20F8022D130030B41446B4
S315080029701546103928BF20E93C00FAD8490728BF70
S3150800298020E90C0048BF40F8042D890028BF20F82C
S31508002990022D48BF00F8012D30BC7047C91818BF72
S315080029A000F8012DCB0728BF00F8012D704730002D
S315080029B0002200F0D1B970B404000020002525706B
S315080029C0651C002A19D00968002906D1302129700A
S315080029D0401C33E030310C000AE000292ED091FB70
S315080029E0F3F203FB12110029F4D5C94331310C0067
S315080029F011002C706D1C401CEFE70968039C002928
S31508002A0011D130212970401C18E0612204E022000F
S31508002A10D2B2002AF9D041220A3A51180A003100E6
S31508002A202A706D1C401C002908D0B1FBF3F603FB85
S31508002A3016110A29EBD230310A00F0E770BC70474C
S31508002A402DE9F64F8DB00D001E0000240027002149
S31508002A500191002100210291824607E001235A468E
S31508002A60D2B201A90E98B0471AF1010A9AF80000E5
S31508002A70002800F00481252806D001230200D2B2DE
S31508002A8001A90E98B047EFE75FF001085FF000096B
S31508002A90002004E00A22303902FB09118946002881
S31508002AA00BD11AF1010A9AF80010B1F130020A2A7C
S31508002AB0F0D3BAF1010A0120F1E706201AF1010163
S31508002AC008782E2814D10023002005E05FF00A0CB0
S31508002AD0303A0CFB0322130000280AD1491C0A7855
S31508002AE0B2F1300CBCF10A0FF0D3491E0120F3E70E
S31508002AF0491E11F1010A9AF800B0BBF1640F1AD009
S31508002B00BBF1690F17D0BBF1660F14D0BBF1460FA6
S31508002B1011D0BBF1780F0ED0BBF1580F0BD0BBF11B
S31508002B206F0F08D0BBF1620F05D0BBF1700F02D052
S31508002B30BBF1750F72D1BBF1640F02D0BBF1690FFF
S31508002B400FD128682D1D03904046C0B200900A2375
S31508002B50012203A904A8FFF72EFF070004A800EB2B
S31508002B600704BBF1580F02D0BBF1780F14D1BBF1A3
S31508002B70780F01D15FF0000828682D1D02904046A5
S31508002B80C0B200901023002202A904A8FFF713FF81
S31508002B90070004A800EB0704BBF16F0F08D0BBF1D0
S31508002BA0620F05D0BBF1700F02D0BBF1750F20D1B3
S31508002BB028682D1D0290BBF16F0F01D108230AE08A
S31508002BC0BBF1620F01D1022305E0BBF1700F01D101
S31508002BD0102300E00A235FFA88F8CDF80080DBB2FC
S31508002BE0002202A904A8FFF7E6FE070004A800EBE6
S31508002BF00704B9EB07094B46202201A90E98B047EE
S31508002C00002C3FF431AF207800283FF42DAF012384
S31508002C10227801A90E98B047641EF4E7BBF1630F4A
S31508002C2009D128682D1DC0B201230200D2B201A91C
S31508002C300E98B04718E7BBF1730F7FF40FAFD5F8BE
S31508002C4000802D1DB8F1000F3FF40EAF404600F08E
S31508002C509DF80700B9EB07094B46202201A90E98F3
S31508002C60B04798F8000000283FF4FEAE012398F814
S31508002C70002001A90E98B04718F10108F1E701985C
S31508002C800FB0BDE8F08F010038B584B004000D0020
S31508002C90002D06D18B222B492B48FFF725FCAFF3D5
S31508002CA00080002C06D18C2226492848FFF71CFCF8
S31508002CB0AFF3008068680190287A8DF80800687A72
S31508002CC08DF80900E87A8DF80A00287B8DF80B0044
S31508002CD028680090A87A8DF80C006946200000F054
S31508002CE078F8002802D043F2215000E0002005B011
S31508002CF030BD70B506000D001400002E07D140F255
S31508002D000B1210491148FFF7EFFBAFF30080002DB7
S31508002D1007D14FF486720B490D48FFF7E5FBAFF371
S31508002D200080002C07D140F20D1206490948FFF72A
S31508002D30DBFBAFF3008022002900300000F0BCF86E
S31508002D4070BD0000483F00082048000830480008C9
S31508002D50E8480008F048000800B500BF130096468A
S31508002D609446103928BFA0E80C50FAD85FEA417C8F
S31508002D7028BF0CC048BF40F8042BC90728BF20F855
S31508002D80022B48BF00F8012B00BDFEE700F1010346
S31508002D90810704D010F8011B820781B1FAD10268B5
S31508002DA0A2F10131914311F0803104BF50F8042F8C
S31508002DB0F6E709BAB1FA81F100EBD100401CC01A56
S31508002DC07047FEE7002801D1002001E042F6AF7007
S31508002DD070477FB504000D00002C06D1DC224D4952
S31508002DE04D48FFF781FBAFF30080002D06D1DD22A9
S31508002DF048494A48FFF778FBAFF30080287B0E283E
S31508002E0006D3DE2243494648FFF76EFBAFF3008040
S31508002E10444E287B56F82000002806D1DF223D497B
S31508002E204148FFF761FBAFF30080684600F01FF9E1
S31508002E3068680090287A012803D102208DF80400DA
S31508002E4009E0287A022803D103208DF8040002E05D
S31508002E5000208DF80400687A012803D101208DF836
S31508002E60050002E000208DF80500A87A002801D0A8
S31508002E70012000E000208DF80800E87A002801D03B
S31508002E80012000E000208DF8090000208DF80B00D5
S31508002E9000208DF80C002A686946287B56F8200021
S31508002EA000F055F8002802D0FFF78CFF02E0287BD7
S31508002EB02070002004B070BD70B506000D00140027
S31508002EC0002E07D140F2451212491348FFF70CFBB2
S31508002ED0AFF30080002D07D14FF4A3720D491348B4
S31508002EE0FFF702FBAFF30080002C07D140F2471230
S31508002EF008490F48FFF7F8FAAFF3008022002900C7
S31508002F000848337850F8230000F036F9002070BDE1
S31508002F1000000000F8410008F848000800490008C9
S31508002F205042000890430008B444000808490008C5
S31508002F3010490008C9B2002904D0416851F48071CB
S31508002F40416003E0416831F480714160704770B5B3
S31508002F5004000D001600002C03D0002D01D0002E11
S31508002F6008D1B722DFF86812DFF86802FFF7BCFA63
S31508002F70AFF30080002C03D0002D01D0002E01D124
S31508002F80042073E00121200000F0C3F900286DD168
S31508002F90687A00281AD0D4F8000E50F00110C4F848
S31508002FA0000ED4F8080E30F47060C4F8080ED4F891
S31508002FB0080EE97A090211F470610843C4F8080E8C
S31508002FC0D4F8080E50F00100C4F8080E287A002834
S31508002FD01AD0D4F8000E50F00210C4F8000ED4F837
S31508002FE0080E30F47020C4F8080ED4F8080E297BB1
S31508002FF0090411F470210843C4F8080ED4F8080E21
S3150800300050F00200C4F8080E2879000110F03000CC
S315080030106979890111F040010843A979890011F0FD
S315080030200C010843E97950EAC130697BC9B24908FD
S31508003030C9B2C90211F400610843697B890311F416
S3150800304080410843A97B090311F48051084350F0D5
S315080030500100206032002968200000F036F80028B8
S3150800306004D1A97A2000FFF765FF002070BD38B5A6
S315080030700400002C09D14FF48972DFF85411DFF8E7
S315080030805801FFF731FAAFF300801021002225001E
S315080030902800FFF759FC5FF4E1302060002020711A
S315080030A0002060710120A0710020E07100202072CC
S315080030B0002060720020E0720020207300206073F8
S315080030C00020A0720020A07331BD2DE9F84304004A
S315080030D00D0016005FF0FF394F465FF00F08002C11
S315080030E003D0002D01D0002E09D14FF49E72DFF8CF
S315080030F0E010DFF8E800FFF7F7F9AFF30080002CDF
S3150800310003D0002D01D0002E01D1042032E0206822
S31508003110000507D5206840042BD5B6FBF5F0401E00
S31508003120206226E041460FE0281A07E04B1C501C97
S315080031304343B6FBF3F08542F6D2401BB84202D2AF
S31508003140070088469146491E082908D3481C684343
S31508003150B6FBF0F2521EB2F5803FE7D3F3E7B9F5B6
S31508003160803F02D341F2516004E0C4F82880C4F8D5
S3150800317020900020BDE8F28370B504000E0015000B
S31508003180002C01D0002E09D14FF4BE72DFF8401092
S31508003190DFF84C00FFF7A8F9AFF30080002C01D048
S315080031A0002E00D112E0D4F8000EC00709D40DE0B5
S315080031B0D4F8040E8006FBD53078C4F8200E761CA9
S315080031C06D1E002DF4D1A0680007FCD570BD000067
S315080031D098410008584300087C4800081C4300082A
S315080031E0CC450008010009B2C1F30721002908D01F
S315080031F0022914D00CD304291FD017D3052923D0AC
S3150800320029E0012111FA00F0DFF81014086022E025
S31508003210012111FA00F0DFF8081408601BE001210B
S3150800322011FA00F0DFF8FC13086014E0012111FA26
S3150800323000F0DFF8F41308600DE0012111FA00F040
S31508003240DFF8E813086006E0012111FA00F0DFF85C
S31508003250E0130860FFE770470A00D2B2002A01D1DE
S31508003260012014E00A00D2B2052A06DAD0F8F80FCF
S31508003270C91CC84010F0010009E0C9B2052905D1EA
S31508003280D0F8F80FC00910F0010000E000207047E0
S3150800329080B5002100E0491C112907DADFF89423DC
S315080032A052F821209042F6D1080009E05F22DFF8A3
S315080032B08813DFF88803FFF717F9AFF300800020BB
S315080032C002BD70B505000E0014003100C9B2280011
S315080032D0FFF7C2FF002801D1032019E0D5F8F80F3F
S315080032E0000709D5D5F8F80F10F007003100C9B264
S315080032F0884201D001200BE0002C05D0F6B256F02A
S315080033000806C5F8F86F02E0F6B2C5F8F86F0020AF
S3150800331070BD70B504000D002000FFF7B9FF060068
S31508003320002E01D5042011E0DFF8140330F9160049
S31508003330FFF758FFDFF80C0330F9160000F06CFAB7
S3150800334000222900C9B22000FFF7BBFF70BD10B5E7
S31508003350DFF8F4422068002806D1AF22B649BC48F7
S31508003360FFF7C2F8AFF30080B8480168B1480068B3
S315080033702268904710BD10B5B34C6068002806D186
S31508003380BC22AD49B348FFF7AFF8AFF30080AF48AA
S315080033904168A84840686268904710BD10B5AA4CB5
S315080033A0A068002806D1C922A349AB48FFF79CF8B4
S315080033B0AFF30080A54881689E488068A268904758
S315080033C010BD10B5A04CE068002806D1D6229A494F
S315080033D0A248FFF789F8AFF300809C48C168954872
S315080033E0C068E268904710BD10B5974C2069002860
S315080033F006D1E32290499A48FFF776F8AFF30080A2
S31508003400924801698B4800692269904710BD10B53A
S315080034108D4C6069002806D1F12287499148FFF74B
S3150800342063F8AFF300808948416982484069626958
S31508003430904710BD10B5844CA069002806D1FE221D
S315080034407D498948FFF750F8AFF300807F488169C6
S3150800345078488069A269904710BD10B57A4CE06932
S31508003460002807D140F20B1273498048FFF73CF851
S31508003470AFF300807548C1696E48C069E269904734
S3150800348010BD10B5704C206A002807D14FF48C7215
S3150800349069497748FFF728F8AFF300806B48016A57
S315080034A06448006A226A904710BD10B5664C606A87
S315080034B0002807D140F225125F496E48FFF714F835
S315080034C0AFF300806148416A5A48406A626A904789
S315080034D010BD10B55C4CA06A002807D14FF499724C
S315080034E055496548FFF700F8AFF300805748816AE9
S315080034F05048806AA26A904710BD10B5524CE06ADF
S31508003500002807D140F23F124B495C48FEF7ECFF12
S31508003510AFF300804D48C16A4648C06AE26A9047E0
S3150800352010BD10B5484C206B002807D14FF4A67281
S3150800353041495348FEF7D8FFAFF300804348016B73
S315080035403C48006B226B904710BD10B53E4C606B33
S31508003550002807D140F2591237494A48FEF7C4FFF6
S31508003560AFF300803948416B3248406B626B904735
S3150800357010BD38B54448FFF78BFE0400324D55F8A8
S315080035802400002807D14FF4B5722B493F48FEF7AF
S31508003590ABFFAFF300802D4850F82410254850F8AB
S315080035A0240055F82420904731BD38B53848FFF730
S315080035B06FFE0400244D55F82400002807D140F278
S315080035C07B121D493148FEF78FFFAFF300801F4875
S315080035D050F82410174850F8240055F8242090472E
S315080035E031BD38B52B48FFF753FE0400164D55F884
S315080035F02400002807D14FF4C6720F492348FEF766
S3150800360073FFAFF30080114850F82410094850F8AA
S31508003610240055F82420904731BD00004010004092
S315080036204410004048100040401002404410024038
S315080036304810024098420008B03F0008AE2900082A
S3150800364004450008284500082C00082070000820BA
S31508003650C0460008D8460008F04600080847000893
S315080036602047000838470008504700086847000800
S315080036708047000898470008344600085046000866
S315080036806C4600088846000800601240AC450008F1
S31508003690007012400080124038B5010009B2C1F32B
S315080036A0072500B200F0FF0001248440202806D335
S315080036B02E2245494548FEF717FFAFF30080002D37
S315080036C008D0022D14D00CD3042D1FD017D3052DE6
S315080036D023D029E03E4804603E4800682042FBD0DB
S315080036E022E03D4804603D4800682042FBD01BE0CC
S315080036F03B4804603B4800682042FBD014E03A4847
S3150800370004603A4800682042FBD00DE0384804605F
S31508003710384800682042FBD006E03748046037483E
S3150800372000682042FBD0FFE731BD38B5010009B279
S31508003730C1F3072500B200F0FF00012484402028C9
S3150800374006D3692220492148FEF7CEFEAFF3008052
S31508003750002D08D0022D16D00DD3042D23D01AD350
S31508003760052D28D02FE0264804601A480068204016
S315080037708442FAD027E023480460184800682040AD
S315080037808442FAD01FE020480460164800682040AA
S315080037908442FAD017E01D480460144800682040A7
S315080037A08442FAD00FE01A480460124800682040A4
S315080037B08442FAD007E017480460104800682040A1
S315080037C08442FAD0FFE731BD3841000800480008B6
S315080037D04000004010000040440000401400004033
S315080037E04800004018000040400002401000024017
S315080037F044000240140002404800024018000240FB
S3150800380070000040740000407800004070000240DC
S31508003810740002407800024010B50400200000B28F
S31508003820FFF73AFF200000B2FFF77FFF10BDFEE763
S315080038303B4870473B49096811F00301002905D048
S31508003840022907D004D3032906D007E0364805E045
S31508003850364803E0324801E03548FFE7704738B597
S315080038600024002000213348006810F003000028D7
S3150800387003D0022847D019D348E02F48006810F033
S315080038800300002805D0022809D004D303280AD04B
S315080038900BE02A4C09E0FFF7CDFF040005E0FFF72F
S315080038A0C7FF040001E0264CFFE72FE02548006823
S315080038B010F00700002802D0012802D005E0184CB5
S315080038C003E0FFF7B5FF0400FFE71F4D2868C007B0
S315080038D00DD41E480068A0FB04011D4A1268002387
S315080038E0FEF7EAFC2A68C2F3074254430419122079
S315080038F0A0FB0401174A126812F03F020023FEF7E4
S31508003900DBFC040002E04FF40044FFE712480068BD
S3150800391000F0FF00401CB4FBF0F01049086031BD10
S3150800392000366E010811004000D8B805006CDC02AC
S31508003930001BB700341400403014004040420F000A
S3150800394000B0710B00120040041200401012004033
S31508003950141200401812004000140040000008200D
S3150800396080B51648016851F470010160016851F08C
S315080039700F01016012490A6840F6034002430A60D3
S3150800398010485FF0A0610160016851F000410160D4
S3150800399001680029FCD4032101600B480B49086023
S315080039A000200B49086001200A490860BFF36F8FA1
S315080039B0BFF34F8F00F010F801BD00BF88ED00E09F
S315080039C08CED00E00038034000FCFF07143003408C
S315080039D0183003401C3003407047FEE7DFF800F05C
S315080039E0C5000820C0B2002806D00120504908604A
S315080039F000205049086004E04D48016851F0020172
S31508003A0001607047C0B2002805D04B48016851F0E4
S31508003A100101016004E0484801684908490001605D
S31508003A20704746490860704710B500244448FFF7B8
S31508003A30F8FF44484FF4804101605FF4803101602B
S31508003A404FF4005101600120FFF7CCFF0120FFF77A
S31508003A50D9FF1F203C49086042F210703B490860B4
S31508003A603B4908603B48B0F10061B1F1006F04D3EF
S31508003A70B0F1C050B0F1006F00D2374C01220321DB
S31508003A802000FFF7ABFF02214FF48070FDF7DCFB47
S31508003A903248FDF7A6FB324801E000BF401E002869
S31508003AA0FBD13048FEF73CFA18210020FEF7BAFA97
S31508003AB018210120FEF7B6FA18210220FEF7B2FAFD
S31508003AC02948FEF7EBFA1A210020FEF757FB0F21CB
S31508003AD02648FDF7B9FB40F60D10FDF782FB244892
S31508003AE001E000BF401E0028FBD14FF4EC70FDF743
S31508003AF078FB022140F2D910FDF7A6FB022200212D
S31508003B002000FFF76BFF1B48FDF76BFB02211A48E5
S31508003B10FDF79AFB0B211948FDF796FB1848FDF7A8
S31508003B2060FB64211748FDF78FFBFFF798FE10BD71
S31508003B306011004068110040C011004004000820D0
S31508003B4000366E0130260040101100400C1200406D
S31508003B500C120240293A0008004013400C59430051
S31508003B6040420F00B0470008C04700089000008098
S31508003B7080841E000D11008000010080D80100809D
S31508003B80F8517E80FA010080020052B2002A04D45D
S31508003B904901524A40B2115407E04901504A40B21D
S31508003BA010F00F00104400F8041C704780B5411E41
S31508003BB0B1F1807F01D301200EE0401E494908601B
S31508003BC007215FF0FF30FFF7DFFF00204649086056
S31508003BD0072046490860002002BD4901084483546D
S31508003BE0704700EB810010F50C500260704700EB3F
S31508003BF0810010F502500260704700EB810010F555
S31508003C000650026070473A490868002802D00868DA
S31508003C10401E086070473649086008680028FCD1CD
S31508003C2070477CB504000D0032480088ADF80000E6
S31508003C30314E2100300000F099F86B462A00210029
S31508003C40300000F0BDF801232A0021003000FFF7FC
S31508003C50C4FF4FF6FF7221003000FFF7C8FF5FF080
S31508003C60FF3221003000FFF7C8FF73BD10B500F022
S31508003C70E3F8FFF7D9FE00F00DF92048FEF70AFD34
S31508003C800E210020FFF7CDFF00210120FFF7C9FF15
S31508003C901F210020FFF7C5FF194800684FF47A7105
S31508003CA0B0FBF1F0FFF782FF002800D0FEE7C8203E
S31508003CB0FFF7B1FF104C4FF4804200212000FFF7B8
S31508003CC090FF012201212000FFF78BFF5FF00042E1
S31508003CD000212000FFF785FFE9E7000000E400E087
S31508003CE018ED00E014E000E018E000E010E000E065
S31508003CF0C0000820862C000800001040A4460008D2
S31508003D0000000820010009B2C1F30721002908D0E4
S31508003D10022912D00BD304291BD014D305291ED08F
S31508003D2023E0012111FA00F01B4908601DE001217A
S31508003D3011FA00F01949086017E0012111FA00F09C
S31508003D401749086011E0012111FA00F015490860C9
S31508003D500BE0012111FA00F01349086005E0012182
S31508003D6011FA00F011490860FFE7704710B50C001A
S31508003D70082C06D32E220E490E48FEF7B5FBAFF3E4
S31508003D8000800D4830F91400FFF7BCFF0B4830F9E6
S31508003D901400FFF741FD10BD4010004044100040DC
S31508003DA048100040401002404410024048100240AB
S31508003DB0D8400008DC420008E0470008F047000841
S31508003DC030B41C78002C0DD14FF4005300EB81045D
S31508003DD0E458012515FA02F234EA020200EB8100E2
S31508003DE0C2501DE05B78002B07D10123934000EBFE
S31508003DF0810414F50A54236006E00123934000EB7E
S31508003E00810414F5085423604FF4005300EB810431
S31508003E10E458012515FA02F2224300EB8100C2504C
S31508003E2030BC704710B4C9B2802461430844D2B28A
S31508003E3040F8223010BC704710B50123012200213A
S31508003E405FF04020FFF7EEFF40230A2200215FF0D3
S31508003E504020FFF7E7FF002423000E2200215FF031
S31508003E604020FFF7DFFF23001F2200215FF04020DC
S31508003E70FFF7D8FF2300002201215FF04020FFF75B
S31508003E80D1FF4123022200215FF04020FFF7CAFF3D
S31508003E9010BDFEE780B54FF44270FFF746FC0A48AE
S31508003EA0006800906846FEF715F80848FDF799F986
S31508003EB00020FDF715FC030001225FF4E131002024
S31508003EC0FEF77FFB01BD0000644B00084219008025
S31508003ED0443A5C7265735F636869705F692E6D78D2
S31508003EE072745F636D33335C53444B5F322E352EE9
S31508003EF0305F45564B2D4D494D5852543539355F2F
S31508003F004541525F322E305C646576696365735C41
S31508003F104D494D585254353935535C7574696C6939
S31508003F20746965735C64656275675F636F6E736FEA
S31508003F306C655C66736C5F64656275675F636F6EFC
S31508003F40736F6C652E630000443A5C7265735F6339
S31508003F506869705F692E6D7872745F636D33335C60
S31508003F6053444B5F322E352E305F45564B2D4D4907
S31508003F704D5852543539355F4541525F322E305CC3
S31508003F80636F6D706F6E656E74735C73657269616D
S31508003F906C5F6D616E616765725C73657269616C91
S31508003FA05F706F72745F756172742E630000000033
S31508003FB0443A5C7265735F636869705F692E6D78F1
S31508003FC072745F636D33335C53444B5F322E352E08
S31508003FD0305F45564B2D4D494D5852543539355F4E
S31508003FE04541525F322E305C646576696365735C61
S31508003FF04D494D585254353935535C647269766566
S3150800400072735C66736C5F666C6578636F6D6D2E34
S3150800401063000000443A5C7265735F636869705FA9
S31508004020692E6D7872745F636D33335C53444B5FEE
S31508004030322E352E305F45564B2D4D494D5852542C
S315080040403539355F4541525F322E305C636F6D708E
S315080040506F6E656E74735C73657269616C5F6D61B2
S315080040606E616765725C73657269616C5F6D616EBE
S31508004070616765722E630000443A5C7265735F631C
S315080040806869705F692E6D7872745F636D33335C2F
S3150800409053444B5F322E352E305F45564B2D4D49D6
S315080040A04D5852543539355F4541525F322E305C92
S315080040B0646576696365735C4D494D585254353964
S315080040C035535C647269766572735C66736C5F639C
S315080040D06C6F636B2E630000443A5C7265735F63B2
S315080040E06869705F692E6D7872745F636D33335CCF
S315080040F053444B5F322E352E305F45564B2D4D4976
S315080041004D5852543539355F4541525F322E305C31
S31508004110646576696365735C4D494D585254353903
S3150800412035535C647269766572735C66736C5F6737
S3150800413070696F2E63000000443A5C7265735F63B2
S315080041406869705F692E6D7872745F636D33335C6E
S3150800415053444B5F322E352E305F45564B2D4D4915
S315080041604D5852543539355F4541525F322E305CD1
S31508004170646576696365735C4D494D5852543539A3
S3150800418035535C647269766572735C66736C5F72CC
S31508004190657365742E630000443A5C7265735F63E9
S315080041A06869705F692E6D7872745F636D33335C0E
S315080041B053444B5F322E352E305F45564B2D4D49B5
S315080041C04D5852543539355F4541525F322E305C71
S315080041D0646576696365735C4D494D585254353943
S315080041E035535C647269766572735C66736C5F7569
S315080041F0736172742E630000443A5C7265735F6380
S315080042006869705F692E6D7872745F636D33335CAD
S3150800421053444B5F322E352E305F45564B2D4D4954
S315080042204D5852543539355F4541525F322E305C10
S31508004230636F6D706F6E656E74735C756172745CB6
S3150800424075736172745F616461707465722E630060
S31508004250636F6E6669672D3E696E7374616E63651A
S31508004260203C202873697A656F6628735F557361E9
S315080042707274416461707465724261736529202F96
S315080042802073697A656F662855534152545F54798D
S315080042907065202A2929000000601040007010402F
S315080042A0008010400090104000201240003012405C
S315080042B000401240005012400090204000A02040CC
S315080042C000B0204000C0204000D0204000E0204040
S315080042D0006012400070124000801240706F7274C5
S315080042E0203C202873697A656F6628735F67706952
S315080042F06F436C6F636B4E616D6529202F20736960
S315080043007A656F662828735F6770696F436C6F6399
S315080043106B4E616D65295B305D292900212828309F
S31508004320203D3D206261736529207C7C2028302051
S315080043303D3D2062617564726174655F42707329E0
S31508004340207C7C202830203D3D20737263436C6FAF
S31508004350636B5F487A29290021282830203D3D20B3
S315080043606261736529207C7C202830203D3D2063CE
S315080043706F6E66696729207C7C202830203D3D20A9
S31508004380737263436C6F636B5F487A292900000078
S3150800439000601040007010400080104000901040EF
S315080043A000201240003012400040124000501240D7
S315080043B00090204000A0204000B0204000C02040CF
S315080043C000D0204000E0204010B5094C20680028A5
S315080043D004D021680848074A126890476068002890
S315080043E004D061680548034A1268904710BD00006A
S315080043F0B4000820BC0008200040134000C0134049
S3150800440072B60748074901600A6882F308880648B1
S3150800441080F30A8862B605488047054800470000C9
S3150800442008ED00E00010000800FC2F2061390008A4
S31508004430AD480008415353455254204552524F52F5
S31508004440202220257320223A2066696C65202225C1
S315080044507322204C696E652022256422200A0000FA
S3150800446030B450F8041B79B1026843680244083036
S31508004470DC0744BFA9F10104E31852F8045B43F8CA
S31508004480045B091FF9D1ECE730BC70476B537461C4
S315080044907475735F53657269616C4D616E616765AA
S315080044A0725F53756363657373203D3D2073746152
S315080044B074757300735F55736172744164617074C7
S315080044C06572426173655B636F6E6669672D3E69E7
S315080044D06E7374616E63655D0000000010B5074970
S315080044E079441831064C7C44163404E00A68081DE1
S315080044F0114488470146A142F8D110BD7400000056
S31508004500A8000000080309030A030B030C030D03A4
S315080045100E030F03100311031203130314031503E9
S315080045201603170319030000080309030A030B03FC
S315080045300C030D030E030F031003110312031303D9
S315080045401403150316031703190300004EF68851C2
S31508004550CEF20001086840F470000860BFF34F8F80
S31508004560BFF36F8F4FF00070E1EE100A704700003E
S3150800457093DFFFFFC00000000400082000000000D1
S31508004580E1FEFFFF04000000E0050000000008202F
S3150800459000000000CDFEFFFF84000000D4050000E7
S315080045A0C400082000000000FEE70000735F666C88
S315080045B06578636F6D6D49727148616E646C65727A
S315080045C05B696E7374616E63655D0000212828302F
S315080045D0203D3D206261736529207C7C202830209F
S315080045E03D3D2064617461292900000000F00DF842
S315080045F0002801D0FFF772FFAFF300800020AFF369
S315080046000080FFF733FB00F002F80120704700F046
S3150800461001B8FEE70746384600F002F8FBE7FEE772
S3150800462080B5AFF30080024A11001820ABBEFBE745
S3150800463026000200735F666C6578636F6D6D49725C
S315080046407148616E646C65725B31305D0000000014
S31508004650735F666C6578636F6D6D49727148616EDC
S31508004660646C65725B31315D00000000735F666CD7
S315080046706578636F6D6D49727148616E646C6572B9
S315080046805B31325D00000000735F666C6578636FAE
S315080046906D6D49727148616E646C65725B31335D2C
S315080046A0000000000D0A204750494F2044726976E1
S315080046B06572206578616D706C650D0A00000000F2
S315080046C0735F666C6578636F6D6D49727148616E6C
S315080046D0646C65725B305D00735F666C6578636FEA
S315080046E06D6D49727148616E646C65725B315D000F
S315080046F0735F666C6578636F6D6D49727148616E3C
S31508004700646C65725B325D00735F666C6578636FB7
S315080047106D6D49727148616E646C65725B335D00DC
S31508004720735F666C6578636F6D6D49727148616E0B
S31508004730646C65725B345D00735F666C6578636F85
S315080047406D6D49727148616E646C65725B355D00AA
S31508004750735F666C6578636F6D6D49727148616EDB
S31508004760646C65725B365D00735F666C6578636F53
S315080047706D6D49727148616E646C65725B375D0078
S31508004780735F666C6578636F6D6D49727148616EAB
S31508004790646C65725B385D00735F666C6578636F21
S315080047A06D6D49727148616E646C65725B395D0046
S315080047B001000000000000000100000003000000E6
S315080047C001000000B0130000786900000300000033
S315080047D000000000000000000000000101000000C9
S315080047E0000401040204030404040504060407047F
S315080047F0000401040204030404040504060407046F
S31508004800626974506F73203C2033327500000000D3
S3150800481073657269616C48616E646C6500000000BE
S3150800482073657269616C436F6E66696700000000A4
S3150800483073657269616C48616E646C65000000009E
S315080048406964203C3D203137550000006964203CEE
S315080048503D203136550000006964203C3D20315525
S315080048600000000069203C3D20313755000000005B
S315080048703020213D2073697A650000003020213DF3
S3150800488020636F6E66696700777269746548616E42
S31508004890646C65007265616448616E646C650000ED
S315080048A001480047FEE70000A5480008AFF300806E
S315080048B0FFF74CFEFFF79AFE6964203C3D20310065
S315080048C03020213D206368006275666665720000C7
S315080048D06C656E677468000068616E646C650000DC
S315080048E0636F6E66696700006275666665720000CA
S315080048F06C656E677468000068616E646C650000BC
S31508004900636F6E6669670000646174610000000089
S315080049106C656E677468000000480047A548000883
S3150800492000480047A548000800480047A548000871
S3150800493000480047A548000800480047A548000861
S3150800494000480047A548000800480047A548000851
S3150800495000480047A548000800480047A548000841
S3150800496000480047A548000800480047A548000831
S3150800497000480047A548000800480047A548000821
S3150800498000480047A5480008004800474F3300087C
S315080049900048004777330008004800479D33000861
S315080049A000480047C333000800480047E9330008B9
S315080049B0004800470F3400080048004773350008D0
S315080049C000480047AB35000800480047A5480008DE
S315080049D000480047A548000800480047A5480008C1
S315080049E000480047A548000800480047A5480008B1
S315080049F000480047A548000800480047A5480008A1
S31508004A0000480047A548000800480047A548000890
S31508004A1000480047A548000800480047A548000880
S31508004A2000480047A548000800480047A548000870
S31508004A3000480047A548000800480047A548000860
S31508004A4000480047A548000800480047A548000850
S31508004A5000480047A548000800480047A548000840
S31508004A6000480047A548000800480047C943000811
S31508004A700048004735340008004800475B34000802
S31508004A8000480047A548000800480047A548000810
S31508004A9000480047A548000800480047A548000800
S31508004AA000480047A548000800480047A5480008F0
S31508004AB000480047A548000800480047A5480008E0
S31508004AC000480047A548000800480047A5480008D0
S31508004AD000480047A548000800480047A5480008C0
S31508004AE000480047A548000800480047A5480008B0
S31508004AF000480047A54800080048004783340008D6
S31508004B0000480047AB34000800480047D334000883
S31508004B1000480047FB3400080048004723350008D2
S31508004B20004800474B35000800480047E3350008B1
S31508004B3000480047A548000800480047A54800085F
S31508004B4000480047A548000800480047A54800084F
S31508004B5000480047A548000800480047A54800083F
S31508004B60FFFFFFFF0001000040420F00FEE70000C4
S31508004B7030B4002834D01B4B1C688C4206D11A4C22
S31508004B80246804F0FF04551EAC4229D0D0F8E04052
S31508004B90A40703D4D0F8E040E407F7D4046854F037
S31508004BA0020404605FF48034104D2C6019600E49CD
S31508004BB00B6853F000530B60521E02F0FF020A60A6
S31508004BC00A68002AFCD40A490C60016831F002011F
S31508004BD00160016851F0010101600168C907FCD450
S31508004BE030BC704720160040241600407010004064
S30908004BF04010004023
S705080048ADFD
