S01200006C65645F626C696E6B792E73726563F5
S113A00000000220C1B2000067A900004FAB0000AD
S113A010E7AB00008BAE000047B300000000000077
S113A02000000000000000000000000053B3000026
S113A0309DB50000000000009FB50000A1B5000020
S113A04099B5000099B5000099B5000099B50000D4
S113A05099B5000099B5000099B5000099B50000C4
S113A06099B5000099B5000099B5000099B50000B4
S113A07099B5000099B5000099B5000099B50000A4
S113A08099B5000099B5000099B5000099B5000094
S113A0900DB4000015B400001DB4000025B4000088
S113A0A02DB4000035B400003DB4000045B40000F8
S113A0B04DB4000055B400005DB4000065B4000068
S113A0C06DB4000075B400007DB4000085B40000D8
S113A0D08DB4000095B400009DB40000A5B4000048
S113A0E0ADB40000B5B40000BDB40000C5B40000B8
S113A0F0CDB40000D5B40000DDB40000E5B4000028
S113A100EDB40000F5B4000099B5000099B5000065
S113A11099B5000099B5000099B5000099B5000003
S113A12099B5000099B5000099B5000099B50000F3
S113A13099B5000099B5000099B5000099B50000E3
S113A14099B5000099B5000099B5000099B50000D3
S113A15099B5000099B5000099B5000099B50000C3
S113A16099B5000099B5000099B5000099B50000B3
S113A170FDB4000005B500000DB5000015B50000E4
S113A1801DB5000025B500002DB5000099B50000EF
S113A19099B5000099B5000099B5000099B5000083
S113A1A099B5000099B5000099B5000099B5000073
S113A1B099B5000099B5000099B5000099B5000063
S113A1C099B5000099B5000099B5000099B5000053
S113A1D099B5000099B5000099B5000099B5000043
S113A1E099B5000099B5000099B5000099B5000033
S113A1F099B5000099B5000035B500003DB50000E3
S113A20099B5000099B5000099B5000099B5000012
S113A21099B5000099B5000099B5000099B5000002
S113A22099B5000099B5000099B5000099B50000F2
S113A23099B5000099B5000099B5000099B50000E2
S113A24099B5000099B5000045B500004DB5000072
S113A25099B5000055B500005DB5000099B5000042
S113A26099B5000065B500006DB5000099B5000012
S113A27099B5000099B5000099B5000099B50000A2
S113A28099B5000099B5000099B5000099B5000092
S113A29099B5000099B5000099B5000099B5000082
S113A2A099B5000099B5000099B5000099B5000072
S113A2B099B5000099B5000099B5000099B5000062
S113A2C099B5000099B5000099B5000099B5000052
S113A2D099B5000099B5000099B5000099B5000042
S113A2E099B5000099B5000099B5000099B5000032
S113A2F099B5000099B5000099B5000099B5000022
S113A30099B5000099B5000099B5000099B5000011
S113A31099B5000099B5000099B5000099B5000001
S113A32099B5000099B5000099B5000099B50000F1
S113A33099B5000099B5000099B5000099B50000E1
S113A34099B5000099B5000099B5000099B50000D1
S113A35099B5000099B5000099B5000099B50000C1
S113A36099B5000099B5000099B5000099B50000B1
S113A37099B5000099B5000099B5000099B50000A1
S113A38099B5000099B5000075B500007DB50000D1
S113A39085B500008DB5000099B5000099B50000A1
S113A3A099B5000099B5000099B5000099B5000071
S113A3B099B5000099B5000099B5000099B5000061
S113A3C099B5000099B5000099B5000099B5000051
S113A3D099B5000099B5000099B5000099B5000041
S113A3E099B5000099B5000099B5000099B5000031
S113A3F099B5000099B5000099B50000FFFFFFFF73
S113A4002DE9F04F84460D001400099E0020E24619
S113A4105FF0000B8AF800B01AF1010A002C24D076
S113A420D5F800B05946002905D15FF0300B8AF801
S113A43000B0401C42E0002940D091FBF3FBDE4613
S113A44003FB1E1BBBF1000F05D55F467FEA07091E
S113A45019F1310902E0D94619F1300971468AF837
S113A46000901AF1010A401CE5E7D5F800B05A46FD
S113A470002A05D15FF0300B8AF800B0401C1DE0C3
S113A480002A1BD0B2FBF3FBD84603FB182BBBF10D
S113A4900A0F02D25F46303709E03700FFB2002FBF
S113A4A001D0412700E061270A3F17EB0B07424622
S113A4B08AF800701AF1010A401CE1E7BDE8F08F48
S113A4C02DE9F54F91B08B461F0000265FF0000880
S113A4D00020029000208DF8040000200490DDF894
S113A4E044A09AF800000500002D00F00D81252DF0
S113A4F007D0012328000200D2B202A91298B8475B
S113A500FFE001208DF80500002081460020039023
S113A5100398002813D11AF1010A9AF800000500E3
S113A520302D07DB3A2D05DA0A21B5F1300001FBA5
S113A5300909EDE7BAF1010A01200390E8E70620D2
S113A54005901AF1010108782E2819D100200590F0
S113A550002003900398002813D1491C08780500B3
S113A560302D09DB3A2D07DA059A0A23B5F13000BC
S113A57003FB02020592EDE7491E01200390E9E77F
S113A580491E11F1010A9AF800000500642D11D04A
S113A590692D0FD0662D0DD0462D0BD0782D09D006
S113A5A0582D07D06F2D05D0622D03D0702D01D00A
S113A5B0752D72D1642D01D0692D11D1DBF8000005
S113A5C01BF1040B06909DF8050000900A2301225C
S113A5D006A908A8FFF714FF804608A8404406000F
S113A5E0582D01D0782D16D1782D02D100208DF868
S113A5F00500DBF800001BF1040B04909DF8050036
S113A60000901023002204A908A8FFF7F9FE804651
S113A61008A8404406006F2D05D0622D03D0702D8C
S113A62001D0752D27D1DBF800001BF1040B049039
S113A6306F2D03D108208DF804000EE0622D03D1A4
S113A64002208DF8040008E0702D03D110208DF84D
S113A650040002E00A208DF804009DF80500009033
S113A6609DF80430002204A908A8FFF7C9FE80461B
S113A67008A840440600B9EB0803202202A9129856
S113A680B847002E3DD0307800283AD001233278E4
S113A69002A91298B847761EF5E7632D0DD1DBF8B1
S113A6A000001BF1040BC0B20790012307980200BD
S113A6B0D2B202A91298B84723E0732D1AD1DBF85D
S113A6C000001BF1040B0400002C1AD0200000F041
S113A6D01FF88046B9EB0803202202A91298B84754
S113A6E0207800280DD00123227802A91298B847B7
S113A6F0641CF5E7012328000200D2B202A91298D3
S113A700B8471AF1010AECE6029813B0BDE8F08FDD
S113A71000F10103810704D010F8011B820781B105
S113A720FAD10268A2F10131914311F0803104BFE2
S113A73050F8042FF6E709BAB1FA81F100EBD10021
S113A740401CC01A704730B4002513E050F8042BA5
S113A750D30744BFA9F101039A18091F042942F839
S113A760045BFAD213468C0744BF15809B1CC907AF
S113A77048BF1D7050F8041B0029E7D130BC704756
S113A78010B4484A11F001030400E4B264011459FE
S113A79014F00104A34205D011F001030400E4B253
S113A7A06401135110BC704710B50400012120004E
S113A7B0C0B2FFF7E5FF10BD70B504000D00160030
S113A7C03200D2B22900200000F078F870BD38B50C
S113A7D0040000250F2D06D2334850F82500A0426E
S113A7E001D06D1CF6E70F2D06D339222F493048CE
S113A7F000F0BAF8AFF30080280032BD2DE9F04133
S113A80004000D0016002000FFF7E1FF07000E2FE3
S113A81006D22848C15D8A2902D0C05DFFF7C4FF73
S113A8205FF00108616918FA05F0814361613078CD
S113A830002807D1606818FA05F830EA0808C4F857
S113A84004800BE072782900200000F00EF86068A4
S113A85018FA05F858EA0008C4F80480B278290008
S113A8602000FFF7A9FFBDE8F08170B504000D00DA
S113A8701600202D06D371220C490F4800F074F8FD
S113A880AFF300803000C0B2002805D12068012158
S113A890A9408843206004E020680121A9400843BE
S113A8A0206070BD0060CC4024B20000C4B0000041
S113A8B0E8B1000068B3000094B30000F0B40C00E9
S113A8C00126C56916FA01F39D43C561102902D218
S113A8D010F10C0502E010F11005103C1300DBB27E
S113A8E0012B07D03DD3032B1ED00CD3052B33D023
S113A8F029D336E02E6803272300DBB25B009F4098
S113A900BE432E602DE02F685FF0030C2300DBB202
S113A9105B001CFA03FC37EA0C072300DBB25B0084
S113A9209E403E432E601CE02E6803272300DBB2CA
S113A9305B009F40BE4302272300DBB25B009F40C5
S113A9403E432E600DE02E6803272300DBB25B003C
S113A9509F403E432E6004E0C3698E401E43C6619F
S113A960FFE7F0BC7047FEE770B504000D00160069
S113A97033002A002100024800F047F800BEFDE73A
S113A98094B2000070B505000C0043F22156002D6E
S113A99007D140F2D1122E492E48FFF7E5FFAFF35D
S113A9A00080002C07D14FF4E97229492A48FFF7A7
S113A9B0DBFFAFF3008022002900284800F0AFF845
S113A9C0002801D05FF0FF34200070BD2DE9F04174
S113A9D004000D0016001F0000205FF00008B845B9
S113A9E011DA2868401C802805D329682000FFF765
S113A9F0C9FF00202860286826542868401C286065
S113AA0018F10108EBE7BDE8F0810EB42DE9F84137
S113AA10A0B00400002500266846802100F094F8C8
S113AA200F480068002801D100200BE027AF0D4B30
S113AA306A4639002000FFF743FD804641466846D8
S113AA40FFF7A0FF21B0BDE8F0015DF810FB0000A6
S113AA5078AF0000C4B3000088B300001C000020DD
S113AA6024000020CDA900002DE9F04105000C00D0
S113AA7016001F0043F221508046002C0BD0297B86
S113AA80012907D13A00310015F1080000F060F8FF
S113AA90804600E08046404600B2BDE8F0812DE9E2
S113AAA0F04107000E001500002F09D140F20E32CC
S113AAB0DFF88010DFF88000FFF756FFAFF3008067
S113AAC0002E09D140F20F32DFF86810DFF86C0075
S113AAD0FFF74AFFAFF30080002D09D14FF4447211
S113AAE0DFF85010DFF85800FFF73EFFAFF30080A7
S113AAF0B846D8F80040002C09D140F21532DFF8EE
S113AB003410DFF84000FFF72FFFAFF300802B0075
S113AB10320041462000FFF7A7FFBDE8F08170B581
S113AB2004000D001600320029002000FFF7B7FFD3
S113AB3070BD0000F4AF0000ACB30000E4B300004B
S113AB40ECB30000F4B30000002200F033B8FEE7D9
S113AB50F8B506000D001400002E07D140F20B12C8
S113AB6010491148FFF700FFAFF30080002D07D113
S113AB704FF486720B490D48FFF7F6FEAFF30080E1
S113AB80002C07D140F20D1206490948FFF7ECFEEC
S113AB90AFF30080370022002900380000F024F8C9
S113ABA0F2BD00005CB0000078B30000FCB300000C
S113ABB004B4000000B500BF130096469446103953
S113ABC028BFA0E80C50FAD85FEA417C28BF0CC02B
S113ABD048BF40F8042BC90728BF20F8022B48BF00
S113ABE000F8012B00BDFEE7F8B506000D001400C7
S113ABF0002E07D140F2551212491348FFF7B4FE54
S113AC00AFF30080002D07D14FF4AB720D4910480B
S113AC10FFF7AAFEAFF30080002C07D140F25712D1
S113AC2008490C48FFF7A0FEAFF30080370022006C
S113AC30290006483B7850F8230000F00DF8002066
S113AC40F2BD00008CB10000CCB3000060B2000083
S113AC50D4B30000DCB3000070B505000C0016008E
S113AC60002C09D140F24132DFF82810DFF8280027
S113AC70FFF77AFEAFF3008021003000002807D0F0
S113AC806A691202FCD50A78EA61491C401EF5E79C
S113AC9070BD000028B10000A0B3000080B52048BA
S113ACA0416821481F4A1268904701BD80B51C487D
S113ACB081681E481B4A1268904701BD000080B598
S113ACC01748C1681A48174A1268904701BD80B5F1
S113ACD0134801691748134A1268904701BD80B5AB
S113ACE00F48416914480F4A1268904701BD80B566
S113ACF00B48816911480B4A1268904701BD80B521
S113AD000748C1690E48074A1268904701BD80B5DB
S113AD100348016A0B48034A1268904701BD0000CA
S113AD20280000205C00002000C00740000008400C
S113AD30004008400080084000C00840000009406E
S113AD400040094000800940BFF34F8FBFF36F8F6D
S113AD5000203E490860BFF34F8FBFF36F8F3C481C
S113AD60016851F400310160BFF34F8FBFF36F8F5F
S113AD70704710B4002037490860BFF34F8F36483E
S113AD800168C1F34E32C1F3C900030043F6E07019
S113AD9010EA421050EA8370304C20601800431EC1
S113ADA00028F3D11000421E0028ECD1BFF34F8FCE
S113ADB02748046854F480340460BFF34F8FBFF312
S113ADC06F8F10BC704710B525490888400704D51B
S113ADD00A884FF6FB7002400A802249088840071F
S113ADE004D50A884FF6FB7002400A801E481F49AA
S113ADF008604FF6FF711E4A11601E4A136833F053
S113AE00800353F0200313601B4A10601B48016049
S113AE101B48016831F0800151F02001016019489C
S113AE200168C90703D50168490849000160084C55
S113AE302068800301D4FFF787FF2068C00301D492
S113AE40FFF797FF00F020F810BD000050EF00E07E
S113AE5014ED00E084ED00E080ED00E060EF00E040
S113AE60000003400040034020C528D9048003406B
S113AE7008800340008003400400C1400800C14032
S113AE800000C14010E000E07047FEE71D494EF6A7
S113AE90602202FB00F20023C1E90023D1E9002370
S113AEA0002B01D1002A08D000BFD1E90023521E93
S113AEB073F10003C1E90023F0E7704738B5124885
S113AEC00068009000F03CF8104C6A4619212000FC
S113AED0FFF794FC4FF47A70FFF7D8FF0C4D2878F5
S113AEE0002807D0002219212000FFF7BEFC002013
S113AEF02870EFE7012219212000FFF7B6FC01209A
S113AF002870E7E70000002094B500000040C64028
S113AF106000002070B4049C11F00F05260116F0A7
S113AF20100635430560002A00D0136070BC7047DA
S113AF3030B4029C039D002C00D0256030BC7047C7
S113AF403EB50B4C0B4D00200190009500230022D0
S113AF500A212000FFF7DEFF4FF485500190009591
S113AF60002300220A212000FFF7E2FF37BD000082
S113AF7074810E40B8830E40443A5C7265735F631B
S113AF806869705F692E6D7872745F636D375C53A6
S113AF90444B5F65766B6D696D7274313137305F28
S113AFA068656C6C6F5F776F726C645F31393035D4
S113AFB033315C646576696365735C4D494D585201
S113AFC054313137355C7574696C69746965735CC7
S113AFD064656275675F636F6E736F6C655C6673DF
S113AFE06C5F64656275675F636F6E736F6C652E0B
S113AFF063000000443A5C7265735F636869705F64
S113B000692E6D7872745F636D375C53444B5F6572
S113B010766B6D696D7274313137305F68656C6C55
S113B0206F5F776F726C645F3139303533315C63D5
S113B0306F6D706F6E656E74735C73657269616C4D
S113B0405F6D616E616765725C73657269616C5F87
S113B0506D616E616765722E63000000443A5C7234
S113B06065735F636869705F692E6D7872745F637E
S113B0706D375C53444B5F65766B6D696D727431EB
S113B0803137305F68656C6C6F5F776F726C645FCB
S113B0903139303533315C636F6D706F6E656E744A
S113B0A0735C73657269616C5F6D616E6167657213
S113B0B05C73657269616C5F706F72745F756172E5
S113B0C0742E6300443A5C7265735F636869705FF1
S113B0D0692E6D7872745F636D375C53444B5F65A2
S113B0E0766B6D696D7274313137305F68656C6C85
S113B0F06F5F776F726C645F3139303533315C6404
S113B1006576696365735C4D494D585254313137E6
S113B110355C647269766572735C66736C5F6770C4
S113B120696F2E6300000000443A5C7265735F63CC
S113B1306869705F692E6D7872745F636D375C53F4
S113B140444B5F65766B6D696D7274313137305F76
S113B15068656C6C6F5F776F726C645F3139303522
S113B16033315C646576696365735C4D494D58524F
S113B17054313137355C647269766572735C667319
S113B1806C5F6C70756172742E630000443A5C727B
S113B19065735F636869705F692E6D7872745F634D
S113B1A06D375C53444B5F65766B6D696D727431BA
S113B1B03137305F68656C6C6F5F776F726C645F9A
S113B1C03139303533315C636F6D706F6E656E7419
S113B1D0735C756172745C6C70756172745F6164C8
S113B1E061707465722E6300696E7374616E636559
S113B1F0203C202873697A656F6628735F677069DD
S113B2006F426173657329202F2073697A656F66B5
S113B2102828735F6770696F4261736573295B30B7
S113B2205D2929000080004200C0004200C0124095
S113B23000001340004013400080134000C013403E
S113B2400000144000C0C5400000C6400040C64095
S113B2500080C64000C0C6400000C7400000CA408D
S113B2600000000000C00740000008400040084003
S113B2700080084000C00840000009400040094028
S113B2800080094000C0094000000A400040C2405C
S113B2900080C240415353455254204552524F52AC
S113B2A0202220257320223A2066696C65202225FD
S113B2B07322204C696E652022256422200A000036
S113B2C072B60548054901600A6882F30888044893
S113B2D0804762B60348004708ED00E000A0000084
S113B2E0C7AD0000B9B3000010B50749794418315F
S113B2F0064C7C44163404E00A68081D114488474F
S113B3000146A142F8D110BD08000000140000005D
S113B31037F4FFFF6400000000000020000000007C
S113B32000F00DF8002801D0FFF7DEFFAFF3008036
S113B3300020AFF30080FFF7C1FD00F002F8012008
S113B340704700F001B8FEE70746384600F002F8FF
S113B350FBE7FEE780B5AFF30080024A1100182036
S113B360ABBEFBE7260002008A3333333333333377
S113B370333333333333000073657269616C48616E
S113B3806E646C65000000003020213D2073697AF2
S113B3906500000070696E203C203332000000001C
S113B3A03020213D2064617461000000777269746B
S113B3B06548616E646C6500AFF30080AFF3008094
S113B3C0FFF7AEFF3020213D2063680068616E64A2
S113B3D06C65000064617461000000006C656E6758
S113B3E07468000062756666657200006C656E675D
S113B3F07468000068616E646C650000627566665E
S113B400657200006C656E67746800000048004750
S113B4109DAC000000480047ADAC00000048004768
S113B420BFAC000000480047CFAC00000048004714
S113B430DFAC000000480047EFAC000000480047C4
S113B440FFAC0000004800470FAD00000048004773
S113B45099B500000048004799B50000004800472E
S113B46099B500000048004799B50000004800471E
S113B47099B500000048004799B50000004800470E
S113B48099B500000048004799B5000000480047FE
S113B49099B500000048004799B5000000480047EE
S113B4A099B500000048004799B5000000480047DE
S113B4B099B500000048004799B5000000480047CE
S113B4C099B500000048004799B5000000480047BE
S113B4D099B500000048004799B5000000480047AE
S113B4E099B500000048004799B50000004800479E
S113B4F099B500000048004799B50000004800478E
S113B50099B500000048004799B50000004800477D
S113B51099B500000048004799B50000004800476D
S113B52099B500000048004799B50000004800475D
S113B53099B500000048004799B50000004800474D
S113B54099B500000048004799B50000004800473D
S113B55099B500000048004799B50000004800472D
S113B56099B500000048004799B50000004800471D
S113B57099B500000048004799B50000004800470D
S113B58099B500000048004799B5000000480047FD
S113B59099B5000001000000FFF7FEBFFEE7FEE7DB
S105B5A0FEE7C0
S903B3B990
