S0130000666C6173686C6F616465722E737265638C
S31520002000785E2120F94C01207B2400201D30012000
S315200020107B2400207B2400207B240020000000005D
S315200020200000000000000000000000007B240020CB
S315200020307B240020000000007B2400207B2400203D
S31520002040214D0120294D0120314D0120394D0120FE
S31520002050414D0120494D0120514D0120594D01206E
S31520002060614D0120694D0120714D0120794D0120DE
S31520002070814D0120894D0120914D0120994D01204E
S31520002080A14D01203F5F01203F5F01203F5F0120DE
S31520002090EF460120A94D0120B14D0120B94D012067
S315200020A0C14D0120C94D0120D14D0120D94D01201E
S315200020B0E14D0120E94D0120F14D0120F94D01208E
S315200020C0014E0120094E0120114E0120194E0120FA
S315200020D0214E0120294E01203F5F01203F5F012034
S315200020E03F5F01203F5F01203F5F01203F5F0120CE
S315200020F03F5F01203F5F01203F5F01203F5F0120BE
S315200021003F5F01203F5F01203F5F01203F5F0120AD
S315200021103F5F01203F5F01203F5F01203F5F01209D
S31520002120314E0120394E0120414E0120494E0120D9
S31520002130514E01203F5F01203F5F01203F5F01207C
S315200021403F5F01203F5F01203F5F01203F5F01206D
S315200021503F5F01203F5F01203F5F01203F5F01205D
S315200021603F5F01203F5F01203F5F01203F5F01204D
S315200021703F5F01203F5F01203F5F01203F5F01203D
S31520002180D32900203F5F01203F5F01203F5F0120D0
S315200021903F5F01203F5F01203F5F01203F5F01201D
S315200021A03F5F01203F5F0120594E0120614E0120F3
S315200021B03F5F01203F5F01203F5F01203F5F0120FD
S315200021C03F5F01203F5F01203F5F01203F5F0120ED
S315200021D03F5F01203F5F01203F5F01203F5F0120DD
S315200021E03F5F01203F5F01203F5F0120694E0120B4
S315200021F0714E01203F5F0120794E0120814E012042
S315200022003F5F01204D5E0120894E0120914E012025
S315200022103F5F01203F5F01203F5F01203F5F01209C
S315200022203F5F01203F5F01203F5F01203F5F01208C
S315200022303F5F01203F5F01203F5F01203F5F01207C
S315200022403F5F01203F5F01203F5F01203F5F01206C
S315200022503F5F01203F5F01203F5F01203F5F01205C
S315200022603F5F01203F5F01203F5F01203F5F01204C
S315200022703F5F01203F5F01203F5F01203F5F01203C
S315200022803F5F01203F5F01203F5F01203F5F01202C
S315200022903F5F01203F5F01203F5F01203F5F01201C
S315200022A0994E0120A14E0120A94E01203F5F012019
S315200022B03F5F01203F5F01203F5F01203F5F0120FC
S315200022C03F5F01203F5F01203F5F01203F5F0120EC
S315200022D03F5F01203F5F01203F5F01203F5F0120DC
S315200022E03F5F01203F5F01203F5F01203F5F0120CC
S315200022F03F5F01203F5F01203F5F01203F5F0120BC
S315200023003F5F01203F5F01203F5F01203F5F0120AB
S315200023103F5F01203F5F01203F5F01203F5F01209B
S315200023203F5F01203F5F01203F5F01203F5F01208B
S315200023303F5F01203F5F01203F5F01203F5F01207B
S315200023403F5F01203F5F01203F5F01203F5F01206B
S315200023503F5F01203F5F01203F5F01203F5F01205B
S315200023603F5F01203F5F01203F5F01203F5F01204B
S315200023703F5F01203F5F01203F5F01203F5F01203B
S315200023803F5F01203F5F01203F5F01203F5F01202B
S315200023903F5F01203F5F01203F5F01203F5F01201B
S315200023A03F5F01203F5F01203F5F01203F5F01200B
S315200023B03F5F01203F5F01203F5F01203F5F0120FB
S315200023C03F5F01203F5F01203F5F01203F5F0120EB
S315200023D03F5F01203F5F01203F5F01203F5F0120DB
S315200023E03F5F01203F5F01203F5F01203F5F0120CB
S315200023F03F5F01203F5F01203F5F0120FFFFFFFF7E
S31520002400002A01D101207047F0B41F460346032459
S315200024102340002B09D00424E31A0170013008243C
S31520002420E141521E26D05B1EF7D1042A1ADB13D0B7
S31520002430002F11D00C460D460E46102A02DB72C024
S31520002440103AFAE70C2A02DB32C00C3AFAE7082ADD
S3152000245002DB12C0083AFAE7042A03DB01600430E3
S31520002460121FF9E7002A05D0017001300824E14146
S31520002470521EF7D1F0BC00207047FEE747310020FE
S31520002480000000009931002000000000D732002013
S315200024907134002063320020773300204F3500202E
S315200024A0000000000000000000000000D1310020E4
S315200024B000000000A9310020773300206F3500206E
S315200024C000000000CD35002000000000FB30002079
S315200024D00000000001320020000000000000000083
S315200024E000000000F9350020000000002136002001
S315200024F0000000000000000000000000173200204D
S315200025000000000000000000000000007D320020D6
S315200025106133002000000000195F0120235F0120A5
S315200025202D5F0120000000000000000009000000CF
S31520002530E73D002001010000EF45002008000000D3
S31520002540EF4E00200001000013560020100100006D
S31520002550F55D0020200100000F6B00202101000006
S315200025607B6500200000000000000000B33800203A
S31520002570DD3A0020F53A0020753B0020293C00205A
S31520002580313D0020114601208D460120A94601201B
S315200025900000000000000000DD46012099730020A5
S315200025A0FD700020557100203B72002077720020BC
S315200025B087720020D5710020B3610020956300202A
S315200025C02F640020F764002031620020D9640020A7
S315200025D0EB6400200D800020B1AF0020BDAF0020AD
S315200025E0CDAF002000000000000000000100000028
S315200025F0010000006D29002084250020942500205C
S3152000260098260020100000000100000000000000B5
S31520002610EC26002000000000FC2600200000000020
S315200026200000000000000000000000000000000084
S3152000263000000000394701205547012005480120A8
S31520002640C348012054B42020F967002037690020B0
S31520002650D1690020996A0020416800207B6A002009
S315200026608D6A0020814F0020F1520020E353002084
S31520002670EF540020C1500020DD550020EF550020EA
S31520002680A34B0020214D0020374D0020CB4D0020AC
S31520002690494E00206D4E0020B5490120BB4901203E
S315200026A0274A0120BF4A0120B9490120CB4A0120EF
S315200026B095490120815B00208B5B0020A55B0020D3
S315200026C0735C00201F5D0020215C002000000000BC
S315200026D0B93E00200142002031430020FF44002063
S315200026E0FB400020C1440020D3440020CD5A0120C5
S315200026F0D95B0120855C0120E55C0120F35C01208B
S31520002700175D01209B5D0120335E0120435E012081
S31520002710475E01200000000038B504463E4D0020EB
S315200027202862C5E90000C5E90200C5E9040068621F
S315200027303A4800F0ACF8C5E9060120460FF25D01E3
S31520002740BDE8344000F053B900F067B970B50C46C7
S31520002750314E316A072904BF756AA8421BD100F0A1
S315200027603EFB0546C5EB0515D6E90023D6E9020151
S3152000277082184FF49666B5FBF2F00A250A236843C1
S315200027804FF49662B0FBF6F6761D0020B6FBF3F307
S315200027905343236070BD012070BD00002DE9F8432E
S315200027A01D4F064600F069F83A6A0446D7E90459EF
S315200027B08846521C651BD7E9060168EB090949457D
S315200027C002D82CBFA8420122012A3A6206D0042A46
S315200027D008D0052A0ED0072A0FD018E0C7E90048EE
S315200027E07E6214E0D7E90023A21A68EB0303C7E947
S315200027F000230CE0C7E9024809E0D7E90201201AC4
S3152000280068EB0101C7E90201304600F006F9C7E985
S315200028100448BDE8F183000000982020803801009C
S3152000282010B54FF4867000F06CFB0021294A116028
S3152000283029484FF0FF310023016101228361C261E3
S31520002840846944F004048461826942F00102826151
S3152000285001600121C160816000F0C1FAC0001F49FA
S31520002860B0FBF1F000B901201D4A906010BD194857
S31520002870016841F002010160704781B01948016882
S3152000288042680092009801B0C943C043704714497A
S315200028908A68A2FB0001C00840EA4170C908704757
S315200028A038B50446FFF7E9FF00F00BF8241841EB92
S315200028B0D505FFF7E2FFA942FBD301D8A042F8D302
S315200028C031BD074A9368A3FB0445E40844EA4574EE
S315200028D070470000004008400041084040420F0079
S315200028E028982020E04008400901020002D45648DA
S315200028F081547047554A00F00F00131803F8041C42
S31520002900704710B5039C01F00F01240104F0100458
S315200029102143016002B1136010BD0021016002B1A4
S315200029201160009808B1019901607047FEB5089EB4
S315200029300027099C0A9D01970096FFF7E2FF306861
S31520002940012101FA05F540F410403060606820EA64
S3152000295005056560F7BD7CB5069C0025019547F207
S31520002960B0060094FFF7CDFF266073BD7FB5384CC7
S31520002970384D3948394A19B1022919D00DD37FBDAE
S3152000298041F2B00600950196002300F01EF801964C
S315200029900023009500F019F87FBD0D21304B0291E0
S315200029A005210193002300920022FFF7BFFF7FBD80
S315200029B0009200230022FFF7CEFF0095002300227D
S315200029C002212046FFF7C7FF7FBD002202212046B5
S315200029D0A3E710B5234C2068800407D5224949680F
S315200029E021B1012088474FF40051216010BD10B558
S315200029F01D4B1B4C596004220D21204600F0DCFAA9
S31520002A0063690121502043F400536361FFF76CFF93
S31520002A104FF480301549086010BD80B54FF48030E2
S31520002A2013490860BFF34F8FBFF36F8F00215020EB
S31520002A30FFF75AFF00220D21094800F0BDFA0020B9
S31520002A400949486001BD000000E400E018ED00E0FF
S31520002A50EC801F40DC821F40F0801F40E0821F4038
S31520002A6000801B4018801B404CB4202008E100E069
S31520002A7088E100E0002808BF00F023B87047DFF89F
S31520002A809803DFF8982301684FF0004341F00301D3
S31520002A90016040201060DFF8880383634FF0804197
S31520002AA0816300220260DFF87C03036843F4C013CD
S31520002AB00360DFF8740301684908490001600120BA
S31520002AC0704770B5DFF8640300F027FADFF860037B
S31520002AD001210269DFF85C330068520D02F003021F
S31520002AE001FA02F21968C0F38000002841F480310F
S31520002AF019601C6B44F480341C63196941F48031DD
S31520002B00196114BFDFF83013DFF830131960196824
S31520002B100029FCD51D6B25F480551D63196B0029F2
S31520002B20FCD5DFF81C43DFF81C1325694FF440560B
S31520002B3025F03F350D4325611E6119690029FCD515
S31520002B401E69DFF8041326F480361E6125680126E7
S31520002B5025F03F350D4300282560DFF8F042DFF8E9
S31520002B60F0122660DFF8EC620CBFBB48BB48B0FB16
S31520002B70F2F00860012100E0491CB0FBF1F5B542F6
S31520002B80FAD26568491EB6480E04521E06F4E0269F
S31520002B9005409202354302F4E05209022A4301F429
S31520002BA040710A4362606069AE4AC009C00140F0C4
S31520002BB003006061A168AC4811400143A160A5688B
S31520002BC0AA49AB480D4045F0A055A560E2680240F1
S31520002BD042F0C74242F00102E260E16841F440312E
S31520002BE0E160606920F4E72040F484306061196870
S31520002BF021F480311960186B20F48030186319692C
S31520002C0021F48031196170BDFAE00000012A2DE916
S31520002C10FE43044652D8002950D0012C4ED8DFF866
S31520002C202082944FD8F800008309002CA0A007BF6B
S31520002C307D6825F060753D6825F06045012A08BF4E
S31520002C400FF284200B2928BF012100EB410210F846
S31520002C50110000BFA2A15278521E002C00F03F00A6
S31520002C6040EA8319684603BFD20502F06072154315
S31520002C7045EA427591E80C1080E80C105DF8246056
S31520002C80306840F002003060204600F025F8D8F881
S31520002C900010894518BFC8F8009024B97868854285
S31520002CA005D07D6003E039688D4218BF3D6020461F
S31520002CB000F006F8306820F002003060BDE8F783A7
S31520002CC0554920B9086840F44060086070474A6852
S31520002CD042F00C024A6070474F4920B9086820F438
S31520002CE04060086070474A6822F00C024A607047CC
S31520002CF030B5574C0023002024685F4D19B10229B6
S31520002D000AD002D318E0234617E02968C1F301212F
S31520002D10491CB4FBF1F310E04949584C0968AB68EB
S31520002D2001F03F01B4FBF1F512214D43C3F3C2512B
S31520002D30491CB5FBF1F300E00420136030BD0420EC
S31520002D4011B14F48086000207047000030B54A494D
S31520002D5006280A6842F040020A600B68494A23F0B6
S31520002D6080030B6013680C6823F47C1324F4E0249E
S31520002D7014D8DFE800F0040608130B0D10002320FA
S31520002D800DE0222000E01B20072509E01D2003E09E
S31520002D901220042504E01320032501E01220082533
S31520002DA043EA00436D1E2D0405F4E02510682C43EC
S31520002DB0834218BF13600A68944203D00C604B6BA1
S31520002DC0D807FCD430BD3048016841F0300101609D
S31520002DD070472D48016821F0300101607047264870
S31520002DE01B4A016880681368C1F30121491C00F061
S31520002DF03F00401CB3FBF1F1B1FBF0F0704700003F
S31520002E001D48134900680A68C0F30120401CB2FB24
S31520002E10F0F070470000000080C00F4014800D4085
S31520002E2000900D40B0810D4040012E4000366E01CD
S31520002E3060441F4000800D405820010042200100C0
S31520002E40F0800D401818131823231A0F10C00F40B6
S31520002E50F085202001449508007B9A1700A4781F4E
S31520002E60FFE0F8FFFFFCF31F00010CE0CFFFFFE3BC
S31520002E7080FF7F9C18C00F4014C00F4000389C1C58
S31520002E8080F5E40900810D4074C00F4038B5044632
S31520002E900D4602E00120FFF703FD20462946441E89
S31520002EA061F100050022914208BF9042F2D131BD66
S31520002EB000002208160818061E0412060C07120423
S31520002EC00D050D04160200000000180616040C0657
S31520002ED01E0212031502120221010D021601000024
S31520002EE000802A400000000000402A401348144A6F
S31520002EF001681160704710B500F01BF81C69A047E7
S31520002F0010BD10B500F015F89C69A04710BD10B58E
S31520002F1000F00FF8DC69A04710BD10B500F009F8E5
S31520002F201C6CA04710BD10B500F003F89C6AA047A2
S31520002F3010BD03490A689369704700001C002000F1
S31520002F4034982020F8B506460C4615465FF000005A
S31520002F5033A151F82020B24202D0401C0628F8D3D3
S31520002F6035A1012731F91000A740FFF7CAFF726982
S31520002F70F9430A407261287818B972681140716065
S31520002F8007E06A782146304600F009F87068074362
S31520002F907760AA7821463046BDE8F8400CE0012348
S31520002FA0002A10B503FA01F107BF026822EA0101DF
S31520002FB004682143016010BDF0B5C369012404FAF9
S31520002FC001F5AB431029C36132BF00F10C0300F1B8
S31520002FD010031039490003268E40F743521E042A57
S31520002FE01DD8DFE802F003070D1519001868074001
S31520002FF01F60F0BD1A688C4017403C431C60F0BD32
S315200030001C68022505FA01F1274039431960F0BDF5
S31520003010186806431E60F0BDC1690D43C561F0BD49
S315200030200000000000801B4000C01B4000001C4028
S3152000303000401C4000000C40FFFF1A011E001A022F
S315200030400C031E01DFF8DC1600200A69D36818601D
S315200030507047F8B5DFF8CC660024306A8DF800405A
S315200030604569002D47D03169C9680F68012F31D0D5
S315200030706C6801F108020023091DA04704001FBF48
S3152000308042F21270844242F213718C4233D130697B
S31520003090C268916800292ED0546823781D0007D075
S315200030A0142B05DA806800EBC305A5F1080000E0C3
S315200030B00020002850621CBF0268002A03D0204648
S315200030C00024904713E042F210741946204600F07F
S315200030D0BDFA10E0486A58B1416811B16846884780
S315200030E004460CB1002003E09DF8000000B1012049
S315200030F03169CA6810602046F2BD80B5017800208B
S3152000310000F0A4FADFF81C26106A41690A69904784
S31520003110022000F015FBBFF34F8FDFF80C16DFF807
S315200031200C060A6802F4E06202430A60BFF34F8F7E
S3152000313000BFFDE7DFF8EC0518210269D36803F12B
S315200031400C0000F029BB10B504466068083812D080
S31520003150401E0AD0F73811D0401E09D00F3810D0A3
S31520003160103814D0401E0FD014E000F00EFE12E0EE
S3152000317001F015FA0FE001F0AEFE0CE002F003FAC2
S3152000318009E002F08FFD06E003F0DBF903E003F02F
S31520003190A1FC00E004202BE2DFF8883570B500F0B2
S315200031A0E0F9AE69B047D8E110B500F092F8DFF843
S315200031B0740562680169C8680821026180F82010D8
S315200031C02178002000F042FABDE8104003F0FABE54
S315200031D07CB5DFF850450022E568019200928168AF
S315200031E040686B46AE6801AAC0B2B047226900218A
S315200031F0D3681961009A0199920800F02DFA73BDDF
S31520003200DFF8202538B5D36804466068A168DD68F4
S31520003210C0B2A847E8E138B5044604206268092A06
S3152000322003D1A06800F047FB19E0082A03D1A06863
S3152000323001F0D0FC13E0C2F3032101290FD1694626
S31520003240104604F075F850B9009DDFF8D8241421F3
S315200032509368A0684D4359190A69136998472178DC
S31520003260DBE110B500F035F8DFF8B804E268016953
S31520003270042300F03FF821780020BAE170B5DFF88A
S31520003280A45400F026F829691320DFF8A464CA683C
S3152000329082F820002969E068CA6882F82100E0687F
S315200032A038B929691022C868026146612178002050
S315200032B054E106F11001304604F0D0F8286948217F
S315200032C006F11002C068016142610020BDE870402D
S315200032D0DDE104462EE710B5FFF7FBFFDFF84404D7
S315200032E0E2680169032300F005F8A1680020BDE823
S315200032F01040DAE1C8688261A168016162684261B2
S3152000330080F82030704738B50446DFF8185428690D
S315200033100021C0684161016190F82000042804D191
S3152000332029680A69904704B904462868416988478C
S3152000333004B904462869C168204691F8201000F097
S3152000334085F942F21270844201BF2969CA6892F84F
S315200033502000082803D1BDE8314003F076BE31BDF8
S31520003360DFF8C0130A69D36893F82110002908BF33
S3152000337000F001B87CE02DE9FE4300F0DEF811B93B
S3152000338000F0E1F871E0012101233170D0F81890A6
S315200033900569D0F8148000206A460090386A01A991
S315200033A04469D4F804C0E04704000AD0386A416969
S315200033B0CA6890472046FFF7A6FF002100203170FB
S315200033C054E0009830B942F21270FFF79CFF0020BB
S315200033D030704BE0A842396988BF28460090C868FB
S315200033E090F82010082912D10199C160009AC26173
S315200033F00099019803F0F0FD044642F27D70844264
S315200034001CBF42F274718C4216D1002414E0132999
S3152000341007D1009A0199404604F088F80098804424
S315200034200AE03C68019A00994B464046D4F808C009
S31520003430E04700990446884400982D1A05D1204675
S31520003440FFF761FF002131700FE04CB1386A416906
S31520003450CA6890472046FFF756FF0020307004E0E8
S315200034603969C9680D61C1F814800020BDE8FE8362
S315200034702DE9F84F00F061F811B900F064F859E031
S315200034800121DFF8B0A23170826900920569D0F877
S315200034901480C46890F820B0386A41694A69904718
S315200034A08146A94588BFA946ACB14A462146504621
S315200034B004F03CF8386AA5EB090401234A46514634
S315200034C04569D5F808C0E04704B170B3FFF71BFF84
S315200034D0002030702EE0BBF1030F09EB080419D150
S315200034E0D7F800C04046009B52464946DCF8048087
S315200034F0C0475FEA000BA046DCD0386A01230022D1
S3152000350051464469A568A8475846FFF7FCFE0020A7
S31520003510307010E0BBF1130F01D0A046CAE74A462F
S315200035204146504604F002F8F7E73869C06804615E
S31520003530C0F814800020BDE8F28F0646794F38691E
S31520003540C06801697047002200203270DBE6754BA7
S3152000355070B500F006F8EE68B0472178BDE87040F7
S3152000356074E01D680446E268A168606870472DE92A
S31520003570F0410546704F6E68D5F80880E86800244B
S31520003580386018B104F055F800B90424304604F028
S3152000359039F800B904242978204600F057F89CB958
S315200035A07E60002000F0CCF8C7F80880386818B193
S315200035B080F3088880F30988796840468847002088
S315200035C0BDE8F04100F0BCB8BDE8F08138B504464E
S315200035D0606804F017F808B9042005E06568012042
S315200035E000F0AEF8A068A8472178BDE834402DE069
S315200035F02178BDE8104029E038B5044604F006F9E4
S31520003600E0686A460090A36861684C4804F044F973
S31520003610054604F001F92178284600F017F831BD57
S315200036203EB500210446CDE9001104F0EFF8A36869
S3152000363061686A46414804F08DF9054604F0ECF8C5
S31520003640A2686946284600F042F837BD3EB50024F8
S3152000365000F031F8A0231EE070B5002588B0A7241D
S315200036608DF801508DF800400026551C01908DF8EC
S31520003670026000208DF803506C4605E004EB8005BF
S3152000368051F82030401CAB609042F7D33BE03EB56A
S3152000369000F010F8B3238DF800300023029144691E
S315200036A00C226946A568A84737BD3EB500F002F84A
S315200036B0A323F0E7012401908DF8014002248DF820
S315200036C00340184C206A00258DF80250704770B5CB
S315200036D0002588B08DF80150AF24002602258DF8EC
S315200036E000408DF802608DF80350019050B99DF886
S315200036F00300029200EB920403A88DF8034003F026
S3152000370025FF00E0029607489DF80320006A002363
S31520003710694644699200121DA568A84708B070BD85
S3152000372000000000108020200CED00E00400FA05C7
S31520003730589C202060982020B09C202000401F40CC
S31520003740012870B504461DD00025114E05E07018DD
S31520003750C168896801B188476D1C18216943705872
S315200037600028F4D174B904F051F8FFF780F804F07A
S3152000377069F90020074908600120FFF77BF904F06A
S315200037800DFC62B6BFF36F8FBFF34F8F70BD00BFC6
S31520003790EC25002008ED00E0002204F0FDBC30B44A
S315200037A0002513E050F8042BD30744BFA9F10103E9
S315200037B09A18091F042942F8045BFAD213468C078B
S315200037C044BF15809B1CC90748BF1D7050F8041BB9
S315200037D00029E7D130BC7047BFF34F8FDFF8BC26F6
S315200037E002E01060203020390129FADABFF34F8F2A
S315200037F0BFF36F8F704730B504460420002C85B088
S315200038001EBFDFF89C261178002950D023681D0F93
S315200038100B2D4CD1C3F30361012902F582650DD02E
S31520003820002944D1204604F0D1FC10B10021297092
S315200038303DE0A26801236A602B7038E029780029D0
S3152000384035D013F00F0F32D10021012004910391BE
S3152000385004A900F0C8FA50BB03A9102000F0C3FA4F
S3152000386028BB01A9032000F0BEFA00BB6C68049DAA
S31520003870694602A804F0E1FC6519C0B9009A0399CB
S31520003880A418A14213D3019B5B1E1D420FD101999F
S31520003890284600F092F910B942F2DB7007E0029A4E
S315200038A00099284600F026F908B900F0BDF905B0C0
S315200038B030BD012070472DE9F84FADF5007D054656
S315200038C003F0A0FE00284FF0040A2CD005F2FF10CA
S315200038D003F098FE002826D02868DFF8C47507F57F
S315200038E08368010F0C291FD104F07EFB2A4641462E
S315200038F006F02CF95FEA000A15D10020387004F092
S3152000390073FB414604F0B8FC5FEA000A0BD104F0D1
S315200039106BFB06F0D4FF6946102000F064FA0028FD
S3152000392000F08880824674E0DFF878154FF400793D
S31520003930884236D13878002878D04046002606F0CE
S315200039406DFB0546002DC34607F5BB6440F080801D
S3152000395004F051FB494603F039FD002800F0A2800F
S31520003960A07A78B100200DF10102391891F81914C6
S315200039700DF8001018F800301354801CB0F5007FA5
S31520003980F3D3EB4604F037FB5A46494600F0B2F82B
S315200039905FEA000A7BD004F02EFB494600F05FFA6E
S315200039A082E0DFF80415884205D14A46294640467A
S315200039B003F0BCFDA1E7000F0E282FD1387840B3C5
S315200039C0284607F0FFF820B3284607F004F95FEAF7
S315200039D0000A1ED1012078700020451C6A4601A9E4
S315200039E007F000FA90B904F006FB00EB85204FF4AF
S315200039F0007100F0E2F848B104F0FDFA019A00994E
S31520003A0000EB852000F076F800F00EF92846012814
S31520003A10E3D950460DF5017DBDE8F08F0B2806D180
S31520003A202846FFF7E8FE5FEA000AF2D14DE00020C3
S31520003A307870EEE7DFF874540121A96304F0DBFA0D
S31520003A40009928630818401E6863012038703CE0FE
S31520003A504A4641466846EB4603F078FDD8F84000D2
S31520003A6020F00400C8F840002168490821606068F9
S31520003A704008606021694908216104F0B5FA414691
S31520003A8004F0FAFB00283FF463AF01260EE000F0B5
S31520003A90CBF85FEA000A08D004F0ADFA616800F0BE
S31520003AA047F901E042F2DB7A012665B14A465946DA
S31520003AB0404603F03BFD04F097FA414604F0DCFB58
S31520003AC05FEA000AA5D1002EA3D17878002883D1F9
S31520003AD007F070F800289CD00120A9E710B5DFF880
S31520003AE0C043237813B942F2DD7010BDBDE8104003
S31520003AF007F05EBA2DE9F8430546DFF8A473387857
S31520003B000C46914688BB42F2DD7031E0B87868B940
S31520003B10D7F8D815491E0D4202D044F6896027E011
S31520003B2001200021B870B9607D6004E0B86879682A
S31520003B300818A84216D1B868D7F8D8854946221859
S31520003B40424534BF2646A8EB00063844324610309C
S31520003B50751903F0EBFCB868A41BB1443018404536
S31520003B60B86002D100F060F810B9002CCED1002048
S31520003B70BDE8F28376B50D460646DFF824130878AD
S31520003B8010B942F2DD7076BDAC08A40005F003053D
S31520003B9007E001AA04213046FFF7ACFF60B9361DC5
S31520003BA0241F002CF5D12DB101AA29463046FFF756
S31520003BB0A1FF08B900F038F876BDF8B50C460546E1
S31520003BC0B749ADF5806D4878012620B121462846B3
S31520003BD007F0E2F8B0B92146284603F0F7FB06467F
S31520003BE030460DF5806D01B0F0BD491CB1EB970F45
S31520003BF006D250F8042B12F1010FF6D00020F0E780
S31520003C00E41B7D19002CEBD04FF48067B4F5806F50
S31520003C10A648016B684698BF27463A46691A00F0BF
S31520003C202EF968460021E1E72DE9F8439C4E002451
S31520003C30B078ADF5806D002874D0B470D6F8D8452C
S31520003C40B068A04206D0211A06F11003FF221844BC
S31520003C5007F0C6F970682146FFF7AFFF10B942F2A8
S31520003C60DB7060E0D6F8D815706807F095F840B19B
S31520003C70D6F8D815706806F1100207F0FAF8040095
S31520003C8050D17468894F03F0C1FD386B241A04F0B3
S31520003C90ABF906F11003224606F5836104F0ECFB2E
S31520003CA0044603F0B9FD0020002CB070B06039D175
S31520003CB07F480268D10304D5D6F8D8157068FFF777
S31520003CC08BFD7078D6F8D85506F11008D6F80490F2
S31520003CD0F0B12946484607F05FF8C8B115B34FF44E
S31520003CE08066B5F5806F396B684698BF2E4632469A
S31520003CF0A9EB010100F0C3F832464146684607F0B9
S31520003D00A3F9002802BFAD1BB144B044E6D006E0BB
S31520003D102A4606F11001484607F096F910B144F6F6
S31520003D208A6000E020460DF5806D01B0BDE8F08385
S31520003D3070B504465A4A107810B942F2DD7070BD4B
S31520003D40D2F8DC55684200EA04060C1964420440A5
S31520003D506442A41B2146304600F081F8A0B92946CA
S31520003D60304607F0E5F852480168CA0303D52946CC
S31520003D703046FFF731FD21463046FFF71EFF10B9CA
S31520003D8044F68A6070BD002070BD1CB5444C207876
S31520003D9010B942F2DD7016BD04F026F904F58361F0
S31520003DA004F0C7FBF0B901A9012000F01CF8C8B93E
S31520003DB06946102000F017F8A0B90099019807F07D
S31520003DC0B7F83B480168CA0303D500990198FFF765
S31520003DD003FD0099019803F0F9FA10B944F68A60B8
S31520003DE016BD002016BD38B50C002ED02C4901F585
S31520003DF0BB6201F58D6360B1012813D0022814D06F
S31520003E00032817D0042818D0052818D0102819D030
S31520003E101BE00878002814BF002042F2DD702060E5
S31520003E20002032BD04F0E7F8F9E700F010F8AD0AFB
S31520003E302560F5E712682260F2E75068EFE710691F
S31520003E4018B1ECE700F003F8F2E7042032BD1D6854
S31520003E505A689968D86855194D194519704738B563
S31520003E600D4604461149086B241A04F0BDF82B466A
S31520003E70224601B00F49BDE8304005F011BF7CB5A0
S31520003E8004460D46164604F0AFF800962B46224609
S31520003E90084905F040FF76BD000000005CEF00E019
S31520003EA004A520200F0000F04643464250802020E3
S31520003EB014ED00E01CA920203EB504F02BF80228C2
S31520003EC001D001203EBDDFF8084C42F22C10251807
S31520003ED0284607F001F948BB284600F097FD28BB85
S31520003EE001A902A807F0E4F80199029800F054FC11
S31520003EF0E0B9284600F08AFDC0B942F22C002044E1
S31520003F0000F0CAFC90B9012140F2011021706946E7
S31520003F1003F00EFA50B900F06BF9E018046811446A
S31520003F20CC60C269806842438A6000203EBDFEB5EF
S31520003F3004460420002C1EBFDFF8942B117800299C
S31520003F404DD023681D0F0B2D49D1C3F3036142F2D7
S31520003F502405012915440DD0002940D1204604F01E
S31520003F6035F910B100212970FEBDA26801236A60CF
S31520003F702B70FEBD297891B303F00F03082B1AD2BC
S31520003F8002EBC30042F26C0142F2EC236D68D65874
S31520003F90084469460768446801A804F04EF906FB00
S31520003FA00757E0B900982D18B5FBF6F0844202D3E6
S31520003FB0711E0F4201D00420FEBDB7FBF6F401218D
S31520003FC0204600F0C5FB10B942F2DB70FEBD019A17
S31520003FD00099204600F0E7FC08B900F071FAFEBD12
S31520003FE02DE9F041064604240D46002E18BF002D6B
S31520003FF00ED0287800F00F00C01E08283FD24FF4BC
S3152000400080613046FFF7C8FB686803F0FBFA00289A
S3152000401070D06868083003F0F5FA00286AD06A681C
S3152000402006F58071002007F053FB040062D1286852
S31520004030DFF89C1AC0F3032000281CBF01280020AB
S315200040404860286800F00F039B1E082B52D8C0F347
S315200040500357032FC0F303610CD8DFE807F00204EF
S315200040600609402708E0802706E04FF4807703E022
S31520004070202701E0202F3DD300293BD0052939D226
S31520004080DFF8500A0122706017FB01FC37820020FE
S315200040907182B260C6F80CC0736116E0B2F806C031
S315200040A0B2F804E0E644B2F80AC0F4451CD31289FB
S315200040B0D6F8C8E206EBC008401C0EFB0CFC0EFB33
S315200040C002F2C8F84420C8F840C098420CD2002812
S315200040D005EB8002E2D1D6F8C8C2B7FBFCFE01FB95
S315200040E00EFE4FEA4E0EDEE74FF47F71301D00F0D4
S315200040F0ACFC30602046BDE8F081F8B504240746C4
S3152000410003F080FA00283D4654D005F2FF352846B4
S3152000411003F078FA00284DD03868DFF8B45942F217
S315200041202C016E18000F0C2846D139463046FFF771
S3152000413057FF04003ED10020287042F22C11681847
S3152000414000F064FC040035D1304600F0A5FBC8B170
S31520004150DFF88449FF224FF48461204604F018F8E2
S31520004160DFF87809012160600022A16040F21C413D
S315200041702261201D00F069FC2060304600F0B9FB6A
S31520004180040017D1304600F03CFB040012D1012078
S315200041906946287040F2011003F0CAF8040009D1DC
S315200041A000F026F8E81805681144CD60C2698068D9
S315200041B042438A602046F2BD7968DFF81829914289
S315200041C00FD14FF48061384600F032FC0028F1D040
S315200041D000204FF4806228703946304603F0A6F955
S315200041E0ABE70B28E6D13846FFF7A1FE0446E1E708
S315200041F0009A142042F2EC23DFF8E4184243704779
S315200042002DE9FE4F92460425BAF1000F0346884653
S315200042104CD0DFF8BC68307810B942F2DD7545E045
S31520004220726842F2EC2177183968012A019118D177
S31520004230307B48B9F9698B4238D2B868B36032739B
S3152000424000244343009312E0B068BA68424301FB5E
S3152000425002331B1A0198B3FBF1F1009100FB1133D5
S3152000426004E0B3FBF1F001FB103300901C466846D6
S3152000427041F20D0900F01DFC12E006F10D000119B6
S315200042802A46504603F052F901992C19A8EB050845
S31520004290AA448C4203D3009A641A521C0092002529
S315200042A0B8F1000F11D10DB1002030732846BDE8BA
S315200042B0FE8F084600F0DAFBF8B142F220003158B2
S315200042C0491C315000985844009041F2100500993D
S315200042D0725916F809008A4200D108BBD7F808B0EF
S315200042E0B1FBFBF118B1B2FBFBF0814205D0F869B6
S315200042F08142DED342F2D875D6E7DDF800B0002041
S31520004300396806F8090006F10D02584600F031FB1F
S3152000431020B9012146F805B006F809100500C2D1DA
S31520004320019808EB040290422CBF4546051BA4E7E2
S315200043302DE9FE4F93460424BBF1000F05D0DFF88C
S3152000434090773A7812B942F2DD748FE0894679681F
S3152000435042F2EC2342F214063B44BD191A680129A5
S3152000436001930646904639D1387B80B9D869864272
S315200043707CD2002201232A7092463B73BE600199AB
S31520004380886846430096324608FB029222E0B868C7
S315200043909968414302FB0162DFF84817121AB2FB03
S315200043A0F8F008FB102A00900868824211D028787D
S315200043B018B100F058F9040056D10120314638735F
S315200043C04FF0000ABE60019A90684143009108FBB5
S315200043D001F24A44DFF80C170A6005E0B6FBF8F054
S315200043E008FB10660090B2460098A96D88423DD31E
S315200043F0684600F05EFB1EE009EB0A00804507EBED
S315200044000A0041F214035946184434BFA8EB0A04A3
S315200044104C462246A24403F089F86868A9EB0409B1
S31520004420A3442018C245686004D30099AAEB080A61
S31520004430491C00910024B9F1000F06D113E0E86869
S31520004440401CE860009976180096A96800982C7898
S3152000445081420ED16CB169685145CDD000F003F987
S315200044600028F2D004460CB1002038732046BDE85F
S31520004470FE8F42F2EC223A449668B0FBF6F01CB16D
S31520004480B1FBF6F188420AD0D169884202D342F2C2
S31520004490D874E9E700F0EAFA0028D0D11CB100F080
S315200044A0E2F80400DFD1BAF1000F06D10020012284
S315200044B068600099A9602A709EE744F62A64D3E7CB
S315200044C0DFF8242600201178002918BF00F0CBB889
S315200044D0704738B5DFF8F8450020617821B142F2FF
S315200044E02C00204400F005FA42F214012144002257
S315200044F041F20D050A706255CA60227332BD2DE95C
S31520004500F8430D46DFF8C8753978042411B942F20C
S31520004510DD7441E00DB900243EE07B6842F2EC21D7
S315200045203944CE698A68012B08BF81460DD00968B7
S31520004530B0FBF1F82818401EB0FBF1F0B8FBF2F9F9
S31520004540B0FBF2F5A5EB09056D1C42F26C017B5818
S31520004550B3FBF2F2914507D21EE0484600F055FA29
S31520004560040003D16D1EC14625B90DE0484600F072
S315200045708EFAC146B14507D2484609F1010800F036
S3152000458075FA0028E9D0F4E7787828B142F22C01B0
S31520004590781800F0AEF904462046BDE8F28370B5DF
S315200045A0DFF82C45207810B942F2DD7070BD42F25A
S315200045B008300025265800E06D1CB5420CD228464E
S315200045C000F054FA0028F7D1284600F01EFA0028F9
S315200045D0F2D070BD002070BD60780028FAD042F27B
S315200045E02C01601800F085F90028F3D070BD002951
S315200045F030B52ED0DFF8D82442F2EC2342F27C14D8
S315200046001344144450B1012811D0022811D0032894
S3152000461014D0052815D0102818D01AE010780028B4
S3152000462014BF002042F2DD700860002030BD00205B
S31520004630FAE700F010F8ED0A0D60F6E71B680B604C
S31520004640F3E71A68986842430A60EEE700F003F839
S31520004650F2E7042030BD25686368A268E0685D192A
S315200046605519451970472DE9FE4FDFF8645442F27B
S31520004670140042F2EC212E186F1872683B6842F241
S31520004680DB789A421CBF00202873D6F808A00022A7
S3152000469032700121504600F05BF8002849D041F2E3
S315200046A0140271682A445046019200F07CF90028D1
S315200046B043D0B868BAFBF0F42046641C00F0E7F952
S315200046C0F168F8690290491CF16006E0204600F086
S315200046D0DEF9F068641C401CF06002998C422AD2F4
S315200046E0204600F0C3F90028F3D1B868BAFBF0FBE6
S315200046F000FB0BFB60430090AAEB0B01491C00F06A
S3152000470027F8B0B1DDF80090D345396817D205F106
S315200047100D02584600F02DF9A8B9396805F10D02A9
S31520004720484600F040F970B90BF1010B09F1010977
S31520004730EAE7404601E042F2D870BDE8FE8F019AD2
S31520004740484600F030F90028F7D04045BED1F4E7BE
S31520004750F8B50546DFF8786342F2EC200C46375868
S315200047600CE0001DB84208D251F8042B12F1010FBB
S31520004770F7D00020F2BD0120F2BD641E002CFAD035
S3152000478006F10D02394628466D1C00F0F2F8002885
S31520004790EFD106F10D01E5E72DE9F04100270546A9
S315200047A00E46B846CA4C01E07F1CB044B8B2A842B7
S315200047B024D204F10D024FF48061404600F0D9F86E
S315200047C0002802BFD4F81100C249884204BFD4F899
S315200047D01520012AE8D14FF4806104F10D0000F084
S315200047E027F90028E0D042F22C004FF4806204F131
S315200047F00D01204402F09AFE002000E00120BDE8D1
S31520004800F0812DE9F84F054644F62968B5F812904F
S31520004810B5F810A0D5F8C81200260027DFF8B0B2E8
S3152000482009FB0AF0B0FBF1F44E452FD20BF10D0235
S315200048304FF48061384600F09CF858BB4FF48062F4
S3152000484029460BF10D0006F0FFFB18BB761C5744DA
S31520004850EAE73046761C00F0E6F8A642F9D30024B3
S31520004860002647464C4512D22A464FF480613046F0
S3152000487000F099F800280FBF0027D5F8C802B6FB2C
S31520004880F0F000F0D0F8641C5644EBE700273846D9
S31520004890BDE8F28F0026E0E72DE9F0418E4C00219D
S315200048A06160458A068A0027D0F80C8001E07F1CCB
S315200048B0B044B8B2A84219D2082817DA22464FF4D3
S315200048C08461404600F055F8002802BF606883499D
S315200048D0884204BFA268012AE9D14FF484612046A8
S315200048E000F0A6F80028E2D0002000E00120BDE874
S315200048F0F0812DE9F84F814644F62966B9F81280F1
S31520004900B9F810A0D9F8C802D9F80C20002508FB60
S315200049100AF1B2FBF0F4B1FBF0F703E000196D1CCD
S3152000492000F081F8A8B2B842F8D36B4F40F21C4190
S31520004930381D002500F089F83860D9F80CB0644C91
S31520004940A8B2404512D23A464FF48461584600F048
S315200049502AF810B96070002605E0D9F8C812BBFB0A
S31520004960F1F000F060F86D1CD344E9E73046BDE86D
S31520004970F28F2DE9F04105460C469046544F08E04B
S3152000498042463146284600F045F850B9B044A41BAB
S315200049906D1C34B142F2EC203E58A64228BF264672
S315200049A0EEE7BDE8F0812DE9F84307460C46904630
S315200049B0474E12E006F10D022946384600F02AF845
S315200049C05FEA00091ED12A4606F10D01404606F08F
S315200049D03BFBA8B9A844641B7F1C9CB142F2EC2087
S315200049E042F22C11355843463A463144A54228BF57
S315200049F025460095002006F0CBFD0028DAD002E0FF
S31520004A00012000E04846BDE8F2830CE00146002084
S31520004A1006F0A8BC80B51346009102463349002013
S31520004A2006F0B2FC02BD02463049002006F052BD17
S31520004A3010B50446091F201D00F007F82268904291
S31520004A4001D1012010BD002010BD3EB504460D4603
S31520004A5001A806F0A5FF2A46214601A806F0A6FFD2
S31520004A60694601A806F0B8FF00983EBD30B51A4A3F
S31520004A700021136900E0491C994206D202EB810409
S31520004A80256A8542F7D1012030BD002030BD12496C
S31520004A900A69B2F5807F0AD201EB820210620869A8
S31520004AA00B4A401C086101215170002070470120EB
S31520004AB07047074942F2200330B5CC5842F2F4251C
S31520004AC00268495901FB04220260002030BD000023
S31520004AD0B80E21204243464EE4322120544242441D
S31520004AE0C080202004372120CC2E2120E42F212015
S31520004AF030B504460420002C85B01EBFDFF8742490
S31520004B00117800294BD023681D0F0B2D47D1C3F3F5
S31520004B100361012902F543750DD000293FD12046B6
S31520004B2003F054FB10B10021297038E0A26801235C
S31520004B306A602B7033E0297889B313F00F0F2ED1DA
S31520004B40002101200491039104A900F0D0F930BB83
S31520004B5003A900F0BEF910BB01A9032000F0C7F994
S31520004B60E8B96C68049D694602A803F066FB6519DE
S31520004B70A8B9009A0399A418A14210D3019B5B1EE1
S31520004B801D420CD10199284607F064FB10B142F270
S31520004B90DB7004E0029A0099284600F0CCF805B0B4
S31520004BA030BD38B503F0B6F9102801D0012032BD4A
S31520004BB0DFF8C053281D07F011FD040008D1281D79
S31520004BC007F063FB040003D100F0BFF90120287031
S31520004BD0204632BDFEB5054602F014FD20B105F192
S31520004BE0FF0002F00FFD08B90420FEBD2968DFF89A
S31520004BF08803DFF8804381420DD14FF48072294625
S31520004C00201D02F093FC0021201D217007F03DFBA2
S31520004C1000286BD0FEBD080F0D285ED1C1F3012000
S31520004C2000B9012021F4407141EA0021201D2960AC
S31520004C3007F0D4FC00286ED1052004F125061821A2
S31520004C40207431702A7804F1450702F003027A7441
S31520004C502868000AC10001F0180171702A68920ABA
S31520004C6002F0010272722868000B00F00700F07152
S31520004C702868C0F3810002283874C4D1AA8800F0BD
S31520004C804BF8F075EA8800F047F830762A8900F06C
S31520004C9043F870766A8900F03FF8B076AA8900F06A
S31520004CA03BF8F076EA8A00F037F8B0772A8B0121B4
S31520004CB0201D07F0A7F8F077EA8900F02DF8387064
S31520004CC02A8A00F029F830776A8A00F025F870776A
S31520004CD0AA8A00F021F8787095E70B2803D1284698
S31520004CE0FFF706FFFEBD45F27C20FEBD00F02DF944
S31520004CF001A9012000F0FBF86946102000F0F7F822
S31520004D0000989E49019A0A6483185B1E01224B640F
S31520004D108A6400202270FEBD0021201D07F072B893
S31520004D2010B5944C237813B942F2DD7010BDBDE85E
S31520004D30104006F03DB92DE9F84306468D4D2878FA
S31520004D400C46904610B942F2DD703CE0304607F042
S31520004D5081FAA8B342F2DB7035E005F582777868F0
S31520004D603968002808BF00290CD195F82610C908F3
S31520004D70B6FBF1F201FB126111B142F2DE7022E0C4
S31520004D803E6002E04118B14217D12118B1F5007FEB
S31520004D90414694BFA146C0F5007928444A4600F50D
S31520004DA08670C84402F0C2FB78684E44A4EB09041E
S31520004DB04844B0F5007F786002D100F045F810B97C
S31520004DC0002CCAD10020BDE8F2832DE9FC41694EB2
S31520004DD0054630780C46174604EB050810B942F212
S31520004DE0DD702CE000F02DF801A900F072F8009992
S31520004DF08D4223BF01984218424545F26D201ED3AD
S31520004E0006F5867841468020401E41F8047BFBD17A
S31520004E109CB14FF400770020B4F5007FC6F8080156
S31520004E204246284698BF27463946FFF784FF002882
S31520004E3004BF7D19E41BEBD001E000F005F8BDE8C6
S31520004E40F6816946012052E010B54A4C002004F54F
S31520004E50827253684BB111681060506004F58672F7
S31520004E60201DBDE8104007F061BA10BD2DE9FF41B5
S31520004E70404C064620780D46AF1910B942F2DD7037
S31520004E8024E0FFF7DEFF01A9052000F030F802A993
S31520004E9000F01FF800998E4223BF02984218BA42AA
S31520004EA045F26D2012D375B900200FE000980199C4
S31520004EB0301AB0FBF1F1201D07F072FA5FEA000804
S31520004EC003D101988619BE42F0D3404604B0BDE80E
S31520004ED0F08110200BE0E0B501A9FFF7B3FF69468A
S31520004EE0FFF7F7FF00990198FFF7C0FF0EBD10B539
S31520004EF049B3204A02F1A40350B1012811D0022857
S31520004F0012D0032816D0052816D0102817D01AE05C
S31520004F101078002814BF002042F2DD7008600020BF
S31520004F2010BD52690A60FAE75C6898684443A40A8F
S31520004F300C60F4E71A68F5E7586820B1EEE75A687E
S31520004F4098684243EEE7042010BDE0B501A905208C
S31520004F50FFF7CDFF69461020FFF7C9FF0548009AE5
S31520004F608169914204D2019BB1FBF3F1C0F8AC10E8
S31520004F7007BD00003007212053454D435080202097
S31520004F803EB502F0C7FF202801D001203EBD00F02B
S31520004F903EFDDFF8004B44F220102518284607F086
S31520004FA01AFC70BB284608F0D2F950BB694601A806
S31520004FB007F04CFB009B019A0021002000F044FCE6
S31520004FC0F8B944F220004FF48062A11C204402F07C
S31520004FD0ADFA284608F0BBF998B9009B019A44F22D
S31520004FE02C002158012000F02FFC50B94FF4846288
S31520004FF0A11CDFF8A40A02F099FA0120207000F023
S315200050001FFD3EBD2DE9FC4104460420002C1EBF99
S31520005010DFF8805A2978002950D02268130F0B2BED
S315200050204CD144F21803C2F30361EE1801290DD0C6
S31520005030002943D1204603F0C9F810B10021317070
S315200050403CE0A26801237260337037E03178A9B35F
S3152000505002F00F02082A1BD205EBC20044F26001BF
S3152000506044F2C012D6F80480AF5808446946066850
S31520005070446801A803F0E1F807FB0686F0B900981A
S315200050808044B8FBF7F0844202D3791E0E4201D049
S31520005090042013E044F220100122B6FBF7F1284445
S315200050A008F042FB10B142F2DB7007E0019A00994A
S315200050B0304600F096F908B900F090FABDE8F6817E
S315200050C02DE9F84F07463C4602F09CFA28B104F237
S315200050D0FF34204602F096FA08B90420FDE0DFF8F6
S315200050E0B44944F22C0044F22011251804EB01099E
S315200050F03946002000F08DFB90B3002044F22003B7
S3152000510020704FF480623946E01802F01FFA4846B4
S3152000511008F01DF90028E1D1AB88EA88296801202A
S31520005120DFF874694FF4846700F08EFB002800F0E6
S31520005130C680FF223946304603F02AF8DFF85C099C
S31520005140012170600022B16040F21C413261301DA5
S3152000515000F04CFC306000F03FFA0028BED1B3E0EE
S315200051603968080F0D2840F0A080786810F00F0FDE
S3152000517014BF00F00F060126C0F30348B8F1000F54
S31520005180C1F3012008BF4FF0010800B9012021F426
S31520005190407141EA002139607968C1F3072000286F
S315200051A021F47F4108BF012041EA00217960387847
S315200051B010F00700D8BF45F2E4208FDDB8F1090FC3
S315200051C028BF45F2E5206FD20020207000F01FFC9A
S315200051D0484607F000FB002834D144F272102044E0
S315200051E0002144F229128172A11805230022CB70D6
S315200051F0C2720A703A7802F0070202703B68C3F363
S31520005200C002CA753A68C2F30212521C42703B6849
S315200052101B0ADA0002F018020A76396844F25012A4
S31520005220090B01F00701A1543B681B0C03F0010395
S31520005230C3703968490C01F001010171484608F034
S3152000524086F8002849D1796844F2C81E54F80E0021
S31520005250BC46C1F3072A16FB0AFAC1F3072200FB54
S3152000526002F900224FEA4A0A10E004EBC20144F296
S31520005270600754F80EB0521C394407890BFB07F718
S315200052804F60408954F80E7078430860424526D214
S315200052900CEB82001AB1C188878807EB010A47897F
S315200052A05745E2D245F2E62017E00B2804D13846CE
S315200052B0FFF7A8FE88B92FE745F2E0200DE03A4631
S315200052C0A11C304602F032F9002000F0EBFA20B99A
S315200052D001202070BDE8F14FB2E3BDE8F28FEE80E9
S315200052E009FB06F6A5F804902E60C5F8088013E79A
S315200052F02DE9F84F5FEA0208DFF8986744F2C012FA
S31520005300054606EB02073C68009408BF0420B5FB5F
S31520005310F4F904FB195521D0327812B942F2DD7026
S315200053201CE044F21403BA68F45802FB04990C46B4
S3152000533010E0B01C41195246404602F0F7F8009A98
S315200053405544A4EB0A04D044954224BFAD1A09F172
S3152000535001090020002C42F2040A0BD1BDE8F28F8D
S31520005360484600F02EFBF0B144F21400D9443158DF
S31520005370491C315056F80A1042F20200305C494569
S3152000538000D130BBD7F808B0B9FBFBF218B1B1FB9E
S31520005390FBF0824207D0F868396948438242DFD35E
S315200053A042F2D870DAE742F2020B00203B6806F898
S315200053B00B0044F2201CB21C494606EB0C0008F0F8
S315200053C058F820B9012146F80A9006F80B10002853
S315200053D0C4D10098621990422CBFA246A0EB050AC0
S315200053E0A7E72DE9F84F5FEA02080746DFF8A4563B
S315200053F044F2C012AC58009408BF0420A146B7FB63
S31520005400F9F904FB197747D02A7812B942F2DD70F0
S3152000541042E044F20803EE18B26D914538BF45F2DA
S31520005420E32039D344F2C0142C19F368A2688A46C3
S3152000543002FB03991CE000980AEB070142F20803DD
S315200054408842414634BFC41B5446E81922461844B4
S31520005450E71902F06BF87268AAEB040AA044A218B6
S31520005460726000998F4224BF7F1A09F1010900203A
S31520005470BAF1000F04D10FE0F068D944401CF06067
S31520005480B0683478484509D144B17068B842D2D062
S3152000549000F00BF90028F3D0BDE8F28F44F2C011DA
S315200054A06A18D2F808B0B9FBFBF11CB1B0FBFBF0CF
S315200054B081420DD0D06812695043814202D342F214
S315200054C0D870E9E7484600F07CFA0028D4D11CB110
S315200054D000F0EBF80028DFD137B9002001217060F9
S315200054E0C6F808903170A6E745F2D120D4E72DE919
S315200054F0F047DFF8A07544F2C0157C193A78256983
S31520005500E3685D4312B942F2DD703AE009B9002042
S3152000551037E02368A268B0FBF3F60818401E44F271
S315200055206001B6FBF2F9B0FBF3F07B58B0FBF2F664
S31520005530A6EB0906761CB3FBF2F2914509D245F299
S31520005540E3201EE0504600F05AF95FEA000802D137
S31520005550761E86B102E0504600F089FACA46AA4570
S3152000556009D2A0680AF1010900FB0AF000F029FA25
S315200055700028E7D0F2E7787810B100F02DF88046C1
S315200055804046BDE8F08744F2C8122DE9F041DFF825
S3152000559004650025B7183078BC6879684C4388B90B
S315200055A042F2DD7016E03868684300F00AFA40B926
S315200055B0284600F024F95FEA00081CBF284600F0C0
S315200055C056FA6D1CA542EED3707810B100F004F89F
S315200055D080464046BDE8F081012063E1DFF8C02423
S315200055E000201178002918BF00F05FB8704738B541
S315200055F0DFF8A0440020617809B1FFF7EDFF44F2FF
S3152000560008012144002242F202050A706255CA604E
S3152000561032BD002930B52BD0DFF8782444F2C013F0
S31520005620D41850B1012811D0022811D0032814D043
S31520005630052815D0102818D01AE01078002814BF95
S31520005640002042F2DD700860002030BD0020FAE71D
S3152000565000F010F8AD0A0D60F6E723680B60F3E75B
S31520005660A268206842430A60EEE700F003F8F2E7FA
S31520005670042030BD2569E368A26820685D43554350
S3152000568045437047DFF80C1401F584421078002852
S3152000569000D0704710B5002342F2020442F2040003
S315200056A00B550B50891C516010BD2DE9FE4FDFF8BC
S315200056B0E44344F2080044F2C0116618336900211D
S315200056C02518F06829703168D5F808A0B2684343D8
S315200056D06868029342F20803234488420093BAFB87
S315200056E0F2F804D0091AFF22184405F079FC44F296
S315200056F0201301225146E01808F016F8002842F23D
S31520005700DB7B46D13068009A014600FB0AF000F0A8
S3152000571050F8002841D0404608F1010800F0A7F9CA
S31520005720E86805E0404600F0A2F9E86808F10108BB
S31520005730401CE860029988452DD2B76807FB08F916
S31520005740484600F03EF90028EFD1BAFBF7F0474370
S3152000575044F22010204449460190AAEB0702521C2D
S3152000576007F0E2FFA8B95745316818D201980B46D1
S31520005770A21C394607F07DFEB0B93068A21C01464E
S3152000578000FB09F000F015F870B97F1C09F101093A
S31520005790E9E7584601E042F2D870BDE8FE8F009A4C
S315200057A001FB0AF000F005F80028F6D05845B9D1DB
S315200057B0F3E72DE9F047904644F2C015B54E08EBC5
S315200057C0010972590C46B0FBF2FAFFF75BFF384627
S315200057D00CE044F220103B4642465146304407F046
S315200057E0B3FE50B9B844E41B0AF1010AC84504D2F5
S315200057F07759BC4238BF2746EBE7BDE8F08710B59E
S315200058000446FFF73FFF2146A648BDE8104007F0B3
S3152000581030BF10B50C4620B9A34A201D4FF47F7126
S3152000582003E09E4A201D40F21C416368934204BF58
S31520005830A268012A06D100F0D9F82168884201D150
S31520005840012010BD002010BD2DE9F04782460F46ED
S31520005850904D914698464FF40051A81C07F0D4FF6E
S315200058605FEA0A000CBF4FF480644FF4846400267C
S3152000587001E04744761C4E4511D244F2C010AA1CC2
S31520005880285821467843FFF733FD0028F1D1A91C7B
S315200058905046FFF7BEFF0028EBD0002000E0012095
S315200058A0BDE8F0872DE9F84F804D84B06A8A2B8AAF
S315200058B00192019A0293012A06D953437C4AD2F8CF
S315200058C008A0B3FBFAFA01E04FF0010A8DF80000B8
S315200058D0774CF8B90026B146B346DDF80480029F1E
S315200058E0C14558D22068734A4FF4806100FB0BF003
S315200058F0FFF7FEFC002851D166484FF48062294606
S31520005900801C05F0A1FB002804BF09F10109BB4456
S31520005910E6D043E0D5F80C90A0685F4D45F2E2272B
S3152000592003954FF48468B9FBF0F440F21C41281D1E
S3152000593000F05CF82860002503E028196D1CFFF7AD
S315200059405EFF5545F9D30024DDF804A0029D039E91
S31520005950DFF85CB1544532D2DBF8000032464146CE
S3152000596000FB09F0FFF725FF40B99DF8000001284C
S3152000597002D10021474A5170002705E0DBF80800D4
S31520005980B9FBF0F0FFF73BFF641CA944E2E70020D7
S3152000599005B0BDE8F08FCDF8048002E0CDF8048094
S315200059A0012602970024002EA14645F2E127039501
S315200059B04FF48068EBD04FF47F713F48B8E7384604
S315200059C0E6E770B53D4B01461C68334B00220020AC
S315200059D0B1FBF4F11C6900E0521CA24205D203EB94
S315200059E082052E6AB142F7D1012070BD3EB504462C
S315200059F00D4601A805F0D4FF2A46214601A805F048
S31520005A00D5FF694601A805F0E7FF00983EBD70B5B1
S31520005A10204C44F22003E518FF224FF480612846EB
S31520005A2002F0B6FB204E012344F224006E60AB60E8
S31520005A304FF47F712044FFF7D9FF2860002070BD06
S31520005A401CB569464FF4807001F072FC70B9009A5B
S31520005A5014201B494243164803680A44D36004694C
S31520005A60C16880684C4344439460002016BD0A49AF
S31520005A700A69B2F5807F0AD201EB820210620869B8
S31520005A80044A401C08610121517000207047012002
S31520005A907047000034BE2020540221205442424444
S31520005AA03CFE202054FF20204243464E54FE202018
S31520005AB0F4FF202036BE202058FE2020FCFF202088
S31520005AC0C080202030B504460420002C85B01EBF9F
S31520005AD0DFF898251178002950D023681D0F0B2D4B
S31520005AE04CD1C3F30361012902F23C450DD00029B4
S31520005AF044D1204602F06AFB10B1002129703DE016
S31520005B00A26801236A602B7038E02978002935D0F5
S31520005B1013F00F0F32D1002101200491039104A923
S31520005B2000F068F950BB03A9102000F063F928BBE8
S31520005B3001A9032000F05EF900BB6C68049D69464C
S31520005B4002A802F07AFB6519C0B9009A0399A41835
S31520005B50A14213D3019B5B1E1D420FD101992846FA
S31520005B6000F0B6F810B942F2DB7007E0029A00990D
S31520005B70284600F017F808B900F052F805B030BDF5
S31520005B800020DFF8E8148860704710B51346DFF868
S31520005B90DC44227802B998E00A461946BDE810404E
S31520005BA007F063BE2DE9F8438046DFF8C054287815
S31520005BB00C469146D5F8287410B942F2DD702DE0D6
S31520005BC0B7F5806F88BF4FF4806734B3A8686968DB
S31520005BD0002804BF0029C5F8048002D04118414599
S31520005BE016D121188F422CBF26463E1A284400F192
S31520005BF00C01894504D0324649460C3001F096FC0A
S31520005C00A868A41BB144B0443018B842A860DCD1BF
S31520005C1000F006F80028D8D000E00020BDE8F28386
S31520005C20F8B5DFF84864ADF5806DB5680024DDB1C0
S31520005C3077687460B4602A4606F10C01384607F08E
S31520005C4094FE040010D12A466946384607F00DFE18
S31520005C50040009D12A46694606F10C0005F0F4F93C
S31520005C6010B142F2DF7000E020460DF5806D01B0E4
S31520005C70F0BD38B50D460446DFF8F013087810B9A4
S31520005C8042F2DD7032BD2946204607F006FE40B9B5
S31520005C902946204600F01CF810B942F2DF7032BDCA
S31520005CA0002032BD10B5DFF8C443207800B90CE0DF
S31520005CB007F034FE40B9D4F8241400F009F810B9DE
S31520005CC042F2DF7010BD002010BD42F2DD7010BD23
S31520005CD070B5ADF5806D05460C4610E0491CB1EB5C
S31520005CE0960F0AD250F8042B12F1010FF6D000209D
S31520005CF000E001200DF5806D70BDA41B7519002CE8
S31520005D00F7D04FF48066B4F5806F6946284698BF71
S31520005D102646324607F0A9FD68460021DFE72DE931
S31520005D20F8430646042401F06DFC00285FD006F1F6
S31520005D302B0001F067FC002859D03068DFF82C537F
S31520005D4005F5826805F20C47DFF82493000F0C282E
S31520005D501AD12C214046FDF71FFD4FF4803001213A
S31520005D60B86005F586600222017042700323052182
S31520005D7006228370C4700171314642714046C7F8CD
S31520005D80049000F0D5F813E03068010F0B2904D1F8
S31520005D903046FFF797FE044629E0484527D12C21B7
S31520005DA04046FDF7F9FC2C223146404601F0BEFB69
S31520005DB000203C7B2870D7F8108005F58360AD4E17
S31520005DC002F03AF8204601F0F1FF3146204602F073
S31520005DD025F842463146204600F034F8396805F564
S31520005DE0846007F015FD040004BF012028702046BA
S31520005DF0BDE8F28321B39D4A02F2244350B1012823
S31520005E0011D0022814D003280FD0042814D010282B
S31520005E1014D015E01078002814BF002042F2DD705F
S31520005E200860002070470020FAE75A680A60F8E701
S31520005E301B689B0A0B60F4E79868F1E71A68F5E798
S31520005E400420704770B58CB004460D46164607A848
S31520005E5091A1142201F07AFB1C216846FDF79CFCD7
S31520005E6000960821009B019183490022ADF8082065
S31520005E70B1FBF3F38DF80A200A46039313460099E3
S31520005E80B2FBF1F1009A049102218DF818106946AF
S31520005E90B3FBF2F20592002207AB8DF81920ADF87C
S31520005EA01A2053F824002A4607F0B0FE0CB070BD25
S31520005EB02DE9F0430746714889B08846164604788E
S31520005EC0457804A879A1142201F040FBE946002078
S31520005ED000210022002389E80F004FF48010039050
S31520005EE00EB9012201E0032E05D12946204601F0F4
S31520005EF077FF002019E0012E08BF019702D0022E5D
S31520005F0008BF0097CDF8088004A8694650F82400F9
S31520005F1007F0E7FFB0F5C87FF6D030B1002229465A
S31520005F20204601F05DFF42F6CD1009B0BDE8F083B2
S31520005F3070B50B78524A03F00F0302EB8304E56D2C
S31520005F4085610B68C3F3031302EB8304256CC561DB
S31520005F500B68C3F3032352F823204A4B42610C6893
S31520005F60240B04F00F04012C02D0022C10D012E0D6
S31520005F70012202744269B2F5803F98BF102205D9EA
S31520005F809A4202D21823437436E02022427433E028
S31520005F900223037430E000226024027400F12102FF
S31520005FA0D47145699D4213D21823422443745471F7
S31520005FB0C369B3F5803F28BFD82316D2B3F5805FD7
S31520005FC008BF202417D0B3F5004F15D152230CE07B
S31520005FD020241225447413230026157053705671FD
S31520005FE0C369B3F5803F02D3DC23937104E0B3F594
S31520005FF0805F01D1212494710A68120D02F00F02EC
S31520006000521E032A0BD8DFE802F0020406080122FA
S3152000601006E0022204E0032202E0042200E000223D
S3152000602002720A68120C02F00F02012A06D004D36B
S31520006030032A03D038BF022200D3002242720A6804
S31520006040C2F303627AB1097901F00F01012904D064
S3152000605009D3032905D002D305E00B4904E00B49F7
S3152000606002E00B4900E00B49C16070BDAC812020E5
S315200060706B736563005A620200CA9A3BC48520206E
S31520006080388120200100000180969800404B4C006A
S3152000609080841E00002D31010000000000403940A0
S315200060A00080394000C0394000003A40000000001E
S315200060B0004039400080394000C0394000003A4055
S315200060C0F0B504460420002C85B01FBFDFF8E45548
S315200060D005F565763178002969D02268130F0B2BD8
S315200060E065D1C2F3036101290DD000295FD1204675
S315200060F002F06CF810B10021317558E0A268012336
S31520006100B261337553E0317D002950D012F00F0F64
S315200061104DD1002101200491029104A900F02DFA0D
S31520006120002844D102A9022000F027FA00283ED1F7
S315200061300298DFF884154FF0FF34884201A928BF62
S315200061400294052000F019FA88BBB769049E6946B7
S3152000615003A802F072F8BE1948BB009A0299BF182C
S31520006160B94224D3019B5B1E1E4220D195F8000321
S31520006170019901280198019BB2FBF1F100FB112244
S3152000618018BF00241000224618BF01204118B6FB74
S31520006190F3F000F067FA10B942F2DB7007E0039AD9
S315200061A00099304600F043F908B900F095F905B09A
S315200061B0F0BD3EB5DFF8FC44DFF8001521600E2067
S315200061C0FCF7B1FE0546DFF8F804FCF794FE401C08
S315200061D040F2FF11B5FBF0F0606004F55B7502221A
S315200061E0A9846A84204608F001F8E8B9204609F017
S315200061F027F8B0B901A940F2211001F099F898B911
S3152000620000F013F880B9019B1421DFF8B8242D681B
S315200062104B43D118CD60009A8A60012184F89413EB
S315200062203EBD002384F894333EBD694620464DE2A8
S315200062307FB5054601F0E6F968B1E81D01F0E2F9FF
S3152000624048B12868000F0B2803D12846FFF738FFEE
S3152000625002E00C2802D0042004B070BDDFF85444BC
S315200062604FF46C712046FDF797FADFF85004206052
S315200062700E20FCF758FE0646DFF84404FCF73BFEEA
S31520006280401C0222B6FBF0F0606004F55B76728457
S3152000629040F2FF11B184286804F12801030B000A9B
S315200062A003F00F0300F00F000B7048706868C20CF3
S315200062B002F001020A7341F28832C30D000E00F08B
S315200062C0030003F0010301284B7340F6C41306D0E4
S315200062D002D3032808D005D344F6206005E042F215
S315200062E0107002E0104600E0184648606868C0F367
S315200062F0005000B11A468A606868800C00F00100E0
S315200063008873204608F09CFF0028A5D129682046DE
S31520006310090E01F0070109F0ABF900289CD103A969
S31520006320FFF784FF002897D102A940F2211000F040
S31520006330FFFF002890D1029B1421DFF888233668BE
S315200063404B43D118CE60039A8A602968CB071DD5A6
S31520006350C1F30112080C8DF8042000F003000A0D89
S315200063608B08C90801F001018DF8030002F007022D
S3152000637003F001038DF802108DF8012069468DF88F
S315200063800030204609F086FA002802D1012184F83F
S31520006390941361E72DE9F84FDFF81893824609F543
S315200063A065760C463078904610B942F2DD703CE0B6
S315200063B04FEA5A2509F56C70AAEB45254FEA5A276C
S315200063C000900FE000985A46A4EB0B044119404672
S315200063D001F0ACF85D44B5F5007FD84424BFA5F59F
S315200063E000757F1C04B3707878B1706887420CD32F
S315200063F0411C8F4209D2AAEB40256019B0F5007FD7
S3152000640094BFA346C5F5007BDCE700200099707099
S3152000641001233A46484609F04AF9002802BF0120DE
S3152000642070707760E9D000E00020BDE8F28F2DE99A
S31520006430F84FDFF8809209F565773B7813B942F279
S31520006440DD703EE082464FEA5A26AAEB46264FEA00
S315200064505A240D46904613E009F5B66041465A4641
S31520006460801901F063F8F9685E44B6F5007FA5EB64
S315200064700B05D8445944F96024BFA6F50076641C60
S31520006480F5B1387A18B3386984421CD3411C8C4242
S3152000649019D2AAEB4026F868B04209D000F09AF843
S315200064A00028EED00DE000200121F8603C61397211
S315200064B0A819B0F5007F94BFAB46C6F5007BCBE7A5
S315200064C00020BDE8F28F00F085F80028F9D1002ED3
S315200064D0E9D042F2DE70F4E7764A002092F89C1367
S315200064E0002918BF00F076B8704777480021C1719F
S315200064F001700020704770B506466E4D95F89403DE
S315200065000C4610B942F2DD7070BD284609F0A8F895
S3152000651010B142F2E07070BD94B105F55B70A4191C
S31520006520C1690068641EB4FBF0F2B2FBF1F2B6FB5F
S31520006530F0F0B0FBF1F12846BDE8704009F0FCB858
S3152000654070BD38B55B4C04F56275287B10B942F2F4
S31520006550DD7032BD204609F083F810B142F2E070BA
S3152000656032BDFFF762FE38B900982968B0FBF1F218
S315200065700021204609F0E0F832BD38B50C0027D0BE
S315200065804C4D30B101280ED002280ED005281BD044
S315200065901EE095F89403002814BF002042F2DD7017
S315200065A02060002032BD0020FAE76946284600F028
S315200065B08DF80028F6D1009AD5F86C13A1FB0201BC
S315200065C0800A40EA8150EBE7D5F86C232260E8E7A1
S315200065D0042032BDF8B5374C204609F041F810B1F9
S315200065E042F2E070F2BD04F5677504F5B666686898
S315200065F04FF0FF37B0F5007F0AD094F80013012939
S31520006600C0F5007130440CBF3A46002204F0E8FC85
S3152000661094F8001300202870A868012918BF0027C5
S315200066203A46012100F01EF810B942F2DB70F2BDA5
S31520006630AA6801233146204609F052F888B9AA688B
S3152000664004F56C7701233946204609F030F840B925
S315200066504FF400723946304604F0F6FC08B142F297
S31520006660DF70F2BD2DE9F84305460C461646DFF8E5
S31520006670448017E008F56C793B462A464946404651
S3152000668009F015F840B900E0001DB0EB472F08D2FD
S3152000669059F8041BB142F7D0002000E00120BDE8E4
S315200066A0F283E41B002CF9D0012C8CBF012727464E
S315200066B0E0E700009CAC20200100400000402C4078
S315200066C024F00080C080202031B0202000F55C70AE
S315200066D0027F072A14D8DFE802F0040808130B0DFE
S315200066E00F11006808600020704742680A60FAE7C8
S315200066F08068F7E7C268F9E70069F3E74269F5E7DA
S3152000670004207047F0B504460420002C85B01FBF36
S31520006710DFF8242502F1AA05A97D00296AD023687D
S315200067201E0F0B2E66D1C3F30361012902F1D40695
S315200067300DD000295ED1204601F048FD10B1002180
S31520006740317057E0A26801237260337052E03178CD
S3152000675000294FD013F00F0F4CD1002101200491B6
S31520006760029104A900F0D3F9002843D102A90220FE
S3152000677000F0CDF900283DD10298DFF8C0144FF083
S31520006780FF34884201A928BF0294052000F0BFF9F2
S3152000679080BB7768049E694603A801F04EFDBE19AA
S315200067A040BB009A0299BF18B94223D3019B5B1EB6
S315200067B01E421FD12878019BC10701990198B2FB7F
S315200067C0F1F158BF002400FB11221000224618BF09
S315200067D001204118B6FBF3F000F006FA10B942F298
S315200067E0DB7007E0039A0099304600F0F1F808B90B
S315200067F000F043F905B0F0BD38B5DFF83C44DFF8CA
S31520006800401421600E20FCF78EFB0546DFF8340489
S31520006810FCF771FB401CB5FBF0F06060204607F0EA
S3152000682037FD60B92046B43409F072FE28B900F06D
S3152000683070F820B900F072F832BD0023237332BD00
S315200068407CB5044600F0DEFE68B1E01C00F0DAFEFE
S3152000685048B12068000F0B2803D12046FFF752FFCE
S3152000686076BD0D2801D0042076BDDFF8CC53DC217F
S315200068702846FCF791FFDFF8C80328600E20FCF7B6
S3152000688052FB0646DFF8BC03FCF735FB401C05F13E
S315200068902801B6FBF0F068602068020B02F00702C0
S315200068A00A70C20D030AC60C000E00F0030003F0A6
S315200068B0010302F0010201284B7006F001064A731B
S315200068C00E7341F2883240F6C41306D002D3032851
S315200068D008D005D344F6206005E042F2107002E0AD
S315200068E0104600E0184648602068C0F3005000B10A
S315200068F01A468A60284609F00BFE05F1B40428B929
S3152000690000F007F820B900F009F876BD00232373BC
S3152000691076BD69464FF4907000F00ABD009B1421A5
S31520006920DFF8242365684B43D118CD6022688A603E
S315200069300121217370472DE9F84FDFF8FC9282463A
S3152000694009F1C0060C463078904610B942F2DD7047
S315200069503CE04FEA5A2509F1DC00AAEB45254FEA2F
S315200069605A2700900FE000985A46A4EB0B044119D1
S31520006970404600F0DBFD5D44B5F5007FD84424BFDA
S31520006980A5F500757F1C04B3707878B170688742CE
S315200069900CD3411C8F4209D2AAEB40256019B0F5D1
S315200069A0007F94BFA346C5F5007BDCE70020009955
S315200069B0707001233A4648460AF00BF8002802BFB9
S315200069C0012070707760E9D000E00020BDE8F28FEA
S315200069D02DE9F84FDFF8609209F1C0073B7813B92B
S315200069E042F2DD703EE082464FEA5A26AAEB462660
S315200069F04FEA5A240D46904613E009F53770414672
S31520006A005A46801900F092FDF9685E44B6F5007F7B
S31520006A10A5EB0B05D8445944F96024BFA6F50076AA
S31520006A20641CF5B1387A18B33869A0421CD1411CD0
S31520006A308C4219D2AAEB4026F868B04209D000F061
S31520006A4089F80028EED00DE000200121F8603C6195
S31520006A503972A819B0F5007F94BFAB46C6F5007B06
S31520006A60CBE70020BDE8F28F00F074F80028F9D1BA
S31520006A70002EE9D042F2DE70F4E76F4A002092F849
S31520006A80C810002918BF00F065B870476F4800216C
S31520006A90C17101700020704770B50546664E96F8A4
S31520006AA0C0000C4610B942F2DD7070BD304609F0C8
S31520006AB088FF10B142F2E07070BD54B1690A6519C1
S31520006AC06D1E3046C1EB5522BDE87040521C09F0C0
S31520006AD0C9BF70BD38B5584C04F1B405287B10B930
S31520006AE042F2DD7032BD204609F06BFF10B142F252
S31520006AF0E07032BD28686968A1FB0023204600218A
S31520006B00520A42EAC352BDE8384009F0ABBF10B57D
S31520006B10F1B14F4A30B101280DD002280DD00528F9
S31520006B2014D015E0107B002814BF002042F2DD703F
S31520006B300860002010BD0020FAE714685368A3FB04
S31520006B400423920A42EA83520A60F2E75068EFE78A
S31520006B50042010BD2DE9F041374C204609F031FFC5
S31520006B6010B142F2E0703DE004F1CC0504F5377631
S31520006B70286804F1AA074FF0FF38B0F5007F09D046
S31520006B803978CA07C0F5007130444CBF424600220E
S31520006B9004F026FA39780020B877CA0758BF80460D
S31520006BA068684246012100F01FF810B942F2DB70F6
S31520006BB018E06A6801233146204609F027FF88B984
S31520006BC06A6804F1DC0701233946204609F001FFF3
S31520006BD040B94FF400723946304604F035FA08B110
S31520006BE042F2DF70BDE8F0812DE9F84305460C46F8
S31520006BF01646DFF8448017E008F1DC093B462A46B2
S31520006C004946404609F0E5FE40B900E0001DB0EBDC
S31520006C10472F08D259F8041BB142F7D0002000E0D4
S31520006C200120BDE8F283E41B002CF9D0012C8CBF97
S31520006C3001272746E0E70000BCB5202001004000E0
S31520006C4000002C4024EB0080C08020207DB6202030
S31520006C5070B62020416882688A4209D2891A8266E3
S31520006C6041600FF2D5210160012282600020704729
S31520006C7042F2787070470FF20901016000207047D8
S31520006C8010B5416ADFF84C444A898282CB689B1E44
S31520006C9043604A68A24202D1097A022902DB42F203
S31520006CA0757010BD0FF209020260002010BD0000B1
S31520006CB0416A43684A6882610A68D21E9A428260A3
S31520006CC002D342F2767070470989002908BFFFF780
S31520006CD0C1BF42F277707047F8B50446DFF8F86313
S31520006CE0B4F85A30376804F15C05626A6968D7F8E7
S31520006CF008C01806000F1B0A43EA00232868E0474D
S31520006D00A0B930680169884780B9616A102204F108
S31520006D101C0004F04BFE00F044F80098A968884255
S31520006D2000D043E00FF2112020600020F2BDF8B51C
S31520006D3004461022616A04F11C00DFF89C6304F10A
S31520006D405C0504F033FEB4F85A303768626A1021C5
S31520006D501806000F1B0AD7F808C043EA0023286844
S31520006D60E047E8B92868103028606868103810288D
S31520006D70686088BFDFF8640310D810B1DFF86003BD
S31520006D800CE030680169884750B900F00AF800988D
S31520006D90A968884200D009E00FF29D1020600020EB
S31520006DA0F2BD694604F11C0004F016BE42F27A7068
S31520006DB0F2BD10B5044604F11C0004F0F1FD216E6D
S31520006DC011292CBFDFF81403DFF8140320600020FC
S31520006DD010BD38B5C04B426E1C68016EC06DE568AB
S31520006DE0A84732BDB0F85A2013061B0F110AD20746
S31520006DF041EA03214CBF08230423042901D004209F
S31520006E00704700F16002C16DB64800F045BD70B50F
S31520006E10044642F27F76E56D284600F0F3FB80B10A
S31520006E20606E04F11801A8470646012E03D12046BC
S31520006E30BDE870400EE7022E03D100F0C3F8002013
S31520006E4070BD304670BD10B5436800F15C025168D4
S31520006E5081608B4202D242F2767010BD147AE3072B
S31520006E6007D512688469A24203D111B1C1600020FE
S31520006E7010BD90F85A10CA0702D542F27C7010BD98
S31520006E80BDE81040E6E638B5B0F85A108A071FD498
S31520006E900B061B0F0A0AC9071CD542EA0322083A29
S31520006EA00ED0521E04D0F73A0ED0521E04D00FE058
S31520006EB0BDE83140FCF769BFBDE83140FDF76FBB47
S31520006EC0BDE83140FEF707B8BDE83140FEF75BBBB1
S31520006ED0042032BD42EA03227F4B1C685C304168A5
S31520006EE00068A569A84732BD1CB50446B4F85A0007
S31520006EF00106090F000A40EA0120092803D1E06DA6
S31520006F00FCF7D9FC16BD082803D1E06DFDF762FE1B
S31520006F1016BD01290ED1694600F00AFA58B9E06D6E
S31520006F20009C6D4A142193684C4319190A69136908
S31520006F30984716BD042016BDF8B5044604F1580638
S31520006F40616A304610225A2500F000FB0120375C8A
S31520006F50401CED191028FAD3307805F0FF05A84219
S31520006F6002D042F27970F2BD717842F212700A298B
S31520006F7025D8DFE801F01A060A0E26121A16261C54
S31520006F8020002046BDE8F2405DE72046BDE8F240FD
S31520006F900FE72046BDE8F2401BE72046BDE8F24059
S31520006FA035E72046BDE8F2406DE70020F2BD2046D9
S31520006FB0BDE8F24098E72046BDE8F24012E742F2EB
S31520006FC07B70F2BD10B5484C70212046FCF7E4FBDF
S31520006FD0464A0020226010BDF8B506460C46002021
S31520006FE00027434DA74218D02969E01BC1F11001A3
S31520006FF009E080B12B69F25D7F1C491E401EEA54D0
S315200070002A69521C2A610029F3D10020286100F048
S3152000701005F810B9E6E742F27D70F2BD80B5324838
S31520007020334A4262C26800212AB1036993420AD0D8
S315200070305B1C036101E0826E1AB90168884701462C
S3152000704001E0521E8266084602BDF8B5224C206831
S315200070500169884700283CD1234F97F85900042816
S3152000706023D107F15C052E68304600F0CBFAC8B173
S315200070700020FCF765FB97F85A00810710D5686851
S315200070806861616860B10A68904222BF4968491CFC
S31520007090814201D20420F2BD80F3088880F309885A
S315200070A0A868B04742F27E70F2BD08280FD10220B0
S315200070B0FCF746FBBFF34F8F0E490F480A6802F4D0
S315200070C0E06202430A60BFF34F8F00BFFDE742F242
S315200070D07B70F2BD53544D50108020202F6D002020
S315200070E0D96C002000401F4034B52020776C00204A
S315200070F0A8B520200CED00E00400FA057CB50C00B4
S31520007100164605461A4601D1002076BD100A10F013
S315200071100F0002D001280AD019E06A46284600F05E
S31520007120BAF8B0B900F0A1F86568A84776BD6B46F5
S31520007130284600F0D3F860B90098A24A0369284689
S31520007140996951605B6832462146984776BD42F27E
S31520007150D87076BDF8B50C00174606461A4601D1FA
S315200071600020F2BD100A10F00F00964D02D0012823
S3152000717016D02CE0304600F0F0F840BB6A46214697
S31520007180304600F088F820BB009B214630463A4620
S31520007190DC68A668B047B8B90099CA68136911E0D7
S315200071A06B46304600F09AF898B900983A4603693B
S315200071B03046996969609B682146984720B90099AD
S315200071C00A6953692B60F2BD00212960F2BD42F2A3
S315200071D0D870F2BD7CB5130A13F00F0305460C4692
S315200071E042F2D87602D0012B14D024E06A4600F071
S315200071F052F8E8B90099CA68506998B121462846DC
S3152000720000F0ABF8B8B9009A21462846D3685C69E5
S31520007210A04776BD6B4600F061F848B90098016931
S31520007220CA680AB9662076BD21462846904776BDAB
S3152000723014B9002076BD304676BD7CB50C000546D7
S31520007240164601D1002076BD00F087F810B142F233
S31520007250D87076BD6A462146284600F01CF818B933
S3152000726000F003F8E568A84776BD009B214628462E
S315200072703246DC68704710B5524C206810B1804702
S315200072800021216010BD10B54E4C606810B18047BA
S315200072900021616010BDF0B516000D4642F2D87788
S315200072A01AD049494A68326015B915E0103333605F
S315200072B033688BB11A68002A04BF5C68002C01D1A0
S315200072C0D96849B1904224BF59688142EED3281823
S315200072D0401E814228BF00273846F0BDF0B506463D
S315200072E0174642F2D87C0BB3374882681A6019B920
S315200072F01CE005F114041C601D68BDB12A68002A33
S3152000730004BF6C68002C07D1A868002804BFEC686D
S31520007310002C01D1286948B19742EAD1AA68E868C9
S315200073208E194243B24228BF4FF0000C6046F0BD92
S3152000733070B505460420002671B1234A946801E001
S31520007340761C143444B1236833B12269002A03D051
S315200073509D42F5D10E60002070BDF0B509181A4B7C
S31520007360491E00225F68DC68256905EBC20606F126
S315200073707C041601BD5966682468AC4208BFAE423B
S3152000738003D0864228BFA14204D2521C012AEAD940
S315200073900020F0BD0120F0BD70B50B4D6E6803E0F6
S315200073A0006800B180471036F0680028F8D1AD6833
S315200073B003E0096801B18847143529690029F8D105
S315200073C062BD000094AC20201080202002460120BF
S315200073D000E0491E21B112F8013BFF2BF9D0002015
S315200073E07047F0B40246106895681318506803EB8E
S315200073F05004C0071DD54D441BE013F8017B05F84A
S31520007400017B491EF9D1A0B1B60813F8011B06F07D
S315200074100306032E08BF13F8016B01EB0621494230
S31520007420801C294405D011F8016B05F8016B401E1C
S31520007430F9D1A3420ED013F8016B16F0030104BF55
S3152000744013F8011BC91C30090F28DAD113F8010BD8
S315200074500F30D6E7F0BC02F10C007047F0B50646B7
S3152000746004240D46002EA3B018BF002D56D0382177
S31520007470284606F0C9F938224323AA708120EB70EA
S315200074806621287000205522E871102329716A711F
S315200074900EA8AB7109F025FB04003FD10020214F37
S315200074A08DF83B000EA9384609F0D0FC040035D1F2
S315200074B0102205F10801384609F0F8FC04002DD108
S315200074C00D210AA8FCF768F906A809F041FD05F187
S315200074D00801802206A809F04FFD102005F1280199
S315200074E005F118020023059006A8049110210392A5
S315200074F00AAA019300930D2302960AF020F80A495E
S31520007500802206A809F038FD102005F10803009016
S3152000751005F10802012106A809F076FE204623B0CF
S31520007520F0BD00BF00C00C40AB89DCFE62B38B0708
S3152000753008D0521E11F8013B00F8013B00F02480D0
S315200075408B07F6D1830740F0208000BF103A07D37F
S3152000755030B4B1E83810103AA0E83810F9D230BC6F
S31520007560530724BFB1E80810A0E8081044BF51F81B
S31520007570043B40F8043BD20724BF31F8022B20F805
S31520007580022B44BF0B7803707047121F17D35B0082
S3152000759009D151F8043B20F8023B1B0C121F20F89E
S315200075A0023BF6D20BE051F8043B00F8013B1B0AE4
S315200075B020F8023B1B0C121F00F8013BF3D238BF08
S315200075C0121D521E24BF11F8013B00F8013BF8D8CA
S315200075D07047000038B504460D460020FCF7B0F889
S315200075E0764800210560764A44601160036883F37B
S315200075F0088883F30988406880470020BDE8324028
S31520007600FCF79EB800281CB51EBF10F1010F6D496E
S31520007610884201D1002016BD6A4602210024FFF7C8
S315200076203AFE20B90098017ACA0748BF01242046AD
S3152000763016BD10B50246644900204B6800E01033A1
S31520007640D96861B11C7A04F01104112CF7D119689C
S315200076509142F4D25C68641C9442F0D3012010BDA0
S315200076602DE9FC4D584EDFF86481F06844460169E7
S3152000767001F18C0709E03A7C024205D06569E2688F
S31520007680A969204653689847183420680028F2D103
S315200076904FF47A700024FBF7FAF80025A246CDE9CC
S315200076A00001AB4600F034FC78BBFFF7ABFF60B3BC
S315200076B0F068016991F8AA20D00703D400210020A0
S315200076C0FFF788FF788A4FF6FF71DDE900238842AD
S315200076D008BF41F28830A2FB00AB03FB00BBFBF7DF
S315200076E0CCF804460D460020834508BF82450CD0C1
S315200076F0FBF7C3F8001BA941594506D301D85045CD
S3152000770003D300210020FFF765FF464600E0183628
S3152000771031680029E7D03A7C0A42F8D0F168304631
S315200077200B6898470028F2D0002EDCD00BE0397C7D
S31520007730014218BF464504D0D8F80C304046996817
S31520007740884708F11808D8F800000028EFD13046FD
S31520007750BDE8F68D38B500F053F800F012FC1A4C4F
S31520007760E068016888470020FBF784F9FBF758F8A2
S31520007770206801688847E26850688047FFF770FFF5
S315200077802062016900291EBF096800298847226AEC
S31520007790506900281FBF01680029104688472069C4
S315200077A001688847256A206941688847EA68D16860
S315200077B00029F8D028468847F5E70000E89E2020D3
S315200077C008ED00E0F94C012010802020EC25002057
S315200077D0704700000A0018BF01220260704772B687
S315200077E00268521C026062B601680029FCD10120A1
S315200077F0704772B60168491EFFE7016062B670479E
S3152000780072B600200B49086062B6704772B6094806
S315200078100168491C0160704706480168022903D2A5
S315200078200022026062B6704703685B1E03607047E1
S315200078300000000070AB20202DE9F041FBF7E4F9B1
S3152000784080467B4C1127204600212246E7FB080173
S315200078500023784F002509F0AFFE401E46007860D1
S3152000786042F2107274480021E2FB080122460023EE
S3152000787009F0A2FE25223018E2FB0845401CB8601C
S315200078806B4A00232046294609F096FE3618761CB8
S31520007890FE600020BDE8F0812DE9F04104460E4649
S315200078A015460BB9002053E0042B02D1B009800104
S315200078B001D004204CE05F4F387830B92046FFF7DE
S315200078C0BBFF002844D1012038706421204600F0F7
S315200078D077F800283CD14FF4007806F03F06C4F82C
S315200078E008802069000C0004206121697868BA6844
S315200078F0000300F47040C2F30B02104301434F48CB
S3152000790021614F49A160064366602A68226264218C
S31520007910204600F055F8D8B92068810548BF44F6BE
S31520007920E96015D46421204644F6EA6500F048F85B
S3152000793068B9C4F80880204600F067F84FF48060E4
S3152000794064216060204600F03BF800B900252846F7
S31520007950BDE8F081F8B505460E46144673B3042BF0
S3152000796002D1B009800101D00420F2BD314F387810
S3152000797028B92846FFF760FF08BB0120387064212C
S31520007980284600F01DF8D0B94FF4007006F03F06E7
S31520007990A860284600F039F83F210120A96064211B
S315200079A06E602863284600F00BF840B928688105E8
S315200079B002D544F6E860F2BD286C20600020F2BDB6
S315200079C02DE9F04782460F464FF47A700026FAF7E3
S315200079D05EFFA0FB078901FB0799FAF74EFF0446D5
S315200079E00D46DAF80010C8050CD5002FF9D0FAF7A5
S315200079F044FF001BA9414945F3D301D84045F0D3A4
S31520007A0044F6EB663046BDE8F08701696FF3153121
S31520007A100161084902694B68C9681B0303F4704376
S31520007A20090401F47C110B431A43026170470000DC
S31520007A3000CA9A3B60AB20200065CD1D0000773E32
S31520007A403F00FFFF0A484FF0FF310160416081602F
S31520007A50C160016141618161C16106480160416087
S31520007A608160C160016141618161C161704700002F
S31520007A7080E100E080E200E02DE9F84F894609F137
S31520007A805005D5F810A041F2F104D5F81CB069696B
S31520007A90BAF1000F08BFA246BBF1000F08BFDFF8FE
S31520007AA0BCB5002914BF8846A046A96901B10C4679
S31520007AB0002840F09D80D9F840002968C2052ED5BF
S31520007AC000292BD0DFF8980500218161DFF8941575
S31520007AD0C1F818A010224261DFF88C25C1F8148065
S31520007AE0012353620025056101260C61002356609F
S31520007AF00125C3600026CC60956086608C60D560C9
S31520007B0046604C60156199F80C30032B18BF012B89
S31520007B1004D110230360C1F800B01560BBE068688B
S31520007B200029DFF84865DFF8487508BF002836D0F9
S31520007B3018B106213960C6F800A0286818B10122BC
S31520007B403A63C6F830A01120012178630120C6F8D7
S31520007B503480B963B463F863F46339643464786455
S31520007B60746499F84510082907D1786274623862DE
S31520007B703462F861F461B861B46199F80C000328A5
S31520007B8018BF012803D11120F862C6F82CB0484648
S31520007B9002F04BFA18B10120B862C6F82880A9680D
S31520007BA0E868002908BF002875D018B10621796039
S31520007BB0C6F804A0A86818B10421B962C6F810A0B6
S31520007BC011200121B862C6F8288079627462396270
S31520007BD03462F961F461B961B46199F80C00032843
S31520007BE018BF012857D114207861C6F814B052E086
S31520007BF0022850D12868DFF87C64DFF87C7418B33B
S31520007C0000211020F1640121C7F824A00022F06190
S31520007C100220C6F8748039677260F465386532646C
S31520007C20BC617A65F2637C61BA657262F467F86555
S31520007C3099F80C00032818BF012805D1102002222C
S31520007C403062C6F878B0FA64A96829B92868A0B164
S31520007C5099F84510082910D100200122B062002190
S31520007C603C6001203A660022B16134677866B260D2
S31520007C703466B866F2607466F866484602F0D5F94E
S31520007C80002804BFA868002805D0102100223160F2
S31520007C90C6F858807A67BDE8F18F0000F0B5DFF8A6
S31520007CA0DC3300211960DFF8D84341F2F10500F1F9
S31520007CB0080C2560DFF8CC635960DFF8CC7365606B
S31520007CC09960A560D960E560196125615961656192
S31520007CD09961A561D961E5619CF8001029B1012956
S31520007CE004BF9CF81910102910D100219967A567A7
S31520007CF0D967E5673960356079607560B960B560C8
S31520007D00F960F560396135617961756100218E46CA
S31520007D10D9642830E564C3F850E025659965A565E2
S31520007D209CF80010B9B959656565C3F824E0656209
S31520007D309962A562C3F82CE0E56219632563C3F84E
S31520007D4034E065639963A563C3F83CE0E563196491
S31520007D50256402780AE0012908D1C7F820E04FF20D
S31520007D60F1023262C3F848E0A564027AD2B2521E0A
S31520007D70032ADFF81803DFF8181313D8DFE802F018
S31520007D8002060A0E06220A600560F0BD06234B6035
S31520007D904560F0BD06228A608560F0BDC3F844E0E8
S31520007DA06564F0BDC7F824E07562F0BD401E032867
S31520007DB0B84914D8DFE800F002060A0F086840F038
S31520007DC0030006E00A6842F00C0207E0086840F06B
S31520007DD03000086070470A6842F0C0020A607047A7
S31520007DE0401E0328AC4918D8DFE800F0020B0D101E
S31520007DF04FF40050002A0A6814BF22EA00001043FC
S31520007E0007E04020F6E70820A449F3E70120A4492B
S31520007E10F0E708600020FAF743BD7047A148A24B5F
S31520007E200268B3FBF1F1491E890622F0E05201F007
S31520007E30E0510A430260704770B500789B498B4C2D
S31520007E408B4D954B45F20902401E03285DD8DFE88D
S31520007E5000F002162C44042601202E602260EE60DB
S31520007E60E2600860AE600526A2606E6062605868B7
S31520007E7040F400505860196841F4005113E0042082
S31520007E800426686300206263EE63E2630861AE63E2
S31520007E900526A2632E632263586840F0400058608E
S31520007EA0196841F04001196070BD814807230360BD
S31520007EB0804B1A600724846000259A600D62446016
S31520007EC005245A60C4607548DA60416841F00801AB
S31520007ED04160026842F0080216E06D480323C36041
S31520007EE06A4BDA600324446000255A600D6384607F
S31520007EF005249A6004606A481A60416841F00101CD
S31520007F004160026842F00102026070BD6A48704713
S31520007F1000207047FF2069490A680968920902F023
S31520007F200302032A13D8DFE802F0020F0F11090912
S31520007F3011F0030102D0012902D003E0012070478D
S31520007F401020704720207047082070470220704775
S31520007F5001460420002900D1704710B5087B03286C
S31520007F600CD101F1780291F840104B0602D50F246E
S31520007F70147003E0507808B91E211170002010BD3E
S31520007F80704780B5FAF7B2FF4FF4C060FAF7B9FF31
S31520007F904B48002101604160816001BD4FF4C06003
S31520007FA0FAF7B5BF474908600020704745490A6877
S31520007FB002600020704744480168006A10F0020001
S31520007FC018BF0120704771B1C90001F0380141F492
S31520007FD0983241F4805142F0C10241F0C101C2669B
S31520007FE0416681660266704737480168C1F30050D2
S31520007FF000B10220704734480168C1F3005010B127
S315200080004FF0E04070474FF0C040704730B52F49E1
S315200080100C200A6831A3C2F3034141435A18506821
S3152000802011689268920202F500228002890200B944
S31520008030012001B90121401E254B58606FF0604098
S3152000804041180024596123491C604FF00055224CE9
S315200080508A181D611C625A6230BD0000F130010091
S3152000806020811F4010831F40A4841F40AC831F40E3
S31520008070BC811F4060861F40E0861F4014801F4041
S3152000808004821F4084821F4094801F402C831F40FF
S315200080903C811F406CC00F4000001C4000801B40EC
S315200080A000C01B4018C00F40E0C8B60EF4841F4025
S315200080B0BC801F40AC821F40002D310104800F4040
S315200080C078C00A4028800F4040441F40D0461F40B9
S315200080D050802020FFFF1F2000002020800000006D
S315200080E08000000000010000800000004000000029
S315200080F04001000080000000000100008000000018
S315200081008000000020000000600100004000000008
S315200081108000000040010000400000000001000037
S31520008120C000000000000000BA010000400000006E
S315200081300001000080000000800000000001000017
S3152000814040000000C0000000C00000000001000048
S3152000815040000000C00100000000000040000000B8
S3152000816000000000800000008001000020000000C8
S3152000817020000000C00100000000000000010000F7
S3152000818000010000000000000000000000020000C6
S3152000819062F30F2262F31F4200B500BF130096461A
S315200081A09446103928BFA0E80C50FAD85FEA417CE3
S315200081B028BF0CC048BF40F8042BC90728BF20F8A9
S315200081C0022B48BF00F8012B00BD000070B5044605
S315200081D0042584B32168080F0B282CD1C1F3036032
S315200081E0012828D038BBC1F303161EB1022E05D0B4
S315200081F002D306E0802606E0C02604E04FF480760F
S3152000820001E0802E17D36068F608FFF7FBF990B1DE
S3152000821060683018FFF7F6F968B1164D10206860CF
S315200082206168324605F10C00FFF780F94FF40070C3
S315200082302E60A8600025284670BD70B5054604202E
S315200082400C46002D18BF002C12D00A4E4FF4007198
S3152000825006F12C00FBF7A0FA06F12C0106F10C0022
S31520008260FFF7FCF820B906F12C012960B2682260DC
S3152000827070BD0000BC9C202070B505460E4602F05D
S315200082802EF904000BD1012306F180020021284695
S3152000829002F0E8F9707C012804BF002131742046E1
S315200082A070BDF0B50F260F24054689B0029601EB66
S315200082B0041600208DF810208DF800000127019368
S315200082C00123039706F180020121284602F0CAF90C
S315200082D00297694600F02AF909B0F0BDF0B589B0D9
S315200082E004460D4616461F4600F01BF8B8B98DF811
S315200082F000000E2005EB00110E22029201230393AB
S31520008300204601F180028DF810600197012102F0CC
S31520008310A9F9012069460290204602F0E3F909B046
S31520008320F0BD2DE9F843804684B00C4616461F461C
S31520008330042024B304F5E675687818B14046FFF7A3
S31520008340B0FFE0B9287804F1B00902280AD16946BD
S3152000835099E80D1081E80D1004F1C00090E80E1088
S3152000836089E80E103B4601F097FC01F0D7FF2978EB
S31520008370022904D16A4692E83A0089E83A0005B013
S31520008380BDE8F083F8B50C4684B00421ECB194F82E
S31520008390CC1104F1900502290AD16E4695E8825047
S315200083A086E8825004F1A00191E8C05085E8C050CB
S315200083B0214602F090FA014694F8CC01022804D115
S315200083C06A4692E8590085E85900084605B0F0BD8E
S315200083D02DE9FE435FEA0108814615464AD0012D64
S315200083E048D808F5E4763078002843D008F14007CD
S315200083F048463C6802F05AFA3178A40904F0010490
S3152000840065B939B122464846FAF700FC4146484646
S3152000841001F012FEB07988B101210CE041B1B979A1
S3152000842022464846FAF7F2FB4146484601F004FE4A
S31520008430B07918B10021484602F0E7FA6A460221CF
S315200084404846FAF755FC14B100984008009001AA56
S3152000845000214846FAF74CFC0199009A0A20B1FB04
S31520008460F2F1491C4143890800E000BF0846411E3D
S315200084700028FAD1BDE8F7832DE9F0430546894661
S3152000848089B017461E46484601F0C8FD80460022A0
S31520008490494600F047F900F041F8FFF742FF040093
S315200084A031D1022109238DF8001001220293039273
S315200084B099F8471009F5C87200291CBF10780028C2
S315200084C003D0517802911378039301978DF8108089
S315200084D00596116B0691029809EB0011039B00F09B
S315200084E0C9F800F020F804000DD100F017F8FFF7C6
S315200084F049FF040007D199F8CF0120B100F00EF80A
S31520008500FFF7ECFE0446284602F0D9F90122494637
S3152000851000F008F9204609B0BDE8F0833B46424604
S31520008520494628467047012069460290284602F0AF
S31520008530D9B82DE9F04F89B0002601220B238946B0
S315200085408DF800600392804602938DF8106099F8AA
S31520008550471000291EBF09F5CA710878002800F0C7
S315200085607FF8029FDDF80CA000224946404609F11B
S31520008570500BFFF72DFF002004245BF8045B95B118
S315200085803346002249464046FFF7CBFE70B909EB39
S31520008590071001965346012100F1800200F098FA57
S315200085A000F08FFA10B9AE19641EE6D104004646D3
S315200085B01ED1002709F1500A04255AF8048BB8F178
S315200085C0000F12D03B46002249463046FFF7DAFE1E
S315200085D004000DD199F8CF0138B13B460022494617
S315200085E03046FFF77BFE040002D16D1E4744E4D1DE
S315200085F0304602F064F9012249463046FFF7E8FE8C
S31520008600204609B0BDE8F08F2DE9F84105460E4613
S3152000861089B01746304601F001FD00F080F800F0E1
S315200086206EF804001BD100220123052400F06CF80B
S315200086301EBF06F5C6710878002800F011F800F074
S3152000864015F8FFF770FF040009D100F053F8040075
S3152000865005D196F8CF0110B100F047F804463AE06C
S3152000866003D04A7802920978039170470298039BB7
S3152000867006EB0011284601F18002012101F0F2BF2C
S315200086802DE9F84105460E4689B01746304601F0D9
S31520008690C5FC00F044F800F032F804001BD100229B
S315200086A00123082400F030F81EBF06F5CE710878A5
S315200086B00028FFF7D5FFFFF7D9FFFFF734FF0400A7
S315200086C009D100F017F8040005D196F8CF0110B1B2
S315200086D000F00BF80446284602F0F1F8012200F0DB
S315200086E020F820460AB0BDE8F0813B464246314696
S315200086F02846F3E53B4642463146284642E63B4677
S315200087004246314628460CE601978DF80020039311
S3152000871002948DF8108096F84710002970478046FD
S3152000872000223146284653E6F0B5054689B00E4666
S3152000873014461F46042084B124216846FBF72CF8F2
S31520008740032201238DF800206946029328460393CD
S3152000875007940897019601F0C5FF09B0F0BD000007
S31520008760F8B50D461E468EB00746002101A8002307
S3152000877000248C4680E81A101168042902D8506813
S31520008780402817D301212974106C000D00F0070032
S31520008790401E05280CD8DFE800F00307090303056F
S315200087A002240CE004240AE0012408E0032406E065
S315200087B02B747BE03168C1F30324002C76D0009320
S315200087C00322069301218DF82430631E032B8DF896
S315200087D01420CDF830D00D91079108910ED8DFE8FE
S315200087E003F006020A02DFF8A02B019206E0DFF86A
S315200087F09C1B019102E0DFF8980B0190012301AA4E
S315200088000121384601F02EFF05A9384601F06AFFFE
S3152000881000284CD13068C0F3036000281FBF706861
S31520008820C0F3072000280090641E0021032C297421
S315200088303CD8DFE804F00210271C009A510635D4F4
S31520008840DFF8500BC5F8C000009A02F0C30242F0D0
S315200088504002009221E00099880727D4DFF8382BC0
S31520008860C5F8C0200099090241F4007114E000996E
S3152000887088071BD4DFF8242BC5F8C020009941F0C7
S31520008880020109E00099080610D4DFF8142BC5F878
S31520008890C020009941F0800100910120012104228D
S315200088A0287429756A750098A861697400200FB02C
S315200088B0F0BD0022F8B50C460023002605468EB0F2
S315200088C00AA90292002081E84D00032200908DF82B
S315200088D0143001218DF804200126DFF8C87ACDF85E
S315200088E020D00991012303910AAA049628460A97C3
S315200088F001F0B8FE01A9FFF719FEB8B900990422C4
S3152000890001F0F7010091267400992675090401F4F7
S315200089107F0141F0042141F08101C4F860110E214C
S315200089206175009BA361627484F8CF610FB0F0BDBE
S315200089302DE9F847914600220C4691B08DF810207B
S315200089404FF400710292012280460191039254B3A2
S31520008950032109AA8DF800101026079204F180073A
S31520008960089601233A46012101F07CFE012669463C
S315200089700296404601F0B6FEA8B9099847A610F11E
S31520008980010F02BF09A8416811F1010F07D18268C2
S3152000899012F1010F04BFC06810F1010F09D000F0D9
S315200089A08BF8002836D044F68E6A504612B0BDE8C1
S315200089B0F0870023002221464046FFF7B2FC00281C
S315200089C0F1D109201023029002220693039B8DF8F1
S315200089D00020029807EB0012059600F078F800F0C8
S315200089E070F80028DFD1002300222146404601F0FE
S315200089F072FF0028D7D100F059F869468DF800207B
S31520008A004046079301F06EFE0028CCD100F054F8C2
S31520008A100028C8D104F1400701223868B979022517
S31520008A20322440F0400038604046FAF7EFF800E084
S31520008A306D1C641EB7D000210DA8002200238C4691
S31520008A4080E80E103969DFF8442C4046914205F043
S31520008A50FF0227BFDFF850390D93DFF850190D912B
S31520008A60DFF82C3C00211A4301230E920DAA01F0B7
S31520008A70F9FD002000F01AF88DF8002069460793CA
S31520008A80404601F02FFE5FEA000A8CD100F014F870
S31520008A900028CDD1C9F8005087E700000011223305
S31520008AA0445566778899AABBCCDDEEFF102102904B
S31520008AB0032209AB08917047102209A9304602F01B
S31520008AC0C3BA012140460291694601F00BBE01213D
S31520008AD0404601F0C7BD2DE9F04305460C46E06847
S31520008AE016464FF0010905F15002002847BFC01E67
S31520008AF009FA00FC401C4FEAD00C0421106800281B
S31520008B0004D1121D491EF9D104206EE0FCD0C2F812
S31520008B1000C061684FF48070402908D3216BC1F3EF
S31520008B20031109FA01F1B1F5004F18BF084605F502
S31520008B30E07C6FF07F4ECCF800004FF00008002557
S31520008B400021002704EB470090F8240058B109FAC9
S31520008B5000F070453CBF8646394680453EBFB0F59D
S31520008B60801F80463D467F1C042FEBD3C645CCF89C
S31520008B7004E0CCF810800CBF012000208CF80900FE
S31520008B801268DFF8080B824225D394F8580038B1D2
S31520008B9004F160026034515C3160605D186023E04E
S31520008BA004F1250010F81110202904D0D82904BF7B
S31520008BB0DC22326001E02120306004F1250111F829
S31520008BC01500202802D0D82803D00DE021221A60D3
S31520008BD00AE0DC2107E004F12500253410F81120F5
S31520008BE0326014F8151019600020BDE8F0832DE9D5
S31520008BF0FC4F85B015461A68814600244FF00408BC
S31520008C00C2F30350012802BFA868C0F3C044002C59
S31520008C1000F083810E4600213173069A18208B4678
S31520008C208A4606F15007137804AA03F00F0386F844
S31520008C30463003AB0091294601903046FFF74BFFA3
S31520008C403868DFF8483A984224BF202001900698D9
S31520008C500168C1F30330002809D1069BCDF808909E
S31520008C602A4631464846FFF77BFD5FEA000840F07A
S31520008C705481A968C1F3405038B128694FF0020ADF
S31520008C80C0F3421B00F01F0008E0C1F3805030B152
S31520008C902869410D01F0070BC0F304400090019BA9
S31520008CA006F1D00142F20402202B1AD195F8580081
S31520008CB098B105F15803D3F8049042F20423C9F37E
S31520008CC0002010B1DFF8D00B04E0C9F3C01020B1AA
S31520008CD0DFF8C80B08644B6407E0DFF8C43B0B647D
S31520008CE002E0DFF8C00B08644A64012240F2064025
S31520008CF03273DFF8B43B38663B640498DDF80490A1
S31520008D0000F0FF0040EA094040F0006040F4806037
S31520008D100860039A4FF48C60086602F0FF0242EA6C
S31520008D20094242F0006242F480620A6306990868AA
S31520008D30C0F3036058B14868020608D000F0FF006F
S31520008D404FF0000B0090ECB1400000901AE0CCB13F
S31520008D500198202805D1DFF8541BDFF8542B3963FE
S31520008D607A6302983146FFF787FA5FEA00085ED1F8
S31520008D7002986A463146FFF7DBFD5FEA000856D1C6
S31520008D804FF0000B0198182819D14CB1ED20316C09
S31520008D9040EA094041F04001316440F00A403AE09F
S31520008DA0A968C1F3405010B12869000A2CE0C1F32C
S31520008DB0805010B12869000E26E0032021E00CB176
S31520008DC0EE20E4E705F15801087870B14968C1F34F
S31520008DD0401018B1EC204FF0020A15E0C1F3001044
S31520008DE070B16C204FF0000A0EE0A968C1F3405024
S31520008DF008B1EC2008E0C1F3805008B16C2003E0F4
S31520008E00132000218B460091C0B240EA094040EA77
S31520008E100A6040F0006040F48060002138630698C4
S31520008E2006F2CD190268C2F3031040B1012874D1AD
S31520008E306868402803D32A6CC2F3402018B90098EA
S31520008E405844009033E0120C12F0050F18BFA521EC
S31520008E500BD1900709D5069B02982A463146FFF783
S31520008E6028FD5FEA000858D10121286C06F5B87262
S31520008E70800A10F00A0F0AD06FF0F92010605060B7
S31520008E80019820280DD140F2FF63936009E010F08D
S31520008E90110F42D04FF0062010605060DFF8140A00
S31520008EA090600122BBF1000F89F8002012D10098B2
S31520008EB060B100F0FF0224B1DFF8D40702437A63E1
S31520008EC01EE0DFF8F4190A437A6320E042F20440F8
S31520008ED0786314E0BBF1010F06BF062009090720BD
S31520008EE041EA80210098000400F47F00014341F00C
S31520008EF0485141F400717963DFF8781DB96334B1C4
S31520008F00012089F80100316C41F040013164306C58
S31520008F104FF0000840F010003064404607B0BDE82E
S31520008F20F08F2DE9F84F0D0096B0144608BF4FF08C
S31520008F30040869D0834608236A460021FFF7F4FB1C
S31520008F405FEA000860D10098DFF82C1D884218BF20
S31520008F5044F68B6858D19DF8040028609DF8067069
S31520008F607F1C0A2F88BF0A2708210CB14FF4006105
S31520008F70FB0002AA5846FFF7D7FB5FEA000843D159
S31520008F8064212846FAF708FC4FF0000A4FF6847948
S31520008F9004E0012085F858000AF1010ABA4533D2C7
S31520008FA002A901EBCA000278C37902EB0322B2F5CB
S31520008FB07F4F18BF4A45EFD100210223C6185B1EFA
S31520008FC0367946EA0121F9D5C678B60004B10902F8
S31520008FD0B2F57F4F0DD1502E05F10802584688BFB5
S31520008FE050263346FFF7A0FB5FEA00080CD16E60DF
S31520008FF0D2E74A45D0D1334605F15C025846FFF701
S3152000900093FB5FEA0008C4D0404617B0BDE8F08F56
S315200090102DE9F04399B080461746042438688946DE
S31520009020C0F3034000284BD189F8454009F150058B
S31520009030DFF8082BDFF878382A6340466B63FFF7A2
S315200090401BF904003CD1386809F5B876C0F3031043
S3152000905001280ED16FF0F9200023306000227060C5
S3152000906040F2FF60B06049464046FFF71AF9040017
S3152000907026D1396814A00123C1F3034100EB011264
S31520009080FFF725FD002269464046FFF74AFF040008
S3152000909016D13B466A4649464046FFF7A8FD0400DE
S315200090A00ED1484600F0BAFF50B12868A860316D4D
S315200090B049003165706D40007065316E490031663A
S315200090C0204619B0BDE8F0835A0418080830FF245A
S315200090D000000000000000005A0518090831FF258D
S315200090E000000000000000005A06180A0832FF2679
S315200090F0000000000000000000000000000000004A
S315200091000000000000000000F0B5490089B00325EA
S315200091100191002601278DF8005069460296039793
S315200091208DF810600792089301F0DCFA0AB0E0BDD2
S31520009130490060B589B002250191002101268DF8EC
S3152000914010108DF8005069460296039605920693F4
S3152000915001F0C8FA09B060BD2DE9F84705460C466E
S3152000916087B00320E07304F14500082158230170DD
S315200091700326236426731AB1216C41F00101216470
S31520009180012204F1500682700F200121B085F1855D
S3152000919004F5C2774FF400724FF48020FA6304F28C
S315200091A0C9183864C4F8D001284688F8001021462A
S315200091B0FFF762F8002862D100F0FAF80DF10C0AE8
S315200091C080E80E10DFF8B41ADFF8B42A03910123E1
S315200091D0CAF8042003AA0121284601F043FA00F028
S315200091E0E7F8DFF8A09A80E80E10DFF89C1ACDF891
S315200091F00C90CAF80410012303AA0021284601F086
S3152000920031FA4FF418400223029002AA40F2555137
S315200092102846FFF78DFF002831D108236A46102102
S315200092202846FFF771FF002829D10098DFF85C2A2D
S315200092300199904289B2019108BFB1F5B24F40F031
S315200092409F8008236A4627212846FFF75DFF0028CE
S3152000925015D10098C0F30720A0F117010A29009024
S3152000926080F08E800122824032604FF4704102915C
S31520009270022302AA00212846FFF75AFF00287CD1A4
S31520009280DFF80C1A4AF20475DFF808CA7163B56371
S315200092904FF08721C6F84CC0DFF81C2CB565DFF8E7
S315200092A01C3CDFF81CECDFF81C5CDFF81CCCC6F895
S315200092B054E0DFF818ECC6F83090316448F2307A82
S315200092C07264B364C6F85090DFF8049C3166726607
S315200092D0B366F26631677567C6F878C0F56704F13C
S315200092E0D006C6F84CE0DFF8ECEBC6F850E004F503
S315200092F0A874C6F85490DFF8E09BC6F830E0DFF893
S31520009300DCEB31647264B36431607260B360C6F8BA
S315200093100C9031617261B361F26131627562C6F897
S3152000932028C0F562C6F834E0C6F838A03166726601
S31520009330B366C6F86C9031677267B367F2672160CF
S315200093402161DFF89C1B626102226560C4F808C0B7
S31520009350E560A3610323E16104213A7101247B7155
S3152000936009233A703A730522397239740B217C70BD
S315200093707B737A72797488F8034008B0BDE8F08769
S3152000938044F68D60F9E70000350401240504012424
S315200093903F0401240104012001040220310401209C
S315200093A03E04022085040124EE04208AED04188A56
S315200093B0002103A8002200238C4670472DE9F04F98
S315200093C08DB09046D8F80020C2F30353052B0CBF6E
S315200093D001260026C2F30335002DC2F3034418BF2D
S315200093E0032D07D18A460AF1300783462CB1032C78
S315200093F000D1D5B94FF0040944E16846FEF7D6FD01
S3152000940000F048F9B9F1000F07D16A46514658468F
S3152000941000F0B0FC5FEA0009EED1002010218AF8A6
S315200094200C00032239610C920EE0032010218AF8E9
S315200094300C003961D8F80000C0F30350042804BF9B
S315200094405021396106200C9054EA0500514608BF88
S315200094500126032D0CBF0820012078755846FEF7FB
S315200094600BFF5FEA0009C7D10CB9002003E0002EEC
S3152000947014BF102020200FF6043101230A180121E1
S31520009480584601F0EFF800200323059002AA8DF834
S31520009490200001208DF8103004A906900790584628
S315200094A00B9201F01FF95FEA000904BF9DF808003E
S315200094B0C228A1D102A9002C4FF480300AF5E07B06
S315200094C086F0010607BF897830394A79A2F1300142
S315200094D000FA01F14FF4807239624FF48051CBF8D3
S315200094E010000320CBF804101021002CCBF800200C
S315200094F08AF80C00396108BF032D01960AF1B006DF
S315200095004AD10120022106238AF811108AF8100078
S315200095100022AAF81200DFF8CC198AF815300723A2
S315200095208AF8140001988DF800204FF004228DF857
S315200095300330DFF8B439A8B1822402208DF8014027
S31520009540CAF8180033637263B163D8F80000C0F319
S315200095500310032819BF00208BF80A0001218BF87D
S315200095600A1016E0812402208DF80140DFF87C499C
S31520009570CAF818000120336374630724B1638AF89C
S315200095801C008AF821408AF820003860336472640F
S31520009590B1640098FEF706FD40F20640C2493060ED
S315200095A03966C5B90122DFF848098AF80C20DFF8A8
S315200095B044193865BA4A796542F204003266DFF802
S315200095C038197066DFF8342931624FF48C633265BE
S315200095D0CAF8303156E0019840B9012302210C2403
S315200095E0092008220525DFF818C907E021232221B2
S315200095F02C24292028220A25DFF808C98902C7F841
S3152000960050C041EA0545800240F4417041EA826239
S3152000961045EA84659C0644EA8324DFF8EC3841F465
S31520009620487145F0032545F020057D652343B8653F
S31520009630DFF8D858336125433D6744F003237B6721
S31520009640DFF8CC58BB67DFF8CC38F8672343DFF860
S31520009650C8083366024325437266DFF8C0083562C0
S315200096602043716230657165DFF8B4180C43CAF87F
S315200096703041019818B1396941F040013961022021
S315200096808BF80C0048460DB0BDE8F08F01000001B4
S3152000969000B204A681460020FEF784BC2DE9F84FCF
S315200096A09CB0044616460D463068C0F30352072A7E
S315200096B0C0F303400CBF01270027A0B96846FEF778
S315200096C075FCFFF7E7FFB9F1000F07D16A46294677
S315200096D0204600F04FFB5FEA000911D1002010213F
S315200096E02873296403E0032250202A732864082162
S315200096F0204685F845102946FEF7BEFD5FEA00099B
S315200097007AD130680FF6A402C0F3034008B90123CA
S3152000971003E0032870D1012310320121204600F0F6
S31520009720A1FF0820002285F8450003A92046FFF75F
S31520009730F8FB5FEA00095FD100F002FA380003D196
S31520009740502003212864297305F1500140F2064078
S31520009750554A08660A64306805F5E67805F1D004AE
S3152000976042F2010ADFF8BCB7C0F30342032A1CBF4A
S31520009770C0F30330032841D1DFF8AC07DFF8AC276C
S315200097800865DFF8AC3740F206700A634B63DFF8F2
S31520009790A4270867DFF8A01721604FF4EC63226343
S315200097A0DFF8980723664AF2043120646164306842
S315200097B0C0F30340E8B90021062282238DF8001069
S315200097C08DF803208DF801300098FEF7EBFB012081
S315200097D002212874E722697406200121AA6168758E
S315200097E04FF0042029756982C4F810B06061C4F86E
S315200097F018A0022188F8001048469CE10028FBD1D9
S315200098000868029EDFF83827B0F1807F06F0FF0651
S3152000981027BF20208E231820C22346EA004643EA8B
S31520009820004316432660019E06F0FF0646EA0046E0
S3152000983032432263DFF80C27134323644FF40E537D
S3152000984063644FB9DFF80007DFF8002708634A632F
S31520009850012188F802101AE00E68CB23C4F810B054
S31520009860B6F1807FDFF8E8666661C4F818A028BFE5
S31520009870CC230C2743EA0040AF6101272F7406262C
S315200098806E7510432F750863DFF8C80648634FF4DA
S315200098908C612166B0E700003E04200A34042008CB
S315200098A012042008020418080504042413042008BE
S315200098B004240100001E1032003204262DE9F84F40
S315200098C09CB0814610680D4644F68D684FF0000A1C
S315200098D0C0F3035009280CBF0124002404201021C2
S315200098E085F8450010682964C0F30347C0F30336A2
S315200098F0B7B96846FEF75AFB8046FFF7CCFEB8F1AB
S31520009900000F07D16A462946484600F033FA5FEA37
S3152000991000085AD1012085F80CA085F845000EE0F4
S31520009920022F02D10320287309E0032F4DD10321F2
S315200099300820297385F845000CB94FF0010A002E3E
S315200099401CBF022E032E40D156EA070008BF012471
S31520009950022E03D1042085F8450004E0032E04BF1F
S31520009960082185F84510286C002C294614BF20F0C4
S31520009970400040F0400028644846FEF77DFC5FEA40
S31520009980000822D144B1022F02D0032F02D00CE0CE
S3152000999010200BE0202009E0022F02D0032F02D056
S315200099A003E0302002E0402000E000200FF21C619E
S315200099B001230A180121484600F054FE524603A905
S315200099C04846FFF7AEFA5FEA000840F0B38000F0A1
S315200099D0B7F8032005F18001287340F20642DFF82C
S315200099E078350A630B613CB94FF0220A2C232920D3
S315200099F028274FF00C0E06E04FF0020A0C23092010
S31520009A0008274FF0060E4FEA066909F040794FEA1B
S31520009A10062C0CF4407CCDF8009049EA0C0949EA62
S31520009A208A6ADFF838B54CEA0E0E022E4EEA832EED
S31520009A304BEA0A0B4CEA8727C1F800B0009B1CBFF3
S31520009A40032E002247F0800743EA0E0305F5807EA9
S31520009A5043EA806343F480234B604AF0201343F4A7
S31520009A6080630B65DFF8F83443EA0A03CEF81470F6
S31520009A70CEF80030DFF8EC3443EA0A03CEF8103093
S31520009A804CF48C63CEF8303017D149EA8063DFF886
S31520009A90D80442EA0C021843002308620A64022210
S31520009AA0022E85F8CC21AB6103D14FF48020A8612A
S31520009AB004E0032E02D14FF40022AA6124B9A8693A
S31520009AC040F40000A86106E02A6C012042F08002E2
S31520009AD02A6485F87900DFF8942442F203030A66A3
S31520009AE00120002E4B66287414BF022000206874C3
S31520009AF00620687501212975002069828DF80000ED
S31520009B004CB1022E08BF41200CD0032E0AD1812150
S31520009B108DF8011008E0022E08BF422002D0032E45
S31520009B2008BF82208DF8010008228DF803200098B6
S31520009B30FEF738FA40461DB0BDE8F08F030418083A
S31520009B4001AB02AA03A92846FEF7C5BF2DE9F843B3
S31520009B500C4604251646002C804618BF002E00F021
S31520009B6086804FF400712046F9F716FE04F144076B
S31520009B700122BA704FF08079C7F80C90DFF8F00315
S31520009B802060DFF8F0130322012061606273A27364
S31520009B9084F8C8013168C1F3036000282ADD7068A3
S31520009BA0C0F30340012803D1216C41F48071216464
S31520009BB07068C0F3036111B12046FEF704FA72689B
S31520009BC0110F17D03068C0F30350002818BF0128A2
S31520009BD00DD1012906D0022902BF0021F960C7F85C
S31520009BE0149007E0206C40F00400206402E022F08C
S31520009BF0704272603068000D00F00F00092822D8EC
S31520009C00DFE800F005050A0C121217171C1C00F0DD
S31520009C1043F8FFF7FDF915E0012200E00022214676
S31520009C204046FFF799FA0DE000F036F8FFF7C6FB3D
S31520009C3008E000F031F8FFF731FD03E000F02CF8E2
S31520009C40FFF73CFE054685B92046FEF781F93078B8
S31520009C5000F00F00B8703168C1F3036028B1706856
S31520009C60000F032804BFF96879610120387028465F
S31520009C70BDE8F2830426017C534644502087188B86
S31520009C80108F02A3A087188B108F04A700510052B3
S31520009C90108F0CB3008770873246214640467047A6
S31520009CA02DE9F04180460C4604206CB304F5E2759C
S31520009CB09F1829687F42494201EA02066A790F40C5
S31520009CC07F420AB9E96881B9BE421DD200F01EF86A
S31520009CD0002804BF29688E19F6D015E0FFF7DCFFAF
S31520009CE0FEF7CEFC80B9E9688E19BE420CD2E9682F
S31520009CF036EA010002D1B81B8842EFD200F006F8FE
S31520009D00002808BF2968EFD0BDE8F08132462146F9
S31520009D104046FEF779BC2DE9F841804604201546D9
S31520009D20002989B01F4618BF002D21D0109CFCB1F8
S31520009D30084600F073F9032101238DF80010002155
S31520009D40039302918DF810004FF6FF76B4420197E7
S31520009D5069460795404698BF2646089600F0C2FCFD
S31520009D6030B9A41BF719B608002C05EB8605EBD1F4
S31520009D70FEF7B8BC2DE9F8430E4614460421002C04
S31520009D8092B0804604D060782178884208BF0021AE
S31520009D9000F08E8006F1450708203870607803258C
S31520009DA04FF00109422818BF412802D1042002257C
S31520009DB038706078822814BF42284FF0210900208D
S31520009DC020210A908DF834008DF8240001200B9074
S31520009DD001A8F9F7E1FCE4782A0201AB062C0ED0A3
S31520009DE031D3082C01D014D32DE040F20640104385
S31520009DF040F2FF4101900A431A61022224E040F218
S31520009E00994140F2664414430A431A61022201949E
S31520009E101AE042EA8922B9F1210F42EA056242EAB2
S31520009E20896242F4190042F4CC0240F0660042F006
S31520009E30990201901A6103D1306C40F040003064E1
S31520009E4002210C9101E001220C9201204FF0807139
S31520009E50787006F150000160454A32600324454B74
S31520009E60012273600A2374733146B47386F8C821BD
S31520009E7043624046FEF700FA010019D10C9B01AA65
S31520009E80012140464FF47A7400F0ECFB09A94046C4
S31520009E9000F028FC384A01461368B3FBF4F400941A
S31520009EA003E000BF009A521E009200980028F8D1C5
S31520009EB0084613B0BDE8F0830087AA870087058788
S31520009EC0108F0BB700875587008702870087A087EA
S31520009ED0108F80A30087188B00878087108F0087BC
S31520009EE00087108700040120720400040004020485
S31520009EF00C0420080830042421042008DC0420084F
S31520009F00EC071307EE8711870603F9030503FA0307
S31520009F102103DE031203ED0320030403DC032303E2
S31520009F2060039F0381040004050704A7FD07208B17
S31520009F3006B304A7DC07208B2107208B1207208B72
S31520009F40000400080004000BFD04208B0CB304A7BA
S31520009F50000401040C330427050404240B04200008
S31520009F60D804200002042000050404007104000423
S31520009F704643464200040156F08520209F040324D0
S31520009F800000000000000000000000009F0760079E
S31520009F90200B042700000000000000009F87608738
S31520009FA0208B04A700000000000000005A041808B7
S31520009FB00830FF2400000000000000005A07208B14
S31520009FC0FFA7000000000000000000005A04180847
S31520009FD00830FF2400000000000000005A06180A7E
S31520009FE0FF26000000000000000000005A07180BA2
S31520009FF0FF27000000000000000000005A06188A13
S3152000A000FFA6000000000000000000005A07208B79
S3152000A010FFA70000000000000000000090F84000AC
S3152000A02010F0040018BF0120704790F8400010F08F
S3152000A030010018BF012070472DE9FF4781460D46D4
S3152000A040042600F0DFF8040018BF002D7CD0287B02
S3152000A050042879DA032801AE15D195F84000810746
S3152000A06011D46A4602214846F8F742FE0098DFF8E6
S3152000A0705C1688420CD395F84020130608D4792123
S3152000A080019171603FE04FF48070019070603AE07A
S3152000A09000274FF47A7805EB47007830417829BBC2
S3152000A0A000786421484319D1286C03A9800900F05F
S3152000A0B0010A52464846F8F742FE0399BAF1000FC4
S3152000A0C0DFF80C06B0FBF1F101D1490800E0890860
S3152000A0D04B2208FB01F1B1FBF2F106E04B23B0FB6A
S3152000A0E0F3F103FB01F2824200D2491C402928BF2A
S3152000A0F03F21490201F4FC4141F4807146F82710C2
S3152000A1007F1C022FC7D32068400800F0010090F082
S3152000A110010003D0216841F0020121602A6D04F17B
S3152000A120C003002A07BF696D0029019A1A60A96D2C
S3152000A130002907BFEA6D002A7168596018B12068A6
S3152000A14020F0020020600026304604B0BDE8F087EB
S3152000A15010B504460420002C18BF002A0FD073B176
S3152000A160DFF86C05B0FBF2F04343B1FBF3F000E0FF
S3152000A170401C00FB03F28A42FAD32060002010BD67
S3152000A180F8B584B04FF6FF7607460D460196009641
S3152000A19000F038F8040014BF002D042027D003AAAD
S3152000A1A002213846DFF82C55F8F7A2FD02AA012134
S3152000A1B03846F8F79DFD039A4FF48063294601A897
S3152000A1C0FFF7C6FF029A4FF4806329466846FFF7D9
S3152000A1D0BFFF0199B14288BF0196009AB24288BF5B
S3152000A1E0009601980099C1EA00420020626005B0FD
S3152000A1F0F0BDD0F8E010CA07FBD5D0F8E0309907BB
S3152000A200FBD570470146002003293CBF0FF62000EE
S3152000A21050F8210070472DE9FE4F0E460021814659
S3152000A220009100F055F95FEA000B18BF002E4BD0C5
S3152000A23006F15008002506F5C87458F8040B0BEBF8
S3152000A240850A800ACAF86000707BB77BF17B4001E3
S3152000A25000F4787007F01F07074396F84000C902FC
S3152000A26001F4F0410F430107706F48BF47F4806740
S3152000A27068B101AA02214846F8F73AFD019A716FA2
S3152000A28001236846FFF764FF009947EA0147CAF8A9
S3152000A290707096F8470000281EBF21784A0112F0F8
S3152000A2A0E00F09D06078491E490301F4604100029D
S3152000A2B000F47060084301E04FF410606D1C042D1B
S3152000A2C0CAF88000B9D300242046BDE8FE8F0422B8
S3152000A2D0002810B518BF00291ED040310A79012A5E
S3152000A2E00AD1C26809785208520042F040024B0750
S3152000A2F048BF42F00102C260C168DFF8DC4341F08A
S3152000A3002001C160002100EB8102491C136A234011
S3152000A31003291362F7D30022104610BDF0B5044678
S3152000A32089B0042031B30020012603278DF80000D0
S3152000A330039602978DF81020019391F84720002A62
S3152000A3401EBF01F5C4721078002803D053780293FB
S3152000A35012780392029D039B01EB051601212046EC
S3152000A36006F1800200F07EF9012369460293204619
S3152000A37000F0B8F909B0F0BDF0B589B006460D4633
S3152000A380174600F0A5F8002818BF002D3DD0D0F8BC
S3152000A3900002C0F3012020B1687C022808BF0024F7
S3152000A3A033D0012101978DF800106A7D3B46304657
S3152000A3B00292297D00220694039105F11801059148
S3152000A3C029468DF81020FFF7A9FF0298039B05EB7D
S3152000A3D00011304600F078F8012069460290304698
S3152000A3E000F080F9040010D1688A60B9697C0229DE
S3152000A3F018BF032907D03B4600222946304600F0E5
S3152000A4006AFA044601E000F065F8204609B0F0BD7E
S3152000A4102DE9F84789B081460E46924600F058F855
S3152000A420002818BF002E45D0012100238DF80010EA
S3152000A4300025CDF804A080468DF81030069406EB52
S3152000A440850202F120035978002939D0D8F8000274
S3152000A4507719C0F3012010B1787F022830D00291FD
S3152000A46019783032534603913146059200224846E8
S3152000A470FFF754FF04001DD10298039B06EB001141
S3152000A480484600F021F8012069460290484600F02F
S3152000A49029F904000ED1708A80B9797F022918BF64
S3152000A4A003290BD0534600223146484600F013FAC2
S3152000A4B0040005D020460AB0BDE8F08700F00AF86F
S3152000A4C06D1C032DBBD3F5E701F180020121C9E004
S3152000A4D0042497E6642148430021F8F7D7BC2DE9E8
S3152000A4E0F84F80460D46FFF7F3FF070018BF002DF3
S3152000A4F000F0A280297C0029784904BF287F002803
S3152000A50028681DBF2E6C360906F0010600268842F3
S3152000A51062D14046F8F7E0FB29464046FDF7ACFA03
S3152000A520300002D00022012106E02A6C05F1450008
S3152000A5304178920902F001024046F8F767FB40464F
S3152000A540F8F7BEFB00F082F839684DF60F7041F03F
S3152000A55002013960396895F845200140287B082A90
S3152000A56008BF41F40051000100F03000014341F0E2
S3152000A5707F4141F47F01404639602946FFF700FEBE
S3152000A580B86820F40040B86095F84010C80703D595
S3152000A590BA6842F40022BA6029463846FFF797FE89
S3152000A5A029464046FFF737FE29464046FFF744FD39
S3152000A5B000F04CF8287C80B100F041F859F8044BA3
S3152000A5C034B1524629464046FFF7D6FE18B9A24472
S3152000A5D0BBF1010BF2D104002ED1287F80B100F00F
S3152000A5E02EF859F8044B34B1524629464046FFF717
S3152000A5F00FFF18B9A244BBF1010BF2D104001BD105
S3152000A600CEB1386840F0020038602A6C05F145006A
S3152000A61041784046920902F00102F8F7F7FA2946F6
S3152000A6204046FFF7ADFD29464046FFF705FD386851
S3152000A63020F00200386000242046BDE8F28F042076
S3152000A6404FF0000A05F1500983467047386820F01C
S3152000A65002003860396841F0010139603A68D30751
S3152000A660FCD470472DE9F8430E4691461D464FF01F
S3152000A6700408FFF7C7FD040018BFB9F1000F21D069
S3152000A680002700217019794100291BD8112819D2D9
S3152000A6902046FFF7AEFD12480221A061E161B1001C
S3152000A6A004EB8102AE1902F5007204E059F8043B6E
S3152000A6B0491C42F8043BB1EB860FF7D3A061012079
S3152000A6C0E061B8464046BDE8F283000000E1F505AA
S3152000A6D000CA9A3B0065CD1D00FFF0FC464346426A
S3152000A6E0F05AF05A2DE9F84307460D46FFF78AFD42
S3152000A6F004004FF0040818BF002D00F0CA80287807
S3152000A700042880F2C68095F810902046FFF771FD48
S3152000A710384604F1A00700F067F96069002640F08A
S3152000A7201E006061696839602878022808BFAE6912
S3152000A73002D0032801D12E6AB6B2A868E9680004BF
S3152000A74000F470200643491E090601F0E0610E431D
S3152000A75046EAC9767E602878032834D1EA69286AD1
S3152000A76012F0030138D11C23BB61B96941F0010104
S3152000A770B961BB69D907FCD4396941F00101396156
S3152000A78008B3402804F5807314D361694FF0100C88
S3152000A790890604D414E053F8041B42F8041B5FEA2C
S3152000A7A00C01ACF1010CF6D16169403841F0200171
S3152000A7B0616105E0396DC90001F4FF61814222D251
S3152000A7C061690B07DCD52878022818BF01283AD101
S3152000A7D06A69A96912F003005BD11C23FB61F86941
S3152000A7E040F00100F861FB69D807FCD40026002957
S3152000A7F029DD606904F5C073400621D540294FF054
S3152000A800100C38D30CE0042822BF53F8041B42F85E
S3152000A810041B001FF7D23DE052F8040B43F8040B4B
S3152000A8205FEA0C00ACF1010CF6D1403926B9386943
S3152000A830012640F001003861606940F04000606107
S3152000A84063691807D3D5287818B9396941F0010109
S3152000A85039612046FFF7CDFC6069010717D5786C72
S3152000A860C0F303600E280CBF41F6583841F659381C
S3152000A8700FE043F8040B5FEA0C00ACF1010CD5D0D5
S3152000A8800029D2BF0020091F52F8040BF1E74FF030
S3152000A890000817E740B119680091694611F8013B95
S3152000A8A0401E02F8013BF9D160698CE780B5FFF7BD
S3152000A8B0A9FC18B1D0F8E0108A07FBD501BD80B5F8
S3152000A8C0FFF7A0FC30B1016841F001010160026888
S3152000A8D0D307FCD401BD00292DE9F84F8EB04FF0E7
S3152000A8E004097AD001F170049246A5890122E689ED
S3152000A8F00693089202FA05F80325BAF1000F8DF89F
S3152000A9001450079202AD0C9514BF082304230D930F
S3152000A9108DF824A091F84730002B1EBF01F5C27593
S3152000A9202A78002A03D06A7807922D780895049011
S3152000A930079801EB0015089B0146049805F1800253
S3152000A940FFF790FE24685FEA040B18BF4FF0010B57
S3152000A9500025049805A9FFF7C5FE5FEA00093CD14A
S3152000A960BAF1000F19D001A96A4602AB042013F8E8
S3152000A970017B401E01F8017B13F8017B02F8017B65
S3152000A980F5D1002E0199009803D0014038EA010143
S3152000A9900CE0014311EA080108E026B1029838EAE2
S3152000A9A00000074603E0029918EA01010F4618BF86
S3152000A9B00127F8B210EA0B0F0CD00022954208BFEF
S3152000A9C094420ED04FF47A700021F8F75FFA641E95
S3152000A9D065F10005FFB2002FBBD148460FB0BDE898
S3152000A9E0F08F41F65A39F8E780B5FFF70BFC58B1DE
S3152000A9F0002100EB8102491C0429D2F8803043F063
S3152000AA000043C2F88030F4D301BD38B50D46FFF7B8
S3152000AA10F9FB04000BD0FFF7ECFB25B1206840F4CE
S3152000AA200060206031BD216821F40061216031BDC4
S3152000AA3000802A400000000000402A402DE9F8430B
S3152000AA40DFF834650220ADF5467D30607060DFF8B2
S3152000AA502C7538684FF00108C0F3400000281FBF4E
S3152000AA60DFF81C452068C0F30130002803D0206899
S3152000AA70C0F38130002800F09880FDF74BFA0128BA
S3152000AA8040F09380B869C0F30160002818BF0228FF
S3152000AA900CD1DFF8F0140020002200230F1D41F80E
S3152000AAA0302047F83030401C0228F8D9206800258D
S3152000AAB04FF4C077C0F3013030602168C1F3813094
S3152000AAC0706002A806F044FA56F82500741906EBC1
S3152000AAD08501012804D012D303280DD008D30EE017
S3152000AAE0DFF8A4248A60886860B90021217459E0BF
S3152000AAF0DFF898048860F6E7DFF89424F2E7002070
S3152000AB008860F2E7012202A82274896880224FEA2F
S3152000AB10852906F031FA09F1C041202201F580612C
S3152000AB2006A8FCF703FDDFF86C044FF4807200EBF7
S3152000AB30090126A8FCF7FAFC202166AB009106AA9B
S3152000AB40002102A806F060FB66A9802202A806F072
S3152000AB5013FA4FF4807086A9019026AB00916AAA59
S3152000AB60002102A806F026FB86A9DFF82C344A68C5
S3152000AB7007FB05F09A4202BF8699DFF8202491420E
S3152000AB80304406D0002339462374143002F03CFEAC
S3152000AB9008E001213A46217466A914304FF00008D6
S3152000ABA0FCF7C4FC6D1C022D8ED340460DF5477D67
S3152000ABB0BDE8F08310B50024FFF740FF00B901245B
S3152000ABC0204610BD0146002021B10968090F0E2933
S3152000ABD008BF012070472DE9F04395B00646FFF7E0
S3152000ABE0E9FF054630460424FFF7ECFF002808D08D
S3152000ABF03068000F0E2840F0CB803168C1F3034047
S3152000AC00002800F0C58004281AD2C1F30352022A74
S3152000AC10BCBFC1F30332042A0ADA012803D9C1F3DF
S3152000AC200322042A04DA032804D3C1F303100428D8
S3152000AC3080F2AE80C1F30360032824BF001F0328DF
S3152000AC4080F0A6800022C1F30367032FCA4B28BFDA
S3152000AC500122002D1EBF03F11001885C002871D14E
S3152000AC604FF4C07111FB02F51D44143517F003078C
S3152000AC7003D0022F05D002D308E0C44802E0C24820
S3152000AC8000E0C34803F1080747F8220001201033EB
S3152000AC9098542846F8F780FD05F18007BE48BF493D
S3152000ACA0786039603268BE4806F10808B860C2F399
S3152000ACB003410022F960337803F00F03FB6130680B
S3152000ACC0C0F30350B86115E03368C3F3032005EBE6
S3152000ACD0421C0CF1D00306EBC20CDCF804E0C3F8EE
S3152000ACE000E0DCF804C058F832909860521CCC443E
S3152000ACF0C3F804C08A4209D2012AE5D03068022A64
S3152000AD000CBFC0F30310C0F30330E0E70129386D10
S3152000AD107A6D0ED9012305EB431656F8D0CF84451C
S3152000AD20766838BF6046B24238BF32465B1C8B42DB
S3152000AD30F1D39C4988422BD3386168467A6105F065
S3152000AD40D0FE040024D10020974E8DF803006946DA
S3152000AD50304606F07BF804001AD1B869012809D1DB
S3152000AD60102205F1A001304606F0A0F80446002086
S3152000AD7038626CB910222946304606F097F804004E
S3152000AD8006D1102205F11001304606F08FF8044650
S3152000AD90204615B0BDE8F083F0B500220024764B9E
S3152000ADA04FF4C075002665431D44143500E0761C1B
S3152000ADB0D5F88C70BE4210D205EB461C0CF1D0079C
S3152000ADC0D7F804E0AEF1010E8645F0D33F6801EBDB
S3152000ADD0000C6745EBD2012202E0641C012CDFD96E
S3152000ADE01046F0BD2DE9F0470D460421002D86B012
S3152000ADF018BF5FEA020838D00646022E35D25E4CCE
S3152000AE00A3191A7C8AB302A84FF4C07906F0A0F8D9
S3152000AE1009FB06F18022601800F1140A00F5457737
S3152000AE20514602A806F0A8F84FF4807007F1800179
S3152000AE3001900AF1800300910AF11002012102A873
S3152000AE4006F0B8F904EB86008022816802A806F095
S3152000AE5093F820203B4600905246012102A806F096
S3152000AE60D3F92F600021C8F80090084606B0BDE847
S3152000AE70F0872DE9F84706460C4604201546002C97
S3152000AE8089B018BF002D4AD04FF000094FF4C07783
S3152000AE90DFF8E48000F046F890304268521EB24255
S3152000AEA003D30068A119884204D309F10109B9F135
S3152000AEB0010FEFD908EB890205A8D2F808A006F001
S3152000AEC047F8802205A8514606F056F800F02AF8E1
S3152000AED0D0F8981001291AD1A03001AA90E88A103A
S3152000AEE082E88A1036090020019601A901AB464264
S3152000AEF033440A5CDF7B0F54401C0828DA73F5D3F1
S3152000AF0000942B462A4605A806F0A4F906E00094EC
S3152000AF102B462A46012105A806F076F900200AB01C
S3152000AF20BDE8F08707FB09F108F1140008447047D3
S3152000AF302DE9F04105460E4600274FF4C07404FB68
S3152000AF4007F10D48014401F1140001F54578174930
S3152000AF5001EB8721A94209D37219914206D22146D3
S3152000AF60F8F71AFC21464046F8F716FC7F1C012FFD
S3152000AF70E5D9BDE8F0810000F09E202004800F4036
S3152000AF8060441F4048C00A40DCEFDCFE89ABDCFE93
S3152000AF901234DCFE80040060454844525441475F29
S3152000AFA0000001560010006000C00C400004006044
S3152000AFB013460A460146184680B503E013460A465C
S3152000AFC080B51946FCF7B2FA002002BD10B514462A
S3152000AFD00A4621460123BDE81040F7F711BA0000C2
S3152000AFE062F30F2262F31F42401810F0030308D0C9
S3152000AFF0C91A1FD3DB0748BF00F8012D28BF20F848
S3152000B000022D130030B414461546103928BF20E906
S3152000B0103C00FAD8490728BF20E90C0048BF40F871
S3152000B020042D890028BF20F8022D48BF00F8012DE5
S3152000B03030BC7047C91818BF00F8012DCB0728BFB0
S3152000B04000F8012D704700000300002013F0030FC5
S3152000B05009D0521E22BF13F8010B11F801CBB0EB19
S3152000B0600C00F3D0704711F0030F14D1121F22BF2A
S3152000B07053F8040B51F804CB6045F7D0121D0AD2C1
S3152000B08000BA9CFA8CFCB0EB0C0038BF6FF00000C5
S3152000B09088BF01207047521E22BF13F8010B11F8FA
S3152000B0A001CBB0EB0C00F6D0521C08BF10467047FF
S3152000B0B010B55F4B01221C68240A04F00104641CAD
S3152000B0C002FA04F40460186800F00300801D824030
S3152000B0D000200A6010BD00002DE9F04188B004462A
S3152000B0E068461021F8F758FB04A81021F8F754FBFE
S3152000B0F00C25504FFCF70EFF02284F4E18BF042098
S3152000B10040F093804FF4E0712046F8F745FB4B481A
S3152000B1104B4920600222616004F144010A70444ACE
S3152000B1201068C0F3401000B9022088704FF080509C
S3152000B130C860032363730120A37364234870CB6222
S3152000B140404B1868000E03D018683F4F47EA106737
S3152000B15000973E4F01971F68C7F3074020B11E682E
S3152000B1603B48C6F30746064304961668C6F3001006
S3152000B17000B10D250127E57304F5E07607FA05F001
S3152000B1807060681E87406D46376004F1800795E839
S3152000B190015187E8015104A804F5987C90E8A04164
S3152000B1A08CE8A0411D68C5F3C03038B929A004F148
S3152000B1B0900590E8805185E880510CE0012737738F
S3152000B1C01868C0F3C03010B94B25758203E00A27F2
S3152000B1D010FB07F070821D68C5F38030002870735D
S3152000B1E007D100BF1FA504F5A87495E8C11084E80F
S3152000B1F0C1101C68C4F3C01018B11868C0F3C01081
S3152000B20008871268520A02F00302012A05D002D3E7
S3152000B210032A07D003D3642005E0C82003E04FF4B7
S3152000B220C87000E032200863002008B0BDE8F08135
S3152000B23004800F400304100C1304180846434642AA
S3152000B24000040156E0461F400004100C0830042478
S3152000B250000418080F04C0040124000000000000A8
S3152000B260000000000F04C0040124000000000000BC
S3152000B27000000000F8B506460D4604201C46002DA9
S3152000B2808AB018BF002C38D00123032104930D2740
S3152000B29000238DF8041003978DF81430029295F848
S3152000B2A0470028B105F5CC714A78039209780491B4
S3152000B2B00421CDF820D0099101212370039F05EBAD
S3152000B2C00710049B00F180023046FFF7CBF90123DB
S3152000B2D001A903933046FFF705FA70B905F5E87220
S3152000B2E0009B1178002919BF5168926830212022CD
S3152000B2F0194091421CBF012121700BB0F0BDF8B559
S3152000B30004468AB0042039B3032609908DF80460D8
S3152000B31000268DF81460012701EB071602920025FE
S3152000B320049700950123039706F18002CDF820D0DB
S3152000B33001212046FFF796F9039701A92046FFF73A
S3152000B340D1F948B900994A0748BF44F6256003D485
S3152000B3500A0748BF44F624600BB0F0BD134600220E
S3152000B360FEF7DCBF70B506460D46042455B1FFF73F
S3152000B370B6F8040006D1012305F1800200213046EB
S3152000B380FFF770F9204670BD2DE9F84F8846042452
S3152000B390B8F1000F8CB01EBF5FEA030ADDF85890A3
S3152000B3A0B9F1000F52D0029208F5CA7715463A6BCA
S3152000B3B00B230124554304950593069498F84720BA
S3152000B3C0002A1CBF3978002903D07B7805933C7866
S3152000B3D006940190002308F180048DF81C308DF826
S3152000B3E00C30059804EB0012069B01980121FFF70B
S3152000B3F039F901980122059203A9FFF773F9040090
S3152000B40018BF44F6206461D108F5E676327822B179
S3152000B410F0880021F7F73AFD06E001982B464146D1
S3152000B420FFF759FA040051D10198FFF748FA7078CE
S3152000B43068B901986B462A464146FFF71BFF040070
S3152000B44044D19DF8000010B944F622643EE0B0785D
S3152000B4504FF0000B70B10299786BB1FBF0F0C20788
S3152000B46008D50198012308F1C00200214FF0010BF5
S3152000B470FFF7F8F8B5F1FC5F0AD2019B0FF21851DD
S3152000B4804A4651F8230041195046FCF74FF813E07D
S3152000B490032304958DF80C300198002201238DF8A2
S3152000B4A01C2003A9CDF828A0CDF82C900592069350
S3152000B4B0FFF718F9040009D1BBF1000F06D0019857
S3152000B4C0012308F180020021FFF7CCF820460DB0B9
S3152000B4D0BDE8F08FF8B505460C460420002C8AB04E
S3152000B4E0164653D0002004F5C6778DF80000FB6B76
S3152000B4F0B86B5E43464328463246FFF72FFF0028A7
S3152000B50044D1002305228DF804308DF81430012310
S3152000B5100392049394F8471000291CBF387800281A
S3152000B52000F0C8F80398049B04EB00110296284605
S3152000B53001F180020121FFF795F8012001A903906E
S3152000B5402846FFF7CFF810B144F625601EE03346B3
S3152000B550002221462846FFF7BEF9B8B932462146D1
S3152000B5602846FFF7CCFE002804BF94F8CD11002909
S3152000B5700CD16B46324621462846FFF77BFE002833
S3152000B58002BF9DF80010002944F622600BB0F0BDE2
S3152000B5902DE9F0478246894604201E46B9F1000F60
S3152000B5A08AB090461EBF002E129D002D45D0002346
S3152000B5B009F5C8778DF800307C6B504604FB08F4FB
S3152000B5C02246FFF7CBFE029400200696022307951B
S3152000B5D0092501268DF814008DF80430039504966C
S3152000B5E099F8471000291CBF3878002800F062F827
S3152000B5F009F2CD15687888B1B96BB8FBF1F1C807A7
S3152000B6000CD50A22039299F8471000291CBF387DD1
S3152000B610002803D0797D03913A7D049209F18006B2
S3152000B620049B0398012106EB00125046FFF71AF8F7
S3152000B63000F046F810B144F6236038E00E220123CC
S3152000B6408DF804000392049399F8470018B1797B8A
S3152000B65003913A7B0492049B039806EB0012012186
S3152000B6605046FEF7FFFF00F02BF810B144F6246099
S3152000B6701DE02346002249465046FFF72CF9B0B973
S3152000B680224649465046FFF73AFE002804BF29784D
S3152000B69000290CD16B46224649465046FFF7EAFD63
S3152000B6A0002802BF9DF80010002944F622600AB047
S3152000B6B0BDE8F08703D0797803913A7804927047F1
S3152000B6C001215046039101A9FFF70CB800000000A4
S3152000B6D02DE9F8430D4604241646002D8EB08146EA
S3152000B6E018BF002E00F033813268120F0C2A40F06A
S3152000B6F02E814FF400712846F8F74EF8964A974B5C
S3152000B7002A6005F130076B600220387503216973C2
S3152000B7103220A9730022786401207C754FF080586E
S3152000B7202A732946B8754846C7F82080FFF71AFEBF
S3152000B73004003ED10AA9002000220023002481E82B
S3152000B7401D00874A42F202430A920AAA0B9301235A
S3152000B75001214846FEF786FF032202218DF80420A8
S3152000B7600122099101A90094484602948DF81440BB
S3152000B770CDF820D003920492FEF7B4FF040017D12F
S3152000B780009844F62B6400F0FF00FF2818BF00281D
S3152000B7900ED03168C1F303610029C2BF716801F080
S3152000B7A0FF02002A03DD01F0FF01884200D10024B8
S3152000B7B0002C40F0C88001202873317801F00F0159
S3152000B7C0B9753068C0F30310022818BF042840F06A
S3152000B7D0BB80800205F5E072106040005060316841
S3152000B7E0C1F3032103290CD8DFE801F0020406097E
S3152000B7F0402108E0802106E04FF4807103E02021FB
S3152000B80001E0202927D39160396A9368B1FBF0F0D3
S3152000B810B0FBF3F3D3611068B0F5805F0CBF0D2049
S3152000B8200C20E8733068C0F30340010009D00128DA
S3152000B8300AD002280BD0042818BF082800F08380DD
S3152000B84007E04FF0806007E04FF0006004E04046DC
S3152000B85002E0B0F5007F77D3400005F1B0013862F1
S3152000B86040F2064008603F4842F2014338667B6654
S3152000B87005F5987CDFF8F0E0DFF8F080CCF800E002
S3152000B880DFF8EC90CCF83080C1F82090CCF820007E
S3152000B8903848CCF82430384B386538487B65002347
S3152000B8A008664FF40950486693733068C0F3033036
S3152000B8B060B13348334B486733480B67334B0861D5
S3152000B8C04FF41A50886101204B619073012305F1D2
S3152000B8D021002B774FF0020C80F800C04FF0000CAF
S3152000B8E085F820302A4B3B6742F201037B674FF0F5
S3152000B8F0060EC7F800C04FF0010880F804E080F873
S3152000B9000380244808634B631921796082F81080EC
S3152000B9103068C0F3036000280EDD7068C0F307416D
S3152000B92000291CBFC0F30720002805D0516170688C
S3152000B930C0F30720906103E03020202350619361FB
S3152000B9400221397500E014B92846FCF701FB204690
S3152000B9500FB0BDE8F083000046434642000401567E
S3152000B9609F0400040F04C0041304180810041808C8
S3152000B970D80418086B04100C083280263204100CE8
S3152000B9800C0C4022320401186B0401180C0C0832EE
S3152000B9901F04A0041F04B004000000600000007013
S3152000B9A04FF0FF31002201604260704730B5436896
S3152000B9B0D0F8004013A5D318436007E011F8013BE7
S3152000B9C083EA146355F8233083EA042413465A1E67
S3152000B9D0002BF3D1046030BD70B54268036812F0C5
S3152000B9E0030F0BD002F00302C2F1040205A41D0EC0
S3152000B9F0521E54F8256086EA0323F8D103600B60B3
S3152000BA0070BD000000000000B71DC1046E3B820916
S3152000BA10D926430DDC7604136B6BC517B24D861AF7
S3152000BA200550471EB8ED08260FF0C922D6D68A2F14
S3152000BA3061CB4B2B649B0C35D386CD310AA08E3C33
S3152000BA40BDBD4F3870DB114CC7C6D0481EE09345AC
S3152000BA50A9FD5241ACAD155F1BB0D45BC29697567B
S3152000BA60758B5652C836196A7F2BD86EA60D9B63E6
S3152000BA7011105A6714401D79A35DDC7D7A7B9F7077
S3152000BA80CD665E74E0B6239857ABE29C8E8DA1916D
S3152000BA90399060953CC0278B8BDDE68F52FBA582C3
S3152000BAA0E5E66486585B2BBEEF46EABA3660A9B750
S3152000BAB0817D68B3842D2FAD3330EEA9EA16ADA46F
S3152000BAC05D0B6CA0906D32D42770F3D0FE56B0DD9E
S3152000BAD0494B71D94C1B36C7FB06F7C32220B4CE7F
S3152000BAE0953D75CA28803AF29F9DFBF646BBB8FB6A
S3152000BAF0F1A679FFF4F63EE143EBFFE59ACDBCE8EB
S3152000BB002DD07DEC77708634C06D4730194B043DBF
S3152000BB10AE56C539AB0682271C1B4323C53D002ED6
S3152000BB207220C12ACF9D8E1278804F16A1A60C1B9B
S3152000BB3016BBCD1F13EB8A01A4F64B057DD0080852
S3152000BB40CACDC90C07AB9778B0B6567C69901571EB
S3152000BB50DE8DD475DBDD936B6CC0526FB5E611625A
S3152000BB6002FBD066BF469F5E085B5E5AD17D1D579D
S3152000BB706660DC5363309B4DD42D5A490D0B194416
S3152000BB80BA16D84097C6A5AC20DB64A8F9FD27A530
S3152000BB904EE0E6A14BB0A1BFFCAD60BB258B23B622
S3152000BBA09296E2B22F2BAD8A98366C8E41102F8357
S3152000BBB0F60DEE87F35DA9994440689D9D662B900E
S3152000BBC02A7BEA94E71DB4E0500075E4892636E91D
S3152000BBD03E3BF7ED3B6BB0F38C7671F7555032FA5E
S3152000BBE0E24DF3FE5FF0BCC6E8ED7DC231CB3ECF21
S3152000BBF086D6FFCB8386B8D5349B79D1EDBD3ADC8A
S3152000BC005AA0FBD8EEE00C6959FDCD6D80DB8E6025
S3152000BC1037C64F643296087A858BC97E5CAD8A73A7
S3152000BC20EBB04B77560D044FE110C54B38368646A0
S3152000BC308F2B47428A7B005C3D66C158E440825583
S3152000BC40535D43519E3B1D252926DC21F0009F2C68
S3152000BC50471D5E28424D1936F550D8322C769B3F2B
S3152000BC609B6B5A3B26D6150391CBD40748ED970AF2
S3152000BC70FFF0560EFAA011104DBDD014949B9319C7
S3152000BC802386521D0E562FF1B94BEEF5606DADF899
S3152000BC90D7706CFCD2202BE2653DEAE6BC1BA9EBF3
S3152000BCA00B0668EFB6BB27D701A6E6D3D880A5DE5C
S3152000BCB06F9D64DA6ACD23C4DDD0E2C004F6A1CD3F
S3152000BCC0B3EB60C97E8D3EBDC990FFB910B6BCB43A
S3152000BCD0A7AB7DB0A2FB3AAE15E6FBAACCC0B8A7AF
S3152000BCE07BDD79A3C660369B717DF79FA85BB492F6
S3152000BCF01F4675961A163288AD0BF38C742DB081BB
S3152000BD00C330718599908A5D2E8D4B59F7AB0854B7
S3152000BD1040B6C95045E68E4EF2FB4F4A2BDD0C4706
S3152000BD209CC0CD43217D827B9660437F4F46007227
S3152000BD30F85BC176FD0B86684A16476C9330046122
S3152000BD40242DC565E94B9B115E565A158770191827
S3152000BD50306DD81C353D9F0282205E065B061D0B8A
S3152000BD60EC1BDC0F51A69337E6BB52333F9D113EA9
S3152000BD708880D03A8DD097243ACD5620E3EB152DE6
S3152000BD8054F6D4297926A9C5CE3B68C1171D2BCCDC
S3152000BD90A000EAC8A550ADD6124D6CD2CB6B2FDFD2
S3152000BDA07C76EEDBC1CBA1E376D660E7AFF023EA63
S3152000BDB018EDE2EE1DBDA5F0AAA064F4738627F95E
S3152000BDC0C49BE6FD09FDB889BEE0798D67C63A8039
S3152000BDD0D0DBFB84D58BBC9A62967D9EBBB03E930E
S3152000BDE00CADFF97B110B0AF060D71ABDF2B32A6AD
S3152000BDF06836F3A26D66B4BCDA7B75B8035D36B5DA
S3152000BE00B440F7B110B5037B4FF47A74624333B173
S3152000BE10042B07D0052B08D0062B09D00BE047F2C0
S3152000BE205F630AE042F22B4307E041F65E5304E0EB
S3152000BE3041F2887301E043F62F330C000BD100202A
S3152000BE4000E0401CC1B259439142FAD3C1B2102935
S3152000BE5011DB0F200FE001290DD11020C4B2411EA5
S3152000BE605C43A24204D20846C9B20029F6D102E0B8
S3152000BE70C2B202B10846C0B210BD2DE9F8438046D1
S3152000BE8086B008F13805E9466F7E022F0CD10021D5
S3152000BE902A4603E0107800B10121521C08F1460021
S3152000BEA09042F7D221B143E002DC1820474301E05B
S3152000BEB000276F760FF2C45418216846E619F7F763
S3152000BEC06BFC07E036F8022B00214046FFF79AFF6D
S3152000BED029F8020B0DF112004845F3D204F11401A2
S3152000BEE04046CA5B0121FFF78DFFADF81400BDF86F
S3152000BEF000002870BDF802106970BDF80400A87013
S3152000BF00BDF80610E970BDF808002871BDF81210BA
S3152000BF10E971BDF814002872BDF80A106972BDF8DF
S3152000BF200C006871BDF80E10A971BDF81000A8723A
S3152000BF3007B0BDE8F0832DE9FF47002504460195AB
S3152000BF408A46009505F088FC8046F6F796FC06465C
S3152000BF500F465046F6F79BFCCDE9020100F0DAF8D1
S3152000BF608146434601AA022105F0BDFCDDE9024ACD
S3152000BF7009E000F02AF800F02EF822D0009810F000
S3152000BF80220F0CD10190F6F778FC801BB9418A4527
S3152000BF90EFD828BF8442ECD245F26C2012E043460B
S3152000BFA001AA0221484605F09EFC00F00EF800F09A
S3152000BFB012F806D0009881064CBF45F2712545F24D
S3152000BFC07225284604B0BDE8F08743466A4602211A
S3152000BFD0484605F088BC0198009900F0400001F021
S3152000BFE0400188427047F8B50546DFF88474802101
S3152000BFF03846F7F7D1FBDFF87C6405F02DFC726834
S3152000C0000446306800F022F9F268B06800F01EF9A4
S3152000C01030692346902200F01AF905F01DFC0346EC
S3152000C0203068982200F013F90021284605F047FDD4
S3152000C0308022394605F0E3FC0446284600F05FF8E6
S3152000C040284600F05CF8284600F03EF80CB1204661
S3152000C050F2BD798CBA8C97F82000090201F47F4151
S3152000C060120402F47F0208181018DFF80C14884214
S3152000C07002D045F27020F2BD07F14204B7F8400025
S3152000C080E2880123101803FA00F0706327882189BB
S3152000C0904FF47A70CF1903FA07F7474305F1A00149
S3152000C0A0B763E28A012A0AD1A08BE28B00EB024514
S3152000C0B04D60208B628B00EB02456D1C8D60608A83
S3152000C0C0834000200B60F2BD70B50446DFF8A46300
S3152000C0D005F0C2FB00F01DF80446726830682B4656
S3152000C0E000F0B5F8F268B0682B4600F0B0F82B46A1
S3152000C0F02046F0220321BDE8704005F0D7BB38B5B5
S3152000C100044605F0A9FB00F004F82B4601B0F02206
S3152000C11015E005460021204605F0D1BC38B5D54DA1
S3152000C12005F09AFB6A680446286800F08FF8EA68EA
S3152000C130A86800F08BF82346286901B02022032145
S3152000C140BDE8304005F0B2BB38B5044605F084FBA7
S3152000C150FFF7DFFF04462B46902200F078F82B46A7
S3152000C160204601B00022EAE72DE9F14F82B090F88F
S3152000C170225016465A428846ED08684202405242EC
S3152000C180B3FBF5F005FB1033B2FBF5F91C0018BF25
S3152000C190012405F061FB8DF8000002984F469DF8BA
S3152000C1A00030D0F8A010CDF80480B1FBF5F0814521
S3152000C1B088BF074625220321404605F077FB9DF8D8
S3152000C1C0003001987A1E00F042F89DF800A05545EF
S3152000C1D01CBF284605F01CFB4FF0000BBB451DD2AB
S3152000C1E0022D32780AD1781E834502D0707800025B
S3152000C1F003E0002CFAD04FF47F4082182B464046AD
S3152000C2000321761905F052FBA8440BF1010BE5E753
S3152000C2100298FFF759FF45F2742015E055451CBFDB
S3152000C2209DF8000005F0F4FA9DF8003001982922C7
S3152000C23000F00DF88F48416B0298FFF77CFE00282E
S3152000C240E6D1B9EB0709A8D1BDE8FE8F2346032125
S3152000C25005F02CBB00E0491E31B110F8012BFF2A56
S3152000C260F9D045F2762070470020704710B500E0DF
S3152000C270521E42B110F8013B11F8014BA342F7D0F0
S3152000C28045F2752010BD002010BD70B50446FFF79D
S3152000C290F4FD204605F02FFE002846D194F85200E2
S3152000C2A010B145F26E2070BD724D002105F13000AF
S3152000C2B00022002380E80E0030212846F7F76CFA8A
S3152000C2C094F8220040F25551082808D140F6AA20B9
S3152000C2D0A96028602861A8612962A86209E010285F
S3152000C2E007D140F2AA202960A8602961A9612862A5
S3152000C2F0A962002655F83610204605F0E0FB45F8E1
S3152000C3003600761C062EF5D3AA2055216860E861F2
S3152000C3102046E9606962FFF7D7FE2046FFF763FEF5
S3152000C32018B92046FFF7D0FE002070BD2DE9F04158
S3152000C33007460C4697F822004E4915460C633A6983
S3152000C3401E46C008944221BF79698A1831198A424B
S3152000C35038BF45F26D2021D3B4FBF0F100FB11402C
S3152000C36010B145F26F2019E03846FFF7D7FE334665
S3152000C3702A4621463846FFF7F7FE80463846FFF71D
S3152000C380E3FE3846FFF7A0FE97F8E00028B93246CC
S3152000C39029462046FFF76AFF80464046BDE8F081E1
S3152000C3A02DE9F84F0546334FD5F8A4B0286905F195
S3152000C3B0A4020BFB010BC7F830B05368994202D296
S3152000C3C02869834502D245F26D204FE02846FFF7C3
S3152000C3D0A5FE05F041FA04460021284605F06FFB2C
S3152000C3E023468022FFF733FF234630220321584677
S3152000C3F005F05CFA05F030FA8146F6F73EFA064675
S3152000C4008A46C820F6F743FA04468846F6F735FAF0
S3152000C410801B61EB0A01884502D828BF844210D3CD
S3152000C420386B4B466A46022105F05DFA00980107F3
S3152000C430ECD5B96B2846FFF77EFD040003D1002416
S3152000C44004E045F26C242846FFF73EFE2846FFF717
S3152000C4507BFE2846FFF738FE95F8E00028B9D5F888
S3152000C460A4105846FFF7F6FE04462046BDE8F28F94
S3152000C470B0062120740621205152590000000000E8
S3152000C4800E000A0000000000420021000A009C0065
S3152000C4900A00000000000000070005000000000060
S3152000C4A028001400050060000700000070B5644CE9
S3152000C4B0216801F0070103290BD8DFE801F0020407
S3152000C4C00608002106E0032104E0042102E00521FC
S3152000C4D000E0062101732168C1F3002101B1022188
S3152000C4E000F1410500F121022974297C554B0229CE
S3152000C4F02DD11E68360A06F0030606EB8606D6758B
S3152000C5001968090C01F00F0191761E68360D06F0A8
S3152000C5100F06D6761968890B01F0030101EB81011C
S3152000C52029701D682D0E05F00F0595771968090FDE
S3152000C530D1771D68AD0A05F0030505EB850515764F
S3152000C5401968090B01F0030101EB8101517621687D
S3152000C550C1F3402100290CBF102108215170216808
S3152000C560C1F3802101B10121C173186810F00700C1
S3152000C5700DD0012806D0022809D0032804D0072888
S3152000C58004D006E0012105E0032103E00520D07157
S3152000C59001E00421D1711868C00800F00700001FCF
S3152000C5A003280BD8DFE800F002040608192006E06D
S3152000C5B01A2004E01B2002E01C2000E01820107046
S3152000C5C01868C0F3801000B1012050721868C0F3BB
S3152000C5D0C010401E8041C00F107270BD70B5044659
S3152000C5E04FF48071F7F7D8F804F1500500226A70ED
S3152000C5F00523237304F122061020327230700122A3
S3152000C600F2712046FFF752FF00200F4AA8704FF024
S3152000C610104128704FF48033226000222072FF20C0
S3152000C6206073A0734FF0807021610C21636060619C
S3152000C630402084F82020B0700020717070BD00006A
S3152000C64004800F40E0461F4053454D4310B5924BA2
S3152000C65001221C6804F0010402FA04F4046018683C
S3152000C660C0F3430000281DBF1868C0F34300824072
S3152000C67040220A60002010BD30B587490A68C2F3FF
S3152000C6800022531E9B41DB0F00F1520213700B68F0
S3152000C690C3F3402303B10123D3700968C1F380217A
S3152000C6A001B10121C1737D4B196800F1210401F00C
S3152000C6B0070103290CD8DFE801F00204060800214F
S3152000C6C007E0012502E0022103E00325E57301E0EE
S3152000C6D00421E1731968C1F3C001002914BF102198
S3152000C6E0082121701968C1F3001101B1012180F8D8
S3152000C6F020101968C1F34011491E8941C90F2174C0
S3152000C7001968C1F38011491E8941C90F91721968B0
S3152000C710090A01F00701891E05290ED8DFE801F074
S3152000C72003050707090B022108E0042106E0012181
S3152000C73004E0032102E0072100E00021617019686E
S3152000C740C90A01F00701491E062913D8DFE801F0BE
S3152000C7500406080A0C0E100009210CE00A210AE042
S3152000C7600B2108E00D2106E00E2104E00F2102E056
S3152000C770102100E00C21A1701968C1F3803101B1AC
S3152000C7800121D1721968090C01F00701072915D872
S3152000C790DFE801F00C0406080A140E1108210FE048
S3152000C7A010210DE020210BE0402109E0802107E047
S3152000C7B04FF4007104E04FF4806101E04FF4807182
S3152000C7C0C0F8A810107828B11868C0F3006000B12E
S3152000C7D00120107130BD70B504464FF48071F6F714
S3152000C7E0DBFF04F150050122AA7004F121066A71CB
S3152000C7F008203070002184F82010052031740C2286
S3152000C80029732073002071704021B2700022687352
S3152000C8100120A965AA71E87020466272FFF72CFFF5
S3152000C82000204FF4007301212870687001222871BE
S3152000C8304FF47A70AB602982E8813178286D082917
S3152000C84008BF96F9020003D0102903D1B078401C06
S3152000C85002FA00F02865400968654FF48061E965B1
S3152000C86000202A660E4984F8E000FF2021604FF060
S3152000C870007160734FF48033A0734FF01E40227214
S3152000C880002220614FF00040616140216360A26177
S3152000C890E0610020F17070BD04800F40E0461F402B
S3152000C8A053454D4330B5047B4FF47A756A4334B112
S3152000C8B0042C07D0052C08D0062C09D00BE047F213
S3152000C8C05F640AE042F22B4407E041F65E5404E03E
S3152000C8D041F2887401E043F62F34012505FA03F36B
S3152000C8E00D000BD1002000E0401CC1B261439142F3
S3152000C8F0FAD3C1B299420CDB581E0AE0012908D1AD
S3152000C90000E00346D8B230B1581EDBB263439A42E8
S3152000C910F7D3C0B230BD1846FBE700002DE9F0433F
S3152000C920804608F1400687B0F77CE946DFF8142CEC
S3152000C930082F18DA380018D10023B44605E09CF8F1
S3152000C940000000B101230CF1010C08F14C006045F8
S3152000C950F5D243B11078002876D1012907D198F86D
S3152000C9608000507070E00127F7741078E0B9080055
S3152000C97008BF012718D0012916D1F07C801E042873
S3152000C98010D8DFE800F00C0A0805030005210AE0AC
S3152000C9900423537008E0032002E0022103E0012073
S3152000C9A0507001E0002151705FF01C0228A457430B
S3152000C9B01C216846F6F7F0FEE51906E035F8022B4D
S3152000C9C0042300F0B5F829F8020B0DF10E004845B6
S3152000C9D0F4D206A9894507D235F8022B062300F0A2
S3152000C9E0A7F829F8020BF4E704F118000623C25B26
S3152000C9F0012100F09EF8ADF81800BDF80000307057
S3152000CA00BDF802107170BDF80400B070BDF80610B4
S3152000CA10F170BDF808003071BDF80A107171BDF8CB
S3152000CA200C00B071BDF80E103173BDF81000F07116
S3152000CA30BDF812103172BDF814007072BDF81610D0
S3152000CA40B172BDF81800F07207B0BDE8F08300009F
S3152000CA5000000000000000000000000000000000B0
S3152000CA600000000000000000000000004600140046
S3152000CA70000032001E0032001E0000007800C800B0
S3152000CA80C8002800C800000023000A000000190082
S3152000CA900F0019000F00000050006400640014000D
S3152000CAA06400000019000A00000011000F001100A8
S3152000CAB00F000000500064006400140064000000B1
S3152000CAC01900050000000F000A000F000A000000F0
S3152000CAD03C0064006400140064000000140005009B
S3152000CAE000000C000A000C000A0000003C00640054
S3152000CAF046001400640000000F00050000000A0034
S3152000CB0007000A00070000003C00640046001400ED
S3152000CB10640000000000000000000000000000008B
S3152000CB2000000000000000000000000000000000DF
S3152000CB3000214046B6E62DE9F8438046DFF8C46B6F
S3152000CB404FF480713046F6F727FE0022012100922D
S3152000CB500422EC2008F1500704F063FF01466B46DF
S3152000CB600022002004F07BFF0400DFF8D85913D1FF
S3152000CB70A868397BB0F57A7F38BF4FF47A700129DF
S3152000CB8005D1014600F0D7F8040005D101E0F5F7FC
S3152000CB9087FE00F0CAF80446002C1DD13068DFF865
S3152000CBA0689B484515D100216846ADF8021005F06E
S3152000CBB032FAFE223146684605F031FA0DF10201BD
S3152000CBC0684605F025FABDF80200B6F8FE10884240
S3152000CBD016D000F0AAF8040040F09F800020002123
S3152000CBE0CDF800901DF80130725C934208BF401CBE
S3152000CBF0491C0429F6D30128D0D845F2D5208DE04A
S3152000CC0007200FF694323870002000210C2306EB03
S3152000CC10010E43439EF8209013445B5C4B4502D1A2
S3152000CC20491C0C29F2D30C297AD138703089010697
S3152000CC30890E01F00101C0F3C000297600B1012060
S3152000CC407873306D3865002100E0491C4008FCD11E
S3152000CC5008F121000278082A02D0102A01D1491EA3
S3152000CC60817006F154010A887A658B68BB65CA68AB
S3152000CC70FA650B7C3B66497C112910D012290CD011
S3152000CC80132908D0212904D022290CBF02210021F2
S3152000CC9006E0042104E0012102E0032100E007214F
S3152000CCA04170F97806F1810007291CD10178C1F37A
S3152000CCB040120AB1062112E0C1F300120AB1052181
S3152000CCC00DE0C1F3C0020AB1042108E0C1F38002DD
S3152000CCD00AB1032103E0C1F3400111B10221F97029
S3152000CCE001E00122FA70027A417A02EB0121A96061
S3152000CCF08279C379890802EB03222A61067943796E
S3152000CD00920806EB0323EB60A9602A619B08EB607F
S3152000CD10C17A807A00EB012068612046BDE8F28363
S3152000CD20401C0728FFF471AF80E74FF4807231462C
S3152000CD30404604F000BE01224046FFE72DE9F84FA9
S3152000CD4080468B46144608F15C05F5F796FD0646A7
S3152000CD500F4668884FF47A714843F5F798FD814667
S3152000CD608A46F5F78AFD801BB9418A4502D828BF35
S3152000CD70814511D3287890B98DF800005846F5F7EB
S3152000CD808FFD6946404600F06CF8C0B99DF800005A
S3152000CD90800900F0010006E045F2D0200FE00128CE
S3152000CDA0DFD104F037FE0028DBD0012C404604BF3B
S3152000CDB02978002902D100F004F800B90020BDE846
S3152000CDC0F28F1CB500F0A3F828B90222002104F046
S3152000CDD028FE00F048FB16BD7CB5002305460093CF
S3152000CDE00E4630780422012104F01BFE014670789D
S3152000CDF06B46002204F033FE040030D13078EF2851
S3152000CE0015D10422B11C284604F0BAFD040026D10F
S3152000CE1095F85C00012805D1002200212846FFF75D
S3152000CE208DFF1BE04FF47A70F5F73AFD17E0EE28F8
S3152000CE3015D195F85C00012807D10122002128464A
S3152000CE40FFF77CFF04000AD103E04FF47A70F5F770
S3152000CE5027FD0422B11C284604F06DFD0446204619
S3152000CE6076BD7CB504460D4694F85D0001280FD1A9
S3152000CE70DFF8D0663378022B03D1082200217120F7
S3152000CE8009E006220521782004F0CBFD746805E030
S3152000CE9008220021702004F0C4FDA46901466B46D7
S3152000CEA00022204604F0DBFD10B9009828700020EF
S3152000CEB076BD7CB50D4600F02AF8F0B9DFF8846619
S3152000CEC0307802280BD100F01DF800F054F8A0B9F4
S3152000CED0B4F86010B068884228BF01460EE000F022
S3152000CEE011F800F048F840B903220021302004F060
S3152000CEF098FD00F040F80028EAD076BD012200F027
S3152000CF000AFC76BD04220021002004F08ABD0023FD
S3152000CF10044600930022002110E77CB5002316006A
S3152000CF2004460D4600930ED100220021FFF706FF8E
S3152000CF3040B904220021802004F073FD00F01BF884
S3152000CF4000B9002076BD012AFBD102220021102043
S3152000CF5004F067FD00F00FF80028F3D1B4F8601054
S3152000CF60DFF8E005C068884228BF014600F0D2FB02
S3152000CF700028E6D076BD01466B460022284604F0FE
S3152000CF806EBDFEB50C4600F15005A979A1421BD015
S3152000CF902A78DAB9DFF8AC65317EB9B10FF66003CD
S3152000CFA0012CD3E90067CDE9006703D100218DF874
S3152000CFB0021004E0210004BF08228DF802206946F1
S3152000CFC0FFF70AFF08B9AC710020FEBD200002D190
S3152000CFD045F2D620FEBD012CF6D145F2DB20FEBD62
S3152000CFE038B5044604F1540108780125002804BF09
S3152000CFF04A78012A15D1002369468DF8003020464B
S3152000D000FFF72FFF0028204603BF9DF8005005F0AC
S3152000D010010585F001050025FFF7D3FE08B10120A3
S3152000D02032BD284632BD0246012000E0491E21B10C
S3152000D03012F8013BFF2BF9D0002070472DE9FC4167
S3152000D040DFF8C8560024804628780E4608F1600787
S3152000D050022820D1100017D1009400220021FFF7CA
S3152000D0606BFE04003ED104220021502004F0D9FC9E
S3152000D07000F03BF8040035D13988A868884228BFDB
S3152000D0800146FFF758FE04E0012A2BD14046FFF760
S3152000D09010FF044626E00AB9386C861900210022C2
S3152000D0A00091FFF749FE04001CD10422022105202D
S3152000D0B004F0B7FC00F019F8040013D10322002174
S3152000D0C0E02004F0AEFC00F010F804000AD16869F4
S3152000D0D000281DBF4FF47A71B0FBF1F0401C0120EF
S3152000D0E0F5F7DEFB2046BDE8F68101466B460022B9
S3152000D0F0304604F0B4BC2DE9F8430546C0B0894655
S3152000D10005F1540739780024002904BF78780028CF
S3152000D11048D1FE6C7B68FF224FF480716846B6FBCF
S3152000D120F3F8FBF735F8687A01280AD128693A6DB1
S3152000D1306946B9FBF0F300FB0366304604F05FFC5A
S3152000D14013E0A0B9002249462846FFF777FF0400DE
S3152000D15028D13A6D6946284604F0EDFB040021D11A
S3152000D160012249462846FFF769FF04001AD14FF4E9
S3152000D17080716846FFF757FF00B10120DFF88C5514
S3152000D1808021687605F11C00F6F706FB002069462B
S3152000D1901C3505E001EBC002536845F82030401CE1
S3152000D1A04045F7D3204641B0BDE8F0832DE9F0474E
S3152000D1B00C4600F1540631780125002901BF72780A
S3152000D1C0002AF17800293DD1F26C71680027DFF83A
S3152000D1D03C9509F19C0AB2FBF1F8427A012A0AD160
S3152000D1E00069241A07E0706809F5277182448A4588
S3152000D1F028D204197F1C474524D2F06C7168B4FBF1
S3152000D200F0F200FB1240B0FBF1F0B842F2D15046EA
S3152000D210FFF709FF00281CBF99F819000028E2D162
S3152000D22009EB8701706801F11C02514600B204F037
S3152000D230C2FF45F2343188421CBF45F23532904256
S3152000D240D1D000252846BDE8F0872DE9F34F1546B5
S3152000D250E5B0659A002001901C4602F1540631780B
S3152000D260002904BF7078002863D1F26C736880218E
S3152000D27044A8B2FBF3FBF6F78FFAF278002A5CD1CA
S3152000D2804FF00008AA46DFF888240395C14600928D
S3152000D290002525E0B9F1000F15D171680098FF220D
S3152000D2A04FF00109FAF774FF0BE000982246514629
S3152000D2B0FAF73CF90098FF22391B20440024FDF799
S3152000D2C08FFEDDF800A0706802AA514600B204F075
S3152000D2D0BDFE029944AA42F8251070686D1C804450
S3152000D2E05D452AD20021002C0291D3D0776803987D
S3152000D2F0BC4200EB080AD8D3E41BE4E702EBC403E4
S3152000D30051F82400641C58605C45F7D36598407A30
S3152000D310012807D16698F36C326D04A9181804F019
S3152000D32073FB05E028B9326D659804A904F028FB43
S3152000D3300190019867B0BDE8F08FFF224FF480710D
S3152000D34004A80024FAF724FF44A904AADCE72DE95F
S3152000D3507C43044604F147057A4E1C213046F6F7F5
S3152000D3601BFAEA7A04F122010AB1002008E00878C3
S3152000D37000281CBF0228042801D1012000E0022039
S3152000D3803070687B28B9AA7B501E8041C00FC870B8
S3152000D39001E00022CA7000212046FFF7BFFA20468E
S3152000D3A004F0A9FD002858D13178002949D10090F0
S3152000D3B00222FF2004F035FB00F055F800224FF43E
S3152000D3C07A7100F0A8F9002847D12046FFF7B3FB71
S3152000D3D0002842D101212046FFF7A0FA607A0128D1
S3152000D3E009D172690AB94FF4FA720623012120463F
S3152000D3F0FFF758FA28707278FAB1062A1DDA317EBC
S3152000D4000020C9B10FF2F0336946D3E90089CDE98E
S3152000D410008900F024F800BBEE2100228DF80010D0
S3152000D420694600F01CF8C0B99DF802107278914246
S3152000D43018BF45F2D72010D178B9204604F05BFDFD
S3152000D44058B9697B49B9A97B012908BF002101D0B8
S3152000D45019B901212046FFF794FDBDE876838DF8A2
S3152000D46002202046B8E40146A0696B46002204F05B
S3152000D470F6BA2DE9F04B07469046D7F8A000FA6990
S3152000D4801D464143914228BF45F2D12027D2A842CA
S3152000D49038BF45F2D32022D338469C4E04F0CAFA30
S3152000D4A0014689467160787A01280AD1D7F810900A
S3152000D4B03846FFF7FEFC90B93846FFF791FD48B98C
S3152000D4C03AE038B93846FFF7F4FC40B93846FFF75A
S3152000D4D087FD88B349463846FFF70DFE78B3BDE889
S3152000D4E0F08B4FF4007BAB453146404688BFAB46B8
S3152000D4F05A46D944FAF71AF8D844A5EB0B0555B184
S3152000D500787A012809D14FF400723146484604F052
S3152000D51076FA04000AD02046E1E738B94FF40072C3
S3152000D5203146384604F007FA0400F4D14946384615
S3152000D530FFF73CFE0028D4D145F2D420CFE70024C3
S3152000D5409C36DCE798BA20202DE9F34F83B00546B8
S3152000D550D5F8A0009346EA6900274143914228BFA7
S3152000D56045F2D1206BD29842029338BF45F2D320A0
S3152000D57065D32846654E04F05DFA01907060687A9E
S3152000D580012808BF2F6901D000B9019F0199002207
S3152000D5902846FFF7C2FC040050D14FF0000806F1E0
S3152000D5A09C00029CC24600901FE0E8B932464946DC
S3152000D5B0284604F0E5F916E0BAF1000F0AD10098E2
S3152000D5C04FF40076FF2231464FF0010AFAF7E0FDCC
S3152000D5D0DDF80090687A0128E7D13246494608EB03
S3152000D5E0070004F011FA40BBB044D5F8A0008045EE
S3152000D5F028D2002CE0D0B4F5007F04D3660A760248
S3152000D600D946A41BE6E7009822460BEB08014FF407
S3152000D6100076F9F78BFF0098FF22C4F500712044AD
S3152000D6200024FDF7DDFCD3E795F8E00030B9029B36
S3152000D63004995A46284600F099F80446204605B033
S3152000D640BDE8F08F029B39465A462846FFF7FDFD76
S3152000D6500400F3D1019901222846FFF75EFC04005D
S3152000D660ECD12846FFF7BCFC0028DDD145F2D420BA
S3152000D670E5E72DE9FC4104460D4604F16006E26922
S3152000D680B16C306C69434143914228BF45F2D120A9
S3152000D69036D220461D4F04F0CDF98046002000905A
S3152000D6A00022C7F80480002100F035F840BB042290
S3152000D6B00521602004F0B5F900F030F800BB032204
S3152000D6C00521D02004F0ADF900F028F8C0B9318842
S3152000D6D03869884228BF014600F01CF880B92046E8
S3152000D6E0FFF77EFC10B945F2D42009E094F8E0005B
S3152000D6F028B9B26C20465543294600F015F800207B
S3152000D700BDE8F68134BD20204F4E464998BA2020E8
S3152000D71034BB202000222046FFF710BB01466B4673
S3152000D7200022404604F09BB92DE9F041804608F1DD
S3152000D730A0056C6C0E46174644B945F2DA2013E074
S3152000D74029682046FFF76FFC60B1761C3846471ED5
S3152000D75050B12B68224631464046FFF78AFE002804
S3152000D760EED001E045F2D920BDE8F08170B5D0F8C1
S3152000D770E44015461E4614B945F2DA2070BD22460D
S3152000D780FFF777FE38B9324621462846FDF75CFC7E
S3152000D79008B145F2D82070BD4D4943524F4E202046
S3152000D7A0202020205350414E53494F4E20202020E8
S3152000D7B053414D53554E47202020202057494E4255
S3152000D7C04F4E44202020202048594E4958202020C2
S3152000D7D020202020544F53484942412020202020F9
S3152000D7E04D4143524F4E4958202020200000000032
S3152000D7F00000000000000000EF0100000000000013
S3152000D800EF900000000000000022FDF7EDBB0000B5
S3152000D81070B504460D46DFF8286320213046F5F71B
S3152000D820BBFF2278012A02DD42F6CE1070BD607859
S3152000D830212809DA6168012202FA00F38B4222BF0D
S3152000D84008388240914202D242F6CF1070BD1C2287
S3152000D85021463046F9F77AFE7068F561B0F5007F0B
S3152000D86004BF09217170002070BD1346B44A70B5FB
S3152000D870957C0446526800201E19B24202D242F616
S3152000D880CC1070BD2A0000D16CE02BB10A4621468F
S3152000D8902846BDE87040A8E070BD2DE9F8438046D3
S3152000D8A0002401EB0809A64F7868FD68FE7D4845EF
S3152000D8B004D242F6CC142046BDE8F2839EB9BE7D42
S3152000D8C0BD6886B9387830B301280CD1404600F0BF
S3152000D8D03EF90446EFE7002CEDD1387DD8B100F0B3
S3152000D8E023F90028FBD1C845E5D200F0FEF8040054
S3152000D8F0E1D1002300224146304600F076F8044666
S3152000D900B8FBF5F105FB118000281ABF481C05FB62
S3152000D91000F8A844DFE742F6D010CDE770B5884D71
S3152000D9202E7E6968300008D12878A0B1012804D15C
S3152000D930002000F00CF9044612E000F0D6F80400AE
S3152000D9400ED1002300220021304600F04EF80400BC
S3152000D95006D1287D00B905E000F0E6F80028FBD1C5
S3152000D960204670BD42F6D01070BD2DE9F84F814695
S3152000D9708A469046002408EB0901714E7068B76804
S3152000D980757C884204D242F6CC142046BDE8F28F3C
S3152000D990CDB942F6D010F9E7C34688455246284607
S3152000D9A088BF8B465B46494600F01FF80400D944E1
S3152000D9B0DA44A8EB0B08E8D1307D0028E9D000F046
S3152000D9C0B3F80028FBD1B8F1000FDED000F08DF8B7
S3152000D9D00400DAD1B9FBF7F17943B9EB01001ABF9C
S3152000D9E0A7EB090009183946D6E72DE9FC471C465E
S3152000D9F0534FFB698246894690467D780022002156
S3152000DA0000209847BAF1000F2CD0397C8A4508BFF0
S3152000DA10012628D07A7C924508BF022623D0B97CDD
S3152000DA208A4508BF03261ED0FA7C924508BF0426E5
S3152000DA3019D0397D8A4508BF052614D07A7D9245AE
S3152000DA4008BF06260FD0B97D8A4508BF07260AD00B
S3152000DA50FA7D924508BF082605D0397E8A4508BF3B
S3152000DA60092600D000267878092804D1B9F5807FC8
S3152000DA7028BF4AF0080A092D8DF800A008BF0825FE
S3152000DA800121B01E012884BF401F012814D86D1E15
S3152000DA90AB1005EB537100200DF10105C910491C8F
S3152000DAA007E04A1E121AD20029FA02F32B54401C10
S3152000DAB0C0B28842F5D3491C21B1FB6902226846CF
S3152000DAC0984780B94CB10122761E012EFB6921466A
S3152000DAD0404698BF0222984728B9FB6903220021B5
S3152000DAE0002098470020BDE8F68738B51448047D05
S3152000DAF0457D200001D0280002D142F6D01032BD4B
S3152000DB0000F020F80028FBD19DF80000810709D4F9
S3152000DB100023002200212846FFF767FF9DF800001A
S3152000DB208107EDD5002032BD1CB50548047D00F0E7
S3152000DB3009F80028FBD19DF8000000F0010016BD71
S3152000DB40440A212001236A46002120464DE77FB55D
S3152000DB5005460C46FF2210216846FAF719FB01E01C
S3152000DB607519A41B5CB11026102C6946284638BFAF
S3152000DB7026463246FFF7F9FE0028F1D000E00020C5
S3152000DB8004B070BD21B1016941F001010161704706
S3152000DB9002695208520002617047426A01F001018F
S3152000DBA0520841EA4201416270475202036942EA41
S3152000DBB001221A4302617047120401F00F0102F498
S3152000DBC070221143816570470146002010B500BFC1
S3152000DBD005A2C3B252F823308B4203D0401CC4B2F4
S3152000DBE0052CF6D3C0B210BD00000000004039401D
S3152000DBF00080394000C0394000003A4010B50C463C
S3152000DC00FFF7E2FFDFF8B8140C5410BD7CB50D46C3
S3152000DC100021044616460091FFF7D6FF38A232F9B6
S3152000DC201000F5F76EF9204600F05FF80121204636
S3152000DC30FFF7B3FF6A7E297E204600F067F8616A07
S3152000DC40EA7EDFF880046B46920602F0806201408D
S3152000DC501143A87E3246000600F04070014320465C
S3152000DC606162296800F05DF80022002100F019FAAF
S3152000DC70697A287A6A6800F029F8A87A00F02CF8E0
S3152000DC8000982A7EC00600F0605001432046120606
S3152000DC9002F04072114321660121FFF773FFE96804
S3152000DCA033460122204600F099F82969334602229C
S3152000DCB0204600F093F8696933460322204600F097
S3152000DCC08DF800212046FFF799FF73BD890701F0E3
S3152000DCD0804141EAC0717047521EC2F30B02C00553
S3152000DCE000F40000014311437047016941F002012D
S3152000DCF001610269002142F44072026101617047AC
S3152000DD00FFFF0001020104010601000010B5436A6D
S3152000DD10083101248C4002FA01F1A34319434162E0
S3152000DD2010BD2DE9F04705468A46686A94461C468A
S3152000DD30C00702D52969CA0701D5002028E04FF07F
S3152000DD40FF300722FF234FF0000E00210FF29448E8
S3152000DD50002618F80190B71C07FB09F9BCFBF9F956
S3152000DD60CA4507D3AAEB0907874203D238460A4693
S3152000DD703346CE46761CFF2E0CD80028E9D1286CD7
S3152000DD8003F0FF03000A43EA002370462B64226057
S3152000DD90BDE8F087491C0729F1D80028D8D1EEE73D
S3152000DDA0012A04D019D3032A0FD007D37047026C57
S3152000DDB0090401F47F0122F47F020CE0026C22F0B8
S3152000DDC07F4242EA016202647047026C090201F452
S3152000DDD07F4122F47F421143016470472DE9FD47BC
S3152000DDE083B00E4603990FF2FC3001254FF0FF3821
S3152000DDF04FF0FF0A0A6EC2F3C2619DF81020445C00
S3152000DE000021032AB3FBF4F0CDE900010AD1DFF8A3
S3152000DE10B0438946B4FBF0F4DFF8A80300F03BF8E2
S3152000DE20022508E0DFF87C438946B4FBF0F4DFF8EE
S3152000DE30980300F030F8C94501D8B44207D39DF8BD
S3152000DE40102003980021FFF7ABFF204620E0444630
S3152000DE500027029680467819DFF84813A1FB0001B7
S3152000DE6000F01AF8494501D8B04205D3821BA242D8
S3152000DE7002D21446BA4680467F1CFF2F01D8002CBA
S3152000DE80E9D19DF8102003985146FFF789FF4046B7
S3152000DE9006B0BDE8F0873B21DDE9002303F08CBB0B
S3152000DEA08168E1B10368002B04BF4168002916D0C0
S3152000DEB0052A07D28068B0FBF2F102FB110272B983
S3152000DEC00120704712F0030F806802D09042F7D0ED
S3152000DED005E0B0FBF2F102FB1102002AF0D000208F
S3152000DEE070472DE9F84F84B005462C6E0F46C4F3D3
S3152000DEF00B04641CE11DC9080191FFF765FEDFF8DC
S3152000DF00C021214612F80080019A3846FFF7C8FF43
S3152000DF1000285CD06869C10148BF4FF4C87057D447
S3152000DF203C6879680091BE68BA6848EA082002927F
S3152000DF30696840EA084001224FF0000940EA086B70
S3152000DF400120090A88400390F8680709010D800D11
S3152000DF5001F0010800F0010A01212846FFF725FEFD
S3152000DF60DFF868126961009808B94FF001090021AD
S3152000DF702846FFF707FE686A20F008006862686A8C
S3152000DF8000F092F818BFB0F1007F04D1E4B9686AB6
S3152000DF9040F08060686201212846FFF7F3FD286E75
S3152000DFA03F0607F0407720F04E7040EA485040EA9E
S3152000DFB0C94007432F66019804280AD801A991F879
S3152000DFC00090CDF804900BE000980028E3D00420C0
S3152000DFD048E004229146019202E00097CDF808809D
S3152000DFE08EB301998E423CBFF0B201900398E96D41
S3152000DFF001F01F018142FAD003903CB101995246AB
S3152000E000204600F061F8834601980444C5F864B0C0
S3152000E01001990098761A0028E2D00746DDF8088094
S3152000E020E86DC0F304400028D7D0C845696F534631
S3152000E030384638BF5FFA88F94A464F4400F07CF8E4
S3152000E040A8EB0908ECE7E86D039900F034F8FAD05C
S3152000E0502A6E22F480122A66009848B96969480512
S3152000E060FCD5002005B0BDE8F08F0094C14602968D
S3152000E07002980028F5D0009C0646C846E86DC0F3F5
S3152000E08004400028F1D04645696F5346204638BFE4
S3152000E0905FFA86F84246444400F04EF8A6EB08069E
S3152000E0A0ECE7204688E5606A00F04070B0F1807F9A
S3152000E0B07047E06DE97800F01F0088427047000045
S3152000E0C038AB2020F7FFFFF830B50024491E03297E
S3152000E0D003462ED8DFE801F002050E1A13F8014B8D
S3152000E0E027E05C781978002A14BF44EA012441EA23
S3152000E0F004241EE05C789D78197824021AB90C4312
S3152000E10044EA054415E044EA014411E0DD789978B3
S3152000E11058781C7832B944EA002444EA014444EA97
S3152000E120056406E02246040444EA026444EA012423
S3152000E1302C43204630BD000030B50C0C0D0A521E73
S3152000E140032A21D8DFE802F002050C1500F8011B8E
S3152000E15030BD13B90170457030BD0570417030BDBA
S3152000E1601BB901704570847030BD04704570817094
S3152000E17030BD0A0E23B9017045708470C27030BD5F
S3152000E180027044708570C17030BD436A104ADB0747
S3152000E19044BF52691047936918470D4841680D4896
S3152000E1A0F3E7000000CA9A3B094881680A48ECE771
S3152000E1B00748C1680948E8E7054801690848E4E7CF
S3152000E1C00094357700CA64D60000CA9A033F00013E
S3152000E1D01CAB2020004039400080394000C0394027
S3152000E1E000003A40010204081020408010B500F0DB
S3152000E1F08FF802294AD11168C1F34001002945D080
S3152000E20000F128011068C0F34010087013685B0AFB
S3152000E21003F00303012B05D002D3032B06D003D32F
S3152000E220012004E0022002E0052000E006204870DC
S3152000E23010683A4A41F2883340F6C414C00800F008
S3152000E240010008731069C00B00F0010048731068C4
S3152000E250800F012806D002D3032808D005D344F620
S3152000E260206005E042F2107002E0184600E02046E9
S3152000E27048601068C0F3407000B123468B60106977
S3152000E280400900F001008873002010BD012010BD58
S3152000E29010B500F03DF8012902BF1168C1F3400115
S3152000E2A0002933D100F128011068C0F3011008704D
S3152000E2B013685B0A03F001034B70106840F6C41321
S3152000E2C0C00800F00100087314480269920902F0A0
S3152000E2D001024A73046841F28832A40F012C06D049
S3152000E2E002D3032C08D005D344F6206405E042F27D
S3152000E2F0107402E0144600E01C464C600068C0F32F
S3152000E300407000B11A468A60002010BD012010BD61
S3152000E310034A1168C1F381117047000060441F4011
S3152000E32004800F4010B5039C01F00F01240104F076
S3152000E33010042143016002B1136010BD009808B19A
S3152000E340019901607047826A490001F0060122F0B6
S3152000E350060211438162704731B1D0F8C01041F0F6
S3152000E3600201C0F8C0107047D0F8C02022F0020287
S3152000E370C0F8C02070470029816C0BD021F04001E5
S3152000E38092018164836C02F0400242F008021A4333
S3152000E3908264704721F00801816470470B46026C45
S3152000E3A0416A006804F02AB8416A006804F089B816
S3152000E3B00A46416A006804F094B8816CCA0405D5FF
S3152000E3C04023416A0068152204F00AB98A0448BF2E
S3152000E3D08023F6D4002070472DE9F8430746894666
S3152000E3E0154640F2297641F66A1838687A6A49460F
S3152000E3F09047044641F669118C4218BF44451BD10B
S3152000E40097F89203022818BF032815D1444505D151
S3152000E410386864224FF0B05104F092FB3846FFF77B
S3152000E420CCFF28B92DB16D1E1CB1B442DDD100E060
S3152000E43034462046BDE8F283002CF3D040F209741E
S3152000E440F0E700002DE9F04315A68BB000F0C2FDE1
S3152000E4500D27F5F7A1F90297256C01218DF81110EA
S3152000E4602D040395002102AB0091002201936946F9
S3152000E47000F075FE38B90598DFF8881A084205D0ED
S3152000E4804FF4E36009E040F2097006E0C105E9D5E2
S3152000E490C0F343200728E5D000200BB0BDE8F08369
S3152000E4A00000000000000000F0B5044611A58BB066
S3152000E4B02421D5E90060CDE9006002A80C27F5F7F4
S3152000E4C06BF902970026039603210222DFF8543ABD
S3152000E4D002AD8DF810108DF811206946099320465B
S3152000E4E001950096FFF778FF08B140F209700BB04E
S3152000E4F0F0BD000000000000000000002DE9F04FF4
S3152000E5008BB004460E4602A8242100BF1FA5F5F7AE
S3152000E51043F9D5E900AB04220127CDE900AB00F091
S3152000E52039F8039640F6B83901930092F4F7A5F925
S3152000E53007460D46DFF8F009F4F7A9F917EB0008AE
S3152000E5404D412068626A69469047B8B9002E059801
S3152000E55017D10027C4F86C025FEA0900A9F1010966
S3152000E56018BF002F06D0F4F788F9A942E9D301D8BD
S3152000E5704045E6D338460BB0BDE8F08F40F209702F
S3152000E580F9E700284CBF00270527E5E70000000033
S3152000E59000000000029702AB8DF811200022704780
S3152000E5A02DE9D8438BB000F04DFD00BF11A64FF4E6
S3152000E5B0003201230392D6E900898DF81130032712
S3152000E5C0CDE9008902AA00230297694601920093A9
S3152000E5D02068626A904700281EBF0598DFF8441914
S3152000E5E0084203BF02222264002040F209700CB0C8
S3152000E5F0BDE8D083000000000000000030B5CB68E5
S3152000E60000F521729B0F1370CC68A40E04F00F0442
S3152000E6105470CB681B0C9370CC68240AD470CB68DA
S3152000E62013718B681C0D1B0C03F00F03D48013721F
S3152000E6308B681C0403D5558945F0010555815C047A
S3152000E64003D5558945F0020555819C0403D5558986
S3152000E65045F004055581DC0403D5558945F00805A8
S3152000E660558140F6FC754C6805EA830505EB9475E3
S3152000E670E40E04F00704958194734B681B0E03F097
S3152000E6800703D3734C68640D04F0070414744B68B5
S3152000E6909B0C03F0070353744C68E40B04F0070447
S3152000E6A094744B689B0A03F01F03D3744C68640967
S3152000E6B004F01F0414750B7903F01F0353750B68C0
S3152000E6C0002B03D5558945F0100555815B0F03F0C6
S3152000E6D0030393750B689B0E03F00703D3750C6831
S3152000E6E0A40D04F00F0414760B689C0203D55589FB
S3152000E6F045F020055581DC0303D5558945F04005B5
S3152000E70055811C0403D5558945F0800555815C0447
S3152000E71003D5558945F4807555819C0403D55589C3
S3152000E72045F400755581DC0403D5558945F480658B
S3152000E73055819B0A03F003035376096840F6FF745C
S3152000E74000F55B73090A01F0030191769189A142D4
S3152000E75008D0927C0220491C521C90404143490A11
S3152000E760596003E0816C41F4807181644FF400703C
S3152000E770186030BD38B504460FF22C0194F8880293
S3152000E7800DA500F00702C0F3C30051F8223055F85A
S3152000E790200061680A2243432068B3FBF2F204F0AA
S3152000E7A0EFF9E06331BD0000A086010040420F0072
S3152000E7B08096980000E1F505000000000A000000A0
S3152000E7C00C0000000D0000000F00000014000000E7
S3152000E7D01A0000001E000000230000002800000090
S3152000E7E02D00000034000000370000003C0000002F
S3152000E7F0460000005000000080B5816CCA0507D590
S3152000E80000F223314A78002A1CBF097800290AD150
S3152000E81000F297210A784978521C491C4A43C0F8CD
S3152000E8208823002002BD9202AF23C0F8882301214D
S3152000E8308DF8023000238DF803108DF801106946FB
S3152000E8408DF8003000F006F80028EAD040F21E705D
S3152000E85002BD00002DE9F0438BB004460E4602A807
S3152000E860242100BF16A7F4F797FFD7E90089CDE941
S3152000E870008932787078B178F378062542EA00224A
S3152000E880029502AD204642EA01420195694642EAD6
S3152000E8900362DFF8703603920222099300238DF873
S3152000E8A011200093FFF798FD10B140F2097005E0A2
S3152000E8B02046FFF7C7FD08B14FF4E360EDE5000001
S3152000E8C000000000000000002DE9F04301F18F0652
S3152000E8D001F1CF057778B27896F800C0AB7B00F5CA
S3152000E8E05C743F0207EB02476A7CBC4403FB0CF3D3
S3152000E8F000F53B7C5A43A2603279777900F0D2F852
S3152000E900F77800F0CAF8E760F279377A00F0CAF8AB
S3152000E910B77900F0C2F82761B27AF77A00F0C2F828
S3152000E920777A00F0BAF8676101F1AF073B788CF887
S3152000E9301030BA788CF811203B798CF81330BA79DC
S3152000E9408CF814203B7A8CF81530BA7A8CF816207D
S3152000E9503B7B8CF81730BA7B8CF818203B7C8CF8E4
S3152000E96019307A7C8CF81A20FB7C8CF81B30727B51
S3152000E97001F5F7738CF800201E7800F262321670CB
S3152000E9807E7D8CF81C60D0F848E046EA0E06866448
S3152000E990BE7D8CF81D6097F819C000F5437686F881
S3152000E9A000C097F81AE086F801E097F81B8086F8F1
S3152000E9B0028097F81CC086F803C095F81DE000F584
S3152000E9C04C7C8CF802E095F81E808CF8038095F834
S3152000E9D01FE08CF804E011F8EF8F8CF8058091F891
S3152000E9E00EE08CF814E097F81E8086F80480FF7FEE
S3152000E9F077712F78B7716F78F771AF783772EF78B4
S3152000EA007772EF7E8CF800702F7F8CF80170EF798B
S3152000EA1095F808E095F805803F0407EB0E6795F812
S3152000EA2006E007EB0E274744F760D0F848E05FEA98
S3152000EA30CE5948BF2760AF7A77742F7BF7746F7BE8
S3152000EA403775AF7B7775EF7BB7752F7CF7756F7C46
S3152000EA503776AF7C7776EF7CB7763F0267606C7D42
S3152000EA60E507F47603D5846C44F4007404E0650766
S3152000EA7003D5846C44F4006484640C7B487BCD7A93
S3152000EA80240444EA0064887A44EA05240443CCF842
S3152000EA901040997A1172BDE8F083D7196A7C5F43DA
S3152000EAA057437047AB7B120202EB074270470000C8
S3152000EAB02DE9704C90B005460C46164600F002F93A
S3152000EAC02DA01421D0E900ABCDE900AB02A8F4F7C4
S3152000EAD063FE0022012308924FF400728DF8253040
S3152000EAE00821049305F16C03039207AA059302AB50
S3152000EAF001920093079128686A6A69469047002820
S3152000EB0002BF0A98DFF83017084230D12A7B1AB1A3
S3152000EB10022A0ED013D320E0002005F16C0305F164
S3152000EB206C0151F8202011BA43F82010401C80288F
S3152000EB30F5D3ACB105F16C00815D217015E00020A4
S3152000EB4005F16C0205F16C0352F8201049BA43F81E
S3152000EB502010401C8028F7D3EBE74FF4E16008E053
S3152000EB6005F16C012846FFF7AFFE002001E040F2D8
S3152000EB70097010B0BDE8708C000000000000000095
S3152000EB802DE9F84FFF26012990B0DFF8B04609D0CD
S3152000EB9002290CD14AF655214FF6FF790825216026
S3152000EBA04E4609E05A2204252260B14604E080211F
S3152000EBB0042521604FF0C009824620689AF80C206F
S3152000EBC01AB1022A06D05ED368E000BA36BA2060AF
S3152000EBD099FA89F937A02421D0E90087CDE9008761
S3152000EBE007A81327F4F7D8FD00F0B3FA01220797F8
S3152000EBF08DF825204FF0000B8DF80A2002AB0492E9
S3152000EC0007AACDF820B06946039506940192009391
S3152000EC10DAF80000DAF824209047002802BFDFF84F
S3152000EC2004830A9810EA080F3BD12768C4F800B07D
S3152000EC3022A3D3E90001CDE9000100F043F800F05A
S3152000EC4088FA012202AB8DF825200E218DF80A20A4
S3152000EC50049207AA03950594019200930791DAF886
S3152000EC600000DAF8242069469047002804BF0A9855
S3152000EC7010EA080F18D121684F403E404E4514BF78
S3152000EC800120002012E042BA70BA226099FA99F166
S3152000EC9012BA06BA226091FA81F99BE74FF4E16035
S3152000ECA004E04FF4E46001E040F2217011B0BDE8C9
S3152000ECB0F08F0000000000000000000000000000AF
S3152000ECC00000000007A82421F4F766BD7CB50D4698
S3152000ECD0012D044602D12AB1052503E0022D01D1DA
S3152000ECE002B106250320B7238DF8030000268DF8F0
S3152000ECF0023069468DF8015020468DF80060FFF7F6
S3152000ED00A9FD10B140F21E7076BD84F8015376BD80
S3152000ED1070B50446002594F82960012E15D0022EE0
S3152000ED2004D0052E10D0062E25D1012520680221DB
S3152000ED30FFF709FB00F025F8E0B900F01EF8C8B986
S3152000ED40A06C40F4005010E0012520680121FFF757
S3152000ED50FAFA012100F016F860B92A46012100F0DE
S3152000ED600EF838B9A06C40F48050A064002084F8D6
S3152000ED70936370BDD1E0002070BD2A460221204653
S3152000ED80A4E702212046FBE6F8B50C4600F2023540
S3152000ED90E97901239340194205D12F79072F02DB08
S3152000EDA04FF4E160F2BD04F00F04032144EA02149B
S3152000EDB08DF80310B92600F004F800B10AE02C7093
S3152000EDC0F2BD00278DF8026069468DF801408DF866
S3152000EDD000703FE540F21E70F2BDFEB50D460446BA
S3152000EDE000220121FFF7D0FF10B140F21B70FEBDBB
S3152000EDF094F829006168DFF82C78052818BF0628C2
S3152000EE00206807BF01266A0800262A4603F0B8FEB6
S3152000EE10E06394F82900012825D0022803D005288C
S3152000EE2021D0062838D1DFF8001801970091002359
S3152000EE3000F0ECFBDFF8F4070197009000F0E0FB10
S3152000EE40DFF8EC0700F060F8DFF8E82700F0D4FBE5
S3152000EE50DFF8E40700F058F8DFF8E0270021DFF8B4
S3152000EE60E007FFF76BFADFF8DC070197009000F068
S3152000EE70BDFBDFF8D40700F047F8DFF8D02700F015
S3152000EE80B1FBDFF8CC0700F03FF8DFF8C8270021F8
S3152000EE90DFF8C407FFF752FADFF87C0900F034F8F0
S3152000EEA0DFF878290021DFF87809FFF747FADFF83D
S3152000EEB0AC07DFF87019019000230091DFF868296C
S3152000EEC00021DFF86809FFF739FADFF8640900F056
S3152000EED01BF8DFF860290021DFF85C09FFF72EFA1E
S3152000EEE02046FFF715FF10B140F21270FEBD26B185
S3152000EEF000F00EF8E06300F019F8012084F8920380
S3152000EF000020FEBD8800F9FF01970090002370477E
S3152000EF10616820682A4603F033BE40F2127070BD45
S3152000EF20000000000800F9FF40420F00206801227F
S3152000EF300121FFF720BA20680121FFF70DBA000052
S3152000EF402DE9F04321A68BB000F044F80227F4F710
S3152000EF5023FC0026032202AB0297039669468DF80E
S3152000EF601120019300962068636A984750BB05A834
S3152000EF7004F14C0190E86C0081E86C00089A04F5D5
S3152000EF801C70120E02700899090A4180089A0271B3
S3152000EF900799090E4171079A120C82710799090A7D
S3152000EFA0C171079A02720699090E817206990902A1
S3152000EFB0C160059A41EA1261C1600599090A017486
S3152000EFC0002001E040F20970FFF767BA0000000058
S3152000EFD000000000044602A8D6E90089CDE9008990
S3152000EFE0242170472DE9F0438BB000F02BF800BFA9
S3152000EFF012A60927D6E90089CDE9008902970322BE
S3152000F000216C8DF8112002AB002201930092090495
S3152000F01003912068636A6946984758B905A804F1A0
S3152000F0205C0190E86C0081E86C002046FFF7E6FA68
S3152000F030002001E040F20970FFF72FBA000000001F
S3152000F04000000000044602A82421F4F7A5BB000016
S3152000F05010B5034603F55C731C7F0020072C09D8E6
S3152000F060DFE804F0040A0A080C0E10121B68511877
S3152000F0708B4200D2042010BD5B68F8E79B68F6E758
S3152000F080DB68F4E71B69F2E75B69F0E72DE9F843F3
S3152000F09090B004460D4690469946FFF713FE00F0C1
S3152000F0A058F80FF67400D0E90067CDE9006704F13F
S3152000F0B044067168CA0502D5B9F5007F09D1D4F88E
S3152000F0C06C03484524BFE169494502D319F0030F73
S3152000F0D002D040F20C7039E02046FFF7B3F910B1A8
S3152000F0E04FF4E36032E0189FCDF80C90049701238B
S3152000F0F00499059512258DF808300795012904BF36
S3152000F10011220792CDF820807168C80503D403998F
S3152000F11042464A4308928DF82530474B0E9300F01D
S3152000F12084F8694600F01BF880B9012F0DD99DF8A7
S3152000F1300810002904BF3078002806D12046FFF7A2
S3152000F140B3F910B140F2177000E0002011B0BDE80D
S3152000F150F08302A81421F4F71FBB694600932046CA
S3152000F160FFF73AB92DE9F84F90B081468846144604
S3152000F1701D4607A824210FF2A877F4F70DFBFFF709
S3152000F180E8FFD7E900ABCDE900AB09F14407796880
S3152000F190CA0502D5B5F5007F0AD1D9F86C03A84275
S3152000F1A024BFD9F81C10A94202D315F0030F14D09E
S3152000F1B040F20C7010E0012E0DD99DF808100029A0
S3152000F1C004BF3878002806D14846FFF76DF910B1FC
S3152000F1D040F2177000E0002068E5D9F80000406A88
S3152000F1E0C201FAD501221A9E0395192304968DF899
S3152000F1F00820049ACDF8188007930F4B012A04BFE4
S3152000F2001821079108947968C805694648465CBF65
S3152000F2106543089501220E938DF8252000F005F808
S3152000F220FFF7DAF80028C6D0D6E707AA019202AB84
S3152000F23000930122704700000800F9FF74AB2020DC
S3152000F2402DE9FE4F0446206803F0D6FE204603F043
S3152000F250B9FE002840F0A38104F12805687801282A
S3152000F26052D0022804D005284ED0062840F08480AB
S3152000F270DFF8B4230021009200230191DFF8CC258A
S3152000F280DFF8CC05DFF8ACB3FFF74CF80020DFF849
S3152000F2909C13019000230091DFF8B8250021DFF8A8
S3152000F2A0B805FFF73FF80020DFF8847301900023AC
S3152000F2B000975A460021DFF8A405FFF733F800200F
S3152000F2C0DFF87893DFF87883DFF86CA301900023CA
S3152000F2D0CDF800A04A4600214046FFF723F8DFF884
S3152000F2E08065D14901960023009100F08FF901969F
S3152000F2F0CE49009100F084F90196002300975A46E2
S3152000F30000F07AF900F056F90020CE49019000234A
S3152000F3100091DFF850250021DFF84C05FFF702F8B1
S3152000F3200020DFF828B3C84F0190009700235A46E3
S3152000F3300021DFF83805DFF82083FEF7F3FF0020F1
S3152000F340DFF81093DFF808A30190CDF800A0002382
S3152000F3504A4600214046DFF80865FEF7E3FF01969E
S3152000F360B849009100F042F90196002300975A46C9
S3152000F37000F038F900F01EF90120DFF89C14019006
S3152000F38000F049F9FEF7CEFF0020DFF89C74DFF885
S3152000F3909CB4DFF8908401900023CDF800803A4693
S3152000F3A000215846FEF7BEFF0021DFF88C94DFF8D7
S3152000F3B084A4DFF87C6401910023009652464846D7
S3152000F3C0FEF7B0FFDFF89824DFF84C14019200F026
S3152000F3D022F9FEF7B3FFDFF89814CDF800800191EB
S3152000F3E000233A4600215846FEF7A8FFDFF87004AE
S3152000F3F0002301905246009600214846FEF79EFFC4
S3152000F400287B40B30021DFF86C2401910023009271
S3152000F41000220521DFF86004FEF784FF0FF2F44096
S3152000F420DFF8246401686A46009106213046F3F726
S3152000F43089FD012200F0BAF86A7B00F0B7F8686807
S3152000F440F3F72EFA687B421E9241D20F00F0AEF8F7
S3152000F450A868F3F725FAA87BC0B10021DFF81C6461
S3152000F460DFF81C7401910097002300220621304604
S3152000F470FEF758FFDFF8E8030097019000230022EB
S3152000F48006213046FEF75AFFFFF755FD206800217A
S3152000F490FEF759FF00F09CF8686100F094F82046CA
S3152000F4A0FEF782FF10B140F2137078E0002120466B
S3152000F4B0FFF724F848B9A87BDFF8C81308B1DFF8AE
S3152000F4C0C8132046FFF71AF810B140F2147066E010
S3152000F4D02046FFF735FD10B140F20D705FE0204663
S3152000F4E0FFF75EF810B140F21A7058E02046FFF799
S3152000F4F079FD10B140F20F7051E02046FFF73AF93E
S3152000F50001212046FEF74AFF10B14FF4E26046E0A3
S3152000F51000F063F810B140F21C7040E000F041F8B2
S3152000F52010B140F20A703AE02878401E03D0401EFF
S3152000F530012822D924E06878052818BF062808D093
S3152000F540286A810748BFBE4909D4C00725D5BD49C9
S3152000F55005E095F8201011F00C0F1ED0B749204673
S3152000F560FFF73BFCD8B92046FFF746F9002814BF21
S3152000F57040F21F7084F88C0311E04FF4E1600EE036
S3152000F5806878052818BF062807D02046FFF7C0FB55
S3152000F5900028E8D040F2127001E040F20C70BDE87D
S3152000F5A0FE8F4FF400712046FEF702BF062130463B
S3152000F5B0F3F7F5BC01960023CDF800A04A460021BA
S3152000F5C04046FEF7BBBE206804F1140103F0CBBA17
S3152000F5D061682068AD4A03F0D3BA00220021204694
S3152000F5E0FFF766BA0021A148FEF7A8BE00239D4A70
S3152000F5F000219D48FEF7A2BE00219848FEF79EBE38
S3152000F6000023944A00219448FEF798BE8F4A002191
S3152000F6108F48FEF793BE00230091804A0021804840
S3152000F62070470000B9700100E4831F40E8831F4043
S3152000F630EC831F4000861F40F0831F4004861F4036
S3152000F64000821F40CC831F40C8831F40F0851F4087
S3152000F650C4831F40F4851F40D4811F40B940010058
S3152000F660B0F88E0210F4C06018BF0120C0B27047F7
S3152000F670F8B504460D4694F8FF6203208DF8030082
S3152000F680B32300278DF802308DF80070694606F006
S3152000F690F8062E438DF801602046FFF7DBF808B107
S3152000F6A0FFF798BB84F8FF6284F88C53F2BD2DE9EE
S3152000F6B0FC4700F036F838B104200FE000F029F8B6
S3152000F6C0FFF7E4FC50B9564444B1D8F820A0A2452F
S3152000F6D032BFA4EB0A04A2460024EFE7BDE8F68772
S3152000F6E02DE9FC4700F01DF838B104200FE000F0AA
S3152000F6F010F8FFF737FD50B9564444B1D8F820A08A
S3152000F700A24532BFA4EB0A04A2460024EFE7BDE8D7
S3152000F710F68709EB462100954FF40073F21940460F
S3152000F72070478946174680461D462A4639462C4646
S3152000F7300026FFF78DBC00002DE9F04C8BB0044667
S3152000F7400E46154602A8FFF7BEFA0FF2DC1004F5A6
S3152000F7505C71D0E900ABCDE900AB087F07281BD848
S3152000F760DFE800F00E0C0C1A0A080604486908E0C7
S3152000F770086906E0C86804E0886802E0486800E096
S3152000F78008688969B0FBF1F201FB120000B1521C36
S3152000F790B24228BFAA4232D204202DE001232321DF
S3152000F7A003963B4E8DF8113002AB02910027099645
S3152000F7B00022019369460097204640F20977FEF71A
S3152000F7C00BFEC0B9242102AA029100230192002235
S3152000F7D00395FFF7C2FC70B900220223039226206C
S3152000F7E08DF8113002AA0290002301920022099678
S3152000F7F0FFF7B3FC00B138460BB0BDE8F08C2068AB
S3152000F800406AC201FBD5A06C4D434E43C1055CBF87
S3152000F81076026D02C2E70000D8831F40E4851F40B0
S3152000F820E8811F40D4831F40DC851F40E4811F40B0
S3152000F830D0831F40E8851F40E0811F4000EA320642
S3152000F8400075190380BA8C0100001C40F8851F4002
S3152000F850F4811F40FC851F40F8811F40FC811F401A
S3152000F86089700100EC851F40DC811F40D8811F4034
S3152000F87061400100DC831F40EC811F40AC801F40AB
S3152000F8809C821F400080FF408080FF40801A060037
S3152000F8900800F9FFF8B5044604F2FD250E46AF78B8
S3152000F8A0307807F0870700B101207178B3238DF8EF
S3152000F8B00230C90041EA801103208DF803000020A0
S3152000F8C08DF8000000F01EF808B1FFF783BAAF707C
S3152000F8D02F78B07807F0E00700B10120F1780322F5
S3152000F8E0B12341EA800130798DF8032041EAC00135
S3152000F8F08DF8023000F006F810B140F21D70F2BD0E
S3152000F9002F70F2BD20460F4369468DF80170FEF731
S3152000F910A1BF000001000000000000000000000060
S3152000F92000000000000000000000000000000000B1
S3152000F93010B5039C01F00F01240104F010042143AB
S3152000F940016002B1136010BD009808B101990160F1
S3152000F9507047826A490001F0060122F0060211432F
S3152000F960816270470B46026C416A006802F046BD10
S3152000F9700A46416A006802F070BD416A006802F0DA
S3152000F980A0BD0A46416A006802F0ABBD416A006824
S3152000F9904023132202F024BE2DE9F84306460F46E3
S3152000F9A0154640F2297841F66A193068726A394656
S3152000F9B09047044641F669118C4218BF4C4505D044
S3152000F9C07868DFF8281BC2680A4213D096F8BC0074
S3152000F9D0032818BF02280DD14C4505D13068642272
S3152000F9E04FF0B05103F0ACF83046FFF7CFFF20B10F
S3152000F9F0444602E00CB140F2097425B16D1E002C7C
S3152000FA0018BF4445D1D12046BDE8F2832DE9F04305
S3152000FA1014A58BB0044602A8D5E90089CDE9008952
S3152000FA2024210D27F3F7B8FE0297266C0121DFF873
S3152000FA30BC2A8DF8111036040992039602A90023D8
S3152000FA400191022200F09BFC40B90598C105F5D52D
S3152000FA50C0F343200728F1D0002007E340F20970C5
S3152000FA60FBE700000000000000000000F0B504469F
S3152000FA7011A58BB02421D5E90060CDE9006002A84C
S3152000FA800C27F3F789FE029700260396032102220C
S3152000FA90DFF8583A02AD8DF810108DF811200122AA
S3152000FAA009936946019520460096FFF775FF08B130
S3152000FAB040F209700BB0F0BD00000000000000000D
S3152000FAC02DE9D84309A68BB000F0D8FA0327F3F71F
S3152000FAD063FE0026082200F01BFB20B90598000CC7
S3152000FAE02064002001E040F20970D4E1000000000B
S3152000FAF0000000002DE9FC4D074600BF1FA090B076
S3152000FB000D461A9E9046D0E900AB1C4607A8CDE9C3
S3152000FB1000AB2421ED07F3F73FFE00F035FC06206D
S3152000FB200F2107904FEA880065F07F4581408D437D
S3152000FB30844025430122089540238DF82520384608
S3152000FB400393049205960399FFF71BFF10B140F229
S3152000FB500A7011E002AA07A90092019138687B6A0F
S3152000FB6069469847002802BF0A98DFF89C19084280
S3152000FB7014BF40F20970002000F0FEBB0000000018
S3152000FB800000000030B50B6800F1A8021B0F1370AF
S3152000FB900C68240E04F00F0454700B681C0203D565
S3152000FBA0558845F0010555801B0D03F00703137199
S3152000FBB00B681B0C03F00F0353710B681C0403D551
S3152000FBC0558845F0020555809B0A03F01E03937164
S3152000FBD00B7803F00303D3714968537891602BB1F6
S3152000FBE0022B06D03CBF0221416409E00124446473
S3152000FBF006E00423436491788C0744BF08234364BA
S3152000FC0051794B0703D5846C44F004048464D1797C
S3152000FC10CA0703D5836C43F080038364890703D521
S3152000FC20826C42F04002826430BD00002DE97043B0
S3152000FC302AA690B0044607A8D6E90089CDE900890E
S3152000FC402421DFF8C858F3F7A7FD00F09DFB00F04C
S3152000FC50E7F800F047F810B140F2157032E00122C3
S3152000FC6000238DF825203321089302AB049207AA9E
S3152000FC700791082105950093019203912068626AF5
S3152000FC8069469047002803BF0A98DFF87C18084287
S3152000FC9040F2097016D1217B286841B1022901D092
S3152000FCA013D317E000BA2860686800BA686004F1C8
S3152000FCB06C01D5E90002C1E9000229462046FFF77A
S3152000FCC061FF002010B0BDE8708340BA28606868E4
S3152000FCD040BAEBE74FF4E160F4E7000000000000D3
S3152000FCE000000000216C204642E62DE9FF41174620
S3152000FCF0002301AA00259C46044682E828100E46C9
S3152000FD00DFF8085800F08CF8616C00297DD0B4F833
S3152000FD109000410579D500953B4632460021204684
S3152000FD20FFF7E8FE00284DD1207BF0B1022801D054
S3152000FD300FD36AE029686A6808BAE968286010BAA9
S3152000FD406860A86800BAA86008BAE860286900BA9E
S3152000FD500AE0296848BAA9682860686840BA6860D5
S3152000FD6048BAA86000F056F82861286801A9ADF8BD
S3152000FD700E006868ADF80A00020CA86848800A815F
S3152000FD80020CE8688A800122BA40030CADF80430E0
S3152000FD9031F81610114238D0000200F47F4029694C
S3152000FDA04FEA860840EA116020FA08F000F00F00BA
S3152000FDB0B8422AD100953B46324601212046FFF71C
S3152000FDC099FE10B140F2097021E0207B48B102284B
S3152000FDD001D017D319E0E96808BAE860286900BAA3
S3152000FDE02861E9682869090201F47F4141EA106126
S3152000FDF021FA08F101F00F01B94214BF40F2167042
S3152000FE00002004E000F006F8EAE74FF4E16004B0D1
S3152000FE10BDE8F081E868296940BAE86048BA7047C9
S3152000FE204FF480712846F3F7B7BC00002DE9D8437C
S3152000FE301AA78BB004460E46D7E90089CDE900897A
S3152000FE4002A800F0BBFDFFF74DFF10B140F2157080
S3152000FE5021E00621012202918DF8112016B1012EF2
S3152000FE6015D017E00021039102AA002101920091EA
S3152000FE702068626A69469047002802BF0598DFF825
S3152000FE806C16084214BF40F20970002003E00220DD
S3152000FE900390E9E704200CB0BDE8D0830000000001
S3152000FEA00000000070B5CB6800F18C029B0F137028
S3152000FEB0CC68240C5470CB681B0A9370CC68D47021
S3152000FEC08B681D0D1B0C03F00F03958093718B68B7
S3152000FED01C0400F09DF85C0400F09AF89C0403D5FD
S3152000FEE0158945F004051581DC0403D5158945F0EF
S3152000FEF00805158116784FF4007416B1012E35D0F9
S3152000FF0049E040F6FC70012500EA8300D0604B688A
S3152000FF1040EA9370D0604868C00E00F00700107465
S3152000FF204B681B0E03F0070353744868000D00F05E
S3152000FF300E0090744B689B0C03F00703D37448683B
S3152000FF40D368C00B00F007001075801C5B1C03FAF9
S3152000FF5000F09379906205FA03F3B3F5007FD3623C
S3152000FF6019D05843D462400A906214E0D4628B6858
S3152000FF704FF6FF751B0403F47C13D3604C6843EAE9
S3152000FF801443D360AB4203D3846C44F010048464DE
S3152000FF905B1C9B0293624868430403D5148944F092
S3152000FFA010041481C00900F07F005075087900F014
S3152000FFB07F0090750B689B0E03F00703D3750868C6
S3152000FFC0800D00F00F0010760868810203D5138992
S3152000FFD043F040031381010403D5138943F08003C2
S3152000FFE01381410403D5138943F48073138181045B
S3152000FFF003D5138943F400731381C10403D51389F0
S3152001000043F480631381800A00F00300507670BDAB
S3152001001003D5158945F00105158170472DE9F04372
S3152001002014A68BB000F02AF80927F3F7B5FB02973F
S31520010030256C032202AB8DF8112000222D04019399
S315200100400395694600922068636A984760B905A8B6
S3152001005004F15C0190E86C0081E86C0005A920465A
S31520010060FFF720FF002001E040F209700BB0BDE848
S31520010070F08300000000000000000000044602A8F2
S31520010080D6E90089CDE90089242170472DE9F0437D
S315200100901DA68BB0FFF7F2FF0227F3F77DFB0026A3
S315200100A0032200F035F858BB05A804F14C0190E86D
S315200100B06C0081E86C00089A04F17800120E027037
S315200100C00899090A4180089A02710799090E417116
S315200100D0079A120C82710799090AC171079A02724D
S315200100E00699090E417206990902C160059A41EAEB
S315200100F01261C16005990903090D0182002001E001
S3152001010040F20970B2E70000000000000000000084
S3152001011002AB0297039669468DF81120019300964A
S315200101202068636A184700002DE9F14F82B000F17B
S3152001013028073978DFF8E047491E032900F29D8018
S31520010140DFE801F00A080402042208E00322DFF8AE
S31520010150CC4704E0022202E00122DFF8B847002161
S31520010160FFF7C3FD002838D1029839782246DFF8F7
S31520010170B047DFF8B087DFF8B06780F8BC10029B84
S315200101805968DFF8A8B7DFF8A857DFF8A8971868E5
S31520010190DFF8A4A702F0F4FC78610298DFF89C1737
S315200101A090F8BC20DFF89807022A19D17B784BB149
S315200101B0012B37D1DFF88C7700F07BF800F080F83F
S315200101C000F06FF8DFF87C0700F05AF8DFF87807BF
S315200101D000F05EF8DFF86C071AE040F21B704DE084
S315200101E0032A27D17B784BB1012B1BD1DFF85C7712
S315200101F000F05FF800F064F800F053F8DFF84C07E0
S3152001020000F03EF8DFF8480700F042F8DFF83C0737
S31520010210DFF840170190009100F0C4FBDFF83807A2
S31520010220FFF792FB0298FFF7B1FB002825D040F299
S31520010230297023E0042A20D17B784BB1012B1CD1D4
S31520010240DFF8187700F035F800F03AF800F029F8D1
S31520010250DFF8080700F014F8DFF8040700F018F8B3
S31520010260DFF8F806DFF8EC16019000230091002252
S315200102700021DFF8E406FFF767FB0020BDE8FE8FCB
S31520010280009601900023002200214046FFF75CBB27
S3152001029000940190002300220021DFF8C806FFF711
S315200102A053BB019700230095002200215846FFF7F2
S315200102B04BBB00230197002200910021FFF744BB8D
S315200102C001970023CDF800A0002200214846FFF720
S315200102D03BBB0A46022108E50A46032105E52DE92D
S315200102E0FC4D04460FF2D47090B000F05FFB00F095
S315200102F04BF894F84870B80702D5B8F5007F09D1B4
S31520010300D4F8B810414524BFE069404502D318F01E
S31520010310030F02D040F20C702EE02046FFF776FB49
S3152001032010B14FF4E36027E01A9ACDF80C800492BD
S315200103301222049B05950792012B04BF11210791D7
S3152001034000F07BF80122694B8DF8252007AA0E9330
S3152001035002AB0192012200F012F868B90499022930
S3152001036009D39DF8080030B92046FFF77FFB10B16D
S3152001037040F2177000E0002012B0BDE8F08D009326
S3152001038069462046FFF708BB02A81421F3F704BAF1
S315200103902DE9FC4D04460FF22C7090B000F006FBBF
S315200103A0FFF7F2FF94F84870B80702D5B8F5007F39
S315200103B009D1D4F8B810414524BFE069404502D39C
S315200103C018F0030F2DD040F20C7029E01A9ACDF8BF
S315200103D00C8004921922049B06950792012B04BFD7
S315200103E01821079100F029F8474B01220E9307ADFA
S315200103F002AB8DF825200195694600932046FFF72B
S31520010400CBFA68B90499022909D39DF8080030B9B5
S315200104102046FFF72BFB10B140F2177000E00020B9
S31520010420AAE72068406AC101FBD52046FFF7EEFA0C
S315200104300028CBD04FF4E360F2E7089694F84810F1
S31520010440880703D4039932464A43089270472DE917
S31520010450F84D0FF278640E468BB08046D4E900AB96
S31520010460174602A8CDE900AB00F0A8FAD8F800405B
S31520010470606AC001FAD54046FFF7C8FA10B14FF4B9
S31520010480E3602FE098F84800BF197F1E1E4D09959D
S315200104908107694640465CBF76027F0220220123FE
S315200104A0029202AA8DF811300023019201220396AD
S315200104B040F209760093FFF76FFA90B9212000F0F8
S315200104C017F8039700F01AF858B90022022303926D
S315200104D026208DF8113000F00BF8099500F00EF862
S315200104E000B130460CB0BDE8F08D00000800F9FFE0
S315200104F002AA0290002301920022704769460093C6
S315200105004046FFF749BA00000800F9FF74AB2020E6
S315200105102DE9F84F8CB00646306802F06DFD304665
S3152001052002F050FD002840F0BE8106F128046078D3
S31520010530002839D0012875D1DFF800540021019116
S31520010540002300950022DFF8F803DFF8E883FFF7A0
S31520010550EFF90020DFF8E073019000F01DFAFFF7B4
S31520010560E7F90020DFF8C8A3DFF8C0930190CDF8A2
S3152001057000A000F017FA4846DFF8F4B3FFF7D8F9E0
S31520010580CDF804B00023009500220021DFF8B00346
S31520010590FFF7DAF9CDF804B000F0FEF9FFF7D4F948
S315200105A0CDF804B0FFF78DFE0120DFF87C530190D2
S315200105B00023009500220021DFF86803FFF7B8F930
S315200105C00020DFF8A083DFF858730190009700F030
S315200105D0E9F94046DFF88093FFF7AAF90020DFF812
S315200105E074A301900023CDF800A0002200214846E3
S315200105F0FFF79EF9DFF878B30095CDF804B000F047
S31520010600D1F9C848FFF7A0F9DFF868030023019064
S315200106100022009700214046FFF796F9CDF804B055
S31520010620FFF74FFE207802281CBF0328042802D199
S315200106304FF0010901E04FF00009207B59EA000043
S3152001064026D00021CC4A01910023009200220521C7
S31520010650CA48FFF76DF90FF25040C94D01686A4645
S3152001066000911F212846F2F76DFC627B1F21284647
S31520010670F2F795FC6068F2F713F9607B421E92410E
S31520010680D20F1F212846F2F78AFCA068F2F708F953
S31520010690B9F1000F15D0012000216070B94DBA4F74
S315200106A0019100970023002206212846FFF740F9F1
S315200106B0AF48002301900022009706212846FFF724
S315200106C043F90020002120623068FFF742F9716862
S315200106D03068A54A02F054FA60613068642102F05C
S315200106E0A4FA306806F1140102F03DFA3046FFF70C
S315200106F044F9002840F0E180A44D012006F1BD0116
S31520010700B9F1000F88700FF2AC31D1E900AB18BFF7
S315200107109F4DCDE901AB03A800F050F908214FF414
S31520010720D57003910922049003AB8DF81520002280
S315200107304FF00A080293019240F20C7301A900932B
S315200107403068726A904710B140F2097007E0069846
S31520010750C0F30800B0F5D57F00F0B2800098B8F15B
S315200107600108009900F0A2808842E5D100989AE01C
S3152001077005275FEA0800A8F1010800F0C580F2F715
S315200107807CF8594501D828BF504580F0BD8000210D
S315200107903046FFF7EDF80028EBD1002203A901929C
S315200107A002913068736A01A99847002840F0AF800A
S315200107B006980028DCD5400003D5216A41F00201C4
S315200107C021620698C10103D5226A42F020022262E3
S315200107D00698E06494F8201088060CD5716A306872
S315200107E001F0B0FE10B140F225705CE0032006F165
S315200107F0BD01887001E0EA01B8D43046FFF746FC16
S3152001080010B140F20D704EE03046FFF759F910B1A4
S3152001081040F20E7047E03046FFF700FC10B140F27F
S315200108200F7040E001213046FFF79CF810B14FF4DC
S31520010830E26038E03046FFF7F9F910B140F2117065
S3152001084031E071683068494A02F09AF9606160784E
S31520010850012802D0B9F1000F0FD094F820004107EA
S3152001086084D501213046FFF7E1FA10B140F212702A
S3152001087019E030680121FFF76CF806F1BD04304616
S315200108802178FFF726FD61783046FFF725FD4FF4E5
S3152001089000713046FFF775F8002812BF40F20A7042
S315200108A03046FFF741FC0DB0BDE8F08F88423FF49A
S315200108B05DAF3046FFF761F840B140F21370F2E7C1
S315200108C0226A45F0804542F0080222620FF2DC13CB
S315200108D00127D3E90001CDE9010103A800F06EF853
S315200108E029220423039240F6B83804958DF8153051
S315200108F0F1F7C3FF82468B462648F1F7C8FF1AEB6C
S31520010900000A4BEB010B34E7002F3FF463AF40F2B3
S315200109101470C8E780F0FA0200E1F50500D4650CF1
S31520010920B0831F40BC811F40AC831F40D0811F4034
S31520010930C0831F40CC811F40BC831F40B8831F400A
S31520010940C8811F40B9700100B9400100F97001004A
S31520010950F9400100B4831F40C4811F4099700100F2
S3152001096099400100C0811F40801A060040787D0110
S315200109708970010049400100A8831F40B8811F40AA
S3152001098000C01B40B4811F40A4831F400080FF008C
S315200109900080FF0140420F00002300970022002122
S315200109A04046704700230022002170470D46D0E9BA
S315200109B000AB16469846CDE900AB07A82421F2F7ED
S315200109C0EBBEB0F8940010F4C06018BF0120C0B28D
S315200109D070472DE9F84300F03EF83919884238BFAF
S315200109E0042011D3002500E0751964B100F02AF81E
S315200109F032BFA41B264600240096EA19FFF76FFC96
S31520010A000028F1D000E00020BDE8F2832DE9F8436B
S31520010A1000F021F800253919884202D204200FE07E
S31520010A20751964B100F00EF832BFA41B26460024C6
S31520010A300096EA19FFF7ACFC0028F1D000E000206F
S31520010A40BDE8F283D8F8206009EB45214FF4007305
S31520010A504046A642704780468946D8F8B4001746D4
S31520010A601C4670472DE9F04180460E46D8F8B40061
S31520010A70144600273119884202D2042012E0EF19C8
S31520010A807CB198F8A15040466D1CA54232BF641B2B
S31520010A90254600242A46B919FFF7D9FC0028EED0AD
S31520010AA000E00020BDE8F081010000000000000008
S31520010AB0000000000000000000000000000000000F
S31520010AC000000000000000000000000000000000FF
S31520010AD00000000001460020CB4A914218BF0120A8
S31520010AE07047002810B53AD0002140F6C412017093
S31520010AF03F234170012481704FF44861C280222234
S31520010B00818040F25C4103814FF4AD63C27240F2B1
S31520010B109512C360E3230161DC2142616222836174
S31520010B207D23C161252102624B2243620B2381620F
S31520010B302F21C26246F62012036345F67D73416377
S31520010B40C1634FF4C84142644FF4C862C4708472D1
S31520010B50846304648364C1640265002010BD04209B
S31520010B6010BD00000023002A2DE9F04724D0566845
S31520010B701568AE4220D2491E0829A5EB0608A34FC7
S31520010B8007EA0847A24C40F2FF794FF6FF7A2FD8A1
S31520010B90DFE801F00513293F556B78859700D0458D
S31520010BA098BF554524D8016AC5EA01020262056A41
S31520010BB0ADB245EA0844046299E047F6FF718845DB
S31520010BC098BF8D4214D8416AC5F30E05C90B45EA73
S31520010BD0C13590494562426A01EA08446FF31E42D3
S31520010BE01443446283E043F6FF71884598BF8D42E2
S31520010BF07CD8816AC5F30D05890B45EA813586497D
S31520010C008562826A01EA08446FF31D4214438462B5
S31520010C106DE041F6FF71884598BF8D4266D8C16A5D
S31520010C20C5F30C05490B45EA41357C49C562C26AC3
S31520010C3001EA08446FF31C421443C46257E040F6AC
S31520010C40FF71884598BF8D4250D8016BC5F30B05BE
S31520010C50090B45EA013572490563026B01EA08442D
S31520010C606FF31B421443046341E0C84598BF4D45C9
S31520010C703CD8426B00F03EF84563416B21400F435F
S31520010C80476334E0C84598BF4D452FD8826B00F0A5
S31520010C9031F88563816B21400F43876327E0D04577
S31520010CA09CBF6FF07F42954220D8C16825F07F45D1
S31520010CB001F07F410D43C5608268C8EA0201816067
S31520010CC015E058498E4298BF8D420FD8C169C5F3A8
S31520010CD01505890D45EA8155C56184695168A40DBB
S31520010CE0C1F3150141EA8454846100E004231846C6
S31520010CF0BDE8F087C5F30A05D20A45EAC225704741
S31520010D0038B504460D46A87A01007BD0102879D241
S31520010D106168000400F4702005F10C0221F47021B1
S31520010D2008436060012100F083F8002869D105F1AC
S31520010D301402022100F07CF8002862D105F11C0280
S31520010D40032100F075F800285BD105F12402042166
S31520010D5000F06EF8002854D105F12C02052100F08F
S31520010D6067F800284DD105F13402062100F060F81C
S31520010D70002846D105F13C02072100F059F8002848
S31520010D803FD105F14402082100F052F8002838D15C
S31520010D9005F14C02092100F04BF890BB21686A78D5
S31520010DA0D20102F0800221F484511143216023688B
S31520010DB0AA781D49920002F00C020B4013432360CE
S31520010DC02368EA7819490B4002F003021343236092
S31520010DD02369A988C3EA014222612369E9881B0C98
S31520010DE041EA0343236162692989920AC1F3090110
S31520010DF041EA822262616268E97A120A41EA0222A2
S31520010E00626032BD042032BD00C00C400000FF07E5
S31520010E10FFFF00F80000FF7F0000FF3F0000FF1FDB
S31520010E200000FF0FFFFF3F00F3EFFFFFFCEFFFFF87
S31520010E30204697E6024601F00F010F2902F14000F4
S31520010E4050F8210008BF116C7047000038B5040026
S31520010E500D4618BF002D26D0FFF73CFE35A131F9EE
S31520010E601000F2F74EF8206820F4883040F48030E4
S31520010E7020602168204621F4825141F04001216001
S31520010E802946FFF73DFF78B9206820F48830206095
S31520010E902978012905D1D4F8A00040F00200C4F830
S31520010EA0A000002032BD042032BD00002DE9FC4106
S31520010EB0054600260027002D1446884618BF00291E
S31520010EC032D08CB32868C0F3802020B92868C0F3BB
S31520010ED000300028F6D02868C0F3003060B93946C2
S31520010EE028467F1CFFF7A6FF04210090042C6846A4
S31520010EF098BF214600220AE02868012640F4805046
S31520010F00286008E010F8013B521C08F8013B8A4290
S31520010F10F8D3641AD6D107F00F070F2F05D00F216A
S31520010F202846FFF787FF00E004263046BDE8F68114
S31520010F30000000000C060000DFF8500601680029B9
S31520010F4044BF4FF0404383600821416041627047AE
S31520010F5010B508B9012010BDDFF834160A6812F45D
S31520010F60406F03D10B6843F440630B6000F001FB33
S31520010F70FFF7E2FF002010BD7FB5040018BF00294E
S31520010F8001D0802A01D001254DE0DFF80866002531
S31520010F908B1B022B2160DFF800061CD941F2342677
S31520010FA09B1B3AD042F2DE169B1B36D045F2995650
S31520010FB09B1B2CD042F2DE169B1B28D042F26626C2
S31520010FC09B1B1FD042F2ED169B1B1BD04FF4706664
S31520010FD09B1B28D003E001F00301216023E01022AE
S31520010FE06846F6F7A3FADFF8B40530230360DFF885
S31520010FF0B065266000215DF82130491C0329036173
S31520011000F9D910E000F012F822F0100203E000F006
S315200110100DF842F01002026003E0C16941F01001AF
S31520011020C16100F0ADFA284604B070BDC16921F056
S315200110301001C1610268704738B5006815460C4633
S31520011040DFF85025811A022922D9C91E1CD041F266
S315200110503122891A23D042F2DE12891A22D045F290
S315200110609952891A1BD042F2DE12891A1AD042F2FB
S315200110706622891A13D042F2ED12891A12D04FF440
S315200110807062891A18D01FE0A06840F4407004E00D
S31520011090A168000200F440700843A06014E0606873
S315200110A0A16803E06068A16840F4402040F48060B4
S315200110B0606041F47F4106E06068A16840F4806089
S315200110C0606041F47E41A1602BB110221946284669
S315200110D0F6F72CFA00E000250023A561E36131BD76
S315200110E0F0B503464FF070420021BFF34F8FDFF872
S315200110F0B464DFF8B444306843F6E075C7031AD503
S315200111003167BFF34F8FF76EC7F34E3CC7F3C90E56
S3152001111005EA4C1040EA8E70E0605FEA0E00AEF1FF
S31520011120010EF5D15FEA0C00ACF1010CEED1BFF353
S315200111304F8FBFF36F8FBFF36F8FDFF8707401206E
S315200111403B60DFF86C3438611868000703D4104619
S31520011150421E0028F8D1386A000602D0FF21B96262
S3152001116004210820986012B9042918BF0321BFF36E
S315200111704F8F3068C20319D500233367BFF34F8FD2
S31520011180F26EC2F34E33C2F3C90605EA431040EAB2
S31520011190867020603046461E0028F6D11846431E2A
S315200111A00028F0D1BFF34F8FBFF36F8FBFF36F8F3F
S315200111B00846F0BDF8B590B00C4658B1012C09DCB3
S315200111C0002A18BF002B05D0169919B1179F17F0C1
S315200111D00F0F01D0012015E02402002504F48074AC
S315200111E040F223260095344301941024029403935C
S315200111F01346049108AA05976946FFF71DFF68461D
S31520011200FFF76EFF11B0F0BDF8B590B048B10129D6
S3152001121007DC002A18BF002B03D0169E16F00F0FED
S3152001122001D0012014E0090201F4807140F2232546
S31520011230039229430027019108AA049300230097CA
S31520011240694602970596FFF7F7FE6846FFF748FFBE
S3152001125012B0E0BD2DE9F04305000E4685B091465A
S31520011260984618BF002E05D0B9F1000F18BFB8F166
S31520011270000F01D1012020E00C9C0DE019F8011B83
S31520011280135C401C594008F8011BB842F6D31021C3
S315200112903046E41B00F054F874B11027102C01AB32
S315200112A0324698BF27461020012100902846FFF795
S315200112B0ABFF002001AAE8E7002005B0BDE8F083D6
S315200112C0F8B505460E4614460027FCF79DFA04E0BC
S315200112D0721ED21BAC54240A7F1C002CF8D1F1BDFE
S315200112E0F8B5044606981546C5F10F06079F00284E
S315200112F014BF402200229B1E5B0842EAC302701ED5
S315200113000243601C22702A46F6F710F9631C3A46FE
S31520011310F1B25819BDE8F840D2E770B50D4604463A
S3152001132016461021FCF770FA2278C6F10E002946DE
S315200113300243601C22703246BDE87040F6F7F6B8CB
S31520011340491E05D0425C521C4254D2B2002AF7D023
S3152001135070472DE9F04F894604460121002C8FB0B4
S315200113600CD0180006931CBF1B9E002E06D0DDF85C
S315200113707080B8F1000F1CBF1D98002800F0D280A4
S315200113801E9B1B1F0D2B06D21E98C30700F1CA8078
S31520011390189DED1F072D80F0C58006999246189A53
S315200113A01A9D0346CDF804A0009502A8FFF798FFE1
S315200113B0102207AB009202AA01212046FFF724FF43
S315200113C0002D58D0002102A800220023B5F57F4F19
S315200113D08C4680E80E10DDF864B00CD22A46022134
S315200113E0FFF76EFF0E270E2D59460DF10A0098BF05
S315200113F02F463A4610E0FF21FE228DF808100421DF
S315200114008DF809202A460DF10A000A27FFF758FF11
S315200114100A2259460DF10E00F6F788F8BB44102032
S3152001142007A9EF1B019007AB009102AA01212046D3
S3152001143025463C461AE01027102C594602A898BF8B
S3152001144027463A46F6F772F8102F05D202A8C7F1B9
S315200114501001C019FCF7D8F9102107AA019107AB91
S31520011460009202AA01212846BB44E41BFFF7A2FEF3
S31520011470002CE0D12C46189A06990BA8C34625467E
S31520011480D2B2FFF74AFF10210BA8FFF759FF3046CA
S315200114904E465FEA0A0480462FE01027102C02A848
S315200114A098BF2746012E00EB0709C7F1100A0BD179
S315200114B03A464146F6F73AF8102F03D251464846A6
S315200114C0FCF7A2F900F032F800975B4642460BA9D9
S315200114D02846FFF7BFFE30000CD13A46594602A8EE
S315200114E0F6F724F8102F03D251464846FCF78CF91B
S315200114F000F01CF8B844BB44E41BCED1189A0699D7
S315200115000BA8D2B2FFF709FF102002AB009007AA61
S315200115100BA92846FFF79EFE1E9A1D9802A9F6F7EB
S3152001152005F8002108460FB0BDE8F08F102007A965
S31520011530019007AB009102AA012128463AE6F0B5AF
S3152001154087B0009313460C9C0D9D0E9E0F9FDDF8D0
S3152001155040C00A46DDF844E0CDF814C0CDF818E0C5
S3152001156001210497039602950194FFF7F2FE07B035
S31520011570F0BD002100220023002480E81E007047D0
S315200115804FF000400B490860D6E4000000C02F4010
S3152001159068C00F400000DCFE0CC00A4060C02F402E
S315200115A00300DCFE14ED00E060EF00E0C0C12F4037
S315200115B010C02F4004C02F40BBBBE1B1B2F5803F24
S315200115C080F07E80022A1ED98C46B1FBF2F102FB05
S315200115D011C31B0443EA1043B3FBF2FC02FB1C3389
S315200115E080B240EA0343B3FBF2F002FB103240EA39
S315200115F00C4000237047022A05D98446B0FBF2F03D
S3152001160002FB10C270474AB105D100F00102490818
S315200116105FEA3000704700220023704701F0FCBCCE
S315200116200B000200002100207047904271EB030C51
S31520011630F6D3B3F5803F2FD2F0B5B3FA83F7B1FADB
S3152001164081F4A7F10F0E3D1B5340CEF1200602FA7D
S315200116500EF2F3415340B5F10F0746D80F3C2C4407
S315200116604140C4F12006A040F1414140B1FBF3F6CF
S3152001167003FB1611A2FB0645001BA94102D2761EC9
S315200116808018594180EA010221FA0EF362FA0EF21C
S3152001169000215A403046F0BD30B4B1FBF3FC03FBC8
S315200116A01C11A2FB0C45001BA94103D2ACF1010C74
S315200116B08018594130BC02460B46604600217047CE
S315200116C0B2F1807F65D3F0B5B2FA82F7B1FA81F42F
S315200116D0C7F10F063D1B22FA06F307F1110EF2415F
S315200116E020355A40B5F10F07B8D94140C4F120063B
S315200116F0A040F1414140B1FBF3FC03FB1C11A2FBCD
S315200117000C45001BA94103D2BCF1010C801859419B
S315200117100F2F12D30F3FC90341EA5041B1FBF3F614
S3152001172003FB1611A2FB0645D4EBC030A94102D218
S31520011730761E8018594146EACC3C07B34140C7F191
S315200117402006B840F1414140B1FBF3F603FB1611E7
S31520011750A2FB0645001BA94102D2761E80185941DB
S3152001176080EA010221FA0EF3C7F1200462FA0EF291
S315200117700CFA07F05A402CFA04F13043F0BD80EA06
S31520011780010221FA0EF3002162FA0EF260465A4056
S31520011790F0BD8C46B1FBF2F102FB11C31B0243EAF9
S315200117A01063B3FBF2FC02FB1C331B024CEA002044
S315200117B043EA1063B3FBF2FC02FB1C331B024CEA27
S315200117C0002043EA1063B3FBF2FC02FB1C331B022D
S315200117D04CEA002043EA1063B3FBF2FC02FB1C3205
S315200117E04CEA00200023704710B5DFF8C407DFF864
S315200117F0C4170A68D30709D404686107F7D50268B4
S3152001180042F00402026045F20A2010BD002010BDFC
S315200118100146042901DC020002D145F20C20704761
S31520011820DFF8942700F0070010605068032920F0A4
S315200118300E00506003DC506840F008005060022919
S3152001184008DC506840F00400506003DA506840F02C
S315200118500200506000207047DFF85C07006810F036
S31520011860070001D0052800DB04207047082808BF9F
S31520011870012002D0102801D10220C9E745F20E200D
S315200118807047DFF82C070168CA07FCD5036843F0C7
S315200118900103036001688A0706D5036843F0020342
S315200118A0036045F20920704700207047F8B50546C8
S315200118B00C4616461F46FFF7CFFFB84203D03846DF
S315200118C0FFF7A6FF70B9DFF8E816DFF8F0060A6819
S315200118D0041942F001020A604E664D650C66BDE8A8
S315200118E0F140CEE7F2BD2DE9F04107460E461446FA
S315200118F09846FFF7B1FF404503D04046FFF788FFE2
S31520011900B8B9DFF8AC56DFF8B4062968861941F074
S31520011910010129606F652E66FFF7B3FF48B9686F2D
S31520011920002103E004F8010B000A491C4145F9D3C3
S315200119300020BDE8F0812DE9F04100F059F81ED1D3
S315200119400A220021002000F06CF8804609E0B069E7
S3152001195004233A464146FFF7C6FF04000BD12D1F4B
S315200119603F1D042DF3D235B1B069EBB23A4641465B
S31520011970FFF7B9FF044696F82100FFF777FF2EE01F
S315200119802DE9F04100F034F829D10B220021002065
S3152001199000F047F880460EE00022002000F022F8F1
S315200119A00428FBD3B06904234146FFF77FFF0400D7
S315200119B011D12D1F3F1D042DEED265B1002200202D
S315200119C001E000F00FF8A842FBD3B069EBB2414623
S315200119D0FFF76CFF044696F82100FFF747FF2046E4
S315200119E0BDE8F081395CC300401C99400A43704729
S315200119F006460024337A0F461546012B70470B46BF
S31520011A00014680B5184600E080B5F5F78FFDBDE8A3
S31520011A100140E9E6DFF89C050068400800F0010076
S31520011A2070470907090E41EA002102F00F0242EA36
S31520011A300100704710B500F118021068537B411858
S31520011A40012B0AD1D27A4FF0FF3321FA02F4501C2E
S31520011A5003FA02F2844091432143084610BDF8B5AA
S31520011A600C46DFF84C6531681D4641F001013160B5
S31520011A7004F00F0106290CD101270021706501B15F
S31520011A807266DFF8380504193466FFF7FAFE88B165
S31520011A90F2BD0A29F0D0002914BF0129012707D058
S31520011AA00829E9D0002707291CBF0B290929E4D1D8
S31520011AB00121E3E70FB1706F28600020F2BD0246D5
S31520011AC01032937C0020082B08BF084602D0102B29
S31520011AD008BF4800116808187047DFF8E4249042CF
S31520011AE002D20022400B0BE045F20B20704720B1B9
S31520011AF0412802D20022400802E045F21020704718
S31520011B0001E04008521C0028FBD10A7070470000F2
S31520011B107CB50446DFF8AC54686A0DF1010100F486
S31520011B207C6068626A6A23691B0B42EA03326A6235
S31520011B306069FFF7D2FF002826D1686A9DF8011057
S31520011B4004F1210600F0CCF96862686A40F00100D0
S31520011B5068626968890C890469603178F079192984
S31520011B6013DB00280AD0192901DD012806D01A29FC
S31520011B7001DD022802D01B2902DD032800F0AE80F8
S31520011B801C2902DD45F20D2076BD052800F2A6802E
S31520011B90DFE800F08F93989C03A0686840F002006C
S31520011BA06860296821F0400129602868327A92010B
S31520011BB002F0400210432860296EDFF80C04014030
S31520011BC029662A6E94F82010707A090201F4407170
S31520011BD0800200F4806001430A432A66F078694650
S31520011BE0FFF785FF0028CFD1286E9DF80010090147
S31520011BF001F0700108432866707808286FD1286E95
S31520011C002866B078811E0B2970D2C0F10C002A6E8D
S31520011C100006000B00F4704010432866B17FF07F68
S31520011C20327F090601F0706141EA0071707F00057B
S31520011C3000F4700012040143F07E02F47022114375
S31520011C40B27E000300F470400143307E120202F49A
S31520011C5070621143F27D000100F0F000014304F1AE
S31520011C60410002F00F0211436966717E42790379C0
S31520011C70090601F07061120502F4700211434278DF
S31520011C801B0403F4702319430378120302F47042F0
S31520011C901143C27880781B0203F470631943120141
S31520011CA002F0F002114300F00F0001430020A96663
S31520011CB076BD686840F0280072E7696841F4A07132
S31520011CC069606EE7686840F4206069E7696841F4F5
S31520011CD0A041F5E7686840F4003061E705E1102886
S31520011CE003D1286E40F001008AE701E145F2112077
S31520011CF076BD00007CB50646B24C206A694600F4E2
S31520011D007C602062226A33691B0B42EA033222621B
S31520011D107069FFF7E2FE002854D1206A9DF8001071
S31520011D2000F0DEF82062206A40F001002062216B7B
S31520011D3001F47C612163206BB169090B40EA013012
S31520011D4069462063F069FFF7C8FE00283AD1206B67
S31520011D509DF8001006F1210500F0C2F82063206BE2
S31520011D6040F0010020636168890C89046160E87B89
S31520011D7004284ED8DFE800F03C414549030061685C
S31520011D8041F0010161606068606021688F4821F03F
S31520011D908001216022682B7CDB0103F080031A433A
S31520011DA02260216D01402165226D96F82010C9011E
S31520011DB001F080010A430DF101012265E878FFF760
S31520011DC096FE002840F08B80206D9DF801100901B8
S31520011DD001F0700108432065287808281AD1206D62
S31520011DE020652979A87801291BD1401CC0B218E0A9
S31520011DF0606840F020006060C5E7616841F4807149
S31520011E00C0E7606840F40060F5E7616841F480410D
S31520011E10B8E76AE0102803D1206D40F00100DFE722
S31520011E2066E0A0F10901082957D2C0F11000226D00
S31520011E300006000C00F4E0601043206506F1410025
S31520011E40C27A41780379120602F0706242EA01727F
S31520011E504179090501F470011B040A43C17803F491
S31520011E6070231A438378090301F470410A430178E8
S31520011E701B0203F470631A43EB7F090101F0F001A1
S31520011E800A4303F00F031A436265817A427A037A81
S31520011E90090601F07C51920402F47C021143C279B5
S31520011EA080791B0303F47C331943920102F47C628B
S31520011EB0114300F03F000143A1656878810889003C
S31520011EC001F004014208520002F00202114300F01F
S31520011ED001000843E065002076BD45F2112076BD5C
S31520011EE0490001F03E010843704745F20F2076BDB7
S31520011EF045F20E2076BD70B50446354920688842E4
S31520011F0001D0042070BDF0F764FF2046F5F7C6FE28
S31520011F10207B072821DAF0F719FFF0F754FF294D26
S31520011F20286820F002002860296841F00101296013
S31520011F302A68D007FCD4BFF34F8FBFF36F8F296870
S31520011F4041F002012960207A04F1210140B94E783D
S31520011F502046FFF7DDFD68B170BD45F2122070BD48
S31520011F60012804D10E782046FFF7C4FEF3E745F297
S31520011F70082070BD1748A8603046FFF777FCA8B93E
S31520011F802968637B1448A27B0140E07B41EA024138
S31520011F901B0603F0F853800000F0040019430143A7
S31520011FA029602968002021F00201296070BD000006
S31520011FB03C002F40C0002F4094002F4000005AA51E
S31520011FC00100008000002F408E08FFFF0EF8FFFF62
S31520011FD053454D4385404000FBFF00E00021018031
S31520011FE0704770B5048800250EE04B5D84EA032412
S31520011FF008236600240444BF86F4805686F0210611
S315200120005B1E3446F5D16D1C9542EED3048070BD1E
S3152001201000880880704744F64E710180704770B57C
S31520012020048800250EE04B5D84EA0324082366001C
S31520012030240444BF86F4004686F005065B1E34461A
S31520012040F5D16D1C9542EED3048070BDF8B50446DA
S315200120500E461546032168460027F1F79DFB0FF230
S31520012060342E2346324600212AE012F8010B1EF8AF
S31520012070000000F03F067140400620D57C40FE431B
S315200120808DF801409DF800407440B3F5007F8DF82E
S31520012090004014D19DF802403E0A04F0FD0084EA76
S315200120A04604F64304F0020404438DF8024004F08A
S315200120B0FE00744004F0010404438DF802407F1CA5
S315200120C09F429DF80140D0D3B3F5807F05D19DF87D
S315200120D0020040F003008DF802009DF800206308FD
S315200120E09DF80200520840EA81009DF800108DF803
S315200120F0020001F0FD0141EA440101F0FB0141EA40
S3152001210082019DF8002001F0F70141EAC301A308ED
S3152001211001F0EF01920841EA02119DF8002001F039
S31520012120DF0141EA4311E30801F0BF01D20841EA88
S315200121308211220901F07F0141EAC31129709DF81C
S3152001214000109DF80030C1F3001141EA42016209F5
S3152001215001F0FB015B0941EA83019DF8003001F0A2
S31520012160F70141EAC201A20901F0EF0104F080045E
S315200121709B0941EA03119DF80030A87001F0DF01A7
S3152001218041EA4211DB0901F0BF0141EA83110C4307
S315200121906C70F1BD0346002010B50A46511E4AB1A6
S315200121A013F8012B14001EBF02F001042018520857
S315200121B0F8D1F2E710BD2DE9FC41174601AB002607
S315200121C080460D461E6001AAFFF740FF002001A9A7
S315200121D00A5C3B5C5A400DF80020401C0328F7D3CB
S315200121E003216846FFF7D6FFB8F5807F08BF0B2489
S315200121F003D0B8F5007F08BF0C2410B945F234305E
S3152001220045E0A0423DD19DF802109DF800600846A8
S315200122100209C1F3C00102F002024309114303F08E
S3152001222004031943B708F4089DF80130C6F34002A8
S3152001223007F002073A4304F004043609224306F064
S3152001224008063243DE0006F010069F00324307F0EF
S3152001225020075C003A4304F04004224303F0800344
S315200122601A43B8F5007F03D1C00100F48070024300
S31520012270A85C012303FA01F1414045F23530A95406
S3152001228005E001280CBF45F2373045F23630BDE86E
S31520012290F681000000555603590C0F5A5A0F0C5956
S315200122A003565500653033663C696A3F3F6A693C8F
S315200122B066333065663330653F6A693C3C696A3FFF
S315200122C065303366035655005A0F0C59590C0F5A6F
S315200122D000555603693C3F6A30656633336665307F
S315200122E06A3F3C690C595A0F55000356560300554F
S315200122F00F5A590C0F5A590C5603005555000356BF
S315200123000C595A0F6A3F3C6933666530306566332E
S31520012310693C3F6A6A3F3C6933666530306566339E
S31520012320693C3F6A0F5A590C56030055550003560E
S315200123300C595A0F0C595A0F55000356560300557E
S315200123400F5A590C693C3F6A3065663333666530EE
S315200123506A3F3C69035655005A0F0C59590C0F5ABE
S3152001236000555603663330653F6A693C3C696A3FCE
S3152001237065303366653033663C696A3F3F6A693C3E
S315200123806633306500555603590C0F5A5A0F0C59AE
S315200123900356550021B1D0F8C01041F480710FE0E9
S315200123A0D0F8C02022F480720DE021B1D0F8C010FF
S315200123B041F0020104E0D0F8C02022F0020202E03E
S315200123C0C0F8C0107047C0F8C020704782B0002204
S315200123D0019209E000BF009B5B1C0093009991428A
S315200123E0F8D3019B5B1C01930199814204D20022FF
S315200123F0009242F21072F1E702B070472DE9F84ED1
S315200124000FF2A02689468BB00746D6E900AB1446C3
S315200124101D46CDE900AB00F0DEF8072002902DB174
S315200124202404012003948DF8110003E00022039275
S315200124308DF8112002A900220191694600923846A1
S31520012440C847002802BF0598334908420CB014BF7B
S3152001245040F209700020BDE8F08E2DE9F84D0FF20B
S315200124604C2588468BB00646D5E900AB00F023F80B
S315200124703727F1F791F9012202978DF811202404CB
S3152001248002AB002203946946019330460092C0476D
S31520012490002803BF05982049084240F2097004D15B
S315200124A0800654BF40F20C7000200CB0BDE8F08DC0
S315200124B00546D6E900AB144602A8CDE900AB242196
S315200124C070472DE9F0430FF2EC160D468BB000F064
S315200124D07DF8002702AE02976946019620460097AD
S315200124E028E02DE9F84D0FF2D41688468BB0FFF778
S315200124F0DFFF1027F1F750F900F010F8002802BF8E
S315200125000598054908420CB014BF40F20970002015
S31520012510BDE8F08D000000000800F9FF029702AA2D
S315200125200394012400238DF81140019269460093FA
S3152001253028464047A84708B140F209700BB0BDE8CC
S31520012540F08300002DE9F8475EA78A468BB0044642
S31520012550D7E9008900F03DF800F02BF810B140F2E0
S3152001256009701AE000F01CF814D101212046FFF76A
S315200125701CFF41F28830F0F793F900F017F84FF479
S315200125807A70F0F78DF9002100F011F8606A10F0E9
S31520012590706F01D1284600E000200CB0BDE8F0871D
S315200125A0606A40F22A7510F0706F7047012120464B
S315200125B0F0E60B2600270296012202AB03978DF83F
S315200125C01120694601932046009750470446D6E9D3
S315200125D00089CDE9008902A82421F1F7DDB80000A0
S315200125E02DE9F04D064600BF38A0B0B08846D0E9A7
S315200125F000AB14461D46CDE900AB07A82421F1F70F
S31520012600CBF802A81421F1F7C7F810A88021F1F719
S31520012610C3F8079410A80022039508920123059078
S3152001262007AC02AD8DF82530049302228DF80B30CC
S315200126300A21019430460095012700F031FC0AE079
S31520012640012302220A21304600F02AFC0A213046C3
S31520012650002700F017FC69463046C047A0B9012083
S31520012660FFF7B4FEF06B4102F5D4B26E12F0802F63
S3152001267018BF002FE4D16420FFF7A8FEF06B0102FA
S3152001268005D440F2297009E040F2097006E0306C69
S3152001269020F470603064316C3164002030B0BDE8C4
S315200126A0F08D000000000000000000000000000086
S315200126B000000000000000000000000000000000F3
S315200126C000000000000000000000000000000000E3
S315200126D0000000000146002010B50FF66802C3B2C3
S315200126E052F823308B4203D0401CC4B2032CF6D3BC
S315200126F0C0B210BD70B50D460446616BDFF8000807
S3152001270001406163A26B1040A0632046FFF7E2FF00
S315200127100FF63C016FF07F0331F9100098420FD07C
S3152001272001000DD4012600F01F0006FA00F0DFF8A3
S31520012730D427490942F82100BFF34F8FBFF36F8F8A
S31520012740616BDFF8C4070143616315B1A26B1043C6
S31520012750A06370BD30B52AB19368B3F5803F01D32C
S31520012760042030BD4B7A5B1E082B17D8DFE803F017
S3152001277005090D121205090505000C6A44F4D01449
S3152001278006E00B6A43F4D81307E00C6A44F41024DC
S315200127900C6203E00B6A43F400330B620C7A032CC0
S315200127A003D10B6A43F440030B62002A40D00C6A22
S315200127B044F400140C62D36813B144F010040C6283
S315200127C09368022B0ED30C6A44F022040C62137810
S315200127D013B144F004040C6253781BB10C6A44F023
S315200127E080040C624368546803F460439568C4F31B
S315200127F00C04234343EA0543436091F820100B065A
S315200128000CD5846C44F080048464D0F8C81041F45B
S315200128108051C0F8C8109268026009E0816C21F0ED
S3152001282080018164D0F8C82022F48052C0F8C820E3
S31520012830002030BD10B54A7AD2B103694A7ACB60FD
S31520012840032A15D143690B6182694A61C06988618E
S31520012850042201EB820083681B02022A836003D3D0
S31520012860446843EA146383601046421E0028F0D16F
S31520012870C86970B14A7A012A18BF022A03D0082AE8
S3152001288018BF062A05D1C968084202D041F666104A
S3152001289010BD002010BD70B5446C4B6813F0030FBA
S315200128A004F0FF0400F060F805E0056ACE685B1CC1
S315200128B046F82250521CA342F7D3104670BD2DE98B
S315200128C0F0410D46044669680022904611F0030046
S315200128D002D0091D091A6960AF6868684FF0B87699
S315200128E0474314E04FF0806141F66A18216322E0E4
S315200128F04801F7D411F0B87F02D0A878C0B1266379
S3152001290029462046FFF7C7FF024620202063B2EB67
S31520012910970F10D2216BDFF8F4351942FAD0216BCB
S31520012920E8780028E4D08B06E2D544F2200003E0C3
S315200129304FF001082663022020634046BDE8F0815E
S3152001294030B5436CC3F307444B6813F0030F00F013
S315200129500BF805E00D695B1C55F82250521C0562E7
S31520012960A342F7D3104630BD04D01D1D03F0030347
S31520012970EB1A4B608D684B685D43AD08AC4202D2C1
S31520012980AD1AAC4200D92C46002370472DE9F041FF
S3152001299004460E4670680022002510F0030F04D06D
S315200129A0011D00F00300081A7060B76870684FF0C7
S315200129B0B87847430DE010F0B87F03D0B078C8B19E
S315200129C0C4F8308031462046FFF7BAFF0246102070
S315200129D02063B2EB970F10D2216BDFF83435194201
