S0130000666C6173686C6F616465722E737265638C
S3152020600000420020FDDE20207B642020C1C12020EC
S315202060107B6420207B6420207B64202000000000DD
S315202060200000000000000000000000007B6420200B
S315202060307B642020000000007B6420207B642020BD
S3152020604025DF20202DDF202035DF20203DDF2020CA
S3152020605045DF20204DDF202055DF20205DDF20203A
S3152020606065DF20206DDF202075DF20207DDF2020AA
S3152020607085DF20208DDF202095DF20209DDF20201A
S31520206080A5DF2020EFF02020EFF02020EFF02020A9
S31520206090C3D82020ADDF2020B5DF2020BDDF202063
S315202060A0EFF02020F1EF2020C5DF2020EFF0202068
S315202060B0CDDF2020D5DF2020EFF02020EFF020207C
S315202060C0DDDF2020E5DF2020EFF02020EFF020204C
S315202060D0EFF02020EFF02020EFF02020EFF02020FE
S315202060E0EFF02020EFF02020EFF02020EFF02020EE
S315202060F0EFF02020EFF02020EFF02020EFF02020DE
S31520206100EFF02020EFF02020EFF02020EFF02020CD
S31520206110EFF02020EFF02020EFF02020EFF02020BD
S31520206120EDDF2020EFF02020F5DF2020FDDF2020CE
S3152020613005E02020EFF02020EFF02020EFF0202097
S31520206140EFF02020EFF02020EFF02020EFF020208D
S315202061500DE02020EFF02020FF682020EFF02020E7
S31520206160EFF02020EFF02020EFF02020EFF020206D
S31520206170EFF02020EFF02020EFF02020EFF020205D
S31520206180EFF02020EFF02020EFF02020EFF020204D
S31520206190EFF02020EFF02020EFF02020EFF020203D
S315202063F0EFF02020EFF02020EFF02020FFFFFFFFFE
S31520206400002A01D101207047F0B41F4603460324F9
S315202064102340002B09D00424E31A017001300824DC
S31520206420E141521E26D05B1EF7D1042A1ADB13D057
S31520206430002F11D00C460D460E46102A02DB72C0C4
S31520206440103AFAE70C2A02DB32C00C3AFAE7082A7D
S3152020645002DB12C0083AFAE7042A03DB0160043083
S31520206460121FF9E7002A05D0017001300824E141E6
S31520206470521EF7D1F0BC00207047FEE7C36D2020C6
S3152020648000000000D76D202000000000B76E2020DD
S315202064903D7020209B6E2020436F20201B712020C2
S315202064A0000000000000000000000000116E2020E7
S315202064B000000000E76D2020436F20203B71202024
S315202064C0000000009971202000000000776D202018
S315202064D000000000416E2020000000000000000087
S315202064E000000000C571202000000000E771202058
S315202064F000000000137220203D702020576E20209F
S315202065000000000000000000000000000000000045
S31520206510C9F02020D3F02020DDF02020000000002C
S3152020652000000000090000005D7820200000000007
S315202065300000000023752020357620204B76202051
S31520206540CB76202013772020B7772020E5D7202050
S3152020655061D820207DD820200000000000000000E7
S31520206560B1D8202021802020797D2020D17D202077
S31520206570B77E2020F37E2020037F2020517E2020DE
S315202065805DAE202061AE20206DAE20207DAE202065
S3152020659000000000000000000100000001000000B3
S315202065A0956820204C6520205C652020F4652020DD
S315202065B010000000010000000000000010662020CE
S315202065C000000000206620200000000000000000BF
S315202065D00000000000000000000000000000000075
S315202065E0FDD8202019D92020C9D9202087DA20209B
S315202065F0F024002079DB20207FDB2020EBDB2020ED
S3152020660083DC20207DDB20208FDC202059DB2020EE
S3152020661045EC202051ED20202FEE202089EE202031
S3152020662097EE2020BBEE20203FEF2020D7EF202002
S31520206630E7EF2020EBEF20200000000038B50446AD
S315202066403E4D00202862C5E90000C5E90200C5E9C3
S31520206650040068623A4800F0ADF8C5E906012046F4
S315202066600FF25D01BDE8344000F057B900F06AB959
S3152020667070B50C46314E316A072904BF756AA84287
S315202066801BD100F07BFA0546C5EB0515D6E900237C
S31520206690D6E9020182184FF49666B5FBF2F00A2558
S315202066A00A2368434FF49662B0FBF6F6761D002047
S315202066B0B6FBF3F35343236070BD012070BD000069
S315202066C02DE9F8431D4F064600F06AF83A6A04463B
S315202066D0D7E904598846521C651BD7E9060168EB81
S315202066E00909494502D82CBFA8420122012A3A622B
S315202066F006D0042A08D0052A0ED0072A0FD018E063
S31520206700C7E900487E6214E0D7E90023A21A68EB85
S315202067100303C7E900230CE0C7E9024809E0D7E9CB
S315202067200201201A68EB0101C7E90201304600F078
S3152020673009F9C7E90448BDE8F183000000180020C4
S315202067408038010010B52C482C4A0168002341F4DA
S31520206750405101600020106029484FF0FF3101226E
S3152020676001618361C261846944F004048461826981
S3152020677042F00102826101600121C160816000F046
S31520206780FDF9C0001F49B0FBF1F000B901201E4AD7
S31520206790906010BD1948016841F0020101607047E0
S315202067A081B01A48016842680092009801B0C94316
S315202067B0C043704714498A68A2FB0001C00840EAFA
S315202067C04170C908704738B50446FFF7E9FF00F045
S315202067D00BF8241841EBD505FFF7E2FFA942FBD39E
S315202067E001D8A042F8D331BD074A9368A3FB0445BC
S315202067F0E40844EA457470476CC00F4000400840C6
S315202068000041084040420F0028180020E040084060
S315202068100901020002D4564881547047554A00F097
S315202068200F00131803F8041C704710B5039C01F0C1
S315202068300701240104F010042143016002B11360F2
S3152020684010BD0021016002B11160009808B10199A4
S3152020685001607047FEB5089E0027099C0A9D019776
S315202068600096FFF7E2FF3068012101FA05F520F4B2
S3152020687080503060606820EA05056560F7BD7CB5EC
S31520206880069C0025019547F2B0060094FFF7CDFF20
S31520206890266073BD7FB5384C384D3948394A19B1F1
S315202068A002291ED012D37FBD41F2B0060095019653
S315202068B0002300222046FFF7C4FF019600230095DF
S315202068C0002200212046FFF7BCFF7FBD09212E4B49
S315202068D0029105210193002300920022FFF7BAFF9F
S315202068E07FBD0092002300220021FFF7C8FF0095DC
S315202068F00023002200212046FFF7C1FF7FBD10B5CF
S31520206900224C2068800507D52149496821B10120DC
S3152020691088474FF40071216010BD10B51C4B1A4CCE
S31520206920596004220921204600F096F96369012145
S31520206930462043F400736361FFF76AFF4020154920
S31520206940086010BD80B5402013490860BFF34F8FE3
S31520206950BFF36F8F00214620FFF75AFF002209211F
S31520206960094800F079F900200949486001BD000056
S3152020697000E400E018ED00E094801F4044811F4091
S3152020698098801F4048811F4000801B4018801B4054
S31520206990E824002008E100E088E100E0002808BF84
S315202069A000F01EB870478348834A01684FF00043A1
S315202069B041F00301016040201060804883634FF03E
S315202069C080418163002202607D48036843F4C0131E
S315202069D003607C480168490849000160012070470E
S315202069E0F0B57949794A1160794C25680120002330
S315202069F0C5F3415121B10122481E12FA00F002D0DE
S31520206A007449B1FBF0F3744C226AD10346D54FF476
S31520206A108055A562216A0029FCD54FF480326F4D1E
S31520206A2062622E696E494FF4405726F03F360E4358
S31520206A302E6127602668002EFCD562602F68694A61
S31520206A40401E6949800227F03F3717432F60674A47
S31520206A50156800F4E050664EF6180D402843654D23
S31520206A60B6FBF5F56D1E2D0205F440752843106002
S31520206A701069000A000240F00300106151685E4848
S31520206A8021F4402141F4002151609060216A21F4B3
S31520206A9080312162206820F48030206057490B60A5
S31520206AA0F0BD7BE0002A70B518BF012A38D14B48AB
S31520206AB0534B04681D68A409002A0CBF0FF27012DC
S31520206AC00FF280120E0025F0607529D00A29A8BF62
S31520206AD0012112F8116002EB41014A78494906F05A
S31520206AE03F0646EA84140E68521ED20502F06072D2
S31520206AF0154346F002060E605A6E22F440625A660C
S31520206B000668B44218BF04601868854218BF1D6005
S31520206B105A6E42F440625A66086820F002000860E5
S31520206B2070BD2448016841F44061016070472148C6
S31520206B30016821F440610160704730B52F4C002355
S31520206B4000202468294D19B102290AD002D30AE04F
S31520206B50234609E02968C1F30121491CB4FBF1F33E
S31520206B6002E0A96800E00420136030BD024604201C
S31520206B701AB911B124480860002070471B481F4AC3
S31520206B80016880681368C1F30121491C00F03F0089
S31520206B90401CB3FBF1F1B1FBF0F0704713481749C5
S31520206BA000680A68C0F30120401CB2FBF0F0704751
S31520206BB00000000080C00F4014800D4000900D4042
S31520206BC0B0810D4040410E4000366E017C240020CD
S31520206BD070441F40007B9A1710800D40F0800D4096
S31520206BE01818131823231A0FFFE0FFFD14C00F4097
S31520206BF0FF4395080044950801008063B0000020DB
S31520206C001CC00F4000000A40406BED0738B50446F3
S31520206C100D4602E00120FFF7D6FD20462946441ED8
S31520206C2061F100050022914208BF9042F2D131BD88
S31520206C3000002208160818061E0412060E06110445
S31520206C401A0216020000180616040C061E0212034B
S31520206C50160221011A011601F0B5C369012404FA8E
S31520206C6001F5AB431029C36132BF00F10C0300F1BB
S31520206C7010031039490003268E40F743521E042A5A
S31520206C801DD8DFE802F003070D1519001868074004
S31520206C901F60F0BD1A688C4017403C431C60F0BD35
S31520206CA01C68022505FA01F1274039431960F0BDF9
S31520206CB0186806431E60F0BDC1690D43C561F0BD4D
S31520206CC0DFF8481600200A69D36818607047F8B59F
S31520206CD0DFF838660024306A8DF800404569002D9B
S31520206CE047D03169C9680F68012F31D06C6801F10E
S31520206CF008020023091DA04704001FBF42F212707C
S31520206D00844242F213718C4233D13069C268916831
S31520206D1000292ED0546823781D0007D0142B05DA9D
S31520206D20806800EBC305A5F1080000E000200028BC
S31520206D3050621CBF0268002A03D0204600249047B8
S31520206D4013E042F210741946204600F07AFA10E039
S31520206D50486A58B1416811B16846884704460CB143
S31520206D60002003E09DF8000000B101203169CA68A7
S31520206D7010602046F2BD80B50178002000F061FA2F
S31520206D80DFF88825106A41690A699047022000F0B9
S31520206D90EBFABFF34F8FDFF87815DFF878050A680E
S31520206DA002F4E06202430A60BFF34F8F00BFFDE783
S31520206DB0DFF8580518210269D36803F10C0000F08A
S31520206DC0FFBA10B504466068092802D100F01EFDDE
S31520206DD000E00420F2E1DFF8343570B500F0A7F9A1
S31520206DE0AE69B0479FE110B50446FFF7E1FFDFF813
S31520206DF01C0562680169C8680821026180F8201094
S31520206E002178002000F01DFABDE8104000F018BFC0
S31520206E107CB5DFF8F8440022E5680192009281686B
S31520206E2040686B46AE6801AAC0B2B04722690021ED
S31520206E30D3681961009A0199920800F008FA73BD67
S31520206E40DFF8C82438B5D36804466068A168DD68B1
S31520206E50C0B2A847AEE138B5044604206268092AA4
S31520206E6003D1A06800F05FFB13E0C2F303210129C0
S31520206E700FD16946104601F09FF850B9009DDFF8E2
S31520206E808C2414219368A0684D4359190A691369E3
S31520206E909847217800F0D5F931BD10B50446FFF783
S31520206EA087FFDFF86804E2680169042300F013F8FD
S31520206EB02178002083E110B50446FFF779FFDFF81B
S31520206EC04C04E2680169032300F005F8A16800203C
S31520206ED0BDE81040D6E1C8688261A1680161626878
S31520206EE0426180F82030704738B50446DFF81C54BC
S31520206EF028690021C0684161016190F8200004289A
S31520206F0004D129680A69904704B90446286841694A
S31520206F10884704B904462869C168204691F820107C
S31520206F2000F08FF942F21270844201BF2969CA68A3
S31520206F3092F82000082803D1BDE8314000F0C3BED6
S31520206F4031BD2DE9FE4300F0E2F811B900F0DBF85F
S31520206F5071E0012101233170D0F818900569D0F80D
S31520206F60148000206A460090386A01A94469D4F822
S31520206F7004C0E04704000AD0386A4169CA689047AD
S31520206F802046FFF7B1FF00210020317054E0009801
S31520206F9030B942F21270FFF7A7FF002030704BE085
S31520206FA0A842396988BF28460090C86890F82010E2
S31520206FB0082912D10199C160009AC26100990198CD
S31520206FC000F048FE044642F27D7084421CBF42F205
S31520206FD074718C4216D1002414E0132907D1009A0B
S31520206FE00199404601F042F8009880440AE03C6826
S31520206FF0019A00994B464046D4F808C0E0470099AC
S315202070000446884400982D1A05D12046FFF76CFFA8
S31520207010002131700FE04CB1386A4169CA68904727
S315202070202046FFF761FF0020307004E03969C968E7
S315202070300D61C1F814800020BDE8FE832DE9F84FAC
S3152020704000F065F811B900F05EF859E00121DFF86B
S31520207050C8A23170826900920569D0F81480C4686C
S3152020706090F820B0386A41694A6990478146A945F7
S3152020707088BFA946ACB14A462146504600F0F6FFC5
S31520207080386AA5EB090401234A4651464569D5F8B5
S3152020709008C0E04704B170B3FFF726FF0020307008
S315202070A02EE0BBF1030F09EB080419D1D7F800C055
S315202070B04046009B52464946DCF80480C0475FEA9A
S315202070C0000BA046DCD0386A0123002251464469B1
S315202070D0A568A8475846FFF707FF0020307010E024
S315202070E0BBF1130F01D0A046CAE74A464146504677
S315202070F000F0BCFFF7E73869C0680461C0F8148047
S315202071000020BDE8F28F002200203270ECE60646F1
S315202071107E4F3869C068016970477C4B70B500F096
S3152020712006F8EE68B0472178BDE8704089E01D68F2
S315202071300446E268A168606870472DE9F04105465B
S31520207140764F6E68D5F80880E8680024386018B134
S3152020715001F00EF800B90424304600F0F2FF00B901
S3152020716004242978204600F06CF89CB97E60002003
S3152020717000F0FAF8C7F80880386818B180F3088834
S3152020718080F309887968404688470020BDE8F04189
S3152020719000F0EAB8BDE8F08138B50446606800F012
S315202071A0D0FF08B9042005E06568012000F0DCF84E
S315202071B0A068A8472178BDE8344042E02178BDE880
S315202071C010403EE038B5044601F07AF8A36861689D
S315202071D004F10C02524801F0B9F8054601F076F880
S315202071E021782846E7E73EB500210446CDE900115F
S315202071F001F066F8A36861686A46494801F0FEF8FE
S31520207200054601F063F8A2686946284600F055F83D
S3152020721037BD38B504461025FFF7CAFD3B48A2687E
S315202072200169C9680A6163684B6181F82050006949
S31520207230E168C268002082F82110A168BDE83440A8
S3152020724070E03EB5002400F02CF8A0231EE070B597
S31520207250002588B0A7248DF801508DF800400026FF
S31520207260551C01908DF8026000208DF803506C4645
S3152020727005E004EB800551F82030401CAB6090429D
S31520207280F7D336E03EB500F00BF8A3238DF8003077
S315202072900023029144690C226946A568A84737BD78
S315202072A0012401908DF8014002248DF80340174CCB
S315202072B0206A00258DF80250704770B5002588B0C9
S315202072C08DF80150AF24002602258DF800408DF838
S315202072D002608DF80350019050B99DF80300029268
S315202072E000EB920403A88DF8034000F0CFFE00E0C7
S315202072F0029606489DF80320006A002369464469C1
S315202073009200121DA568A84708B070BD1000002065
S315202073100CED00E00400FA055C180020541C002027
S3152020732000401F403EB5FFF7BBFFB023AEE730B489
S31520207330002513E050F8042BD30744BFA9F10103FD
S315202073409A18091F042942F8045BFAD213468C079F
S3152020735044BF15809B1CC90748BF1D7050F8041BCD
S315202073600029E7D130BC7047012870B504461DD0CE
S315202073700025114E05E07018C168896801B188473B
S315202073806D1C1821694370580028F4D174B900F077
S3152020739097FFFFF7FFF901F0A9F8002007490860B9
S315202073A00120FFF7FBFA01F078F962B6BFF36F8F61
S315202073B0BFF34F8F70BD00BF9865202008ED00E0F9
S315202073C0002201F093B9F0B402461068956813188C
S315202073D0506803EB5004C0071DD54D441BE013F81D
S315202073E0017B05F8017B491EF9D1A0B1B60813F817
S315202073F0011B06F00306032E08BF13F8016B01EBD1
S3152020740006214942801C294405D011F8016B05F834
S31520207410016B401EF9D1A3420ED013F8016B16F052
S31520207420030104BF13F8011BC91C30090F28DAD128
S3152020743013F8010B0F30D6E7F0BC02F10C00704791
S31520207440BFF34F8FDFF8A02402E0106020302039D0
S315202074500129FADABFF34F8FBFF36F8F704778B5C4
S31520207460040085B01EBFDFF88414087800284BD08E
S315202074702068010F0B2947D1C0F30320042843DCC1
S31520207480002004E08968491C0A053DD1401C21685A
S31520207490C1F3032188423ADA04EBC0014A68130576
S315202074A0F0D031E003A9102000F0D8F900282BD104
S315202074B001A9032000F0D2F9002825D12568049EB1
S315202074C06A4602A920462D0305F47F25AE1901F030
S315202074D027F9C8B9009903986D18A84214D30198A2
S315202074E0401E064210D10199304600F010F910B9FD
S315202074F042F2DB7009E0029A0099304600F0A5F8A6
S3152020750010B900F006F900B1042006B070BD0021A4
S3152020751001200491039104A900F0A0F90028C1D0EC
S31520207520F2E701207047F8B5ADF5007D0746042423
S3152020753000F007FEA0B307F2FF1000F002FE78B39A
S315202075403868DFF8A863DFF8A853010F0C2917D174
S315202075503A462946002002F01FFD040020D10020B3
S315202075602946307001F034F9040019D1002003F0A7
S31520207570A7FB6946102000F071F938B304460FE0C6
S31520207580DFF8701388420FD1307848B1DFF868636E
S315202075904FF40071304600F05DFD10BB42F2DB74E3
S315202075A020460DF5017DF0BDDFF85013884206D127
S315202075B04FF400723946284600F058FDCFE7000FD9
S315202075C00B28EDD13846FFF74AFFD7E70098DFF89A
S315202075D030130B6B01228A63C3185B1E4B633270F8
S315202075E0DEE705F5E277B87968B1002029180DEB9A
S315202075F0000449780DF800102B5C801CB0F5007F24
S315202076006370F3D36D462A464FF40071304600F05E
S315202076101CF8040005D04FF40071304600F059F9CB
S31520207620BEE700F076F80400BAD03968304600F07C
S31520207630C2F8B5E710B5AD4C237813B942F2DD7008
S3152020764010BDBDE8104003F00BBC2DE9F8430546DC
S31520207650A64F38780C46914690BB42F2DD7032E038
S315202076607878A34968B9D1F8C021521E154202D094
S3152020767044F6896027E0012000227870BA607D6078
S3152020768004E0B8687A681018A84216D1B868D1F8EC
S31520207690C08121184145494634BF2646A8EB00061D
S315202076A0384432461030751900F0E0FCB868A41B27
S315202076B0B14430184045B86002D100F02AF810B9FC
S315202076C0002CCDD10020BDE8F28376B50D460646A6
S315202076D08649087810B942F2DD7076BDAC08A40040
S315202076E005F0030507E001AA04213046FFF7ADFF88
S315202076F060B9361D241F002CF5D12DB101AA2946AB
S315202077003046FFF7A2FF08B900F003F876BD00F057
S31520207710A1BC70B5754D00246878002849D06C70BE
S31520207720734ED6F8C041A868A04206D0211A05F18A
S315202077301003FF22184403F0ABFB68682146FFF7AD
S31520207740E6FF10B942F2DB7070BDD6F8C01168682A
S3152020775003F0B4FC40B1D6F8C011686805F11002D8
S3152020776003F0D0FC040024D16C6800F0A9FD644904
S3152020777005F11003086B3146221A002001F029F961
S31520207780044600F0A3FD00206870A8608CB95D48EF
S315202077900268D10304D5D6F8C0116868FFF750FED9
S315202077A0D6F8C021686805F1100103F021FD00B14B
S315202077B029E0204670BD70B504464C4A107810B991
S315202077C042F2DD7070BD4A4AD2F8C451684200EABE
S315202077D004060C19644204406442A41B2146304608
S315202077E000F077F870B947480168CA0303D52946BF
S315202077F03046FFF725FE21463046FFF788FF00B9A1
S3152020780001E0002070BD44F68A6070BDE0B537499E
S31520207810087810B942F2DD700EBD3549002001F0FE
S3152020782035F9D0B901A9012000F018F8A8B9694680
S31520207830102000F013F880B932480168CA0303D516
S3152020784000990198FFF7FCFD0099019800F002FCB1
S3152020785010B944F68A600EBD00200EBD002930B531
S315202078602DD0234C04F5E07260B1012814D00228D3
S3152020787015D0032818D0042819D0052819D0102867
S315202078801AD01CE0194A1078002814BF002042F292
S31520207890DD700860002030BD4FF0C040F9E700F0D1
S315202078A010F8AD0A0D60F5E713680B60F2E7506813
S315202078B0EFE7106918B1ECE700F003F8F2E70420AF
S315202078C030BD256D636DA26DE06D5D195519451985
S315202078D070470B4602460A49086B0549121A0020B2
S315202078E002F016BC000000005CEF00E06C200020B7
S315202078F06C1E00200F0000F0000400604643464224
S315202079005000002014ED00E0416882688A4209D2A6
S31520207910891A826641600FF29D21016001228260D0
S315202079200020704742F2787070470FF209010160FB
S315202079300020704710B5416ADFF814444A898282B4
S31520207940CB689B1E43604A68A24202D1097A02294B
S3152020795002DB42F2757010BD0FF209020260002090
S3152020796010BD0000416A43684A6882610A68D21EB7
S315202079709A42826002D342F27670704709890029A2
S3152020798008BFFFF7C1BF42F277707047F8B50446AB
S31520207990DFF8C063B4F85A30376804F15C05626AB0
S315202079A06968D7F808C01806000F1B0A43EA002387
S315202079B02868E047A0B930680169884780B9616A9C
S315202079C0102204F11C0003F04DFC00F044F800982E
S315202079D0A968884200D043E00FF2D9102060002009
S315202079E0F2BDF8B504461022616A04F11C00DFF8C6
S315202079F0646304F15C0503F035FCB4F85A3037682B
S31520207A00626A10211806000F1B0AD7F808C043EA1D
S31520207A1000232868E047E8B928681030286068687D
S31520207A2010381028686088BFDFF82C0310D810B1D2
S31520207A30DFF828030CE030680169884750B900F048
S31520207A400AF80098A968884200D009E00FF265104C
S31520207A5020600020F2BD694604F11C0003F018BC0A
S31520207A6042F27A70F2BD10B5044604F11C0003F0F0
S31520207A70F3FB216E11292CBFB748B848206000207F
S31520207A8010BD38B5B34B426E1C68016EC06DE568DB
S31520207A90A84732BDB0F85A2013061B0F110AD20769
S31520207AA041EA03214CBF08230423042901D00420C2
S31520207AB0704700F16002C16DA94800F047BC70B53F
S31520207AC0044642F27F76E56D284600F03AFB80B1E7
S31520207AD0606E04F11801A8470646012E03D12046E0
S31520207AE0BDE8704010E7022E03D100F0A9F800204F
S31520207AF070BD304670BD10B5436800F15C025168F8
S31520207B0081608B4202D242F2767010BD147AE3074E
S31520207B1007D512688469A24203D111B1C160002021
S31520207B2010BD90F85A10CA0702D542F27C7010BDBB
S31520207B30BDE81040E8E638B5B0F85A108A070CD4CC
S31520207B400B061B0F0A0AC90742EA032207D5092A70
S31520207B5003D1BDE83140FFF759BE042032BD7D4B0D
S31520207B605C301C6841680068A569A84732BD0000C2
S31520207B701CB50446B4F85A000106090F000A40EA4B
S31520207B800120092803D1E06DFFF7CDFC16BD012980
S31520207B900ED1694600F010FA58B9E06D009C6D4A66
S31520207BA0142193684C4319190A691369984716BDFD
S31520207BB0042016BDF8B5044604F15806616A3046FD
S31520207BC010225A2500F062FA0120375C401CED195C
S31520207BD01028FAD3307805F0FF05A84202D042F2C9
S31520207BE07970F2BD717842F212700A2925D8DFE821
S31520207BF001F01A060A0E26121A16261C20002046E6
S31520207C00BDE8F24077E72046BDE8F2402BE7204644
S31520207C10BDE8F24035E72046BDE8F2404FE7204652
S31520207C20BDE8F24087E70020F2BD2046BDE8F240BD
S31520207C309EE72046BDE8F2402CE742F27B70F2BD5B
S31520207C4010B5484C70212046FFF7BAFB464A002043
S31520207C50226010BDF8B506460C4600200027434D6D
S31520207C60A74218D02969E01BC1F1100109E080B193
S31520207C702B69F25D7F1C491E401EEA542A69521C3C
S31520207C802A610029F3D10020286100F005F810B9D7
S31520207C90E6E742F27D70F2BD80B53248334A426231
S31520207CA0C26800212AB1036993420AD05B1C036172
S31520207CB001E0826E1AB901688847014601E0521E0A
S31520207CC08266084602BDF8B5224C2068016988479D
S31520207CD000283CD1234F97F85900042823D107F1B7
S31520207CE05C052E68304600F02CFAC8B10020FFF73C
S31520207CF03BFB97F85A00810710D568686861616850
S31520207D0060B10A68904222BF4968491C814201D24B
S31520207D100420F2BD80F3088880F30988A868B0473C
S31520207D2042F27E70F2BD08280FD10220FFF71CFBFD
S31520207D30BFF34F8F0E490F480A6802F4E0620243D0
S31520207D400A60BFF34F8F00BFFDE742F27B70F2BD82
S31520207D5053544D5010000020E37920208D79202087
S31520207D6000401F40D02500202B79202044260020AB
S31520207D700CED00E00400FA057CB50C0016460546FD
S31520207D801A4601D1002076BD100A10F00F0002D02D
S31520207D9001280AD019E06A46284600F0BAF8B0B978
S31520207DA000F0A1F86568A84776BD6B46284600F006
S31520207DB0D3F860B90098A54A036928469969516085
S31520207DC05B6832462146984776BD42F2D87076BD0A
S31520207DD0F8B50C00174606461A4601D10020F2BDFA
S31520207DE0100A10F00F00994D02D0012816D02CE051
S31520207DF0304600F0F6F840BB6A462146304600F071
S31520207E0088F820BB009B214630463A46DC68A66887
S31520207E10B047B8B90099CA68136911E06B46304655
S31520207E2000F09AF898B900983A460369304699693D
S31520207E3069609B682146984720B900990A69536949
S31520207E402B60F2BD00212960F2BD42F2D870F2BD2E
S31520207E507CB5130A13F00F0305460C4642F2D8765A
S31520207E6002D0012B14D024E06A4600F052F8E8B95B
S31520207E700099CA68506998B12146284600F0B1F881
S31520207E80B8B9009A21462846D3685C69A04776BDB2
S31520207E906B4600F061F848B900980169CA680AB9AA
S31520207EA0662076BD21462846904776BD14B9002007
S31520207EB076BD304676BD7CB50C000546164601D1EA
S31520207EC0002076BD00F08DF810B142F2D87076BD34
S31520207ED06A462146284600F01CF818B900F003F817
S31520207EE0E568A84776BD009B214628463246DC68B1
S31520207EF0704710B5554C206810B18047002121606D
S31520207F0010BD10B5514C606810B1804700216160CA
S31520207F1010BDF0B516000D4642F2D8771AD04C493E
S31520207F204A68326015B915E01033336033688BB157
S31520207F301A68002A04BF5C68002C01D1D96849B18F
S31520207F40904224BF59688142EED32818401E814290
S31520207F5028BF00273846F0BDF0B50646174642F220
S31520207F60D87C3BB33A4882681A6019B922E005F1D9
S31520207F7014041C601D68EDB12A68002A04BF6C68B1
S31520207F80002C07D1A868002804BFEC68002C01D15A
S31520207F90286978B19742EAD1AA68E8680027A0FB29
S31520207FA00245701847EB07018D4203D301D884423E
S31520207FB000D3BC466046F0BD70B505460420002699
S31520207FC071B1234A946801E0761C143444B12368A5
S31520207FD033B12269002A03D09D42F5D10E600020BC
S31520207FE070BDF0B509181A4B491E00225F68DC685F
S31520207FF0256905EBC20606F17C041601BD59666883
S315202080002468AC4208BFAE4203D0864228BFA14294
S3152020801004D2521C012AEAD90020F0BD0120F0BD4D
S3152020802070B50B4D6E6803E0006800B180471036AE
S31520208030F0680028F8D1AD6803E0096801B18847C7
S31520208040143529690029F8D162BD0000CC240020EE
S31520208050100000200246012000E0491E21B112F81E
S31520208060013BFF2BF9D000207047000062B38B071D
S3152020807008D0521E11F8013B00F8013B00F0248065
S315202080808B07F6D1830740F0208000BF103A07D314
S3152020809030B4B1E83810103AA0E83810F9D230BC04
S315202080A0530724BFB1E80810A0E8081044BF51F8B0
S315202080B0043B40F8043BD20724BF31F8022B20F89A
S315202080C0022B44BF0B7803707047121F17D35B0017
S315202080D009D151F8043B20F8023B1B0C121F20F833
S315202080E0023BF6D20BE051F8043B00F8013B1B0A79
S315202080F020F8023B1B0C121F00F8013BF3D238BF9D
S31520208100121D521E24BF11F8013B00F8013BF8D85E
S315202081107047000038B504460D460020FFF724F9A5
S31520208120524800210560524A44601160036883F357
S31520208130088883F3098840688047BDE8314000F0ED
S315202081409EB800281CB51EBF10F1010F4949884250
S3152020815001D1002016BD6A4602210024FFF7D9FE50
S3152020816020B90098017ACA0748BF0124204616BDA7
S3152020817010B50246404900204B6800E01033D968EC
S3152020818061B11C7A04F01104112CF7D1196891429F
S31520208190F4D25C68641C9442F0D3012010BD4FF4C5
S315202081A07A7070B5344C0026E1680A6902F18C0594
S315202081B0FEF700FB00F054FA98B9FFF7C2FF80B112
S315202081C0E068016991F8AA20D00703D40021002075
S315202081D0FFF7A0FF6E8A4FF6FF70864208BF41F256
S315202081E08836304603F06AFA206218B90021BDE8A5
S315202081F070408FE770BD38B51F4C206A0169002971
S315202082001EBF096800298847226A506900281FBF97
S315202082100168002910468847206901688847256A11
S31520208220206941688847EA68D1680029F8D028461D
S315202082308847F5E710B500F03DF800F02CFA0E4CF3
S31520208240E068016888470020FEF7A8FBFEF77AFA47
S31520208250206801688847E26850688047FFF79FFFBB
S31520208260FFF7C9FF00F00BF8002010BD601D00208D
S3152020827008ED00E0FDDE202010000020FEE7012092
S3152020828080F3138830BFFBE70A0018BF0122026063
S31520208290704772B60268521C026062B601680029D5
S315202082A0FCD10120704772B60168491EFFE70160A4
S315202082B062B6704772B600200B49086062B67047D6
S315202082C072B609480168491C016070470648016852
S315202082D0022903D20022026062B6704703685B1E21
S315202082E00360704700000000B82400202DE9F041EB
S315202082F0FEF7D7FB8046784C1127204600212246C0
S31520208300E7FB08010023754F002503F035FA401EB0
S315202083104600786042F2107271480021E2FB080183
S315202083202246002303F028FA25223018E2FB0845AE
S31520208330401CB860684A00232046294603F01CFAD0
S315202083403618761CFE600020BDE8F081002B2DE932
S31520208350F04104460E4690464DD0042B02D1B0095A
S31520208360800101D0042047E05C4F387830B9204680
S31520208370FFF7BCFF00283FD101203870642120461A
S3152020838000F072F8002837D14FF4007506F03F062A
S31520208390A5602069000C0004206121697868BA68EC
S315202083A0000300F47040C2F30B02104301434D48F2
S315202083B021614D49A16006436660D8F800202262DB
S315202083C06421204600F050F8B0B92068810548BFC6
S315202083D044F6E96010D46421204600F045F850B9CF
S315202083E0A560204600F065F84FF480606421606027
S315202083F0204600F039F80020BDE8F081F8B5054682
S315202084000E46144673B3042B02D1B009800101D045
S315202084100420F2BD314F387828B92846FFF766FF69
S3152020842008BB012038706421284600F01DF8D0B9F9
S315202084304FF4007006F03F06A860284600F039F871
S315202084403F210120A96064216E602863284600F020
S315202084500BF840B92868810502D544F6E860F2BDBC
S31520208460286C20600020F2BD2DE9F04782460F4679
S315202084704FF47A700026FEF79DF9A0FB078901FBB1
S315202084800799FEF78DF904460D46DAF80010C8053F
S315202084900CD5002FF9D0FEF783F9001BA9414945B9
S315202084A0F3D301D84045F0D344F6EB663046BDE8F9
S315202084B0F08701696FF315310161084902694B681C
S315202084C0C9681B0303F47043090401F47C110B4390
S315202084D01A4302617047000000CA9A3BA824002054
S315202084E00065CD1D0000773E3F00FFFF0A484FF074
S315202084F0FF31016041608160C1600161416181611C
S31520208500C1610648016041608160C16001614161AD
S315202085108161C1617047000080E100E080E200E0D7
S3152020852000F01F02674B000A914003EB800030B514
S31520208530032595400468AC432143016030BD2DE9D5
S31520208540F84F894609F15005D5F810A0D5F81CB06A
S315202085506969BAF1000F08BF4FF0F10ABBF1000F8D
S3152020856008BFDFF864B1002914BF88464FF0F10810
S31520208570A969002914BF0C46F12400286CD129684A
S315202085806868524E524F002908BF002844D018B19F
S3152020859000217962C6F824A0286818B10021396202
S315202085A0C6F820A01020002138610020C6F81080AF
S315202085B079617461F861F461B961B461F860F4603D
S315202085C099F84510082907D1F862F4627863746314
S315202085D038633463B862B46299F80C00032818BF54
S315202085E0012811D1D9F840103A488A0506D51023FA
S315202085F000213B60C6F800B0016005E01021012271
S31520208600B960C6F808B00260484601F03AFF18B1B2
S3152020861000213961C6F81080A86810B9E96821B907
S315202086201AE00020B863C6F838A01021796000210E
S31520208630C6F80480F862F46279637463386334631D
S31520208640B962B46299F80C00032818BF012803D117
S3152020865010203867C6F870B0BDE8F18F1E487047E5
S315202086600020704701460420002900D1704710B50C
S31520208670087B03280CD101F1780291F840104B0693
S3152020868002D50F24147003E0507808B91E211170EA
S31520208690002010BD7047032100E000214FF4C06068
S315202086A03EE70E490860002070470C490A680260A0
S315202086B0002070470A480168006A10F0020018BF9F
S315202086C00120704768C00F40F1300100FC801F4018
S315202086D04C801F4094811F40002D310128800F405F
S315202086E040441F4062F30F2262F31F4200B500BFB1
S315202086F0130096469446103928BFA0E80C50FAD885
S315202087005FEA417C28BF0CC048BF40F8042BC9072C
S3152020871028BF20F8022B48BF00F8012B00BD0000FF
S315202087202DE9F04F0C009246054695B014BFBAF1BC
S31520208730000F042044D0DFF890B04FF480784146D3
S315202087405846FEF73DFE684603F044F988BB8DF86F
S315202087500300DFF878906946484603F0F1FA40BBDB
S31520208760002715E00BEB871610224846314603F0EA
S3152020877017FBF0B9082206F11001484603F010FB3A
S31520208780B8B905EBC7007F1C4168B1618068F061EC
S315202087902968C1F303208742E4DBC9B2584602F098
S315202087A0ABFB2868C0F3032028B1584602F0F8FB1B
S315202087B008B1012004E0C4F800B00020CAF80080E7
S315202087C015B0BDE8F08F00BF601C002000C00C4013
S315202087D070B505460E4602F095F804000BD101230C
S315202087E006F180020021284602F053F9707C0128E8
S315202087F004BF00213174204670BDF0B50F260F240A
S31520208800054689B0029601EB041600208DF810202B
S315202088108DF80000012701930123039706F180029A
S315202088200121284602F035F90297694600F02BF9F6
S3152020883009B0F0BDF0B589B004460D4616461F4650
S3152020884000F01BF8B8B98DF800000E2005EB0011BA
S315202088500E22029201230393204601F180028DF8F5
S3152020886010600197012102F014F901206946029037
S31520208870204602F03CF909B0F0BD2DE9F8438046A8
S3152020888084B00C4616461F4604202CB304F5E67504
S31520208890687818B14046FFF7B0FFE8B9287804F188
S315202088A0B00902280AD1694699E80D1081E80D10F1
S315202088B004F1C00090E80E1089E80E103B4632469F
S315202088C02146404601F04BFF2978022904D16A46E9
S315202088D092E83A0089E83A0005B0BDE8F083F8B579
S315202088E00C4684B00421ECB194F8CC1104F1900507
S315202088F002290AD16E4695E8825086E8825004F1F4
S31520208900A00191E8C05085E8C050214602F0E2F946
S31520208910014694F8CC01022804D16A4692E85900EF
S3152020892085E85900084605B0F0BD2DE9FE435FEAEB
S315202089300108814615464AD0012D48D808F5E47607
S315202089403078002843D008F1400748463C6802F09A
S31520208950B1F93178A40904F0010465B939B1224668
S315202089604846FEF79FF84146484601F091FDB079EA
S3152020897088B101210CE041B1B97922464846FEF75B
S3152020898091F84146484601F083FDB07918B100217F
S31520208990484602F036FA6A4602214846FEF7CDF8C6
S315202089A014B100984008009001AA00214846FEF7FD
S315202089B0C4F80199009A0A20B1FBF2F1491C4143DF
S315202089C0890800E000BF0846411E0028FAD1BDE8EC
S315202089D0F7832DE9F0430546894689B017461E467A
S315202089E0484601F047FD80460022494600F04CF9D2
S315202089F000F041F8FFF741FF040031D1022109237D
S31520208A008DF8001001220293039299F8471009F558
S31520208A10C87200291CBF1078002803D051780291F3
S31520208A201378039301978DF810800596116B069184
S31520208A30029809EB0011039B00F0C8F800F020F8FB
S31520208A4004000DD100F017F8FFF749FF040007D1E5
S31520208A5099F8CF0120B100F00EF8FFF7EBFE04467F
S31520208A60284602F02DF90122494600F00DF920462C
S31520208A7009B0BDE8F0833B46424649462846704722
S31520208A80012069460290284602F031B82DE9F847A0
S31520208A9089B0002401220B2389468DF800400392B9
S31520208AA00027029380468DF8104099F84710002918
S31520208AB01EBF09F5CA710878002803D04A78029289
S31520208AC00D78039500224946404609F1500AFFF7C2
S31520208AD02CFF04255AF8046BCEB13B46002249468A
S31520208AE04046FFF7CAFE040014D10197029809EBED
S31520208AF00011039B404601F18002012101F0C9FFAC
S31520208B0001206946029000F092FA040002D1F7195A
S31520208B106D1EDFD14646ECB94FF0000809F150070B
S31520208B200425002057F8044B84B1434600224946A9
S31520208B303046FFF7D4FE60B999F8CF1131B14346BC
S31520208B40002249463046FFF775FE10B96D1EA04417
S31520208B50E8D10446304602F0B3F801224946304691
S31520208B60FFF7E3FE20460AB0BDE8F0872DE9F8415D
S31520208B7005460E4689B01746304601F07BFC00F0AC
S31520208B8080F800F06EF804001BD100220123052472
S31520208B9000F06CF81EBF06F5C6710878002800F094
S31520208BA050F800F00FF8FFF76BFF040009D100F012
S31520208BB053F8040005D196F8CF0110B100F047F8FC
S31520208BC0044634E00298039B06EB0011284601F167
S31520208BD08002012101F05DBF2DE9F84105460E46B0
S31520208BE089B01746304601F045FC00F04AF800F0DF
S31520208BF038F804001BD100220123082400F036F87F
S31520208C001EBF06F5CE710878002800F01AF8FFF767
S31520208C10D9FFFFF735FF040009D100F01DF8040025
S31520208C2005D196F8CF0110B100F011F80446284658
S31520208C3002F046F8012200F026F820460AB0BDE8C8
S31520208C40F08103D04A7802920978039170473B46F7
S31520208C50424631462846EDE53B46424631462846A1
S31520208C603DE63B4642463146284606E601978DF8A4
S31520208C700020039302948DF8108096F8471000293F
S31520208C80704780460022314628464EE6F0B50546F6
S31520208C9089B00E4614461F46042084B124216846F6
S31520208CA0FEF78EFB032201238DF8002069460293CE
S31520208CB02846039307940897019601F018FF09B0D8
S31520208CC0F0BD0000F8B50D461E468EB007460021A1
S31520208CD001A8002300248C4680E81A101168042954
S31520208CE002D85068402817D301212974106C000D12
S31520208CF000F00700401E05280CD8DFE800F0030707
S31520208D000903030502240CE004240AE0012408E0D8
S31520208D10032406E02B747BE03168C1F30324002C66
S31520208D2076D000930322069301218DF82430631EEA
S31520208D30032B8DF81420CDF830D00D910791089172
S31520208D400ED8DFE803F006020A02DFF8A42A0192F1
S31520208D5006E0DFF8A01A019102E0DFF89C0A0190D4
S31520208D60012301AA0121384601F093FE05A93846A0
S31520208D7001F0BDFE00284CD13068C0F303600028E6
S31520208D801FBF7068C0F3072000280090641E0021B2
S31520208D90032C29743CD8DFE804F00210271C009A03
S31520208DA0510635D4DFF8540AC5F8E000009A02F0BF
S31520208DB0C30242F04002009221E00099880727D47E
S31520208DC0DFF83C2AC5F8E0200099090241F4007119
S31520208DD014E0009988071BD4DFF8282AC5F8E0205C
S31520208DE0009941F0020109E00099080610D4DFF825
S31520208DF0EC2CC5F8E020009941F08001009101205B
S31520208E0001210622287429756A750098A86169743B
S31520208E1000200FB0F0BD0022F8B50C460023002616
S31520208E2005468EB00AA90292002081E84D00032231
S31520208E3000908DF8143001218DF804200126DFF8CA
S31520208E40A07CCDF820D00991012303910AAA04966B
S31520208E5028460A9701F01DFE01A9FFF714FEB8B98E
S31520208E600099042201F0F7010091267400992675B5
S31520208E70090401F47F0141F0042141F08101C4F865
S31520208E8060110E216175009BA361627484F8CF6105
S31520208E900FB0F0BD2DE9F847914600220C4691B03F
S31520208EA08DF810204FF40071029201228046019104
S31520208EB0039254B3032109AA8DF800101026079295
S31520208EC004F18007089601233A46012101F0E1FDAD
S31520208ED001266946029600F0AAF8B0B9DDF82400EA
S31520208EE049A610F1010F02BF09A8416811F1010F0F
S31520208EF007D1826812F1010F04BFC06810F1010F5B
S31520208F0009D000F08FF800283CD044F68E6A5046CF
S31520208F1012B0BDE8F0870023002221464046FFF705
S31520208F20ACFC0028F1D109201023029002220693BE
S31520208F30039B8DF80020029807EB0012059601214D
S31520208F40404601F0A6FD012140460291694601F0E6
S31520208F50CEFD0028D9D1002300222146404601F00B
S31520208F60B9FE0028D1D100F057F869468DF80020A7
S31520208F704046079301F0BBFD0028C6D100F052F8E9
S31520208F800028C2D104F1400701223868B979022588
S31520208F90322440F0400038604046FDF783FD00E053
S31520208FA06D1C641EB1D000210DA8002200238C4602
S31520208FB080E80E103969DFF82C2D4046914205F0C5
S31520208FC0FF0227BFDFF81C3B0D93DFF81C1B0D91FA
S31520208FD0DFF8143D00211A4301230E920DAA01F039
S31520208FE058FD002000F018F88DF8002069460793D8
S31520208FF000F01DF85FEA000A87D100F013F8002858
S31520209000CED1C9F8005082E7001122334455667725
S315202090108899AABBCCDDEEFF10210290032209AB52
S3152020902008917047102209A9304602F0E1B840463F
S3152020903001F05DBD2DE9F043CE68012504464FF4AD
S315202090408070002E47BFF61E05FA06F6761CF60817
S3152020905026654E68402E08D30E6BC6F3031605FAF6
S3152020906006F6B6F5004F18BF304604F5E07C6FF0C3
S315202090707F4ECCF800004FF00008002701EB470078
S3152020908090F8240058B105FA00F070453CBF86467A
S31520209090B94680453EBFB0F5801F80463E467F1CA0
S315202090A0042FEBD3C645CCF804E0CCF81080DFF8AB
S315202090B0345C0CBF012000208CF80900246DAC42C2
S315202090C025D391F8580040B101F16004603114F89D
S315202090D009501560885D186023E001F1250010F8FD
S315202090E01940202C04D0D82C04BFDC25156001E0A3
S315202090F021201060253111F81600202802D0D828EA
S3152020910003D00EE021221A600BE0DC2108E001F1D9
S31520209110250010F81940146001F1250212F81610C6
S3152020912019600020BDE8F0832DE9FC4F85B0164656
S315202091301A68814600244FF00408C2F30350012800
S3152020914002BFB068C0F3C044002C00F062810091B9
S315202091500098002103AB18250173069A00981178F0
S3152020916000229246934601F00F0180F8461000987F
S31520209170019204AA3146FFF75DFF0099DFF8642BA0
S3152020918001F15007386890420698016828BF2025AB
S31520209190C1F30330002809D1069B0099CDF8089009
S315202091A032464846FFF78EFD5FEA000840F03181BF
S315202091B0B168C1F3405038B130694FF0020BC0F38B
S315202091C0421A00F01F0008E0C1F3805030B1306908
S315202091D0410D01F0070AC0F3044001900098202D8C
S315202091E042F2040200F1D0011AD196F8580098B123
S315202091F006F15803D3F804C042F20423CCF300200E
S3152020920010B1DFF8E80A04E0CCF3C01020B1DFF873
S31520209210E00A08644B6407E0DFF8D83A0B6402E0E2
S31520209220DFF8D40A08644A640098012240F20643F3
S315202092300273DFF8C82A3B663A64049800F0FF00E0
S3152020924040EA054040F0006040F480600860039AC0
S315202092504FF48C60086602F0FF0242EA054242F093
S31520209260006242F480620A6306990868C0F30360AC
S3152020927058B149680A0608D001F0FF014FF0000ACC
S315202092800191F4B1480001901BE0D4B1002818DCEC
S31520209290202D05D1DFF8680ADFF8681A386379634C
S315202092A000990298FFF794FA5FEA00085FD10099A7
S315202092B0029801AAFFF7EEFD5FEA000857D14FF08A
S315202092C0000A182D1AD154B1ED20009940EA054004
S315202092D00A6C42F040020A6440F00A403AE0B16843
S315202092E0C1F3405010B13069000A2CE0C1F3805000
S315202092F010B13069000E26E0032021E00CB1EE20CB
S31520209300E3E706F15801087870B14968C1F34010A7
S3152020931018B1EC204FF0020B15E0C1F3001070B10C
S315202093206C204FF0000B0EE0B168C1F3405008B11D
S31520209330EC2008E0C1F3805008B16C2003E0132014
S3152020934000218A460191C0B240EA054040EA0B60DE
S3152020935040F0006040F48060002138630098069A2F
S3152020936000F2CD191068C0F3031040B1012850D166
S315202093707068402803D3326CC2F3402018B9019874
S315202093805044019032E0120C12F0050F18BFA5218F
S315202093900BD1900709D5069B009902983246FFF7F4
S315202093A03AFD5FEA000834D10121306C009A800A08
S315202093B010F00A0F02F5B87208D0202D6FF0F92090
S315202093C0106050600CD140F2FF6008E010F0110FC1
S315202093D01FD04FF0062010605060DFF8A40B90605D
S315202093E00122BAF1000F89F8002021D10198C8B1B5
S315202093F000F0FF018CB1DFF8F008014379630121E9
S3152020940089F801100098026C42F0400202644FF065
S315202094100008404607B0BDE8F08FDFF8680B01430F
S315202094207963F4E7002C42F204417963E7D1EEE731
S315202094300198000400F47F008CB1BAF1010F06BF19
S3152020944026230909272341EA8321014341F032417A
S3152020945041F40071DFF8300B7963B863CFE7BAF1B6
S31520209460010F06BF06230909072341EA8321014369
S3152020947041F0485141F40071DFF86C0C7963B863F0
S31520209480C5E72DE9F84F0D0096B0144608BF4FF0DA
S31520209490040869D0834608236A460021FFF7F6FB95
S315202094A05FEA000860D10098DFF8401C884218BF88
S315202094B044F68B6858D19DF8040028609DF80670E4
S315202094C07F1C0A2F88BF0A2708210CB14FF4006180
S315202094D0FB0002AA5846FFF7D9FB5FEA000843D1D2
S315202094E064212846FDF76CFF4FF0000A4FF6847959
S315202094F004E0012085F858000AF1010ABA4533D242
S3152020950002A901EBCA000278C37902EB0322B2F545
S315202095107F4F18BF4A45EFD100210223C6185B1E74
S31520209520367946EA0121F9D5C678B60004B1090272
S31520209530B2F57F4F0DD1502E05F10802584688BF2F
S3152020954050263346FFF7A2FB5FEA00080CD16E6057
S31520209550D2E74A45D0D1334605F15C025846FFF77B
S3152020956095FB5FEA0008C4D0404617B0BDE8F08FCF
S31520209570F0B5490089B003250191002601278DF8F1
S3152020958000506946029603978DF81060079208933B
S3152020959001F0ADFA0AB0E0BD490060B589B00225D8
S315202095A00191002101268DF810108DF80050694672
S315202095B0029603960592069301F099FA09B060BDAA
S315202095C02DE9F84705460C4687B00320E07304F1C1
S315202095D045000821582301700326236426731AB1D7
S315202095E0216C41F001012164012204F15006827090
S315202095F00F200121B085F18504F5C2774FF4007242
S315202096004FF48020FA6304F2C9183864C4F8D001D4
S31520209610284688F800102146FFF7DAF8002862D17C
S3152020962000F0F2F80DF10C0A80E80E10DFF8C01ACF
S31520209630DFF8C02A03910123CAF8042003AA0121B6
S31520209640284601F026FA00F0DFF8DFF8AC9A80E809
S315202096500E10DFF8A81ACDF80C90CAF804100123B2
S3152020966003AA0021284601F014FA4FF418400223B9
S31520209670029002AA40F255512846FFF78DFF002876
S3152020968031D108236A4610212846FFF771FF00288A
S3152020969029D10098DFF8682A0199904289B2019150
S315202096A008BFB1F5B24F40F09F8008236A46272194
S315202096B02846FFF75DFF002815D10098C0F3072024
S315202096C0A0F117010A29009080F08E800122824085
S315202096D032604FF470410291022302AA00212846CB
S315202096E0FFF75AFF00287CD1DFF8181A4AF20475B2
S315202096F0DFF814CA7163B5634FF08721C6F84CC0D2
S31520209700DFF8082AB565DFF8C43BDFF8C4EBDFF8BD
S31520209710C45BDFF8C4CBC6F854E0DFF8C0EBC6F84C
S315202097203090316448F2307A7264B364C6F850902F
S31520209730DFF8AC9B31667266B366F2663167756771
S31520209740C6F878C0F56704F1D006C6F84CE0DFF8F5
S3152020975094EBC6F850E004F5A874C6F85490DFF8C8
S31520209760889BC6F830E0DFF884EB31647264B364FA
S3152020977031607260B360C6F80C9031617261B3615A
S31520209780F26131627562C6F828C0F562C6F834E007
S31520209790C6F838A031667266B366C6F86C90316713
S315202097A07267B367F26721602161DFF8441B62612B
S315202097B002226560C4F808C0E560A3610323E16145
S315202097C004213A7101247B7109233A703A730522C8
S315202097D0397239740B217C707B737A72797488F88C
S315202097E0034008B0BDE8F08744F68D60F9E7000015
S315202097F035040124050401243F0401240104012009
S315202098000104022031040120002103A80022002384
S315202098108C4670472DE9F04F8DB09046D8F8002021
S31520209820C2F30353052B0CBF01260026C2F30335B2
S31520209830002DC2F3034418BF032D07D18A460AF10F
S31520209840300783462CB1032C00D1DDB94FF0040913
S315202098503FE16846FEF729FF814600F056FAB9F126
S31520209860000F07D16A465146584600F08DFC5FEA24
S315202098700009EDD1002010218AF80C00032239613D
S315202098800C920EE0032010218AF80C003961D8F8BA
S315202098900000C0F30350042804BF5021396106205C
S315202098A00C9054EA0500514608BF0126032D0CBF13
S315202098B00820012078755846FEF78AFF5FEA0009BE
S315202098C0C6D10CB9002003E0002E14BF1020202082
S315202098D00FF6003101230A180121584601F0D9F844
S315202098E000200323059002AA8DF8200001208DF860
S315202098F0103004A90690079058460B9201F0F7F8ED
S315202099005FEA000904BF9DF80800C228A0D102A959
S31520209910002C4FF480300AF5E07B86F0010607BF45
S31520209920897830394A79A2F1300100FA01F14FF4D1
S31520209930807239624FF48051CBF810000320CBF887
S3152020994004101021002CCBF800208AF80C00396155
S3152020995008BF032D01960AF1B0064AD10120022123
S3152020996006238AF811108AF810000022AAF812007D
S31520209970DFF880198AF8153007238AF81400019811
S315202099808DF800204FF004228DF80330DFF8683957
S31520209990A8B1822402208DF80140CAF8180033632A
S315202099A07263B163D8F80000C0F30310032819BFEF
S315202099B000208BF80A0001218BF80A1016E081245A
S315202099C002208DF80140DFF83449CAF8180001201A
S315202099D0336374630724B1638AF81C008AF8214014
S315202099E08AF82000386033647264B1640098FEF7E8
S315202099F058FE40F20640C14930603966C5B9012279
S31520209A00DFF8FC088AF80C20DFF8F8183865B94A00
S31520209A10796542F204003266DFF8EC187066DFF8CA
S31520209A20EC2831624FF48C633265CAF8303150E02D
S31520209A30019838B9012402210C2009220823DFF8B5
S31520209A40D05806E0212422212C2029222823DFF881
S31520209A50C4583D65890241EA8065DFF8BC08920238
S31520209A6042F4417241EA836341F448712843A506B2
S31520209A7045EA84257865DFF8A408BA65DFF8A0488A
S31520209A8028432C43306145F003203C67DFF8944877
S31520209A9078672C43B867DFF89008FA67DFF88C28B8
S31520209AA02A4303433266DFF88808736628433462E4
S31520209AB0716230657165DFF87C180D43CAF8305124
S31520209AC0019818B1396941F04001396102208BF89B
S31520209AD00C0048460DB0BDE8F08F00003E04022061
S31520209AE085040124EE04208AED04188A2DE9F84FF6
S31520209AF09CB0044616460D463068C0F30352072A0A
S31520209B00C0F303400CBF01270027A0B96846FEF703
S31520209B10CCFD00F0F9F8B8F1000F07D16A462946A6
S31520209B20204600F031FB5FEA00082CD100201021CE
S31520209B302873296403E0032250202A7328640821ED
S31520209B40204685F845102946FEF742FE5FEA0008A2
S31520209B5019D130680FF6AC02C0F3034008B90123AF
S31520209B6003E003280FD1012310320121204600F0E3
S31520209B7090FF0820002285F8450003A92046FFF7FC
S31520209B8080FC5FEA00086ED100F000FA380005F16B
S31520209B90D00442F20109DFF8A0A704D150210322E4
S31520209BA029642A730DE0C4F810A0DFF890076061BD
S31520209BB00C21C4F8189001220620A9612A74687500
S31520209BC02A7505F1500140F206404C4A08660A647F
S31520209BD0306805F5E67BDFF86827C0F30343032BBF
S31520209BE01CBFC0F3033003283ED1DFF858074A6351
S31520209BF00865DFF8543740F206720B630A67DFF8F0
S31520209C004C072060DFF8481721634FF4EC63236666
S31520209C10DFF8402722644AF2043060643168C1F3B9
S31520209C200340E8B90022062182238DF800208DF8F2
S31520209C3003108DF801300098FEF733FD0120022114
S31520209C402874E722697406200121AA6168754FF0DD
S31520209C50042029756982C4F810A06061C4F8189080
S31520209C6002218BF8001086E10028FCD10868029E8C
S31520209C70DFF8E456B0F1807F06F0FF0627BF2020CC
S31520209C808E231820C22346EA004643EA00432E4369
S31520209C902660019E06F0FF0646EA004635432563E8
S31520209CA0DFF8B8562B4323644FF40E5363643FB931
S31520209CB0DFF8AC064A63086301218BF802100CE01A
S31520209CC00B68CB22B3F1807F28BFCC2242EA00400A
S31520209CD028430863DFF88C0648634FF48C6121669D
S31520209CE0C1E700000100000100B204A63E04200ABC
S31520209CF03404200812042008020418080504042429
S31520209D00130420080424010080460020FEF7C9BC45
S31520209D102DE9F84F9CB0814610680D4644F68D6893
S31520209D204FF0000AC0F3035009280CBF0124002459
S31520209D300420102185F8450010682964C0F30347C4
S31520209D40C0F30336AFB96846FEF7AFFCFFF7DCFF5A
S31520209D50B8F1000F07D16A462946484600F014FA82
S31520209D605FEA00085AD1012085F80CA085F8450025
S31520209D700EE0022F02D10320287309E0032F4DD1B4
S31520209D8003210820297385F845000CB94FF0010AD4
S31520209D90002E1CBF022E032E40D156EA070008BFF4
S31520209DA00124022E03D1042085F8450004E0032E49
S31520209DB004BF082185F84510286C002C294614BF9D
S31520209DC020F0400040F0400028644846FEF700FD81
S31520209DD05FEA000822D144B1022F02D0032F02D0FD
S31520209DE00CE010200BE0202009E0022F02D0032FC8
S31520209DF002D003E0302002E0402000E000200FF2D5
S31520209E00246101230A180121484600F042FE5246C9
S31520209E1003A94846FFF735FB5FEA000840F0AB80F0
S31520209E2000F0B4F8032005F18001287340F20642A1
S31520209E30DFF834350A630B613CB94FF0220E2C2013
S31520209E404FF029094FF0280C06E04FF0020E0C2087
S31520209E504FF009094FF0080C330603F0407A3302FD
S31520209E6003F4407343EA80204AEA030747EA8E6ECA
S31520209E70DFF8F8B4022E4AEA000005F5807A40EA97
S31520209E8089604BEA0E0BC1F800B01CBF032E0022BE
S31520209E9040F0041048604EF0201040F480600865A1
S31520209EA0DFF8CC0440EA0E00CAF80000DFF8C4042C
S31520209EB040EA0E00CAF8100043EA8C2040F08000C9
S31520209EC0CAF8140043F48C60CAF8300016D147EA49
S31520209ED08967DFF8A4041A4300230A640222074371
S31520209EE0022E0F6285F8CC21AB6103D14FF480205E
S31520209EF0A86104E0032E02D14FF40022AA6124B9DE
S31520209F00A86940F40000A86106E02A6C012042F0EE
S31520209F1080022A6485F87900DFF8602442F2030360
S31520209F200A660120002E4B66287414BF02200020CA
S31520209F3068740620687501212975002069828DF8AC
S31520209F4000004CB1022E08BF41200CD0032E0AD18E
S31520209F5081218DF8011008E0022E08BF422002D070
S31520209F60032E08BF82208DF8010008228DF80320B9
S31520209F700098FEF796FB40461DB0BDE8F08F000006
S31520209F80001E10320032042604A6017C01AB02AA50
S31520209F9003A92846FFF74EB82DE9F8410D4604249B
S31520209FA01646002D99B0804618BF002E00F09880C6
S31520209FB04FF400712846FDF703FA05F144070122E4
S31520209FC04FF08073BA70FB60DFF8B4032860DFF8A7
S31520209FD0B4130322012069606A73AA7385F8C80125
S31520209FE03168C1F30360002808DD7068C0F30340A0
S31520209FF0012803D1296C41F4807129643068020D2F
S3152020A00002F00F02092A61D8DFE802F0050546484A
S3152020A0104E4E54545A5AC0F30340002856D1DFF8E6
S3152020A0206813DFF86823F96329467C7040463A6432
S3152020A030FEF7CEFB040049D13068C0F30310012877
S3152020A04010D105F5B8706FF0F92101600023416029
S3152020A05040F2FF618160002229464046FEF7CDFB73
S3152020A060040033D131680FF22C300123C1F3034190
S3152020A07000EB01120121404600F00BFD002269462B
S3152020A0804046FFF7FEF9040020D133466A4629468A
S3152020A0904046FFF749F818E0012200E00022294631
S3152020A0A04046FFF78DFA10E0324629464046FFF714
S3152020A0B0B1FB0AE0324629464046FFF717FD04E069
S3152020A0C0324629464046FFF723FE044634B9284621
S3152020A0D0FEF7C8FA307800F00F00B87001213970E9
S3152020A0E020461AB0BDE8F0810426017C5346445010
S3152020A0F02087188B108F02A3A087188B108F04A778
S3152020A10000510052108F06B3008770870087AA87D8
S3152020A1102DE9F04180460C46042074B304F5E275FF
S3152020A1209F1829687F42494201EA02066A790F4030
S3152020A1307F420AB9E96889B9BE421ED200F01FF8CB
S3152020A140002804BF29688E19F6D016E0324621460B
S3152020A1504046FEF741FD80B9E9688E19BE420CD2F1
S3152020A160E96836EA010002D1B81B8842EED200F017
S3152020A17006F8002808BF2968EFD0BDE8F0813246CE
S3152020A18021464046FEF7F2BC2DE9F8430E461446FA
S3152020A1900421002C92B0804604D060782178884211
S3152020A1A008BF002100F08D8006F145070820387071
S3152020A1B0607803254FF00109422818BF412802D193
S3152020A1C00420022538706078822814BF42284FF058
S3152020A1D02109002020210A908DF834008DF82400B2
S3152020A1E001200B9001A8FDF7EBF8E4782A0201ABB9
S3152020A1F0062C0ED031D3082C01D014D32DE040F2DA
S3152020A2000640104340F2FF4101900A431A61022280
S3152020A21024E040F2994140F2664414430A431A61ED
S3152020A220022201941AE042EA8922B9F1210F42EA58
S3152020A230056242EA896242F4190042F4CC0240F0D7
S3152020A240660042F0990201901A6103D1306C40F0E9
S3152020A2504000306402210C9101E001220C92012061
S3152020A2604FF08071787006F150000160444A3260C8
S3152020A2700324444B012273600A2374733146B4733A
S3152020A28086F8C82143624046FEF7A2FA010018D17B
S3152020A2900C9B01AA012140464FF47A7400F0F9FB69
S3152020A2A009A9FEF7C4FE3A4A01461368B3FBF4F423
S3152020A2B0009403E000BF009A521E009200980028C6
S3152020A2C0F8D1084613B0BDE8F08300000087058743
S3152020A2D0108F0BB700875587008702870087A087B6
S3152020A2E0108F80A30087188B00878087108F008788
S3152020A2F00087108700040120720400040004020451
S3152020A3000C0420080830042421042008DC0420081A
S3152020A310EC071307EE871187200306030603F903AC
S3152020A3200503FA032103DE03200304031203ED03AE
S3152020A330DC03230360039F0381040004000401043B
S3152020A34006B304A7050704A7FD07208B2107208B2A
S3152020A350DC07208B1207208B000400080004000B4A
S3152020A360FD04208B0C330427050404240B04200031
S3152020A370D8042000020420000504040071040004EF
S3152020A38046434642000401560304180804240100CB
S3152020A390B00000205A0418080830FF2400000000CE
S3152020A3A0000000005A0518090831FF25000000008A
S3152020A3B0000000005A06180A0832FF260000000076
S3152020A3C00000000000000000000000000000000047
S3152020A3D0000000009F04032400000000000000006D
S3152020A3E0000000009F076007200B042700000000C4
S3152020A3F0000000009F876087208B04A700000000B4
S3152020A400000000005A0418080830FF24000000002D
S3152020A410000000005A07208BFFA700000000000044
S3152020A420000000005A0418080830FF24000000000D
S3152020A430000000005A06180AFF260000000000002F
S3152020A440000000005A07180BFF270000000000001C
S3152020A450000000005A06188AFFA60000000000000F
S3152020A460000000005A07208BFFA7000000000000F4
S3152020A4700000000090F8400010F0040018BF0120D2
S3152020A480704790F8400010F0010018BF0120704757
S3152020A4902DE9FF47814604200024B9F1000F0D46FF
S3152020A4A008BFDFF88849002C18BF002D7CD0297BD7
S3152020A4B0042979DA032901AF15D195F84030980778
S3152020A4C011D46A4602214846FCF737FB009BDFF869
S3152020A4D0602993420CD395F840100B0608D4792294
S3152020A4E001927A603FE04FF48070019078603AE0E4
S3152020A4F000264FF47A7805EB46007830417829BB40
S3152020A50000786421484319D1286C03A9800900F0DA
S3152020A510010A52464846FCF729FB0399BAF1000F57
S3152020A520DFF81009B0FBF1F101D1490800E08908D4
S3152020A5304B2208FB01F1B1FBF2F106E04B23B0FBE5
S3152020A540F3F103FB01F2824200D2491C402928BFA5
S3152020A5503F21490201F4FC4141F4807147F826103D
S3152020A560761C022EC7D32068400800F0010090F008
S3152020A570010003D0216841F0020121602A6D04F1F7
S3152020A580C003002A07BF696D0029019A1A60A96DA8
S3152020A590002907BFEA6D002A7968596018B120681A
S3152020A5A020F002002060002004B0BDE8F08710B51E
S3152020A5B004460420002C18BF002A0FD073B1DFF8E0
S3152020A5C07408B0FBF2F04343B1FBF3F000E0401CEB
S3152020A5D000FB03F28A42FAD32060002010BD38B552
S3152020A5E084B04FF6FF740194009400B909B9042071
S3152020A5F028E003AA0221FCF7A0FA02AA01210020C2
S3152020A600DFF83458FCF799FA039A4FF480632946E9
S3152020A61001A8FFF7CCFF029A4FF4806329466846AB
S3152020A620FFF7C5FF0199DFF81438A14288BF0194AE
S3152020A630009AA24288BF009401980099C1EA00425C
S3152020A64000201A6005B030BDD0F8E010CA07FBD52F
S3152020A650D0F8E0309907FBD570472DE9FE430E460A
S3152020A66004210022002800924FD1002E4DD006F141
S3152020A6705008914606F5C87758F8040BDFF8AC1732
S3152020A68001EB8904800A2066707BB57BF17B400133
S3152020A69000F4787005F01F05054396F84000C9029E
S3152020A6A001F4F0410D430107706F48BF45F48065E2
S3152020A6B068B101AA02210020FCF73FFA019A716FA6
S3152020A6C001236846FFF773FF009945EA0145256770
S3152020A6D096F8470000281EBF39784A0112F0E00F6D
S3152020A6E009D07878491E490301F46041000200F41C
S3152020A6F07060084301E04FF4106009F10109B9F1B7
S3152020A700040FC4F88000B7D300210846BDE8FE8395
S3152020A7100422002810B518BF00291ED040310A79FE
S3152020A720012A0AD1C26809785208520042F0400212
S3152020A7304B0748BF42F00102C260C168DFF80047DC
S3152020A74041F02001C160002100EB8102491C136ADF
S3152020A750234003291362F7D30022104610BDF0B5FB
S3152020A760044689B0042031B30020012603278DF822
S3152020A7700000039602978DF81020019391F8472028
S3152020A780002A1EBF01F5C4721078002803D0537802
S3152020A790029312780392029D039B01EB0516012159
S3152020A7A0204606F1800200F074F9012369460293BF
S3152020A7B0204600F09CF909B0F0BD78B50424002885
S3152020A7C089B00D46164636D1002D34D0DFF87406D2
S3152020A7D00068C0F3012020B1687C022808BF00242D
S3152020A7E029D0012101968DF800106A7D334600205C
S3152020A7F00292297D00220694039105F118010591E4
S3152020A80029468DF81020FFF7AAFF00F06DF800F0FA
S3152020A81066F804000FD1688A58B9697C022918BFC6
S3152020A820032906D033460022294600F053FA04464F
S3152020A83001E000F062F820460AB070BD2DE9F8410B
S3152020A8400424002889B00D4690463ED1002D3CD0C8
S3152020A850012000228DF800000027CDF804808DF8F5
S3152020A8601020069405EB870202F12003597800294F
S3152020A87031D0DFF8D005EE190068C0F3012010B1E1
S3152020A880707F022827D00291197802F130004346A2
S3152020A89003910022059029460020FFF760FF04003F
S3152020A8A013D100F021F800F01AF804000DD1688A9F
S3152020A8B078B9717F022918BF03290AD0434600227E
S3152020A8C0294600F007FA040005D020460AB0BDE844
S3152020A8D0F08100F012F87F1C032FC3D3F5E7012067
S3152020A8E069460290002002E10298039B05EB0011A5
S3152020A8F0002001F180020121CBE064214843002180
S3152020A900FCF784B902460420002A2DE9F84F0D468B
S3152020A91014D1002D00F0A1802A7C002A04BF297F93
S3152020A920002906D095F8402012F0500602D00126A4
S3152020A93000E000262968DFF81025914240F08D801E
S3152020A940002005F14507FCF7F2F829460020FDF7FF
S3152020A950F6FD300003D000220121002001E000F086
S3152020A9607EF8FCF79FF80020DFF8C044FCF7D9F8E2
S3152020A97000F07CF821684DF60F7041F0020121602D
S3152020A98021683A780140287B082A08BF41F40051E3
S3152020A990000100F03000014341F07F4141F47F0166
S3152020A9A0002021602946FFF71AFEA06820F40040E7
S3152020A9B0A06095F84010C80703D5A26842F400226B
S3152020A9C0A26029462046FFF7A3FE29460020FFF74E
S3152020A9D044FE29460020FFF75BFD00F047F8287C3F
S3152020A9E088B100F04FF859F8048BB8F1000F06D043
S3152020A9F0524629460020FFF7E0FE70BBC244BBF139
S3152020AA00010BF0D148BB287F88B100F03BF859F8DC
S3152020AA10048BB8F1000F06D0524629460020FFF7B6
S3152020AA200DFFD0B9C244BBF1010BF0D1A8B99EB11C
S3152020AA30206840F00200206000F011F8FCF732F880
S3152020AA4029460020FFF7CBFD29460020FFF720FDD1
S3152020AA50206820F0020020600020BDE8F28F2A6CBA
S3152020AA6079780020920902F001027047206820F0B0
S3152020AA7002002060216841F0010121602268D3076D
S3152020AA80FCD4704704204FF0000A05F15009834674
S3152020AA9070472DE9F0420F4614461E46042118BB66
S3152020AAA014B34FF00009BA1949EB0903002B1BD820
S3152020AAB0112A19D200F0B5F9DFF890030221A861F6
S3152020AAC0E961B90005EB8102F71902F5007204E06D
S3152020AAD054F8043B491C42F8043BB1EB870FF7D3CB
S3152020AAE0A8610120E86100210846BDE8F0820028FF
S3152020AAF02DE9F8434FF0040871D10C0000F0CB80EB
S3152020AB002078042880F2C780DFF8206394F81090FC
S3152020AB103046DFF83C73FFF797FD0020002500F034
S3152020AB2062F9706940F01E00706161683960207892
S3152020AB30022808BFA56902D0032801D1256AADB213
S3152020AB40A068E168000400F470200543491E090628
S3152020AB5001F0E0610D4345EAC9757D602078032820
S3152020AB6034D1E269206A12F0030138D11C23BB615B
S3152020AB70B96941F00101B961BB69D907FCD43969AA
S3152020AB8041F00101396108B3402807F1600314D34D
S3152020AB9071694FF0100C890604D414E053F8041B75
S3152020ABA042F8041B5FEA0C01ACF1010CF6D1716965
S3152020ABB0403841F02001716105E0396DC90001F46A
S3152020ABC0FF61814221D271690B07DCD520780228CA
S3152020ABD018BF012839D16269A16912F003005AD120
S3152020ABE01C23FB61F86940F00100F861FB69D80756
S3152020ABF0FCD40025002928DD7069964B400621D5F6
S3152020AC0040294FF0100C38D30CE0042822BF53F8EB
S3152020AC10041B42F8041B001FF7D23FE052F8040B16
S3152020AC2043F8040B5FEA0C00ACF1010CF6D1403955
S3152020AC3025B93869012540F001003861706940F056
S3152020AC404000706173691807D4D5207818B93969FE
S3152020AC5041F0010139613046FFF7F6FC70690107A2
S3152020AC6017D5786CC0F303600E280CBF41F65838F0
S3152020AC7041F659380FE043F8040B5FEA0C00ACF19B
S3152020AC80010CD5D00029D2BF0020091F52F8040B71
S3152020AC90F1E74FF000084046BDE8F28340B119683D
S3152020ACA00091694611F8013B401E02F8013BF9D17B
S3152020ACB070698BE718B9684801688A07FBD5704701
S3152020ACC038B95A48016841F0010101600268D3076A
S3152020ACD0FCD4704700292DE9F84F8EB04FF0040997
S3152020ACE07AD001F170049246A5890122E68906933D
S3152020ACF0089202FA05F80325BAF1000F8DF81450B0
S3152020AD00079202AD0C9514BF082304230D938DF8CA
S3152020AD1024A091F84730002B1EBF01F5C2752A7852
S3152020AD20002A03D06A7807922D78089504900798F0
S3152020AD3001EB0015089B0146049805F18002FFF7D8
S3152020AD40A8FE24685FEA040B18BF4FF0010B0025EC
S3152020AD50049805A9FFF7CBFE5FEA00093CD1BAF19A
S3152020AD60000F19D001A96A4602AB042013F8017BF3
S3152020AD70401E01F8017B13F8017B02F8017BF5D1F7
S3152020AD80002E0199009803D0014038EA01010CE0F9
S3152020AD90014311EA080108E026B1029838EA0000AA
S3152020ADA0074603E0029918EA01010F4618BF01273A
S3152020ADB0F8B210EA0B0F0CD00022954208BF94421D
S3152020ADC00ED04FF47A700021FBF720FF641E65F128
S3152020ADD00005FFB2002FBBD148460FB0BDE8F08F4B
S3152020ADE041F65A39F8E758B9104901EB8001401C41
S3152020ADF00428D1F8802042F00042C1F88020F3D3E5
S3152020AE00704738B50C4658B900F00BF824B129689C
S3152020AE1041F40061296031BD286820F40060286053
S3152020AE2031BD024D2846FFF70FBC000000000A4026
S3152020AE3000E1F50500CA9A3B0065CD1D04000A40B5
S3152020AE4000FFF0FC00020A4046434642F05AF05AE0
S3152020AE50A0000A4080010A40E0000A4000F0E5BF39
S3152020AE6013460A460146184680B503E013460A468D
S3152020AE7080B51946FDF7FAF8002002BD10B5144614
S3152020AE800A4621460123BDE81040FBF7B9BA000047
S3152020AE9062F30F2262F31F42401810F0030308D0FA
S3152020AEA0C91A1FD3DB0748BF00F8012D28BF20F879
S3152020AEB0022D130030B414461546103928BF20E938
S3152020AEC03C00FAD8490728BF20E90C0048BF40F8A3
S3152020AED0042D890028BF20F8022D48BF00F8012D17
S3152020AEE030BC7047C91818BF00F8012DCB0728BFE2
S3152020AEF000F8012D704700002DE9F0470400884610
S3152020AF0025D0DFF8CCA2DAF8000010BB0026DFF827
S3152020AF10C49200F03CF804F110035B1909F1100CDF
S3152020AF20BC44186809F11802CCF800005868CCF8FF
S3152020AF30040004F11800415904F11C03D151042EB8
S3152020AF40585909F11C01C851E3DBCAF80080BDE835
S3152020AF50F0870026DFF8809200F019F804F110001F
S3152020AF60401909F1100139440268042E0A6042680A
S3152020AF704A6004F11802535909F11800C35104F10B
S3152020AF801C00415909F11C00C151E5DBDDE77701A1
S3152020AF90B5011022611909EB0700761CFDF766B86A
S3152020AFA02DE9F94E9AB008B9042082E0002403AF97
S3152020AFB00DF1140A0DF11C0B88A0D0E90023CDE950
S3152020AFC0012301A800F048F91A98202200EB8411C9
S3152020AFD001A8009100F046F9009800F1240101A86B
S3152020AFE000F056F909A800F02FFF002864D100BFF1
S3152020AFF07CA11A9D03A8D1E90023C0E9002305EBF3
S3152020B000841108200DAD0A1812F8083C2B54401C38
S3152020B0103028F8D100264FF001090020395C00EBBA
S3152020B020C9020AF80010AB5C0BF80030401C082837
S3152020B030F4DB00BF6DA08022016809A800F018FF6C
S3152020B040002839D1102105AB009105AA012109A894
S3152020B05001F02CF880BB1AF8001000EBC9033954F4
S3152020B0601BF80020401C0828EA54F4DBF87906EB6C
S3152020B0708601494409F101094840B9F1060FF871C2
S3152020B080CBDB761C062EC6DB00201A9901EB841218
S3152020B0903B5C1354401C0828F8DB1A910820295CB5
S3152020B0A01154401C3028FAD1641C042CFFF684AF9E
S3152020B0B000201CB0BDE8F08E0120FAE709180022F6
S3152020B0C030B5491E434B03EB42139D69A84224BF4A
S3152020B0D0DB698B4214D2521C042AF3DB3C4C2268B7
S3152020B0E062B100223C4B03EB42139D69A84224BF48
S3152020B0F0DB698B4204D2521C042AF3DB002030BDAC
S3152020B100012030BDF0B50C00154689B018BF002DA2
S3152020B11005D010F00F0F08BF14F00F0F01D0042018
S3152020B12054E0002600222B4901EB42118F69B842B8
S3152020B13024BFCB6983421AD2521C032AF3DD244A28
S3152020B140116891B1224B00221F68A0EB07302249BB
S3152020B15001EB42118F69B84224BFCB69834208D2C2
S3152020B160521C032AF3DD009036B903202EE00E462A
S3152020B170E8E700900E46F7E705A800F065FE20BB1D
S3152020B1808022314605A800F073FE06F1100001A9A1
S3152020B19002689DF802300A6042684A603269706906
S3152020B1A08DF811302B4642409DF800008A609DF88C
S3152020B1B00320C87305A80A739DF8012000948DF8F2
S3152020B1C012202A4600F098FF00B1012009B0F0BDD8
S3152020B1D0681E0020681D0020E81D002000000000B9
S3152020B1E000000000A6A6A6A6A6A6A6A6EFCDDCFE53
S3152020B1F00300002013F0030F09D0521E22BF13F89C
S3152020B200010B11F801CBB0EB0C00F3D0704711F0F5
S3152020B210030F14D1121F22BF53F8040B51F804CB6D
S3152020B2206045F7D0121D0AD200BA9CFA8CFCB0EBEE
S3152020B2300C0038BF6FF0000088BF01207047521ED7
S3152020B24022BF13F8010B11F801CBB0EB0C00F6D07E
S3152020B250521C08BF104670474FF0FF310022016074
S3152020B2604260704730B54368D0F8004013A5D31804
S3152020B270436007E011F8013B83EA146355F8233035
S3152020B28083EA042413465A1E002BF3D1046030BDD2
S3152020B29070B54268036812F0030F0BD002F0030248
S3152020B2A0C2F1040205A41D0E521E54F8256086EA1A
S3152020B2B00323F8D103600B6070BD0000000000005E
S3152020B2C0B71DC1046E3B8209D926430DDC760413B3
S3152020B2D06B6BC517B24D861A0550471EB8ED08264A
S3152020B2E00FF0C922D6D68A2F61CB4B2B649B0C35E7
S3152020B2F0D386CD310AA08E3CBDBD4F3870DB114C94
S3152020B300C7C6D0481EE09345A9FD5241ACAD155F76
S3152020B3101BB0D45BC2969756758B5652C836196A7F
S3152020B3207F2BD86EA60D9B6311105A6714401D796A
S3152020B330A35DDC7D7A7B9F70CD665E74E0B6239814
S3152020B34057ABE29C8E8DA191399060953CC0278B7E
S3152020B3508BDDE68F52FBA582E5E66486585B2BBE05
S3152020B360EF46EABA3660A9B7817D68B3842D2FAD22
S3152020B3703330EEA9EA16ADA45D0B6CA0906D32D4C5
S3152020B3802770F3D0FE56B0DD494B71D94C1B36C7FA
S3152020B390FB06F7C32220B4CE953D75CA28803AF203
S3152020B3A09F9DFBF646BBB8FBF1A679FFF4F63EE15E
S3152020B3B043EBFFE59ACDBCE82DD07DEC7770863423
S3152020B3C0C06D4730194B043DAE56C539AB06822792
S3152020B3D01C1B4323C53D002E7220C12ACF9D8E12D1
S3152020B3E078804F16A1A60C1B16BBCD1F13EB8A0106
S3152020B3F0A4F64B057DD00808CACDC90C07AB977893
S3152020B400B0B6567C69901571DE8DD475DBDD936BD5
S3152020B4106CC0526FB5E6116202FBD066BF469F5EB6
S3152020B420085B5E5AD17D1D576660DC5363309B4D89
S3152020B430D42D5A490D0B1944BA16D84097C6A5AC17
S3152020B44020DB64A8F9FD27A54EE0E6A14BB0A1BFDD
S3152020B450FCAD60BB258B23B69296E2B22F2BAD8A0C
S3152020B46098366C8E41102F83F60DEE87F35DA999C1
S3152020B4704440689D9D662B902A7BEA94E71DB4E084
S3152020B480500075E4892636E93E3BF7ED3B6BB0F359
S3152020B4908C7671F7555032FAE24DF3FE5FF0BCC63A
S3152020B4A0E8ED7DC231CB3ECF86D6FFCB8386B8D57D
S3152020B4B0349B79D1EDBD3ADC5AA0FBD8EEE00C695D
S3152020B4C059FDCD6D80DB8E6037C64F643296087A63
S3152020B4D0858BC97E5CAD8A73EBB04B77560D044FB6
S3152020B4E0E110C54B383686468F2B47428A7B005C37
S3152020B4F03D66C158E4408255535D43519E3B1D25F0
S3152020B5002926DC21F0009F2C471D5E28424D193626
S3152020B510F550D8322C769B3F9B6B5A3B26D615036B
S3152020B52091CBD40748ED970AFFF0560EFAA01110BA
S3152020B5304DBDD014949B93192386521D0E562FF160
S3152020B540B94BEEF5606DADF8D7706CFCD2202BE2AE
S3152020B550653DEAE6BC1BA9EB0B0668EFB6BB27D7F1
S3152020B56001A6E6D3D880A5DE6F9D64DA6ACD23C4F2
S3152020B570DDD0E2C004F6A1CDB3EB60C97E8D3EBD01
S3152020B580C990FFB910B6BCB4A7AB7DB0A2FB3AAE2A
S3152020B59015E6FBAACCC0B8A77BDD79A3C660369B6F
S3152020B5A0717DF79FA85BB4921F4675961A1632882E
S3152020B5B0AD0BF38C742DB081C330718599908A5D43
S3152020B5C02E8D4B59F7AB085440B6C95045E68E4EC2
S3152020B5D0F2FB4F4A2BDD0C479CC0CD43217D827B3D
S3152020B5E09660437F4F460072F85BC176FD0B8668D6
S3152020B5F04A16476C93300461242DC565E94B9B116F
S3152020B6005E565A1587701918306DD81C353D9F0205
S3152020B61082205E065B061D0BEC1BDC0F51A69337A2
S3152020B620E6BB52333F9D113E8880D03A8DD0972459
S3152020B6303ACD5620E3EB152D54F6D4297926A9C5E3
S3152020B640CE3B68C1171D2BCCA000EAC8A550ADD68D
S3152020B650124D6CD2CB6B2FDF7C76EEDBC1CBA1E3F8
S3152020B66076D660E7AFF023EA18EDE2EE1DBDA5F011
S3152020B670AAA064F4738627F9C49BE6FD09FDB88940
S3152020B680BEE0798D67C63A80D0DBFB84D58BBC9A09
S3152020B69062967D9EBBB03E930CADFF97B110B0AFA6
S3152020B6A0060D71ABDF2B32A66836F3A26D66B4BCCD
S3152020B6B0DA7B75B8035D36B5B440F7B12DE9F84F7E
S3152020B6C004462B48C1682B4F4FF000083D460A6997
S3152020B6D002F18C0609E0317C014205D06B69EA68CB
S3152020B6E02846996953689847183528680028F2D142
S3152020B6F04FF47A70FBF75EF8A0FB049501FB045506
S3152020B700FBF74EF882468B460020854208BF8145AE
S3152020B7100AD0FBF745F8B0EB0A0061EB0B01A942F2
S3152020B72022D828BF48451FD23C4600E0183421683D
S3152020B7300029E9D0327C0A42F8D0E16820460B68FD
S3152020B74098470028F2D05FEA0408DDD009E0317C52
S3152020B750014218BFB84503D0FB6838469968884708
S3152020B760183738680028F2D14046BDE8F28F00BF4E
S3152020B7701000002098652020BBBBE1B1B2F5803FA8
S3152020B78080F07E80022A1ED98C46B1FBF2F102FB84
S3152020B79011C31B0443EA1043B3FBF2FC02FB1C3308
S3152020B7A080B240EA0343B3FBF2F002FB103240EAB8
S3152020B7B00C4000237047022A05D98446B0FBF2F0BC
S3152020B7C002FB10C270474AB105D100F00102490898
S3152020B7D05FEA3000704700220023704700F0EEBC5D
S3152020B7E00B000200002100207047904271EB030CD1
S3152020B7F0F6D3B3F5803F2FD2F0B5B3FA83F7B1FA5B
S3152020B80081F4A7F10F0E3D1B5340CEF1200602FAFC
S3152020B8100EF2F3415340B5F10F0746D80F3C2C4486
S3152020B8204140C4F12006A040F1414140B1FBF3F64E
S3152020B83003FB1611A2FB0645001BA94102D2761E48
S3152020B8408018594180EA010221FA0EF362FA0EF29B
S3152020B85000215A403046F0BD30B4B1FBF3FC03FB47
S3152020B8601C11A2FB0C45001BA94103D2ACF1010CF3
S3152020B8708018594130BC02460B466046002170474D
S3152020B880B2F1807F65D3F0B5B2FA82F7B1FA81F4AE
S3152020B890C7F10F063D1B22FA06F307F1110EF241DE
S3152020B8A020355A40B5F10F07B8D94140C4F12006BA
S3152020B8B0A040F1414140B1FBF3FC03FB1C11A2FB4C
S3152020B8C00C45001BA94103D2BCF1010C801859411B
S3152020B8D00F2F12D30F3FC90341EA5041B1FBF3F694
S3152020B8E003FB1611A2FB0645D4EBC030A94102D298
S3152020B8F0761E8018594146EACC3C07B34140C7F111
S3152020B9002006B840F1414140B1FBF3F603FB161166
S3152020B910A2FB0645001BA94102D2761E801859415A
S3152020B92080EA010221FA0EF3C7F1200462FA0EF210
S3152020B9300CFA07F05A402CFA04F13043F0BD80EA85
S3152020B940010221FA0EF3002162FA0EF260465A40D5
S3152020B950F0BD8C46B1FBF2F102FB11C31B0243EA78
S3152020B9601063B3FBF2FC02FB1C331B024CEA0020C3
S3152020B97043EA1063B3FBF2FC02FB1C331B024CEAA6
S3152020B980002043EA1063B3FBF2FC02FB1C331B02AC
S3152020B9904CEA002043EA1063B3FBF2FC02FB1C3284
S3152020B9A04CEA00200023704700F01F02D24B000AE9
S3152020B9B0914003EB800030B5032595400468AC43C5
S3152020B9C02143016030BD01460020CC4A914218BF58
S3152020B9D001207047002810B53AD0002140F6C41225
S3152020B9E001703F234170012481704FF44861C28049
S3152020B9F02222818040F25C4103814FF4AD63C272E2
S3152020BA0040F29512C360E3230161DC214261622268
S3152020BA1083617D23C161252102624B2243620B2350
S3152020BA2081622F21C26246F62012036345F67D737A
S3152020BA304163C1634FF4C84142644FF4C862C47065
S3152020BA408472846304648364C1640265002010BD0B
S3152020BA50042010BD0023002A2DE9F04724D0566863
S3152020BA601568AE4220D2491E0829A5EB0608A44F08
S3152020BA7007EA0847A34C40F2FF794FF6FF7A2FD8E2
S3152020BA80DFE801F00513293F556B78859700D045CF
S3152020BA9098BF554524D8016AC5EA01020262056A83
S3152020BAA0ADB245EA0844046299E047F6FF7188451D
S3152020BAB098BF8D4214D8416AC5F30E05C90B45EAB5
S3152020BAC0C13591494562426A01EA08446FF31E4214
S3152020BAD01443446283E043F6FF71884598BF8D4224
S3152020BAE07CD8816AC5F30D05890B45EA81358749BE
S3152020BAF08562826A01EA08446FF31D4214438462F8
S3152020BB006DE041F6FF71884598BF8D4266D8C16A9F
S3152020BB10C5F30C05490B45EA41357D49C562C26A04
S3152020BB2001EA08446FF31C421443C46257E040F6EE
S3152020BB30FF71884598BF8D4250D8016BC5F30B0500
S3152020BB40090B45EA013573490563026B01EA08446E
S3152020BB506FF31B421443046341E0C84598BF4D450B
S3152020BB603CD8426B00F03EF84563416B21400F43A1
S3152020BB70476334E0C84598BF4D452FD8826B00F0E7
S3152020BB8031F88563816B21400F43876327E0D045B9
S3152020BB909CBF6FF07F42954220D8C16825F07F4513
S3152020BBA001F07F410D43C5608268C8EA02018160A9
S3152020BBB015E059498E4298BF8D420FD8C169C5F3E9
S3152020BBC01505890D45EA8155C56184695168A40DFD
S3152020BBD0C1F3150141EA8454846100E00423184608
S3152020BBE0BDE8F087C5F30A05D20A45EAC225704783
S3152020BBF038B504460D46A87A01007BD0102879D284
S3152020BC006168000400F4702005F10C0221F47021F3
S3152020BC1008436060012100F085F8002869D105F1EC
S3152020BC201402022100F07EF8002862D105F11C02C0
S3152020BC30032100F077F800285BD105F124020421A6
S3152020BC4000F070F8002854D105F12C02052100F0CF
S3152020BC5069F800284DD105F13402062100F062F85A
S3152020BC60002846D105F13C02072100F05BF8002888
S3152020BC703FD105F14402082100F054F8002838D19C
S3152020BC8005F14C02092100F04DF890BB21686A7815
S3152020BC90D20102F0800221F48451114321602368CD
S3152020BCA0AA781E49920002F00C020B40134323600F
S3152020BCB02368EA781A490B4002F0030213432360D3
S3152020BCC02369A988C3EA014222612369E9881B0CDA
S3152020BCD041EA0343236162692989920AC1F3090152
S3152020BCE041EA822262616268E97A120A41EA0222E4
S3152020BCF0626032BD042032BD68C00F4000C00C40B7
S3152020BD000000FF07FFFF00F80000FF7F0000FF3F35
S3152020BD100000FF1F0000FF0FFFFF3F00F3EFFFFF94
S3152020BD20FCEFFFFF204695E6024601F00F010F2982
S3152020BD3002F1400050F8210008BF116C7047000026
S3152020BD4038B504000D4618BF002D27D0FFF73BFE3F
S3152020BD5035A2032132F91000FFF726FE206820F4B1
S3152020BD60883040F4803020602168204621F482519A
S3152020BD7041F0400121602946FFF73AFF78B9206833
S3152020BD8020F4883020602978012905D1D4F8A00014
S3152020BD9040F00200C4F8A000002032BD042032BDAD
S3152020BDA02DE9FC41054600260027002D144688460D
S3152020BDB018BF002932D08CB32868C0F3802020B940
S3152020BDC02868C0F300300028F6D02868C0F3003059
S3152020BDD060B9394628467F1CFFF7A6FF042100902C
S3152020BDE0042C684698BF214600220AE028680126AE
S3152020BDF040F48050286008E010F8013B521C08F8D7
S3152020BE00013B8A42F8D3641AD6D107F00F070F2FA9
S3152020BE1005D00F212846FFF787FF00E0042630466D
S3152020BE20BDE8F681000000000C06002070470000C7
S3152020BE30DFF85C030168002944BF4FF0404383604C
S3152020BE40082141604162704710B508B9012010BD14
S3152020BE50DFF840130A6812F4406F03D10B6843F4CD
S3152020BE6040630B6000F087F9FFF7E2FF002010BD4A
S3152020BE707FB5040018BF002901D0802A01D00125D2
S3152020BE804DE0DFF8146300258B1B022B2160DFF8A1
S3152020BE900C031CD941F234269B1B3AD042F2DE16E3
S3152020BEA09B1B36D045F299569B1B2CD042F2DE1690
S3152020BEB09B1B28D042F266269B1B1FD042F2ED16F2
S3152020BEC09B1B1BD04FF470669B1B28D003E001F0F0
S3152020BED00301216023E010226846FCF7C7F8DFF82B
S3152020BEE0C00230230360DFF8BC62266000215DF8A3
S3152020BEF02130491C03290361F9D910E000F012F8FA
S3152020BF0022F0100203E000F00DF842F01002026049
S3152020BF1003E0C16941F01001C16100F033F92846E0
S3152020BF2004B070BDC16921F01001C161026870475B
S3152020BF3038B5006815460C46DFF85C22811A02299E
S3152020BF4022D9C91E1CD041F23122891A23D042F28D
S3152020BF50DE12891A22D045F29952891A1BD042F232
S3152020BF60DE12891A1AD042F26622891A13D042F298
S3152020BF70ED12891A12D04FF47062891A18D01FE058
S3152020BF80A06840F4407004E0A168000200F44070EC
S3152020BF900843A06014E06068A16803E06068A16897
S3152020BFA040F4402040F48060606041F47F4106E008
S3152020BFB06068A16840F48060606041F47E41A160A1
S3152020BFC02BB1102219462846FCF750F800E0002510
S3152020BFD00023A561E36131BDF0B503464FF07042E1
S3152020BFE00021BFF34F8FDFF8C061DFF8C0413068F2
S3152020BFF043F6E075C7031AD53167BFF34F8FF76E27
S3152020C000C7F34E3CC7F3C90E05EA4C1040EA8E70A2
S3152020C010E0605FEA0E00AEF1010EF5D15FEA0C007A
S3152020C020ACF1010CEED1BFF34F8FBFF36F8FBFF36F
S3152020C0306F8FDFF87C7101203B60DFF87831386123
S3152020C0401868000703D41046421E0028F8D1386A03
S3152020C050000602D0FF21B96204210820986012B977
S3152020C060042918BF0321BFF34F8F3068C20319D587
S3152020C07000233367BFF34F8FF26EC2F34E33C2F3E2
S3152020C080C90605EA431040EA867020603046461EDF
S3152020C0900028F6D11846431E0028F0D1BFF34F8F33
S3152020C0A0BFF36F8FBFF36F8F0846F0BDF8B590B002
S3152020C0B048B1012907DC002A18BF002B03D0169E81
S3152020C0C016F00F0F01D0012014E0090201F480712F
S3152020C0D040F22325039229430027019108AA04939D
S3152020C0E000230097694602970596FFF721FF6846A9
S3152020C0F0FFF772FF12B0E0BD2DE9F04305000E4692
S3152020C10085B09146984618BF002E05D0B9F1000F6C
S3152020C11018BFB8F1000F01D1012020E00C9C0DE0C2
S3152020C12019F8011B135C401C594008F8011BB84222
S3152020C130F6D310213046E41B00F014F874B11027F2
S3152020C140102C01AB324698BF2746102001210090A3
S3152020C1502846FFF7ABFF002001AAE8E7002005B01C
S3152020C160BDE8F083491E05D0425C521C4254D2B20F
S3152020C170002AF7D07047002100220023002480E8DF
S3152020C1801E0070474FF000400B49086050E6000023
S3152020C19000000F4068C00F400000DCFE0CC00A40A3
S3152020C1A060000F400300DCFE14ED00E060EF00E0AD
S3152020C1B0C0010F4010000F4004000F4070470000C0
S3152020C1C0BFF34F8F054906480A6802F4E06202430E
S3152020C1D00A60BFF34F8F00BFFDE700BF0CED00E0E4
S3152020C1E00400FA0501294FF4801002D10449086081
S3152020C1F07047044A1060BFF34F8FBFF36F8F70478D
S3152020C20000E100E080E100E0436A084ADB0744BF02
S3152020C210D268104713691847044841680448F3E751
S3152020C2200000024881680348EEE7000080240020B1
S3152020C230004019400080194000F01F02DFF8CC335F
S3152020C240000A914003EB800030B503259540046811
S3152020C250AC432143016030BD014600200FF2C43299
S3152020C26052F820308B4202D0401C0528F8D3704744
S3152020C270088C4A8C904205D2088CCB691B18488C96
S3152020C280181A70470A8C488C101A704710B50C461D
S3152020C290FFF7EEFFE169491E884201D1012010BD3A
S3152020C2A0002010BD2DE9F04104460D4628680026C1
S3152020C2B0B0460423014603FB00FCB2FBFCFC1FFA1C
S3152020C2C08CF70FB94FF0010C1FFA8CF707FB03FEF2
S3152020C2D07F1C5F43B2FBFEFEAEEB000EB2FBF7F7F0
S3152020C2E0C71B77453CBFBE460CF1010C714502D3D6
S3152020C2F071461E46E0465B1C212BDCD36422B0FB14
S3152020C300F2F000EB4000884238BF40F2215050D353
S3152020C3102046FFF7A1FF0FF22032032132F9100029
S3152020C320FFF78AFFA069321F042A20F44020A0614B
S3152020C3302169DFF8DC0238BF41F40031761E36064B
S3152020C340014006F0F8560E43C8F30C00064326613A
S3152020C350206920F000502061A16921F01001A161FF
S3152020C360A06980088000A061A16928790143A16184
S3152020C37022696879400300F4005022F400520243D7
S3152020C3802261A879E97940EA0140E062A16A41F078
S3152020C3908801A162A06A40F44040A062A169287A5F
S3152020C3A008B141F40021687A08B141F48021A161C5
S3152020C3B00020BDE8F08180B5C16A11F4E06FFBD181
S3152020C3C042695102FCD500238361FFF745FF0FF216
S3152020C3D06822002132F91000BDE804402CE74FF4F2
S3152020C3E0E13100220160027142718271C2710272B2
S3152020C3F04272704730B500F018F814430461856AFC
S3152020C4002B438362826942EA0121816130BD30B5A6
S3152020C41000F00BF894430461856A25EA03038362BE
S3152020C420826922EA0121816130BD04690B0203F46D
S3152020C430404203F44073090A704701464869896AD5
S3152020C440090C01F0C3010843704730B505E0436964
S3152020C4501C02FCD511F8015BC56113465A1E002B20
S3152020C460F5D130BD2DE9FC4104460E466069010315
S3152020C4700FD5E2698DF800209DF80010491C8DF813
S3152020C4800010756A2DB1B36A40F21D5231462046FE
S3152020C490A847656906F12C08A80237D5A1698A0222
S3152020C4A034D5E76A3F0E07F0070718E0E3694354BF
S3152020C4B0491C9142FAD3F068BF1A1044F0603169C2
S3152020C4C0891A3161306950B9022188F80110756ABC
S3152020C4D02DB1B36A40F2175231462046A847F8B20A
S3152020C4E050B1306940B13169FAB291423CBF3269CC
S3152020C4F0D2B2F0680021DCE7B069002871D1316919
S3152020C50021B94FF002612046FFF781FF60690102C1
S3152020C51065D5A269100262D5E76A3F0A07F00707A8
S3152020C520C7F104074EE030843846471EC0B20028A3
S3152020C53059D031462846FFF7A9FE00281CBF746A29
S3152020C540002C05D0B36A40F21C5231462846A0471B
S3152020C55031462846FFF79AFE50B1708CF169401C6F
S3152020C560884202D10022728402E0708C401C7084A2
S3152020C570308CE969B2691154308CF169401C8842AB
S3152020C5801ABF308C401C0020CDE78B5C521CE36107
S3152020C5908242FAD331683F1A014431607268121AF6
S3152020C5A07260706870B9002188F80010A26922F4A0
S3152020C5B00002A261756A2DB1B36A40F21652314645
S3152020C5C02046A847F8B250B1706840B17168F8B2D9
S3152020C5D081423CBF7068C0B231680022D8E7BDE8EE
S3152020C5E0F3812546A0E72C4690E7FFE70948816896
S3152020C5F0094837E7FFE70748C168084832E7FFE7D9
S3152020C6000448016906482DE70000000068C00F4055
S3152020C61000E0FFE0942400200080184000C018404D
S3152020C62000001940000000000040184000801840FB
S3152020C63000C0184000001940FFFF18051C000C0000
S3152020C64018010000491EF8B501250829434F164632
S3152020C6503C6852D8DFE801F005152547472C47517D
S3152020C6604500706810F1010F18BF00280FD0A0696F
S3152020C670002814DD94F82214012910D104F1180081
S3152020C6800BE0706810F1010F18BF002801D100209F
S3152020C690F2BDE06104F114002573FBF704FE0025AA
S3152020C6A02BE040F2FD3104F12000FAF789FE24E048
S3152020C6B0B178002904BFF078002804D131780129E7
S3152020C6C008BF657319D07268314604F12000FBF744
S3152020C6D0CDFC70682573E06104F11400FBF7E3FDBF
S3152020C6E00BE0052509E0002104F11400FBF7CCFD21
S3152020C6F0386800211830FBF7C7FD2846F2BD0020F8
S3152020C700012900D0704738B5144C0125206840F205
S3152020C710FD3380F82254022100F12002806800F0A7
S3152020C720D7F9216881F8235432BD002059B90B4806
S3152020C73040F2FD330068022180F8242400F12002F3
S3152020C740806800F0C5B9704704490860002070470A
S3152020C750024908600968002088607047BC240020B0
S3152020C76010B5134601200BB9032010BD00225A74A0
S3152020C7705A68002A1CBF1468002C03D00A460121BF
S3152020C7801846A04710BD10B5134601200BB903202B
S3152020C79010BD00229A745A68002A1CBF1468002CE7
S3152020C7A003D00A4602211846A04710BD2DE9F043A2
S3152020C7B085B0027B00247AB3416889684D799542F9
S3152020C7C02AD3096841B301EBC20100270C23A1F12A
S3152020C7D00806726800E07F1C31788F421CDA03FB42
S3152020C7E007F5511991F800E0BEF1030FF3D1002689
S3152020C7F000E0761C02F108077B5D9E4209DA131DB4
S3152020C80090F80E905F59330117F80380C845F0D170
S3152020C810FC18C97841730CB901202AE084600546AA
S3152020C8204FF00008984E994F01202179884520DA2B
S3152020C83000208DF80400A16811F828108DF8021028
S3152020C840A268C909931C02EB880233F82800012923
S3152020C850694608F10108ADF80000537802AA8DF840
S3152020C860033014BF029602970395286800F08AFAAF
S3152020C870DBE705B0BDE8F08338B504460120A16882
S3152020C88071B1002506E0886810F8251020686D1CF7
S3152020C89000F098FAA1680A799542F4DB0021A1607C
S3152020C8A032BD00007FB5054614460120002C14BF5A
S3152020C8B0002D03200CD0491E052909D8DFE801F0D8
S3152020C8C05B0309192F45002129736974A974A9606E
S3152020C8D0AEE0696800291EBF297B22788A42F7D0DC
S3152020C8E011B12846FFF7C8FF20780022AA732873A3
S3152020C8F011E069680029EBD021886A7B0C4609045F
S3152020C900B2EB116F0AD1AB7BE1B2994206D0284611
S3152020C910FFF7B2FFAC732846FFF748FF88E06A6826
S3152020C920002A1CBFA9680029F8D00026AA681179F8
S3152020C9308E427DDA9268217812F82630994204BFF9
S3152020C940286800F05AFA761CF0E76A68002A1CBF8D
S3152020C950A96800296CD00026AA6811798E4267DA48
S3152020C9609268217812F82630994204BF286800F070
S3152020C9704EFA761CF0E721680A7802F01F02012A77
S3152020C98002BF0B796A7B934252D14B782846012BE2
S3152020C9900AD0022B0DD0032B14D0092B1CD00A2B06
S3152020C9A035D00B2B3AD042E04A88032100F042F8BA
S3152020C9B01AE06B6805F10F0204211E68B04705F1C5
S3152020C9C00F0107E06B6805F1100204211E68B047AD
S3152020C9D005F1100161602BE04A8800F02BF8217BBD
S3152020C9E059B1A268092101926A466B681D68A84739
S3152020C9F000996160019AA2601AE06368062100937B
S3152020CA00A26801926B686A461C68A04710E0498894
S3152020CA1005F10F02090AE973072104E0498805F187
S3152020CA201002297408216B681C68A04700E00520A5
S3152020CA3004B070BD120A8DF8082023685A888DF814
S3152020CA400920704770B50C46154603460021104A2A
S3152020CA5014264E431644306850B1491CF8DD022076
S3152020CA6070BD0020FF2174603073B1732E6070BDBD
S3152020CA703146184600F08BFA0100F8D1306800289C
S3152020CA80EFD1032070BD000087C7202061C720205A
S3152020CA90E431002010B5040001D1032010BDFFF79A
S3152020CAA0EBFE0021216061602173A17310BD10B5BA
S3152020CAB0040001D1032010BD607C08B1022010BDE6
S3152020CAC0206800F057F9010004BF0121617410BDD0
S3152020CAD010B5040001D1032010BDA07C08B102208E
S3152020CAE010BD206800F04BF9010004BF0121A1747C
S3152020CAF010BD00001CB5044600F040F8002121603E
S3152020CB0084F8CD1000F01FF9002016BD2DE9FC4138
S3152020CB1004000D461646984605F00F0108BF03204F
S3152020CB202AD0606830B34B000C2143EAD5124A4301
S3152020CB30A718387D08B102201EE000F01FF801203A
S3152020CB4000F000F92906D4F804C02068434632466E
S3152020CB50294603D5DCF80840A04702E0DCF80C5033
S3152020CB60A8470446200006D000F008F8002000F050
S3152020CB70E9F800E006242046BDE8F681684600F064
S3152020CB8041BB08B903207047436813B100685B692D
S3152020CB90184706207047FEB504460E7A01200C253C
S3152020CBA0F309102E06F00F021ED104F1CC06002226
S3152020CBB0F0700E2120460027FFF7E3FF02230022F4
S3152020CBC0B37000203270002305FB00F1401C102892
S3152020CBD02144CF600B610A75F6D3A3680121204634
S3152020CBE098470020F070FEBD082A19D243EA420356
S3152020CBF06B432344DA689AB10D6800954A680192FE
S3152020CC004D7A8DF80850487A00281DBF00212175BD
S3152020CC1084F8201018751A69DB68694620469847DB
S3152020CC20FEBD002918BF002801D103207047826845
S3152020CC30002A18BFFFF7AFBF01207047F8B51400B0
S3152020CC4005460E4601D10320F2BDFFF797FF364A4F
S3152020CC500021D02302F1CD0C03FB01F7D05918B1C6
S3152020CC601CF80770BD4227D0491C0129F4D9002180
S3152020CC7003FB01F7D05918B3491C0129F8D900F034
S3152020CC8062F80220F2BD3846FFF734FF0620F2BDB7
S3152020CC9027607B6828463A4639461D68A8470500FE
S3152020CCA006D0384600F055F8002020602846F2BDF0
S3152020CCB002210020B170F2BD00F045F80120F2BD1E
S3152020CCC0174487F8CD5000F03EF8BE6007F1CC0619
S3152020CCD00020757030700023F07084460C22424369
S3152020CCE0401CB9181028CB60C1F810C00B75F5D39D
S3152020CCF0A81E0128C7D80D4979A0002978601CBF15
S3152020CD000B4A002A0BD00B4800281CBF0A490029B1
S3152020CD1005D00A4800281CBF09490029B8D1384621
S3152020CD20FFF7E8FE0720F2BD443000205DE82020F2
S3152020CD30FDE820202BE9202035E920203BE9202072
S3152020CD404DEA20203875009800F062BA0022002192
S3152020CD5017E710B5040001D1032010BD616821B169
S3152020CD60206849688847002060602046FFF7C2FE79
S3152020CD70002010BD01F00F0141F08001C6E601F030
S3152020CD800F01C3E670B508B9032070BD002918BF6E
S3152020CD90002A15D08C7804F00F03082B10D25D00C2
S3152020CDA00C2345EAD41400255C4303191468DC605F
S3152020CDB056681E610A461D750221BDE87040E0E6D0
S3152020CDC0042070BD73B504000E4606F00F0501D170
S3152020CDD0032076BD01AA0321FFF7D3FE082D0AD210
S3152020CDE06A000C2142EAD61600234E43A119CB60B5
S3152020CDF00B610B7576BD042076BD02B501F00F01BF
S3152020CE00082902D26A4604210BE0042002BD02B57D
S3152020CE1001F00F01082902D26A46052101E00420EB
S3152020CE2002BDFFF7AEFE02BD0000000010B50123B3
S3152020CE300AB9042010BD891E062900F1CC0419D870
S3152020CE40DFE801F004061012080C14000F210EE072
S3152020CE5010210CE0A078002310700BE0217800230D
S3152020CE60117007E0062102E0072100E00921FFF7E3
S3152020CE7088FE0346184610BD0B460121032B10B50C
S3152020CE8000F1CC040CD0062B0CD0072B0FD00A2B6C
S3152020CE901ED00B2B1ED00C2B16D00E2B16D01DE001
S3152020CEA0112118E0D2B110780021A07016E0A378C5
S3152020CEB0032B06D092B1107803220021A270207075
S3152020CEC00CE02246082106E00A2104E00B2102E09C
S3152020CED00C2100E00D21FFF754FE0146084610BD27
S3152020CEE05DE82020FDE820202BE9202035E92020A0
S3152020CEF03BE920204DEA202038B504466846002507
S3152020CF0000F080F9934901EB0511086810B18B7B5D
S3152020CF109C4207D06D1C012DF4DD009800F078F995
S3152020CF20042032BD0020086048608873009800F0F5
S3152020CF306FF9002032BD7CB500F00DF8854932010D
S3152020CF40885818B18818837B9D4203D0761C012EE1
S3152020CF50F5DD17E02AE005460C466846002600F057
S3152020CF6051B97CB504460D46FFF7F7FF79483101C4
S3152020CF704258944203D0761C012EF8DD02E0084464
S3152020CF80286014E0009800F043F9042076BD7CB593
S3152020CF90FFF7E1FF6F493201885818B18B189B7B28
S3152020CFA09D4203D0761C012EF5DDEBE7206000980C
S3152020CFB000F02EF9002076BD2DE9FC478846144640
S3152020CFC001261CB16946FFF7CCFF08B104202EE0CC
S3152020CFD0002703E000B900267F1CFFB20098416895
S3152020CFE00A7A974222DA0C20002210FB07F00B68DF
S3152020CFF07CA54FEA026E05EB1E5C03EB0009D9F8EF
S3152020D00008A09CF80C509AF804E0754504D0521CD0
S3152020D010D3B2022BEBD3DFE71D1DDCF808302858CE
S3152020D0202246414698470528D4D100E03046BDE81F
S3152020D030F6877CB50D46044616466946FFF791FFCE
S3152020D040010011D1012D08D10099204600F082FB44
S3152020D050009A02212046FFF7AFFF009B2046294653
S3152020D06032465C686568A84776BD00002DE9F84FF2
S3152020D070924601240F46BAF1000F804618BF002F92
S3152020D08001D0786808B9042045E0684600F0BAF84F
S3152020D0903049002201F10E051301C85810B1EB5C6E
S3152020D0A098453AD0521C012AF6DD002201EB0215C2
S3152020D0B02868A0B3521C012AF8DD0098022400F02B
S3152020D0C0A7F8204627E0002746A41CE04FF00C09AD
S3152020D0D0002619FB07F96868330104EB030E9EF836
S3152020D0E00CB0006800EB09018A6812795A4505D1EF
S3152020D0F0001D00EB0902E35840469847761C022E75
S3152020D100E9D37F1CFFB26868017A8F42DEDB2A686A
S3152020D1100020CAF80020BDE8F28F0098CFE701EB67
S3152020D120C20085F80E8000F12001A960009800F049
S3152020D1306FF86F602A4608494046FFF77FFD0700B3
S3152020D140C1D02868FFF705FE4046FFF7D5FE3846B2
S3152020D150E1E700001430002033D020202DE9FC41C7
S3152020D16080466946FFF7E7FE05002AD15FF00006D4
S3152020D1701CA519E0002700980C2212FB06F2416814
S3152020D180086839016C1883189B6893F804E0237B80
S3152020D1909E4504D1001D80582A1D515888477F1C42
S3152020D1A0012FE8D9761CF6B2009841680A7A964271
S3152020D1B0E0DB0068FFF7CDFD050004BF4046FFF702
S3152020D1C09BFE2846BDE8F6811CB50C466946FFF72E
S3152020D1D0B2FE010005D10098224602210068FFF701
S3152020D1E025FE16BD45CA202095CA2020A5C8202068
S3152020D1F001000000000000000000000000000000E8
S3152020D20000000000EFF3108172B6016072B67047FD
S3152020D21080F31088704700002DE9FC4104460D4616
S3152020D220206890461E466A4606210527FFF7FEFD02
S3152020D2309DF80020012A01D010002ED1287810F048
S3152020D2401F0F08D1206804F10C020421FFF7EEFD00
S3152020D2500746207B18E000F01F02012A02D1002772
S3152020D260A78114E000F01F00022812D1A9880022ED
S3152020D270ADF8062001AA8DF8041020680521FFF7B5
S3152020D280D5FD07469DF8060000F00300A081022167
S3152020D290316004F10C02C8F800203846BDE8F6813A
S3152020D2A07CB5002305468DF8003028680C460DF104
S3152020D2B0010206210526FFF7B9FD9DF80120012A46
S3152020D2C003D0100001D0052076BD6078032804BF46
S3152020D2D001218DF80010207810F01F0F08D16088CA
S3152020D2E0012827D128686A461421FFF7A2FE20E0CC
S3152020D2F000F01F00022804BF608800281AD1A188C8
S3152020D30011F00F0F0AD19DF800202868C9B2002AF3
S3152020D31002D0FFF772FD01E0FFF779FD9DF800109E
S3152020D3202868002919BF221D0521221D0621FFF765
S3152020D33043FE0646304676BD38B500F0B3F89DF854
S3152020D3400020032A0CD0012A18BF022A02D00AB1B3
S3152020D350052032BD68886A4607218DF800000BE03B
S3152020D360206800220721FFF787FD010007D1012031
S3152020D3706A468DF8000006212068FFF77DFD32BD24
S3152020D3802DE9FF470446914620680D469A466A466F
S3152020D39006216F88FFF74AFD9DF800204FF00508EB
S3152020D3A03E0A012A03D0100018BF022A38D1E88865
S3152020D3B0012E029002D101AA0B2127E0022E04D1B0
S3152020D3C08DF80C7001AA0C2120E0032E07D18DF8B0
S3152020D3D00E70A98801AAADF80C100D2116E0212E79
S3152020D3E003D1A88801AA0E2104E0222E05D1A888DF
S3152020D3F001AA0F218DF80C0008E0232E0AD18DF8E2
S3152020D4000C70A98801AA8DF80D1010212068FFF72D
S3152020D41010FE80460198C9F800000299CAF800102B
S3152020D420404604B0BDE8F0877CB504461546206802
S3152020D4301E4600F05AF89DF80020012A03D010003D
S3152020D44001D0052076BD012104F10C00316004F1C4
S3152020D4500C02286020681521FFF7EBFD76BD38B534
S3152020D46000F020F89DF80020012A03D0100001D0DA
S3152020D470052032BD002100F00EF8688810B9012160
S3152020D48000F009F82068AA1C0321FFF795FD2068E3
S3152020D490AA1C092144E06A468DF80010206806213E
S3152020D4A0FFF7EABC04460D4620686A460621FFF7A8
S3152020D4B0BDBCF8B504460D46206816461F4600F02A
S3152020D4C014F89DF8000008B10520F2BD012104F1D1
S3152020D4D00C00396016213060AA881202A2812068A9
S3152020D4E004F10C02FFF7A5FDF2BD6A460621FFF7DF
S3152020D4F09DBC38B5FFF7D6FF9DF8000008B1052062
S3152020D50032BDA978A88804F10C0241EA0021A18124
S3152020D51020680421FFF750FD206804F10C020A211F
S3152020D520FFF787FD32BDF8B505460E462868174613
S3152020D5301C46FFF7DAFF9DF8001009B10520F2BD41
S3152020D540B08805F10C020821A8812868FFF76EFC17
S3152020D55005F10C01022239602260F2BD38B50D4654
S3152020D5608021052A04460ED1287810F0600F05D098
S3152020D570020603D4E88808B103B900212046BDE875
S3152020D5803440FFF73ABC0599E8880A68904238BFAC
S3152020D590086004980B68002102682046FFF7EAFB02
S3152020D5A001000BD129780A0608D5204601B0002390
S3152020D5B000220021BDE83040FFF7E1BB32BD2DE936
S3152020D5C0F8410D4689B00021052603911446049181
S3152020D5D06968804611F1010F18BF002C0ED0A7686C
S3152020D5E002AA0621FFF722FC2A7A0FF2C41C002A5F
S3152020D5F057D06868082801D1296809B905208CE008
S3152020D600488878808A88BA80C888F8804A787A704C
S3152020D610097811F0600F39700AD15CF82250002D5C
S3152020D6203AD004AB03AA39462046A847064633E01B
S3152020D630F0B108061CD48A0608D5002301240693B7
S3152020D64001218DF8204000F071F803E0480623D50B
S3152020D65000F073F8064630000799069A0491039243
S3152020D6601AD1FB88039A00214046FFF788FB54E015
S3152020D670880608D500220123069201218DF8203024
S3152020D68000F054F803E0480606D500F056F807992E
S3152020D690069A06460491039204A803A90190002322
S3152020D6A033E09DF80800032808D120467C7804AB77
S3152020D6B003AA39465CF82450A8472CE0696800293B
S3152020D6C01CBFF888002827D03878010624D4820663
S3152020D6D00AD52B680024069301218DF8204000F0DE
S3152020D6E01FF8FFF769FC0BE040060AD52A680023BD
S3152020D6F0069213218DF8203000F012F8FFF799FCBE
S3152020D700064604A803A901900123009132463946F2
S3152020D7104046FFF723FF064630460AB0BDE8F08193
S3152020D720404605976A68079205AA7047404605979E
S3152020D730FA88079205AAFFF73FBC0022012306920A
S3152020D74013218DF8203040460597FA88079205AA9E
S3152020D750FFF76FBC30B50123002585B0134A8DF81D
S3152020D760043080238DF803504025029204460391ED
S3152020D77002AA8DF802306946ADF80050FFF702FB69
S3152020D780010010D1002269468DF8022002AA2046E7
S3152020D790FFF7F8FA050005D080212046FFF712FB77
S3152020D7A0284600E0002005B030BD0000BFD520204F
S3152020D7B019D22020A1D2202000000000A1D2202092
S3152020D7C00000000039D3202081D320200000000033
S3152020D7D029D420205FD42020B3D42020F3D4202085
S3152020D7E027D520207FB5054669466C682046F8F760
S3152020D7F03FFF90BB3CA201A852F82460FEF7EFFD24
S3152020D800009801902046FAF729FF024601A93046C2
S3152020D810FEF748FDF0B9AA6802212046304D9047F0
S3152020D82001212046FEF7DEFC4FF400113046FEF79C
S3152020D830E1FDB06940F48020B061B1695A2041F4FD
S3152020D8400021B161A9688847AA68A62090470120AF
S3152020D850285503E02046F8F7F1FE002004B070BDDD
S3152020D86010B504461E4A91606068A268012190473F
S3152020D8706068F8F7E3FE002010BD000070B504466E
S3152020D88017496568485D48B117A2002152F82560DE
S3152020D8902846FEF7A7FC3046FEF78DFD2846F8F7EA
S3152020D8A0E5FE6068A2680021BDE8704010470000B0
S3152020D8B010B544680CA353F82400FEF7C6FD0020BB
S3152020D8C010BD10B5074C2046FEF7B7FD810206D5C0
S3152020D8D0E069034A9168BDE81040C0B2084710BDF0
S3152020D8E0C0240020004018400000000000401840BE
S3152020D8F00080184000C018400000194010B58D48FF
S3152020D900FF22C36834211C6904F18C00FAF7EAFE51
S3152020D910FAF7C0FE002010BD70B5864A4B23D0688A
S3152020D9200224502501690120CB7000238C705424B9
S3152020D93048700B7088710220487101200B714B7240
S3152020D9400B727D4BCC727D4C887208647C48CD71DD
S3152020D9507C4D4B6401F18403CC677B4CC1F880005D
S3152020D96000201D6000255C609469C86006E01E7E4C
S3152020D970064202D0CE683043C8606D1C182068430A
S3152020D98020580028F3D1714803688B640069C86445
S3152020D990526813684B6254681068241A641C0C63FE
S3152020D9A002F1100003688B6244680068241A641C04
S3152020D9B04C6302F120000268CA62436800681B1A81
S3152020D9C05B1C8B63002070BD2DE9F84388461446E6
S3152020D9D058490426CA6801281D46DFF8749117691C
S3152020D9E007EB880214D0022819D0072827D00B2825
S3152020D9F027D00C282DD00E2813D00F2818D0112848
S3152020DA002AD012282ED018282FD019282FD037E008
S3152020DA1005B12E6004B127600020BDE8F2830C37C3
S3152020DA20F6E7B8F1030F34BF02F124072437EFE7D6
S3152020DA30B8F1030F34BF02F130073037E8E7443717
S3152020DA40E6E7086A41694A699047C9F800004F46C7
S3152020DA50DEE710267C37DBE7FAF72CFE0028F4D009
S3152020DA600120F2E708264837D2E70837D0E7C03723
S3152020DA703946404600F01DF80028CED11826C7E7A3
S3152020DA8042F63C00C9E7401E01280CD9801F0AD047
S3152020DA90001F012884BFC01E022804D9001F02D0DF
S3152020DAA0801F012802D842F63D00704742F63C00EE
S3152020DAB07047F8B588B002460D46264C002C1CBF70
S3152020DAC0606800281EBF266896420834F6D12BE0CF
S3152020DAD002A81821F9F774FC666869460020B04729
S3152020DAE00098F8B9002103AE02910127002201A94E
S3152020DAF0019263683846984740B9019801223060E0
S3152020DB000299781E82401143029101E00020306064
S3152020DB10361D7F1C062FE9D3182202A92846FAF79C
S3152020DB20B5FA002009B0F0BD60680028D0D10420C5
S3152020DB30F8E7000010000020DFEF01000060202021
S3152020DB40D3F2202000000020FF41002010441F4057
S3152020DB50CC25002024652020BB49D1F84824531CFD
S3152020DB600A44C1F8483482F80002D1F8480400F06B
S3152020DB703F00C1F84804704700207047B6E02DE9E1
S3152020DB80FC410C001546984614BF002D04202AD0AF
S3152020DB900020AD4F286007F58A66707000F0A6F841
S3152020DBA058B120E03946684600F06AF9BDF80410DD
S3152020DBB0814211D0A22000F06DF84FF40071384632
S3152020DBC0F9F7FEFB42463946684600F005F900285B
S3152020DBD0E8D00021296006E001203070002027604F
S3152020DBE0BDF802202A60BDE8F681F8B50C0015465E
S3152020DBF01F4641D040F2012085423DD200F076F8E2
S3152020DC0000283DD1904991F8510410B1002281F885
S3152020DC10512401F510765A203070A42007B1A52072
S3152020DC20707001F24627758025B12A46214638464E
S3152020DC30FAF71CFA3946304600F022F9B080A91DA1
S3152020DC40304600F061F8D8B9684600F007F9B8B92F
S3152020DC509DF80100A1280BD0A2280BD1718830462F
S3152020DC60891D00F051F858B99DF80100A228EBD063
S3152020DC700020F2BDA32801D00420F2BD42F212706A
S3152020DC80F2BD7248012100228170027070474FF444
S3152020DC90007070471CB55A228DF8010001236A4C6A
S3152020DCA08DF80020022184F85134684600F02CF8A3
S3152020DCB016BD000038B50446644A107800281CBFDB
S3152020DCC05178002901D0907868B923695FF0020243
S3152020DCD079A120465D68A847236920465FF008027F
S3152020DCE073A15C68A04742F2137032BD5749087869
S3152020DCF018B10022A1200A7004E0887818B10022E9
S3152020DD00A3208A70C6E7704710B5514B0A461B6A76
S3152020DD1001461C6918466368BDE8104018472DE95E
S3152020DD20F14F84B08B4614460027F8F739FDCDE90C
S3152020DD300001BFF36F8F4FF47A70DFF80CA1604398
S3152020DD400AF58966F8F736FDDDE90023CDE90223B9
S3152020DD5010E072683068824210D020465244049BDC
S3152020DD6092F800224146DA5574687F1C641C04F020
S3152020DD703F0474605F452BD004468846F8F710FD93
S3152020DD80CDE90201DDE90201DDE90023801A99416E
S3152020DD90DDE90223DDE900594B450DD828BFAA42EB
S3152020DDA00AD2DDE90201DDE90023D243DB438018D4
S3152020DDB05941401C61F1FF310025A84508BFAC42DE
S3152020DDC0C7D04145C5D301D8A042C2D3052000E003
S3152020DDD0002005B0BDE8F08F7CB505460C461646DA
S3152020DDE000F03CF870BB6878A62804D11848006A51
S3152020DDF0FFF760FF76BDA42106B1A521884201D078
S3152020DE00012076BD00F026F8BDF800106980C8B93B
S3152020DE10084640F201218842A8BF4FF4007068804E
S3152020DE2000F018F8BDF80010A98058B9698849B1C2
S3152020DE30204600F043F869880A200A4642432046B5
S3152020DE40FFF76DFF76BD000058260020A82A002067
S3152020DE501000002014220221684660E710B50446EF
S3152020DE60002201212046FFF75AFF40B922785A2A5C
S3152020DE70F6D1601C0A220121BDE810404FE710BDD3
S3152020DE8038B504460D46684600F01BF80422214684
S3152020DE90684600F019F862882946684600F014F88A
S3152020DEA00DF10201684600F026F8BDF8020032BDC9
S3152020DEB0000201500000AAEA5AA700000022FCF71F
S3152020DEC0EBBF00210180704770B5048800250EE045
S3152020DED04B5D84EA032408236600240444BF86F489
S3152020DEE0805686F021065B1E3446F5D16D1C954260
S3152020DEF0EED3048070BD00880880704772B605482E
S3152020DF00054901600A6882F308880448804762B67A
S3152020DF100348004708ED00E00060202037E020205D
S3152020DF20F3F0202000480047EFF02020004800474B
S3152020DF30EFF0202000480047EFF02020004800473F
S3152020DF40EFF0202000480047EFF02020004800472F
S3152020DF50EFF0202000480047EFF02020004800471F
S3152020DF60EFF0202000480047EFF02020004800470F
S3152020DF70EFF0202000480047EFF0202000480047FF
S3152020DF80EFF0202000480047EFF0202000480047EF
S3152020DF90EFF0202000480047EFF0202000480047DF
S3152020DFA0EFF0202000480047EFF0202000480047CF
S3152020DFB0EBC5202000480047F5C520200048004713
S3152020DFC0FFC5202000480047EFF0202000480047CA
S3152020DFD0EFF0202000480047EFF02020004800479F
S3152020DFE019C220200048004723C22020004800478D
S3152020DFF0EFF0202000480047EFF02020004800477F
S3152020E000EFF0202000480047EFF02020004800476E
S3152020E010EFF020200B480C4B81688160026842F08B
S3152020E02020020260436001680A05FCD5036823F0BC
S3152020E030800303607047034801680A0648BFFFF73C
S3152020E040E9BF704700C00B4020C528D9052070475E
S3152020E050087A10B9314A4C2310E005207047052054
S3152020E06070472F481222086000204A607047087A9D
S3152020E07010B92C4A292301E0052070470A604B60FD
S3152020E080704710B5887A284A28B91368506848609E
S3152020E09000200B6010BD92680B891489A34208D1F9
S3152020E0A0042806DA1368526853F8203052F82000E4
S3152020E0B0EDE7052010BD02291A4830B500F12102CE
S3152020E0C009D10324FB2580F82040C577147094714C
S3152020E0D05571D47109E00323FB24012580F82030D3
S3152020E0E0C477157093715471D571002240F2FB3399
S3152020E0F000EB8204521C012AE385F9D900224FF431
S3152020E100007500EB820302290EBFDD864024DC86C3
S3152020E110521C012AF5D9002030BD00001C01002008
S3152020E12068010020B400002070020020F0B5C168EC
S3152020E13001220161C36803EB4214521C102A0C6091
S3152020E1400968F7D3002210230A6000F194010B708E
S3152020E15042680027D2F8404124F47F04C2F8404187
S3152020E1604268D2F84031C2F840314268D2F8A841FC
S3152020E17044F00804C2F8A8414268D2F8A83123F016
S3152020E1800403C2F8A831002285689301012405F1F1
S3152020E19008064025F4508468E65865F31A46E6506A
S3152020E1A000EB82046761521C6765846823449E6B5A
S3152020E1B076087600102A9E63E6D343688268C3F8E1
S3152020E1C0582142684723C2F854714068C0F8483124
S3152020E1D08F70F0BD2DE9F84F0C460746A178012017
S3152020E1E0E578CA0802F0100901F00F0BD94400FA8D
S3152020E1F009F920884FEAD11805F0030548EA4B068D
S3152020E200C0F30A0A384600F098FB786800F5D871E2
S3152020E2100A6812EA090F06BF8B6813EA090F022043
S3152020E22055D1B601012D10D140F201439A45BA6845
S3152020E230238828BF4FF4806A52F806C0DB0A5B1C6D
S3152020E24063F39F7C42F806C004E0BA68935923F012
S3152020E25040439351BA6897596FF31A4747EA0A47BA
S3152020E260975193592779B7F1010C6CEB0C0C23F0BD
S3152020E27000534FEADC7443EA447393516DB99059A5
S3152020E280B8F1000F40F4004090510B6914BF4FF4B1
S3152020E2904000C0201843086113E0915900EB8B0001
S3152020E2A0B8F1000F21F400419151D0F8C01119BFC7
S3152020E2B0AD0445F44005AD0045F0C0050D43C0F83A
S3152020E2C0C0519019826B42F0010282630020BDE882
S3152020E2D0F28F2DE9F041CC09CF08064601F00F0830
S3152020E2E044EA480507F01007B2680120474400FA9F
S3152020E2F007F7AD015019836B5B085B0083633046BB
S3152020E30000F01BFB706800F5D8710A683A4206BFF8
S3152020E3108B683B42022016D1B3680022B8F1000F49
S3152020E3205A516FF08C026FF40C0305D104B11A46B2
S3152020E330086902400A6105E004B11A4600EB88000C
S3152020E34000F023FC0020BDE8F08170B5064601F0E0
S3152020E3500F04CD0900F0F1FA45EA4401B06889019D
S3152020E3604258C2F3C03040B170680CB100EB840033
S3152020E370D0F8C01141F001110EE04FF480311CB9C4
S3152020E38005B90121706804E005B90121706800EB08
S3152020E3908400D0F8C0211143C0F8C011002070BDE0
S3152020E3A02DE9FE4390468946064608EB490706EBAB
S3152020E3B087050021009101914FEA871733E00068F5
S3152020E3C0686111E000F054F96869696D8842F6D1D8
S3152020E3D000200022686101216A65B06800F10803E7
S3152020E3E0D951B168C919CA606168C1F3C03018B95A
S3152020E3F06869400940010CD1002349EAC8118DF8EB
S3152020E40009308DF80810306800F016FC00230093A0
S3152020E4100193002060603169216096F89400346170
S3152020E420401C86F894006C696409640108D000F0C9
S3152020E43014F961680806C5D54FF0FF320192C3E76B
S3152020E440BDE8F7832DE9F84F84B0074678684FF06A
S3152020E450010AD0F8AC41002C51D04FF0000B24FA01
S3152020E4600BF0C00746D5BB684FEA4B60594603EBF5
S3152020E470904000F130052878C60932463846FFF705
S3152020E4808FFF86F00102594638464FEA4B66FFF742
S3152020E49087FF8DF808B0082200950AFA0BF1019221
S3152020E4A08DF809A07A68C2F8AC117968D1F8402194
S3152020E4B042F40052C1F84021B96801EB96418A6A9C
S3152020E4C00A63BB6803EB9641C86A48637968D1F82A
S3152020E4D040219304E9D5D1F8406126F40056C1F8AD
S3152020E4E040617968D1F8AC2122FA0BF2D307F9D40E
S3152020E4F000F0A1FB0BF1010BBBF1080FAFD378681D
S3152020E500D0F8BC110391C0F8BC110398002800F064
S3152020E510968000260398F040C10740F18C80102E6B
S3152020E52027BFA6F1100BD046B3464FF000085FFA5E
S3152020E5308BF0082880F07F8008EB4B00002100918B
S3152020E5400191C0B24FEA801907EB8005686940091E
S3152020E550400170D069694909490179D04868020685
S3152020E5606ED44868C0F3C030002808BF0968F2D0AE
S3152020E57066E06068010622D50BEB08107A680AFA55
S3152020E58000F0C2F8B0017968D1F8B831034216D12B
S3152020E590796801F5D8710A680242F9D18968014261
S3152020E5A00DD1BA68002102F1080343F80940D7F8B3
S3152020E5B008C0CC44CCF80C107A68C2F8B001616847
S3152020E5C00A06C7D400F049F800F052F86869696D48
S3152020E5D088420CD10020002268616A65B86800F163
S3152020E5E0080343F809A0B9684944CA6001E00068D5
S3152020E5F068616168C1F3C03018B968694009400173
S3152020E6000BD100224BEAC8118DF809208DF808106D
S3152020E61000F011FB002100910191002161603869F1
S3152020E62020603C6197F89410491C87F894106C69F7
S3152020E630640964019DD1761C202EFFF46BAF0AE17C
S3152020E64048680206F7D44868C0F3C0300028F2D0C4
S3152020E6506C6964096401EED0B1E7009838B9A168E5
S3152020E660E069090BC0F30B0040EA013100917047A5
S3152020E670E06901996268C0F312304118C2F30E4056
S3152020E680091A019170472DE9F84F0546164648008C
S3152020E69001F00F0200F01E0084B040EAD119C9080B
S3152020E6A001F01001012089189A4600FA01F10AF595
S3152020E6B07C5401910021FF340291A40B88460DB988
S3152020E6C00320C8E0A8684FEA891B584490F83810E0
S3152020E6D0CA0703D505F19407B87808B10120BAE016
S3152020E6E004B901246846FEF78DFD97F900003346CC
S3152020E6F0A04280F0A1800098FEF78AFD0220AAE0A1
S3152020E700D5F810C0801ADCF800402C613C78661EB3
S3152020E7103E7001B9E2460124CCF800400024CCF812
S3152020E72004405C18CCF80840DCF8086006F58056D2
S3152020E730360B3603CCF80C60DCF80C406B4E04F517
S3152020E7408054CCF81040DCF8104004F58054CCF8E6
S3152020E7501440DCF8144004F58054CCF81840DCF83A
S3152020E76004E062F31E4ECCF804E0DCF81CE062F3F1
S3152020E7701E3ECCF81CE0DCF81C403440DCF8086057
S3152020E780C6F30B063443CCF81C4028B9DCF80440E9
S3152020E79044F40044CCF80440DCF804408026511888
S3152020E7A066F30704CCF8044005EB8904626D12B1A8
S3152020E7B0C2F800C003E0C4F814C04FF00108C4F822
S3152020E7C054C000283CD1B8F1000F1BD16868D0F87E
S3152020E7D0B011019A11423AD16868D0F8401141F41B
S3152020E7E08041C0F84011686800F5A070816F0268EA
S3152020E7F05304F1D50768C9B227F4804707600198EA
S3152020E800014224D1AA68002002F1080343F80BA074
S3152020E810A9680C3141F80B006868019AC0F8B0212C
S3152020E8200198696801F5D8718A68024202BFCB68CF
S3152020E83003420860F5D00AE05046DDF80CA0029984
S3152020E840B0F5804F8CBF4FF48042024658E700989F
S3152020E850FEF7DEFC002005B0BDE8F08FF8B50FF2FC
S3152020E860E03314461D680346022B009503DB9A1ECF
S3152020E870022A00D20AB10620F2BD9C251C4E15FB89
S3152020E88003F51C4A06EB43271544A5F59C75A7F5E9
S3152020E8908062EA60184A02EBC322A2F5805605F16F
S3152020E8A09502AE609070684600EB830353F8080CFF
S3152020E8B06860D0F8243103F01F03082B137001D28F
S3152020E8C00120F2BD2960D0F8A81189088900C0F856
S3152020E8D0A811D0F8A82142F00202C0F8A821284683
S3152020E8E0FFF724FC25600020F2BD000000F0FF7F0A
S3152020E8F000140020B02A00200008002008B9032098
S3152020E900704742680021C2F848114168D1F8403149
S3152020E9105B085B00C1F840314068D0F8401141F0D7
S3152020E9200201C0F840110020704701F00F0141F08C
S3152020E9308001A8E601F00F01A5E62DE9F8438846D7
S3152020E940C908054608F00F0701F010010120CF194C
S3152020E95000FA07F74FEA480000F01E0084B040EA8C
S3152020E960D8190DB903206DE0684605EB8906FEF718
S3152020E97049FC00214FF0FF3201910292706904E098
S3152020E980C16941F00041C161006840094001F7D1C9
S3152020E99045E00168716125E0E069C00F4ED06168CD
S3152020E9A008060ED56868D0F8B4113943C0F8B411DA
S3152020E9B0686800F5DA7001683942F9D142683A422E
S3152020E9C0F0D1019838B9A168E069090BC0F30B0092
S3152020E9D040EA013101917069716D8842D9D10020B8
S3152020E9E0706170656168C1F3C03018B970694009DB
S3152020E9F040010AD100208DF80C808DF80D00286862
S3152020EA0001A9FEF70EF900200190002161602869F6
S3152020EA10206095F894102C61491C85F8941074690F
S3152020EA2064096401B8D1A9684FEA8914012000231A
S3152020EA3001F108021051A8682044C3600098FEF70F
S3152020EA40E7FB002005B0BDE8F083000038B504467A
S3152020EA5001200CB9032032BD0F29FCD8DFE801F0B4
S3152020EA60080F171F272E575B7594949494947D8FA7
S3152020EA70606800F5A070016841F0010105E060683A
S3152020EA8000F5A07001684908490001607BE0002A52
S3152020EA907AD011462046BDE83440FFF79BBB002A9A
S3152020EAA072D011782046BDE83440FFF712BC002AE8
S3152020EAB06AD011782046BDE8344046E4002A63D047
S3152020EAC010786FF001026FF4803300F00F01C00937
S3152020EAD029B900B11A46606800F057F853E000B112
S3152020EAE01A46636803F5E07353F821502A4000281C
S3152020EAF043F82120626802F5E07252F8213014BFD3
S3152020EB004FF480004020184342F821003BE0002AA1
S3152020EB103AD0108037E0002A36D0117801F00F0342
S3152020EB20C909082B30D2002B60684FF480341ABFD5
S3152020EB3000F5E07050F82300D0F8C00101B9012477
S3152020EB40204018BF012050801DE0EAB1107861686E
S3152020EB50400601F5A072506115E0002545F08001A0
S3152020EB60C9B22046FFF7B5FBE9B22046FFF7B1FB35
S3152020EB706D1C082DF2D32046FFF7D8FA03E01AB1F0
S3152020EB8094F898001070002032BDD0F8C0110A40A9
S3152020EB90C0F8C0217047002800D17047FEB5046810
S3152020EBA0616801F5A2710E68486804F19605064051
S3152020EBB072060E601BD5886E4FF0FF1388668A6F0B
S3152020EBC08A670B67C86E30F0FF20FAD1096CCA0518
S3152020EBD002D501232B700AE0102700218DF808701A
S3152020EBE0009101918DF80910206800F025F8F20790
S3152020EBF044BF2046FFF726FC70071BD500210023A3
S3152020EC00009101918DF809306068D0F88411CA05E9
S3152020EC1010D4D0F8840181054CBF02200020A87092
S3152020EC20287838B110218DF80810206800F004F8D3
S3152020EC3000202870F7BD38686946FDF7F2BF00002E
S3152020EC4000400E40DFF8B003DFF8B023017B00231D
S3152020EC505370117090F8290410B1080018BF0120B4
S3152020EC60704770B50024064608460128DFF8883309
S3152020EC70114603F5856514D009281ED00A2827D0E9
S3152020EC800B2845D00C2848D00D284BD00E284ED006
S3152020EC900F2851D0102854D0152827D016282AD00E
S3152020ECA054E06C7029460220FEF78EFA00284DD1BA
S3152020ECB029783046FFF7FFF948E0002946D0012081
S3152020ECC068700A789868AA700978FDF718FD3DE0E3
S3152020ECD0687800283AD008880246000A36D19868F3
S3152020ECE0EA70D2B20021FDF720FD2FE000292DD099
S3152020ECF0A87808702AE0002928D00A88130A05D186
S3152020ED00E87802F47F4202430A801FE005241DE0B2
S3152020ED10E1B13046FFF7A5F917E0B9B13046FFF744
S3152020ED20A6F912E091B13046FFF7ABF90DE069B1B3
S3152020ED303046FFF78BF908E041B13046FFF788F9D6
S3152020ED4003E019B13046FFF78AF90446204670BD04
S3152020ED50F8B500BFB6A2A84C127840F22C41204626
S3152020ED60A74E8DF800201546F8F72AFBF7F71BFE4D
S3152020ED700028F06800690CD190F89C1001F0EF0172
S3152020ED8080F89C10F0680069C16821F01001C160EC
S3152020ED9026E030F8A01F4FF6FF724388934208BF23
S3152020EDA0914209D0974A11720188090A51724388E3
S3152020EDB093724188090AD17240689349934E10F183
S3152020EDC0010F08BF92480860002204F58560A260E2
S3152020EDD002803146226022460220FEF747F908B1FA
S3152020EDE00120F2BD306841682046A160FDF7ACFCC9
S3152020EDF069B2002903D44020864A505407E068B2DD
S3152020EE00854E00F00F004023371807F8043C0029D0
S3152020EE1008D4012005F01F0500FA05F57F4A490987
S3152020EE2042F821502068FDF791FF0020F2BD38B529
S3152020EE3004460220FEF792F928BB6F48FDF788FC8E
S3152020EE4061687748012341560A46002A0BD401F0EF
S3152020EE501F0103FA01F1734D520945F82210BFF321
S3152020EE604F8FBFF36F8F61684056010006D400F0A4
S3152020EE701F0083406C48490940F821306B480168BF
S3152020EE8089088900016031BD5C480021017001227A
S3152020EE9042700270704710B5574C002104F11400BF
S3152020EEA0F9F7F2F9002104F11800F9F7EDF904F148
S3152020EEB01400F9F7F8F9002010BDF8B50C00154616
S3152020EEC018BF002D01D10420F2BD0020286013B1E7
S3152020EED0012B02D02BE0012600E0022647480178AC
S3152020EEE059B3454FB87B38B1B86840F2FD3307F1A6
S3152020EEF020020221FDF7ECFD01204FF0FF31B873EF
S3152020EF0007F11400F9F7C5F997F82000B04204D08C
S3152020EF10012E08BF02280AD15AE007F12201FA69F8
S3152020EF200878497840EA0120121F824201D2012026
S3152020EF30F2BD07F12401216028600020F2BDF8B53A
S3152020EF400C462E490878154600283FD040F2F93243
S3152020EF50954201D30420F2BD13B1012B0BD00CE036
S3152020EF600327F9F7ADF9244E707B40B10021717348
S3152020EF70F9F7ACF92CE00427F3E70120F2BDF9F7E5
S3152020EF80A5F906F1210000212A0A002C86F82070F6
S3152020EF90017018BF002D4570827005D02A46214663
S3152020EFA006F12400F9F762F896F8220401280DD1FB
S3152020EFB0B06840F2FD3306F120020121FDF777FDEE
S3152020EFC04FF0FF3106F11800F9F763F90020F2BD62
S3152020EFD042F21270F2BD38B5446900230022002186
S3152020EFE0A568A84731BD002070474FF47E70704732
S3152020EFF001480068FFF7CFBDE82B0020F83100201C
S3152020F0001000002068010020AC2A002044000020A7
S3152020F0107002002000E400E018ED00E000E100E0AE
S3152020F0208002002080E100E080E200E080C00F40E6
S3152020F0301900000000F00DF8002801D000F00CF88F
S3152020F040AFF300800020AFF30080F9F7F3F8F9F74B
S3152020F05015F901207047000010B507497944183169
S3152020F060064C7C44163404E00A68081D114488475F
S3152020F0700146A142F8D110BD88000000A40000005E
S3152020F08070B504E012F8014B491E00F8014BD1B1AE
S3152020F090C507F7D40129F5D0860701D4042904D23F
S3152020F0A032F8024B891E20F8024B8B08EFD000EB5A
S3152020F0B0830403E052F8045B40F8045BA042F9D3B2
S3152020F0C0A1EB8301E3E770BD1346024680B51846BF
S3152020F0D000E080B5FFF7D4FF002002BD10B514460E
S3152020F0E00A4621460123BDE81040F7F789B9FFF7E4
S3152020F0F0FEBFAFF30080AFF30080FFF79BFF000039
S3152020F1002F82FFFFFC2900000008002000000000BD
S3152020F110B782FFFF0C0000006603000000000020DD
S3152020F1201003C16C2020CF0410137C6420203418B7
S3152020F13000206465202050000020D4240020E00CEC
S3152020F14012000C12000142980C71014345C6101082
S3152020F15003140100203824500363EC2020012110C1
S3152020F16003FFFF0100110C52804011108220101243
S3152020F170201092211020040060FFFF7F7F3B423425
S3152020F18010200340FFFF1F4009D20C7421012027A5
S3152020F19040DCB31109022900010100C03209040014
S3152020F1A0000203000003092100010001224C000770
S3152020F1B0058103FB030107050207113D210F210CC1
S3152020F1C01003830240000404210112020652E0D8D3
S3152020F1D0113E1300F00C212C31C011D0120C041139
S3152020F1E060E019000600FF0901A101850119012906
S3152020F1F001150026FF00752895CC9102850211B2B3
S3152020F2000311D00281028504113001C0120177102A
S3152020F2100240A2157309120103100B0000040309F2
S3152020F220043A03460052004502100553004300418C
S3152020F230004C0A12200C100345004D0049121005DF
S3152020F2404F004E004400550A12540C12521C1249EB
S3152020F25012100143002E4D10012A03552A12421462
S3152020F260212810014D0050061253203254441244B6
S3152020F2700632564412452C10012E034D0A125518DB
S3152020F280124814124408124718124E04325224E10E
S3152020F2903010012203428E21281253502124124E4F
S3152020F2A032C101157E23003A8821602134110416AB
S3152020F2B07C3C12800412BC0412E8041003180200BD
S3152020F2C0205004123C0425AF2120213847640274A3
S3082020F2D003801959
S7052020DEFDDF
