S01200006C65645F626C696E6B792E73726563F5
S113300000000120293F00003F3A0000733C00000B
S1133010C13F0000E73F0000F33F00000000000054
S113302000000000000000000000000085410000D6
S1133030874100000000000089410000B53D000008
S11330400D400000154000001D4000002540000018
S11330502D400000354000003D4000004540000088
S11330604D400000554000005D40000065400000F8
S11330706D400000754000007D4000008540000068
S11330808D4000007D4100007D4100007D41000035
S1133090954000009D400000A5400000AD400000A8
S11330A0B5400000BD400000C5400000CD40000018
S11330B0D5400000DD400000E5400000ED40000088
S11330C0F5400000FD400000054100000D410000F6
S11330D0154100001D4100007D4100007D410000BC
S11330E07D4100007D4100007D4100007D410000E4
S11330F07D4100007D4100007D4100007D410000D4
S11331007D4100007D4100007D4100007D410000C3
S11331107D4100007D4100007D4100007D410000B3
S1133120254100002D410000354100003D410000D3
S1133130454100007D4100007D4100007D410000CB
S11331407D4100007D4100007D4100007D41000083
S11331507D4100007D4100007D4100007D41000073
S11331607D4100007D4100007D4100007D41000063
S11331707D4100007D4100007D4100007D41000053
S11331807D4100007D4100007D4100007D41000043
S11331907D4100007D4100007D4100007D41000033
S11331A07D4100007D4100004D4100007D41000053
S11331B07D4100007D4100007D4100007D41000013
S11331C07D4100007D4100007D4100007D41000003
S11331D07D4100007D4100007D4100007D410000F3
S11331E07D4100007D4100007D4100007D410000E3
S11331F0554100007D4100005D4100006541000033
S11332007D4100007D4100006D41000075410000DA
S11332107D4100007D4100007D4100007D410000B2
S11332207D4100007D4100007D4100007D410000A2
S11332307D4100007D4100007D4100007D41000092
S11332407D4100007D4100007D4100007D41000082
S11332507D4100007D4100007D4100007D41000072
S11332607D4100007D4100007D4100007D41000062
S11332707D4100007D4100007D4100007D41000052
S11332807D4100007D4100007D4100007D41000042
S11332907D4100007D4100007D4100007D41000032
S11332A07D4100007D4100007D4100007D41000022
S11332B07D4100007D4100007D4100007D41000012
S11332C07D4100007D4100007D4100007D41000002
S11332D07D4100007D4100007D4100007D410000F2
S11332E07D4100007D4100007D4100007D410000E2
S11332F07D4100007D4100007D4100007D410000D2
S11333007D4100007D4100007D4100007D410000C1
S11333107D4100007D4100007D4100007D410000B1
S11333207D4100007D4100007D4100007D410000A1
S11333307D4100007D4100007D4100007D41000091
S11333407D4100007D4100007D4100007D41000081
S11333507D4100007D4100007D4100007D41000071
S11333607D4100007D4100007D4100007D41000061
S11333707D4100007D4100007D4100007D41000051
S11333807D4100007D4100007D4100007D41000041
S11333907D4100007D4100007D4100007D41000031
S11333A07D4100007D4100007D4100007D41000021
S11333B07D4100007D4100007D4100007D41000011
S11333C07D4100007D4100007D4100007D41000001
S11333D07D4100007D4100007D4100007D410000F1
S11333E07D4100007D4100007D4100007D410000E1
S11333F07D4100007D4100007D410000FFFFFFFF93
S113340001E0000000BF70B400F0FF0404F1804448
S113341004F57C2401EA5031030A256803F01F03F4
S1133420C0F34C36820E9E40C1F30C01B543994063
S11334302943202A216004D077480168D140CB0772
S1133440FAD470BC7047000038B54FF40042734B97
S11334501A60734C734D01212C60734C2046734DDC
S1133460FFF7CEFF01212846FFF7CAFF7048016825
S11334704909490141F01201016000BF96A000F022
S113348051F91221022000F0BAF91221032000F0B0
S1133490B6F900BF94A000F067F91221032000F0F0
S11334A0B1F900BF8AA000F07FF900216148FFF75D
S11334B0A9FF00216048FFF7A5FF03215F48FFF73C
S11334C0A1FF03215E48FFF79BFF00212846FFF779
S11334D097FF00215B48FFF795FF00212046FFF787
S11334E08FFF01215848FFF78DFF00215748FFF750
S11334F087FF02215648FFF785FF00215548FFF753
S11335007FFF02215448FFF77DFF00215348FFF756
S113351077FF00215248FFF773FF07214FF2140091
S1133520FFF770FF00214F48FFF76AFF01214E4863
S1133530FFF768FF00214D48FFF762FF04214C4864
S1133540FFF760FF02214B48FFF75AFF02214A4868
S1133550FFF758FF02214948FFF752FF032148486B
S1133560FFF750FF01214748FFF74CFF0021464871
S1133570FFF746FF03214548FFF744FF0121444874
S1133580FFF740FF00214348FFF73AFF0321424879
S1133590FFF738FF01214148FFF734FF002140487D
S11335A0FFF72EFF00213F48FFF72CFF00213E4884
S11335B0FFF726FF01213D48FFF724FF02213C4885
S11335C0FFF71EFF01213B48FFF71CFF07213A4884
S11335D0FFF718FF03213948FFF712FF012138488C
S11335E0FFF710FF07213748FFF70CFF364C6069DF
S11335F040F4C010606121683448490849002160E2
S11336000021FFF7FFFEA06920F04000A061BDE8A3
S1133610314000F08EB9000048C00F40080000207F
S113362000366E0104000020186C00801439001468
S11336300C00084014EA000410E000401468008004
S11336401872008014FB00801CE007801C26008098
S113365024EB00801C30008024F000801C310080AA
S113366014270080142600801CF700801C7D008035
S113367018FA00801864008024790080186E008095
S113368028E6008028E007801C6A00802CE6008081
S11336902CE007801C6C008028F6008028F007804E
S11336A01C6E008038F307803832008020E20780E7
S11336B02068008030F9008030F60080307400808B
S11336C028E9008028F900800CC00F4024E007801E
S11336D000010000000000000100000000000000E4
S11336E00000000000000000000030B4002513E0DA
S11336F050F8042BD30744BFA9F101039A18091FFA
S1133700042942F8045BFAD213468C0744BF15809F
S11337109B1CC90748BF1D7050F8041B0029E7D142
S113372030BC704710B4DFF808211168037B9B0399
S113373003F4404321F44041194341F480311160C2
S113374014680078DFF8EC100C4000F0010004432A
S113375044F4005414601368002BFCD5116821F460
S11337608031116010BC7047DFF8C0100A684378DC
S11337709B0303F4404322F440421A4342F4803250
S11337800A600A680078400000F0020022F0020299
S1133790024342F441520A600A68002AFCD50B68CD
S11337A023F480330B607047234BC278196890F878
S11337B004C04FEA8C3C0CF4404C21F440414CEAE8
S11337C0010141F4803102F003021960017809B16A
S11337D042F40052817809B142F40012407808B1F1
S11337E042F480021968154801400A431A601A68B5
S11337F0002AFCD5186820F480301860704730B473
S11338000F4A01E030B40F4AC0001468BF2383405C
S11338108025854001F03F0124EA03031D438140D4
S113382015601943116030BC7047000010800D40D2
S113383030800D40FEEFFFFFE0800D40FCEFFFFF06
S113384000810D40F0800D4078B46D4A6D4B506F8F
S11338504FF6FE7140F4700050671C894FF6FE70FD
S11338600C4069491C810D8905400D811C8866073F
S113387004D51D884FF6FB7005401D800B885C073E
S113388004D50D884FF6FB7005400D805F486049F4
S113389041604FF6FF738360046824F0800444F0B1
S11338A0200404605B480168CB0703D504686408FE
S11338B0640004601068810312D4BFF34F8FBFF318
S11338C06F8F0023544C2360BFF34F8FBFF36F8F70
S11338D0106840F400301060BFF34F8FBFF36F8F58
S11338E01168CB0322D400201067BFF34F8FD16E31
S11338F0494EC1F34E3343F6E075C1F3C90405EAFA
S1133900431545EA847030612046441E0028F8D1EE
S11339101846431E0028EED1BFF34F8F106840F4C1
S113392080301060BFF34F8FBFF36F8F71BC00F016
S113393085B8F0B5394C206AC10348BF384D04D46A
S1133940206AC1074CBF374D374D206C3449226D76
S113395000232668A1FB000100F072F84519F70363
S113396048BF2F4904D4206881074CBF2D492E49F4
S11339702E48426893010FD5846814F4405404D04F
S1133980B4F5805F0CBF264900214268C2F3C262CD
S1133990521CB1FBF2F52AE0836813F4402326D0CD
S11339A0B3F5802F06D0B3F5002F0DD0B3F5402F1B
S11339B014D01BE01E4A1368C3F30562B1FBF2F195
S11339C001EBC104650012E019490A69C2F30561FB
S11339D0B5FBF1F101EBC1035D0008E00468154992
S11339E004F00704641CB1FBF4F500E00025406812
S11339F0114AC0F38220401CB5FBF0F11160F0BD08
S1133A0014ED00E000800B4000000D4000C00B40AE
S1133A1020C528D910E000E050EF00E010800D40F0
S1133A2000366E0100A4781F00389C1C10C00F40A3
S1133A30F0800D400065CD1D000000207047FEE7BA
S1133A40BBBBE1B1B2F5803F80F07E80022A1ED973
S1133A508C46B1FBF2F102FB11C31B0443EA104391
S1133A60B3FBF2FC02FB1C3380B240EA0343B3FB1A
S1133A70F2F002FB103240EA0C4000237047022AA5
S1133A8005D98446B0FBF2F002FB10C270474AB17C
S1133A9005D100F0010249085FEA300070470022B6
S1133AA00023704700F0E4B80B000200002100205E
S1133AB07047904271EB030CF6D3B3F5803F2FD2DD
S1133AC0F0B5B3FA83F7B1FA81F4A7F10F0E3D1BF9
S1133AD05340CEF1200602FA0EF2F3415340B5F101
S1133AE00F0746D80F3C2C444140C4F12006A040A7
S1133AF0F1414140B1FBF3F603FB1611A2FB06456D
S1133B00001BA94102D2761E8018594180EA0102A5
S1133B1021FA0EF362FA0EF200215A403046F0BD4B
S1133B2030B4B1FBF3FC03FB1C11A2FB0C45001BDE
S1133B30A94103D2ACF1010C8018594130BC0246B2
S1133B400B46604600217047B2F1807F65D3F0B523
S1133B50B2FA82F7B1FA81F4C7F10F063D1B22FADB
S1133B6006F307F1110EF24120355A40B5F10F0763
S1133B70B8D94140C4F12006A040F1414140B1FB15
S1133B80F3FC03FB1C11A2FB0C45001BA94103D24F
S1133B90BCF1010C801859410F2F12D30F3FC903F8
S1133BA041EA5041B1FBF3F603FB1611A2FB0645B3
S1133BB0D4EBC030A94102D2761E8018594146EA9E
S1133BC0CC3C07B34140C7F12006B840F141414025
S1133BD0B1FBF3F603FB1611A2FB0645001BA9413A
S1133BE002D2761E8018594180EA010221FA0EF3AE
S1133BF0C7F1200462FA0EF20CFA07F05A402CFACC
S1133C0004F13043F0BD80EA010221FA0EF30021F1
S1133C1062FA0EF260465A40F0BD8C46B1FBF2F1F6
S1133C2002FB11C31B0243EA1063B3FBF2FC02FB69
S1133C301C331B024CEA002043EA1063B3FBF2FC82
S1133C4002FB1C331B024CEA002043EA1063B3FB63
S1133C50F2FC02FB1C331B024CEA002043EA106313
S1133C60B3FBF2FC02FB1C324CEA00200023704739
S1133C707047FEE7F8B504460020002C0E461546B2
S1133C801EBF01201C498C420CD002201B4A9442C6
S1133C901EBF03201A498C4204D00520194A9442BD
S1133CA018BF062040A1184A31F91000032300F080
S1133CB01F01000A02EB800003FA01F107688F4339
S1133CC03943012701606269B740F9430A406261E0
S1133CD0287818B963681940616007E06A7831464A
S1133CE0204600F013F863681F436760AA783146E2
S1133CF02046BDE8F84017E000801B4000C01B4090
S1133D0000001C4000000C4068C00F400123002A42
S1133D1003FA01F107BF026822EA0101D0F800C0EA
S1133D2041EA0C010160704770B4C369012404FACC
S1133D3001F5AB431029C36132BF00F10C0300F15C
S1133D4010031039521E042A2BD8DFE802F00309AD
S1133D50131F27001A68032448008440A2431AE072
S1133D604800196803228240844091430C431C603C
S1133D7070BC70471C68480003258540022101FA85
S1133D8000F0AC432043186070BC70471A680326E7
S1133D904800864032431A6070BC7047C1690D43C5
S1133DA0C56170BC70470000FFFF1A011E001A02B3
S1133DB0FFFF1E012149486810B14A68521E4A603B
S1133DC07047000038B500BF22A01D4C0168009167
S1133DD000F042F8FFF738FB6A4605212046FFF75A
S1133DE049FF1848184B0168A1FB0332500A401ED2
S1133DF0B0F1807F21D21549154A4860F020107037
S1133E0000238B6007250D600C4D06E00022052180
S1133E102046FFF77BFF002028704FF496716960FD
S1133E2068680028FCD129780029EFD101220521F6
S1133E302046FFF76BFF0120EEE7FEE73400002089
S1133E4000801B4000000020986E128310E000E008
S1133E5023ED00E00100000000BF0748074A0168A5
S1133E6041F2B003DFF818C041F00C0101600520F5
S1133E701060CCF80030704778C00F40D0801F40ED
S1133E8044821F40144A15485168526A1047124A26
S1133E9013489168526A10470F4A1248D168526A0F
S1133EA010470D4A10481169526A10470A4A0F48D0
S1133EB05169526A1047084A0D489169526A10477D
S1133EC0054A0C48D169526A1047034A0A48116AE4
S1133ED0526A1047000000000C0000200040184007
S1133EE00080184000C018400000194000401940EC
S1133EF00080194000C0194000001A4030B450F846
S1133F00041B79B10268436802440830DC0744BFEB
S1133F10A9F10104E31852F8045B43F8045B091F98
S1133F20F9D1ECE730BC704772B605480549016029
S1133F300A6882F308880448804762B60348004749
S1133F4008ED00E0003000004938000001400000A6
S1133F5010B5074979441831064C7C44163404E002
S1133F600A68081D114488470146A142F8D110BDD2
S1133F702C0000004C0000004EF68851CEF20001E7
S1133F80086840F470000860BFF34F8FBFF36F8F71
S1133F904FF00070E1EE100A704700004FF7FFFF8A
S1133FA038000000040000200000000051FFFFFF63
S1133FB004000000CC01000000000020000000000C
S1133FC0FEE700000120C046002801D0FFF7C0FF33
S1133FD0AFF300800020AFF30080FFF7F3FE00F0A2
S1133FE000F800F001B8FEE70746384600F002F892
S1133FF0FBE7FEE72021090326311820ABBEF9E7D1
S1134000AFF30080FFF7B8FFFFF7DCFF004800477D
S11340107D410000004800477D4100000048004702
S11340207D410000004800477D41000000480047F2
S11340307D410000004800477D41000000480047E2
S11340407D410000004800477D41000000480047D2
S11340507D410000004800477D41000000480047C2
S11340607D410000004800477D41000000480047B2
S11340707D410000004800477D41000000480047A2
S11340807D410000004800477D4100000048004792
S11340907D41000000480047853E0000004800477D
S11340A08F3E000000480047993E0000004800474A
S11340B0A33E000000480047AD3E00000048004712
S11340C0B73E000000480047C13E000000480047DA
S11340D0CB3E0000004800477D41000000480047F7
S11340E07D410000004800477D4100000048004732
S11340F07D410000004800477D4100000048004722
S11341007D410000004800477D4100000048004711
S11341107D410000004800477D4100000048004701
S11341207D410000004800477D41000000480047F1
S11341307D410000004800477D41000000480047E1
S11341407D410000004800477D41000000480047D1
S11341507D410000004800477D41000000480047C1
S11341607D410000004800477D41000000480047B1
S11341707D410000004800477D410000FFF7FEBF7D
S10D418040DCB311FEE7FEE7FEE7A2
S9034001BB
