S01200006C65645F626C696E6B792E73726563F5
S11330000000022051480000334000001745000032
S1133010DF470000E7480000F3480000000000001C
S1133020000000000000000000000000B54A00009D
S1133030B74A000000000000B94A000065460000DD
S11330400D490000154900001D49000025490000F4
S11330502D490000354900003D4900004549000064
S11330604D490000554900005D49000065490000D4
S11330706D490000754900007D4900008549000044
S11330808D490000AD4A0000AD4A0000AD4A000081
S1133090954900009D490000A5490000AD49000084
S11330A0B5490000BD490000C5490000CD490000F4
S11330B0D5490000DD490000E5490000ED49000064
S11330C0F5490000FD490000054A00000D4A0000D2
S11330D0154A00001D4A0000AD4A0000AD4A000038
S11330E0AD4A0000AD4A0000AD4A0000AD4A000000
S11330F0AD4A0000AD4A0000AD4A0000AD4A0000F0
S1133100AD4A0000AD4A0000AD4A0000AD4A0000DF
S1133110AD4A0000AD4A0000AD4A0000AD4A0000CF
S1133120254A00002D4A0000354A00003D4A0000AF
S1133130454A0000AD4A0000AD4A0000AD4A000017
S1133140AD4A0000AD4A0000AD4A0000AD4A00009F
S1133150AD4A0000AD4A0000AD4A0000AD4A00008F
S1133160AD4A0000AD4A0000AD4A0000AD4A00007F
S1133170AD4A0000AD4A0000AD4A0000AD4A00006F
S1133180AD4A0000AD4A0000AD4A0000AD4A00005F
S1133190AD4A0000AD4A0000AD4A0000AD4A00004F
S11331A0AD4A0000AD4A00004D4A0000554A0000F7
S11331B0AD4A0000AD4A0000AD4A0000AD4A00002F
S11331C0AD4A0000AD4A0000AD4A0000AD4A00001F
S11331D0AD4A0000AD4A0000AD4A0000AD4A00000F
S11331E0AD4A0000AD4A0000AD4A00005D4A00004F
S11331F0654A0000AD4A00006D4A0000754A0000AF
S1133200AD4A0000AD4A00007D4A0000854A000036
S1133210AD4A0000AD4A0000AD4A0000AD4A0000CE
S1133220AD4A0000AD4A0000AD4A0000AD4A0000BE
S1133230AD4A0000AD4A0000AD4A0000AD4A0000AE
S1133240AD4A0000AD4A0000AD4A0000AD4A00009E
S1133250AD4A0000AD4A0000AD4A0000AD4A00008E
S1133260AD4A0000AD4A0000AD4A0000AD4A00007E
S1133270AD4A0000AD4A0000AD4A0000AD4A00006E
S1133280AD4A0000AD4A0000AD4A0000AD4A00005E
S1133290AD4A0000AD4A0000AD4A0000AD4A00004E
S11332A08D4A0000954A00009D4A0000AD4A000086
S11332B0A54A0000AD4A0000AD4A0000AD4A000036
S11332C0AD4A0000AD4A0000AD4A0000AD4A00001E
S11332D0AD4A0000AD4A0000AD4A0000AD4A00000E
S11332E0AD4A0000AD4A0000AD4A0000AD4A0000FE
S11332F0AD4A0000AD4A0000AD4A0000AD4A0000EE
S1133300AD4A0000AD4A0000AD4A0000AD4A0000DD
S1133310AD4A0000AD4A0000AD4A0000AD4A0000CD
S1133320AD4A0000AD4A0000AD4A0000AD4A0000BD
S1133330AD4A0000AD4A0000AD4A0000AD4A0000AD
S1133340AD4A0000AD4A0000AD4A0000AD4A00009D
S1133350AD4A0000AD4A0000AD4A0000AD4A00008D
S1133360AD4A0000AD4A0000AD4A0000AD4A00007D
S1133370AD4A0000AD4A0000AD4A0000AD4A00006D
S1133380AD4A0000AD4A0000AD4A0000AD4A00005D
S1133390AD4A0000AD4A0000AD4A0000AD4A00004D
S11333A0AD4A0000AD4A0000AD4A0000AD4A00003D
S11333B0AD4A0000AD4A0000AD4A0000AD4A00002D
S11333C0AD4A0000AD4A0000AD4A0000AD4A00001D
S11333D0AD4A0000AD4A0000AD4A0000AD4A00000D
S11333E0AD4A0000AD4A0000AD4A0000AD4A0000FD
S11333F0AD4A0000AD4A0000AD4A0000FFFFFFFFE8
S113340001E0000000BF70B400F0FF0404F1804448
S113341004F57C2401EA5031030A256803F01F03F4
S1133420C0F34C36820E9E40C1F30C01B543994063
S11334302943202A216005D0DFF834050168D140F2
S1133440CB07F9D470BC7047DFF82815020A01EBEA
S113345082014FF0030C00F01F000CFA00F00B681F
S113346023EA000008607047002AC1F30B414FF4BF
S1133470803319BF0818001D08180830036070470E
S11334802DE9F8434FF40040DFF8EC140860DFF84E
S1133490EC040268DFF8E814DFF8E844DFF8E854E5
S11334A0DFF8E88442F480320260036823F40033D6
S11334B0036000202160DFF8D84400F00FFB00F027
S11334C028FB012000F01CFB20680121000A0002F7
S11334D040F07F0020602846FFF792FF012140461C
S11334E0FFF78EFFDFF8AC04C1684909490141F0D8
S11334F01301C1600268002AFCD50FF28C50DFF87A
S1133500989400F00DFB0FF28850DFF8906400F0FF
S11335101DFB1B21002000F02CFC1021012000F0D9
S113352028FC1821022000F024FC1021032000F0C4
S113353020FC0FF26C50DFF8687400F029FB2121A5
S1133540002000F019FC1021012000F015FC1121CD
S1133550022000F011FC1321032000F00DFCD9F827
S1133560100020F04000C9F8100000F037FB0122E1
S1133570DFF830144846FFF777FF306920F4004045
S11335803061316921F400013161D9F8700040F4EF
S11335900050C9F8700000F027FB386840F4803010
S11335A03860316921F040413161386840F400509D
S11335B0386000F01FFB0122DFF8EC134846FFF7E8
S11335C053FF386C8008800040F001003864396C87
S11335D041F400513964386C20F00C003864396CC3
S11335E041F480113964386C40F40010386400F000
S11335F0F0FA0122DFF8B4134846FFF735FFD9F893
S11336002000002140F40050C9F82000DFF8A00396
S1133610FFF7F8FE4FF48870FFF716FF4FF484703D
S1133620FFF712FF40F21620FFF70EFF4FF406706B
S1133630FFF70AFF0321DF48FFF7E4FE0121DE481C
S1133640FFF7E0FE0321DD48FFF7DAFE00214046E4
S1133650FFF7D6FE0021DA48FFF7D4FE0021284602
S1133660FFF7CEFE4FF48A70FFF7EEFE4FF48B7037
S1133670FFF7EAFE1820FFF7E7FE1A20FFF7E4FE43
S11336804FF48670FFF7E0FE0121CE48FFF7BAFE43
S11336900021CD48FFF7B4FE40F20260FFF7D4FEEC
S11336A00121CA48FFF7AEFE0021C948FFF7A8FE72
S11336B040F20460FFF7C8FE0121C648FFF7A2FEEE
S11336C00021C548FFF79CFE4FF44170FFF7BCFE94
S11336D007214FF21400FFF795FE0021BF48FFF7C2
S11336E08FFE0021BE48FFF78BFE40F20A60FFF711
S11336F0ABFE0021BB48FFF785FE0321BA48FFF764
S11337007FFE40F20270FFF79FFE0021B748FFF7EB
S113371079FE0121B648FFF773FE40F20220FFF75D
S113372093FE0121B348FFF76DFE0021B248FFF775
S113373067FE4FF48070FFF787FE4FF48170FFF748
S113374083FEE06E20F03000E066E16EAB4821F0CD
S1133750C001E1660421FFF755FE0221A848FFF7E6
S11337604FFEA06E022120F44000A066A548FFF79A
S113377049FE0221A448FFF743FEE06F032120F431
S11337804020E067A148FFF73DFE0121A048FFF774
S113379039FE00219F48FFF733FEE06F032120F438
S11337A04010E0679C48FFF72DFE01219B48FFF77E
S11337B029FE00219A48FFF723FEE06F032120F43D
S11337C04000E0679748FFF71DFE01219648FFF788
S11337D019FE00219548FFF713FE206F20F0C0006A
S11337E02067216F21F440712167206F20F440602D
S11337F0206700218E48FFF705FE00218D48FFF762
S1133800FFFDA06E8C4D20F44040A066A16E21F413
S11338104021A166686820F0C0006860A16E21F4B0
S11338204031A166A06E20F44010A0666968834808
S113383021F4407169600121FFF7E4FD0221804811
S1133840FFF7DEFDE06F20F04070E067A16E21F02D
S11338504051A166A06E20F44050A066E16E21F0B4
S11338604071E166606F20F00C006067616F21F0C9
S1133870C0016167E06F20F04060E067296871482B
S113388021F4404129600021FFF7BCFD00216E486E
S1133890FFF7B6FD606F012120F4406060676B485C
S11338A0FFF7B0FD03216A48FFF7ACFD0521694825
S11338B0FFF7A6FDE06F012120F44040E067664871
S11338C0FFF7A0FD07216548FFF79CFD032164482D
S11338D0FFF796FDE06F012120F00C00E0676148DE
S11338E0FFF790FD07216048FFF78CFD03215F4837
S11338F0FFF786FD606F01218008800060675C48E7
S1133900FFF780FD07215B48FFF77CFD03215A4840
S1133910FFF776FD00215948FFF772FD3068584AD9
S1133920400940013060216E21F070012166206E53
S11339300009000140F001002066216E21F46001BD
S11339402166206E20F4F81040F490102066216E59
S113395021F480712166206E20F080002066216EA3
S1133960484821F0807121661060BDE8F1830000B1
S113397048C00F4068C00F4008000020C0820D40BE
S113398000366E0104000020186C00801439001405
S113399000C00F400000084000800D4060810D40D1
S11339A0A0800D400D0070000D00E0000D0020000F
S11339B014EA00041468008010E0004018720080CB
S11339C014FB00801CE007801C26008024EB008090
S11339D01C30008024F000801C31008014270080FB
S11339E0142600801CF700801C7D008018FD0080D8
S11339F0186800803CEB00803C69008018FA008065
S1133A001864008024790080186E008028E6008005
S1133A1028E007801C6A00802CE600802CE00780E8
S1133A201C6C008028F6008028F007801C6E008043
S1133A3038F307803832008080C00F4020E20780CE
S1133A402068008024E007802426008038EC008071
S1133A5018F7008038EF008030F9008030F60080DD
S1133A603074008030EC008030E9008030670080E2
S1133A7028E9008028F90080207300800C20008051
S1133A80000000200046C323640000000000000082
S1133A900100000000000000010000000000000020
S1133AA0000030B4002513E050F8042BD30744BFC2
S1133AB0A9F101039A18091F042942F8045BFAD2F8
S1133AC013468C0744BF15809B1CC90748BF1D7053
S1133AD050F8041B0029E7D130BC7047DFF8CC0252
S1133AE04FF080418160DFF8B8120A68D303FCD537
S1133AF04FF48031416002681304FCD58160704743
S1133B00DFF8AC1210B910200860704710224A6028
S1133B107047DFF88C02016841F0010101607047D1
S1133B2010B4DFF89422116803799B0303F4404333
S1133B3021F44041194341F4803111601468007844
S1133B40DFF878120C4000F07F0014E010B4DFF8C6
S1133B5070221168037B9B0303F4404321F440412A
S1133B60194341F48031116014680078DFF854126D
S1133B700C4000F00100044344F400541460136842
S1133B80002BFCD5116821F48031116010BC704702
S1133B90DFF82012FFE70A6843789B0303F44043ED
S1133BA022F440421A4342F480320A600A680078E0
S1133BB0400000F0020022F00202024342F44152AB
S1133BC00A600A68002AFCD50B6823F480330B6072
S1133BD070470020DFF8F011086070474FF4805000
S1133BE0DFF8E811086070474FF48050DFF8E811FF
S1133BF0086070474FF48050DFF8E01108607047A8
S1133C0070B5DFF8B421C0F30B41515800F01F0325
S1133C10D940C90701D4002070BD0101090D5358D2
S1133C20C3F3813139B95E4C2168CB065ABF5D4973
S1133C300C685D4C00E00024C0F30B415158C903EB
S1133C4000F195800D3819D04FF48011401A2CD012
S1133C50401A00F08480401A15D04FF48001401AB5
S1133C6025D04FF44011401A45D04FF48001401A3A
S1133C7064D0C01F69D0401E6FD077E0126802F094
S1133C807F02544335E015460023286D2A6E2D6BC0
S1133C90A0FB040100F0B4F8EE0747BF162262430C
S1133CA004EB84039A00841861E0116958E0154616
S1133CB04B482E6F016802690023A1FB040106F042
S1133CC07F0600F09DF82A6F06FB040412F4C0126C
S1133CD004D0B2F5002F08BF640800E0A4083D49F1
S1133CE03B480A680240B2F5004F02D0824223D01A
S1133CF03DE064083BE03A4D00232E6A286B2A6CB1
S1133D00A0FB040106F07F0600F07AF82A6A06FB9D
S1133D10040412F4C01204D0B2F5002F08BF6408E2
S1133D2000E0A4082B48016801F04041B1F1804F44
S1133D30DFD0B1F1404F1AD1A40818E0284800BFE1
S1133D402BA1006E00F0030004E0254828A1006EBA
S1133D50C0F3810051F8204009E0224C07E0116AC9
S1133D608A074CBF16201420444300E00024204658
S1133D7070BD30B41C4A01E030B41C4AC000146861
S1133D80BF2383408025854001F03F0124EA0303DB
S1133D901D43814015601943116030BC7047000019
S1133DA070820D400400002000366E0150810D40E9
S1133DB074820D4010800D4000800D4080EFFFFFA5
S1133DC030800D40FEEFFFFF20800D4070800D40DD
S1133DD00080800070810D40A0800D40E0800D4087
S1133DE080800D4040787D0100810D40F0800D40C1
S1133DF040787D0180F0FA0200E1F505405973072F
S1133E00BBBBE1B1B2F5803F80F07E80022A1ED9AF
S1133E108C46B1FBF2F102FB11C31B0443EA1043CD
S1133E20B3FBF2FC02FB1C3380B240EA0343B3FB56
S1133E30F2F002FB103240EA0C4000237047022AE1
S1133E4005D98446B0FBF2F002FB10C270474AB1B8
S1133E5005D100F0010249085FEA300070470022F2
S1133E600023704700F0E4B80B000200002100209A
S1133E707047904271EB030CF6D3B3F5803F2FD219
S1133E80F0B5B3FA83F7B1FA81F4A7F10F0E3D1B35
S1133E905340CEF1200602FA0EF2F3415340B5F13D
S1133EA00F0746D80F3C2C444140C4F12006A040E3
S1133EB0F1414140B1FBF3F603FB1611A2FB0645A9
S1133EC0001BA94102D2761E8018594180EA0102E2
S1133ED021FA0EF362FA0EF200215A403046F0BD88
S1133EE030B4B1FBF3FC03FB1C11A2FB0C45001B1B
S1133EF0A94103D2ACF1010C8018594130BC0246EF
S1133F000B46604600217047B2F1807F65D3F0B55F
S1133F10B2FA82F7B1FA81F4C7F10F063D1B22FA17
S1133F2006F307F1110EF24120355A40B5F10F079F
S1133F30B8D94140C4F12006A040F1414140B1FB51
S1133F40F3FC03FB1C11A2FB0C45001BA94103D28B
S1133F50BCF1010C801859410F2F12D30F3FC90334
S1133F6041EA5041B1FBF3F603FB1611A2FB0645EF
S1133F70D4EBC030A94102D2761E8018594146EADA
S1133F80CC3C07B34140C7F12006B840F141414061
S1133F90B1FBF3F603FB1611A2FB0645001BA94176
S1133FA002D2761E8018594180EA010221FA0EF3EA
S1133FB0C7F1200462FA0EF20CFA07F05A402CFA08
S1133FC004F13043F0BD80EA010221FA0EF300212E
S1133FD062FA0EF260465A40F0BD8C46B1FBF2F133
S1133FE002FB11C31B0243EA1063B3FBF2FC02FBA6
S1133FF01C331B024CEA002043EA1063B3FBF2FCBF
S113400002FB1C331B024CEA002043EA1063B3FB9F
S1134010F2FC02FB1C331B024CEA002043EA10634F
S1134020B3FBF2FC02FB1C324CEA00200023704775
S11340307047FEE72DE9F041034608680024002597
S11340400427064607FB00FCB2FBFCFC1FFA8CFEAF
S1134050BEF1000F08BF4FF0010C1FFA8CF81FFAD5
S11340608CFE08F101080EFB07FE08FB07F8B2FB03
S1134070FEFEAEEB000EB2FBF8F8A0EB0808F0452C
S11340803CBFC6460CF1010C764502D376463C464D
S113409065467F1C202FD5D9DFF8DC71A0FB0772A1
S11340A0900900EB4000B04238BF40F22150C0F00C
S11340B0A58000200FF2FC1216689E421EBF401C11
S11340C057689F421EBF401C96689E4203D0401C06
S11340D00C320828F0D90FF20022DFF8A06132F97F
S11340E010000327C5F30C0500F01F02000A06EBBD
S11340F0800007FA02F2261F042ED0F800C02CEA32
S1134100020C42EA0C020260986840F002009860D7
S11341109A68DFF86C0122F002029A601A6938BFCB
S113412042F40032641E2406024004F0F85414439E
S11341302C431C611869DFF84C2120F000501861F1
S113414008799C69CD7B14408A7B04432D0205F4D5
S1134150E0652C434D79920002F004021443012DD2
S113416006D100280CBF44F4006424F4006402E087
S113417008B144F010049C611869CA79520302F42E
S1134180005220F40050104318610A7A487A42EA37
S11341900042DA62986A40F0880098629A6A42F4AF
S11341A040429A62586A4C7B0D7B240104F010044F
S11341B0DFF8D4206D0105F020052C43204358621C
S11341C0887A18B15C6A44F008045C62C87A18B151
S11341D05C6A44F001045C62887908B1DFF8AC20C1
S11341E05C6922435A619A69087C08B142F400224E
S11341F0487C08B142F480229A610020BDE8F08135
S11342004FF4E13100220160027142718271C27186
S1134210027242728272C272427302738273C273F6
S11342200274427470471A4A1A485168526A104715
S1134230174A19489168526A1047154A1748D168B5
S1134240526A1047124A16481169526A1047104AB6
S113425014485169526A10470D4A13489169526AC9
S113426010470B4A1148D169526A1047084A10484E
S1134270116A526A104700003E0AD7A368C00F4073
S113428000E0FFE0E8F8FFFF00C01FC000C01FE02F
S113429014000020004018400080184000C018405E
S11342A000001940004019400080194000C0194026
S11342B000001A4000000000004018400080184030
S11342C000C0184000001940004019400080194007
S11342D000C0194000001A40FFFF18051C000C0024
S11342E01801020306031A050E06000078B47B4A7F
S11342F04FF6FE7110890840794910810B894FF6F9
S1134300FE7003400B811488650704D513884FF6AB
S1134310FB70034013800A88540704D50B884FF6BA
S1134320FB7003400B806F486F4941604FF6FF728A
S11343308260036823F0800343F0200303606B482A
S11343400168CA0703D503685B085B00036068491A
S11343500868820312D4BFF34F8FBFF36F8F00231B
S1134360644C2360BFF34F8FBFF36F8F086840F432
S113437000300860BFF34F8FBFF36F8F0A68D30319
S113438022D400200867BFF34F8FCA6E594EC2F380
S11343904E3343F6E075C2F3C90405EA431545EA12
S11343A0847030612046441E0028F8D11846431E0C
S11343B00028EED1BFF34F8F086840F480300860C6
S11343C0BFF34F8FBFF36F8F71BC00F0A3B8F0B58C
S11343D0494C4A4A6068810122D5A36813F44053CA
S11343E007D0B3F5805F11D0B3F5005F08BF106B41
S11343F00EE01069C103106903D5C0F3813038B9E8
S113440004E0810754BF3E483E4802E03E4800E0D5
S113441000206168C1F3C261491CB0FBF1F653E0AE
S11344201068C10307D51068C0F38130002814BF99
S11344300025354D05E01568334805F07F054543F3
S11344406D08116BC80307D5116BC1F381300028C7
S113445014BF00262C4E04E0106BC1074CBF294E3C
S1134460274E106D2849126E0023A768A1FB000196
S1134470FFF7C6FC861917F4402725D0B7F5802F1F
S113448006D0B7F5002F0DD0B7F5402F14D01AE0A1
S11344901E480168C1F30540B6FBF0F000EBC00212
S11344A0560011E0194B186800F03F00B6FBF0F11C
S11344B001EBC1056E0007E0226802F00702521CFE
S11344C0B5FBF2F600E000266068114AC0F38220D2
S11344D0401CB6FBF0F11160F0BD000000800B4001
S11344E000000D4000C00B4020C528D910E000E0BA
S11344F014ED00E050EF00E010C00F4000800D40CC
S113450000389C1C00A4781F00366E0100810D4009
S1134510000000207047FEE7F8B505460E46144635
S11345205FF0000042A10A68AA421EBF401C4B680B
S1134530AB4203D0401C08310A28F4D346A1144AE4
S113454031F91000032300F01F01000A02EB800080
S113455003FA01F107688F433943012701606A694F
S1134560B740F9430A406A61207818B96B6819406A
S1134570696007E062783146284600F00BF86B6802
S11345801F436F60A27831462846BDE8F8400FE02B
S113459068C00F400123002A03FA01F107BF026833
S11345A022EA0101D0F800C041EA0C010160704721
S11345B070B4C369012404FA01F5AB431029C36143
S11345C032BF00F10C0300F110031039521E042A0B
S11345D02BD8DFE802F00309131F27001A6803240D
S11345E048008440A2431AE048001968032282402C
S11345F0844091430C431C6070BC70471C684800A5
S113460003258540022101FA00F0AC4320431860E1
S113461070BC70471A6803264800864032431A600B
S113462070BC7047C1690D43C56170BC7047000020
S11346300000000000801B4000C01B4000001C4024
S113464000401C4000000C400000004200400042BA
S11346500080004200C00042FFFF1A011E001A023F
S11346600C031E012349486810B14A68521E4A606F
S11346707047000038B500BF24A01F4C01680091AA
S113468000F046F8FEF7FCFE00F07AF8FFF79FFE14
S11346906A4609212046FFF73FFF1848184B016876
S11346A0A1FB0332500A401EB0F1807F21D215498C
S11346B0154A4860F020107000238B6007250D60B8
S11346C00C4D06E0002209212046FFF763FF00207D
S11346D028704FF49671696068680028FCD12978C5
S11346E00029EFD1012209212046FFF753FF0120C1
S11346F0EEE7FEE73C00002000801B4000000020A5
S1134700986E128310E000E023ED00E00100000049
S113471000BF0748074A016841F2B003DFF818C038
S113472041F00C01016005201060CCF800307047A6
S113473078C00F40E0801F40D0821F4010B5164C57
S11347402068C0F3801068B91448FFF759FA21684B
S1134750134BA0FB033201F03F01491C9208B2FB4A
S1134760F1F010BD0F480168CA064EBF0E480F484D
S11347700068216801F03F01491CB0FBF1F010BD55
S113478080B5FFF7DBFF034602224FF4E13108480E
S1134790BDE8005000F00EB824C00F400D0010001A
S11347A0ABAAAAAA70820D4000366E010400002054
S11347B00040184018B414460A46214601B010BC03
S11347C000F000B81CB514461A46009000238DF87A
S11347D004102146684600F003F8002016BDFEE7E9
S11347E078B585B00C4601790D4E154631710268D5
S11347F03260022911D16846FFF702FD3068009447
S11348002A466946FFF716FC3068816941F40021A5
S11348108161826942F48022826106B070BD000029
S11348200C00002030B450F8041B79B102684368CE
S113483002440830DC0744BFA9F10104E31852F82C
S1134840045B43F8045B091FF9D1ECE730BC704703
S113485072B60548054901600A6882F3088804486D
S1134860804762B60348004708ED00E000300000CE
S1134870ED4200000149000010B5074979441831A0
S1134880064C7C44163404E00A68081D1144884729
S11348900146A142F8D110BD080000002800000024
S11348A003F2FFFF400000000400002000000000AD
S11348B075FFFFFF04000000F80100000000002065
S11348C0000000000120C046002801D0FFF7D4FFFB
S11348D0AFF300800020AFF30080FFF7CBFE00F0C1
S11348E000F800F001B8FEE70746384600F002F889
S11348F0FBE7FEE72021090326311820ABBEF9E7C8
S1134900AFF30080AFF30080FFF7DCFF00480047FF
S1134910AD4A000000480047AD4A00000048004787
S1134920AD4A000000480047AD4A00000048004777
S1134930AD4A000000480047AD4A00000048004767
S1134940AD4A000000480047AD4A00000048004757
S1134950AD4A000000480047AD4A00000048004747
S1134960AD4A000000480047AD4A00000048004737
S1134970AD4A000000480047AD4A00000048004727
S1134980AD4A000000480047AD4A00000048004717
S1134990AD4A000000480047274200000048004795
S11349A031420000004800473B42000000480047F5
S11349B045420000004800474F42000000480047BD
S11349C05942000000480047634200000048004785
S11349D06D42000000480047AD4A0000004800470F
S11349E0AD4A000000480047AD4A000000480047B7
S11349F0AD4A000000480047AD4A000000480047A7
S1134A00AD4A000000480047AD4A00000048004796
S1134A10AD4A000000480047AD4A00000048004786
S1134A20AD4A000000480047AD4A00000048004776
S1134A30AD4A000000480047AD4A00000048004766
S1134A40AD4A000000480047AD4A00000048004756
S1134A50AD4A000000480047AD4A00000048004746
S1134A60AD4A000000480047AD4A00000048004736
S1134A70AD4A000000480047AD4A00000048004726
S1134A80AD4A000000480047AD4A00000048004716
S1134A90AD4A000000480047AD4A00000048004706
S1134AA0AD4A000000480047AD4A0000FFF7FEBFD2
S10D4AB000A4781FFEE7FEE7FEE70E
S9034901B2
