S0130000666C6173686C6F616465722E737265638C
S113200000460200314E01007B240000B53101007E
S11320107B2400007B2400007B24000000000000DF
S11320200000000000000000000000007B2400000D
S11320307B240000000000007B2400007B240000BF
S1132040AF5F0100AF5F0100AF5F0100AF5F010050
S1132050AF5F0100AF5F0100AF5F0100AF5F010040
S1132060AF5F0100AF5F0100AF5F0100AF5F010030
S1132070AF5F0100AF5F0100AF5F0100AF5F010020
S1132080AF5F0100AF5F0100AF5F0100AF5F010010
S11320904B480100594E0100614E0100694E010098
S11320A0714E0100794E0100814E0100894E0100FC
S11320B0914E0100994E0100A14E0100A94E01006C
S11320C0B14E0100B94E0100C14E0100C94E0100DC
S11320D0D14E0100D94E0100AF5F0100AF5F010096
S11320E0AF5F0100AF5F0100AF5F0100AF5F0100B0
S11320F0AF5F0100AF5F0100AF5F0100AF5F0100A0
S1132100AF5F0100AF5F0100AF5F0100AF5F01008F
S1132110AF5F0100AF5F0100AF5F0100AF5F01007F
S1132120AF5F0100AF5F0100AF5F0100AF5F01006F
S1132130E14E0100AF5F0100AF5F0100AF5F01003E
S1132140AF5F0100AF5F0100AF5F0100AF5F01004F
S1132150AF5F0100AF5F0100AF5F0100AF5F01003F
S1132160AF5F0100AF5F0100AF5F0100AF5F01002F
S1132170AF5F0100AF5F0100AF5F0100AF5F01001F
S11321809F320000AF5F0100AF5F0100AF5F01004D
S1132190AF5F0100AF5F0100AF5F0100AF5F0100FF
S11321A0AF5F0100AF5F0100E94E0100F14E010095
S11321B0AF5F0100AF5F0100AF5F0100AF5F0100DF
S11321C0AF5F0100AF5F0100AF5F0100AF5F0100CF
S11321D0AF5F0100AF5F0100AF5F0100AF5F0100BF
S11321E0AF5F0100AF5F0100AF5F0100AF5F0100AF
S11321F0F94E0100AF5F0100014F0100094F0100DA
S1132200AF5F0100B75E0100114F0100194F0100DB
S1132210AF5F0100AF5F0100AF5F0100AF5F01007E
S1132220AF5F0100AF5F0100AF5F0100AF5F01006E
S1132230AF5F0100AF5F0100AF5F0100AF5F01005E
S1132240AF5F0100AF5F0100AF5F0100AF5F01004E
S1132250AF5F0100AF5F0100AF5F0100AF5F01003E
S1132260AF5F0100AF5F0100AF5F0100AF5F01002E
S1132270AF5F0100AF5F0100AF5F0100AF5F01001E
S1132280AF5F0100AF5F0100AF5F0100AF5F01000E
S1132290AF5F0100AF5F0100AF5F0100AF5F0100FE
S11322A0AF5F0100AF5F0100AF5F0100AF5F0100EE
S11322B0AF5F0100AF5F0100AF5F0100AF5F0100DE
S11322C0AF5F0100AF5F0100AF5F0100AF5F0100CE
S11322D0AF5F0100AF5F0100AF5F0100AF5F0100BE
S11322E0AF5F0100AF5F0100AF5F0100AF5F0100AE
S11322F0AF5F0100AF5F0100AF5F0100AF5F01009E
S1132300AF5F0100AF5F0100AF5F0100AF5F01008D
S1132310AF5F0100AF5F0100AF5F0100AF5F01007D
S1132320AF5F0100AF5F0100AF5F0100AF5F01006D
S1132330AF5F0100AF5F0100AF5F0100AF5F01005D
S1132340AF5F0100AF5F0100AF5F0100AF5F01004D
S1132350AF5F0100AF5F0100AF5F0100AF5F01003D
S1132360AF5F0100AF5F0100AF5F0100AF5F01002D
S1132370AF5F0100AF5F0100AF5F0100AF5F01001D
S1132380AF5F0100AF5F0100AF5F0100AF5F01000D
S1132390AF5F0100AF5F0100AF5F0100AF5F0100FD
S11323A0AF5F0100AF5F0100AF5F0100AF5F0100ED
S11323B0AF5F0100AF5F0100AF5F0100AF5F0100DD
S11323C0AF5F0100AF5F0100AF5F0100AF5F0100CD
S11323D0AF5F0100AF5F0100AF5F0100AF5F0100BD
S11323E0AF5F0100AF5F0100AF5F0100AF5F0100AD
S11323F0AF5F0100AF5F0100AF5F0100FFFFFFFFB0
S1132400002A01D101207047F0B41F46034603247B
S11324102340002B09D00424E31A0170013008245E
S1132420E141521E26D05B1EF7D1042A1ADB13D0D9
S1132430002F11D00C460D460E46102A02DB72C046
S1132440103AFAE70C2A02DB32C00C3AFAE7082AFF
S113245002DB12C0083AFAE7042A03DB0160043005
S1132460121FF9E7002A05D0017001300824E14168
S1132470521EF7D1F0BC00207047FEE7733900000C
S113248000000000C539000000000000073B000008
S1132490A13C0000933A0000A73B00007F3D0000F0
S11324A0000000000000000000000000FD390000F2
S11324B000000000D5390000A73B00009F3D00004C
S11324C000000000FD3D000000000000273900006E
S11324D0000000002D3A0000000000000000000091
S11324E000000000293E0000000000004B3E0000F8
S11324F000000000773E0000A13C0000433A0000C9
S1132500000000000000000000000000AD3A0000E0
S1132510913B000000000000B71DC1046E3B82091E
S1132520D926430DDC7604136B6BC517B24D861A9E
S11325300550471EB8ED08260FF0C922D6D68A2FBB
S113254061CB4B2B649B0C35D386CD310AA08E3CDA
S1132550BDBD4F3870DB114CC7C6D0481EE0934553
S1132560A9FD5241ACAD155F1BB0D45BC296975622
S1132570758B5652C836196A7F2BD86EA60D9B638D
S113258011105A6714401D79A35DDC7D7A7B9F701E
S1132590CD665E74E0B6239857ABE29C8E8DA19114
S11325A0399060953CC0278B8BDDE68F52FBA5826A
S11325B0E5E66486585B2BBEEF46EABA3660A9B7F7
S11325C0817D68B3842D2FAD3330EEA9EA16ADA416
S11325D05D0B6CA0906D32D42770F3D0FE56B0DD45
S11325E0494B71D94C1B36C7FB06F7C32220B4CE26
S11325F0953D75CA28803AF29F9DFBF646BBB8FB11
S1132600F1A679FFF4F63EE143EBFFE59ACDBCE891
S11326102DD07DEC77708634C06D4730194B043D66
S1132620AE56C539AB0682271C1B4323C53D002E7D
S11326307220C12ACF9D8E1278804F16A1A60C1B42
S113264016BBCD1F13EB8A01A4F64B057DD00808F9
S1132650CACDC90C07AB9778B0B6567C6990157192
S1132660DE8DD475DBDD936B6CC0526FB5E6116201
S113267002FBD066BF469F5E085B5E5AD17D1D5744
S11326806660DC5363309B4DD42D5A490D0B1944BD
S1132690BA16D84097C6A5AC20DB64A8F9FD27A5D7
S11326A04EE0E6A14BB0A1BFFCAD60BB258B23B6C9
S11326B09296E2B22F2BAD8A98366C8E41102F83FE
S11326C0F60DEE87F35DA9994440689D9D662B90B5
S11326D02A7BEA94E71DB4E0500075E4892636E9C4
S11326E03E3BF7ED3B6BB0F38C7671F7555032FA05
S11326F0E24DF3FE5FF0BCC6E8ED7DC231CB3ECFC8
S113270086D6FFCB8386B8D5349B79D1EDBD3ADC30
S11327105AA0FBD8EEE00C6959FDCD6D80DB8E60CC
S113272037C64F643296087A858BC97E5CAD8A734E
S1132730EBB04B77560D044FE110C54B3836864647
S11327408F2B47428A7B005C3D66C158E44082552A
S1132750535D43519E3B1D252926DC21F0009F2C0F
S1132760471D5E28424D1936F550D8322C769B3FD2
S11327709B6B5A3B26D6150391CBD40748ED970A99
S1132780FFF0560EFAA011104DBDD014949B93196E
S11327902386521D0E562FF1B94BEEF5606DADF840
S11327A0D7706CFCD2202BE2653DEAE6BC1BA9EB9A
S11327B00B0668EFB6BB27D701A6E6D3D880A5DE03
S11327C06F9D64DA6ACD23C4DDD0E2C004F6A1CDE6
S11327D0B3EB60C97E8D3EBDC990FFB910B6BCB4E1
S11327E0A7AB7DB0A2FB3AAE15E6FBAACCC0B8A756
S11327F07BDD79A3C660369B717DF79FA85BB4929D
S11328001F4675961A163288AD0BF38C742DB08161
S1132810C330718599908A5D2E8D4B59F7AB08545E
S113282040B6C95045E68E4EF2FB4F4A2BDD0C47AD
S11328309CC0CD43217D827B9660437F4F460072CE
S1132840F85BC176FD0B86684A16476C93300461C9
S1132850242DC565E94B9B115E565A1587701918CE
S1132860306DD81C353D9F0282205E065B061D0B31
S1132870EC1BDC0F51A69337E6BB52333F9D113E50
S11328808880D03A8DD097243ACD5620E3EB152D8D
S113289054F6D4297926A9C5CE3B68C1171D2BCC83
S11328A0A000EAC8A550ADD6124D6CD2CB6B2FDF79
S11328B07C76EEDBC1CBA1E376D660E7AFF023EA0A
S11328C018EDE2EE1DBDA5F0AAA064F4738627F905
S11328D0C49BE6FD09FDB889BEE0798D67C63A80E0
S11328E0D0DBFB84D58BBC9A62967D9EBBB03E93B5
S11328F00CADFF97B110B0AF060D71ABDF2B32A654
S11329006836F3A26D66B4BCDA7B75B8035D36B580
S1132910B440F7B100000000895F0100935F01003B
S11329209D5F01000000000000000000090000009D
S11329302546000001010000254E000008000000AB
S11329402B57000000010000855D0000100100000D
S11329506D65000020010000737200002101000079
S1132960E76C000000000000000000005A04180892
S11329700830FF2400000000000000005A05180978
S11329800831FF2500000000000000005A06180A64
S11329900832FF26000000000000000000000000D4
S11329A00000000000000000000000009F04032459
S11329B00000000000000000000000009F07600706
S11329C0200B042700000000000000009F876087A0
S11329D0208B04A700000000000000005A0418081F
S11329E00830FF2400000000000000005A06180A06
S11329F0FF26000000000000000000005A07180B2A
S1132A00FF27000000000000000000005A06188A9A
S1132A10FFA6000000000000000000005A07208B01
S1132A20FFA7000000000000000000008F4100002C
S1132A302143000039430000B94300006D44000005
S1132A40714500000000000000401840008018405C
S1132A5000C018400000194000401940008019408F
S1132A6000C0194000001A400000000000000000EF
S1132A700000000000000000000000000000000052
S1132A800000000000000000000000000000000042
S1132A900000000000000000000000000000000032
S1132AA00000000000000000000000000000000022
S1132AB0000000000A0000000C0000000D000000EF
S1132AC00F000000140000001A0000001E000000A7
S1132AD023000000280000002D0000003400000046
S1132AE0370000003C0000004600000050000000D9
S1132AF000000000000000000000000000000000D2
S1132B0000000000000000000000000000000000C1
S1132B1000000000000000000000000000000000B1
S1132B2000000000000000000000000000000000A1
S1132B300000000000000000000000000000000091
S1132B400000000000000000000000000000000081
S1132B500000000000000000000000000000000071
S1132B600000000000000000000000000000000061
S1132B700000000000000000000000000000000051
S1132B800000000000000000000000000000000041
S1132B900000000071470100ED47010007480100F3
S1132BA0000000000000000039480100137B000011
S1132BB065780000BD780000A3790000DF7900008B
S1132BC0EF7900003D7900002B690000016B0000E3
S1132BD09B6B0000636C00008B690000456C000077
S1132BE0576C0000AF6C000000555603590C0F5A87
S1132BF05A0F0C5903565500653033663C696A3FD9
S1132C003F6A693C66333065663330653F6A693CC8
S1132C103C696A3F65303366035655005A0F0C59B8
S1132C20590C0F5A00555603693C3F6A30656633A8
S1132C30336665306A3F3C690C595A0F5500035698
S1132C40560300550F5A590C0F5A590C5603005588
S1132C50550003560C595A0F6A3F3C693366653078
S1132C6030656633693C3F6A6A3F3C693366653068
S1132C7030656633693C3F6A0F5A590C5603005558
S1132C80550003560C595A0F0C595A0F5500035648
S1132C90560300550F5A590C693C3F6A3065663338
S1132CA0336665306A3F3C69035655005A0F0C5928
S1132CB0590C0F5A00555603663330653F6A693C18
S1132CC03C696A3F65303366653033663C696A3F08
S1132CD03F6A693C6633306500555603590C0F5AF8
S1132CE05A0F0C590356550011B2000015B20000DA
S1132CF021B2000031B2000000000000000000001A
S1132D00010000000100000039320000942B000093
S1132D10A42B0000242F000010000000010000007C
S1132D2000000000B42F000000000000C42F0000C9
S1132D30000000000000000000000000000000008F
S1132D4000000000000000007548010091480100E7
S1132D5041490100FF490100C89B0100696F00005F
S1132D609B70000035710000FD710000936F00003E
S1132D70DF710000F17100003972000000000000F2
S1132D80000000000000000000000000000000003F
S1132D9000000000000000004600140000003200A3
S1132DA01E0032001E0000007800C800C800280081
S1132DB0C800000023000A00000019000F001900D9
S1132DC00F00000050006400640014006400000060
S1132DD019000A00000011000F0011000F0000008C
S1132DE05000640064001400640000001900050031
S1132DF000000F000A000F000A0000003C006400FD
S1132E0064001400640000001400050000000C00BD
S1132E100A000C000A0000003C0064004600140094
S1132E20640000000F00050000000A0007000A000B
S1132E30070000003C006400460014006400000029
S1132E40000000000000000000000000000000007E
S1132E500000000000000000000000004D49435243
S1132E604F4E2020202020205350414E53494F4E96
S1132E702020202053414D53554E47202020202010
S1132E8057494E424F4E44202020202048594E4955
S1132E905820202020202020544F534849424120CC
S1132EA0202020204D4143524F4E495820202020BD
S1132EB0000000000000000000000000BD570000FA
S1132EC0635A0000555B0000615C0000415800003B
S1132ED04F5D0000615D0000000000000000000084
S1132EE00E000A0000000000420021000A009C00BD
S1132EF00A000000000000000700050000000000B8
S1132F00280014000500600007000000DF530000E3
S1132F105D550000735500000756000085560000FB
S1132F20A9560000F14A0100F74A0100634B010071
S1132F30FB4B0100F54A0100074C0100D14A010096
S1132F40F9620000036300001D630000EB630000EE
S1132F509764000099630000000000000000000076
S1132F60E54600002D4A00005D4B0000354D000091
S1132F7027490000F74C0000094D00000000000044
S1132F80D54101005D420100000000005D420100E6
S1132F9000000000F54201003D4301000000000074
S1132FA0E54301001B4401006F440100AF440100EC
S1132FB0E3440100395B0100455C0100F15C010060
S1132FC04F5D01005D5D0100815D0100055E010052
S1132FD09D5E0100AD5E0100B15E010000000000D5
S1132FE038B504463E4D00202862C5E90000C5E915
S1132FF00200C5E9040068623A4800F0ADF8C5E98A
S1133000060120460FF25D01BDE8344000F055B9D9
S113301000F069B970B50C46314E316A072904BF16
S1133020756AA8421BD100F018FB0546C5EB0515CF
S1133030D6E90023D6E9020182184FF49666B5FB5F
S1133040F2F00A250A2368434FF49662B0FBF6F6C1
S1133050761D0020B6FBF3F35343236070BD0120BB
S113306070BD00002DE9F8431D4F064600F06AF8D4
S11330703A6A0446D7E904598846521C651BD7E9C5
S1133080060168EB0909494502D82CBFA842012270
S1133090012A3A6206D0042A08D0052A0ED0072A4B
S11330A00FD018E0C7E900487E6214E0D7E9002396
S11330B0A21A68EB0303C7E900230CE0C7E902483E
S11330C009E0D7E90201201A68EB0101C7E902010E
S11330D0304600F008F9C7E90448BDE8F183000070
S11330E0008001008038010010B52C482C4A01688A
S11330F0002341F4405101600020106029484FF042
S1133100FF31012201618361C261846944F00404D6
S11331108461826942F00102826101600121C1601F
S1133120816000F09AFAC0001F49B0FBF1F000B9C9
S113313001201E4A906010BD1948016841F0020147
S11331400160704781B01A48016842680092009893
S113315001B0C943C043704714498A68A2FB000107
S1133160C00840EA4170C908704738B50446FFF703
S1133170E9FF00F00BF8241841EBD505FFF7E2FF57
S1133180A942FBD301D8A042F8D331BD074A9368C2
S1133190A3FB0445E40844EA457470476CC00F403F
S11331A0004008400041084040420F0028800100D0
S11331B0E04008400901020002D456488154704797
S11331C0554A00F00F00131803F8041C704710B59B
S11331D0039C01F00701240104F010042143016061
S11331E002B1136010BD0021016002B111600098AA
S11331F008B1019901607047FEB5089E0027099C3B
S11332000A9D01970096FFF7E2FF3068012101FA59
S113321005F540F410403060606820EA05056560FB
S1133220F7BD7CB5069C0025019547F2B0060094D5
S1133230FFF7CDFF266073BD7FB5384C384D394854
S1133240394A19B1022919D00DD37FBD41F2B00614
S113325000950196002300F01EF8019600230095C6
S113326000F019F87FBD0D21304B02910521019327
S1133270002300920022FFF7BFFF7FBD00920023CE
S11332800022FFF7CEFF00950023002202212046F2
S1133290FFF7C7FF7FBD002202212046A3E710B538
S11332A0234C2068800407D52249496821B10120B4
S11332B088474FF40051216010BD10B51D4B1B4CC5
S11332C0596004220D21204600F08CFA6369012123
S11332D0502043F400536361FFF76CFF4FF48030D8
S11332E01549086010BD80B54FF48030134908605B
S11332F0BFF34F8FBFF36F8F00215020FFF75AFFAA
S113330000220D21094800F06DFA002009494860A7
S113331001BD000000E400E018ED00E0EC801F4077
S1133320DC821F40F0801F40E0821F4000801B4071
S113333018801B40C09B010008E100E088E100E028
S1133340002808BF00F023B87047DFF84803DFF80F
S1133350482301684FF0004341F00301016040201D
S11333601060DFF8380383634FF0804181630022EB
S11333700260DFF82C03036843F4C0130360DFF832
S11333802403016849084900016001207047F0B531
S1133390DFF81403DFF814130860DFF8140303697B
S11333A001220068DFF80C43DFF80C53DFF80C63EC
S11333B05B0D03F0030302FA03F3DFF8042311683F
S11333C0C0F38000CF0379D5002814BFDFF8F412CE
S11333D0DFF8F412116011680029FCD5116B21F497
S11333E080511163116B0029FCD5B84F396921F064
S11333F03F3CB74941EA0C0139614FF44051116136
S113340011690029FCD511694FF0010E21F48031B6
S11334101161396821F03F3CAE4941EA0C01396041
S1133420AD4FC7F800E000F04CF80121AB4D00E0CF
S1133430491CB0FBF1F4AC42FAD27C68491EA8489E
S11334400D045B1E05F4E02504409B022C4303F4A9
S1133450E0530902234301F440710B437B60786914
S1133460A049C009C00140F003007861BB6843F47F
S11334704023BB60B868084040F0A050B860FB68C7
S11334809948034043F0C74343F00103FB60F968E4
S113349041F44031F960786920F4E72040F4843045
S11334A07861116821F480311160106B20F4803050
S11334B01063116921F480311161F0BD00F001F84D
S11334C0F0BD00B93546B5FBF3F020607047D5E098
S11334D0002A70B518BF012A38D17C48834B046890
S11334E01D68A409002A0CBF0FF240220FF25022DB
S11334F00E0025F0607529D00A29A8BF012112F811
S1133500116002EB41014A78794906F03F0646EA28
S113351084140E68521ED20502F06072154346F000
S113352002060E605A6E22F440625A660668B4427D
S113353018BF04601868854218BF1D605A6E42F4B3
S113354040625A66086820F00200086070BD514865
S1133550016841F44061016070474E48016821F4FC
S113356040610160704730B5524C0023002024684C
S1133570604D19B102290AD002D319E0234618E09C
S11335802968C1F30121491CB4FBF1F311E0A968D6
S11335904E4B1968AB68584C01F03F01B4FBF1F590
S11335A012214D43C3F3C251491CB5FBF1F300E0B2
S11335B00420136030BD024604201AB911B14F48EB
S11335C0086000207047000030B54A4906280A68A0
S11335D042F040020A600B68494A23F080030B6002
S11335E013680C6823F47C1324F4E02414D8DFE873
S11335F000F0040608130B0D100023200DE0222018
S113360000E01B20072509E01D2003E0122004250B
S113361004E01320032501E01220082543EA0043B7
S11336206D1E2D0405F4E02510682C43834218BF59
S113363013600A68944203D00C604B6BD807FCD427
S113364030BD3048016841F03001016070472D48B9
S1133650016821F03001016070472648154A01686D
S113366080681368C1F30121491C00F03F00401C2D
S1133670B3FBF1F1B1FBF0F0704700001D480D49B8
S113368000680A68C0F30120401CB2FBF0F07047E8
S11336900000000080C00F4014800D4000900D40D9
S11336A0B0810D4040012E4000366E011893010098
S11336B060441F40F069010000A4781F007B9A1742
S11336C000800D405820010042200100F0800D4090
S11336D01818131823231A0F10C00F40014495081B
S11336E0FFE0F8FFCFFFFFE380FF7F9C1CC00F408B
S11336F000802A4014C00F4000389C1C80F5E40967
S113370000810D4074C00F4038B504460D4602E0F8
S11337100120FFF72AFD20462946441E61F10005D9
S1133720002908BF0028F3D131BD000000002208A1
S1133730160818061E0412060E0611041A021602B2
S11337400000180616040C061E02120316022101BC
S11337501A011601F8B506460C4615465FF000003E
S11337603AA151F82020B24202D0401C0628F8D3D6
S11337703CA1144A31F91000032300F01F01000A90
S113378002EB800003FA01F107688F4339430127F4
S113379001607269A740F9430A407261287818B938
S11337A073681940716007E06A782146304600F07A
S11337B00BF873681F437760AA7821463046BDE84A
S11337C0F8400FE068C00F400123002A10B503FA47
S11337D001F107BF026822EA010104682143016084
S11337E010BD0000F0B5C369012404FA01F5AB4330
S11337F01029C36132BF00F10C0300F1100310392A
S1133800490003268E40F743521E042A1DD8DFE8E0
S113381002F003070D151900186807401F60F0BD7A
S11338201A688C4017403C431C60F0BD1C6802259C
S113383005FA01F1274039431960F0BD18680643C1
S11338401E60F0BDC1690D43C561F0BD00000000FC
S113385000801B4000C01B4000001C4000401C4076
S113386000000C40FFFF1A011E001A020C031E0187
S1133870DFF8081700200A69D36818607047F8B5A4
S1133880DFF8F8660024306A8DF800404569002DA1
S113389047D03169C9680F68012F31D06C6801F1D4
S11338A008020023091DA04704001FBF42F2127042
S11338B0844242F213718C4233D13069C2689168F8
S11338C000292ED0546823781D0007D0142B05DA64
S11338D0806800EBC305A5F1080000E00020002883
S11338E050621CBF0268002A03D02046002490477F
S11338F013E042F210741946204600F0D4FA10E0A6
S1133900486A58B1416811B16846884704460CB109
S1133910002003E09DF8000000B101203169CA686D
S113392010602046F2BD80B50178002000F0BBFA9B
S1133930DFF84826106A41690A699047022000F0BE
S11339404DFBBFF34F8FDFF83816DFF838060A68EF
S113395002F4E06202430A60BFF34F8F00BFFDE749
S1133960DFF8180618210269D36803F10C0000F08F
S113397061BB10B504466068083812D0401E0AD0F6
S1133980F73811D0401E09D00F3810D0103814D099
S1133990401E0FD014E000F018FE12E001F01AFAF5
S11339A00FE001F0B6FE0CE002F0A6F909E002F027
S11339B035FD06E003F07BF903E003F03DFC00E095
S11339C004202DE2DFF8B43570B500F0E2F9AE69F9
S11339D0B047DAE110B500F094F8DFF8A0056268AA
S11339E00169C8680821026180F82010217800204C
S11339F000F059FABDE8104003F098BE7CB5DFF83A
S1133A007C450022E56801920092816840686B461B
S1133A10AE6801AAC0B2B04722690021D368196117
S1133A20009A0199920800F044FA73BDDFF84C251E
S1133A3038B5D36804466068A168DD68C0B2A84799
S1133A40EAE138B5044604206268092A03D1A06873
S1133A5000F09FFB19E0082A03D1A06801F0D8FC0C
S1133A6013E0C2F3032101290FD16946104604F083
S1133A701CF850B9009DDFF8042514219368A06850
S1133A804D4359190A6913699847217800F00BFAD4
S1133A9031BD10B500F035F8DFF8E004E2680169E3
S1133AA0042300F03FF821780020BAE170B5DFF874
S1133AB0CC5400F026F829691320DFF8CC64CA68D6
S1133AC082F820002969E068CA6882F82100E06869
S1133AD038B929691022C86802614661217800203A
S1133AE054E106F11001304604F038F82869482101
S1133AF006F11002C068016142610020BDE8704017
S1133B00F2E104462CE710B5FFF7FBFFDFF86C0485
S1133B10E2680169032300F005F8A1680020BDE80C
S1133B201040EFE1C8688261A16801616268426186
S1133B3080F82030704738B50446DFF840542869CF
S1133B400021C0684161016190F82000042804D17B
S1133B5029680A69904704B9044628684169884776
S1133B6004B904462869C168204691F8201000F081
S1133B709AF942F21270844201BF2969CA6892F824
S1133B802000082803D1BDE8314003F012BE31BD46
S1133B90DFF8E8130A69D36893F82110002908BFF5
S1133BA000F001B87CE02DE9FE4300F0DEF811B925
S1133BB000F0E1F871E0012101233170D0F8189090
S1133BC00569D0F8148000206A460090386A01A97B
S1133BD04469D4F804C0E04704000AD0386A416953
S1133BE0CA6890472046FFF7A6FF002100203170E5
S1133BF054E0009830B942F21270FFF79CFF0020A5
S1133C0030704BE0A842396988BF28460090C868E4
S1133C1090F82010082912D10199C160009AC2615C
S1133C200099019803F08CFD044642F27D708442B1
S1133C301CBF42F274718C4216D1002414E0132983
S1133C4007D1009A0199404603F0F0FF00988044A0
S1133C500AE03C68019A00994B464046D4F808C0F3
S1133C60E04700990446884400982D1A05D120465F
S1133C70FFF761FF002131700FE04CB1386A4169F0
S1133C80CA6890472046FFF756FF0020307004E0D2
S1133C903969C9680D61C1F814800020BDE8FE834C
S1133CA02DE9F84F00F061F811B900F064F859E01B
S1133CB00121DFF8D8A23170826900920569D0F839
S1133CC01480C46890F820B0386A41694A69904702
S1133CD08146A94588BFA946ACB14A46214650460B
S1133CE003F0A4FF386AA5EB090401234A465146B0
S1133CF04569D5F808C0E04704B170B3FFF71BFF6E
S1133D00002030702EE0BBF1030F09EB080419D139
S1133D10D7F800C04046009B52464946DCF8048070
S1133D20C0475FEA000BA046DCD0386A01230022BA
S1133D3051464469A568A8475846FFF7FCFE002091
S1133D40307010E0BBF1130F01D0A046CAE74A4619
S1133D504146504603F06AFFF7E73869C0680461DA
S1133D60C0F814800020BDE8F28F0646834F3869FE
S1133D70C06801697047002200203270DBE67F4B87
S1133D8070B500F006F8EE68B0472178BDE87040E1
S1133D9089E01D680446E268A168606870472DE9FF
S1133DA0F04105467A4F6E68D5F80880E86800242B
S1133DB0386018B103F074FF00B90424304603F0EE
S1133DC058FF00B904242978204600F06CF89CB907
S1133DD07E60002000F002F9C7F80880386818B146
S1133DE080F3088880F30988796840468847002072
S1133DF0BDE8F04100F0F2B8BDE8F08138B5044602
S1133E00606803F036FF08B9042005E06568012006
S1133E1000F0E4F8A068A8472178BDE8344042E007
S1133E202178BDE810403EE038B5044603F0E0FFD9
S1133E30A368616804F10C02564804F01FF80546B3
S1133E4003F0DCFF21782846E7E73EB5002104466D
S1133E50CDE9001103F0CCFFA36861686A464D48C0
S1133E6004F064F8054603F0C9FFA26869462846D1
S1133E7000F05AF837BD38B504461025FFF770FD39
S1133E803E48A2680169C9680A6163684B6181F8A8
S1133E9020500069E168C268002082F82110A168FE
S1133EA0BDE8344078E03EB5002400F031F8A023AA
S1133EB01EE070B5002588B0A7248DF801508DF858
S1133EC000400026551C01908DF8026000208DF8FA
S1133ED003506C4605E004EB800551F82030401C8B
S1133EE0AB609042F7D33BE03EB500F010F8B3234B
S1133EF08DF800300023029144690C226946A568BC
S1133F00A84737BD3EB500F002F8A323F0E701242B
S1133F1001908DF8014002248DF80340174C206A6B
S1133F2000258DF80250704770B5002588B08DF8D3
S1133F300150AF24002602258DF800408DF8026060
S1133F408DF80350019050B99DF80300029200EBE4
S1133F50920403A88DF8034003F068FE00E0029683
S1133F6006489DF80320006A0023694644699200CC
S1133F70121DA568A84708B070BD000010640100B8
S1133F800CED00E00400FA05548401005C8001009B
S1133F90AC84010000401F403EB5FFF7B8FFB023DA
S1133FA0A6E730B4002513E050F8042BD30744BF30
S1133FB0A9F101039A18091F042942F8045BFAD2F3
S1133FC013468C0744BF15809B1CC90748BF1D704E
S1133FD050F8041B0029E7D130BC7047012870B5A4
S1133FE004461DD00025114E05E07018C16889688B
S1133FF001B188476D1C1821694370580028F4D119
S113400074B903F0F5FEFFF797F804F007F8002001
S1134010074908600120FFF793F904F062FA62B6D9
S1134020BFF36F8FBFF34F8F70BD00BF002D000033
S113403008ED00E0002204F0A1BAF0B402461068D2
S113404095681318506803EB5004C0071DD54D4400
S11340501BE013F8017B05F8017B491EF9D1A0B1DF
S1134060B60813F8011B06F00306032E08BF13F865
S1134070016B01EB06214942801C294405D011F84B
S1134080016B05F8016B401EF9D1A3420ED013F861
S1134090016B16F0030104BF13F8011BC91C30099E
S11340A00F28DAD113F8010B0F30D6E7F0BC02F178
S11340B00C007047BFF34F8FDFF8082602E0106052
S11340C0203020390129FADABFF34F8FBFF36F8F05
S11340D0704730B504460420002C85B01EBFDFF8BD
S11340E0E8251178002950D023681D0F0B2D4CD1E1
S11340F0C3F30361012902F582650DD0002944D17F
S1134100204604F055FA10B1002129703DE0A26860
S113411001236A602B7038E02978002935D013F028
S11341200F0F32D1002101200491039104A900F062
S113413079FA50BB03A9102000F074FA28BB01A936
S1134140032000F06FFA00BB6C68049D694602A866
S113415004F065FA6519C0B9009A0399A418A1423C
S113416013D3019B5B1E1D420FD10199284600F019
S113417046F910B942F2DB7007E0029A009928462A
S113418000F0DAF808B900F071F905B030BD01208B
S11341907047F8B5ADF5007D0746042403F069FDCA
S11341A000286CD007F2FF1003F063FD002866D0EE
S11341B03868DFF8145505F58366010F0C2918D10A
S11341C03A463146002005F02DFE040057D1002068
S11341D03146287004F042FA040050D1002006F061
S11341E090FC6946102000F01DFA00285FD00446B8
S11341F045E0DFF8D81488420BD12878002849D04C
S113420000F089F803F09EFC00285BD142F2DB74D5
S113421035E0DFF8BC14884206D14FF40072394609
S1134220304603F003FDD2E7000F0E282BD1287887
S113423028B3384606F0F6FD08B3384606F0FBFD11
S113424004001CD10120687000256A4601A9284693
S113425006F0F8FE80B9DFF87C644FF4007106EBD9
S11342608526304600F0CBF830B1019A00993046EB
S113427000F062F800F0FAF86D1C012DE5D9204633
S11342800DF5017DF0BD0B280ED13846FFF721FF57
S11342900400F4D168780028D6D106F0BBFD0028CC
S11342A0EDD001206870EAE700216970E7E7009823
S11342B0DFF824140B6B01228A63C3185B1E4B6363
S11342C02A70E7E705F2DC57B87970B100200DF1E8
S11342D00104291891F819140DF80010335C2354C3
S11342E0801CB0F5007FF4D36E46324600F013F81C
S11342F000F022F8040004D000F00DF800F0CEF92C
S1134300BDE700F0B3F80400C4D039684FF0C040F2
S113431000F02EF9B3E74FF400714FF0C04070473E
S113432010B5DFF8A443237813B942F2DD7010BD51
S1134330BDE8104006F06EBF2DE9F8430546DFF8EE
S1134340887338780C46914688BB42F2DD7031E0C0
S1134350B87868B9D7F8D815491E0D4202D044F68A
S1134360896027E001200021B870B9607D6004E015
S1134370B86879680818A84216D1B868D7F8D885FB
S113438049462218424534BF2646A8EB0006384465
S113439032461030751903F049FCB868A41BB144C7
S11343A030184045B86002D100F060F810B9002C14
S11343B0CED10020BDE8F28376B50D460646DFF87F
S11343C00813087810B942F2DD7076BDAC08A40079
S11343D005F0030507E001AA04213046FFF7ACFF0E
S11343E060B9361D241F002CF5D12DB101AA294630
S11343F03046FFF7A1FF08B900F038F876BDF8B5EC
S11344000C460546B049ADF5806D4878012620B1CB
S11344102146284606F0F0FDB0B92146284603F0AF
S113442091FB064630460DF5806D01B0F0BD491C88
S1134430B1EB970F06D250F8042B12F1010FF6D00E
S11344400020F0E7E41B7D19002CEBD04FF48067CB
S1134450B4F5806FA048016B684698BF27463A467A
S1134460691A00F024F968460021E1E72DE9F843D0
S1134470954E0024B078ADF5806D002872D0B470EC
S1134480D6F8D845B068A04206D0211A06F1100328
S1134490FF22184406F0D6FE70682146FFF7AFFFEE
S11344A010B942F2DB705EE0D6F8D815706806F0F9
S11344B0A3FD40B1D6F8D815706806F1100206F0D5
S11344C008FE04004ED1844F746803F091FC386BED
S11344D006F1100306F58361221A002004F0BFF9E7
S11344E0044603F08BFC0020002CB070B06039D17E
S11344F07A480268D10304D5D6F8D8157068FFF756
S1134500D9FD7078D6F8D85506F11008D6F804907D
S1134510F0B12946484606F06FFDC8B115B34FF413
S11345208066B5F5806F396B684698BF2E46324673
S1134530A9EB010100F0BBF832464146684606F09B
S11345408BFE002802BFAD1BB144B044E6D006E0A8
S11345502A4606F11001484606F07EFE10B144F6E4
S11345608A6000E020460DF5806D01B0BDE8F0835F
S113457070B50446544A107810B942F2DD7070BD2B
S1134580D2F8DC55684200EA04060C19644204407F
S11345906442A41B2146304600F080F8A0B92946A5
S11345A0304606F0F5FD4D480168CA0303D5294697
S11345B03046FFF77FFD21463046FFF720FF10B954
S11345C044F68A6070BD002070BDE0B53E490878AD
S11345D010B942F2DD700EBD01F58361002004F0D4
S11345E09BF9F0B901A9012000F01CF8C8B969468B
S11345F0102000F017F8A0B90099019806F0C8FD42
S113460036480168CA0303D500990198FFF752FDA3
S11346100099019803F096FA10B944F68A600EBD29
S113462000200EBD002930B52ED0274A02F5BB6309
S113463002F58D6460B1012813D0022814D0032838
S113464017D0042818D0052818D0102819D01BE03A
S11346501078002814BF002042F2DD7008600020AA
S113466030BD4FF0C040F9E700F010F8AD0A0D601E
S1134670F5E71B680B60F2E75868EFE7186918B1B3
S1134680ECE700F003F8F2E7042030BD2568636826
S1134690A268E0685D195519451970470B46024632
S11346A00D49086B0E49121A002005F07BBC80B539
S11346B000920B4602460A49002005F0AFFC02BDF9
S11346C0000000005CEF00E0008D01000F0000F02E
S11346D046434642000400605064010014ED00E0CB
S11346E0189101003EB503F0C3FE022801D0012059
S11346F03EBDDFF8144C42F22C102518284606F073
S1134700CFFD48BB284600F09DFD28BB01A902A8A7
S113471006F0B2FD0199029800F05AFCE0B928466F
S113472000F090FDC0B942F22C00204400F0D0FC0F
S113473090B9012140F201102170694603F0B5F9E6
S113474050B900F06BF9E01804681144CC60C269F8
S1134750806842438A6000203EBDFEB504460420C2
S1134760002C1EBFDFF8A02B117800294DD0236840
S11347701D0F0B2D49D1C3F3036142F22405012916
S113478015440DD0002940D1204603F011FF10B18B
S113479000212970FEBDA26801236A602B70FEBD52
S11347A0297891B303F00F03082B1AD202EBC3004C
S11347B042F26C0142F2EC236D68D6580844694613
S11347C00768446801A803F02AFF06FB0757E0B90D
S11347D000982D18B5FBF6F0844202D3711E0F42E7
S11347E001D00420FEBDB7FBF6F40121204600F001
S11347F0CBFB10B942F2DB70FEBD019A0099204652
S113480000F0EDFC08B900F076FAFEBD2DE9F041A8
S1134810064604240D46002E18BF002D0ED028781D
S113482000F00F00C01E08283FD24FF480613046CC
S1134830FFF700FC686803F01CFA002870D0686871
S1134840083003F016FA00286AD06A6806F5807109
S1134850002007F021F8040062D12868DFF8A81AC4
S1134860C0F3032000281CBF0128002048602868EA
S113487000F00F039B1E082B52D8C0F30357032FDD
S1134880C0F303610CD8DFE807F0020406094027EF
S113489008E0802706E04FF4807703E0202701E05A
S11348A0202F3DD300293BD0052939D2DFF85C0AFB
S11348B00122706017FB01FC378200207182B26014
S11348C0C6F80CC0736116E0B2F806C0B2F804E092
S11348D0E644B2F80AC0F4451CD31289D6F8C8E2FB
S11348E006EBC008401C0EFB0CFC0EFB02F2C8F8E1
S11348F04420C8F840C098420CD2002805EB80023E
S1134900E2D1D6F8C8C2B7FBFCFE01FB0EFE4FEAAB
S11349104E0EDEE74FF47F71301D00F0B2FC3060C4
S11349202046BDE8F081F8B50424074603F0A1F958
S113493000283D4654D005F2FF35284603F099F986
S113494000284DD03868DFF8C05942F22C016E18A7
S1134950000F0C2846D139463046FFF757FF0400B4
S11349603ED10020287042F22C11681800F06AFC35
S1134970040035D1304600F0ABFBC8B1DFF89049F4
S1134980FF224FF48461204603F0F4FDDFF884092C
S1134990012160600022A16040F21C412261201DBF
S11349A000F06FFC2060304600F0BFFB040017D11C
S11349B0304600F042FB040012D101206946287001
S11349C040F2011003F071F8040009D100F026F858
S11349D0E81805681144CD60C269806842438A6062
S11349E02046F2BD7968DFF8242991420FD14FF4B3
S11349F08061384600F038FC0028F1D000204FF4E4
S1134A00806228703946304603F010F9ABE70B2872
S1134A10E6D13846FFF7A1FE0446E1E7009A1420E8
S1134A2042F2EC23DFF8F018424370472DE9FE4FC1
S1134A3092460425BAF1000F034688464CD0DFF8AD
S1134A40C868307810B942F2DD7545E0726842F208
S1134A50EC2177183968012A019118D1307B48B9C3
S1134A60F9698B4238D2B868B36032730024434387
S1134A70009312E0B068BA68424301FB02331B1A88
S1134A800198B3FBF1F1009100FB113304E0B3FB97
S1134A90F1F001FB103300901C46684641F20D0909
S1134AA000F023FC12E006F10D0001192A465046DD
S1134AB003F0BCF801992C19A8EB0508AA448C4210
S1134AC003D3009A641A521C00920025B8F1000F17
S1134AD011D10DB1002030732846BDE8FE8F084681
S1134AE000F0E0FBF8B142F220003158491C31508B
S1134AF000985844009041F210050099725916F834
S1134B0009008A4200D108BBD7F808B0B1FBFBF119
S1134B1018B1B2FBFBF0814205D0F8698142DED3C3
S1134B2042F2D875D6E7DDF800B00020396806F8FF
S1134B30090006F10D02584600F037FB20B90121A7
S1134B4046F805B006F809100500C2D1019808EB33
S1134B50040290422CBF4546051BA4E72DE9F84FFB
S1134B6093460424BBF1000F05D0DFF89C773A7814
S1134B7012B942F2DD7494E08946796842F2EC237A
S1134B8042F21406FA58BD1901290646904640D14E
S1134B90387BA0B9DFF88407C1698E42EBD20022CA
S1134BA001232A7092463B73DFF87427BE60806845
S1134BB046430096314608FB019111602FE03B44C7
S1134BC0B8689968414302FB0162DFF85417121A6E
S1134BD0B2FBF8F008FB102A00900868824213D058
S1134BE0287818B100F05AF9040058D1012042F293
S1134BF0EC2238733A44BE60906831464FF0000AA4
S1134C004143009108FB01F24A44DFF814170A609B
S1134C1005E0B6FBF8F008FB10660090B246009879
S1134C20A96D88423DD3684600F05FFB1EE009EBA6
S1134C300A00804507EB0A0041F214035946184460
S1134C4034BFA8EB0A044C462246A24402F0EEFF0D
S1134C506868A9EB0409A3442018C245686004D31A
S1134C600099AAEB080A491C00910024B9F1000F2D
S1134C7006D113E0E868401CE860009976180096B5
S1134C80A96800982C7881420ED16CB169685145AD
S1134C90CDD000F003F90028F2D004460CB1002076
S1134CA038732046BDE8F28F42F2EC223A4496680B
S1134CB0B0FBF6F01CB1B1FBF6F188420AD0D16921
S1134CC0884202D342F2D874E9E700F0EBFA0028F4
S1134CD0D0D11CB100F0E2F80400DFD1BAF1000F2A
S1134CE006D10020012268600099A9602A709EE71D
S1134CF044F62A64D3E7DFF82C2600201178002933
S1134D0018BF00F0CBB8704738B5DFF8FC45002079
S1134D10617821B142F22C00204400F006FA42F2FC
S1134D2014012144002241F20D050A706255CA6043
S1134D30227332BD2DE9F8430D46DFF8CC7539787E
S1134D40042411B942F2DD7441E00DB900243EE0BF
S1134D507B6842F2EC213944CE698A68012B08BF92
S1134D6081460DD00968B0FBF1F82818401EB0FB4D
S1134D70F1F0B8FBF2F9B0FBF2F5A5EB09056D1CF7
S1134D8042F26C017B58B3FBF2F2914507D21EE06C
S1134D90484600F056FA040003D16D1EC14625B9F9
S1134DA00DE0484600F08FFAC146B14507D24846A7
S1134DB009F1010800F076FA0028E9D0F4E77878E0
S1134DC028B142F22C01781800F0AFF904462046CD
S1134DD0BDE8F28370B5DFF83045207810B942F2AF
S1134DE0DD7070BD42F208300025265800E06D1CCD
S1134DF0B5420CD2284600F055FA0028F7D12846CF
S1134E0000F01FFA0028F2D070BD002070BD607859
S1134E100028FAD042F22C01601800F086F900282C
S1134E20F3D070BD002930B52ED0DFF8DC2442F277
S1134E30EC2342F27C141344144450B1012811D0E1
S1134E40022811D0032814D0052815D0102818D012
S1134E501AE01078002814BF002042F2DD700860C8
S1134E60002030BD0020FAE700F010F8ED0A0D60D4
S1134E70F6E71B680B60F3E71A68986842430A6018
S1134E80EEE700F003F8F2E7042030BD256863681C
S1134E90A268E0685D195519451970472DE9FE4F60
S1134EA0DFF8645442F2140042F2EC212E186F1819
S1134EB072683B6842F2DB789A421CBF0020287378
S1134EC0D6F808A0002232700121504600F05CF8A8
S1134ED0002848D0716841F214022A44504600F078
S1134EE07EF9002843D0B868BAFBF0F42046641C6D
S1134EF000F0E9F9F168F8690190491CF16006E0F5
S1134F00204600F0E0F9F068641C401CF060019950
S1134F108C422AD2204600F0C5F90028F3D1B868A3
S1134F20BAFBF0FB00FB0BFB60430090AAEB0B0108
S1134F30491C00F029F8B0B1DDF80090D345396878
S1134F4017D205F10D02584600F02FF9B8B93968A7
S1134F5005F10D02484600F042F980B90BF1010B4E
S1134F6009F10109EAE7404601E042F2D870BDE8E0
S1134F70FE8F41F214002A18484600F030F9002848
S1134F80F5D04045BCD1F2E7F8B50546DFF87863C3
S1134F9042F2EC200C4637580CE0001DB84208D20F
S1134FA051F8042B12F1010FF7D00020F2BD0120BB
S1134FB0F2BD641E002CFAD006F10D0239462846D3
S1134FC06D1C00F0F2F80028EFD106F10D01E5E7C1
S1134FD02DE9F041002705460E46B846CA4C01E0CB
S1134FE07F1CB044B8B2A84224D204F10D024FF49D
S1134FF08061404600F0D9F8002802BFD4F81100BF
S1135000C249884204BFD4F81520012AE8D14FF4DC
S1135010806104F10D0000F027F90028E0D042F28D
S11350202C004FF4806204F10D01204402F0FEFDD7
S1135030002000E00120BDE8F0812DE9F84F05468D
S113504044F62968B5F81290B5F810A0D5F8C8123E
S113505000260027DFF8B0B209FB0AF0B0FBF1F438
S11350604E452FD20BF10D024FF48061384600F00B
S11350709CF858BB4FF4806229460BF10D0006F0F2
S1135080EBF818BB761C5744EAE73046761C00F070
S1135090E6F8A642F9D30024002647464C4512D22E
S11350A02A464FF48061304600F099F800280FBF7B
S11350B00027D5F8C802B6FBF0F000F0D0F8641C65
S11350C05644EBE700273846BDE8F28F0026E0E7B8
S11350D02DE9F0418E4C00216160458A068A002743
S11350E0D0F80C8001E07F1CB044B8B2A84219D2B9
S11350F0082817DA22464FF48461404600F055F838
S1135100002802BF60688349884204BFA268012A5C
S1135110E9D14FF48461204600F0A6F80028E2D0DB
S1135120002000E00120BDE8F0812DE9F84F814620
S113513044F62966B9F81280B9F810A0D9F8C80263
S1135140D9F80C20002508FB0AF1B2FBF0F4B1FBFE
S1135150F0F703E000196D1C00F081F8A8B2B84222
S1135160F8D36B4F40F21C41381D002500F089F83C
S11351703860D9F80CB0644CA8B2404512D23A4613
S11351804FF48461584600F02AF810B96070002684
S113519005E0D9F8C812BBFBF1F000F060F86D1C13
S11351A0D344E9E73046BDE8F28F2DE9F0410546E6
S11351B00C469046544F08E042463146284600F0DB
S11351C045F850B9B044A41B6D1C34B142F2EC2034
S11351D03E58A64228BF2646EEE7BDE8F0812DE9F9
S11351E0F84307460C469046474E12E006F10D027E
S11351F02946384600F02AF85FEA00091ED12A46FB
S113520006F10D01404606F027F8A8B9A844641B2E
S11352107F1C9CB142F2EC2042F22C1135584346DB
S11352203A463144A54228BF25460095002006F0A1
S113523093FA0028DAD002E0012000E04846BDE8F5
S1135240F2830CE00146002006F070B980B51346E5
S1135250009102463449002006F07AF902BD024664
S11352603149002006F01ABA10B50446091F201D62
S113527000F007F82268904201D1012010BD0020FF
S113528010BD3EB504460D4601A806F06BFC2A4647
S1135290214601A806F06CFC694601A806F07DFCD5
S11352A000983EBD30B51A4A0021136900E0491C3C
S11352B0994206D202EB8104256A8542F7D1012086
S11352C030BD002030BD12490A69B2F5807F0AD290
S11352D001EB8202106208690B4A401C086101213B
S11352E051700020704701207047074942F22003A3
S11352F030B5CC5842F2F4250268495901FB042226
S11353000260002030BD000038F601004243464EE2
S1135310641A020054424244C06401002419020089
S1135320841E02004C1602006417020030B50446C5
S11353300420002C85B01EBFDFF8742411780029E6
S11353404BD023681D0F0B2D47D1C3F303610129F3
S113535002F543750DD000293FD1204603F028F90A
S113536010B10021297038E0A26801236A602B7013
S113537033E0297889B313F00F0F2ED100210120D7
S11353800491039104A900F0D0F930BB03A900F003
S1135390BEF910BB01A9032000F0C7F9E8B96C6895
S11353A0049D694602A803F03AF96519A8B9009A60
S11353B00399A418A14210D3019B5B1E1D420CD17A
S11353C00199284606F029FE10B142F2DB7004E090
S11353D0029A0099284600F0CCF805B030BD38B5E3
S11353E003F046F8102801D0012032BDDFF8C05385
S11353F0281D06F0C1FF040008D1281D06F028FE70
S1135400040003D100F0BFF901202870204632BD0A
S1135410FEB5054602F02DFC20B105F1FF0002F0B7
S113542028FC08B90420FEBD2968DFF88803DFF8EA
S1135430804381420DD14FF480722946201D02F031
S1135440F5FB0021201D217006F002FE00286BD020
S1135450FEBD080F0D285ED1C1F3012000B9012063
S113546021F4407141EA0021201D296006F084FFE7
S113547000286ED1052004F125061821207431700E
S11354802A7804F1450702F003027A742868000AB6
S1135490C10001F0180171702A68920A02F0010239
S11354A072722868000B00F00700F0712868C0F3DE
S11354B0810002283874C4D1AA8800F04BF8F07532
S11354C0EA8800F047F830762A8900F043F87076CD
S11354D06A8900F03FF8B076AA8900F03BF8F076CC
S11354E0EA8A00F037F8B0772A8B0121201D06F0F4
S11354F06BFBF077EA8900F02DF838702A8A00F007
S113550029F830776A8A00F025F87077AA8A00F0C3
S113551021F8787095E70B2803D12846FFF706FF9A
S1135520FEBD45F27C20FEBD00F02DF901A901204D
S113553000F0FBF86946102000F0F7F800989E4947
S1135540019A0A6483185B1E01224B648A6400205A
S11355502270FEBD0021201D06F036BB10B5944C10
S1135560237813B942F2DD7010BDBDE8104005F098
S113557051BE2DE9F84306468D4D28780C469046D9
S113558010B942F2DD703CE0304606F046FDA8B3A7
S113559042F2DB7035E005F58277786839680028D7
S11355A008BF00290CD195F82610C908B6FBF1F202
S11355B001FB126111B142F2DE7022E03E6002E0B2
S11355C04118B14217D12118B1F5007F414694BF6B
S11355D0A146C0F5007928444A4600F58670C844BF
S11355E002F024FB78684E44A4EB09044844B0F567
S11355F0007F786002D100F045F810B9002CCAD1C0
S11356000020BDE8F2832DE9FC41694E054630785F
S11356100C46174604EB050810B942F2DD702CE085
S113562000F02DF801A900F072F800998D4223BF13
S113563001984218424545F26D201ED306F586783E
S113564041468020401E41F8047BFBD19CB14FF4BD
S113565000770020B4F5007FC6F8080142462846CA
S113566098BF27463946FFF784FF002804BF7D19F9
S1135670E41BEBD001E000F005F8BDE8F6816946D3
S1135680012052E010B54A4C002004F582725368A0
S11356904BB111681060506004F58672201DBDE89E
S11356A0104006F026BD10BD2DE9FF41404C0646D2
S11356B020780D46AF1910B942F2DD7024E0FFF7EF
S11356C0DEFF01A9052000F030F802A900F01FF860
S11356D000998E4223BF02984218BA4245F26D20C7
S11356E012D375B900200FE000980199301AB0FB6D
S11356F0F1F1201D06F037FD5FEA000803D101989F
S11357008619BE42F0D3404604B0BDE8F0811020B3
S11357100BE0E0B501A9FFF7B3FF6946FFF7F7FF18
S113572000990198FFF7C0FF0EBD10B549B3204A98
S113573002F1A40350B1012811D0022812D0032889
S113574016D0052816D0102817D01AE01078002893
S113575014BF002042F2DD700860002010BD5269C1
S11357600A60FAE75C6898684443A40A0C60F4E7AA
S11357701A68F5E7586820B1EEE75A68986842431A
S1135780EEE7042010BDE0B501A90520FFF7CDFF29
S113579069461020FFF7C9FF0548009A81699142C4
S11357A004D2019BB1FBF3F1C0F8AC1007BD0000BB
S11357B0B0EE010053454D43506401003EB502F084
S11357C057FE202801D001203EBD00F0DDFCDFF8AB
S11357D03C4A44F218102518284606F0CAFE70BB4D
S11357E0284607F011FC50BB694601A806F0FCFDF1
S11357F0009B019A0021002000F0E3FBF8B944F279
S113580018004FF48062A11C204402F00FFA2846CD
S113581007F0FAFB98B9009B019A44F2240021583E
S1135820012000F0CEFB50B94FF48462A11CDFF8D4
S1135830E00902F0FBF90120207000F0BEFC3EBD3F
S11358402DE9F84F07463C4602F013FA28B104F25A
S1135850FF34204602F00DFA08B90420F6E0DFF820
S1135860AC4944F2240044F21811251804EB010950
S11358703946002000F08AFB90B3002044F218035C
S113588020704FF480623946E01802F0CFF94846A0
S113589007F0BAFB0028E1D1AB88EA882968012027
S11358A0DFF86C694FF4846700F08BFB002800F08C
S11358B0BF80FF223946304602F05CFEDFF854090F
S11358C0012170600022B16040F21C413261301D40
S11358D000F049FC306000F038FA0028BED1ACE09A
S11358E03968080F0D2840F0A080786810F00F0F79
S11358F014BF00F00F060126C0F30348B8F1000FEF
S1135900C1F3012008BF4FF0010800B9012021F4C0
S1135910407141EA002139607968C1F30720002809
S113592021F47F4108BF012041EA002179603878E1
S113593010F00700D8BF45F2E4208FDDB8F1090F5D
S113594028BF45F2E5206FD20020207000F01CFC37
S1135950484606F00EFE002878D144F26A1020442E
S1135960002144F221128172A11805230022CB7078
S1135970C2720A703A7802F0070202703B68C3F3FD
S1135980C002CA753A68C2F30212521C42703B68E4
S11359901B0ADA0002F018020A76396844F2481247
S11359A0090B01F00701A1543B681B0C03F0010330
S11359B0C3703968490C01F001010171484607F0D0
S11359C023FB002842D1796844F2C01E54F80E002B
S11359D0BC46C1F3072A16FB0AFAC1F3072200FBEF
S11359E002F900224FEA4A0A10E004EBC20144F231
S11359F0580754F80EB0521C394407890BFB07F7BB
S1135A004F60408954F80E707843086042451FD2B5
S1135A100CEB82001AB1C188878807EB010A478919
S1135A205745E2D245F2E62010E045F2E0200DE0D1
S1135A303A46A11C304602F0F9F8002000F0EFFAD3
S1135A4020B901202070BDE8F14FB6E3BDE8F28F24
S1135A50EE8009FB06F6A5F804902E60C5F80880D0
S1135A601AE72DE9F84F5FEA0208DFF8A06744F26D
S1135A70B812054606EB02073C68009408BF0420F0
S1135A80B5FBF4F904FB195521D0327812B942F26E
S1135A90DD701CE044F21403BA68F45802FB049964
S1135AA00C4610E0B01C41195246404602F0BEF8C4
S1135AB0009A5544A4EB0A04D044954224BFAD1A7D
S1135AC009F101090020002C42F2040A0BD1BDE8BF
S1135AD0F28F484600F032FBF0B144F21400D9448E
S1135AE03158491C315056F80A1042F20200305C19
S1135AF0494500D130BBD7F808B0B9FBFBF218B167
S1135B00B1FBFBF0824207D0F8683969484382420E
S1135B10DFD342F2D870DAE742F2020B00203B688E
S1135B2006F80B0044F2181CB21C494606EB0C00A4
S1135B3007F0FCFA20B9012146F80A9006F80B1088
S1135B400028C4D10098621990422CBFA246A0EB51
S1135B50050AA7E72DE9F84F5FEA02080746DFF8D0
S1135B60AC5644F2B812AC58009408BF0420A146C5
S1135B70B7FBF9F904FB197747D02A7812B942F236
S1135B80DD7042E044F20803EE18326D914538BFEF
S1135B9045F2E32039D344F2B8142C19F368A2680F
S1135BA08A4602FB03991CE000980AEB070142F2C3
S1135BB008038842414634BFC41B5446E8192246B0
S1135BC01844E71902F032F87268AAEB040AA044F8
S1135BD0A218726000998F4224BF7F1A09F101094B
S1135BE00020BAF1000F04D10FE0F068D944401C42
S1135BF0F060B0683478484509D144B17068B8425F
S1135C00D2D000F00CF90028F3D0BDE8F28F44F2B2
S1135C10B8116A18D2F808B0B9FBFBF11CB1B0FB9B
S1135C20FBF081420DD0D06812695043814202D307
S1135C3042F2D870E9E7484600F080FA0028D4D14F
S1135C401CB100F0ECF80028DFD137B900200121A5
S1135C507060C6F808903170A6E745F2D120D4E709
S1135C602DE9F047DFF8A47544F2B8157C193A78A9
S1135C702569E3685D4312B942F2DD703AE009B97F
S1135C80002037E02368A268B0FBF3F60818401E32
S1135C9044F25801B6FBF2F9B0FBF3F07B58B0FBC9
S1135CA0F2F6A6EB0906761CB3FBF2F2914509D293
S1135CB045F2E3201EE0504600F05EF95FEA00087A
S1135CC002D1761E86B102E0504600F08DFACA4633
S1135CD0AA4509D2A0680AF1010900FB0AF000F004
S1135CE02DFA0028E7D0F2E7787810B100F02DF80B
S1135CF080464046BDE8F08744F2C0122DE9F041E9
S1135D00DFF808650025B7183078BC6879684C431B
S1135D1088B942F2DD7016E03868684300F00EFA84
S1135D2040B9284600F028F95FEA00081CBF28465D
S1135D3000F05AFA6D1CA542EED3707810B100F051
S1135D4004F880464046BDE8F081012067E1DFF8B1
S1135D50C82400201178002918BF00F060B87047EB
S1135D6038B5DFF8A8440020617809B1FFF7EDFFEA
S1135D7044F208012144002242F202050A706255ED
S1135D80CA6032BD002930B52BD0DFF8802444F23C
S1135D90B813D41850B1012811D0022811D0032807
S1135DA014D0052815D0102818D01AE0107800282F
S1135DB014BF002042F2DD700860002030BD0020D6
S1135DC0FAE700F010F8AD0A0D60F6E723680B60FF
S1135DD0F3E7A268206842430A60EEE700F003F8A4
S1135DE0F2E7042030BD2569E368A26820685D43BA
S1135DF0554345437047DFF8141444F2F8120A443B
S1135E001078002800D0704710B5002342F2020435
S1135E1042F204000B550B50891C516010BD2DE952
S1135E20FE4FDFF8E84344F2080044F2B8112518A5
S1135E306618D5F808A03369F068B2684343019343
S1135E400020287068683168BAFBF2F8884207D0ED
S1135E5042F20803091A2344FF22184405F0F2F918
S1135E6044F2181301225146E01807F0C1FA002841
S1135E7042F2DB7B48D1306842F2080162180146E5
S1135E8000FB0AF000F052F8002841D0404608F127
S1135E90010800F0A9F9E86805E0404600F0A4F91B
S1135EA0E86808F10108401CE860019988452DD292
S1135EB0B76807FB08F9484600F040F90028EFD11D
S1135EC0BAFBF7F0474344F21810204449460090C7
S1135ED0AAEB0702521C07F08BFAA8B957453168A0
S1135EE018D200980B46A21C394607F01FF9C0B916
S1135EF03068A21C014600FB09F000F017F880B9D5
S1135F007F1C09F10109E9E7584601E042F2D87023
S1135F10BDE8FE8F42F20800221801FB0AF000F0EF
S1135F2005F80028F4D05845B7D1F1E72DE9F0473A
S1135F30904644F2B815B54E08EB010972590C4667
S1135F40B0FBF2FAFFF757FF38460CE044F21810A2
S1135F503B4642465146304407F054F950B9B844E0
S1135F60E41B0AF1010AC84504D27759BC4238BF80
S1135F702746EBE7BDE8F08710B50446FFF73BFF83
S1135F802146A648BDE8104007F0D4B910B50C4628
S1135F9020B9A34A201D4FF47F7103E09D4A201DC0
S1135FA040F21C416368934204BFA268012A06D1EF
S1135FB000F0D9F82168884201D1012010BD0020E9
S1135FC010BD2DE9F04782460F46904D9146984604
S1135FD04FF40051A81C07F04BFA5FEA0A000CBF0B
S1135FE04FF480644FF48464002601E04744761C37
S1135FF04E4511D244F2B810AA1C285821467843C1
S1136000FFF72FFD0028F1D1A91C5046FFF7BEFF72
S11360100028EBD0002000E00120BDE8F0872DE946
S1136020F84F804D84B06A8A2B8A0192019A0293B8
S1136030012A06D953437C4AD2F808A0B3FBFAFAE2
S113604001E04FF0010A8DF80000774CF8B9002602
S1136050B146B346DDF80480029FC14558D220689A
S1136060724A4FF4806100FB0BF0FFF7FAFC002842
S113607051D166484FF480622946801C05F0ECF843
S1136080002804BF09F10109BB44E6D043E0D5F878
S11360900C90A0685E4D45F2E22703954FF48468A6
S11360A0B9FBF0F440F21C41281D00F05CF82860B4
S11360B0002503E028196D1CFFF75EFF5545F9D351
S11360C00024DDF804A0029D039EDFF85CB1544572
S11360D032D2DBF800003246414600FB09F0FFF7FC
S11360E025FF40B99DF80000012802D10021474A4C
S11360F05170002705E0DBF80800B9FBF0F0FFF76A
S11361003BFF641CA944E2E7002005B0BDE8F08F22
S1136110CDF8048002E0CDF8048001260297002423
S1136120002EA14645F2E12703954FF48068EBD099
S11361304FF47F713E48B8E73846E6E770B53D4B0B
S113614001461C68324B00220020B1FBF4F11C69AB
S113615000E0521CA24205D203EB82052E6AB14232
S1136160F7D1012070BD3EB504460D4601A805F0E7
S1136170F9FC2A46214601A805F0FAFC694601A863
S113618005F00BFD00983EBD70B5204C44F2180399
S1136190E518FF224FF48061284602F0EBF9204E07
S11361A0012344F21C006E60AB604FF47F71204405
S11361B0FFF7D9FF2860002070BD1CB569464FF475
S11361C0807001F072FC70B9009A14201A4942439D
S11361D0154803680A44D3600469C16880684C4365
S11361E044439460002016BD09490A69B2F5807FD2
S11361F00AD201EB820210620869044A401C086159
S1136200012151700020704701207047BCA5010096
S1136210D4E9010054424244C4E50100D4E601003B
S11362204243464ED4E5010074E70100BEA50100D7
S1136230D8E501007CE70100C064010030B50446E4
S11362400420002C85B01EBFDFF8982511780029A2
S113625050D023681D0F0B2D4CD1C3F303610129CA
S113626002F23C450DD0002944D1204602F0A0F9A9
S113627010B1002129703DE0A26801236A602B70EF
S113628038E02978002935D013F00F0F32D10021DE
S113629001200491039104A900F068F950BB03A9FB
S11362A0102000F063F928BB01A9032000F05EF977
S11362B000BB6C68049D694602A802F0B0F9651938
S11362C0C0B9009A0399A418A14213D3019B5B1E81
S11362D01D420FD10199284600F0B6F810B942F2D8
S11362E0DB7007E0029A0099284600F017F808B915
S11362F000F052F805B030BD0020DFF8E8148860E3
S1136300704710B51346DFF8DC44227802B998E0F0
S11363100A461946BDE8104007F0DBB82DE9F843FA
S11363208046DFF8C05428780C469146D5F8287486
S113633010B942F2DD702DE0B7F5806F88BF4FF4DD
S1136340806734B3A8686968002804BF0029C5F8C9
S1136350048002D04118414516D121188F422CBF28
S113636026463E1A284400F10C01894504D03246E1
S113637049460C3001F05AFCA868A41BB144B0444F
S11363803018B842A860DCD100F006F80028D8D054
S113639000E00020BDE8F283F8B5DFF84864ADF50D
S11363A0806DB5680024DDB177687460B4602A46F6
S11363B006F10C01384607F00CF9040010D12A4606
S11363C06946384607F085F8040009D12A4669462B
S11363D006F10C0004F040FF10B142F2DF7000E05F
S11363E020460DF5806D01B0F0BD38B50D4604466C
S11363F0DFF8F013087810B942F2DD7032BD294697
S1136400204607F07EF840B92946204600F01CF8E3
S113641010B942F2DF7032BD002032BD10B5DFF892
S1136420C443207800B90CE007F0ACF840B9D4F8C4
S1136430241400F009F810B942F2DF7010BD0020F6
S113644010BD42F2DD7010BD70B5ADF5806D05462E
S11364500C4610E0491CB1EB960F0AD250F8042BFD
S113646012F1010FF6D0002000E001200DF5806D3F
S113647070BDA41B7519002CF7D04FF48066B4F5D9
S1136480806F6946284698BF2646324607F021F8B1
S113649068460021DFE72DE9F8430646042401F0AD
S11364A0E8FB00285FD006F12B0001F0E2FB002896
S11364B059D03068DFF82C5305F5826805F20C4793
S11364C0DFF82493000F0C281AD12C214046FDF745
S11364D0B1FD4FF480300121B86005F586600222D9
S11364E0017042700323052106228370C470017178
S11364F0314642714046C7F8049000F0D5F813E0E5
S11365003068010F0B2904D13046FFF797FE04468B
S113651029E0484527D12C214046FDF78BFD2C224C
S11365203146404601F082FB00203C7B2870D7F8BE
S1136530108005F58360AD4E01F02CFF204601F07C
S1136540E3FE3146204601F017FF4246314620461D
S113655000F034F8396805F5846006F08DFF040016
S113656004BF012028702046BDE8F28321B39D4A70
S113657002F2244350B1012811D0022814D0032878
S11365800FD0042814D0102814D015E01078002857
S113659014BF002042F2DD70086000207047002024
S11365A0FAE75A680A60F8E71B689B0A0B60F4E78D
S11365B09868F1E71A68F5E70420704770B58CB065
S11365C004460D46164607A891A1142201F02EFB9D
S11365D01C216846FDF72EFD00960821009B0191C1
S11365E083490022ADF80820B1FBF3F38DF80A20AB
S11365F00A46039313460099B2FBF1F1009A049101
S113660002218DF818106946B3FBF2F205920022BC
S113661007AB8DF81920ADF81A2053F824002A4648
S113662007F03AF90CB070BD2DE9F0430746714804
S113663089B0884616460478457804A879A11422BE
S113664001F0F4FAE946002000210022002389E841
S11366500F004FF4801003900EB9012201E0032EC5
S113666005D12946204601F069FE002019E0012EDB
S113667008BF019702D0022E08BF0097CDF808800A
S113668004A8694650F8240007F06AFAB0F5C87FF8
S1136690F6D030B100222946204601F04FFE42F6E2
S11366A0CD1009B0BDE8F08370B50B78524A03F001
S11366B00F0302EB8304E56D85610B68C3F30313D9
S11366C002EB8304256CC5610B68C3F3032352F802
S11366D023204A4B42610C68240B04F00F04012C64
S11366E002D0022C10D012E0012202744269B2F5E9
S11366F0803F98BF102205D99A4202D218234374CE
S113670036E02022427433E00223037430E0002296
S11367106024027400F12102D47145699D4213D2B0
S11367201823422443745471C369B3F5803F28BFCE
S1136730D82316D2B3F5805F08BF202417D0B3F551
S1136740004F15D152230CE0202412254474132346
S11367500026157053705671C369B3F5803F02D398
S1136760DC23937104E0B3F5805F01D1212494719B
S11367700A68120D02F00F02521E032A0BD8DFE83A
S113678002F002040608012206E0022204E00322C9
S113679002E0042200E0002202720A68120C02F0F5
S11367A00F02012A06D004D3032A03D038BF0222E1
S11367B000D3002242720A68C2F303627AB10979F3
S11367C001F00F01012904D009D3032905D002D314
S11367D005E00B4904E00B4902E00B4900E00B49DA
S11367E0C16070BDAC6501006B736563005A6202E1
S11367F000CA9A3BC4690100386501000100000128
S113680080969800404B4C0080841E00002D31017E
S113681000000000004039400080394000C0394089
S113682000003A4000000000004039400080394038
S113683000C0394000003A40F0B504460420002C62
S113684085B01FBFDFF8D85505F5427631780029A9
S113685069D02268130F0B2B65D1C2F303610129A0
S11368600DD000295FD1204601F0A2FE10B1002115
S1136870317558E0A2680123B261337553E0317D6C
S1136880002950D012F00F0F4DD1002101200491A6
S1136890029104A900F027FA002844D102A9022099
S11368A000F021FA00283ED10298DFF878154FF065
S11368B0FF34884201A928BF0294052000F013FA8E
S11368C088BBB769049E694603A801F0A8FEBE19F7
S11368D048BB009A0299BF18B94224D3019B5B1E9E
S11368E01E4220D195F8B002019901280198019B1C
S11368F0B2FBF1F100FB112218BF00241000224664
S113690018BF01204118B6FBF3F000F061FA10B98A
S113691042F2DB7007E0039A0099304600F03DF93B
S113692008B900F08FF905B0F0BD3EB5DFF8F044CA
S113693040F2FF1104F538750222A98420466A84C6
S113694007F096FCE8B9204608F0E5FEB0B901A9C5
S113695040F2211001F0A9F898B900F013F880B9B9
S1136960019B1421DFF8C0242D684B43D118CD605E
S1136970009A8A60012184F808133EBD002384F83C
S113698008333EBD6946204658E27FB5054601F00E
S113699070F968B1E81D01F06CF948B12868000F7E
S11369A00B2803D12846FFF747FF02E00C2802D04A
S11369B0042004B070BDDFF868444FF449712046E8
S11369C004F53876FDF736FBDFF8600420600E200E
S11369D009F08AF8DFF858140968C1F30241491C28
S11369E0B0FBF1F06060DFF84C042168026891426A
S11369F004BF002380F8D43040F2FF100221B08499
S1136A007184286804F12C01020B000A02F00F02C1
S1136A1000F00F000A7048706868C20C02F00102AE
S1136A200A7341F28832C30D000E00F0030003F034
S1136A30010301284B7340F6C41306D002D3032884
S1136A4008D005D344F6206005E042F2107002E05D
S1136A50104600E0184648606868C0F3005000B172
S1136A601A468A606868800C00F00100887320462A
S1136A7008F051FE00289CD129682046090E01F037
S1136A80070108F060FE002893D103A9FFF77BFFFC
S1136A9000288ED102A940F2211001F006F8002846
S1136AA087D1029B1421DFF8802336684B43D11829
S1136AB0CE60039A8A602968CB071DD5C1F3011201
S1136AC0080C8DF8022000F003000A0D8B08C90899
S1136AD001F001018DF8030002F0070203F0010345
S1136AE08DF804108DF8012069468DF80030204699
S1136AF008F028FF002802D1012184F8081358E780
S1136B002DE9F84FDFF81893824609F542760C46D2
S1136B103078904610B942F2DD703CE04FEA5A25D5
S1136B2009F54970AAEB45254FEA5A2700900FE072
S1136B3000985A46A4EB0B044119404601F076F83C
S1136B405D44B5F5007FD84424BFA5F500757F1CCE
S1136B5004B3707878B1706887420CD3411C8F42BB
S1136B6009D2AAEB40256019B0F5007F94BFA34673
S1136B70C5F5007BDCE700200099707001233A46DC
S1136B80484608F0FFFD002802BF012070707760BE
S1136B90E9D000E00020BDE8F28F2DE9F84FDFF8DE
S1136BA0809209F542773B7813B942F2DD703EE0FA
S1136BB082464FEA5A26AAEB46264FEA5A240D4645
S1136BC0904613E009F2245041465A46801901F0D8
S1136BD02DF8F9685E44B6F5007FA5EB0B05D844A3
S1136BE05944F96024BFA6F50076641CF5B1387ADF
S1136BF018B3386984421CD3411C8C4219D2AAEBC5
S1136C004026F868B04209D000F09AF80028EED087
S1136C100DE000200121F8603C613972A819B0F53B
S1136C20007F94BFAB46C6F5007BCBE70020BDE8F0
S1136C30F28F00F085F80028F9D1002EE9D042F255
S1136C40DE70F4E7764A002092F81013002918BF8A
S1136C5000F076B8704778480021C17101700020B7
S1136C60704770B506466E4D95F808030C4610B98A
S1136C7042F2DD7070BD284608F05DFD10B142F2AD
S1136C80E07070BD94B105F53870A419C16900684D
S1136C90641EB4FBF0F2B2FBF1F2B6FBF0F0B0FB11
S1136CA0F1F12846BDE8704008F0B0BD70BD38B5BC
S1136CB05B4C04F53F75287B10B942F2DD7032BDA0
S1136CC0204608F038FD10B142F2E07032BDFFF703
S1136CD059FE38B900982968B0FBF1F2002120462A
S1136CE008F094FD32BD38B50C0027D04C4D30B1BE
S1136CF001280ED002280ED005281BD01EE095F8DE
S1136D000803002814BF002042F2DD702060002038
S1136D1032BD0020FAE76946284600F08FF80028C3
S1136D20F6D1009AD5F8E012A1FB0201800A40EAEC
S1136D308150EBE7D5F8E0222260E8E7042032BD79
S1136D40F8B5374C204608F0F6FC10B142F2E0707A
S1136D50F2BD04F5447504F2245668684FF0FF3719
S1136D60B0F5007F0AD094F8B0120129C0F5007183
S1136D7030440CBF3A46002204F064FA94F8B0128E
S1136D8000202870A868012918BF00273A4601216D
S1136D9000F01EF810B942F2DB70F2BDAA680123BC
S1136DA03146204608F007FD88B9AA6804F54977FA
S1136DB001233946204608F0E5FC40B94FF400723F
S1136DC03946304604F048FA08B142F2DF70F2BDA9
S1136DD02DE9F84305460C461646DFF8448017E0D3
S1136DE008F549793B462A464946404608F0CAFC1C
S1136DF040B900E0001DB0EB472F08D259F8041B3E
S1136E00B142F7D0002000E00120BDE8F283E41B8A
S1136E10002CF9D0012C8CBF01272746E0E70000A5
S1136E209C94010001004000C064010000402C401B
S1136E3024C00F40309D0100A597010000F5397072
S1136E40027F072A14D8DFE802F0040808130B0DA8
S1136E500F11006808600020704742680A60FAE772
S1136E608068F7E7C268F9E70069F3E74269F5E784
S1136E7004207047F0B504460420002C85B01FBFE1
S1136E80DFF8182502F1BE05A97D00296AD0236820
S1136E901E0F0B2E66D1C3F30361012902F1E8062C
S1136EA00DD000295ED1204601F082FB10B10021F3
S1136EB0317057E0A26801237260337052E0317878
S1136EC000294FD013F00F0F4CD100210120049161
S1136ED0029104A900F0CDF9002843D102A90220AF
S1136EE000F0C7F900283DD10298DFF8B4144FF040
S1136EF0FF34884201A928BF0294052000F0B9F9A3
S1136F0080BB7768049E694603A801F088FBBE191C
S1136F1040BB009A0299BF18B94223D3019B5B1E60
S1136F201E421FD12878019BC10701990198B2FB29
S1136F30F1F158BF002400FB11221000224618BFB3
S1136F4001204118B6FBF3F000F000FA10B942F248
S1136F50DB7007E0039A0099304600F0EBF808B9BB
S1136F6000F03DF905B0F0BD38B5DFF830442046F7
S1136F7007F06EFB60B92046C83409F077FE28B9E3
S1136F8000F079F820B900F07BF832BD00232373B8
S1136F9032BD7CB5044600F06CFE68B1E01C00F024
S1136FA068FE48B12068000F0B2803D12046FFF784
S1136FB061FF76BD0D2801D0042076BDDFF8DC53D7
S1136FC0F0212846FDF736F8DFF8D80328600E20B4
S1136FD008F08AFDDFF8D0130968C1F3C221491C07
S1136FE0B0FBF1F06860DFF8C403296802689142DD
S1136FF005F12C0104BF002380F808332068020B3C
S113700002F007020A70C20D030AC60C000E00F05B
S1137010030003F0010302F0010201284B7006F0A3
S113702001064A730E7341F2883240F6C41306D047
S113703002D3032808D005D344F6206005E042F2C9
S1137040107002E0104600E0184648602068C0F363
S1137050005000B11A468A60284609F007FE05F17F
S1137060C80428B900F007F820B900F009F876BD83
S11370700023237376BD69464FF4907000F015BD6C
S1137080009B1421DFF8282365684B43D118CD6099
S113709022688A600121217370472DE9F84FDFF8D7
S11370A0FC92824609F1D4060C463078904610B919
S11370B042F2DD703CE04FEA5A2509F1F000AAEBF8
S11370C045254FEA5A2700900FE000985A46A4EB52
S11370D00B044119404600F0A9FD5D44B5F5007F5D
S11370E0D84424BFA5F500757F1C04B3707878B12B
S11370F0706887420CD3411C8F4209D2AAEB402509
S11371006019B0F5007F94BFA346C5F5007BDCE7AA
S113711000200099707001233A46484609F079FB33
S1137120002802BF012070707760E9D000E00020E1
S1137130BDE8F28F2DE9F84FDFF8609209F1D4072A
S11371403B7813B942F2DD703EE082464FEA5A269C
S1137150AAEB46264FEA5A240D46904613E009F559
S11371603C7041465A46801900F060FDF9685E445F
S1137170B6F5007FA5EB0B05D8445944F96024BF4C
S1137180A6F50076641CF5B1387A18B33869A042C4
S11371901CD1411C8C4219D2AAEB4026F868B0429B
S11371A009D000F089F80028EED00DE0002001217C
S11371B0F8603C613972A819B0F5007F94BFAB4602
S11371C0C6F5007BCBE70020BDE8F28F00F074F831
S11371D00028F9D1002EE9D042F2DE70F4E76F4ABC
S11371E0002092F8DC10002918BF00F065B8704741
S11371F070480021C17101700020704770B50546C8
S1137200664E96F8D4000C4610B942F2DD7070BD9B
S1137210304609F0F6FA10B142F2E07070BD54B194
S1137220690A65196D1E3046C1EB5522BDE87040F0
S1137230521C09F037BB70BD38B5584C04F1C80571
S1137240287B10B942F2DD7032BD204609F0D9FA2C
S113725010B142F2E07032BD28686968A1FB0023D6
S113726020460021520A42EAC352BDE8384009F0E0
S113727019BB10B5F1B1504A30B101280DD0022824
S11372800DD0052814D015E0107B002814BF002071
S113729042F2DD700860002010BD0020FAE7146897
S11372A05368A3FB0423920A42EA83520A60F2E77A
S11372B05068EFE7042010BD2DE9F041374C20461B
S11372C009F09FFA10B142F2E0703DE004F1E005EC
S11372D004F53C76286804F1BE074FF0FF38B0F59A
S11372E0007F09D03978CA07C0F5007130444CBF1B
S11372F04246002203F0A6FF39780020B877CA0777
S113730058BF804668684246012100F01FF810B952
S113731042F2DB7018E06A6801233146204609F026
S113732095FA88B96A6804F1F007012339462046C2
S113733009F06FFA40B94FF400723946304603F051
S11373408BFF08B142F2DF70BDE8F0812DE9F8430C
S113735005460C461646DFF8448017E008F1F009AC
S11373603B462A464946404609F053FA40B900E0F4
S1137370001DB0EB472F08D259F8041BB142F7D0D7
S1137380002000E00120BDE8F283E41B002CF9D0CA
S1137390012C8CBF01272746E0E70000309D010047
S11373A00100400000002C4024C00F409C940100C8
S11373B0C0640100059E0100F89D010041688268D7
S11373C08A4209D2891A826641600FF2D52101608E
S11373D0012282600020704742F2787070470FF2F9
S11373E0090101600020704710B5416ADFF84C4480
S11373F04A898282CB689B1E43604A68A24202D1BA
S1137400097A022902DB42F2757010BD0FF20902FB
S11374100260002010BD0000416A43684A6882612E
S11374200A68D21E9A42826002D342F27670704792
S11374300989002908BFFFF7C1BF42F2777070477E
S1137440F8B50446DFF8F863B4F85A30376804F145
S11374505C05626A6968D7F808C01806000F1B0A41
S113746043EA00232868E047A0B9306801698847E7
S113747080B9616A102204F11C0004F079FB00F069
S113748044F80098A968884200D043E00FF2112024
S113749020600020F2BDF8B504461022616A04F1B0
S11374A01C00DFF89C6304F15C0504F061FBB4F894
S11374B05A303768626A10211806000F1B0AD7F881
S11374C008C043EA00232868E047E8B92868103078
S11374D02860686810381028686088BFDFF8640383
S11374E010D810B1DFF860030CE0306801698847F8
S11374F050B900F00AF80098A968884200D009E061
S11375000FF29D1020600020F2BD694604F11C00BA
S113751004F043BB42F27A70F2BD10B5044604F1A4
S11375201C0004F01FFB216E11292CBFDFF814038B
S1137530DFF814032060002010BD38B5C04B426E44
S11375401C68016EC06DE568A84732BDB0F85A20CA
S113755013061B0F110AD20741EA03214CBF08236B
S11375600423042901D00420704700F16002C16D96
S1137570B64800F083BC70B5044642F27F76E56DF0
S1137580284600F076FB80B1606E04F11801A8472C
S11375900646012E03D12046BDE870400EE7022EB8
S11375A003D100F0C3F8002070BD304670BD10B5A3
S11375B0436800F15C02516881608B4202D242F25E
S11375C0767010BD147AE30707D512688469A24265
S11375D003D111B1C160002010BD90F85A10CA0740
S11375E002D542F27C7010BDBDE81040E6E638B525
S11375F0B0F85A108A071FD40B061B0F0A0AC907D2
S11376001CD542EA0322083A0ED0521E04D0F73A9F
S11376100ED0521E04D00FE0BDE83140FCF7D5BFB8
S1137620BDE83140FDF7D6BBBDE83140FEF771B887
S1137630BDE83140FEF760BB042032BD42EA0322BC
S11376407F4B1C685C3041680068A569A84732BD5F
S11376501CB50446B4F85A000106090F000A40EAB2
S11376600120092803D1E06DFCF793FD16BD08281D
S113767003D1E06DFDF7CCFE16BD01290ED169469C
S113768000F013FA58B9E06D009C6D4A1421936818
S11376904C4319190A691369984716BD042016BD8D
S11376A0F8B5044604F15806616A304610225A259A
S11376B000F0BCFA0120375C401CED191028FAD305
S11376C0307805F0FF05A84202D042F27970F2BD8D
S11376D0717842F212700A2925D8DFE801F01A06FF
S11376E00A0E26121A16261C20002046BDE8F24077
S11376F05DE72046BDE8F2400FE72046BDE8F240D2
S11377001BE72046BDE8F24035E72046BDE8F240DD
S11377106DE70020F2BD2046BDE8F24098E7204620
S1137720BDE8F24012E742F27B70F2BD10B5484C5E
S113773070212046FCF77EFC464A0020226010BDE2
S1137740F8B506460C4600200027434DA74218D042
S11377502969E01BC1F1100109E080B12B69F25DD8
S11377607F1C491E401EEA542A69521C2A610029C2
S1137770F3D10020286100F005F810B9E6E742F2E1
S11377807D70F2BD80B53248334A4262C26800213E
S11377902AB1036993420AD05B1C036101E0826E43
S11377A01AB901688847014601E0521E82660846FC
S11377B002BDF8B5224C20680169884700283CD1F5
S11377C0234F97F85900042823D107F15C052E684C
S11377D0304600F04EFAC8B10020FCF7FFFB97F8E2
S11377E05A00810710D568686861616860B10A68E9
S11377F0904222BF4968491C814201D20420F2BD53
S113780080F3088880F30988A868B04742F27E7044
S1137810F2BD08280FD10220FCF7E0FBBFF34F8F25
S11378200E490F480A6802F4E06202430A60BFF39B
S11378304F8F00BFFDE742F27B70F2BD53544D50B1
S113784010640100977400004174000000401F4060
S1137850A89C0100DF7300001C9D01000CED00E0FA
S11378600400FA057CB50C00164605461A4601D1FB
S1137870002076BD100A10F00F0002D001280AD0B3
S113788019E06A46284600F0BAF8B0B900F0A1F849
S11378906568A84776BD6B46284600F0D4F860B901
S11378A00098A64A03692846996951605B68324684
S11378B02146984776BD42F2D87076BDF8B50C00E3
S11378C0174606461A4601D10020F2BD100A10F0F0
S11378D00F009A4D02D0012816D02CE0304600F05B
S11378E0F9F840BB6A462146304600F088F820BBD0
S11378F0009B214630463A46DC68A668B047B8B9D2
S11379000099CA68136911E06B46304600F09BF891
S113791098B900983A4603693046996969609B684A
S11379202146984720B900990A6953692B60F2BD32
S113793000212960F2BD42F2D870F2BD7CB5130A71
S113794013F00F0305460C4642F2D87602D0012B01
S113795014D024E06A4600F052F8E8B90099CA68E5
S1137960506998B12146284600F0B4F8B8B9009A95
S113797021462846D3685C69A04776BD6B4600F073
S113798062F848B900980169CA680AB9662076BDE8
S113799021462846904776BD14B9002076BD30466E
S11379A076BD7CB50C000546164601D1002076BD97
S11379B000F090F810B142F2D87076BD6A462146C4
S11379C0284600F01CF818B900F003F8E568A84749
S11379D076BD009B214628463246DC68704710B5C8
S11379E0564C206810B180470021216010BD10B5AD
S11379F0524C606810B180470021616010BDF0B541
S1137A0016000D4642F2D8771FBF4D494A683260CE
S1137A10002D16D001E01033336033688BB11A683F
S1137A20002A04BF5C68002C01D1D96849B1904296
S1137A3024BF59688142EED32818401E814228BFD2
S1137A4000273846F0BD002B42F2D87CF0B506463C
S1137A5017461FBF3A4882681A60002923D002E003
S1137A6005F114041C601D68EDB12A68002A04BFE6
S1137A706C68002C07D1A868002804BFEC68002CAF
S1137A8001D1286978B19742EAD1AA68E868002749
S1137A90A0FB0245701847EB07018D4203D301D8C0
S1137AA0844200D3BC466046F0BD70B50546042050
S1137AB0002671B1224A946801E0761C143444B162
S1137AC0236833B12269002A03D09D42F5D10E60A8
S1137AD0002070BDF0B50918194B491E00225F68DB
S1137AE0DC68256905EBC20606F17C041601BD5964
S1137AF066682468AC4208BFAE4203D0864228BF01
S1137B00A14204D2521C012AEAD90020F0BD01206E
S1137B10F0BD70B50A4D6E6803E0006800B180479F
S1137B201036F0680028F8D1AD6803E0096801B1A7
S1137B308847143529690029F8D162BD949401005D
S1137B40106401000246012000E0491E21B112F830
S1137B50013BFF2BF9D0002070470000F0B506462A
S1137B6004240D46002EA3B018BF002D56D0382192
S1137B70284605F07DFC38224323AA708120EB704F
S1137B806621287000205522E871102329716A713A
S1137B900EA8AB7109F0ACF804003FD10020214FCE
S1137BA08DF83B000EA9384609F034FA040035D1AB
S1137BB0102205F10801384609F05CFA04002DD1C1
S1137BC00D210AA8FCF736FA06A809F0A5FA05F172
S1137BD00801802206A809F0B3FA102005F1280153
S1137BE005F118020023059006A8049110210392C0
S1137BF00AAA019300930D23029609F084FD0A4911
S1137C00802206A809F09CFA102005F108030090D0
S1137C1005F10802012106A809F0DAFB204623B089
S1137C20F0BD00BF00C00C40AB89DCFE4AB10000CF
S1137C3011F8013B521E00F8013B1CBF11F8013B37
S1137C40F8E7704738B504460D460020FCF7C6F93E
S1137C50524800210560524A44601160036883F36E
S1137C60088883F3098840688047BDE8314000F004
S1137C709EB800281CB51EBF10F1010F4949884267
S1137C8001D1002016BD6A4602210024FFF7B7FE89
S1137C9020B90098017ACA0748BF0124204616BDBE
S1137CA010B50246404900204B6800E01033D96803
S1137CB061B11C7A04F01104112CF7D119689142B6
S1137CC0F4D25C68641C9442F0D3012010BD4FF4DC
S1137CD07A7070B5344C0026E1680A6902F18C05AB
S1137CE0FBF73AFA00F0C2FB98B9FFF7C2FF80B184
S1137CF0E068016991F8AA20D00703D4002100208C
S1137D00FFF7A0FF6E8A4FF6FF70864208BF41F26C
S1137D108836304609F034FD206218B90021BDE8E8
S1137D2070408FE770BD38B51F4C206A0169002987
S1137D301EBF096800298847226A506900281FBFAE
S1137D400168002910468847206901688847256A28
S1137D50206941688847EA68D1680029F8D0284634
S1137D608847F5E710B500F03DF800F0B8FB0E4C7D
S1137D70E068016888470020FBF7E2FAFBF7B4F9F2
S1137D80206801688847E26850688047FFF79FFFD2
S1137D90FFF7C9FF00F00BF8002010BDE4860100D6
S1137DA008ED00E0314E010010640100FEE70120FF
S1137DB080F3138830BFFBE70A0018BF012202607A
S1137DC0704772B60268521C026062B601680029EC
S1137DD0FCD10120704772B60168491EFFE70160BB
S1137DE062B6704772B600200B49086062B67047ED
S1137DF072B609480168491C016070470648016869
S1137E00022903D20022026062B6704703685B1E37
S1137E100360704700000000709301002DE9F041F9
S1137E20FBF755FB8046784C11272046002122465B
S1137E30E7FB08010023754F002509F0FFFC401EF5
S1137E404600786042F2107271480021E2FB08019A
S1137E502246002309F0F2FC25223018E2FB0845F3
S1137E60401CB860684A00232046294609F0E6FC15
S1137E703618761CFE600020BDE8F081002B2DE949
S1137E80F04104460E4690464DD0042B02D1B00971
S1137E90800101D0042047E05C4F387830B9204697
S1137EA0FFF7BCFF00283FD1012038706421204631
S1137EB000F072F8002837D14FF4007506F03F0641
S1137EC0A5602069000C0004206121697868BA6803
S1137ED0000300F47040C2F30B02104301434D4809
S1137EE021614D49A16006436660D8F800202262F2
S1137EF06421204600F050F8B0B92068810548BFDD
S1137F0044F6E96010D46421204600F045F850B9E5
S1137F10A560204600F065F84FF48060642160603D
S1137F20204600F039F80020BDE8F081F8B5054698
S1137F300E46144673B3042B02D1B009800101D05C
S1137F400420F2BD314F387828B92846FFF766FF80
S1137F5008BB012038706421284600F01DF8D0B910
S1137F604FF4007006F03F06A860284600F039F888
S1137F703F210120A96064216E602863284600F037
S1137F800BF840B92868810502D544F6E860F2BDD3
S1137F90286C20600020F2BD2DE9F04782460F4690
S1137FA04FF47A700026FBF7D7F8A0FB078901FB92
S1137FB00799FBF7C7F804460D46DAF80010C80520
S1137FC00CD5002FF9D0FBF7BDF8001BA94149459A
S1137FD0F3D301D84045F0D344F6EB663046BDE810
S1137FE0F08701696FF315310161084902694B6833
S1137FF0C9681B0303F47043090401F47C110B43A7
S11380001A4302617047000000CA9A3B6093010062
S11380100065CD1D0000773E3F00FFFF0A484FF08A
S1138020FF31016041608160C16001614161816132
S1138030C1610648016041608160C16001614161C4
S11380408161C1617047000080E100E080E200E0EE
S113805000F01F02DFF8B434000A914003EB800003
S113806030B5032595400468AC432143016030BD1D
S11380702DE9F84F884641F2F1044046A246DFF864
S113808090B4274608F1500902F015F938B1D9F82F
S113809010A0D9F81CB0D9F81470D9F81840DFF83A
S11380A074040168C1F30220072808D0DFF86824AB
S11380B01068C00203D4D8F84010CA052FD5D9F8E7
S11380C0000000282AD0DFF8540400218161DFF881
S11380D05014C1F818A010224261DFF848244F61FF
S11380E0012353620025056101270C6100235760B9
S11380F00125C3600027CC60956087608C60D560E3
S113810047604C60156198F80C30032B18BF012BA5
S113811071D110230360C1F800B015606BE0D9F889
S11381200010D9F80400DFF80054DFF800640029D7
S113813008BF002835D018B106213160C5F800A069
S1138140D9F8000018B101223263C5F830A011201B
S11381500121706301206F63B163AC63F063EC636E
S113816031642C6470646C6498F84510082907D154
S113817070626C6230622C62F061EC61B061AC617F
S113818098F80C00032818BF012803D11120F062CD
S1138190C5F82CB0404602F095F810B10120B06249
S11381A0AF62D9F80810D9F80C00002908BF0028DC
S11381B021D018B106217160C5F804A0D9F80800CF
S11381C018B10421B162C5F810A011200121B062D8
S11381D0AF6271626C6231622C62F161EC61B16117
S11381E0AC6198F80C00032818BF012803D11420AF
S11381F07061C5F814B0BDE8F18F0000F0B5DFF888
S1138200303300211960DFF82C4341F2F10500F10D
S1138210080C2560DFF820635960DFF8207365607F
S11382209960A560D960E56019612561596165614E
S11382309961A561D961E5619CF8001029B1012912
S113824004BF9CF81910102910D100219967A56763
S1138250D967E5673960356079607560B960B56084
S1138260F960F560396135617961756100218E4687
S1138270D9642830E564C3F850E025659965A5659F
S11382809CF80010B9B959656565C3F824E06562C6
S11382909962A562C3F82CE0E56219632563C3F80B
S11382A034E065639963A563C3F83CE0E56319644E
S11382B0256402780AE0012908D1C7F820E04FF2CA
S11382C0F1023262C3F848E0A564027AD2B2521EC7
S11382D0032A9B489B4913D8DFE802F002060A0EE2
S11382E006220A600560F0BD06234B604560F0BDC0
S11382F006228A608560F0BDC3F844E06564F0BD81
S1138300C7F824E07562F0BD401E03288E4914D8D6
S1138310DFE800F002060A0F086840F0030006E0F8
S11383200A6842F00C0207E0086840F03000086078
S113833070470A6842F0C0020A607047401E032872
S1138340824918D8DFE800F0020B0D104FF40050FA
S1138350002A0A6814BF22EA0000104307E0402004
S1138360F6E708207A49F3E701207A49F0E7086044
S11383700020FAF7FABE70477748784B0268B3FBDF
S1138380F1F1491E890622F0E05201F0E0510A435E
S11383900260704770B500787149634C634D6B4B54
S11383A045F20902401E03285DD8DFE800F00216FA
S11383B02C44042601202E602260EE60E2600860F6
S11383C0AE600526A2606E606260586840F400509A
S11383D05860196841F4005113E0042004266863CE
S11383E000206263EE63E2630861AE630526A26364
S11383F02E632263586840F040005860196841F0C9
S11384004001196070BD574807230360564B1A603A
S11384100724846000259A600D62446005245A6034
S1138420C4604B48DA60416841F008014160026869
S113843042F0080216E043480323C360404BDA606D
S11384400324446000255A600D63846005249A6007
S1138450046040481A60416841F0010141600268CB
S113846042F00102026070BD40487047002070472E
S1138470FF2028490A680968920902F00302032AC6
S113848013D8DFE802F0020F0F11090911F00301FC
S113849002D0012902D003E0012070471020704768
S11384A020207047082070470220704701460420AE
S11384B0002900D1704710B5087B03280CD101F1C5
S11384C0780291F840104B0602D50F24147003E093
S11384D0507808B91E211170002010BD7047032187
S11384E000E000214FF4C060B2E52149086000209B
S11384F070471F490A6802600020704706480168F7
S1138500006A10F0020018BF0120704768C00F40D5
S1138510F130010004800F4040441F4020811F407F
S113852010831F40A4841F40AC831F40BC811F40A4
S113853014801F4004821F4084821F4094801F4087
S11385402C831F403C811F406CC00F4000001C4026
S113855000801B4000C01B4018C00F40E0C8B60E8E
S1138560F4841F40BC801F40AC821F40002D3101A9
S113857028800F4062F30F2262F31F4200B500BF50
S1138580130096469446103928BFA0E80C50FAD838
S11385905FEA417C28BF0CC048BF40F8042BC907E0
S11385A028BF20F8022B48BF00F8012B00BD0000B3
S11385B070B50446042584B32168080F0B282CD118
S11385C0C1F30360012828D038BBC1F303161EB1E0
S11385D0022E05D002D306E0802606E0C02604E081
S11385E04FF4807601E0802E17D36068F608FFF719
S11385F040FB90B160683018FFF73BFB68B1164D43
S1138600102068606168324605F10C00FFF70EFB2C
S11386104FF400702E60A8600025284670BD70B528
S1138620054604200C46002D18BF002C12D00A4E1B
S11386304FF4007106F12C00FBF7FCFC06F12C0151
S113864006F10C00FFF78AFA20B906F12C01296023
S1138650B268226070BD0000B884010070B50546A0
S11386600E4602F070F804000BD1012306F18002DB
S11386700021284602F02EF9707C012804BF002155
S11386803174204670BDF0B50F260F24054689B01D
S1138690029601EB041600208DF810208DF80000DE
S11386A0012701930123039706F180020121284643
S11386B002F010F90297694600F02BF909B0F0BDF9
S11386C0F0B589B004460D4616461F4600F01BF867
S11386D0B8B98DF800000E2005EB00110E220292AD
S11386E001230393204601F180028DF81060019765
S11386F0012102F0EFF8012069460290204602F0C1
S113870017F909B0F0BD2DE9F843804684B00C4652
S113871016461F4604202CB304F5E675687818B194
S11387204046FFF7B0FFE8B9287804F1B009022801
S11387300AD1694699E80D1081E80D1004F1C000D2
S113874090E80E1089E80E103B463246214640461A
S113875001F026FF2978022904D16A4692E83A00FA
S113876089E83A0005B0BDE8F083F8B50C4684B05A
S11387700421ECB194F8CC1104F1900502290AD13A
S11387806E4695E8825086E8825004F1A00191E893
S1138790C05085E8C050214602F0BDF9014694F866
S11387A0CC01022804D16A4692E8590085E85900B0
S11387B0084605B0F0BD2DE9FE435FEA0108814695
S11387C015464AD0012D48D808F5E47630780028BB
S11387D043D008F1400748463C6802F08CF93178F0
S11387E0A40904F0010465B939B122464846FAF7F0
S11387F06FFE4146484601F06CFDB07988B1012115
S11388000CE041B1B97922464846FAF761FE414687
S1138810484601F05EFDB07918B10021484602F0E7
S113882010FA6A4602214846FAF79DFE14B10098F0
S11388304008009001AA00214846FAF794FE0199E5
S1138840009A0A20B1FBF2F1491C4143890800E077
S113885000BF0846411E0028FAD1BDE8F7832DE980
S1138860F0430546894689B017461E46484601F03E
S11388701BFD80460022494600F04CF900F041F807
S1138880FFF741FF040031D1022109238DF80010C4
S113889001220293039299F8471009F5C87200293E
S11388A01CBF1078002803D05178029113780393E9
S11388B001978DF810800596116B0691029809EBCB
S11388C00011039B00F0C8F800F020F804000DD15B
S11388D000F017F8FFF749FF040007D199F8CF011A
S11388E020B100F00EF8FFF7EBFE0446284602F034
S11388F008F90122494600F00DF9204609B0BDE807
S1138900F0833B4642464946284670470120694663
S11389100290284602F00CB82DE9F84789B00024EB
S113892001220B2389468DF800400392002702930D
S113893080468DF8104099F8471000291EBF09F5AC
S1138940CA710878002803D04A7802920D780395FA
S113895000224946404609F1500AFFF72CFF04253E
S11389605AF8046BCEB13B46002249464046FFF715
S1138970CAFE040014D10197029809EB0011039B6D
S1138980404601F18002012101F0A4FF0120694663
S1138990029000F092FA040002D1F7196D1EDFD1A3
S11389A04646ECB94FF0000809F1500704250020B1
S11389B057F8044B84B14346002249463046FFF73A
S11389C0D4FE60B999F8CF1131B14346002249462B
S11389D03046FFF775FE10B96D1EA044E8D1044679
S11389E0304602F08EF8012249463046FFF7E3FE96
S11389F020460AB0BDE8F0872DE9F84105460E4649
S1138A0089B01746304601F04FFC00F080F800F0C2
S1138A106EF804001BD100220123052400F06CF839
S1138A201EBF06F5C6710878002800F050F800F063
S1138A300FF8FFF76BFF040009D100F053F80400AE
S1138A4005D196F8CF0110B100F047F8044634E0A0
S1138A500298039B06EB0011284601F180020121D4
S1138A6001F038BF2DE9F84105460E4689B0174696
S1138A70304601F019FC00F04AF800F038F8040020
S1138A801BD100220123082400F036F81EBF06F58E
S1138A90CE710878002800F01AF8FFF7D9FFFFF725
S1138AA035FF040009D100F01DF8040005D196F843
S1138AB0CF0110B100F011F80446284602F021F865
S1138AC0012200F026F820460AB0BDE8F08103D068
S1138AD04A7802920978039170473B4642463146F0
S1138AE02846EDE53B464246314628463DE63B46B0
S1138AF042463146284606E601978DF80020039346
S1138B0002948DF8108096F847100029704780462B
S1138B100022314628464EE6F0B5054689B00E4699
S1138B2014461F46042084B124216846FBF782FAC8
S1138B30032201238DF800206946029328460393FB
S1138B4007940897019601F0F3FE09B0F0BD000008
S1138B50F8B50D461E468EB00746002101A8002335
S1138B6000248C4680E81A101168042902D8506841
S1138B70402817D301212974106C000D00F0070060
S1138B80401E05280CD8DFE800F00307090303059D
S1138B9002240CE004240AE0012408E0032406E093
S1138BA02B747BE03168C1F30324002C76D000934E
S1138BB00322069301218DF82430631E032B8DF8C4
S1138BC01420CDF830D00D91079108910ED8DFE82C
S1138BD003F006020A02DFF8A42A019206E0DFF895
S1138BE0A01A019102E0DFF89C0A0190012301AA76
S1138BF00121384601F06EFE05A9384601F098FEC1
S1138C0000284CD13068C0F3036000281FBF70688F
S1138C10C0F3072000280090641E0021032C29744F
S1138C203CD8DFE804F00210271C009A510635D422
S1138C30DFF8540AC5F8E000009A02F0C30242F0DB
S1138C404002009221E00099880727D4DFF83C2AEB
S1138C50C5F8E0200099090241F4007114E000997C
S1138C6088071BD4DFF8282AC5F8E020009941F0D2
S1138C70020109E00099080610D4DFF8EC2CC5F8CD
S1138C80E020009941F08001009101200121062299
S1138C90287429756A750098A861697400200FB05A
S1138CA0F0BD0022F8B50C460023002605468EB020
S1138CB00AA90292002081E84D00032200908DF859
S1138CC0143001218DF804200126DFF8A07CCDF8B2
S1138CD020D00991012303910AAA049628460A97F1
S1138CE001F0F8FD01A9FFF714FEB8B900990422B8
S1138CF001F0F7010091267400992675090401F426
S1138D007F0141F0042141F08101C4F860110E217A
S1138D106175009BA361627484F8CF610FB0F0BDEC
S1138D202DE9F847914600220C4691B08DF81020A9
S1138D304FF400710292012280460191039254B3D0
S1138D40032109AA8DF800101026079204F1800768
S1138D50089601233A46012101F0BCFD012669462B
S1138D60029600F0AAF8B0B9DDF8240049A610F183
S1138D70010F02BF09A8416811F1010F07D18268F0
S1138D8012F1010F04BFC06810F1010F09D000F007
S1138D908FF800283CD044F68E6A504612B0BDE8E5
S1138DA0F0870023002221464046FFF7ACFC002850
S1138DB0F1D109201023029002220693039B8DF81F
S1138DC00020029807EB001205960121404601F0AD
S1138DD081FD012140460291694601F0A9FD002868
S1138DE0D9D1002300222146404601F094FE0028F8
S1138DF0D1D100F057F869468DF80020404607931A
S1138E0001F096FD0028C6D100F052F80028C2D126
S1138E1004F1400701223868B9790225322440F070
S1138E20400038604046FAF753FB00E06D1C641EB6
S1138E30B1D000210DA8002200238C4680E80E103A
S1138E403969DFF82C2D4046914205F0FF0227BF17
S1138E50DFF81C3B0D93DFF81C1B0D91DFF8143D6C
S1138E6000211A4301230E920DAA01F033FD0020C4
S1138E7000F018F88DF800206946079300F01DF8FB
S1138E805FEA000A87D100F013F80028CED1C9F8B0
S1138E90005082E700112233445566778899AABBB3
S1138EA0CCDDEEFF10210290032209AB089170473C
S1138EB0102209A9304602F0CFB9404601F038BD6E
S1138EC02DE9F043CE68012504464FF48070002E4E
S1138ED047BFF61E05FA06F6761CF60826654E68A8
S1138EE0402E08D30E6BC6F3031605FA06F6B6F544
S1138EF0004F18BF304604F5E07C6FF07F4ECCF88D
S1138F0000004FF00008002701EB470090F8240010
S1138F1058B105FA00F070453CBF8646B946804515
S1138F203EBFB0F5801F80463E467F1C042FEBD326
S1138F30C645CCF804E0CCF81080DFF8345C0CBFF4
S1138F40012000208CF80900246DAC4225D391F84F
S1138F50580040B101F16004603114F80950156003
S1138F60885D186023E001F1250010F81940202CD9
S1138F7004D0D82C04BFDC25156001E0212010604A
S1138F80253111F81600202802D0D82803D00EE08D
S1138F9021221A600BE0DC2108E001F1250010F821
S1138FA01940146001F1250212F81610196000200E
S1138FB0BDE8F0832DE9FC4F85B016461A6881465A
S1138FC000244FF00408C2F30350012802BFB06824
S1138FD0C0F3C044002C00F062810091009800218D
S1138FE003AB18250173069A009811780022924663
S1138FF0934601F00F0180F846100098019204AAEC
S11390003146FFF75DFF0099DFF8642B01F150074B
S1139010386890420698016828BF2025C1F30330C0
S1139020002809D1069B0099CDF80890324648469D
S1139030FFF78EFD5FEA000840F03181B168C1F3AB
S1139040405038B130694FF0020BC0F3421A00F0BF
S11390501F0008E0C1F3805030B13069410D01F0C8
S1139060070AC0F3044001900098202D42F2040244
S113907000F1D0011AD196F8580098B106F15803BE
S1139080D3F804C042F20423CCF3002010B1DFF87B
S1139090E80A04E0CCF3C01020B1DFF8E00A086469
S11390A04B6407E0DFF8D83A0B6402E0DFF8D40A37
S11390B008644A640098012240F206430273DFF810
S11390C0C82A3B663A64049800F0FF0040EA054071
S11390D040F0006040F480600860039A4FF48C60B4
S11390E0086602F0FF0242EA054242F0006242F4DE
S11390F080620A6306990868C0F3036058B149683E
S11391000A0608D001F0FF014FF0000A0191F4B102
S1139110480001901BE0D4B1002818DC202D05D1B3
S1139120DFF8680ADFF8681A3863796300990298EF
S1139130FFF794FA5FEA00085FD10099029801AA48
S1139140FFF7EEFD5FEA000857D14FF0000A182D33
S11391501AD154B1ED20009940EA05400A6C42F05E
S113916040020A6440F00A403AE0B168C1F340505A
S113917010B13069000A2CE0C1F3805010B130699D
S1139180000E26E0032021E00CB1EE20E3E706F117
S11391905801087870B14968C1F3401018B1EC2047
S11391A04FF0020B15E0C1F3001070B16C204FF0CA
S11391B0000B0EE0B168C1F3405008B1EC2008E0A8
S11391C0C1F3805008B16C2003E0132000218A46CB
S11391D00191C0B240EA054040EA0B6040F00060F3
S11391E040F48060002138630098069A00F2CD199B
S11391F01068C0F3031040B1012850D170684028B2
S113920003D3326CC2F3402018B901985044019042
S113921032E0120C12F0050F18BFA5210BD19007F4
S113922009D5069B009902983246FFF73AFD5FEA9A
S1139230000834D10121306C009A800A10F00A0F22
S113924002F5B87208D0202D6FF0F920106050603C
S11392500CD140F2FF6008E010F0110F1FD04FF066
S1139260062010605060DFF8A40B90600122BAF170
S1139270000F89F8002021D10198C8B100F0FF0146
S11392808CB1DFF8F00801437963012189F80110FA
S11392900098026C42F0400202644FF0000840461D
S11392A007B0BDE8F08FDFF8680B01437963F4E79A
S11392B0002C42F204417963E7D1EEE701980004FF
S11392C000F47F008CB1BAF1010F06BF262309090F
S11392D0272341EA8321014341F0324141F40071E3
S11392E0DFF8300B7963B863CFE7BAF1010F06BF3B
S11392F006230909072341EA8321014341F0485128
S113930041F40071DFF86C0C7963B863C5E72DE9AB
S1139310F84F0D0096B0144608BF4FF0040869D00A
S1139320834608236A460021FFF7F6FB5FEA00083C
S113933060D10098DFF8401C884218BF44F68B685F
S113934058D19DF8040028609DF806707F1C0A2FF0
S113935088BF0A2708210CB14FF40061FB0002AA60
S11393605846FFF7D9FB5FEA000843D16421284639
S1139370FAF760FE4FF0000A4FF6847904E001200A
S113938085F858000AF1010ABA4533D202A901EB63
S1139390CA000278C37902EB0322B2F57F4F18BFEB
S11393A04A45EFD100210223C6185B1E367946EAEE
S11393B00121F9D5C678B60004B10902B2F57F4F90
S11393C00DD1502E05F10802584688BF5026334669
S11393D0FFF7A2FB5FEA00080CD16E60D2E74A45B2
S11393E0D0D1334605F15C025846FFF795FB5FEA9E
S11393F00008C4D0404617B0BDE8F08FF0B549006E
S113940089B003250191002601278DF80050694693
S1139410029603978DF810600792089301F088FA7A
S11394200AB0E0BD490060B589B002250191002170
S113943001268DF810108DF80050694602960396A7
S11394400592069301F074FA09B060BD2DE9F8475E
S113945005460C4687B00320E07304F1450008215B
S1139460582301700326236426731AB1216C41F03A
S113947001012164012204F1500682700F200121B0
S1139480B085F18504F5C2774FF400724FF4802063
S1139490FA6304F2C9183864C4F8D001284688F87D
S11394A000102146FFF7DAF8002862D100F0F2F844
S11394B00DF10C0A80E80E10DFF8C01ADFF8C02A9C
S11394C003910123CAF8042003AA0121284601F0CC
S11394D001FA00F0DFF8DFF8AC9A80E80E10DFF84C
S11394E0A81ACDF80C90CAF80410012303AA00218D
S11394F0284601F0EFF94FF418400223029002AA23
S113950040F255512846FFF78DFF002831D108233A
S11395106A4610212846FFF771FF002829D10098D8
S1139520DFF8682A0199904289B2019108BFB1F528
S1139530B24F40F09F8008236A4627212846FFF750
S11395405DFF002815D10098C0F30720A0F1170192
S11395500A29009080F08E800122824032604FF40C
S113956070410291022302AA00212846FFF75AFF04
S113957000287CD1DFF8181A4AF20475DFF814CAFF
S11395807163B5634FF08721C6F84CC0DFF8082A31
S1139590B565DFF8083ADFF808EADFF8205CDFF8A1
S11395A020CCC6F854E0DFF81CECC6F830903164E7
S11395B048F2307A7264B364C6F85090DFF8089CBD
S11395C031667266B366F26631677567C6F878C04D
S11395D0F56704F1D006C6F84CE0DFF8F0EBC6F806
S11395E050E004F5A874C6F85490DFF8E49BC6F87C
S11395F030E0DFF8E0EB31647264B36431607260D0
S1139600B360C6F80C9031617261B361F26131628A
S11396107562C6F828C0F562C6F834E0C6F838A00A
S113962031667266B366C6F86C9031677267B36769
S1139630F26721602161DFF8A01B6261022265608C
S1139640C4F808C0E560A3610323E16104213A7111
S113965001247B7109233A703A73052239723974F3
S11396600B217C707B737A72797488F8034008B09C
S1139670BDE8F08744F68D60F9E700003504012465
S1139680050401243F0401240104012001040220F3
S113969031040120002103A8002200238C467047D6
S11396A02DE9F04F8DB09046D8F80020C2F3035353
S11396B0052B0CBF01260026C2F30335002DC2F38F
S11396C0034418BF032D07D18A460AF130078346A5
S11396D02CB1032C00D1DDB94FF004093FE16846F9
S11396E0FEF707FF814600F056FAB9F1000F07D1E3
S11396F06A465146584600F0C0FC5FEA0009EDD1C5
S1139700002010218AF80C00032239610C920EE02B
S1139710032010218AF80C003961D8F80000C0F346
S11397200350042804BF5021396106200C9054EAE8
S11397300500514608BF0126032D0CBF0820012057
S113974078755846FEF78AFF5FEA0009C6D10CB95E
S1139750002003E0002E14BF10202020DFF87C1A24
S113976001230A180121584601F0B4F8002003230C
S1139770059002AA8DF8200001208DF8103004A96C
S11397800690079058460B9201F0D2F85FEA000960
S113979004BF9DF80800C228A0D102A9002C4FF4F0
S11397A080300AF5E07B86F0010607BF89783039FE
S11397B04A79A2F1300100FA01F14FF48072396262
S11397C04FF48051CBF810000320CBF80410102183
S11397D0002CCBF800208AF80C00396108BF032D57
S11397E001960AF1B0064AD10120022106238AF823
S11397F011108AF810000022AAF81200DFF8E0190C
S11398008AF8153007238AF8140001988DF800208F
S11398104FF004228DF80330DFF8C839A8B1822450
S113982002208DF80140CAF8180033637263B163F3
S1139830D8F80000C0F30310032819BF00208BF8E8
S11398400A0001218BF80A1016E0812402208DF809
S11398500140DFF89449CAF81800012033637463A7
S11398600724B1638AF81C008AF821408AF8200092
S1139870386033647264B1640098FEF736FE40F2D7
S11398800640C14930603966C5B90122DFF85C0978
S11398908AF80C20DFF858193865B94A796542F21C
S11398A004003266DFF84C197066DFF84C29316227
S11398B04FF48C633265CAF8303150E0019838B9FE
S11398C0012402210C2009220823DFF8305906E084
S11398D0212422212C2029222823DFF824593D6524
S11398E0890241EA8065DFF81C09920242F4417260
S11398F041EA836341F448712843A50645EA842577
S11399007865DFF80409BA65DFF8004928432C4379
S1139910306145F003203C67DFF8F44878672C4356
S1139920B867DFF8F008FA67DFF8EC282A43034346
S11399303266DFF8E8087366284334627162306582
S11399407165DFF8DC180D43CAF83051019818B17D
S1139950396941F04001396102208BF80C00484616
S11399600DB0BDE8F08F00003E0402208504012400
S1139970EE04208AED04188A2DE9F84F9CB00446C1
S113998016460D463068C0F30352072AC0F303405D
S11399900CBF01270027A0B96846FEF7AAFD00F016
S11399A0F9F8B8F1000F07D16A462946204600F0BD
S11399B064FB5FEA00082CD100201021287329647D
S11399C003E0032250202A7328640821204685F8E6
S11399D045102946FEF742FE5FEA000819D13068B7
S11399E00FF6A402C0F3034008B9012303E00328DF
S11399F00FD1012310320121204600F06BFF082013
S1139A00002285F8450003A92046FFF780FC5FEAA1
S1139A1000086ED100F000FA380005F1D00442F2DB
S1139A200109DFF800A804D15021032229642A7314
S1139A300DE0C4F810A0DFF8F00760610C21C4F851
S1139A40189001220620A9612A7468752A7505F107
S1139A50500140F206404C4A08660A64306805F535
S1139A60E67BDFF8C827C0F30343032B1CBFC0F316
S1139A70033003283ED1DFF8B8074A630865DFF8EE
S1139A80B43740F206720B630A67DFF8AC07206054
S1139A90DFF8A81721634FF4EC632366DFF8A027EF
S1139AA022644AF2043060643168C1F30340E8B9C7
S1139AB00022062182238DF800208DF803108DF8F2
S1139AC001300098FEF711FD012002212874E722DD
S1139AD0697406200121AA6168754FF00420297574
S1139AE06982C4F810A06061C4F8189002218BF850
S1139AF0001086E10028FCD10868029EDFF8445774
S1139B00B0F1807F06F0FF0627BF20208E231820A7
S1139B10C22346EA004643EA00432E432660019EE0
S1139B2006F0FF0646EA004635432563DFF818577A
S1139B302B4323644FF40E5363643FB9DFF80C07DF
S1139B404A63086301218BF802100CE00B68CB22F6
S1139B50B3F1807F28BFCC2242EA00402843086347
S1139B60DFF8EC0648634FF48C612166C1E700001E
S1139B700100000100B204A63E04200A34042008B7
S1139B8012042008020418080504042413042008FD
S1139B900424010080460020FEF7A7BC2DE9F84FFD
S1139BA09CB0814610680D4644F68D684FF0000A5B
S1139BB0C0F3035009280CBF012400240420102101
S1139BC085F8450010682964C0F30347C0F30336E1
S1139BD0AFB96846FEF78DFCFFF7DCFFB8F1000F64
S1139BE007D16A462946484600F047FA5FEA00086A
S1139BF05AD1012085F80CA085F845000EE0022F0B
S1139C0002D10320287309E0032F4DD1032108203A
S1139C10297385F845000CB94FF0010A002E1CBFCA
S1139C20022E032E40D156EA070008BF0124022E5B
S1139C3003D1042085F8450004E0032E04BF082165
S1139C4085F84510286C002C294614BF20F04000EC
S1139C5040F0400028644846FEF700FD5FEA000833
S1139C6022D144B1022F02D0032F02D00CE01020E5
S1139C700BE0202009E0022F02D0032F02D003E0E2
S1139C80302002E0402000E00020DFF8C815012366
S1139C900A180121484600F01DFE524603A9484611
S1139CA0FFF735FB5FEA000840F0AB8000F0B4F842
S1139CB0032005F18001287340F20642DFF898354D
S1139CC00A630B613CB94FF0220E2C204FF0290996
S1139CD04FF0280C06E04FF0020E0C204FF009095B
S1139CE04FF0080C330603F0407A330203F4407358
S1139CF043EA80204AEA030747EA8E6EDFF85CB540
S1139D00022E4AEA000005F5807A40EA89604BEAAF
S1139D100E0BC1F800B01CBF032E002240F004104B
S1139D2048604EF0201040F480600865DFF830058C
S1139D3040EA0E00CAF80000DFF8280540EA0E00E9
S1139D40CAF8100043EA8C2040F08000CAF81400DE
S1139D5043F48C60CAF8300016D147EA8967DFF80B
S1139D6008051A4300230A6402220743022E0F62E5
S1139D7085F8CC21AB6103D14FF48020A86104E0C5
S1139D80032E02D14FF40022AA6124B9A86940F439
S1139D900000A86106E02A6C012042F080022A64D7
S1139DA085F87900DFF8C42442F203030A6601202F
S1139DB0002E4B66287414BF02200020687406200D
S1139DC0687501212975002069828DF800004CB165
S1139DD0022E08BF41200CD0032E0AD181218DF818
S1139DE0011008E0022E08BF422002D0032E08BF53
S1139DF082208DF8010008228DF803200098FEF7D8
S1139E0074FB40461DB0BDE8F08F0000001E103208
S1139E100032042604A6017C01AB02AA03A9284649
S1139E20FFF74EB82DE9F8410D4604241646002DDF
S1139E3099B0804618BF002E00F098804FF400714E
S1139E402846FAF7F7F805F1440701224FF080732A
S1139E50BA70FB60DFF818042860DFF818140322D6
S1139E60012069606A73AA7385F8C8013168C1F377
S1139E700360002808DD7068C0F30340012803D1A3
S1139E80296C41F4807129643068020D02F00F02DC
S1139E90092A61D8DFE802F0050546484E4E5454BD
S1139EA05A5AC0F30340002856D1DFF8CC13DFF828
S1139EB0CC23F96329467C7040463A64FEF7CEFB16
S1139EC0040049D13068C0F30310012810D105F50E
S1139ED0B8706FF0F92101600023416040F2FF6126
S1139EE08160002229464046FEF7CDFB040033D1B1
S1139EF03168DFF88C030123C1F3034100EB011245
S1139F000121404600F0E6FC002269464046FFF786
S1139F10FEF9040020D133466A4629464046FFF73D
S1139F2049F818E0012200E0002229464046FFF7E4
S1139F308DFA10E0324629464046FFF7B1FB0AE0AD
S1139F40324629464046FFF717FD04E032462946CB
S1139F504046FFF723FE044634B92846FEF7A6FA26
S1139F60307800F00F00B8700121397020461AB023
S1139F70BDE8F0810426017C534644502087188BA9
S1139F80108F02A3A087188B108F04A700510052D2
S1139F90108F06B3008770870087AA87008705871C
S1139FA0108F0BB72DE9F04180460C46042074B3A2
S1139FB004F5E2759F1829687F42494201EA0206C6
S1139FC06A790F407F420AB9E96889B9BE421ED254
S1139FD000F01FF8002804BF29688E19F6D016E097
S1139FE0324621464046FEF73DFD80B9E9688E19A8
S1139FF0BE420CD2E96836EA010002D1B81B88429D
S113A000EED200F006F8002808BF2968EFD0BDE8BA
S113A010F081324621464046FEF7EEBC2DE9F84178
S113A020804604201546002989B01F4618BF002D1C
S113A03021D0109CFCB1084600F036F9032101231D
S113A0408DF800100021039302918DF810004FF653
S113A050FF76B442019769460795404698BF264665
S113A060089600F065FC30B9A41BF719B608002C5B
S113A07005EB8605EBD1FEF727BD2DE9F8430E4627
S113A08014460421002C92B0804604D060782178D4
S113A090884208BF002100F08D8006F145070820A2
S113A0A03870607803254FF00109422818BF412811
S113A0B002D10420022538706078822814BF422817
S113A0C04FF02109002020210A908DF834008DF8EA
S113A0D0240001200B9001A8F9F7ACFFE4782A02D0
S113A0E001AB062C0ED031D3082C01D014D32DE0B3
S113A0F040F20640104340F2FF4101900A431A61C6
S113A100022224E040F2994140F2664414430A4397
S113A1101A61022201941AE042EA8922B9F1210F5C
S113A12042EA056242EA896242F4190042F4CC022E
S113A13040F0660042F0990201901A6103D1306C3C
S113A14040F04000306402210C9101E001220C92A5
S113A15001204FF08071787006F150000160444A8C
S113A16032600324434B012273600A237473314623
S113A170B47386F8C82143624046FEF76FFA0100C3
S113A18018D10C9B01AA012140464FF47A7400F0C7
S113A190A1FB09A9FEF791FE3A4A01461368B3FBF5
S113A1A0F4F4009403E000BF009A521E0092009859
S113A1B00028F8D1084613B0BDE8F083008755871E
S113A1C0008702870087A087108F80A30087188BE1
S113A1D000878087108F008700871087AC290000D4
S113A1E00004012072040004000402040C0420088A
S113A1F00830042421042008DC042008EC07130799
S113A200EE871187200306030603F9030503FA0307
S113A2102103DE03200304031203ED03DC03230301
S113A22060039F03810400040004010406B304A72F
S113A230050704A7FD07208B2107208BDC07208B53
S113A2401207208B000400080004000BFD04208B7F
S113A2500C330427DC290000050404240B0420002B
S113A260D804200002042000050404007104000442
S113A270464346420004015603041808042401001E
S113A2806C290000F06901005A0418080830FF2402
S113A29000000000000000005A07208BFFA7000008
S113A2A0000000000000000090F8400010F00400DE
S113A2B018BF0120704790F8400010F0200018BF2C
S113A2C00120704790F8400010F0010018BF0120F1
S113A2D070472DE9FF47814604200024B9F1000F9F
S113A2E00D4608BFDFF88449002C18BF002D7CD030
S113A2F0297B042979DA032901AF15D195F8403077
S113A300980711D46A4602214846F9F72CF9009BB4
S113A310DFF85C2993420CD395F840100B0608D45F
S113A320792201927A603FE04FF480700190786066
S113A3303AE000264FF47A7805EB4600783041780D
S113A34029BB00786421484319D1286C03A98009EA
S113A35000F0010A52464846F9F72DF90399BAF17B
S113A360000FDFF81009B0FBF1F101D1490800E05A
S113A37089084B2208FB01F1B1FBF2F106E04B2303
S113A380B0FBF3F103FB01F2824200D2491C4029E5
S113A39028BF3F21490201F4FC4141F4807147F890
S113A3A02610761C022EC7D32068400800F0010056
S113A3B090F0010003D0216841F0020121602A6D70
S113A3C004F1C003002A07BF696D0029019A1A60CD
S113A3D0A96D002907BFEA6D002A7968596018B190
S113A3E0206820F002002060002004B0BDE8F0875F
S113A3F010B504460420002C18BF002A0FD073B1F6
S113A400DFF87008B0FBF2F04343B1FBF3F000E077
S113A410401C00FB03F28A42FAD32060002010BDE6
S113A42038B584B04FF6FF740194009400B909B9AB
S113A430042028E003AA0221F9F795F802AA0121D1
S113A4400020DFF83458F9F78EF8039A4FF480634C
S113A450294601A8FFF7CCFF029A4FF480632946EE
S113A4606846FFF7C5FF0199DFF81038A14288BF9D
S113A4700194009AA24288BF009401980099C1EA0D
S113A480004200201A6005B030BDD0F8E010CA07C1
S113A490FBD5D0F8E0309907FBD570472DE9FE4392
S113A4A00E4604210022002800924FD1002E4DD0E8
S113A4B006F15008914606F5C87758F8040BDFF802
S113A4C0AC1701EB8904800A2066707BB57BF17BB5
S113A4D0400100F4787005F01F05054396F840002C
S113A4E0C90201F4F0410D430107706F48BF45F400
S113A4F0806568B101AA02210020F9F734F8019AB5
S113A500716F01236846FFF773FF009945EA01451F
S113A510256796F8470000281EBF39784A0112F0D3
S113A520E00F09D07878491E490301F46041000224
S113A53000F47060084301E04FF4106009F1010970
S113A540B9F1040FC4F88000B7D300210846BDE870
S113A550FE830422002810B518BF00291ED0403104
S113A5600A79012A0AD1C26809785208520042F0D5
S113A57040024B0748BF42F00102C260C168DFF8E5
S113A580004741F02001C160002100EB8102491C19
S113A590136A234003291362F7D30022104610BD27
S113A5A0F0B5044689B0042031B300200126032706
S113A5B08DF80000039602978DF81020019391F80E
S113A5C04720002A1EBF01F5C4721078002803D06A
S113A5D05378029312780392029D039B01EB0516B4
S113A5E00121204606F1800200F074F90123694636
S113A5F00293204600F09CF909B0F0BD78B504241C
S113A600002889B00D46164636D1002D34D0DFF827
S113A61074060068C0F3012020B1687C022808BFDA
S113A620002429D0012101968DF800106A7D33465B
S113A63000200292297D00220694039105F118015D
S113A640059129468DF81020FFF7AAFF00F06DF858
S113A65000F066F804000FD1688A58B9697C0229B1
S113A66018BF032906D033460022294600F053FAC6
S113A670044601E000F062F820460AB070BD2DE9FE
S113A680F8410424002889B00D4690463ED1002D9F
S113A6903CD0012000228DF800000027CDF8048072
S113A6A08DF81020069405EB870202F120035978F7
S113A6B0002931D0DFF8CC05EE190068C0F3012081
S113A6C010B1707F022827D00291197802F130006E
S113A6D0434603910022059029460020FFF760FFBE
S113A6E0040013D100F021F800F01AF804000DD191
S113A6F0688A78B9717F022918BF03290AD04346B2
S113A7000022294600F007FA040005D020460AB0CA
S113A710BDE8F08100F012F87F1C032FC3D3F5E7E6
S113A720012069460290002002E10298039B05EB98
S113A7300011002001F180020121CBE06421484393
S113A7400021F8F7E1BF02460420002A2DE9F84F62
S113A7500D4614D1002D00F0A1802A7C002A04BFEC
S113A760297F002906D095F8402012F0500602D027
S113A770012600E000262968DFF80C25914240F00C
S113A7808D80002005F14507F8F7E7FE29460020F3
S113A790FDF76EFC300003D000220121002001E00F
S113A7A000F07EF8F8F794FE0020DFF8C044F8F7D4
S113A7B0CEFE00F07CF821684DF60F7041F00201E6
S113A7C0216021683A780140287B082A08BF41F4B7
S113A7D00051000100F03000014341F07F4141F499
S113A7E07F01002021602946FFF71AFEA06820F4AB
S113A7F00040A06095F84010C80703D5A26842F451
S113A8000022A26029462046FFF7A3FE2946002025
S113A810FFF744FE29460020FFF75BFD00F047F8F0
S113A820287C88B100F04FF859F8048BB8F1000F78
S113A83006D0524629460020FFF7E0FE70BBC24412
S113A840BBF1010BF0D148BB287F88B100F03BF885
S113A85059F8048BB8F1000F06D05246294600205F
S113A860FFF70DFFD0B9C244BBF1010BF0D1A8B979
S113A8709EB1206840F00200206000F011F8F8F763
S113A88027FE29460020FFF7CBFD29460020FFF7CD
S113A89020FD206820F0020020600020BDE8F28F37
S113A8A02A6C79780020920902F00102704720682E
S113A8B020F002002060216841F00101216022683B
S113A8C0D307FCD4704704204FF0000A05F1500967
S113A8D0834670472DE9F0420F4614461E46042174
S113A8E018BB14B34FF00009BA1949EB0903002B44
S113A8F01BD8112A19D200F0B4F9DFF89003022111
S113A900A861E961B90005EB8102F71902F500724B
S113A91004E054F8043B491C42F8043BB1EB870FB4
S113A920F7D3A8610120E86100210846BDE8F08260
S113A93000282DE9F8434FF0040871D10C0000F011
S113A940CB802078042880F2C780DFF8206394F855
S113A95010903046DFF83873FFF797FD002000258C
S113A96000F061F9706940F01E007061616839603F
S113A9702078022808BFA56902D0032801D1256ADE
S113A980ADB2A068E168000400F470200543491EDC
S113A990090601F0E0610D4345EAC9757D60207840
S113A9A0032834D1E269206A12F0030138D11C2350
S113A9B0BB61B96941F00101B961BB69D907FCD434
S113A9C0396941F00101396108B3402807F1600396
S113A9D014D371694FF0100C890604D414E053F8B1
S113A9E0041B42F8041B5FEA0C01ACF1010CF6D124
S113A9F07169403841F02001716105E0396DC90089
S113AA0001F4FF61814221D271690B07DCD5207802
S113AA10022818BF012839D16269A16912F0030024
S113AA205AD11C23FB61F86940F00100F861FB690D
S113AA30D807FCD40025002928DD7069954B400611
S113AA4021D540294FF0100C38D30CE0042822BF44
S113AA5053F8041B42F8041B001FF7D23FE052F8DE
S113AA60040B43F8040B5FEA0C00ACF1010CF6D1C3
S113AA70403925B93869012540F001003861706911
S113AA8040F04000706173691807D4D5207818B974
S113AA90396941F0010139613046FFF7F6FC70690C
S113AAA0010717D5786CC0F303600E280CBF41F67C
S113AAB0583841F659380FE043F8040B5FEA0C00AC
S113AAC0ACF1010CD5D00029D2BF0020091F52F8E7
S113AAD0040BF1E74FF000084046BDE8F28340B1B3
S113AAE019680091694611F8013B401E02F8013BC8
S113AAF0F9D170698BE718B9674801688A07FBD5F3
S113AB00704738B95948016841F001010160026891
S113AB10D307FCD4704700292DE9F84F8EB04FF0CD
S113AB20040979D001F170049246A5890122E689CD
S113AB300693089202FA05F80325BAF1000F8DF87E
S113AB401450079202AD0C9514BF082304230D93EF
S113AB508DF824A091F84730002B1EBF01F5C27573
S113AB602A78002A03D06A7807922D7808950490F1
S113AB70079801EB0015089B0146049805F1800233
S113AB80FFF7A8FE24685FEA040B18BF4FF0010B1F
S113AB900025049805A9FFF7CBFE5FEA00093BD125
S113ABA0BAF1000F1AD001A96A4602AB042013F8C7
S113ABB0017B401E01F8017B13F8017B02F8017B45
S113ABC0F5D1002E0199009803D0014038EA010123
S113ABD002E0014311EA08010F4608E0002E029842
S113ABE002D038EA000001E018EA0000074618BF66
S113ABF00127FAB212EA0B0F0BD0002D08BF002C6C
S113AC000ED04FF47A700021F8F77EFD641E65F1D2
S113AC100005FFB2002FBCD148460FB0BDE8F08F4D
S113AC2041F65A39F8E758B9104901EB8001401C44
S113AC300428D1F8802042F00042C1F88020F3D3E8
S113AC40704738B50C4658B900F00BF824B12968A0
S113AC5041F40061296031BD286820F40060286057
S113AC6031BD024D2846FFF710BC000000802A4089
S113AC7000E1F50500CA9A3B0065CD1D04802A4019
S113AC8000FFF0FC00822A4046434642F05AF05A44
S113AC90A0802A4080812A40E0802A402DE9F843A0
S113ACA0DFF834650220ADF5467D30607060DFF872
S113ACB02C7538684FF00108C0F3400000281FBF0E
S113ACC0DFF81C452068C0F30130002803D0206859
S113ACD0C0F38130002800F09880FDF7C9FB0128FB
S113ACE040F09380B869C0F30160002818BF0228BF
S113ACF00CD1DFF8F0140020002200230F1D41F8CE
S113AD00302047F83030401C0228F8D9206800254C
S113AD104FF4C077C0F3013030602168C1F3813053
S113AD20706002A806F0F8F956F82500741906EBCD
S113AD308501012804D012D303280DD008D30EE0D6
S113AD40DFF8A4248A60886860B90021217459E07E
S113AD50DFF898048860F6E7DFF89424F2E700202F
S113AD608860F2E7012202A82274896880224FEAEF
S113AD70852906F0E5F909F1C041202201F5806139
S113AD8006A8FCF753FFDFF86C044FF4807200EB65
S113AD90090126A8FCF74AFF202166AB009106AA08
S113ADA0002102A806F014FB66A9802202A806F07E
S113ADB0C7F94FF4807086A9019026AB00916AAA66
S113ADC0002102A806F0DAFA86A9DFF82C344A68D2
S113ADD007FB05F09A4202BF8699DFF820249142CE
S113ADE0304406D0002339462374143002F040FB6B
S113ADF008E001213A46217466A914304FF0000896
S113AE00FCF714FF6D1C022D8ED340460DF5477DD3
S113AE10BDE8F08310B50024FFF740FF00B901241A
S113AE20204610BD0146002021B10968090F0E29F2
S113AE3008BF012070472DE9F04395B00646FFF79F
S113AE40E9FF054630460424FFF7ECFF002808D04C
S113AE503068000F0E2840F0CB803168C1F3034006
S113AE60002800F0C58004281AD2C1F30352022A34
S113AE70BCBFC1F30332042A0ADA012803D9C1F39F
S113AE800322042A04DA032804D3C1F30310042898
S113AE9080F2AE80C1F30360032824BF001F03289F
S113AEA080F0A6800022C1F30367032FCA4B28BF9A
S113AEB00122002D1EBF03F11001885C002871D10E
S113AEC04FF4C07111FB02F51D44143517F003074C
S113AED003D0022F05D002D308E0C44802E0C248E0
S113AEE000E0C34803F1080747F8220001201033AB
S113AEF098542846F9F79EF805F18007BE48BF49E3
S113AF00786039603268BE4806F10808B860C2F358
S113AF1003410022F960337803F00F03FB613068CA
S113AF20C0F30350B86115E03368C3F3032005EBA5
S113AF30421C0CF1D00306EBC20CDCF804E0C3F8AD
S113AF4000E0DCF804C058F832909860521CCC44FD
S113AF50C3F804C08A4209D2012AE5D03068022A23
S113AF600CBFC0F30310C0F30330E0E70129386DD0
S113AF707A6D0ED9012305EB431656F8D0CF8445DC
S113AF80766838BF6046B24238BF32465B1C8B429B
S113AF90F1D39C4988422BD3386168467A6105F025
S113AFA0A7FE040024D10020974E8DF803006946C3
S113AFB0304606F02FF804001AD1B869012809D1E7
S113AFC0102205F1A001304606F054F80446002092
S113AFD038626CB910222946304606F04BF804005A
S113AFE006D1102205F11001304606F043F804465C
S113AFF0204615B0BDE8F083F0B500220024764B5E
S113B0004FF4C075002665431D44143500E0761CDA
S113B010D5F88C70BE4210D205EB461C0CF1D0075B
S113B020D7F804E0AEF1010E8645F0D33F6801EB9A
S113B030000C6745EBD2012202E0641C012CDFD92D
S113B0401046F0BD2DE9F0470D460421002D86B0D1
S113B05018BF5FEA020838D00646022E35D25E4C8D
S113B060A3191A7C8AB302A84FF4C07906F054F8E5
S113B07009FB06F18022601800F1140A00F54577F7
S113B080514602A806F05CF84FF4807007F1800185
S113B09001900AF1800300910AF11002012102A833
S113B0A006F06CF904EB86008022816802A806F0A1
S113B0B047F820203B4600905246012102A806F0A2
S113B0C087F92F600021C8F80090084606B0BDE853
S113B0D0F0872DE9F84706460C4604201546002C57
S113B0E089B018BF002D4AD04FF000094FF4C07743
S113B0F0DFF8E48000F046F890304268521EB24215
S113B10003D30068A119884204D309F10109B9F1F4
S113B110010FEFD908EB890205A8D2F808A005F0C1
S113B120FBFF802205A8514606F00AF800F02AF831
S113B130D0F8981001291AD1A03001AA90E88A10F9
S113B14082E88A1036090020019601A901AB464223
S113B15033440A5CDF7B0F54401C0828DA73F5D3B0
S113B16000942B462A4605A806F058F906E00094F8
S113B1702B462A46012105A806F02AF900200AB028
S113B180BDE8F08707FB09F108F114000844704793
S113B1902DE9F04105460E4600274FF4C07404FB28
S113B1A007F10D48014401F1140001F545781749F0
S113B1B001EB8721A94209D37219914206D2214693
S113B1C0F8F738FF21464046F8F734FF7F1C012F7B
S113B1D0E5D9BDE8F0810000EC86010004800F4051
S113B1E060441F4048C00A40DCEFDCFE89ABDCFE53
S113B1F01234DCFE80040060454844525441475FE9
S113B200000001560010006000C00C400004006003
S113B21006F097BB13460A460146184680B503E07C
S113B22013460A4680B51946FCF700FD002002BD0E
S113B23010B514460A4621460123BDE81040F7F72D
S113B240DFB800004018491C1CBFB1F1010100F82F
S113B250012DF9D17047000003000020521E22BFC7
S113B26013F8010B11F801CBB0EB0C00F6D0521C13
S113B27008BF10467047000010B55F4B01221C68E0
S113B280240A04F00104641C02FA04F4046018683B
S113B29000F00300801D824000200A6010BD000001
S113B2A02DE9F04188B0044668461021F8F7C2FE43
S113B2B004A81021F8F7BEFE0C25504FFDF7D8F86E
S113B2C002284F4E18BF042040F093804FF4E071E1
S113B2D02046F8F7AFFE4B484B49206002226160DC
S113B2E004F144010A70444A1068C0F3401000B9E4
S113B2F0022088704FF08050C860032363730120DC
S113B300A37364234870CB62404B1868000E03D0CB
S113B31018683F4F47EA106700973E4F01971F6830
S113B320C7F3074020B11E683B48C6F307460643EF
S113B33004961668C6F3001000B10D250127E573C5
S113B34004F5E07607FA05F07060681E87406D46E4
S113B350376004F1800795E8015187E8015104A89A
S113B36004F5987C90E8A0418CE8A0411D68C5F3E1
S113B370C03038B929A004F1900590E8805185E8DF
S113B38080510CE0012737731868C0F3C03010B93E
S113B3904B25758203E00A2710FB07F070821D68B5
S113B3A0C5F380300028707307D100BF1FA504F5D2
S113B3B0A87495E8C11084E8C1101C68C4F3C010D7
S113B3C018B11868C0F3C01008871268520A02F056
S113B3D00302012A05D002D3032A07D003D3642031
S113B3E005E0C82003E04FF4C87000E03220086391
S113B3F0002008B0BDE8F08104800F400304100C65
S113B400130418084643464200040156E0461F4010
S113B4100004100C08300424000418080F04C004AD
S113B4200124000000000000000000000F04C0041C
S113B430012400000000000000000000F8B50646EA
S113B4400D4604201C46002D8AB018BF002C38D0AD
S113B4500123032104930D2700238DF8041003977F
S113B4608DF81430029295F8470028B105F5CC7197
S113B4704A780392097804910421CDF820D00991E7
S113B48001212370039F05EB0710049B00F1800248
S113B4903046FFF71FFA012301A903933046FFF753
S113B4A047FA70B905F5E872009B1178002919BFB5
S113B4B05168926830212022194091421CBF012119
S113B4C021700BB0F0BDF8B504468AB0042039B33E
S113B4D0032609908DF8046000268DF81460012776
S113B4E001EB0716029200250497009501230397A8
S113B4F006F18002CDF820D001212046FFF7EAF9B9
S113B500039701A92046FFF713FA48B900994A079F
S113B51048BF44F6256003D40A0748BF44F62460B4
S113B5200BB0F0BD13460022FFF73AB870B50646DB
S113B5300D46042455B1FFF706F9040006D1012392
S113B54005F1800200213046FFF7C4F9204670BDA2
S113B5502DE9F84F88460424B8F1000F8CB01EBFC3
S113B5605FEA030ADDF85890B9F1000F52D0029255
S113B57008F5CA7715463A6B0B2301245543049505
S113B5800593069498F84720002A1CBF39780029AF
S113B59003D07B7805933C7806940190002308F14E
S113B5A080048DF81C308DF80C30059804EB0012E3
S113B5B0069B01980121FFF78DF90198012205925C
S113B5C003A9FFF7B5F9040018BF44F6206461D15C
S113B5D008F5E676327822B1F0880021F8F794F87D
S113B5E006E001982B464146FFF795FA040051D135
S113B5F00198FFF786FA707868B901986B462A4675
S113B6004146FFF71BFF040044D19DF8000010B928
S113B61044F622643EE0B0784FF0000B70B102991A
S113B620786BB1FBF0F0C20708D50198012308F14B
S113B630C00200214FF0010BFFF74CF9B5F1FC5F9C
S113B6400AD2019B0FF218514A4651F823004119BE
S113B6505046FCF7EBFA13E0032304958DF80C3005
S113B6600198002201238DF81C2003A9CDF828A0FD
S113B670CDF82C9005920693FFF75AF9040009D1EE
S113B680BBF1000F06D00198012308F180020021CC
S113B690FFF720F920460DB0BDE8F08FF8B5054658
S113B6A00C460420002C8AB0164653D0002004F522
S113B6B0C6778DF80000FB6BB86B5E4346432846A3
S113B6C03246FFF72FFF002844D1002305228DF8CE
S113B6D004308DF8143001230392049394F8471036
S113B6E000291CBF3878002800F0C8F80398049B90
S113B6F004EB00110296284601F180020121FFF7B4
S113B700E9F8012001A903902846FFF711F910B1C7
S113B71044F625601EE03346002221462846FFF702
S113B720FAF9B8B9324621462846FFF7CCFE00287C
S113B73004BF94F8CD1100290CD16B463246214642
S113B7402846FFF77BFE002802BF9DF80010002961
S113B75044F622600BB0F0BD2DE9F04782468946DD
S113B76004201E46B9F1000F8AB090461EBF002E79
S113B770129D002D45D0002309F5C8778DF80030BF
S113B7807C6B504604FB08F42246FFF7CBFE029480
S113B7900020069602230795092501268DF814003A
S113B7A08DF804300395049699F8471000291CBFBE
S113B7B03878002800F062F809F2CD15687888B16D
S113B7C0B96BB8FBF1F1C8070CD50A22039299F8BA
S113B7D0471000291CBF387D002803D0797D0391D0
S113B7E03A7D049209F18006049B0398012106EB3B
S113B7F000125046FFF76EF800F046F810B144F618
S113B800236038E00E2201238DF804000392049390
S113B81099F8470018B1797B03913A7B0492049B11
S113B820039806EB001201215046FFF753F800F08D
S113B8302BF810B144F624601DE02346002249464B
S113B8405046FFF768F9B0B9224649465046FFF71B
S113B8503AFE002804BF297800290CD16B46224601
S113B86049465046FFF7EAFD002802BF9DF8001044
S113B870002944F622600AB0BDE8F08703D0797845
S113B88003913A780492704701215046039101A92B
S113B890FFF74EB8000000002DE9F8430D460424DC
S113B8A01646002D8EB0814618BF002E00F033815D
S113B8B03268120F0C2A40F02E814FF40071284692
S113B8C0F8F7B8FB964A974B2A6005F130076B608E
S113B8D002203875032169733220A9730022786429
S113B8E001207C754FF080582A732946B875484664
S113B8F0C7F82080FFF71AFE04003ED10AA90020F1
S113B90000220023002481E81D00874A42F20243FA
S113B9100A920AAA0B93012301214846FEF7DAFF93
S113B920032202218DF804200122099101A9009427
S113B930484602948DF81440CDF820D00392049226
S113B940FEF7F6FF040017D1009844F62B6400F0CC
S113B950FF00FF2818BF00280ED03168C1F303612F
S113B9600029C2BF716801F0FF02002A03DD01F063
S113B970FF01884200D10024002C40F0C88001203F
S113B9802873317801F00F01B9753068C0F30310E2
S113B990022818BF042840F0BB80800205F5E0723D
S113B9A01060400050603168C1F3032103290CD8B2
S113B9B0DFE801F002040609402108E0802106E0E6
S113B9C04FF4807103E0202101E0202927D3916006
S113B9D0396A9368B1FBF0F0B0FBF3F3D3611068FC
S113B9E0B0F5805F0CBF0D200C20E8733068C0F305
S113B9F00340010009D001280AD002280BD00428F2
S113BA0018BF082800F0838007E04FF0806007E04B
S113BA104FF0006004E0404602E0B0F5007F77D3C9
S113BA20400005F1B001386240F2064008603F482A
S113BA3042F2014338667B6605F5987CDFF8F0E056
S113BA40DFF8F080CCF800E0DFF8EC90CCF8308040
S113BA50C1F82090CCF820003848CCF82430384B7A
S113BA60386538487B65002308664FF409504866FA
S113BA7093733068C0F3033060B13348334B486785
S113BA8033480B67334B08614FF41A508861012027
S113BA904B619073012305F121002B774FF0020CC9
S113BAA080F800C04FF0000C85F820302A4B3B672B
S113BAB042F201037B674FF0060EC7F800C04FF057
S113BAC0010880F804E080F80380244808634B638D
S113BAD01921796082F810803068C0F3036000286F
S113BAE00EDD7068C0F3074100291CBFC0F30720B6
S113BAF0002805D051617068C0F30720906103E00D
S113BB0030202023506193610221397500E014B97B
S113BB102846FCF7CBFC20460FB0BDE8F0830000BC
S113BB2046434642000401569F0400040F04C00427
S113BB301304180810041808D80418086B04100C0F
S113BB40083280263204100C0C0C402232040118F6
S113BB506B0401180C0C08321F04A0041F04B00469
S113BB60000000604FF0FF31002201604260704726
S113BB7030B543680468134DD318436007E011F8E7
S113BB80013B83EA146355F8233083EA0424134603
S113BB905A1E002BF3D1046030BD70B542680368AF
S113BBA012F0030F0BD002F00302C2F10402054CA1
S113BBB01D0E521E54F8256086EA0323F8D1036053
S113BBC00B6070BD1425000010B5037B4FF47A742C
S113BBD0624333B1042B07D0052B08D0062B09D0C0
S113BBE00BE047F25F630AE042F22B4307E041F6C1
S113BBF05E5304E041F2887301E043F62F330C00F6
S113BC000BD1002000E0401CC1B259439142FAD349
S113BC10C1B2102911DB0F200FE001290DD1102032
S113BC20C4B2411E5C43A24204D20846C9B20029F0
S113BC30F6D102E0C2B202B10846C0B210BD2DE98D
S113BC40F843804686B008F13805E9466F7E022F36
S113BC500CD100212A4603E0107800B10121521CC6
S113BC6008F146009042F7D221B143E002DC1820EB
S113BC70474301E000276F76DFF8BC45182168468A
S113BC80E619F8F7D7F907E036F8022B0021404609
S113BC90FFF79AFF29F8020B0DF112004845F3D281
S113BCA004F114014046CA5B0121FFF78DFFADF892
S113BCB01400BDF800002870BDF802106970BDF8CA
S113BCC00400A870BDF80610E970BDF808002871DA
S113BCD0BDF81210E971BDF814002872BDF80A10FD
S113BCE06972BDF80C006871BDF80E10A971BDF839
S113BCF01000A87207B0BDE8F0832DE9FF470025C6
S113BD00044601958A46009505F056FE8046F7F7ED
S113BD1019FA06460F465046F7F71EFACDE9020116
S113BD2000F0DAF88146434601AA022105F08BFEB1
S113BD30DDE9024A09E000F02AF800F02EF822D0EA
S113BD40009810F0220F0CD10190F7F7FBF9801B3B
S113BD50B9418A45EFD828BF8442ECD245F26C2021
S113BD6012E0434601AA0221484605F06CFE00F0A9
S113BD700EF800F012F806D0009881064CBF45F288
S113BD80712545F27225284604B0BDE8F087434684
S113BD906A460221484605F056BE0198009900F013
S113BDA0400001F0400188427047F8B50546DFF8CD
S113BDB08C7480213846F8F73DF9DFF8846405F087
S113BDC0FBFD72680446306800F023F9F268B0683D
S113BDD000F01FF930692346902200F01BF905F0AA
S113BDE0EBFD03463068982200F014F90021284640
S113BDF005F015FF8022394605F0B1FE04462846B9
S113BE0000F05FF8284600F05CF8284600F03EF8A1
S113BE100CB12046F2BD798CBA8C97F82000090247
S113BE2001F47F41120402F47F0208181018DFF8AD
S113BE301414884202D045F27020F2BD07F1420486
S113BE40B7F84000E2880123101803FA00F0706389
S113BE50278821894FF47A70CF1903FA07F74743EB
S113BE6005F1A001B763E28A012A0AD1A08BE28B13
S113BE7000EB02454D60208B628B00EB02456D1C8C
S113BE808D60608A834000200B60F2BD70B504466B
S113BE90DFF8AC6305F090FD00F01DF8044672680D
S113BEA030682B4600F0B6F8F268B0682B4600F014
S113BEB0B1F82B462046F0220321BDE8704005F07E
S113BEC0A5BD38B5044605F077FD00F004F82B460F
S113BED001B0F02216E005460021204605F09FBE81
S113BEE038B5DFF85C5305F067FD6A6804462868D6
S113BEF000F08FF8EA68A86800F08BF823462869F8
S113BF0001B020220321BDE8304005F07FBD38B5E3
S113BF10044605F051FDFFF7DEFF04462B46902250
S113BF2000F078F82B46204601B00022EAE72DE91C
S113BF30F14F82B090F8225016465A428846ED08D6
S113BF40684202405242B3FBF5F005FB1033B2FBEA
S113BF50F5F91C0018BF012405F02EFD8DF8000032
S113BF6002984F469DF80030D0F8A010CDF8048018
S113BF70B1FBF5F0814588BF0746252203214046E1
S113BF8005F044FD9DF8003001987A1E00F042F857
S113BF909DF800A055451CBF284605F0E9FC4FF06C
S113BFA0000BBB451DD2022D32780AD1781E834581
S113BFB002D07078000203E0002CFAD04FF47F40E6
S113BFC082182B4640460321761905F01FFDA8442C
S113BFD00BF1010BE5E70298FFF758FF45F27420D7
S113BFE015E055451CBF9DF8000005F0C1FC9DF807
S113BFF000300198292200F00DF89148416B029815
S113C000FFF77BFE0028E6D1B9EB0709A8D1BDE80C
S113C010FE8F2346032105F0F9BC00E0491E31B12F
S113C02010F8012BFF2AF9D045F276207047002042
S113C030704710B500E0521E42B110F8013B11F8F0
S113C040014BA342F7D045F2752010BD002010BD6E
S113C05070B50446FFF7F3FD204605F0FCFF002809
S113C06046D194F8520010B145F26E2070BD744D63
S113C070002105F130000022002380E80E00302169
S113C0802846F7F7D7FF94F8220040F255510828C4
S113C09008D140F6AA20A96028602861A861296215
S113C0A0A86209E0102807D140F2AA202960A860FC
S113C0B02961A9612862A962002655F83610204634
S113C0C005F0ADFD45F83600761C062EF5D3AA2002
S113C0D055216860E8612046E9606962FFF7D6FE91
S113C0E02046FFF762FE18B92046FFF7CFFE002076
S113C0F070BD2DE9F04107460C4697F822005049DF
S113C10015460C633A691E46C008944221BF7969FA
S113C1108A1831198A4238BF45F26D2021D3B4FB05
S113C120F0F100FB114010B145F26F2019E03846E0
S113C130FFF7D6FE33462A4621463846FFF7F7FE78
S113C14080463846FFF7E3FE3846FFF79FFE97F830
S113C150E00028B9324629462046FFF76AFF8046A8
S113C1604046BDE8F0812DE9F84F0546344FD5F837
S113C170A4B0286905F1A4020BFB010BC7F830B089
S113C1805368994202D22869834502D245F26D2050
S113C1904FE02846FFF7A4FE05F00EFC04460021FC
S113C1A0284605F03CFD23468022FFF733FF234653
S113C1B030220321584605F029FC05F0FDFB814699
S113C1C0F6F7C0FF06468A46C820F6F7C5FF0446C0
S113C1D08846F6F7B7FF801B61EB0A01884502D851
S113C1E028BF844210D3386B4B466A46022105F0BF
S113C1F02AFC00980107ECD5B96B2846FFF77DFDB2
S113C200040003D1002404E045F26C242846FFF71F
S113C2103DFE2846FFF77BFE2846FFF737FE95F8DC
S113C220E00028B9D5F8A4105846FFF7F6FE0446F6
S113C2302046BDE8F28F0000DC2E000030EE010045
S113C240F4ED01005152590070B5644C216801F0BD
S113C250070103290BD8DFE801F0020406080021D6
S113C26006E0032104E0042102E0052100E00621A8
S113C27001732168C1F3002101B1022100F14105DC
S113C28000F121022974297C554B02292DD11E6805
S113C290360A06F0030606EB8606D6751968090CFD
S113C2A001F00F0191761E68360D06F00F06D67662
S113C2B01968890B01F0030101EB810129701D68E4
S113C2C02D0E05F00F0595771968090FD1771D68B4
S113C2D0AD0A05F0030505EB850515761968090B0C
S113C2E001F0030101EB810151762168C1F3402182
S113C2F000290CBF1021082151702168C1F380214D
S113C30001B10121C173186810F007000DD0012894
S113C31006D0022809D0032804D0072804D006E058
S113C320012105E0032103E00520D07101E004218F
S113C330D1711868C00800F00700001F03280BD84B
S113C340DFE800F002040608192006E01A2004E0E1
S113C3501B2002E01C2000E0182010701868C0F3B5
S113C360801000B1012050721868C0F3C010401E44
S113C3708041C00F107270BD70B504464FF48071D7
S113C380F7F758FE04F1500500226A700523237361
S113C39004F122061020327230700122F27120461C
S113C3A0FFF752FF00200F4AA8704FF01041287089
S113C3B04FF48033226000222072FF206073A07348
S113C3C04FF0807021610C2163606061402084F82B
S113C3D02020B0700020717070BD000004800F40F8
S113C3E0E0461F4053454D4310B5924B01221C6853
S113C3F004F0010402FA04F404601868C0F3430072
S113C40000281DBF1868C0F34300824040220A6020
S113C410002010BD30B587490A68C2F30022531EBC
S113C4209B41DB0F00F1520213700B68C3F34023EE
S113C43003B10123D3700968C1F3802101B1012143
S113C440C1737D4B196800F1210401F00701032930
S113C4500CD8DFE801F002040608002107E00125FA
S113C46002E0022103E00325E57301E00421E17306
S113C4701968C1F3C001002914BF102108212170DB
S113C4801968C1F3001101B1012180F82010196865
S113C490C1F34011491E8941C90F21741968C1F3C0
S113C4A08011491E8941C90F91721968090A01F066
S113C4B00701891E05290ED8DFE801F003050707E7
S113C4C0090B022108E0042106E0012104E0032114
S113C4D002E0072100E0002161701968C90A01F037
S113C4E00701491E062913D8DFE801F00406080AEB
S113C4F00C0E100009210CE00A210AE00B2108E0CF
S113C5000D2106E00E2104E00F2102E0102100E0DD
S113C5100C21A1701968C1F3803101B10121D172DC
S113C5201968090C01F00701072915D8DFE801F0A3
S113C5300C0406080A140E1108210FE010210DE066
S113C54020210BE0402109E0802107E04FF4007135
S113C55004E04FF4806101E04FF48071C0F8A8104A
S113C560107828B11868C0F3006000B10120107180
S113C57030BD70B504464FF48071F7F75BFD04F1EC
S113C58050050122AA7004F121066A710820307056
S113C590002184F82010052031740C2229732073A3
S113C5A0002071704021B270002268730120A965D7
S113C5B0AA71E87020466272FFF72CFF00204FF446
S113C5C00073012128706870012228714FF47A7079
S113C5D0AB602982E8813178286D082908BF96F973
S113C5E0020003D0102903D1B078401C02FA00F0F5
S113C5F02865400968654FF48061E96500202A6672
S113C6000E4984F8E000FF2021604FF00071607350
S113C6104FF48033A0734FF01E4022720022206139
S113C6204FF00040616140216360A261E06100203D
S113C630F17070BD04800F40E0461F4053454D43E8
S113C64030B5047B4FF47A756A4334B1042C07D0B7
S113C650052C08D0062C09D00BE047F25F640AE0F1
S113C66042F22B4407E041F65E5404E041F2887440
S113C67001E043F62F34012505FA03F30D000BD135
S113C680002000E0401CC1B261439142FAD3C1B220
S113C69099420CDB581E0AE0012908D100E0034648
S113C6A0D8B230B1581EDBB263439A42F7D3C0B25A
S113C6B030BD1846FBE700002DE9F043804608F141
S113C6C0400687B0F77CE946DFF8342B082F18DAE8
S113C6D0380018D10023B44605E09CF8000000B1EE
S113C6E001230CF1010C08F14C006045F5D243B173
S113C6F01078002876D1012907D198F8800050706D
S113C70070E00127F7741078E0B9080008BF01272A
S113C71018D0012916D1F07C801E042810D8DFE837
S113C72000F00C0A0805030005210AE004235370F5
S113C73008E0032002E0022103E00120507001E040
S113C740002151701C22DFF8E84B57431C21684636
S113C750F7F770FCE51906E035F8022B042300F026
S113C76044F829F8020B0DF10E004845F4D206A94D
S113C770894507D235F8022B062300F036F829F84C
S113C780020BF4E704F118000623C25B012100F058
S113C7902DF8ADF81800BDF800003070BDF8021097
S113C7A07170BDF80400B070BDF80610F170BDF8EA
S113C7B008003071BDF80A107171BDF80C00B07139
S113C7C0BDF80E103173BDF81000F071BDF81210F1
S113C7D03172BDF814007072BDF81610B172BDF854
S113C7E01800F07207B0BDE8F0830021404627E747
S113C7F02DE9F8438046DFF8D06B4FF48071304662
S113C800F7F718FC0022012100920422EC2008F121
S113C810500705F0B6F901466B460022002005F0EA
S113C820CEF90400DFF8D85913D1A868397BB0F5E4
S113C8307A7F38BF4FF47A70012905D1014600F0A0
S113C840D7F8040005D101E0F6F78FFC00F0CAF830
S113C8500446002C1DD13068DFF8709B484515D183
S113C86000216846ADF8021005F085FCFE22314631
S113C870684605F084FC0DF10201684605F078FC79
S113C880BDF80200B6F8FE10884216D000F0AAF8EF
S113C890040040F09F8000200021CDF800901DF896
S113C8A00130725C934208BF401C491C0429F6D332
S113C8B00128D0D845F2D5208DE00720DFF8102BD1
S113C8C03870002000210C2306EB010E43439EF830
S113C8D0209013445B5C4B4502D1491C0C29F2D3D4
S113C8E00C297AD1387030890106890E01F00101D2
S113C8F0C0F3C000297600B101207873306D38652B
S113C900002100E0491C4008FCD108F12100027814
S113C910082A02D0102A01D1491E817006F154015F
S113C9200A887A658B68BB65CA68FA650B7C3B66C6
S113C930497C112910D012290CD0132908D021299F
S113C94004D022290CBF0221002106E0042104E0C6
S113C950012102E0032100E007214170F97806F18A
S113C960810007291CD10178C1F340120AB10621C4
S113C97012E0C1F300120AB105210DE0C1F3C002B7
S113C9800AB1042108E0C1F380020AB1032103E0E3
S113C990C1F3400111B10221F97001E00122FA70E2
S113C9A0027A417A02EB0121A9608279C37989086C
S113C9B002EB03222A6106794379920806EB0323EA
S113C9C0EB60A9602A619B08EB60C17A807A00EB76
S113C9D0012068612046BDE8F283401C0728FFF46B
S113C9E071AF80E74FF480723146404605F053B88A
S113C9F001224046FFE72DE9F84F80468B46144656
S113CA0008F15C05F6F79EFB06460F4668884FF46E
S113CA107A714843F6F7A0FB81468A46F6F792FB03
S113CA20801BB9418A4502D828BF814511D3287893
S113CA3090B98DF800005846F6F797FB69464046D2
S113CA4000F06CF8C0B99DF80000800900F0010006
S113CA5006E045F2D0200FE00128DFD105F08AF886
S113CA600028DBD0012C404604BF2978002902D1DC
S113CA7000F004F800B90020BDE8F28F1CB500F006
S113CA80A3F828B90222002105F07BF800F048FB46
S113CA9016BD7CB50023054600930E46307804226B
S113CAA0012105F06EF8014670786B46002205F00E
S113CAB086F8040030D13078EF2815D10422B11C57
S113CAC0284605F00DF8040026D195F85C000128ED
S113CAD005D1002200212846FFF78DFF1BE04FF40B
S113CAE07A70F6F742FB17E0EE2815D195F85C0052
S113CAF0012807D1012200212846FFF77CFF04000A
S113CB000AD103E04FF47A70F6F72FFB0422B11C2C
S113CB10284604F0C0FF0446204676BD7CB5044692
S113CB200D4694F85D0001280FD1DFF8D466337800
S113CB30022B03D108220021712009E006220521DD
S113CB40782005F01EF8746805E0082200217020A2
S113CB5005F017F8A46901466B460022204605F04B
S113CB602EF810B900982870002076BD7CB50D46CB
S113CB7000F02AF8F0B9DFF88866307802280BD183
S113CB8000F01DF800F054F8A0B9B4F86010B068D3
S113CB90884228BF01460EE000F011F800F048F882
S113CBA040B903220021302004F0EBFF00F040F8EC
S113CBB00028EAD076BD012200F011FC76BD0422E3
S113CBC00021002004F0DDBF00230446009300226E
S113CBD0002110E77CB50023160004460D4600939F
S113CBE00ED100220021FFF706FF40B904220021E4
S113CBF0802004F0C6FF00F01BF800B9002076BDC9
S113CC00012AFBD102220021102004F0BAFF00F017
S113CC100FF80028F3D1B4F86010DFF8E405C06819
S113CC20884228BF014600F0D9FB0028E6D076BD33
S113CC3001466B460022284604F0C1BFFEB50C46EF
S113CC4000F15005A979A1421BD02A78DAB9DFF89E
S113CC50B065317EB9B10FF61003012CD3E900673A
S113CC60CDE9006703D100218DF8021004E0210012
S113CC7004BF08228DF802206946FFF70AFF08B9AD
S113CC80AC710020FEBD200002D145F2D620FEBDCD
S113CC90012CF6D145F2DB20FEBD38B5044604F183
S113CCA0540108780125002804BF4A78012A15D1C7
S113CCB0002369468DF800302046FFF72FFF002837
S113CCC0204603BF9DF8005005F0010585F00105DD
S113CCD00025FFF7D3FE08B1012032BD284632BD3E
S113CCE00246012000E0491E21B112F8013BFF2B4E
S113CCF0F9D0002070472DE9FC41DFF8D856002414
S113CD00804628780E4608F16007022820D11000DA
S113CD1017D1009400220021FFF76BFE04003ED1DE
S113CD2004220021502004F02CFF00F03BF8040002
S113CD3035D13988A868884228BF0146FFF758FED4
S113CD4004E0012A2BD14046FFF710FF044626E0F9
S113CD500AB9386C8619002100220091FFF749FEB8
S113CD6004001CD104220221052004F00AFF00F073
S113CD7019F8040013D103220021E02004F001FF7C
S113CD8000F010F804000AD1686900281DBF4FF4B0
S113CD907A71B0FBF1F0401C0120F6F7E6F9204669
S113CDA0BDE8F68101466B460022304604F007BF19
S113CDB02DE9F8430546C0B0894605F15407397892
S113CDC00024002904BF7878002848D1FE6C7B68D1
S113CDD0FF224FF480716846B6FBF3F8FBF7CAFBF9
S113CDE0687A01280AD128693A6D6946B9FBF0F3DB
S113CDF000FB0366304604F0B2FE13E0A0B9002243
S113CE0049462846FFF777FF040028D13A6D694662
S113CE10284604F040FE040021D101224946284658
S113CE20FFF769FF04001AD14FF480716846FFF7D9
S113CE3057FF00B10120DFF89C558021687605F189
S113CE401C00F7F7F7F8002069461C3505E001EBF4
S113CE50C002536845F82030401C4045F7D32046B3
S113CE6041B0BDE8F0832DE9F0470C4600F15406CB
S113CE7031780125002901BF7278002AF178002950
S113CE803DD1F26C71680027DFF8489509F19C0ADE
S113CE90B2FBF1F8427A012A0AD10069241A07E0A8
S113CEA0706809F5277182448A4528D204197F1CC9
S113CEB0474524D2F06C7168B4FBF0F200FB1240D9
S113CEC0B0FBF1F0B842F2D15046FFF709FF002859
S113CED01CBF99F819000028E2D109EB870170689A
S113CEE001F11C02514600B205F017FA45F2343143
S113CEF088421CBF45F235329042D1D000252846E5
S113CF00BDE8F0872DE9F34F1546E5B0659A00209A
S113CF1001901C4602F154063178002904BF707850
S113CF20002863D1F26C7368802144A8B2FBF3FB40
S113CF30F7F780F8F278002A5CD14FF00008AA468F
S113CF40DFF894240395C1460092002525E0B9F149
S113CF50000F15D171680098FF224FF00109FBF70B
S113CF6009FB0BE0009822465146FAF75FFE009851
S113CF70FF22391B20440024FEF764F9DDF800A0E9
S113CF80706802AA514600B205F010F9029944AA49
S113CF9042F8251070686D1C80445D452AD200213A
S113CFA0002C0291D3D077680398BC4200EB080AA6
S113CFB0D8D3E41BE4E702EBC40351F82400641C57
S113CFC058605C45F7D36598407A012807D1669884
S113CFD0F36C326D04A9181804F0C6FD05E028B9F5
S113CFE0326D659804A904F07BFD0190019867B047
S113CFF0BDE8F08FFF224FF4807104A80024FBF7F2
S113D000B9FA44A904AADCE72DE97C43044604F1F7
S113D01047057B4E1C213046F7F70CF8EA7A04F1F9
S113D02022010AB1002008E0087800281CBF022869
S113D030042801D1012000E002203070687B28B967
S113D040AA7B501E8041C00FC87001E00022CA7044
S113D05000212046FFF730FB204604F0FCFF0028A7
S113D06058D13178002949D100900222FF2004F0E0
S113D07088FD00F055F800224FF47A7100F0AFF902
S113D080002847D12046FFF7B3FB002842D10121F5
S113D0902046FFF711FB607A012809D172690AB9A9
S113D0A04FF4FA72062301212046FFF7C9FA2870CB
S113D0B07278FAB1062A1DDA317E0020C9B10FF266
S113D0C0A0336946D3E90089CDE9008900F024F84A
S113D0D000BBEE2100228DF80010694600F01CF818
S113D0E0C0B99DF802107278914218BF45F2D7205A
S113D0F010D178B9204604F0AEFF58B9697B49B91C
S113D100A97B012908BF002101D019B901212046BA
S113D110FFF794FDBDE876838DF802202046B8E43D
S113D1200146A0696B46002204F049BD2DE9F04B8D
S113D13007469046D7F8A000FA691D46414391423C
S113D14028BF45F2D12027D2A84238BF45F2D320C8
S113D15022D338469F4E04F01DFD01468946716076
S113D160787A01280AD1D7F810903846FFF7FEFCE8
S113D17090B93846FFF791FD48B93AE038B93846D6
S113D180FFF7F4FC40B93846FFF787FD88B34946FA
S113D1903846FFF70DFE78B3BDE8F08B4FF4007B03
S113D1A0AB453146404688BFAB465A46D944FAF7A8
S113D1B03DFDD844A5EB0B0555B1787A012809D17A
S113D1C04FF400723146484604F0C9FC04000AD00A
S113D1D02046E1E738B94FF400723146384604F08E
S113D1E05AFC0400F4D149463846FFF73CFE0028B7
S113D1F0D4D145F2D420CFE700249C36DCE70000EC
S113D20020A201002DE9F34F83B00546D5F8A00014
S113D2109346EA6900274143914228BF45F2D12051
S113D2206BD29842029338BF45F2D32065D3284687
S113D230684E04F0AFFC01907060687A012808BF62
S113D2402F6901D000B9019F019900222846FFF7F8
S113D250C1FC040050D14FF0000806F19C00029C70
S113D260C24600901FE0E8B932464946284604F019
S113D27037FC16E0BAF1000F0AD100984FF400769B
S113D280FF2231464FF0010AFBF774F9DDF80090F4
S113D290687A0128E7D13246494608EB070004F0D2
S113D2A063FC40BBB044D5F8A000804528D2002CD4
S113D2B0E0D0B4F5007F04D3660A7602D946A41BF5
S113D2C0E6E7009822460BEB08014FF40076FAF7E4
S113D2D0ADFC0098FF22C4F5007120440024FDF742
S113D2E0B1FFD3E795F8E00030B9029B04995A46A0
S113D2F0284600F09FF80446204605B0BDE8F08FAC
S113D300029B39465A462846FFF7FCFD0400F3D138
S113D310019901222846FFF75DFC0400ECD1284660
S113D320FFF7BBFC0028DDD145F2D420E5E700007F
S113D3307C2D00002DE9FC4104460D4604F16006F5
S113D340E269B16C306C69434143914228BF45F2B4
S113D350D12036D220461F4F04F01CFC804600200A
S113D36000900022C7F80480002100F038F840BB88
S113D37004220521602004F004FC00F033F800BB13
S113D38003220521D02004F0FCFB00F02BF8C0B9E7
S113D39031883869884228BF014600F01FF880B9F7
S113D3A02046FFF77AFC10B945F2D42009E094F83E
S113D3B0E00028B9B26C20465543294600F018F81D
S113D3C00020BDE8F6810000BCA401004F4E464990
S113D3D05C2E000020A20100BCA201000022204615
S113D3E0FFF709BB01466B460022404604F0E7BB49
S113D3F02DE9F041804608F1A0056C6C0E461746F5
S113D40044B945F2DA2013E029682046FFF768FCA6
S113D41060B1761C3846471E50B12B68224631460F
S113D4204046FFF783FE0028EED001E045F2D92004
S113D430BDE8F08170B5D0F8E44015461E4614B935
S113D44045F2DA2070BD2246FFF770FE38B9324645
S113D45021462846FDF700FF08B145F2D82070BDEB
S113D460EF01000000000000EF9000000000000049
S113D4700022FDF7E7BE000070B504460D46DFF854
S113D480286320213046F6F7D5FD2278012A02DDF3
S113D49042F6CE1070BD6078212809DA6168012255
S113D4A002FA00F38B4222BF08388240914202D232
S113D4B042F6CF1070BD1C2221463046FAF7B6FB67
S113D4C07068F561B0F5007F04BF09217170002018
S113D4D070BD1346B44A70B5957C0446526800206A
S113D4E01E19B24202D242F6CC1070BD2A0000D1FD
S113D4F06CE02BB10A4621462846BDE87040A8E0FE
S113D50070BD2DE9F8438046002401EB0809A64FBD
S113D5107868FD68FE7D484504D242F6CC14204666
S113D520BDE8F2839EB9BE7DBD6886B9387830B354
S113D53001280CD1404600F03EF90446EFE7002CE8
S113D540EDD1387DD8B100F023F90028FBD1C845CE
S113D550E5D200F0FEF80400E1D1002300224146A8
S113D560304600F076F80446B8FBF5F105FB11806F
S113D57000281ABF481C05FB00F8A844DFE742F660
S113D580D010CDE770B5884D2E7E6968300008D183
S113D5902878A0B1012804D1002000F00CF9044639
S113D5A012E000F0D6F804000ED10023002200217E
S113D5B0304600F04EF8040006D1287D00B905E09D
S113D5C000F0E6F80028FBD1204670BD42F6D010EA
S113D5D070BD2DE9F84F81468A469046002408EB39
S113D5E00901714E7068B768757C884204D242F6AE
S113D5F0CC142046BDE8F28FCDB942F6D010F9E73D
S113D600C34688455246284688BF8B465B464946F2
S113D61000F01FF80400D944DA44A8EB0B08E8D161
S113D620307D0028E9D000F0B3F80028FBD1B8F130
S113D630000FDED000F08DF80400DAD1B9FBF7F169
S113D6407943B9EB01001ABFA7EB09000918394661
S113D650D6E72DE9FC471C46534FFB6982468946B1
S113D66090467D780022002100209847BAF1000FEF
S113D6702CD0397C8A4508BF012628D07A7C924573
S113D68008BF022623D0B97C8A4508BF03261ED0D2
S113D690FA7C924508BF042619D0397D8A4508BF13
S113D6A0052614D07A7D924508BF06260FD0B97D91
S113D6B08A4508BF07260AD0FA7D924508BF082686
S113D6C005D0397E8A4508BF092600D0002678781F
S113D6D0092804D1B9F5807F28BF4AF0080A092D2A
S113D6E08DF800A008BF08250121B01E012884BFC1
S113D6F0401F012814D86D1EAB1005EB5371002098
S113D7000DF10105C910491C07E04A1E121AD20086
S113D71029FA02F32B54401CC0B28842F5D3491CA9
S113D72021B1FB6902226846984780B94CB10122B5
S113D730761E012EFB692146404698BF0222984777
S113D74028B9FB6903220021002098470020BDE886
S113D750F68738B51448047D457D200001D02800A3
S113D76002D142F6D01032BD00F020F80028FBD1DF
S113D7709DF80000810709D40023002200212846D7
S113D780FFF767FF9DF800008107EDD5002032BD4B
S113D7901CB50548047D00F009F80028FBD19DF86C
S113D7A0000000F0010016BDC4F1010001236A4627
S113D7B0002120464DE77FB505460C46FF22102187
S113D7C06846FAF7D7FE01E07519A41B5CB1102670
S113D7D0102C6946284638BF26463246FFF7F9FE24
S113D7E00028F1D000E0002004B070BD00F01F025A
S113D7F0DFF84835000A914003EB800030B503257B
S113D80095400468AC432143016030BD0321EDE73A
S113D81021B1016941F001010161704702695208B7
S113D820520002617047426A01F00101520841EA64
S113D8304201416270475202036942EA01221A43DB
S113D84002617047120401F00F0102F470221143C7
S113D850816570470146002010B500BF05A2C3B220
S113D86052F823308B4203D0401CC4B2052CF6D3AB
S113D870C0B210BD000000000040394000803940B3
S113D88000C0394000003A4010B50C46FFF7E2FFF3
S113D890DFF8AC140C5410BD7CB50D4600210446D1
S113D8A016460091FFF7D6FF38A232F91000FFF7B1
S113D8B0ADFF204600F05FF801212046FFF7B3FFDB
S113D8C06A7E297E204600F067F8616AEA7EDFF806
S113D8D074046B46920602F0806201401143A87EF4
S113D8E03246000600F04070014320466162296818
S113D8F000F05DF80022002100F012FA697A287A1B
S113D9006A6800F029F8A87A00F02CF800982A7EBA
S113D910C00600F0605001432046120602F0407237
S113D920114321660121FFF773FFE96833460122A1
S113D930204600F092F8296933460222204600F07E
S113D9408CF8696933460322204600F086F80021EA
S113D9502046FFF799FF73BD890701F0804141EA32
S113D960C0717047521EC2F30B02C00500F40000E0
S113D970014311437047016941F0020101610269E9
S113D980002142F44072026101617047FFFF00010F
S113D990020104010601000010B5436A08310124A4
S113D9A08C4002FA01F1A3431943416210BD2DE9F1
S113D9B0F04705468A46686A94461C46C00702D565
S113D9C02969CA0701D5002028E04FF0FF3007225B
S113D9D0FF234FF0000E00210FF28848002618F8AC
S113D9E00190B71C07FB09F9BCFBF9F9CA4507D339
S113D9F0AAEB0907874203D238460A463346CE4685
S113DA00761CFF2E0CD80028E9D1286C03F0FF0304
S113DA10000A43EA002370462B642260BDE8F087C5
S113DA20491C0729F1D80028D8D1EEE7012A04D0EF
S113DA3012D3032A0CD004D37047026C61F317424B
S113DA4009E0036C23F07F4343EA016303647047F6
S113DA50026C61F30F22026470472DE9FD4783B025
S113DA600E4603990FF2FC3001254FF0FF384FF0BA
S113DA70FF0A0A6EC2F3C2619DF81020445C0021C3
S113DA80032AB3FBF4F0CDE900010AD1DFF8B04377
S113DA908946B4FBF0F4DFF8AC0300F03BF8022550
S113DAA008E0DFF888438946B4FBF0F4DFF8980314
S113DAB000F030F8C94501D8B44207D39DF81020CE
S113DAC003980021FFF7B2FF204620E044460027D8
S113DAD0029680467819DFF85413A1FB000100F088
S113DAE01AF8494501D8B04205D3821BA24202D29A
S113DAF01446BA4680467F1CFF2F01D8002CE9D17A
S113DB009DF8102003985146FFF790FF404606B059
S113DB10BDE8F0873B21DDE9002303F08FBE816877
S113DB20E1B10368002B04BF4168002916D0052A1F
S113DB3007D28068B0FBF2F102FB110272B9012036
S113DB40704712F0030F806802D09042F7D005E0CE
S113DB50B0FBF2F102FB1102002AF0D00020704762
S113DB602DE9F84F84B005462C6E0F46C4F30B0420
S113DB70641CE11DC9080191FFF76CFEDFF8C021A8
S113DB80214612F80080019A3846FFF7C8FF0028A2
S113DB905CD06869C10148BF4FF4C87057D43C6871
S113DBA079680091BE68BA6848EA082002926968F8
S113DBB040EA084001224FF0000940EA086B0120C6
S113DBC0090A88400390F8680709010D800D01F0E7
S113DBD0010800F0010A01212846FFF72CFEDFF8B6
S113DBE06C126961009808B94FF0010900212846B8
S113DBF0FFF70EFE686A20F008006862686A00F0A9
S113DC0092F818BFB0F1007F04D1E4B9686A40F01B
S113DC108060686201212846FFF7FAFD286E3F06FE
S113DC2007F0407720F04E7040EA485040EAC9407F
S113DC3007432F66019804280AD801A991F8009097
S113DC40CDF804900BE000980028E3D0042048E0CD
S113DC5004229146019202E00097CDF808808EB329
S113DC6001998E423CBFF0B201900398E96D01F036
S113DC701F018142FAD003903CB1019952462046DB
S113DC8000F062F8834601980444C5F864B0019931
S113DC900098761A0028E2D00746DDF80880E86D7F
S113DCA0C0F304400028D7D0C845696F53463846AE
S113DCB038BF5FFA88F94A464F4400F07DF8A8EB74
S113DCC00908ECE7E86D039900F034F8FAD02A6EFD
S113DCD022F480122A66009848B969694805FCD57F
S113DCE0002005B0BDE8F08F0094C146029602986A
S113DCF00028F5D0009C0646C846E86DC0F30440F1
S113DD000028F1D04645696F5346204638BF5FFA74
S113DD1086F84246444400F04FF8A6EB0806ECE7C8
S113DD2020468FE5606A00F04070B0F1807F704754
S113DD30E06DE97800F01F008842704768C00F402A
S113DD4038930100F7FFFFF830B50024491E03297A
S113DD5003462ED8DFE801F002050E1A13F8014B32
S113DD6027E05C781978002A14BF44EA012441EAC8
S113DD7004241EE05C789D78197824021AB90C43B7
S113DD8044EA054415E044EA014411E0DD78997859
S113DD9058781C7832B944EA002444EA014444EA3D
S113DDA0056406E02246040444EA026444EA0124C9
S113DDB02C43204630BD000030B50C0C0D0A521E19
S113DDC0032A21D8DFE802F002050C1500F8011B34
S113DDD030BD13B90170457030BD0570417030BD60
S113DDE01BB901704570847030BD0470457081703A
S113DDF030BD0A0E23B9017045708470C27030BD05
S113DE00027044708570C17030BD436A104ADB07EC
S113DE1044BF526910479369184700000C48416891
S113DE200C48F2E70A4881680B48EEE700CA9A3BBF
S113DE300748C1680948E8E7054801690848E4E774
S113DE400094357700CA64D60000CA9A033F0001E3
S113DE501C930100004039400080394000C0394023
S113DE6000003A400102040810204080014601F0FD
S113DE70FF0000F1804000F57C200A0A006802F0EF
S113DE801F02C1F34C3191400840D040704710B597
S113DE90039C01F00701240104F0100421430160F4
S113DEA002B1136010BD009808B101990160704778
S113DEB0DFF840188842E0B513D1DFF83C3800227F
S113DEC00093002301920521DFF83008FFF7DFFFFC
S113DED00FF614131F211A68DFF8240800926A460B
S113DEE017E0DFF82018884215D10020DFF8182841
S113DEF001900023009200220521DFF81008FFF7AB
S113DF00C6FF0FF6E8006A460168DFF804080091CE
S113DF100621F5F71FFC07BD0A46DFF8D81788422B
S113DF2003D11F21DFF8D80706E0DFF8D83798427D
S113DF3004D10621DFF8D807F5F746BC7047FEB5D3
S113DF40DFF8B017DFF8CC47884207D1DFF8C857AD
S113DF50DFF8C8670027009601970AE0DFF8A417E6
S113DF60884214D10020DFF8B867DFF8B857019071
S113DF7000960023002206212846FFF788FF01941B
S113DF8000230096002206212846FFF78CFFF7BDE8
S113DF902DE9FE4F00F080FA4FD1491E012984BFBC
S113DFA0091F012923D80020DFF87C57DFF87C778C
S113DFB000F0EEF8DFF878B7FFF769FF0022DFF82A
S113DFC0746701920023009600215846DFF8689791
S113DFD0FFF75DFF00F07CFA00F0C1FA00F0DFF813
S113DFE0019400F0ADF8FFF75EFF00F0A7FA0120FE
S113DFF0DFF84857DFF8487700F0CAF8DFF844B78D
S113E000FFF745FF0020DFF84067019000F098F823
S113E010FFF73DFF00F09AFA00F0C1F8DFF82C0793
S113E020002301900022009600215846FFF73BFF91
S113E030019400F051FA00227EE000F027FA7DD12D
S113E04001293DD0022903D0052939D0062950D110
S113E0500020DFF8FC16019000230091DFF8F4267D
S113E0600021DFF8F406FFF712FF0020DFF8EC567A
S113E070019000F06BF8FFF70AFF0020DFF8E0B62C
S113E080DFF8E0860190DFF8E06600F07BF800201E
S113E090DFF8D8A6DFF8D8960190DFF8D87600F03C
S113E0A06BF8DFF8AC160194009100F0DAF80194F3
S113E0B000F04CF8FFF7F7FE00F057F800F04EF8C8
S113E0C000F033FA0020DFF8B0B6DFF8B086019034
S113E0D0DFF8AC6600F056F800F0EEF90190DFF8D6
S113E0E0A47600F049F800F019FA00F03EF800F0C8
S113E0F035F800F00AFA0020DFF88CB6DFF88C86D9
S113E1000190DFF88C6600F03DF800F0CFF9019043
S113E110DFF8807600F030F800F0F0F9DFF82C0634
S113E120002301905A46009600214046FFF7BBFEAB
S113E130019400230097524600F0ABF9BDE8F78F35
S113E14000230096002200215846704700230095C2
S113E150DFF844260021DFF84406704701940023C9
S113E16000975246002148469DE6019400230096FC
S113E1705A460021404696E6002300975246002165
S113E180484684E6002300965A46002140467EE62F
S113E1900190009700230022002128467047019433
S113E1A0002300970022002128467CE6FEB500F0FB
S113E1B0DAF912D1491E012984BF091F012905D8A2
S113E1C000F034FA00F03BFA00F027FA00F01DFAF0
S113E1D000F013FA00F0D9F940E000F057F93FD10C
S113E1E001292FD0022903D005292BD006292FD1AC
S113E1F0DFF85C050194009000F033F8DFF85C056B
S113E200019400900023DFF890250021DFF88C05AD
S113E210FFF749FEDFF85005019400900023DFF872
S113E22040250021DFF83C05FFF73DFEDFF84405FB
S113E230019400900023DFF834250021DFF8300535
S113E240FFF731FE00F0D1F900F0C7F900F0BDF995
S113E25000F0B3F900F0A9F900F09FF9FFF723FEED
S113E260F7BD0023DFF8EC240021DFF8EC041AE604
S113E27038B50446DFF88C1421600E2001F034FC1C
S113E2800546DFF81C05FFF7F1FD401CDFF81425F7
S113E290B5FBF0F060601168C1F3811002284BD126
S113E2A01068C0F34000002846D0106804F12C0127
S113E2B0C0F34010087013685B0A03F00303012BDA
S113E2C005D002D3032B06D003D3012004E002209F
S113E2D002E0052000E0062048701068DFF8C8243A
S113E2E041F2883340F6C414C00800F001000873FA
S113E2F01069C00B00F0010048731068800F0128FA
S113E30006D002D3032808D005D344F6206005E0E4
S113E31042F2107002E0184600E02046486010689F
S113E320C0F3407000B123468B601069400900F0CF
S113E33001008873002032BD012032BD2DE9FE4F5B
S113E34000F0AAF857D100292AD0012955D100207C
S113E350DFF8D453DFF8D46301900096FFF71AFF77
S113E360DFF8CC83FFF793FD0022DFF8C873019236
S113E3700023009700214046DFF8BC93FFF787FD98
S113E38000F0A6F800F0EBF8019400230096FFF7E4
S113E39009FF019400F096F8FFF785FD00F0CEF830
S113E3A00120DFF89C63DFF8945301900096FFF797
S113E3B0F1FEDFF89083FFF76AFD0020DFF8887331
S113E3C0019000F07FF8FFF762FD00F0BFF80194C0
S113E3D000230096FFF7E6FEDFF8D0030023019048
S113E3E00022009700214046FFF75DFD019400F0F4
S113E3F073F8002246E000F049F845D1002921D005
S113E400012941D100F091F80020DFF86C83DFF896
S113E4106C630190DFF8687300F062F800F04CF868
S113E420DFF860B300F062F800F078F8019400239C
S113E4300097424600213046FFF735FD00F030F8E2
S113E44000F027F800F061F80020DFF83C83DFF8E3
S113E4503C630190DFF8387300F042F800F026F8CE
S113E460DFF830B300F042F800F048F8DFF83C037E
S113E470002301904246009700213046FFF713FD28
S113E48000F00EF800F005F8BDE8F78F9D4A9042C1
S113E49070470021484606E5964A9E4C90427047D4
S113E4A001940023CDF800B0524670470020DFF8F5
S113E4B000A3DFF8009370470020DFF8FCA2DFF828
S113E4C0FC927047002300970022002140467047C9
S113E4D00020DFF8ECA201900023CDF800A07047E3
S113E4E000230097424600213046D0E401900023E7
S113E4F0CDF800B0524600214846C8E401940023F8
S113E5000095B04A0021B048CDE40120AF4D019000
S113E51000230095AB4A0021AB48B8E401940023E2
S113E5200095AB4A0021AB48BDE40020AA4D019000
S113E53000230095A64A0021A648A8E401940023DC
S113E540CDF800A0002200214846ACE40020DFF80A
S113E5508CA2DFF88C920190CDF800A00023002259
S113E5600021484693E49401DB0004F0C00403F066
S113E5703803604E1C43B04244F4A03544F4B8342C
S113E58045F0010544F0010470479448019400905B
S113E590002300220021924870477E480194009095
S113E5A00023834A002183487047794801950090ED
S113E5B00023754A0021754875E48448019400904D
S113E5C00023804A002180486DE46E480194009045
S113E5D00023794A0021794865E469480194009050
S113E5E00023654A002165485DE47B48019400905E
S113E5F00023774A0021774855E453480195009059
S113E6000023002200214F484DE44D48019400901E
S113E610002300220021494845E469480194009000
S113E6200023002200214448FFF73DBC3F4F0194E2
S113E63000970023002200213B48FFF734BC3D4BE8
S113E640019400930023002200213948FFF72BBCDA
S113E65038B50446274921600E2001F045FA0546E5
S113E6606048FFF703FC401C4E49B5FBF0F06060C6
S113E6700A68C2F38110012802BF0868C0F3400091
S113E680002833D1086804F12C02C0F30110107083
S113E6900B685B0A03F001035370086840F6C41367
S113E6A0C00800F0010010733F480169890901F0B6
S113E6B001015173046841F28831A40F012C06D082
S113E6C002D3032C08D005D344F6206405E042F2BB
S113E6D0107402E00C4600E01C4654600068C0F36D
S113E6E0407000B119469160002032BD012032BD56
S113E6F00000000000002C40A8831F40B8811F4088
S113E70000C01B4000402C40DC831F40EC811F40B4
S113E71000001C4089700100B4811F40A4831F4085
S113E7209C821F40AC801F40C8811F40B8831F409B
S113E730CC811F40BC831F40D0811F40BC811F403F
S113E740AC831F40C0811F40B0831F406140010063
S113E750E4831F40F8851F40F4811F40E8831F4075
S113E76000861F40FC811F40EC831F4004861F402D
S113E77000821F40F0831F40F0851F40D8811F4056
S113E780C8831F40C4831F40DC851F40E4811F40B1
S113E790D4831F40D0831F40FC851F40F8811F4055
S113E7A024F0008004800F4060441F404940010071
S113E7B0E8851F40E0811F40F4851F40D4811F403D
S113E7C0C0831F40E4851F40E8811F40D8831F4059
S113E7D0EC851F40DC811F40CC831F40B4831F4065
S113E7E0C4811F4024EB00800100000001000000F0
S113E7F0826A490001F0060122F006021143816297
S113E800704731B1D0F8C01041F00201C0F8C01017
S113E8107047D0F8C02022F00202C0F8C020704730
S113E8200029816C0BD021F0400192018164836C3A
S113E83002F0400242F008021A438264704721F059
S113E8400801816470470B46826C816A006803F09A
S113E850E3BD816A006803F041BE0A46816A00682C
S113E86003F05CBEE0B590F8071301290AD14023F8
S113E87002210A2201910092816A0068152203F0A4
S113E880B3FE0EBD022908BF8023F1D000200EBDC7
S113E8902DE9F84307468946154640F2297641F6A4
S113E8A06A183868BA6A49469047044641F66911BD
S113E8B08C4218BF44451AD197F80603022818BFA2
S113E8C0032814D1444506D1386842F210724FF03F
S113E8D0B05104F08DF93846FFF7C4FF18B91CB1E4
S113E8E0B442DED100E034462046BDE8F2830CB1E8
S113E8F040F20974002D18BF6D1EF0D1F4E700003A
S113E9002DE9F04315A68BB000F017FD0D27F5F7A0
S113E91091FB0297A56C01218DF811102D0403952C
S113E920002102AB009100220193694600F0BDFD75
S113E93038B90598DFF86019084205D04FF4E36050
S113E94009E040F2097006E0C105E9D5C0F34320AF
S113E9500728E5D000200BB0BDE8F08300000000DC
S113E96000000000F0B5044611A58BB02421D5E9C0
S113E9700060CDE9006002A80C27F5F75BFB029765
S113E9800026039603210222DFF8103902AD8DF828
S113E99010108DF8112069460993204601950096C0
S113E9A0FFF776FF08B140F209700BB0F0BD00002C
S113E9B000000000000000002DE9F04F8BB0044679
S113E9C00E4602A8242100BF20A5F5F733FBD5E9A4
S113E9D000AB04220127CDE900AB00F03BF803961D
S113E9E040F6B83901930092F4F7ACFB07460D46A4
S113E9F0DFF8AC08F4F7B0FB17EB00084D412068D2
S113EA00A26A69469047C0B90598CEB9002817D0C4
S113EA100027C4F874025FEA0900A9F1010918BFCC
S113EA20002F06D0F4F78EFBA942E8D301D8404565
S113EA30E5D338460BB0BDE8F08F40F20970F9E732
S113EA4000284CBF00270527E5E700000000000070
S113EA5000000000029702AB8DF8112000227047DD
S113EA602DE9D8438BB000F09CFC00BF11A64FF4F5
S113EA70003201230392D6E900898DF8113003276F
S113EA80CDE9008902AA0023029769460192009306
S113EA902068A26A904700281EBF0598DFF8FC177B
S113EAA0084203BF0222A264002040F209700CB0A5
S113EAB0BDE8D083000000000000000030B5CB6842
S113EAC000F523729B0F1370CC68A40E04F00F049E
S113EAD05470CB681B0C9370CC68240AD470CB6838
S113EAE013718B681C0D1B0C03F00F03D48013727D
S113EAF08B681C0403D5558945F0010555815C04D8
S113EB0003D5558945F0020555819C0403D55589E3
S113EB1045F004055581DC0403D5558945F0080505
S113EB20558140F6FC754C6805EA830505EB947540
S113EB30E40E04F00704958194734B681B0E03F0F4
S113EB400703D3734C68640D04F0070414744B6812
S113EB509B0C03F0070353744C68E40B04F00704A4
S113EB6094744B689B0A03F01F03D3744C686409C4
S113EB7004F01F0414750B7903F01F0353750B681D
S113EB80002B03D5558945F0100555815B0F03F023
S113EB90030393750B689B0E03F00703D3750C688E
S113EBA0A40D04F00F0414760B689C0203D5558958
S113EBB045F020055581DC0303D5558945F0400512
S113EBC055811C0403D5558945F0800555815C04A5
S113EBD003D5558945F4807555819C0403D5558921
S113EBE045F400755581DC0403D5558945F48065E9
S113EBF055819B0A03F0030353760968090A01F05F
S113EC0003019176006DC10508D4917C938902209B
S113EC10491C88405B1C43435B0A93654FF40070B6
S113EC20506530BD38B504460BA194F89002DFF866
S113EC30485900F00702C0F3C30051F8223055F8D8
S113EC40200061680A2243432068B3FBF2F203F018
S113EC50F5FF606431BD0000A086010040420F0052
S113EC608096980000E1F50580B5016DCA0507D5C9
S113EC7000F2CD214A78002A1CBF097800290AD164
S113EC8000F29F210A784978521C491C4A43C0F873
S113EC90FC22002002BD9202AF23C0F8FC22012115
S113ECA08DF8023000238DF803108DF801106946A9
S113ECB08DF8003000F006F80028EAD040F21E700B
S113ECC002BD00002DE9F0438BB004460E4602A8B5
S113ECD0242100BF15A7F5F7ADF9D7E90089CDE9DF
S113ECE0008932787078B178F378062542EA0022F8
S113ECF0029502AD204642EA01420195694642EA84
S113ED000362DFF8943503920222099300238DF8FD
S113ED1011200093FFF7BCFD10B140F2097004E02C
S113ED2000F0BEFB08B14FF4E36014E600000000FD
S113ED3000000000F0B501F18F0601F1CF057778EE
S113ED40B27896F800C0AB7B00F532743F0207EB53
S113ED5002476A7CBC4403FB0CF35A436262327977
S113ED60777900F0B0F8F77800F0A8F8A762F279A4
S113ED70377A00F0A8F8B77900F0A0F8E762B27A21
S113ED80F77A00F0A0F8777A00F098F800F52A7284
S113ED902763B37F9370F77F01F1AF03D7701F78B8
S113EDA017719F785771DF7897711F79D7719F79A1
S113EDB017721F7A57729F7A97721F7BD7729F7B45
S113EDC017731F7C57735F7C9773DF7CD773767BD5
S113EDD0167001F5F776377867755F7D1774D0F88C
S113EDE050C047EA0C0707659F7D57745F7E977490
S113EDF09F7ED774DF7E17751F7F57756F7FA7724D
S113EE00AF7FE772EF7F277311F8EF7F67738F7B14
S113EE1027759F7F9775DB7FD3752B7813766F7873
S113EE205776AB789376EF78D776EB7E23722F7F85
S113EE306772EF792B7A3F0407EB0367AB7995F898
S113EE4005C007EB032707EB0C03D361026DD7055D
S113EE5048BFE361AA7A22702B7B63706F7BA77033
S113EE60AA7BE270EB7B23712A7C62716B7CA371B9
S113EE70AA7CE271EB7C1B0223626A7DD30703D573
S113EE80026D42F400720AE0930703D5026D42F466
S113EE90806204E0530703D5026D42F40062026508
S113EEA00A7B487BCB7A120442EA0062887A42EAFF
S113EEB0032202432261B17AA175F0BDD7196A7C9D
S113EEC05F4357437047AB7B120202EB0742704724
S113EED02DE9704C90B005460C46164600F09EFD98
S113EEE02BA000F09FFDF5F7A5F80022012308925E
S113EEF04FF400728DF825300821049305F1740352
S113EF00039207AA059302AB019200930791286824
S113EF10AA6A69469047002802BF0A98DFF87C1362
S113EF20084230D12A7B1AB1022A0ED013D320E032
S113EF30002005F1740305F1740151F8202011BA81
S113EF4043F82010401C8028F5D3ACB105F17400BF
S113EF50815D217015E0002005F1740205F1740350
S113EF6052F8201049BA43F82010401C8028F7D3E7
S113EF70EBE74FF4E16008E005F174012846FFF780
S113EF80D9FE002001E040F2097010B0BDE8708C99
S113EF9000000000000000002DE9F84FFF260129C1
S113EFA090B0DFF840470DD0022903D0052909D0DD
S113EFB006290CD14AF655214FF6FF7A082521601F
S113EFC0564609E05A2204252260B24604E0802114
S113EFD0042521604FF0C00A834620689BF80C206A
S113EFE01AB1022A06D05DD367E000BA36BA2060AF
S113EFF09AFA8AFA36A02422D0E90089CDE9008958
S113F000DFF8E89807A849460027F8F70FFE00F054
S113F0104FFA13200122079002AB089769468DF836
S113F020252000F05DF8069401920093DBF80000BF
S113F030DBF828209047002802BFDFF860820A9896
S113F04010EA080F3CD127680022226022A3D3E9EA
S113F0500001CDE9000107A809F124012422F8F7F1
S113F060E5FD00F025FA012202AB8DF825200E21E2
S113F07000F036F80594019200930791DBF8000044
S113F080DBF8282069469047002804BF0A9810EA54
S113F090080F18D121684F403E40564514BF012047
S113F0A0002012E042BA70BA22609AFA9AF112BAB7
S113F0B006BA226091FA81FA9CE74FF4E16004E019
S113F0C04FF4E46001E040F2217011B0BDE8F08F2C
S113F0D0000000000000000000000000000000002C
S113F0E08DF80A20049207AA039570477CB500F0B6
S113F0F015FCB72300F007FC08B100F015BC84F838
S113F100B15276BD28680121FFF772BB286802213D
S113F110FFF76EBB38B5044694F82D50012D15D079
S113F120022D03D0052D11D0062D20D12068FFF724
S113F130EEFF29462046FFF72FFF20B92946204637
S113F140FFF7D4FF88B140F2127032BD2068FFF798
S113F150DAFF29462046FFF71FFF0028F3D129468E
S113F1602046FFF7C3FF0028EDD184F807530020A1
S113F17032BDF8B50C4600F2B225E979012393407B
S113F180194204D12F79072F01DB00F036BC04F0BB
S113F1900F04032144EA02148DF80310B92600F089
S113F1A004F800B10AE02C70F2BD00278DF802606B
S113F1B069468DF801408DF8007083E540F21E70B9
S113F1C0F2BD20680121FFF71CBB2DE9F041044684
S113F1D004F12C06317840F20C7040F21275491E8D
S113F1E005D0491E012949D84FF4E16050E07178F7
S113F1F0052918BF062907D196F8241011F00C0F21
S113F20046D0DFF8048809E0716A8A0748BFDFF84E
S113F210F08703D4CB073BD5DFF8E88700F042F84A
S113F22010B140F21B7532E070786168052818BF90
S113F2300628206819BF0027424601274FEA5802D2
S113F24003F0FCFCB0617178206807230222FEF70A
S113F250ADFF2046FFF75EFFC8B957B1616820686B
S113F260424603F0EBFCB061206800220121FFF765
S113F270D7FA0120002584F8060308E071780529EF
S113F28018BF062904D02046FFF744FF00B12846E2
S113F290BDE8F081000000008800F9FF0800F9FFD4
S113F2A040420F0000220121204662E72DE9F0438D
S113F2B00FF280768BB000F040F80227F4F7BAFE24
S113F2C00026032202AB0297039669468DF81120AB
S113F2D0019300962068A36A984750BB05A804F1DF
S113F2E0540190E86C0081E86C00089A04F51E70E3
S113F2F0120E02700899090A4180089A027107994E
S113F300090E4171079A120C82710799090AC17199
S113F310079A02720699090E817206990902C16060
S113F320059A41EA1261C1600599090A0174002035
S113F33001E040F20970FFF70EBB044602A8D6E9CB
S113F3400089CDE90089242170472DE9F0438BB071
S113F35000F027F80FF2E4660927D6E90089CDE921
S113F360008902970322A16C8DF8112002AB0022C0
S113F37001930092090403912068A36A694698479F
S113F38058B905A804F1640190E86C0081E86C00A8
S113F3902046FFF793FB002001E040F20970FFF7DD
S113F3A0DABA044602A82421F4F744BE10B5034691
S113F3B003F539731C7F0020072C09D8DFE804F01B
S113F3C0040A0A080C0E10121B6851188B4200D252
S113F3D0042010BD5B68F8E79B68F6E7DB68F4E798
S113F3E01B69F2E75B69F0E72DE9F84390B000F0A0
S113F3F0CEF800F05DF80FF24C6000F0BFF802D5D3
S113F400B9F5007F09D1D4F8E002484524BFE16989
S113F410494502D319F0030F02D040F20C703CE0CE
S113F42000F03EF810B14FF4E36036E0189FCDF8D9
S113F4300C90049701230499059512258DF8083042
S113F4400795012904BF11220792CDF82080716825
S113F450C80503D4039942464A4308928DF82530DF
S113F460DFF8A8350E9307AA019202AB009301229C
S113F470694600F01AF880B9012F0DD99DF80810DB
S113F480002904BF3078002806D12046FFF76AFA25
S113F49010B140F2177000E0002011B0BDE8F08315
S113F4A02046FFF72DBA694600932046FFF7F0B9CE
S113F4B002A81421F4F7BEBD2DE9F84390B000F082
S113F4C066F8FFF7F5FF0FF2845000F057F802D505
S113F4D0B9F5007F09D1D4F8E002484524BFE169B9
S113F4E0494502D319F0030F3AD040F20C7036E0CC
S113F4F00122189FCDF80C90192304978DF8082049
S113F500049A069507AD0793DFF80035012A04BF76
S113F51018210791CDF820807168C80569465CBF41
S113F52009FB08F008900E93012202AB8DF8252008
S113F530019520460093FFF7ABF980B9012F0DD94F
S113F5409DF80810002904BF3078002806D1204611
S113F550FFF708FA10B140F2177000E000209CE7B2
S113F5602068406AC101FBD5FFF79AFF0028BFD08D
S113F5704FF4E360F3E70000B02A0000D0E900672D
S113F580CDE9006704F14C067168CA05704704466A
S113F5900D469046994607A82421F4F74BBD2068F0
S113F5A00021FFF725B938B5044604F13005287C5D
S113F5B010B940F22E7032BD94F82D102068FEF779
S113F5C0E7FC287A98B12068FEF772FC697A206813
S113F5D0FEF7A2FC2868F3F7C8FD687A411E89414A
S113F5E02068C90FFEF798FC6868F3F7BEFDA87A97
S113F5F020B12068FEF7A3FCFFF7E3FDFFF7CFFF80
S113F60000F069F8686100F061F82046FFF721F91D
S113F61010B140F2137032BD00212046FFF7CCF93F
S113F62090B9D4F8740210F0C04F03D0296A41F4A1
S113F63080712962A87ADFF8D81308B1DFF8D413EF
S113F6402046FFF7B9F910B140F2147032BD2046DC
S113F650FFF72CFE10B140F20D7032BD2046FFF7CB
S113F660FFF910B140F21A7032BD2046FFF76DFE6B
S113F67010B140F20F7032BD2046FFF7D3FA0121DA
S113F6802046FFF7E0F810B14FF4E26032BD00F01D
S113F6902BF810B140F21C7032BD00F012F810B11A
S113F6A040F20A7032BD2046FFF78FFD40B9204674
S113F6B0FFF7DAFA10B140F21F7032BD84F800038C
S113F6C032BD4FF400712046FFF7C7B8206804F13B
S113F6D0140103F0A0BA61682068DFF83C2303F04A
S113F6E0ADBA000074930100002200212046FFF708
S113F6F0EFBB10B5044694F8401021B903F02DFD7A
S113F70008B1012010BD012084F84000002010BD84
S113F710006803F03DBD10B50446FFF7F9FF20462D
S113F720FFF7E7FF00B103E02046BDE810403AE7E9
S113F73040F22E7010BDB0F8960210F4C06018BFED
S113F7400120C0B27047F8B504460D4694F8AF6284
S113F75003208DF80300B32300278DF802308DF8C1
S113F7600070694606F0F8062E438DF801602046C5
S113F770FFF7A8FA08B1FFF721BD84F8AF6284F857
S113F7800053F2BD2DE9FC4700F036F838B10420EF
S113F7900FE000F029F8FFF727FE50B9564444B1B2
S113F7A0D8F820A0A24532BFA4EB0A04A246002444
S113F7B0EFE7BDE8F6872DE9FC4700F01DF838B106
S113F7C004200FE000F010F8FFF776FE50B956441D
S113F7D044B1D8F820A0A24532BFA4EB0A04A24643
S113F7E00024EFE7BDE8F68709EB462100954FF4C6
S113F7F00073F219404670478946174680461D46F5
S113F8002A4639462C460026D0E500002DE9F04C66
S113F8108BB004460E46154602A800F000F90FF21C
S113F820342004F53971D0E900ABCDE900AB087F91
S113F83007281BD8DFE800F00E0C0C1A0A0806048F
S113F840486908E0086906E0C86804E0886802E0DE
S113F850486800E008688969B0FBF1F201FB120016
S113F86000B1521CB24228BFAA4232D204202DE079
S113F870012323210396654E8DF8113002AB0291CA
S113F880002709960022019369460097204640F21A
S113F8900977FEF7FDFFC0B9242102AA02910023D3
S113F8A0019200220395FFF7FEFD70B900220223A6
S113F8B0039226208DF8113002AA029000230192AF
S113F8C000220996FFF7EFFD00B138460BB0BDE802
S113F8D0F08C2068406AC201FBD5206D4D434E4335
S113F8E0C1055CBF76026D02C2E70000682A000011
S113F8F07CB500F013F8B22300F005F800B113E072
S113F90084F8AE5276BD00268DF8023069468DF833
S113F910015020468DF80060FFF7D4B90446032057
S113F9200D468DF80300704740F21E7076BD7CB51D
S113F930FFF7F4FFAD23FFF7E6FF00B1F4E784F827
S113F940AA5276BDF8B5044604F2AA25287B0E46D1
S113F950032800DC51E06F79307807F0870700B1A5
S113F96001207178B3238DF80230C90041EA801177
S113F97003208DF8030000208DF8000020460F437B
S113F98069468DF80170FFF79DF908B1FFF716BCC1
S113F9906F71EF78307907F0E00700B10120F27859
S113F9A00323694642EA8002B0788DF803300243AB
S113F9B01743B1228DF801708DF802202046FFF71D
S113F9C081F9A8B9EF707179B0792B7941EA001106
S113F9D0CAB29A4204D0C9B22046FFF789FF38B9A7
S113F9E0F1792878884206D02046FFF7A0FF10B1AD
S113F9F040F21D70F2BD0020F2BD4FF4E160F2BD93
S113FA000075190380BA8C0100EA32060800F9FF78
S113FA100080FF408080FF40801A060007A8242150
S113FA20F4F708BB1421D0E900ABCDE900AB02A880
S113FA30704700000000000000000000000000000B
S113FA4000000000000000000000000000000000B2
S113FA5000000000000000000000000010B5DFF806
S113FA607843DFF8780361688A0120D5A36813F42A
S113FA70405306D0B3F5805F06D0B3F5005F0ED0D7
S113FA8010E0DFF85C030AE0DFF858130A68D006D8
S113FA905ABFDFF854130868DFF8500303E000F09E
S113FAA0A4F800E000206168C1F3C26118E0A26814
S113FAB012F4402209D0B2F5802F07D0B2F5002FFE
S113FAC006D0B2F5402F05D00BE084E0022000E020
S113FAD0002083E00D2000F088F8216801F0070180
S113FAE07FE0002010BD0000162810B5DFF80043A9
S113FAF000F26F80DFE800F00C0C1226323E414326
S113FB0046484A4C505356585A5C5E6164676A00D2
S113FB10FFF7A4FF2168C1F382211EE0206841069B
S113FB200AD52268100603D5012000F031F905E05A
S113FB30022000F00FF901E0FFF790FF2168C1F304
S113FB4002410AE0FFF78AFF2168C1F38221491CC0
S113FB50B0FBF1F02168C1F3012142E0DFF8840237
S113FB600268D10602D5DFF8840210BDDFF87802FE
S113FB70006810BD4FF4004010BD0D2028E0DFF8F0
S113FB80600225E0002004E0012002E0022000E001
S113FB900320BDE81040FBE0DFF8580218E0DFF86E
S113FBA03C0215E0002004E0012002E0022000E015
S113FBB0032013E0DFF840020AE0DFF8400207E028
S113FBC0DFF83C0204E0DFF83C0201E0DFF8380231
S113FBD001E0002010BDBDE8104006E0BDE8104083
S113FBE0B8E0491CB0FBF1F010BDF0B5DFF81C2201
S113FBF0C0F30B41515800F01F03D940C90701D489
S113FC000020F0BD0101090D5358C3F3813139B906
S113FC10744C2168CB065ABF73490C68734C00E0DE
S113FC200024C0F30B415158C90337D40D3816468C
S113FC30DFF8E471DFF8DC510FF2EC1118D04FF467
S113FC408012801A2BD0801A79D0801A15D04FF4E4
S113FC508002801A25D04FF44012801A42D04FF40B
S113FC608002801A5FD0C01F61D0401E65D06EE054
S113FC70336803F07F035C4332E0306D326E356BE2
S113FC800023A0FB040101F0D9FDEE0703D51623E0
S113FC905C43224601E014226243841858E0306930
S113FCA04EE0316F38683A69002301F07F07A0FB0A
S113FCB0040101F0C3FD326F07FB040412F4C01207
S113FCC004D0B2F5002F08BF640800E0A408296836
S113FCD04F480140B1F5004F02D0814221D037E0B6
S113FCE0640835E03E6A386B3A6C0023A0FB0401DB
S113FCF006F07F0601F0A2FD3A6A06FB040412F442
S113FD00C01204D0B2F5002F08BF640800E0A408B4
S113FD10286800F04040B0F1804FE1D0B0F1404F8E
S113FD2016D1A40814E0386E00F0030002E0386E27
S113FD30C0F3810051F820400AE0384C08E0306AF2
S113FD4010F0030F14BF16201420444300E00024D5
S113FD502046F0BD10B504462048FFF746FF032CAB
S113FD602F4913D8DFE804F002060A0E096801F0EF
S113FD703F010AE00A68C2F3052106E00968C1F3FD
S113FD80054102E00A68C2F305611FE0002010BDCE
S113FD9010B504461248FFF728FF032C214913D855
S113FDA0DFE804F002060A0E096801F03F010AE0E8
S113FDB00A68C2F3052106E00968C1F3054102E0BF
S113FDC00A68C2F3056101E0002010BDB0FBF1F048
S113FDD01221484310BD000010C00F400D00300038
S113FDE00D00100070820D401893010000366E0162
S113FDF014C00F400D0020000D00E0001400E000CE
S113FE001500E0000D0070000D00A00000800D4002
S113FE100080800070810D4080800D4040787D011D
S113FE2000810D40F0800D4040787D0180F0FA02A1
S113FE3000E1F50540597307826A490001F00601A3
S113FE4022F006021143816270470B46426D816ABB
S113FE50006802F0E1BA0A46816A006802F00ABB4F
S113FE60816A006802F03ABB0A46816A006802F0BF
S113FE7055BBE0B5016C40230191C26B0092816ACD
S113FE800068132202F0B0FB0EBD816A006802F024
S113FE9069BB2DE9F84306460F46154640F229781A
S113FEA041F66A193068B26A39469047044641F609
S113FEB069118C4218BF4C4505D07868DFF82819C1
S113FEC0C2680A4214D096F8D000032818BF02284A
S113FED00ED14C4506D1306842F210724FF0B05149
S113FEE002F086FE3046FFF7C4FF30B1444602E01C
S113FEF00CB140F2097425B16D1E002C18BF4445A5
S113FF00D0D12046BDE8F2832DE9F04314A58BB08F
S113FF10044602A8D5E90089CDE9008924210D27EA
S113FF20F4F788F80297666D0121DFF8BC288DF894
S113FF30111036040992039602A9002301910222AA
S113FF4000F08EFB40B90598C105F5D5C0F34320F8
S113FF500728F1D00020DEE240F20970FBE7000040
S113FF600000000000000000F0B5044611A58BB0AD
S113FF702421D5E90060CDE9006002A80C27F4F73C
S113FF8059F802970026039603210222DFF8583815
S113FF9002AD8DF810108DF81120012209936946E5
S113FFA0019520460096FFF774FF08B140F20970EE
S113FFB00BB0F0BD00000000000000002DE9D843A4
S113FFC009A68BB000F0AAFA0327F4F733F8002649
S113FFD0082200F0E9FA20B90598000C60650020B9
S113FFE001E040F20970AAE10000000000000000F6
S113FFF02DE9FC4D074600BF1CA090B00D461A9E8B
S2140100009046D0E900AB1C4607A8CDE900AB2421F9
S214010010ED07F4F70FF800F033FB06200F210790E9
S2140100204FEA880065F07F4581408D438440254333
S2140100300122089540238DF825206946039307ABD6
S214010040049202AA0596019300923868BB6A984703
S214010050002802BF0A98DFF89017084212B014BFB2
S21401006040F209700020BDE8F08D0000000000009D
S2140100700000000030B50B6800F1BC021B0F1370C6
S2140100800C68240E04F00F0454700B681C0203D590
S214010090558845F0010555801B0D03F007031371C4
S2140100A00B681B0C03F00F0353710B681C0403D57C
S2140100B0558845F0020555809B0A03F01E0393718F
S2140100C00B7803F00303D3714968537891602BB121
S2140100D0022B06D03CBF0221816509E0012484651C
S2140100E006E00423836591788C0744BF0823836563
S2140100F051794B0703D5C46D44F00404C465D17926
S214010100CA0703D5C36D43F08003C365890703D5CA
S214010110C26D42F04002C26530BD00002DE9704359
S2140101202AA690B0044607A8D6E90089CDE9008939
S2140101302421DFF8B457F3F77DFF00F0A1FA00F0B1
S214010140C4F800F047F810B140F2157032E0012211
S21401015000238DF825203321089302AB049207AAC9
S2140101600791082105950093019203912068A26AE0
S21401017069469047002803BF0A98DFF86C160842C4
S21401018040F2097016D1217B286841B1022901D0BD
S21401019013D317E000BA2860686800BA686004F1F3
S2140101A08001D5E90002C1E9000229462046FFF791
S2140101B061FF002010B0BDE8708340BA286068680F
S2140101C040BAEBE74FF4E160F4E7000000000000FE
S2140101D000000000616D20463DE62DE9FC41044625
S2140101E00F46DFF80457904600F06FF8A26D012A1B
S2140101F098BF40F20C7066D9009543463A460021F6
S2140102002046FFF7F5FE002837D1217B2868F9B193
S214010210022901D00ED354E000BAA96828606868A4
S21401022000BA686008BAA860E868296900BAE86098
S21401023008BA0CE040BAA9682860686840BA6860E5
S21401024048BAA860E868296940BAE86048BA2861EF
S214010250E8682969BE00000200F47F4040EA1160A8
S214010260F04000F00F0040452BD1009543463A463A
S21401027001212046FFF7BCFE10B140F2097022E0D2
S214010280217BE86841B1022901D015D319E000BAF3
S214010290E860286900BA2861E9682869090201F45A
S2140102A07F4141EA1061F14001F00F01414514BF61
S2140102B040F21670002006E040BAE860286940BAAD
S2140102C0E9E74FF4E160BDE8F6814FF48071284616
S2140102D0F3F7B0BE2DE9D8431AA78BB004460E46F5
S2140102E0D7E90089CDE9008902A800F0C6F9FFF731
S2140102F071FF10B140F2157021E006210122029132
S2140103008DF8112016B1012E15D017E000210391AA
S21401031002AA0021019200912068A26A69469047CC
S214010320002802BF0598DFF8C014084214BF40F247
S2140103300970002003E002200390E9E704200CB0D6
S214010340BDE8D083000000000000000070B5CB6857
S21401035000F1A0029B0F1370CC68240C5470CB687C
S2140103601B0A9370CC68D4708B681D0D1B0C03F0B0
S2140103700F03958093718B681C0400F09DF85C0454
S21401038000F09AF89C0403D5158945F004051581FB
S214010390DC0403D5158945F00805158116784FF458
S2140103A0007416B1012E35D049E040F6FC700125E7
S2140103B000EA8300D0604B6840EA9370D0604868DA
S2140103C0C00E00F0070010744B681B0E03F0070305
S2140103D053744868000D00F00E0090744B689B0C37
S2140103E003F00703D3744868D368C00B00F0070016
S2140103F01075801C5B1C03FA00F09379906205FA75
S21401040003F3B3F5007FD36219D05843D462400A90
S214010410906214E0D4628B684FF6FF751B0403F4F8
S2140104207C13D3604C6843EA1443D360AB4203D3D6
S214010430C46D44F01004C4655B1C9B02936248685B
S214010440430403D5148944F010041481C00900F054
S2140104507F005075087900F07F0090750B689B0E41
S21401046003F00703D3750868800D00F00F001076BF
S2140104700868810203D5138943F040031381010400
S21401048003D5138943F080031381410403D51389EF
S21401049043F480731381810403D5138943F40073F5
S2140104A01381C10403D5138943F480631381800A41
S2140104B000F00300507670BD03D5158945F001059F
S2140104C0158170472DE9F0430FF2C0768BB000F02E
S2140104D025F80927F3F7AEFD0297656D032202ABF7
S2140104E08DF8112000222D04019303956946009290
S2140104F02068A36A984760B905A804F1700190E8DE
S2140105006C0081E86C0005A92046FFF71FFF00205C
S21401051001E040F209700BB0BDE8F083044602A882
S214010520D6E90089CDE90089242170472DE9F043F9
S2140105300FF260768BB0FFF7F1FF0227F3F77AFD33
S2140105400026032200F030F858BB05A804F160012C
S21401055090E86C0081E86C00089A04F18C00120E99
S21401056002700899090A4180089A02710799090ED2
S2140105704171079A120C82710799090AC171079A8B
S21401058002720699090E417206990902C160059A1E
S21401059041EA1261C16005990903090D0182002033
S2140105A001E040F20970B6E702AB0297039669468E
S2140105B08DF81120019300962068A36A1847000061
S2140105C02DE9FC4D04460FF2E46090B000F04DF8C2
S2140105D000F056F894F85C70B80702D5B8F5007FBD
S2140105E009D1D4F8CC10414524BFE069404502D377
S2140105F018F0030F02D040F20C702EE02046FFF7F1
S21401060083FC10B14FF4E36027E01A9ACDF80C8012
S21401061004921222049B05950792012B04BF112117
S214010620079100F087F801226F4B8DF8252007AA65
S2140106300E9302AB0192012200F012F868B90499F8
S214010640022909D39DF8080030B92046FFF78CFC33
S21401065010B140F2177000E0002012B0BDE8F08D36
S214010660009369462046FFF714BC0D46D0E900AB5F
S21401067016469846CDE900AB07A82421F3F7DABC65
S21401068002A81421F3F7D6BC2DE9FC4D04460FF25F
S214010690246090B0FFF7E9FFFFF7F2FF94F85C7073
S2140106A0B80702D5B8F5007F09D1D4F8CC1041457A
S2140106B024BFE069404502D318F0030F2ED040F264
S2140106C00C702AE01A9ACDF80C8004921922049B29
S2140106D006950792012B04BF1821079100F02AF80E
S2140106E0DFF8483501220E9307AD02AB8DF82520C1
S2140106F00195694600932046FFF7CBFB68B904993C
S214010700022909D39DF8080030B92046FFF72CFCD2
S21401071010B140F2177000E000209EE72068406AA2
S214010720C101FBD52046FFF7EFFB0028CAD04FF4E6
S214010730E360F2E7089694F85C10880703D40399FF
S21401074032464A43089270472DE9F84D0FF26C5431
S2140107500E468BB08046D4E900AB174602A8CDE919
S21401076000ABFFF78AFFD8F80040606AC001FAD5EF
S2140107704046FFF7C9FB10B14FF4E36030E098F84C
S2140107805C00BF197F1EDFF8A454099581076946EE
S21401079040465CBF76027F0220220123029202AA13
S2140107A08DF81130002301920122039640F209765A
S2140107B00093FFF76EFB90B9212000F017F803971E
S2140107C000F01AF858B900220223039226208DF869
S2140107D0113000F00BF8099500F00EF800B1304624
S2140107E00CB0BDE8F08D00000800F9FF02AA0290E7
S2140107F00023019200227047694600934046FFF7A6
S21401080048BBB0F8A80010F4C06018BF0120C0B201
S21401081070472DE9F84300F035F83919884238BF9A
S214010820042011D3002500E0751964B100F031F8F9
S21401083032BFA41B264600240096EA19FFF7C0FE25
S2140108400028F1D000E00020BDE8F2832DE9F8434E
S21401085000F018F800253919884202D204200FE06A
S214010860751964B100F015F832BFA41B26460024A2
S2140108700096EA19FFF708FF0028F1D000E00020F3
S214010880BDE8F28380468946D8F8C80017461C465C
S2140108907047D8F8206009EB45214FF400734046B5
S2140108A0A64270472DE9F04180460E46D8F8C800AA
S2140108B0144600273119884202D2042012E0EF19AB
S2140108C07CB198F8B55040466D1CA54232BF641BFA
S2140108D0254600242A46B919FFF736FF0028EED030
S2140108E000E00020BDE8F081749301002DE9F84F87
S2140108F007468CB007F14C05287810B940F22E70E7
S2140109004AE107F12C0238685178FDF717FD97F890
S2140109102C0002281CBF0328042801D1012600E070
S214010920002607F12C01087B30431BD03868FDF701
S214010930BFFA07F12C00417B3868FDF7EDFA07F1A5
S2140109402C004068F2F711FC07F12C01487B411E90
S21401095089413868C90FFDF7DFFA07F12C00806876
S214010960F2F703FC36B1012007F12C014870386814
S214010970FDF7E5FA0020002128613868FFF75CFAE8
S21401098079683868AA4A02F059F96860386842F20C
S214010990107102F0A8F9386807F1140102F03BF96A
S2140109A03846FFF75DFA002840F00781012007F17D
S2140109B0D001DFF88492C8700EB1DFF880920FF292
S2140109C0E422DFF87C82D2E90001CDE9010103A827
S2140109D008F1240124220A24F7F728F94FF4D572E6
S2140109E00923049208218DF8153003AA00230391E8
S2140109F00292019340F20C7201A900923868BB6A18
S214010A00984710B140F2097007E00698C0F3080055
S214010A10B0F5D57F00F0D4800098641E00F0C48045
S214010A2000998842E6D148E04FF005083846471E4F
S214010A30002800F0EE80F2F785FB594501D828BF63
S214010A40504580F0E6800021FFF7C5FB0028EDD178
S214010A50002203A9019202912068A36A01A998477E
S214010A60002840F0DA8006980028DDD5400003D53E
S214010A70296941F0020129610698C10103D52A6955
S214010A8042F020022A610698E863297C880611D57F
S214010A902046FFF7FAF910B140F225707CE00320FA
S214010AA004F1D001C8702046FFF740FD38B140F28E
S214010AB00D7071E05FEAC910F5D500986CE020462C
S214010AC0FFF77CFA10B140F20E7065E02046FFF7A2
S214010AD0F9FC10B140F20F705EE001212046FFF7ED
S214010AE0B4F910B14FF4E26056E061682068514AEB
S214010AF004F12C0902F0A2F8686099F801000128B7
S214010B0000D05EB101212046FFF7E4FB10B140F2B0
S214010B10127041E020680121FFF78EF92046FFF7A9
S214010B20FDFA10B140F2117036E04FF40071204624
S214010B30FFF79AF910B140F20A702DE099F800001B
S214010B40384F401E03282DD8DFE800F00205070ABB
S214010B500122334F05E0022203E00322324F00E078
S214010B60042200212046FFF738FBC0B999F800009F
S214010B7004F1D0063A4630706168206802F05EF8EB
S214010B8068603078022818BF03280BD12046FFF78B
S214010B9070F938B140F229700DB0BDE8F08F40F21F
S214010BA01B70F9E70020F7E700993C4688423FF4BE
S214010BB084AF2046FFF754F948B140F21370EBE7D3
S214010BC02A693C4649F0804942F008022A6100BF82
S214010BD032A32422D3E90001CDE9010103A841464D
S214010BE0F7F724F82922042303924FF00108CDF8E1
S214010BF0109040F6B8378DF81530F2F7A3FA824612
S214010C008B461048F2F7A8FA1AEB000A4BEB010BD9
S214010C100CE7B8F1000F3FF438AF40F21470BBE7B1
S214010C2080F0FA0200E1F50500D4650C0800F9FF32
S214010C30801A060040787D010080FF000080FF01D9
S214010C40682A000040420F0010B500F14404217AE2
S214010C5029B9216802F081FA08B1012010BD0120EE
S214010C602072002010BD006802F092BA10B504464A
S214010C70FFF7F9FF2046FFF7E7FF00B103E0204644
S214010C80BDE8104032E640F22E7010BD00000000B4
S214010C90000000000000000000000000000000004E
S214010CA0000000000000000000000000000000003E
S214010CB0000000000000000000000000000000002E
S214010CC00000000000F01F02C64B000A914003EB33
S214010CD0800030B5032595400468AC43214301608C
S214010CE030BD01460020C04A914218BF012070471E
S214010CF0002810B53AD0002140F6C41201703F23F7
S214010D004170012481704FF44861C28022228180A3
S214010D1040F25C4103814FF4AD63C27240F295121A
S214010D20C360E3230161DC214261622283617D238A
S214010D30C161252102624B2243620B2381622F216E
S214010D40C26246F62012036345F67D734163C163B2
S214010D504FF4C84142644FF4C862C470847284631D
S214010D6004648364C1640265002010BD042010BDC4
S214010D700023002AF0B51ED056681468A6421AD27F
S214010D80A51B491E082940F2FF774FF6FF7E2AD899
S214010D90DFE801F005122436485A67748600754567
S214010DA098BF74451FD8016AC4EA01020262046A48
S214010DB0C4EA0541016289E047F6FF718D4298BF9A
S214010DC08C4210D8416AC4F30E04C90B44EAC134FC
S214010DD04462416A65F31E41416277E043F6FF7162
S214010DE08D4298BF8C4270D8816AC4F30D04890B7A
S214010DF044EA81348462816A65F31D41816265E05B
S214010E0041F6FF718D4298BF8C425ED8C16AC4F329
S214010E100C04490B44EA4134C462C16A65F31C41BF
S214010E20C16253E040F6FF718D4298BF8C424CD8A8
S214010E30016BC4F30B04090B44EA01340463016B30
S214010E4065F31B41016341E0BD4298BFBC423CD8FB
S214010E50426B00F03DF84463416B65F31A41416310
S214010E6034E0BD4298BFBC422FD8826B00F030F808
S214010E708463816B65F31A41816327E075459CBFE6
S214010E806FF07F42944220D8C16824F07F4401F07D
S214010E907F410C43C4608268C5EA0201816015E0A7
S214010EA052498E4298BF8C420FD8C169C4F31504CB
S214010EB0890D44EA8154C46184695168A40DC1F363
S214010EC0150141EA8454846100E004231846F0BD0C
S214010ED0C4F30A04D20A44EAC224704738B5044669
S214010EE00D46A87A01007BD0102879D261680004EB
S214010EF000F4702005F10C0221F4702108436060B3
S214010F00012100F079F8002869D105F114020221C7
S214010F1000F072F8002862D105F11C02032100F0EE
S214010F206BF800285BD105F12402042100F064F877
S214010F30002854D105F12C02052100F05DF80028A7
S214010F404DD105F13402062100F056F8002846D1AD
S214010F5005F13C02072100F04FF800283FD105F1CA
S214010F604402082100F048F8002838D105F14C0267
S214010F70092100F041F890BB21686A78D20102F09D
S214010F80800221F48451114321602368AA7818490C
S214010F90920002F00C020B40134323602368EA78A8
S214010FA014490B4002F00302134323602369A98806
S214010FB0C3EA014222612369E9881B0C41EA034323
S214010FC0236162692989920AC1F3090141EA8222F1
S214010FD062616268E97A120A41EA0222626032BDFF
S214010FE0042032BD68C00F4000C00C40FFFF3F0028
S214010FF0F3EFFFFFFCEFFFFF2046B9E6024601F0E4
S2140110000F010F2902F1400050F8210008BF116CB2
S2140110107047000038B504000D4618BF002D27D0D4
S214011020FFF75FFE35A2032132F91000FFF74AFEF3
S214011030206820F4883040F4803020602168204603
S21401104021F4825141F0400121602946FFF746FF15
S21401105078B9206820F4883020602978012905D1E4
S214011060D4F8A00040F00200C4F8A000002032BD71
S214011070042032BD2DE9FC41054600260027002D3F
S2140110801446884618BF002932D08CB32868C0F3AE
S214011090802020B92868C0F300300028F6D02868E0
S2140110A0C0F3003060B9394628467F1CFFF7A6FF1B
S2140110B004210090042C684698BF214600220AE0CD
S2140110C02868012640F48050286008E010F8013BAB
S2140110D0521C08F8013B8A42F8D3641AD6D107F0AD
S2140110E00F070F2F05D00F212846FFF787FF00E0D7
S2140110F004263046BDE8F681000000000C0600001C
S214011100DFF850060168002944BF4FF04043836072
S214011110082141604162704710B508B9012010BD31
S214011120DFF834160A6812F4406F03D10B6843F4F3
S21401113040630B6000F001FBFFF7E2FF002010BDEB
S2140111407FB5040018BF002901D0802A01D00125EF
S2140111504DE0DFF8086600258B1B022B2160DFF8C7
S21401116000061CD941F234269B1B3AD042F2DE1609
S2140111709B1B36D045F299569B1B2CD042F2DE16AD
S2140111809B1B28D042F266269B1B1FD042F2ED160F
S2140111909B1B1BD04FF470669B1B28D003E001F00D
S2140111A00301216023E010226846F6F73FFDDFF8D1
S2140111B0B40530230360DFF8B065266000215DF8D2
S2140111C02130491C03290361F9D910E000F012F817
S2140111D022F0100203E000F00DF842F01002026067
S2140111E003E0C16941F01001C16100F0ADFA284683
S2140111F004B070BDC16921F01001C1610268704779
S21401120038B5006815460C46DFF85025811A0229C4
S21401121022D9C91E1CD041F23122891A23D042F2AA
S214011220DE12891A22D045F29952891A1BD042F24F
S214011230DE12891A1AD042F26622891A13D042F2B5
S214011240ED12891A12D04FF47062891A18D01FE075
S214011250A06840F4407004E0A168000200F4407009
S2140112600843A06014E06068A16803E06068A168B4
S21401127040F4402040F48060606041F47F4106E025
S2140112806068A16840F48060606041F47E41A160BE
S2140112902BB1102219462846F6F7C8FC00E00025B7
S2140112A00023A561E36131BDF0B503464FF07042FE
S2140112B00021BFF34F8FDFF8B464DFF8B444306821
S2140112C043F6E075C7031AD53167BFF34F8FF76E44
S2140112D0C7F34E3CC7F3C90E05EA4C1040EA8E70C0
S2140112E0E0605FEA0E00AEF1010EF5D15FEA0C0098
S2140112F0ACF1010CEED1BFF34F8FBFF36F8FBFF38D
S2140113006F8FDFF8707401203B60DFF86C34386152
S2140113101868000703D41046421E0028F8D1386A20
S214011320000602D0FF21B96204210820986012B994
S214011330042918BF0321BFF34F8F3068C20319D5A4
S21401134000233367BFF34F8FF26EC2F34E33C2F3FF
S214011350C90605EA431040EA867020603046461EFC
S2140113600028F6D11846431E0028F0D1BFF34F8F50
S214011370BFF36F8FBFF36F8F0846F0BDF8B590B01F
S2140113800C4658B1012C09DC002A18BF002B05D0E9
S214011390169919B1179F17F00F0F01D0012015E00C
S2140113A02402002504F4807440F223260095344379
S2140113B001941024029403931346049108AA0597F6
S2140113C06946FFF71DFF6846FFF76EFF11B0F0BDD7
S2140113D0F8B590B048B1012907DC002A18BF002BE8
S2140113E003D0169E16F00F0F01D0012014E009025B
S2140113F001F4807140F223250392294300270191CD
S21401140008AA049300230097694602970596FFF7FA
S214011410F7FE6846FFF748FF12B0E0BD2DE9F0433E
S21401142005000E4685B09146984618BF002E05D099
S214011430B9F1000F18BFB8F1000F01D1012020E06B
S2140114400C9C0DE019F8011B135C401C594008F870
S214011450011BB842F6D310213046E41B00F054F8C5
S21401146074B11027102C01AB324698BF27461020C6
S214011470012100902846FFF7ABFF002001AAE8E70C
S214011480002005B0BDE8F083F8B505460E461446C3
S2140114900027FBF7EDFF04E0721ED21BAC54240AB2
S2140114A07F1C002CF8D1F1BDF8B504460698154608
S2140114B0C5F10F06079F002814BF402200229B1E7D
S2140114C05B0842EAC302701E0243601C22702A4671
S2140114D0F6F7ACFB631C3A46F1B25819BDE8F84082
S2140114E0D2E770B50D46044616461021FBF7C0FF3D
S2140114F02278C6F10E0029460243601C227032464D
S214011500BDE87040F6F792BB491E05D0425C521CFE
S2140115104254D2B2002AF7D070472DE9F04F8946DF
S21401152004460121002C8FB00CD0180006931CBF76
S2140115301B9E002E06D0DDF87080B8F1000F1CBF90
S2140115401D98002800F0D2801E9B1B1F0D2B06D273
S2140115501E98C30700F1CA80189DED1F072D80F065
S214011560C58006999246189A1A9D0346CDF804A09E
S214011570009502A8FFF798FF102207AB009202AA77
S21401158001212046FFF724FF002D58D0002102A894
S21401159000220023B5F57F4F8C4680E80E10DDF85B
S2140115A064B00CD22A460221FFF76EFF0E270E2DDD
S2140115B059460DF10A0098BF2F463A4610E0FF2122
S2140115C0FE228DF8081004218DF809202A460DF117
S2140115D00A000A27FFF758FF0A2259460DF10E00A6
S2140115E0F6F724FBBB44102007A9EF1B019007ABBD
S2140115F0009102AA0121204625463C461AE0102702
S214011600102C594602A898BF27463A46F6F70EFB15
S214011610102F05D202A8C7F11001C019FBF728FF49
S214011620102107AA019107AB009202AA01212846C0
S214011630BB44E41BFFF7A2FE002CE0D12C46189A0F
S21401164006990BA8C3462546D2B2FFF74AFF1021DA
S2140116500BA8FFF759FF30464E465FEA0A0480465C
S2140116602FE01027102C02A898BF2746012E00EB6A
S2140116700709C7F1100A0BD13A464146F6F7D6FAE2
S214011680102F03D251464846FBF7F2FE00F032F81F
S21401169000975B4642460BA92846FFF7BFFE30007F
S2140116A00CD13A46594602A8F6F7C0FA102F03D2D3
S2140116B051464846FBF7DCFE00F01CF8B844BB4434
S2140116C0E41BCED1189A06990BA8D2B2FFF709FFF0
S2140116D0102002AB009007AA0BA92846FFF79EFE32
S2140116E01E9A1D9802A9F6F7A1FA002108460FB026
S2140116F0BDE8F08F102007A9019007AB009102AA60
S214011700012128463AE6F0B587B0009313460C9CB3
S2140117100D9D0E9E0F9FDDF840C00A46DDF844E0A1
S214011720CDF814C0CDF818E0012104970396029570
S2140117300194FFF7F2FE07B0F0BD0021002200235E
S214011740002480E81E0070474FF000400B490860F7
S214011750D6E4000000C02F4068C00F400000DCFE49
S2140117600CC00A4060C02F400300DCFE14ED00E010
S21401177060EF00E0C0C12F4010C02F4004C02F40D2
S2140117802DE9F84F04462B48C1682B4F4FF000084F
S2140117903D460A6902F18C0609E0317C014205D01A
S2140117A06B69EA6828469969536898471835286826
S2140117B00028F2D14FF47A70F1F7CEFCA0FB049525
S2140117C001FB0455F1F7BEFC82468B46002D08BF8F
S2140117D0B9F1000F0AD0F1F7B5FCB0EB0A0061EBE6
S2140117E00B01A94222D828BF48451FD23C4600E03B
S2140117F0183421680029E9D0327C0A42F8D0E16821
S21401180020460B6898470028F2D05FEA0408DDD02E
S21401181009E0317C014218BFB84503D0FB68384661
S21401182099688847183738680028F2D14046BDE8DD
S214011830F28F00BF10640100002D0000D3BBD9B1A8
S214011840B2F5803F5BD2022A1ED98C46B1FBF2F17B
S21401185002FB11C31B0443EA1043B3FBF2FC02FB79
S2140118601C3380B240EA0343B3FBF2F002FB1032B2
S21401187040EA0C4000237047022A05D98446B0FB93
S214011880F2F002FB10C270474AB105D100F0010226
S21401189049085FEA3000704700220023704701F0D4
S2140118A087BC0B000200002100207047F7D30022FE
S2140118B000237047904271EB030CF2D370B5B1FA76
S2140118C081F4B3FA83F52C1BA340C4F1200532FA48
S2140118D005F63343A2405FF00046E64002E05B08AF
S2140118E05FEA3202841A71EB030524BF20462946BB
S2140118F07641F4D302000B003000002170BD70B5B4
S214011900B1FA81F4B2FA82F5C4F120046419B4F193
S2140119102006DAD3B2405FF00044F440002502E02E
S21401192052085FEA3303C61A71EB020E24BF304633
S214011930714664416D41F3D302000B00200029007B
S21401194070BD00207047000010B5DFF8C407DFF84F
S214011950C4170A68D30709D404686107F7D5026873
S21401196042F00402026045F20A2010BD002010BDBC
S2140119700146042901DC020002D145F20C20704721
S214011980DFF8942700F0070010605068032920F064
S2140119900E00506003DC506840F0080050600229D9
S2140119A008DC506840F00400506003DA506840F0EC
S2140119B00200506000207047DFF85C07006810F0F6
S2140119C0070001D0052800DB04207047082808BF5F
S2140119D0012002D0102801D10220C9E745F20E20CD
S2140119E07047DFF82C070168CA07FCD5036843F087
S2140119F00103036001688A0706D5036843F0020302
S214011A00036045F20920704700207047F8B5054687
S214011A100C4616461F46FFF7CFFFB84203D038469E
S214011A20FFF7A6FF70B9DFF8E816DFF8F0060A68D8
S214011A30041942F001020A604E664D650C66BDE867
S214011A40F140CEE7F2BD2DE9F04107460E461446B9
S214011A509846FFF7B1FF404503D04046FFF788FFA1
S214011A60B8B9DFF8AC56DFF8B4062968861941F034
S214011A70010129606F652E66FFF7B3FF48B9686FED
S214011A80002103E004F8010B000A491C4145F9D383
S214011A900020BDE8F0812DE9F04100F059F81ED193
S214011AA00A220021002000F06CF8804609E0B069A7
S214011AB004233A464146FFF7C6FF04000BD12D1F0B
S214011AC03F1D042DF3D235B1B069EBB23A4641461B
S214011AD0FFF7B9FF044696F82100FFF777FF2EE0DF
S214011AE02DE9F04100F034F829D10B220021002025
S214011AF000F047F880460EE00022002000F022F8B1
S214011B000428FBD3B06904234146FFF77FFF040096
S214011B1011D12D1F3F1D042DEED265B100220020EC
S214011B2001E000F00FF8A842FBD3B069EBB24146E2
S214011B30FFF76CFF044696F82100FFF747FF2046A3
S214011B40BDE8F081395CC300401C99400A437047E8
S214011B5006460024337A0F461546012B70470B467E
S214011B60014680B5184600E080B5F6F75FF8BDE897
S214011B700140E9E6DFF89C050068400800F0010036
S214011B8070470907090E41EA002102F00F0242EAF6
S214011B900100704710B500F118021068537B411818
S214011BA0012B0AD1D27A4FF0FF3321FA02F4501CEE
S214011BB003FA02F2844091432143084610BDF8B56A
S214011BC00C46DFF84C6531681D4641F00101316075
S214011BD004F00F0106290CD101270021706501B11F
S214011BE07266DFF8380504193466FFF7FAFE88B125
S214011BF0F2BD0A29F0D0002914BF0129012707D018
S214011C000829E9D0002707291CBF0B290929E4D197
S214011C100121E3E70FB1706F28600020F2BD024694
S214011C201032937C0020082B08BF084602D0102BE8
S214011C3008BF4800116808187047DFF8E42490428E
S214011C4002D20022400B0BE045F20B20704720B178
S214011C50412802D20022400802E045F210207047D7
S214011C6001E04008521C0028FBD10A7070470000B2
S214011C707CB50446DFF8AC54686A0DF1010100F446
S214011C807C6068626A6A23691B0B42EA03326A62F5
S214011C906069FFF7D2FF002826D1686A9DF8011017
S214011CA004F1210600F0CCF96862686A40F0010090
S214011CB068626968890C890469603178F079192944
S214011CC013DB00280AD0192901DD012806D01A29BC
S214011CD001DD022802D01B2902DD032800F0AE80B8
S214011CE01C2902DD45F20D2076BD052800F2A680EE
S214011CF0DFE800F08F93989C03A0686840F002002C
S214011D006860296821F0400129602868327A9201CA
S214011D1002F0400210432860296EDFF80C040140EF
S214011D2029662A6E94F82010707A090201F440712F
S214011D30800200F4806001430A432A66F07869460F
S214011D40FFF785FF0028CFD1286E9DF80010090106
S214011D5001F0700108432866707808286FD1286E54
S214011D602866B078811E0B2970D2C0F10C002A6E4D
S214011D700006000B00F4704010432866B17FF07F28
S214011D80327F090601F0706141EA0071707F00053B
S214011D9000F4700012040143F07E02F47022114335
S214011DA0B27E000300F470400143307E120202F45A
S214011DB070621143F27D000100F0F000014304F16E
S214011DC0410002F00F0211436966717E4279037980
S214011DD0090601F07061120502F47002114342789F
S214011DE01B0403F4702319430378120302F47042B0
S214011DF01143C27880781B0203F470631943120101
S214011E0002F0F002114300F00F0001430020A96622
S214011E1076BD686840F0280072E7696841F4A071F1
S214011E2069606EE7686840F4206069E7696841F4B4
S214011E30A041F5E7686840F4003061E705E1102845
S214011E4003D1286E40F001008AE701E145F2112036
S214011E5076BD00007CB50646B24C206A694600F4A1
S214011E607C602062226A33691B0B42EA03322262DB
S214011E707069FFF7E2FE002854D1206A9DF8001031
S214011E8000F0DEF82062206A40F001002062216B3B
S214011E9001F47C612163206BB169090B40EA0130D2
S214011EA069462063F069FFF7C8FE00283AD1206B27
S214011EB09DF8001006F1210500F0C2F82063206BA2
S214011EC040F0010020636168890C89046160E87B49
S214011ED004284ED8DFE800F03C414549030061681C
S214011EE041F0010161606068606021688F4821F0FF
S214011EF08001216022682B7CDB0103F080031A43FA
S214011F002260216D01402165226D96F82010C901DD
S214011F1001F080010A430DF101012265E878FFF71F
S214011F2096FE002840F08B80206D9DF80110090177
S214011F3001F0700108432065287808281AD1206D21
S214011F4020652979A87801291BD1401CC0B218E068
S214011F50606840F020006060C5E7616841F4807108
S214011F60C0E7606840F40060F5E7616841F48041CD
S214011F70B8E76AE0102803D1206D40F00100DFE7E2
S214011F8066E0A0F10901082957D2C0F11000226DC0
S214011F900006000C00F4E0601043206506F14100E5
S214011FA0C27A41780379120602F0706242EA01723F
S214011FB04179090501F470011B040A43C17803F451
S214011FC070231A438378090301F470410A430178A8
S214011FD01B0203F470631A43EB7F090101F0F00161
S214011FE00A4303F00F031A436265817A427A037A41
S214011FF0090601F07C51920402F47C021143C27975
S21401200080791B0303F47C331943920102F47C624A
S214012010114300F03F000143A165687881088900FB
S21401202001F004014208520002F00202114300F0DE
S21401203001000843E065002076BD45F2112076BD1B
S214012040490001F03E010843704745F20F2076BD76
S21401205045F20E2076BD70B50446354920688842A3
S21401206001D0042070BDF1F7F2FA2046F6F7C6F863
S214012070207B072821DAF1F7A7FAF1F7E2FA294DD2
S214012080286820F002002860296841F001012960D3
S2140120902A68D007FCD4BFF34F8FBFF36F8F296830
S2140120A041F002012960207A04F1210140B94E78FD
S2140120B02046FFF7DDFD68B170BD45F2122070BD08
S2140120C0012804D10E782046FFF7C4FEF3E745F257
S2140120D0082070BD1748A8603046FFF777FCA8B9FE
S2140120E02968637B1448A27B0140E07B41EA0241F8
S2140120F01B0603F0F853800000F004001943014367
S21401210029602968002021F00201296070BD0000C5
S2140121103C002F40C0002F4094002F4000005AA5DD
S2140121200100008000002F408E08FFFF0EF8FFFF21
S21401213053454D4385404000FBFF00E000210180F0
S214012140704770B5048800250EE04B5D84EA0324D1
S21401215008236600240444BF86F4805686F02106D0
S2140121605B1E3446F5D16D1C9542EED3048070BDDE
S21401217000880880704744F64E710180704770B53C
S214012180048800250EE04B5D84EA032408236600DC
S214012190240444BF86F4004686F005065B1E3446DA
S2140121A0F5D16D1C9542EED3048070BDF8B504469A
S2140121B00E461546032168460027F1F73BFFDFF878
S2140121C034E12346324600212AE012F8010B1EF8BC
S2140121D0000000F03F067140400620D57C40FE43DB
S2140121E08DF801409DF800407440B3F5007F8DF8EE
S2140121F0004014D19DF802403E0A04F0FD0084EA36
S2140122004604F64304F0020404438DF8024004F049
S214012210FE00744004F0010404438DF802407F1C64
S2140122209F429DF80140D0D3B3F5807F05D19DF83C
S214012230020040F003008DF802009DF800206308BC
S2140122409DF80200520840EA81009DF800108DF8C2
S214012250020001F0FD0141EA440101F0FB0141EAFF
S21401226082019DF8002001F0F70141EAC301A308AD
S21401227001F0EF01920841EA02119DF8002001F0F9
S214012280DF0141EA4311E30801F0BF01D20841EA48
S2140122908211220901F07F0141EAC31129709DF8DC
S2140122A000109DF80030C1F3001141EA42016209B5
S2140122B001F0FB015B0941EA83019DF8003001F062
S2140122C0F70141EAC201A20901F0EF0104F080041E
S2140122D09B0941EA03119DF80030A87001F0DF0167
S2140122E041EA4211DB0901F0BF0141EA83110C43C7
S2140122F06C70F1BDE82B00000346002010B50A46BD
S214012300511E4AB113F8012B14001EBF02F001043E
S21401231020185208F8D1F2E710BD2DE9FC41174606
S21401232001AB002680460D461E6001AAFFF73EFF60
S214012330002001A90A5C3B5C5A400DF80020401CB5
S2140123400328F7D303216846FFF7D6FFB8F5807F49
S21401235008BF0B2403D0B8F5007F08BF0C2410B9C2
S21401236045F2343045E0A0423DD19DF802109DF87B
S214012370006008460209C1F3C00102F002024309E7
S214012380114303F004031943B708F4089DF801301C
S214012390C6F3400207F002073A4304F00404360984
S2140123A0224306F008063243DE0006F010069F00C0
S2140123B0324307F020075C003A4304F0400422430E
S2140123C003F080031A43B8F5007F03D1C00100F47F
S2140123D080700243A85C012303FA01F1414045F2F3
S2140123E03530A95405E001280CBF45F2373045F2D7
S2140123F03630BDE8F681000031B1D0F8C01041F4A6
S2140124008071C0F8C0107047D0F8C02022F48072E6
S214012410C0F8C020704700002DE9F84EA6A68946F0
S2140124208BB00746D6E900AB14461D46CDE900AB96
S21401243000F066F8072002902DB1240401200394D1
S2140124408DF8110003E0002203928DF8112002A9F5
S21401245000220191694600923846C847002802BF0B
S2140124600598934908420CB014BF40F20970002049
S214012470BDE8F08E2DE9F84D91A588468BB006464D
S214012480D5E900AB00F023F83727F1F7D3FD012299
S21401249002978DF81120240402AB002203946946AA
S2140124A0019330460092C047002803BF0598804933
S2140124B0084240F2097004D1800654BF40F20C7005
S2140124C000200CB0BDE8F08D0546D6E900AB1446F9
S2140124D002A8CDE900AB2421704700002DE9F043A6
S2140124E079A60D468BB000F006F8002702AE0297DB
S2140124F06946019608E00446D6E90089CDE90089D7
S21401250002A82421F1F796BD20460097A84708B1F6
S21401251040F209700BB0BDE8F08300002DE9F84DDC
S2140125206BA688468BB0FFF7CFFF1027F1F782FD29
S21401253000F00CF8002802BF05985D4908420CB06F
S21401254014BF40F209700020BDE8F08D029702AA80
S2140125500394012400238DF81140019269460093EB
S214012560284640472DE9F8475BA78A468BB00446C4
S214012570D7E90089FFF7C2FF0B2600270296012242
S21401258002AB03978DF81120694601932046009708
S214012590D04710B140F2097022E0606A40F22A7515
S2140125A010F0706F19D1D4F8C01041F2883041F0A4
S2140125B00201C4F8C010F0F7D8FD01212046FFF74C
S2140125C01BFF4FF47A70F0F7D0FD00212046FFF78D
S2140125D013FF606A10F0706F01D1284600E00020FA
S2140125E00CB0BDE8F08700002DE9F24F0446314FEC
S2140125F03BA0B0B016469946D0E900AB3A9DDDF84F
S214012600EC80CDE900AB07A839462422F5F70EFB8E
S21401261002A81421F1F70EFD10A807F1240180226B
S2140126200127F5F703FB0796002007AB02AA0890DF
S21401263010A80590294601930123009242468DF881
S21401264025702046CDF80C9004978DF80B7000F09D
S214012650F3FC309E0AE0012342462946204600F05C
S214012660EBFC0A212046002700F0DCFC69462046E8
S214012670B04700280ED1E06B4102F7D4A26E12F0EB
S214012680802F18BF002FE6D1E06B010205D440F27F
S214012690297009E040F2097006E0206C20F47060B1
S2140126A02064216C2164002031B0BDE8F08F000069
S2140126B00800F9FFF02A00000000000000000000FA
S2140126C00000000000000000000000000000000004
S2140126D000000000000000000000000000000000F4
S2140126E0000000000000000000F01F02DFF8903933
S2140126F0000A914003EB800030B50325954004683D
S214012700AC432143016030BD21B1816C41F0010130
S21401271081647047826C520852008264816A21F497
S2140127204071816270470000014600202DE910408B
S21401273005A2C3B252F823308B4203D0401CC4B268
S214012740032CF6D3C0B210BD0000000000002C40E0
S21401275000402C4070B50D460446616BDFF8240935
S21401276001406163A26B1040A0632046FFF7DCFFC7
S2140127700FF614116FF07F0331F9100098420FD055
S21401278001000DD4012600F01F0006FA00F0DFF864
S2140127900029490942F82100BFF34F8FBFF36F8F1D
S2140127A0616BDFF804090143616315B1A26B104345
S2140127B0A06370BD70B5034600299D6C25F03605F3
S2140127C056D0C878032808D1996A21F480319962D5
S2140127D0986A40F4003098624BE0586A840702D544
S2140127E041F6641070BD8E68B6F5803F05D20C695F
S2140127F0C868002C08BF002801D1042070BD08B1AC
S21401280045F01005022E05D3087845F0220508B1DB
S21401281045F00405487850B1D3F8C84045F0800526
S21401282044F48054C3F8C8408868186007E0D3F8B9
S214012830C84025F0800524F48054C3F8C840C87801
S21401284002280BD05C68486804F460448968C0F3C9
S2140128500C00044344EA01445C6005E0986A45F0D4
S214012860220540F480109862116841F4001111604D
S2140128709D64002070BD10B54A7AD2B103694A7AC8
S214012880CB60032A15D143690B6182694A61C0692D
S2140128908861042201EB820083681B02022A83609E
S2140128A003D3446843EA146383601046421E00283B
S2140128B0F0D1C86970B14A7A012A18BF022A03D03A
S2140128C0082A18BF062A05D1C968084202D041F66F
S2140128D0661010BD002010BD0346104670B55C6C36
S2140128E09A6CD50704F0FF040AD400F063F805E0FB
S2140128F01D6ACE68521C46F82050401CA242F7D3EF
S21401290070BD2DE9F04104460D466B68002200219A
S214012910884613F0030002D01B1D1B1A6B60AF68BC
S21401292068684FF0B876474321E0216B0142FCD03E
S214012930EB78012B0BD1880609D544F220012163DF
S21401294020E04FF0806041F66A18206318E04B01E2
S214012950F7D411F0B87F02D0A87870B12663294663
S2140129602046FFF7B9FF0246202020630021B2EB84
S214012970970F05D2DFF83407D8E74FF00108266332
S214012980022020634046BDE8F0810346104670B53C
S2140129905A6C9D6CEE07C2F307440AD400F00AF89D
S2140129A005E00D69521C55F82050401C1D62A242DC
S2140129B0F7D370BD4A6812F0030F04D0151D02F05C
S2140129C00302AA1A4A608D684A685543AD08AC42AC
S2140129D002D22D1AAC4200D92C46002270472DE9AE
S2140129E0F04104460E46706800220021002510F0D2
S2140129F0030F04D0031D00F00300181A7060B768B7
S214012A0070684FF0B878474319E0216B0142FCD05B
S214012A104B0105D54FF08060206341F66A1025E032
S214012A2011F0B87F03D0B07878B1C4F83080314661
S214012A302046FFF7AAFF0246102020630021B2EBD2
S214012A40970F07D2DFF86806E0E70125C4F8308063
S214012A5000E0216BDFF85C261142FAD011F0B87F56
S214012A6002D0B07800B9012522632846BDE8F0817E
S214012A7030B5C3680C6A426AD5072AD40A7A042A92
S214012A802AD04D7A6D1E082D11D8DFE805F005080D
S214012A900B0E0E050805050044F4D01407E044F4B7
S214012AA0D81404E044F4102401E044F40034032A6A
S214012AB00D68DFF8042608BF44F440042D061340D1
S214012AC005F07C552B4304F47B044A68234382605B
S214012AD0C360097A042903D1826B520852008263CB
S214012AE030BD10B50446002000230AB910BD236B83
S214012AF0DFF8C8050342FAD05A0148BF41F66A100A
S214012B0006D413F4702F12BF01202046FFF7B3FE40
S214012B10DFF8AC15216310BD70B513460022002402
S214012B202BB9CA6812B3FFF7ECFE21E0046BDFF89D
S214012B3094351C42FAD0650148BF41F66A1211D499
S214012B40DFF88465344205D08B780BB1E40201D5F9
S214012B50012207E0CB78032B04D1C968DFF86C4566
S214012B6025680D60DFF86835036302E0FFF737FF7D
S214012B700246104670BDF8B504460D46FFF7D4FD73
S214012B800FF26C52032132F91000FFF7ADFD42F24D
S214012B9010724FF08071204600F02AF8A16A626C2C
S214012BA0E36A2E796879EF7921F44C7102F0E0221C
S214012BB0360106F030063143AE790243287A42EAFE
S214012BC006423F022D6807F4F857000600F0F85059
S214012BD03A43024365F31343E3626264A162A06C65
S214012BE0002120F00900A0642046BDE8F440B1E5CC
S214012BF010B5C46A01F0E0631C43C46201E03AB157
S214012C00521EC36A0B42FAD1100002D0012000E026
S214012C100020C0B210BD10B5026C4FF400704FF624
S214012C20FF74CC60130C03F0070398408860DFF84C
S214012C30A404024042F030020A6110BD0346104669
S214012C40F0B59D6C0026002200244FF480772D07F6
S214012C50B1FBF0F544BF01244FF4007795B3B1FB07
S214012C60F5FC604538BF6D1C102D17D92A0900E008
S214012C70521CB7FBF2F002FB10700028F8D1012AB3
S214012C80F6D0B5FBF2F600E0761C02FB06F0A84291
S214012C90FAD3B1FBF6F0B0FBF2F10BE01020B0FB7B
S214012CA0F5F06843B1FBF5F1D0F1100008BF2A46F4
S214012CB002D02E4606B1761E22B1002C14BF022089
S214012CC00120C240D86A360106F0F006120202F46C
S214012CD07F426FF30F1006431643DE62586A0207FF
S214012CE0FCD50846F0BDC26A42F00062C26201E04D
S214012CF039B1491EC26A1301FAD4080002D0012074
S214012D0000E00020C0B270472DE9F043002721F013
S214012D1040481446210518BF41F668105DD11A4691
S214012D2012F003011CBF131D5A1A4FF6FC718C4694
S214012D30B2FBF1F60CFB162101B1761CDDF81CE0A6
S214012D40BEF1010F09D1002100E0491C414504D222
S214012D5010F82130DB07F8D40F4607EB4609C845C3
S214012D6038BF032039D303461046224613E0340306
S214012D70002843F8274044F0110443F827406A60CE
S214012D8014BF2124002414436C60B40802EB8402AF
S214012D9000B1801BBF1CBEF1000F03EB87050CBF03
S214012DA04C464446A74208D2604588BF6646DED8F0
S214012DB000280CBF04260646D9E755F8040CBEF1D8
S214012DC0010F40F0020045F8040C05D153F8290024
S214012DD040F0210043F829000020BDE8F0832DE9EA
S214012DE0F0410446069889000027C908022804BF56
S214012DF0121D1B1F12F0030518BF41F668105CD1A7
S214012E0013F003054FF6FC7C1CBF1E1D731BB3FBA2
S214012E10FCFC4FF6FC7606FB1C350DB10CF1010CE3
S214012E2002280BD1002500E06D1C8D4209D214F852
S214012E3035E05FEACE78F7D42F4602E0614500D24E
S214012E4030B107EB0C0505F1010C614502D208B162
S214012E50032032E0394616E0271D002B47F83120C3
S214012E604FEA0E4C44F831C014BF2127002747EA29
S214012E700C0744F831704FEA9E0702EB87020BB14C
S214012E80A3EB0E03491CA94219D2B34288BFB6462A
S214012E90E2D8002B0CBF4FF0040E9E46DCE7DFF8AD
S214012EA02C02211D41F835004FF4802244F83520CC
S214012EB0DFF8243244F835300020BDE8F0810028E0
S214012EC0EDD104EBC10050F8081C41F0020140F8B6
S214012ED0081CF1E730B50D7855B912F0030402D09D
S214012EE041F6681030BD002B0CBF0260826503E01E
S214012EF0002202604B688365846ADFF8E021144093
S214012F008462836A0D7849782D0205F44075C906F6
S214012F1001F060510D432B438362826C42F0010243
S214012F208264002030BDF8B516460546F4680F46A3
S214012F3004B93469387878B1022819D022D20093BE
S214012F407368B268B968786853432246FFF7DCFEB7
S214012F503A78032A0BD050B9F178032907D0737851
S214012F6022463946284601B0BDE8F040B2E7F2BD38
S214012F7000937368B068B968224643437868FFF7E0
S214012F802EFFE5E741F66510F2BDF8B51468054673
S214012F905668012714B1E078012800D000202A6B7A
S214012FA0D30403D54FF48050286338E0002C18BFB3
S214012FB000290ED068B9E078022808BF012303D0A3
S214012FC003280CBF0223002322462846FFF7ABFF47
S214012FD020B1002128460027FFF796FB06F12002C4
S214012FE021462846FFF7E6FB08B10420F2BD31462C
S214012FF02846FFF73DFD24B1E078421E9241D20FEC
S21401300000E0012231462846FFF76BFD34B128B9AE
S2140130103A4621462846BDE8F8407DE5F2BD41F630
S2140130206910F2BD826E61F30E228266806E10F028
S214013030802018BF0120704730B5B3B1846C284B8F
S21401304001F0FF01120402F4E02244F000748464EB
S214013050D0F8CC501D402943114341F08071C0F88F
S214013060CC10C16B41F4400108E0D0F8CC2022F02E
S2140130708072C0F8CC20C16B21F44001C16330BD21
S21401308068C00F40C0AE80EA80FF6E006F0000008F
S21401309080E100E0134A14485168D2681047114A8B
S2140130A012489168D2681047FF507F1520007005BE
S2140130B01000700502007001FFFF04C001000F0040
S2140130C001000F040200701500007011F4250200C3
S2140130D0024070150700F00721000400FFFCFFC73F
S2140130E000FFF8FF7494010000002C4000402C40C3
S2140130F0FFFF020604060000FEB504460A461068F5
S21401310078B1694600200023002581E829000223C2
S21401311001258DF800301C4908238DF801500191D6
S214013120029369462046FFF730FF0546012D12D16E
S214013130666A42F21077F00705D53A464FF00071FD
S2140131402046FFF755FDB00705D53A464FF080619A
S2140131502046FFF74DFD2846FEBD10B504468022E9
S2140131600F200823A06002216273A273E373237405
S2140131702173206804F10801FFF7FDFC034A0020D3
S214013180A26210BD00000000D4250200F930010043
S21401319000F148018A6F22F002028A670B6800225A
S2140131A023F008030B6000230021FFF745BF000052
S2140131B070470000BFF34F8F054906480A6802F4BE
S2140131C0E06202430A60BFF34F8F00BFFDE700BF16
S2140131D00CED00E00400FA0501294FF4801002D13D
S2140131E0044908607047044A1060BFF34F8FBFF36D
S2140131F06F8F704700E100E080E100E000F01F0201
S214013200DFF8D433000A914003EB800030B5032584
S21401321095400468AC432143016030BD014600205F
S214013220DFF8B82352F820308B4202D0401C082821
S214013230F8D37047088C4A8C904205D2088CCB692B
S2140132401B18488C181A70470A8C488C101A70473D
S21401325010B50C46FFF7EEFFE169491E884201D121
S214013260012010BD002010BD2DE9F04104460D4699
S21401327028680026B0460423014603FB00FCB2FB87
S214013280FCFC1FFA8CF70FB94FF0010C1FFA8CF7F4
S21401329007FB03FE7F1C5F43B2FBFEFEAEEB000E98
S2140132A0B2FBF7F7C71B77453CBFBE460CF1010CD6
S2140132B0714502D371461E46E0465B1C212BDCD3CA
S2140132C06422B0FBF2F000EB4000884238BF40F2C7
S2140132D0215050D32046FFF7A1FF0FF21C320321E5
S2140132E032F91000FFF78AFFA069321F042A20F482
S2140132F04020A0612169DFF8E80238BF41F40031BF
S214013300761E3606014006F0F8560E43C8F30C004A
S21401331006432661206920F000502061A16921F052
S2140133201001A161A06980088000A061A1692879C7
S2140133300143A16122696879400300F4005022F438
S214013340005202432261A879E97940EA0140E0622D
S214013350A16A41F08801A162A06A40F44040A062DF
S214013360A169287A08B141F40021687A08B141F4CC
S2140133708021A1610020BDE8F08180B5C16A11F409
S214013380E06FFBD142695102FCD500238361FFF750
S21401339045FF0FF26422002132F91000BDE8044017
S2140133A02CE74FF4E1310022016002714271827113
S2140133B0C27102724272704730B500F018F81443B9
S2140133C00461856A2B438362826942EA0121816135
S2140133D030BD30B500F00BF894430461856A25EAE8
S2140133E003038362826922EA0121816130BD046997
S2140133F00B0203F4404203F44073090A7047014686
S2140134004869896A090C01F0C3010843704730B561
S21401341005E043691C02FCD511F8015BC561134642
S2140134205A1E002BF5D130BD2DE9FC4104460E464F
S214013430606901030FD5E2698DF800209DF8001040
S214013440491C8DF80010756A2DB1B36A40F21D5201
S21401345031462046A847656906F12C08A80237D5EB
S214013460A1698A0234D5E76A3F0E07F0070718E01C
S214013470E3694354491C9142FAD3F068BF1A1044D9
S214013480F0603169891A3161306950B9022188F8D2
S2140134900110756A2DB1B36A40F2175231462046C3
S2140134A0A847F8B250B1306940B13169FAB29142D9
S2140134B03CBF3269D2B2F0680021DCE7B06900286F
S2140134C071D1316921B94FF002612046FFF781FFC2
S2140134D06069010265D5A269100262D5E76A3F0AF2
S2140134E007F00707C7F104074EE030843846471E49
S2140134F0C0B2002859D031462846FFF7A9FE002859
S2140135001CBF746A002C05D0B36A40F21C523146C7
S2140135102846A04731462846FFF79AFE50B1708CE0
S214013520F169401C884202D10022728402E0708C4C
S214013530401C7084308CE969B2691154308CF16991
S214013540401C88421ABF308C401C0020CDE78B5CA3
S214013550521CE3618242FAD331683F1A014431605A
S2140135607268121A7260706870B9002188F80010CB
S214013570A26922F40002A261756A2DB1B36A40F213
S214013580165231462046A847F8B250B1706840B18D
S2140135907168F8B281423CBF7068C0B231680022DF
S2140135A0D8E7BDE8F3812546A0E72C4690E7FFE77C
S2140135B00C4881680C4837E7FFE70A48C1680B48A2
S2140135C032E7FFE70748016909482DE7FFE70548A5
S2140135D04169084828E7000068C00F40442A0000F7
S2140135E000E0FFE0409301000080184000C0184052
S2140135F00000194000401940FFFF18051C000C0090
S2140136001801020306031A050E060000491EF8B546
S21401361001250829434F16463C6852D8DFE801F0D9
S21401362005152547472C47514500706810F1010FD5
S21401363018BF00280FD0A069002814DD94F82214C2
S214013640012910D104F118000BE0706810F1010F88
S21401365018BF002801D10020F2BDE06104F114007A
S2140136602573F4F7B8FB00252BE040F2FD3104F199
S2140136702000F0F7DFFC24E0B178002904BFF078E1
S214013680002804D13178012908BF657319D0726802
S214013690314604F12000F4F7C9FA70682573E06139
S2140136A004F11400F4F797FB0BE0052509E000216F
S2140136B004F11400F4F780FB386800211830F4F7A1
S2140136C07BFB2846F2BD0020012900D0704738B5A3
S2140136D0144C0125206840F2FD3380F82254022163
S2140136E000F12002806800F0CDF9216881F82354AA
S2140136F032BD002059B90B4840F2FD330068022163
S21401370080F8242400F12002806800F0BBB97047DD
S21401371004490860002070470249086009680020D3
S214013720886070478494010010B5134601200BB9D8
S214013730032010BD00225A745A68002A1CBF146860
S214013740002C03D00A4601211846A04710BD10B52B
S214013750134601200BB9032010BD00229A745A6843
S214013760002A1CBF1468002C03D00A460221184602
S214013770A04710BD2DE9F04385B0027B00247AB343
S214013780416889684D7995422AD3096841B301EBAE
S214013790C20100270C23A1F10806726800E07F1C15
S2140137A031788F421CDA03FB07F5511991F800E0D6
S2140137B0BEF1030FF3D1002600E0761C02F10807E4
S2140137C07B5D9E4209DA131D90F80E905F59330116
S2140137D017F80380C845F0D1FC18C97841730CB9B5
S2140137E001202AE0846005464FF00008934E944F6E
S2140137F001202179884520DA00208DF80400A1688F
S21401380011F828108DF80210A268C909931C02EB62
S214013810880233F828000129694608F10108ADF845
S2140138200000537802AA8DF8033014BF029602975F
S2140138300395286800F084FADBE705B0BDE8F0835D
S21401384038B504460120A16871B1002506E08868F4
S21401385010F8251020686D1C00F092FAA1680A790C
S2140138609542F4DB0021A16032BD00007FB505461C
S21401387014460120002C14BF002D03200CD0491E35
S214013880052909D8DFE801F05B0309192F45002156
S21401389029736974A974A960AEE0696800291EBF1E
S2140138A0297B22788A42F7D011B12846FFF7C8FF54
S2140138B020780022AA73287311E069680029EBD0EA
S2140138C021886A7B0C460904B2EB116F0AD1AB7BE7
S2140138D0E1B2994206D02846FFF7B2FFAC732846FC
S2140138E0FFF748FF88E06A68002A1CBFA96800291C
S2140138F0F8D00026AA6811798E427DDA926821787E
S21401390012F82630994204BF286800F054FA761C53
S214013910F0E76A68002A1CBFA96800296CD0002657
S214013920AA6811798E4267DA9268217812F82630F1
S214013930994204BF286800F048FA761CF0E721682F
S2140139400A7802F01F02012A02BF0B796A7B9342B2
S21401395052D14B782846012B0AD0022B0DD0032BCF
S21401396014D0092B1CD00A2B35D00B2B3AD042E0B1
S2140139704A88032100F042F81AE06B6805F10F024D
S21401398004211E68B04705F10F0107E06B6805F1D9
S214013990100204211E68B04705F1100161602BE09A
S2140139A04A8800F02BF8217B59B1A26809210192BF
S2140139B06A466B681D68A84700996160019AA26013
S2140139C01AE0636806210093A26801926B686A4652
S2140139D01C68A04710E0498805F10F02090AE9733F
S2140139E0072104E0498805F11002297408216B6853
S2140139F01C68A04700E0052004B070BD120A8DF8CF
S214013A00082023685A888DF80920704770B50E463D
S214013A100C4C2168154609B1022070BD214600F004
S214013A2093FA010009D1206808B9032070BD00206F
S214013A30FF2166602073A1732C6070BD4F370100B3
S214013A4029370100C025020010B5040001D103206A
S214013A5010BDFFF7F5FE0021216061602173A1739F
S214013A6010BD10B5040001D1032010BD607C08B163
S214013A70022010BD206800F05BF9010004BF01219F
S214013A80617410BD10B5040001D1032010BDA07CE7
S214013A9008B1022010BD206800F04FF9010004BFF4
S214013AA00121A17410BD00001CB5044600F040F8C9
S214013AB00021216084F8CD1000F023F9002016BD06
S214013AC02DE9FC4104000D461646984605F00F0107
S214013AD008BF03202AD0606830B34B000C2143EAAC
S214013AE0D5124A43A718387D08B102201EE000F01F
S214013AF01FF8012000F004F92906D4F804C0206854
S214013B0043463246294603D5DCF80840A04702E082
S214013B10DCF80C50A8470446200006D000F008F850
S214013B20002000F0EDF800E006242046BDE8F6810E
S214013B30684600F045BB08B903207047436813B1D7
S214013B4000685B69184706207047FEB504460E7A82
S214013B5001200C25F309102E06F00F021ED104F1E8
S214013B60CC060022F0700E2120460027FFF7E3FF67
S214013B7002230022B37000203270002305FB00F1FF
S214013B80401C10282144CF600B610A75F6D3A36848
S214013B900121204698470020F070FEBD082A19D260
S214013BA043EA42036B432344DA689AB10D680095F1
S214013BB04A6801924D7A8DF80850487A00281DBF50
S214013BC00021217584F8201018751A69DB6869468A
S214013BD020469847FEBD002918BF002801D10320C2
S214013BE070478268002A18BFFFF7AFBF01207047F1
S214013BF0F8B5140005460E4601D10320F2BDFFF7C5
S214013C0097FF384A0021D02302F1CD0C03FB01F7C0
S214013C10D05918B11CF80770BD425ED0491C012965
S214013C20F4D91168002700291EBF0127D2F8D00059
S214013C30002803D000F065F80220F2BD13FB07F35D
S214013C40D71887F8CD5000F05CF8BE6007F1CC06B7
S214013C500020757030700023F07084460C224243B9
S214013C60401CB9181028CB60C1F810C00B75F5D3ED
S214013C70A81E012818D81C4988A0002978601CBFF6
S214013C801A4A002A0BD01A4800281CBF19490029D5
S214013C9005D0194800281CBF1849002909D1384603
S214013CA0FFF702FF0720F2BD3846FFF7FDFE0620AC
S214013CB0F2BD27607B6828463A4639461D68A84704
S214013CC0050006D0384600F022F80020206028467D
S214013CD0F2BD02210020B170F2BD00F012F8012001
S214013CE0F2BD0000202402004D570100ED570100EF
S214013CF01B580100255801002B5801003D590100B1
S214013D003875009800F062BA0022002113E710B55A
S214013D10040001D1032010BD616821B12068496803
S214013D208847002060602046FFF7BEFE002010BDD9
S214013D3001F00F0141F08001C2E601F00F01BFE67C
S214013D4070B508B9032070BD002918BF002A15D028
S214013D508C7804F00F03082B10D25D000C2345EA83
S214013D60D41400255C4303191468DC6056681E6190
S214013D700A461D750221BDE87040DCE6042070BDD0
S214013D8073B504000E4606F00F0501D1032076BD7B
S214013D9001AA0321FFF7CFFE082D0AD26A000C21E3
S214013DA042EAD61600234E43A119CB600B610B7570
S214013DB076BD042076BD02B501F00F01082902D2B6
S214013DC06A4604210BE0042002BD02B501F00F0192
S214013DD0082902D26A46052101E0042002BDFFF748
S214013DE0AAFE02BD0000000010B501230AB9042096
S214013DF010BD891E062900F1CC0419D8DFE801F0B0
S214013E0004061012080C14000F210EE010210CE01D
S214013E10A078002310700BE021780023117007E0D2
S214013E20062102E0072100E00921FFF784FE034690
S214013E30184610BD0B460121032B10B500F1CC042A
S214013E400CD0062B0CD0072B0FD00A2B1ED00B2B19
S214013E501ED00C2B16D00E2B16D01DE0112118E00B
S214013E60D2B110780021A07016E0A378032B06D0FB
S214013E7092B1107803220021A27020700CE0224635
S214013E80082106E00A2104E00B2102E00C2100E0F3
S214013E900D21FFF750FE0146084610BD4D570100A3
S214013EA0ED5701001B580100255801002B58010051
S214013EB03D59010038B504466846002500F080F9F2
S214013EC0934901EB0511086810B18B7B9C4207D022
S214013ED06D1C012DF4DD009800F078F9042032BD48
S214013EE00020086048608873009800F06FF9002091
S214013EF032BD7CB500F00DF885493201885818B1FD
S214013F008818837B9D4203D0761C012EF5DD16E0D2
S214013F1029E005460C466846002600F051B97CB5F6
S214013F2004460D46FFF7F7FF794801688C4202D137
S214013F303044286018E0016910268C42F8D00098B9
S214013F4000F044F9042076BD7CB5FFF7E2FF704926
S214013F503201885818B18B189B7B9D4203D0761C82
S214013F60012EF5DDEBE72060009800F02FF9002028
S214013F7076BD00002DE9FC478846144601261CB193
S214013F806946FFF7CCFF08B104202EE0002703E0C6
S214013F9000B900267F1CFFB2009841680A7A974252
