S01200006C65645F626C696E6B792E73726563F5
S31560003000000001208D480060FB4000602F41006099
S3156000301067410060254900604B4900600000000080
S31560003020000000000000000000000000574900603A
S31560003030E94A006000000000EB4A0060BF4700609C
S315600030407149006079490060814900608949006082
S315600030509149006099490060A1490060A9490060F2
S31560003060B1490060B9490060C1490060C949006062
S31560003070D1490060D9490060E1490060E9490060D2
S31560003080F1490060E14A0060E14A0060E14A00609F
S31560003090F9490060014A0060094A0060114A00600F
S315600030A0194A0060214A0060294A0060314A00607E
S315600030B0394A0060414A0060494A0060514A0060EE
S315600030C0594A0060614A0060694A0060714A00605E
S315600030D0794A0060814A0060E14A0060E14A006026
S315600030E0E14A0060E14A0060E14A0060E14A00604E
S315600030F0E14A0060E14A0060E14A0060E14A00603E
S31560003100E14A0060E14A0060E14A0060E14A00602D
S31560003110E14A0060E14A0060E14A0060E14A00601D
S31560003120894A0060914A0060994A0060A14A00603D
S31560003130A94A0060E14A0060E14A0060E14A006035
S31560003140E14A0060E14A0060E14A0060E14A0060ED
S31560003150E14A0060E14A0060E14A0060E14A0060DD
S31560003160E14A0060E14A0060E14A0060E14A0060CD
S31560003170E14A0060E14A0060E14A0060E14A0060BD
S31560003180E14A0060E14A0060E14A0060E14A0060AD
S31560003190E14A0060E14A0060E14A0060E14A00609D
S315600031A0E14A0060E14A0060B14A0060E14A0060BD
S315600031B0E14A0060E14A0060E14A0060E14A00607D
S315600031C0E14A0060E14A0060E14A0060E14A00606D
S315600031D0E14A0060E14A0060E14A0060E14A00605D
S315600031E0E14A0060E14A0060E14A0060E14A00604D
S315600031F0B94A0060E14A0060C14A0060C94A00609D
S31560003200E14A0060E14A0060D14A0060D94A006044
S31560003210E14A0060E14A0060E14A0060E14A00601C
S31560003220E14A0060E14A0060E14A0060E14A00600C
S31560003230E14A0060E14A0060E14A0060E14A0060FC
S31560003240E14A0060E14A0060E14A0060E14A0060EC
S31560003250E14A0060E14A0060E14A0060E14A0060DC
S31560003260E14A0060E14A0060E14A0060E14A0060CC
S31560003270E14A0060E14A0060E14A0060E14A0060BC
S31560003280E14A0060E14A0060E14A0060E14A0060AC
S31560003290E14A0060E14A0060E14A0060E14A00609C
S315600032A0E14A0060E14A0060E14A0060E14A00608C
S315600032B0E14A0060E14A0060E14A0060E14A00607C
S315600032C0E14A0060E14A0060E14A0060E14A00606C
S315600032D0E14A0060E14A0060E14A0060E14A00605C
S315600032E0E14A0060E14A0060E14A0060E14A00604C
S315600032F0E14A0060E14A0060E14A0060E14A00603C
S31560003300E14A0060E14A0060E14A0060E14A00602B
S31560003310E14A0060E14A0060E14A0060E14A00601B
S31560003320E14A0060E14A0060E14A0060E14A00600B
S31560003330E14A0060E14A0060E14A0060E14A0060FB
S31560003340E14A0060E14A0060E14A0060E14A0060EB
S31560003350E14A0060E14A0060E14A0060E14A0060DB
S31560003360E14A0060E14A0060E14A0060E14A0060CB
S31560003370E14A0060E14A0060E14A0060E14A0060BB
S31560003380E14A0060E14A0060E14A0060E14A0060AB
S31560003390E14A0060E14A0060E14A0060E14A00609B
S315600033A0E14A0060E14A0060E14A0060E14A00608B
S315600033B0E14A0060E14A0060E14A0060E14A00607B
S315600033C0E14A0060E14A0060E14A0060E14A00606B
S315600033D0E14A0060E14A0060E14A0060E14A00605B
S315600033E0E14A0060E14A0060E14A0060E14A00604B
S315600033F0E14A0060E14A0060E14A0060FFFFFFFFCA
S3156000340070B50446A40E0246120A02F01F0200F0CE
S31560003410FF0303F1804303F57C231D68C0F34C363C
S315600034209640B54301EA5031C1F30C0191402943FE
S315600034301960202C40F209804FF450720FF200316F
S31560003440B9A000F0B7F9AFF30080202C04D088480B
S315600034500068E040C007FAD470BD000070B504464D
S31560003460A40E0246120A02F01F0200F0FF0303F1E7
S31560003470804303F57C231D68C0F34C369640B54304
S3156000348001EA5031C1F30C01914029431960202CA7
S3156000349040F2098040F265320FF2A421A2A000F04A
S315600034A089F9AFF30080202C04D071480068E040B1
S315600034B0C007FAD470BD6F49086070476E490860EE
S315600034C07047000038B54FF40040FFF7F7FF6B48D0
S315600034D0FFF7F1FF6A4C01212046FFF791FF694D26
S315600034E001212846FFF78CFF6748016849094901B1
S315600034F041F01201016000BFAAA000F07BF9122121
S31560003500022000F0C4F91221032000F0C0F900BFC8
S31560003510A2A000F08FF900215C48FFF79FFF002111
S315600035205B48FFF79BFF03215A48FFF797FF03218C
S315600035305948FFF765FF00212846FFF761FF002124
S315600035405648FFF78BFF00212046FFF759FF012100
S315600035505348FFF783FF00215248FFF751FF0221CE
S315600035605148FFF77BFF00215048FFF749FF0221D2
S315600035704F48FFF773FF00214E48FFF741FF0021D8
S315600035804D48FFF73DFF07214FF21400FFF766FF36
S3156000359000214A48FFF734FF04214948FFF75EFFE0
S315600035A002214848FFF72CFF02214748FFF756FFE4
S315600035B002214648FFF724FF03214548FFF74EFFE7
S315600035C001214448FFF74AFF00214348FFF718FFEF
S315600035D003214248FFF742FF01214148FFF73EFFC2
S315600035E000214048FFF70CFF03213F48FFF736FFF5
S315600035F001213E48FFF732FF00213D48FFF700FFFB
S3156000360000213C48FFF72AFF00213B48FFF7F8FE00
S3156000361001213A48FFF722FF02213948FFF7F0FE01
S3156000362001213848FFF71AFF07213748FFF716FFD1
S3156000363003213648FFF7E4FE01213548FFF70EFF08
S3156000364007213448FFF70AFF03213348FFF7D8FE06
S3156000365000213248FFF7D4FE00213148FFF7FEFE15
S3156000366000213048FFF7CCFEBDE8314000F0AAB932
S3156000367048C00F40040000200800002000366E019C
S31560003680186C0080143900140C00084014EA000419
S3156000369010E00040146800801872008014FB0080FF
S315600036A01CE007801C26008024EB00801C30008014
S315600036B024F000801C3100801427008014260080CE
S315600036C018FA00801864008024790080186E0080E3
S315600036D028E6008028E007801C6A00802CE60080CF
S315600036E02CE007801C6C008028F6008028F007809C
S315600036F01C6E008038F307803832008020E2078035
S315600037002068008030F9008030F6008030740080D8
S3156000371028E9008028F90080207300800C20008052
S3156000372024E0078024260080627573795368696691
S3156000373074203C3D20283078323055290000000046
S31560003740443A5C7265735F692E6D7872745C53443B
S315600037504B5F322E342E305F45564B2D4D494D58BA
S315600037605254313032305F4941525F46554C4C5F5E
S315600037704556425C646576696365735C4D494D5830
S315600037805254313032315C647269766572735C664C
S31560003790736C5F636C6F636B2E68000000010000E2
S315600037A000000000010000000000000000000000B2
S315600037B00000000080B513460A46014602A000F0EC
S315600037C0A7F900BEFDE7000041535345525420451A
S315600037D052524F52202220257320223A2066696C6D
S315600037E0652022257322204C696E6520222564227D
S315600037F0200A0000DFF8BC20116821F44041037BF9
S315600038009B0303F44043194341F48031116013680C
S31560003810DFF8A4100B40007800F00100034343F486
S315600038200053136010680028FCD5106820F48030BF
S315600038301060704710B4C27802F003021F4B19681B
S3156000384021F440410479A40304F44044214341F443
S31560003850803119600178002901D042F400528178E4
S31560003860002901D042F400124078002801D042F4C9
S3156000387080021968124801400A431A6018680028D5
S31560003880FCD5186820F48030186010BC704710B4FE
S31560003890C0000C4A1468BF23834024EA03038024D3
S315600038A084401C43146001F03F018140194311605C
S315600038B010BC704730800D40FEEFFFFFE0800D408A
S315600038C0FCEFFFFF00810D40BFF34F8FBFF36F8F9B
S315600038D0002072490860BFF34F8FBFF36F8F704847
S315600038E0016841F400310160BFF34F8FBFF36F8F02
S315600038F0704730B46A4900200867BFF34F8FCA6EBD
S31560003900C2F34E33674DC2F3C90443F6E07000EA72
S31560003910431040EA847028602046441E0028F4D193
S315600039201846431E0028EED1BFF34F8F086840F457
S3156000393080300860BFF34F8FBFF36F8F30BC704726
S3156000394010B5574C606F40F47000606756490A893D
S315600039504FF6FE7002400A81544A13890340138170
S315600039600888400704D50B884FF6FB7003400B8030
S315600039701088400704D511884FF6FB70014011800E
S315600039804B484C4941604FF6FF718160016821F0F8
S31560003990800141F02001016047480168C90703D5ED
S315600039A001684908490001602068800301D4FFF777
S315600039B08BFF2068C00301D4FFF79BFFBDE8104072
S315600039C000F088B870B53D4E3D4C306AC00301D5F5
S315600039D0254606E0306AC00701D5162500E01425A5
S315600039E06543306C2146A1FB0001326D002300F077
S315600039F0C5F845193068C00301D5214606E0306830
S31560003A00800701D5162100E0142161432D484268E4
S31560003A10920182680FD512F4405205D0B2F5805FEC
S31560003A2001D1214600E000214268C2F3C262521C05
S31560003A30B1FBF2F529E012F4402226D0B2F5802FD0
S31560003A4006D0B2F5002F0DD0B2F5402F14D01BE092
S31560003A501D4A1268C2F30562B1FBF2F101EBC102C5
S31560003A60550012E018490969C1F30561B5FBF1F12A
S31560003A7001EBC102550008E01449026802F0070232
S31560003A80521CB1FBF2F500E000254068C0F38220CD
S31560003A90401CB5FBF0F00E49086070BD50EF00E0C9
S31560003AA014ED00E060EF00E000800B4000000D4088
S31560003AB000C00B4020C528D910E000E010800D4002
S31560003AC000366E0110C00F40F0800D400065CD1DC0
S31560003AD000000020704730B4002513E050F8042B36
S31560003AE0D30744BFA9F101039A18091F042942F8B4
S31560003AF0045BFAD213468C0744BF15809B1CC9072A
S31560003B0048BF1D7050F8041B0029E7D130BC7047D0
S31560003B100EB418B5A0B004466846802100F046F998
S31560003B2023A90FF21D036A46204600F081F901467B
S31560003B30684600F08BFA21B010BC5DF810FB0000FF
S31560003B402DE9F04104460D4616461F464FF0000823
S31560003B500FE02968481C802804D3204600F076FAD6
S31560003B6000202860286826542868401C286008F1D0
S31560003B700108B845EDDBBDE8F0810000BBBBE1B1F3
S31560003B80B2F5803F80F07E80022A1ED98C46B1FB5A
S31560003B90F2F102FB11C31B0443EA1043B3FBF2FCD0
S31560003BA002FB1C3380B240EA0343B3FBF2F002FB34
S31560003BB0103240EA0C4000237047022A05D9844639
S31560003BC0B0FBF2F002FB10C270474AB105D100F0BB
S31560003BD0010249085FEA30007047002200237047FF
S31560003BE000F08ABA0B000200002100207047904264
S31560003BF071EB030CF6D3B3F5803F2FD2F0B5B3FA71
S31560003C0083F7B1FA81F4A7F10F0E3D1B5340CEF155
S31560003C10200602FA0EF2F3415340B5F10F0746D87B
S31560003C200F3C2C444140C4F12006A040F141414084
S31560003C30B1FBF3F603FB1611A2FB0645001BA94177
S31560003C4002D2761E8018594180EA010221FA0EF3EB
S31560003C5062FA0EF200215A403046F0BD30B4B1FB34
S31560003C60F3FC03FB1C11A2FB0C45001BA94103D20C
S31560003C70ACF1010C8018594130BC02460B466046D7
S31560003C8000217047B2F1807F65D3F0B5B2FA82F752
S31560003C90B1FA81F4C7F10F063D1B22FA06F307F16C
S31560003CA0110EF24120355A40B5F10F07B8D941409F
S31560003CB0C4F12006A040F1414140B1FBF3FC03FB97
S31560003CC01C11A2FB0C45001BA94103D2BCF1010CDF
S31560003CD0801859410F2F12D30F3FC90341EA504153
S31560003CE0B1FBF3F603FB1611A2FB0645D4EBC0301D
S31560003CF0A94102D2761E8018594146EACC3C07B3E8
S31560003D004140C7F12006B840F1414140B1FBF3F6AE
S31560003D1003FB1611A2FB0645001BA94102D2761EC3
S31560003D208018594180EA010221FA0EF3C7F1200496
S31560003D3062FA0EF20CFA07F05A402CFA04F130439C
S31560003D40F0BD80EA010221FA0EF3002162FA0EF25A
S31560003D5060465A40F0BD8C46B1FBF2F102FB11C3DE
S31560003D601B0243EA1063B3FBF2FC02FB1C331B022B
S31560003D704CEA002043EA1063B3FBF2FC02FB1C33FF
S31560003D801B024CEA002043EA1063B3FBF2FC02FB21
S31560003D901C331B024CEA002043EA1063B3FBF2FCBF
S31560003DA002FB1C324CEA002000237047002200F020
S31560003DB0A5B970B404460025284604F8010B002A0C
S31560003DC0086814D0002815D000282ED090FBF3F296
S31560003DD003FB1200002802D43030014602E0C043E3
S31560003DE031300146104604F8011B6D1CECE703995F
S31560003DF000280FD130202070012017E0612202E0F8
S31560003E000A00FBD041220A3A10180246304604F8EE
S31560003E10012B6D1C002808D0B0FBF3F603FB1600DF
S31560003E200A28EDD230300246F0E7284670BC70476B
S31560003E302DE9F64F8DB00C469A46002100910D464D
S31560003E4001910291064605E00123424601A90E98BA
S31560003E50D047761C96F80080B8F1000F00F0E2803B
S31560003E60B8F1250FF0D14FF0010B0027384605E079
S31560003E7007EB8702303901EB42010F46002840F01C
S31560003E80D58016F8011FA1F130020A2AF0D3761EFA
S31560003E905846F3E716F8011F30390A29C0F0CC807E
S31560003EA0761E5846C8E0761E16F8018FB8F1640F84
S31560003EB01AD0B8F1690F17D0B8F1660F14D0B8F1FF
S31560003EC0460F11D0B8F1780F0ED0B8F1580F0BD05D
S31560003ED0B8F16F0F08D0B8F1620F05D0B8F1700F66
S31560003EE002D0B8F1750F70D1B8F1640F02D0B8F195
S31560003EF0690F0ED154F8040B0390584600900A23BC
S31560003F00024603A904A8FFF754FF054604A82844FF
S31560003F100090B8F1580F02D0B8F1780F13D1B8F10C
S31560003F20780F01D14FF0000B54F8040B02905846FD
S31560003F3000901023002202A904A8FFF73AFF054665
S31560003F4004A828440090B8F16F0F08D0B8F1620F4A
S31560003F5005D0B8F1700F02D0B8F1750F1DD154F8C5
S31560003F60040B0290B8F16F0F01D108230AE0B8F193
S31560003F70620F01D1022305E0B8F1700F01D1102361
S31560003F8000E00A23CDF800B0002202A904A8FFF7DA
S31560003F9010FF054604A8284400907F1B3B4620225C
S31560003FA001A90E98D047009800283FF452AF0E9FA3
S31560003FB0D046814699F80000002841D0012319F8BF
S31560003FC0012901A93846C047F4E7B8F1630F08D163
S31560003FD054F8040BC0B25B46024601A90E98D0475E
S31560003FE037E7B8F1730F7FF42FAF54F8049BB9F13C
S31560003FF0000F3FF42EAF484600F09AF805467F1B47
S315600040003B46202201A90E98D0470E9FD04699F8CC
S315600040100000002818D05B4619F8012B01A9384624
S31560004020C047F4E701980FB0BDE8F08F16F8010FAE
S315600040302E287FF438AF002000287FF435AF29E7BB
S315600040400E97CDF8009004E70E9702E738B5044660
S315600040500D46002C40F0098040F23F120FF2380105
S315600040600AA0FFF7A7FBAFF3008029462046BDE80C
S31560004070344010B50C0007D0002805D0012200F0AE
S3156000408073F8002800D00024204610BD62756620B3
S31560004090213D203000000000443A5C7265735F6920
S315600040A02E6D7872745C53444B5F322E342E305FC3
S315600040B045564B2D4D494D585254313032305F493B
S315600040C041525F46554C4C5F4556425C6465766925
S315600040D06365735C4D494D585254313032315C756D
S315600040E074696C69746965735C6C6F675C66736CC4
S315600040F05F6C6F672E6300007047FEE700B500BF18
S31560004100130096469446103928BFA0E80C50FAD89A
S315600041105FEA417C28BF0CC048BF40F8042BC90742
S3156000412028BF20F8022B48BF00F8012B00BDFEE730
S3156000413000F10103810704D010F8011B820781B1E9
S31560004140FAD10268A2F10131914311F0803104BFC6
S3156000415050F8042FF6E709BAB1FA81F100EBD10005
S31560004160401CC01A7047FEE738B5034600240A486B
S315600041700579022D0BD10068002A0A46194602D03D
S3156000418000F032F804E000F04BF8044600E0012449
S31560004190204632BD000000000C0000200146486940
S315600041A0896A090C01F0C3010843704710B50C46D3
S315600041B0816A21F44031220402F440321143816263
S315600041C04269DFF870110A40DFF8641121400A4342
S315600041D04261FFF7E3FF044202D040F21A5010BD7D
S315600041E0002010BD0000000070B505460C4616465E
S315600041F0002C0FD140F2A9220FF2601135A0FFF713
S31560004200D9FAAFF3008005E068690002FCD514F8BE
S31560004210010BE8613046461E0028F5D170BD0000EE
S31560004220F8B506460D461746002D08D14FF42E7296
S315600042300FF2281127A0FFF7BDFAAFF30080B0692F
S31560004240010503D400F01200022801D1012405E023
S31560004250002403E000F07F0005F8010B3846471E96
S3156000426000282FD0F06AC0F3026000282CD13046B7
S31560004270FFF794FF01030DD4410313D4810319D4CE
S31560004280C003EFD54FF480313046FFF78FFF4FF410
S31560004290A460F2BD4FF400213046FFF787FF40F27D
S315600042A01D50F2BD4FF480213046FFF77FFF40F28C
S315600042B01E50F2BD4FF400313046FFF777FF40F2F3
S315600042C01F50F2BD0020F2BD002CF069C2D105F886
S315600042D0010BC3E76461746100000000164A51680F
S315600042E01648526A1047144A91681548526A104730
S315600042F0114AD1681348526A10470F4A1169124829
S31560004300526A10470C4A51691048526A10470A4A65
S3156000431091690F48526A1047074AD1690D48526A37
S3156000432010470000044A116A0B48526A10470000A1
S3156000433000C01FC0FF3FE03F14000020004018404F
S315600043400080184000C01840000019400040194025
S315600043500080194000C0194000001A40443A5C725F
S3156000436065735F692E6D7872745C53444B5F322E51
S31560004370342E305F45564B2D4D494D585254313091
S3156000438032305F4941525F46554C4C5F4556425C00
S31560004390646576696365735C4D494D585254313036
S315600043A032315C647269766572735C66736C5F6C7D
S315600043B070756172742E630070B504460D462646AC
S315600043C0360A04F01F04072EC0F0098040F28732D7
S315600043D00FF26C1157A0FFF7EDF9AFF300800648B6
S315600043E000EB860001680322A240914305FA04F4BB
S315600043F00C43046070BD000068C00F400321DBE71A
S315600044005AE0000010B50024062C06D28CA151F8A3
S315600044102410814201D0641CF6E7062C07D354228F
S315600044200FF2B4115DA0FFF7C5F9AFF30080204627
S3156000443010BD0000F8B504460D461646FFF7E2FFCC
S3156000444085A131F91000FFF7D9FF0127AF40F94385
S315600044506069084060613078002803D16068014077
S31560004460616007E072782946204600F009F86068C6
S3156000447007436760B27829462046BDE8F840BFE743
S3156000448070B504460D461646202D08D35FF07402BB
S315600044900FF2441167A0FFF78DF9AFF3008001209A
S315600044A000FA05F5002E206803D120EA050525608F
S315600044B070BD0543256070BD30B4012404FA01F572
S315600044C0C369AB43C361102902D200F10C0302E059
S315600044D000F110031039521E042A29D8DFE802F0D1
S315600044E0030A131E25001A68032448008440A24369
S315600044F01A601DE048001968032282409143844097
S315600045000C431C6014E04800196803228240914302
S31560004510022202FA00F00843186009E01A680324D0
S315600045204800844022431A6002E0C1690D43C561B8
S3156000453030BC7047696E646578203C3D203600006B
S31560004540443A5C7265735F692E6D7872745C53442D
S315600045504B5F322E342E305F45564B2D4D494D58AC
S315600045605254313032305F4941525F46554C4C5F50
S315600045704556425C646576696365735C4D494D5822
S315600045805254313032315C647269766572735C663E
S31560004590736C5F636C6F636B2E680000696E737417
S315600045A0616E6365203C202873697A656F6628733F
S315600045B05F6770696F426173657329202F20736925
S315600045C07A656F662828735F6770696F4261736585
S315600045D073295B305D292900443A5C7265735F69B3
S315600045E02E6D7872745C53444B5F322E342E305F7E
S315600045F045564B2D4D494D585254313032305F49F6
S3156000460041525F46554C4C5F4556425C64657669DF
S315600046106365735C4D494D585254313032315C6438
S315600046207269766572735C66736C5F6770696F2EAC
S315600046306300000070696E203C2033320000000089
S315600046400000000000801B4000C01B4000001C40B2
S315600046500000000000000C40FFFF1A011E001A0255
S31560004660FFFF1E0170B504460D462646360A04F065
S315600046701F04072EC0F0098040F287320FF2A001B6
S3156000468024A0FFF797F8AFF300801F4800EB860081
S3156000469001680322A240914305FA04F40C430460C6
S315600046A070BD0321DEE710B4029C01F0070124010E
S315600046B004F0100421430160002A00D0136010BC8E
S315600046C070470098002801D001990160704700008A
S315600046D03EB540F20240FFF7E4FF0C4C0C4D002063
S315600046E0019000950346024605212046FFF7DBFF51
S315600046F041F2B0000190009500231A46052120463C
S31560004700FFF7DFFF37BD000068C00F40D0801F4055
S3156000471044821F40696E646578203C3D2036000007
S31560004720443A5C7265735F692E6D7872745C53444B
S315600047304B5F322E342E305F45564B2D4D494D58CA
S315600047405254313032305F4941525F46554C4C5F6E
S315600047504556425C646576696365735C4D494D5840
S315600047605254313032315C647269766572735C665C
S31560004770736C5F636C6F636B2E68000009010200E7
S3156000478002D42F48815470472E4802F00F0210441D
S3156000479000F8041C704710B5401EB0F1807F01D34D
S315600047A0012010BD284C60600F214FF0FF30FFF7ED
S315600047B0E5FF0020A06007202060002010BD23498F
S315600047C00868002802D00868401E086070471F49C4
S315600047D0086008680028FCD17047000038B500BF43
S315600047E01EA000680090FFF773FFFEF76BFE184C83
S315600047F06A461A212046FFF71DFE164800684FF4E8
S315600048007A71B0FBF1F0FFF7C6FF0028124D07D0B2
S31560004810FEE700221A212046FFF732FE00202870AC
S315600048204FF49670FFF7D3FF28780028F1D1012264
S315600048301A212046FFF724FE01202870F0E70000C9
S3156000484000E400E018ED00E010E000E03C0000202D
S3156000485000801B4000000020400000200100000096
S3156000486030B450F8041B79B10268436802440830DA
S31560004870DC0744BFA9F10104E31852F8045B43F86E
S31560004880045B091FF9D1ECE730BC704772B6054886
S31560004890054901600A6882F308880448804762B661
S315600048A00348004708ED00E00030006041390060D1
S315600048B06549006010B5074979441831064C7C4457
S315600048C0163404E00A68081D114488470146A1426F
S315600048D0F8D110BD2C0000004C0000004EF6885147
S315600048E0CEF20001086840F470000860BFF34F8F95
S315600048F0BFF36F8F4FF00070E1EE100A7047000053
S31560004900D7F1FFFF40000000040000200000000017
S3156000491051FFFFFF04000000CC01000000000020F2
S3156000492000000000FEE700000120C046002801D01C
S31560004930FFF7C0FFAFF300800020AFF30080FFF702
S315600049404DFF00F000F800F001B8FEE70746384674
S3156000495000F002F8FBE7FEE7202109032631182064
S31560004960ABBEF9E7AFF30080FFF7B8FFFFF7DCFFF8
S3156000497000480047E14A006000480047E14A00609D
S3156000498000480047E14A006000480047E14A00608D
S3156000499000480047E14A006000480047E14A00607D
S315600049A000480047E14A006000480047E14A00606D
S315600049B000480047E14A006000480047E14A00605D
S315600049C000480047E14A006000480047E14A00604D
S315600049D000480047E14A006000480047E14A00603D
S315600049E000480047E14A006000480047E14A00602D
S315600049F000480047E14A006000480047DD42006029
S31560004A0000480047E742006000480047F142006006
S31560004A1000480047FB4200600048004705430060CD
S31560004A20004800470F430060004800471943006094
S31560004A30004800472543006000480047E14A00609F
S31560004A4000480047E14A006000480047E14A0060CC
S31560004A5000480047E14A006000480047E14A0060BC
S31560004A6000480047E14A006000480047E14A0060AC
S31560004A7000480047E14A006000480047E14A00609C
S31560004A8000480047E14A006000480047E14A00608C
S31560004A9000480047E14A006000480047E14A00607C
S31560004AA000480047E14A006000480047E14A00606C
S31560004AB000480047E14A006000480047E14A00605C
S31560004AC000480047E14A006000480047E14A00604C
S31560004AD000480047E14A006000480047E14A00603C
S31160004AE0FFF7FEBF40DCB311FEE7FEE707
S70560004965EC
