S01200006C65645F626C696E6B792E73726563F5
S3158000000000000220A5180080371300806B15008041
S31580000010331800803D1900806319008000000000BD
S315800000200000000000000000000000006F19008042
S31580000030311B008000000000331B0080B916008051
S31580000040891900809119008099190080A119008072
S31580000050A9190080B1190080B9190080C1190080E2
S31580000060C9190080D1190080D9190080E119008052
S31580000070E9190080F1190080F9190080011A0080C1
S31580000080091A0080291B0080291B0080291B0080FB
S31580000090111A0080191A0080211A0080291A0080FE
S315800000A0311A0080391A0080411A0080491A00806E
S315800000B0511A0080591A0080611A0080691A0080DE
S315800000C0711A0080791A0080811A0080891A00804E
S315800000D0911A0080991A0080291B0080291B0080B4
S315800000E0291B0080291B0080291B0080291B00807A
S315800000F0291B0080291B0080291B0080291B00806A
S31580000100291B0080291B0080291B0080291B008059
S31580000110291B0080291B0080291B0080291B008049
S31580000120A11A0080A91A0080B11A0080B91A00802D
S31580000130C11A0080291B0080291B0080291B008092
S31580000140291B0080291B0080291B0080291B008019
S31580000150291B0080291B0080291B0080291B008009
S31580000160291B0080291B0080291B0080291B0080F9
S31580000170291B0080291B0080291B0080291B0080E9
S31580000180291B0080291B0080291B0080291B0080D9
S31580000190291B0080291B0080291B0080291B0080C9
S315800001A0291B0080291B0080C91A0080D11A008073
S315800001B0291B0080291B0080291B0080291B0080A9
S315800001C0291B0080291B0080291B0080291B008099
S315800001D0291B0080291B0080291B0080291B008089
S315800001E0291B0080291B0080291B0080D91A0080CA
S315800001F0E11A0080291B0080E91A0080F11A00802C
S31580000200291B0080291B0080F91A0080011B0080B1
S31580000210291B0080291B0080291B0080291B008048
S31580000220291B0080291B0080291B0080291B008038
S31580000230291B0080291B0080291B0080291B008028
S31580000240291B0080291B0080291B0080291B008018
S31580000250291B0080291B0080291B0080291B008008
S31580000260291B0080291B0080291B0080291B0080F8
S31580000270291B0080291B0080291B0080291B0080E8
S31580000280291B0080291B0080291B0080291B0080D8
S31580000290291B0080291B0080291B0080291B0080C8
S315800002A0091B0080111B0080191B0080291B008000
S315800002B0211B0080291B0080291B0080291B0080B0
S315800002C0291B0080291B0080291B0080291B008098
S315800002D0291B0080291B0080291B0080291B008088
S315800002E0291B0080291B0080291B0080291B008078
S315800002F0291B0080291B0080291B0080291B008068
S31580000300291B0080291B0080291B0080291B008057
S31580000310291B0080291B0080291B0080291B008047
S31580000320291B0080291B0080291B0080291B008037
S31580000330291B0080291B0080291B0080291B008027
S31580000340291B0080291B0080291B0080291B008017
S31580000350291B0080291B0080291B0080291B008007
S31580000360291B0080291B0080291B0080291B0080F7
S31580000370291B0080291B0080291B0080291B0080E7
S31580000380291B0080291B0080291B0080291B0080D7
S31580000390291B0080291B0080291B0080291B0080C7
S315800003A0291B0080291B0080291B0080291B0080B7
S315800003B0291B0080291B0080291B0080291B0080A7
S315800003C0291B0080291B0080291B0080291B008097
S315800003D0291B0080291B0080291B0080291B008087
S315800003E0291B0080291B0080291B0080291B008077
S315800003F0291B0080291B0080291B0080FFFFFFFF2F
S3158000040001E0000000BF70B400F0FF0404F18044F6
S3158000041004F57C2401EA5031030A256803F01F03A2
S31580000420C0F34C36820E9E40C1F30C01B543994011
S315800004302943202A216005D0DFF824050168D140B0
S31580000440CB07F9D470BC7047DFF81815020A01EBA8
S3158000045082014FF0030C00F01F000CFA00F00B68CD
S3158000046023EA000008607047002AC1F30B414FF46D
S31580000470803319BF0818001D0818083003607047BC
S315800004802DE9F8434FF40040DFF8DC140860DFF80C
S31580000490DC040268DFF8D814DFF8D844DFF8D854D3
S315800004A0DFF8D88442F480320260036823F4003394
S315800004B0036000202160DFF8C84400F007FB00F0ED
S315800004C020FB012000F014FB20680121000A0002B5
S315800004D040F07F0020602846FFF792FF01214046CA
S315800004E0FFF78EFFDFF89C04C1684909490141F096
S315800004F01201C1600268002AFCD50FF27C50DFF839
S31580000500889400F005FB0FF27850DFF8806400F0E5
S3158000051015FB1B21002000F053FC1021012000F068
S315800005204FFC1821022000F04BFC1021032000F024
S3158000053047FC0FF25C50DFF8587400F021FB212154
S31580000540002000F040FC1021012000F03CFC11212D
S31580000550022000F038FC1321032000F034FCD9F887
S31580000560100020F04000C9F8100000F02FFB012297
S31580000570DFF820144846FFF777FF306920F4004003
S315800005803061316921F400013161D9F8700040F49D
S315800005900050C9F8700000F01FFB386840F48030C6
S315800005A03860316921F040413161386840F400504B
S315800005B0386000F017FB0122DFF8DC134846FFF7AE
S315800005C053FF386C8008800040F001003864396C35
S315800005D041F400513964386C40F40010386400F0FE
S315800005E0F0FA0122DFF8B4134846FFF73DFFD9F849
S315800005F02000002140F40050C9F82000DFF8A00355
S31580000600FFF700FF4FF48870FFF71EFF4FF48470EA
S31580000610FFF71AFF40F21620FFF716FF4FF4067019
S31580000620FFF712FF0321DF48FFF7ECFE0121DE48CA
S31580000630FFF7E8FE0321DD48FFF7E2FE0021404692
S31580000640FFF7DEFE0021DA48FFF7DCFE00212846B0
S31580000650FFF7D6FE4FF48A70FFF7F6FE4FF48B70E5
S31580000660FFF7F2FE1820FFF7EFFE1A20FFF7ECFEE9
S315800006704FF48670FFF7E8FE0121CE48FFF7C2FEF1
S315800006800021CD48FFF7BCFE40F20260FFF7DCFE9A
S315800006900121CA48FFF7B6FE0021C948FFF7B0FE20
S315800006A040F20460FFF7D0FE0121C648FFF7AAFE9C
S315800006B00021C548FFF7A4FE4FF44170FFF7C4FE42
S315800006C007214FF21400FFF79DFE0021BF48FFF778
S315800006D097FE0021BE48FFF793FE40F20A60FFF7BF
S315800006E0B3FE0021BB48FFF78DFE0321BA48FFF712
S315800006F087FE40F20270FFF7A7FE0021B748FFF79A
S3158000070081FE0121B648FFF77BFE40F20220FFF70B
S315800007109BFE0121B348FFF775FE0021B248FFF723
S315800007206FFE4FF48070FFF78FFE4FF48170FFF7F6
S315800007308BFEE06E20F03000E066E16EAB4821F083
S31580000740C001E1660421FFF75DFE0221A848FFF79C
S3158000075057FEA06E022120F44000A066A548FFF750
S3158000076051FE0221A448FFF74BFEE06F032120F4DF
S315800007704020E067A148FFF745FE0121A048FFF72A
S3158000078041FE00219F48FFF73BFEE06F032120F4E6
S315800007904010E0679C48FFF735FE01219B48FFF734
S315800007A031FE00219A48FFF72BFEE06F032120F4EB
S315800007B04000E0679748FFF725FE01219648FFF73E
S315800007C021FE00219548FFF71BFE206F20F0C00018
S315800007D02067216F21F440712167206F002120F46A
S315800007E0406020678E48FFF70DFE00218D48FFF799
S315800007F007FEA06E8C4D20F44040A066A16E21F4C9
S315800008004021A166686820F0C0006860A16E21F46E
S315800008104031A166A06E20F44010A06669688348C6
S3158000082021F4407169600121FFF7ECFD02218048C7
S31580000830FFF7E6FDE06F20F04070E067A16E21F0E3
S315800008404051A166A06E20F44050A066E16E21F072
S315800008504071E166606F20F00C006067616F21F087
S31580000860C0016167E06F20F04060E06729687148E9
S3158000087021F4404129600021FFF7C4FD00216E4824
S31580000880FFF7BEFD606F012120F4406060676B4812
S31580000890FFF7B8FD03216A48FFF7B4FD05216948D3
S315800008A0FFF7AEFDE06F012120F44040E067664827
S315800008B0FFF7A8FD07216548FFF7A4FD03216448DB
S315800008C0FFF79EFDE06F012120F00C00E067614894
S315800008D0FFF798FD07216048FFF794FD03215F48E5
S315800008E0FFF78EFD606F01218008800060675C489D
S315800008F0FFF788FD07215B48FFF784FD03215A48EF
S31580000900FFF77EFD00215948FFF77AFD3068584A87
S31580000910400940013060216E21F070012166206E11
S315800009200009000140F001002066216E21F460017B
S315800009302166206E20F4F81040F490102066216E17
S3158000094021F480712166206E20F080002066216E61
S31580000950484821F0807121661060BDE8F18300006F
S3158000096048C00F4068C00F4008000020C0820D407C
S3158000097000366E0104000020186C008014390014C3
S3158000098000C00F400000084000800D4060810D408F
S31580000990A0800D400D0070000D00E0000D002000CD
S315800009A014EA00041468008010E000401872008089
S315800009B014FB00801CE007801C26008024EB00804E
S315800009C01C30008024F000801C31008014270080B9
S315800009D0142600801CF700801C7D008018FD008096
S315800009E0186800803CEB00803C69008018FA008023
S315800009F01864008024790080186E008028E60080C4
S31580000A0028E007801C6A00802CE600802CE00780A6
S31580000A101C6C008028F6008028F007801C6E008001
S31580000A2038F307803832008080C00F4020E207808C
S31580000A302068008024E007802426008038EC00802F
S31580000A4018F7008038EF008030F9008030F600809B
S31580000A503074008030EC008030E9008030670080A0
S31580000A6028E9008028F90080207300800C2000800F
S31580000A70000000200046C323640000000000000040
S31580000A8001000000000000000100000000000000DE
S31580000A90000030B4002513E050F8042BD30744BF80
S31580000AA0A9F101039A18091F042942F8045BFAD2B6
S31580000AB013468C0744BF15809B1CC90748BF1D7011
S31580000AC050F8041B0029E7D130BC7047DFF82803B3
S31580000AD04FF080418160DFF814130A68D303FCD598
S31580000AE04FF48031416002681304FCD58160704701
S31580000AF0DFF8081310B910200860704710224A608A
S31580000B007047DFF8E802016841F001010160704733
S31580000B1010B4DFF8F022116803799B0303F4404395
S31580000B2021F44041194341F4803111601468007802
S31580000B30DFF8D4120C4000F07F0014E010B4DFF828
S31580000B40CC221168037B9B0303F4404321F440418C
S31580000B50194341F48031116014680078DFF8B012CF
S31580000B600C4000F00100044344F400541460136800
S31580000B70002BFCD5116821F48031116010BC7047C0
S31580000B80DFF87C12FFE70A6843789B0303F440434F
S31580000B9022F440421A4342F480320A600A6800789E
S31580000BA0400000F0020022F00202024342F4415269
S31580000BB00A600A68002AFCD50B6823F480330B6030
S31580000BC070470020DFF84C12086070474FF4805061
S31580000BD0DFF84412086070474FF48050DFF8441203
S31580000BE0086070474FF48050DFF83C120860704709
S31580000BF0DFF81022C0F30B41515800F01F03D94093
S31580000C00C90701D4002070470101090D5358C3F369
S31580000C10813149B9DFF8D4C1DCF80010CB065ABF60
S31580000C2073490968734900E00021C0F30B43D25829
S31580000C30D20300F1C3800D381CD04FF48012801A85
S31580000C403DD0801A00F0B180801A19D04FF480020E
S31580000C50801A38D04FF44012801A65D04FF4800243
S31580000C60801A00F09180C01F00F09580401E00F031
S31580000C709A80A2E06348036803F07F03594351E0FA
S31580000C80604800EE901AB8EE601B90ED140AB8EE3C
S31580000C90400B90ED182A026B21EE000BB8EE422B2A
S31580000CA0D30780EE020BBCEEC00B47BF1620414334
S31580000CB001EB8102910010EE100A41187EE0514B43
S31580000CC01869820774E04F4A5848136F01EE101A6C
S31580000CD090ED000AD0ED040A126FB8EE411BB8EE13
S31580000CE0402B21EE021BB8EE600B81EE000BBCEEB2
S31580000CF0C00B12F4C01203F07F0310EE100A03FB40
S31580000D00010104D0B2F5002F08BF490800E0890828
S31580000D10434A424813680340B3F5004F02D08342EA
S31580000D2030D04BE0490849E0404A01EE101A136A78
S31580000D3092ED0C0AD2ED100A126AB8EE411BB8EE9B
S31580000D40402B21EE021BB8EE600B81EE000BBCEE51
S31580000D50C00B12F4C01203F07F0310EE100A03FBDF
S31580000D60010104D0B2F5002F08BF490800E08908C8
S31580000D702B48026802F04042B2F1804FD2D0B2F1E5
S31580000D80404F1BD1890819E0284800BF2BA1006E6F
S31580000D9000F0030004E0254828A1006EC0F381001E
S31580000DA051F820100AE0224908E01648026A9307A3
S31580000DB04CBF16201420414300E0002108467047AE
S31580000DC030B41C4A01E030B41B4AC0001468BF230B
S31580000DD083408025854001F03F0124EA03031D43BB
S31580000DE0814015601943116030BC704770820D4098
S31580000DF00400002000366E0150810D4074820D4043
S31580000E0010800D4000800D4080EFFFFF30800D4048
S31580000E10FEEFFFFF20800D4070800D400080800037
S31580000E2070810D40A0800D40E0800D4080800D4097
S31580000E3040787D0100810D40F0800D4040787D0135
S31580000E4080F0FA0200E1F505405973072DE9F0417B
S31580000E5003460868002400250427064607FB00FC95
S31580000E60B2FBFCFC1FFA8CFEBEF1000F08BF4FF0F0
S31580000E70010C1FFA8CF81FFA8CFE08F101080EFB94
S31580000E8007FE08FB07F8B2FBFEFEAEEB000EB2FBD8
S31580000E90F8F8A0EB0808F0453CBFC6460CF1010CFB
S31580000EA0764502D376463C4665467F1C202FD5D9AB
S31580000EB0DFF8DC71A0FB0772900900EB4000B042BE
S31580000EC038BF40F22150C0F0A58000200FF2FC12FE
S31580000ED016689E421EBF401C57689F421EBF401C1C
S31580000EE096689E4203D0401C0C320828F0D90FF237
S31580000EF00022DFF8A06132F910000327C5F30C0544
S31580000F0000F01F02000A06EB800007FA02F2261F95
S31580000F10042ED0F800C02CEA020C42EA0C020260D1
S31580000F20986840F0020098609A68DFF86C0122F0B9
S31580000F3002029A601A6938BF42F40032641E24069F
S31580000F40024004F0F85414432C431C611869DFF8FE
S31580000F504C2120F00050186108799C69CD7B1440A3
S31580000F608A7B04432D0205F4E0652C434D7992007B
S31580000F7002F004021443012D06D100280CBF44F46C
S31580000F80006424F4006402E008B144F010049C611B
S31580000F901869CA79520302F4005220F400501043B3
S31580000FA018610A7A487A42EA0042DA62986A40F020
S31580000FB0880098629A6A42F440429A62586A4C7BE8
S31580000FC00D7B240104F01004DFF8D4206D0105F0B8
S31580000FD020052C4320435862887A18B15C6A44F015
S31580000FE008045C62C87A18B15C6A44F001045C62E9
S31580000FF0887908B1DFF8AC205C6922435A619A6926
S31580001000087C08B142F40022487C08B142F4802270
S315800010109A610020BDE8F0814FF4E1310022016041
S31580001020027142718271C271027242728272C2729E
S31580001030427302738273C2730274427470471A4A8F
S315800010401A485168526A1047174A19489168526A75
S315800010501047154A1748D168526A1047124A1648EF
S315800010601169526A1047104A14485169526A1047EA
S315800010700D4A13489169526A10470B4A1148D16943
S31580001080526A1047084A1048116A526A104700008F
S315800010903E0AD7A368C00F4000E0FFE0E8F8FFFFF4
S315800010A000C01FC000C01FE0140000200040184090
S315800010B00080184000C018400000194000401940C8
S315800010C00080194000C0194000001A40000000004E
S315800010D0004018400080184000C0184000001940A9
S315800010E0004019400080194000C0194000001A4095
S315800010F0FFFF18051C000C001801020306031A05E1
S315800011000E06000078B47D4A7D4B506F4FF6FE7117
S3158000111040F4700050671C894FF6FE700C40794988
S315800011201C810D8905400D811C88660704D51D88A4
S315800011304FF6FB7005401D800B885C0704D50D8833
S315800011404FF6FB7005400D806F48704941604FF641
S31580001150FF738360046824F0800444F020040460F4
S315800011606B480168CB0703D5046864086400046093
S315800011701068810312D4BFF34F8FBFF36F8F0023A4
S31580001180644C2360BFF34F8FBFF36F8F106840F4BA
S3158000119000301060BFF34F8FBFF36F8F1168CB03A2
S315800011A022D400201067BFF34F8FD16E594EC1F302
S315800011B04E3343F6E075C1F3C90405EA431545EAA3
S315800011C0847030612046441E0028F8D11846431E9C
S315800011D00028EED1BFF34F8F106840F48030106046
S315800011E0BFF34F8FBFF36F8F71BC00F0A3B8F0B51C
S315800011F0494C4A4A6068810122D5A36813F440535A
S3158000120007D0B3F5805F11D0B3F5005F08BF106BD0
S315800012100EE01069C103106903D5C0F3813038B977
S3158000122004E0810754BF3E483E4802E03E4800E065
S3158000123000206168C1F3C261491CB0FBF1F653E03E
S315800012401068C10307D51068C0F38130002814BF29
S315800012500025354D05E01568334805F07F05454383
S315800012606D08116BC80307D5116BC1F38130002857
S3158000127014BF00262C4E04E0106BC1074CBF294ECC
S31580001280274E106D2849126E0023A768A1FB000126
S3158000129000F052F8861917F4402725D0B7F5802F2D
S315800012A006D0B7F5002F0DD0B7F5402F14D01AE031
S315800012B01E480168C1F30540B6FBF0F000EBC002A2
S315800012C0560011E0194B186800F03F00B6FBF0F1AC
S315800012D001EBC1056E0007E0226802F00702521C8E
S315800012E0B5FBF2F600E000266068114AC0F3822062
S315800012F0401CB6FBF0F11160F0BD000014ED00E07B
S3158000130000800B4000000D4000C00B4020C528D94E
S3158000131010E000E050EF00E010C00F4000800D406C
S3158000132000389C1C00A4781F00366E0100810D4099
S31580001330000000207047FEE7BBBBE1B1B2F5803FFD
S3158000134080F07E80022A1ED98C46B1FBF2F102FB28
S3158000135011C31B0443EA1043B3FBF2FC02FB1C33AC
S3158000136080B240EA0343B3FBF2F002FB103240EA5C
S315800013700C4000237047022A05D98446B0FBF2F060
S3158000138002FB10C270474AB105D100F0010249083C
S315800013905FEA3000704700220023704700F0E4B80F
S315800013A00B000200002100207047904271EB030C75
S315800013B0F6D3B3F5803F2FD2F0B5B3FA83F7B1FAFF
S315800013C081F4A7F10F0E3D1B5340CEF1200602FAA1
S315800013D00EF2F3415340B5F10F0746D80F3C2C442B
S315800013E04140C4F12006A040F1414140B1FBF3F6F3
S315800013F003FB1611A2FB0645001BA94102D2761EED
S315800014008018594180EA010221FA0EF362FA0EF23F
S3158000141000215A403046F0BD30B4B1FBF3FC03FBEB
S315800014201C11A2FB0C45001BA94103D2ACF1010C97
S315800014308018594130BC02460B46604600217047F1
S31580001440B2F1807F65D3F0B5B2FA82F7B1FA81F452
S31580001450C7F10F063D1B22FA06F307F1110EF24182
S3158000146020355A40B5F10F07B8D94140C4F120065E
S31580001470A040F1414140B1FBF3FC03FB1C11A2FBF0
S315800014800C45001BA94103D2BCF1010C80185941BF
S315800014900F2F12D30F3FC90341EA5041B1FBF3F638
S315800014A003FB1611A2FB0645D4EBC030A94102D23C
S315800014B0761E8018594146EACC3C07B34140C7F1B5
S315800014C02006B840F1414140B1FBF3F603FB16110B
S315800014D0A2FB0645001BA94102D2761E80185941FF
S315800014E080EA010221FA0EF3C7F1200462FA0EF2B5
S315800014F00CFA07F05A402CFA04F13043F0BD80EA2A
S31580001500010221FA0EF3002162FA0EF260465A4079
S31580001510F0BD8C46B1FBF2F102FB11C31B0243EA1C
S315800015201063B3FBF2FC02FB1C331B024CEA002067
S3158000153043EA1063B3FBF2FC02FB1C331B024CEA4A
S31580001540002043EA1063B3FBF2FC02FB1C331B0250
S315800015504CEA002043EA1063B3FBF2FC02FB1C3228
S315800015604CEA0020002370477047FEE7F8B5054631
S315800015700E4614465FF0000042A10A68AA421EBFCA
S31580001580401C4B68AB4203D0401C08310A28F4D378
S3158000159046A1144A31F91000032300F01F01000A06
S315800015A002EB800003FA01F107688F433943012774
S315800015B001606A69B740F9430A406A61207818B9C0
S315800015C06B681940696007E062783146284600F00A
S315800015D00BF86B681F436F60A27831462846BDE8DA
S315800015E0F8400FE068C00F400123002A03FA01F19A
S315800015F007BF026822EA0101D0F800C041EA0C0167
S315800016000160704770B4C369012404FA01F5AB43E5
S315800016101029C36132BF00F10C0300F110031039A9
S31580001620521E042A2BD8DFE802F00309131F270075
S315800016301A68032448008440A2431AE048001968C7
S3158000164003228240844091430C431C6070BC7047E7
S315800016501C68480003258540022101FA00F0AC434E
S315800016602043186070BC70471A680326480086407D
S3158000167032431A6070BC7047C1690D43C56170BC46
S31580001680704700000000000000801B4000C01B4027
S3158000169000001C4000401C4000000C40000000423E
S315800016A0004000420080004200C00042FFFF1A0155
S315800016B01E001A020C031E012349486810B14A68AD
S315800016C0521E4A607047000038B500BF24A01F4CE8
S315800016D00168009100F046F8FEF7D2FE00F07AF835
S315800016E0FFF785FD6A4609212046FFF73FFF184828
S315800016F0184B0168A1FB0332500A401EB0F1807F6F
S3158000170021D21549154A4860F020107000238B605D
S3158000171007250D600C4D06E0002209212046FFF7C3
S3158000172063FF002028704FF47A716960686800282A
S31580001730FCD129780029EFD1012209212046FFF723
S3158000174053FF0120EEE7FEE73C00002000C01B406F
S3158000175000000020986E128310E000E023ED00E088
S315800017600100000000BF0748074A016841F2B00344
S31580001770DFF818C041F00C01016005201060CCF83C
S315800017800030704778C00F4060811F4050831F40F3
S3158000179010B5164C2068C0F3801068B91448FFF75E
S315800017A027FA2168134BA0FB033201F03F01491C45
S315800017B09208B2FBF1F010BD0F480168CA064EBF11
S315800017C00E480F480068216801F03F01491CB0FBB4
S315800017D0F1F010BD80B5FFF7DBFF034602224FF420
S315800017E0E1310848BDE8005000F00EB824C00F4033
S315800017F00D001000ABAAAAAA70820D4000366E01B9
S31580001800040000200040184018B414460A462146B9
S3158000181001B010BC00F000B81CB514461A46009002
S3158000182000238DF804102146684600F003F8002056
S3158000183016BDFEE778B585B00C4601790D4E154686
S31580001840317102683260022911D16846FFF7E4FBE4
S31580001850306800942A466946FFF7F8FA306881694D
S3158000186041F400218161826942F48022826106B05E
S3158000187070BD00000C00002030B450F8041B79B114
S315800018800268436802440830DC0744BFA9F10104BA
S31580001890E31852F8045B43F8045B091FF9D1ECE7BF
S315800018A030BC704772B60548054901600A6882F304
S315800018B008880448804762B60348004708ED00E080
S315800018C000000080051100807D19008010B5074951
S315800018D079441831064C7C44163404E00A68081DA5
S315800018E0114488470146A142F8D110BD2C00000062
S315800018F04C0000004EF68851CEF20001086840F494
S3158000190070000860BFF34F8FBFF36F8F4FF000708A
S31580001910E1EE100A704700007BF1FFFF40000000F7
S31580001920040000200000000051FFFFFF04000000BB
S31580001930FC0100000000002000000000FEE700001F
S315800019400120C046002801D0FFF7C0FFAFF300801A
S315800019500020AFF30080FFF7B7FE00F000F800F03C
S3158000196001B8FEE70746384600F002F8FBE7FEE7D7
S315800019702021090326311820ABBEF9E7AFF300809A
S31580001980FFF7B8FFFFF7DCFF00480047291B008000
S3158000199000480047291B008000480047291B00801B
S315800019A000480047291B008000480047291B00800B
S315800019B000480047291B008000480047291B0080FB
S315800019C000480047291B008000480047291B0080EB
S315800019D000480047291B008000480047291B0080DB
S315800019E000480047291B008000480047291B0080CB
S315800019F000480047291B008000480047291B0080BB
S31580001A0000480047291B008000480047291B0080AA
S31580001A10004800473F10008000480047491000807A
S31580001A200048004753100080004800475D10008042
S31580001A30004800476710008000480047711000800A
S31580001A40004800477B1000800048004785100080D2
S31580001A5000480047291B008000480047291B00805A
S31580001A6000480047291B008000480047291B00804A
S31580001A7000480047291B008000480047291B00803A
S31580001A8000480047291B008000480047291B00802A
S31580001A9000480047291B008000480047291B00801A
S31580001AA000480047291B008000480047291B00800A
S31580001AB000480047291B008000480047291B0080FA
S31580001AC000480047291B008000480047291B0080EA
S31580001AD000480047291B008000480047291B0080DA
S31580001AE000480047291B008000480047291B0080CA
S31580001AF000480047291B008000480047291B0080BA
S31580001B0000480047291B008000480047291B0080A9
S31580001B1000480047291B008000480047291B008099
S31580001B2000480047291B0080FFF7FEBF00A4781FEE
S30980001B30FEE7FEE761
S7058000197DE4
