S0130000666C6173686C6F616465722E737265638C
S3152020A000D85A0020F96A21207BAC2020C14D21205E
S3152020A0107BAC20207BAC20207BAC202000000000C5
S3152020A0200000000000000000000000007BAC202083
S3152020A0307BAC2020000000007BAC20207BAC2020A5
S3152020A040557C2120557C2120557C2120557C212082
S3152020A050557C2120557C2120557C2120557C212072
S3152020A060557C2120557C2120557C2120557C212062
S3152020A070557C2120557C2120557C2120557C212052
S3152020A080557C2120557C2120557C2120557C212042
S3152020A090B7642120216B2120296B2120316B21209F
S3152020A0A0396B2120416B2120496B2120516B2120A6
S3152020A0B0596B2120616B2120696B2120716B212016
S3152020A0C0796B2120816B2120896B2120916B212086
S3152020A0D0996B2120A16B2120557C2120557C212084
S3152020A0E0557C2120557C2120557C2120557C2120E2
S3152020A0F0557C2120557C2120557C2120557C2120D2
S3152020A100557C2120557C2120557C2120557C2120C1
S3152020A110557C2120557C2120557C2120557C2120B1
S3152020A120557C2120557C2120557C2120557C2120A1
S3152020A130A96B2120557C2120557C2120557C21204E
S3152020A140557C2120557C2120557C2120557C212081
S3152020A150557C2120557C2120557C2120557C212071
S3152020A160557C2120557C2120557C2120557C212061
S3152020A170557C2120557C2120557C2120557C212051
S3152020A18033B12020557C2120557C2120557C21202F
S3152020A190557C2120557C2120557C2120557C212031
S3152020A1A0557C2120557C2120B16B2120B96B212083
S3152020A1B0557C2120557C2120557C2120557C212011
S3152020A1C0557C2120557C2120557C2120557C212001
S3152020A1D0557C2120557C2120557C2120557C2120F1
S3152020A1E0557C2120557C2120557C2120557C2120E1
S3152020A1F0C16B2120557C2120C96B2120D16B2120A8
S3152020A200557C2120C57B2120D96B2120E16B212063
S3152020A210557C2120557C2120557C2120557C2120B0
S3152020A220557C2120557C2120557C2120557C2120A0
S3152020A230557C2120557C2120557C2120557C212090
S3152020A240557C2120557C2120557C2120557C212080
S3152020A250557C2120557C2120557C2120557C212070
S3152020A260557C2120557C2120557C2120557C212060
S3152020A270557C2120557C2120557C2120557C212050
S3152020A280557C2120557C2120557C2120557C212040
S3152020A290557C2120557C2120557C2120557C212030
S3152020A2A0557C2120557C2120557C2120557C212020
S3152020A2B0557C2120557C2120557C2120557C212010
S3152020A2C0557C2120557C2120557C2120557C212000
S3152020A2D0557C2120557C2120557C2120557C2120F0
S3152020A2E0557C2120557C2120557C2120557C2120E0
S3152020A2F0557C2120557C2120557C2120557C2120D0
S3152020A300557C2120557C2120557C2120557C2120BF
S3152020A310557C2120557C2120557C2120557C2120AF
S3152020A320557C2120557C2120557C2120557C21209F
S3152020A330557C2120557C2120557C2120557C21208F
S3152020A340557C2120557C2120557C2120557C21207F
S3152020A350557C2120557C2120557C2120557C21206F
S3152020A360557C2120557C2120557C2120557C21205F
S3152020A370557C2120557C2120557C2120557C21204F
S3152020A380557C2120557C2120557C2120557C21203F
S3152020A390557C2120557C2120557C2120557C21202F
S3152020A3A0557C2120557C2120557C2120557C21201F
S3152020A3B0557C2120557C2120557C2120557C21200F
S3152020A3C0557C2120557C2120557C2120557C2120FF
S3152020A3D0557C2120557C2120557C2120557C2120EF
S3152020A3E0557C2120557C2120557C2120557C2120DF
S3152020A3F0557C2120557C2120557C2120FFFFFFFFE5
S3152020AC00002A01D101207047F0B41F4603460324B1
S3152020AC102340002B09D00424E31A01700130082494
S3152020AC20E141521E26D05B1EF7D1042A1ADB13D00F
S3152020AC30002F11D00C460D460E46102A02DB72C07C
S3152020AC40103AFAE70C2A02DB32C00C3AFAE7082A35
S3152020AC5002DB12C0083AFAE7042A03DB016004303B
S3152020AC60121FF9E7002A05D0017001300824E1419E
S3152020AC70521EF7D1F0BC00207047FEE74DB72020AA
S3152020AC80000000007BB7202000000000B1B8202063
S3152020AC904BBA20203DB8202051B9202029BB202086
S3152020ACA0000000000000000000000000B3B72020B4
S3152020ACB0000000008BB7202051B9202049BB20203E
S3152020ACC000000000A3BB20200000000001B72020A8
S3152020ACD000000000E3B72020000000000000000054
S3152020ACE000000000CFBB2020000000001BBC20203D
S3152020ACF00000000047BC20204BBA2020F9B7202096
S3152020AD0000000000000000000000000057B82020AE
S3152020AD103BB9202009000000F5C3202010010000A7
S3152020AD20E5C7202020010000DDCE202000000000E5
S3152020AD30000000005FBF2020F1C0202009C1202074
S3152020AD4089C120203DC2202041C32020D963212033
S3152020AD50556421207164212000000000000000009D
S3152020AD60A564212039D7202091D42020E9D4202061
S3152020AD70CFD520200BD620201BD6202069D52020D9
S3152020AD80E10E2120E50E2120F10E2120010F212088
S3152020AD90000000000000000001000000010000006B
S3152020ADA0CDB020204CAD20205CAD202010AE202020
S3152020ADB010000000010000000000000048AE202006
S3152020ADC00000000058AE20200000000000000000F7
S3152020ADD0000000000000000000000000000000002D
S3152020ADE0016521201D652120CD6521208B6621200E
S3152020ADF0AC2C0020C7CB202005CD20209FCD202085
S3152020AE0067CE20200FCC202049CE20205BCE2020AC
S3152020AE107D67212083672120EF67212087682120D5
S3152020AE2081672120936821205D67212071C52020FC
S3152020AE307BC5202095C5202063C620200FC7202033
S3152020AE4011C62020000000001978212025792120F4
S3152020AE50FF7921205D7A21206B7A21208F7A21206B
S3152020AE60137B2120AB7B2120BB7B2120BF7B212074
S3152020AE700000000038B504463E4D00202862C5E972
S3152020AE800000C5E90200C5E9040068623A4800F0DE
S3152020AE90ADF8C5E9060120460FF25D01BDE8344034
S3152020AEA000F054B900F068B970B50C46314E316ABD
S3152020AEB0072904BF756AA8421BD100F0C6FA0546A9
S3152020AEC0C5EB0515D6E90023D6E9020182184FF4F1
S3152020AED09666B5FBF2F00A250A2368434FF496625C
S3152020AEE0B0FBF6F6761D0020B6FBF3F35343236022
S3152020AEF070BD012070BD00002DE9F8431D4F064688
S3152020AF0000F06AF83A6A0446D7E904598846521C62
S3152020AF10651BD7E9060168EB0909494502D82CBFEC
S3152020AF20A8420122012A3A6206D0042A08D0052AFC
S3152020AF300ED0072A0FD018E0C7E900487E6214E019
S3152020AF40D7E90023A21A68EB0303C7E900230CE004
S3152020AF50C7E9024809E0D7E90201201A68EB010176
S3152020AF60C7E90201304600F007F9C7E90448BDE8E1
S3152020AF70F1830000001800208038010010B52C48ED
S3152020AF802C4A0168002341F44051016000201060C2
S3152020AF9029484FF0FF31012201618361C261846912
S3152020AFA044F004048461826942F0010282610160D6
S3152020AFB00121C160816000F048FAC0001F49B0FB22
S3152020AFC0F1F000B901201E4A906010BD1948016891
S3152020AFD041F002010160704781B01A480168426839
S3152020AFE00092009801B0C943C043704714498A682B
S3152020AFF0A2FB0001C00840EA4170C908704738B555
S3152020B0000446FFF7E9FF00F00BF8241841EBD5059D
S3152020B010FFF7E2FFA942FBD301D8A042F8D331BDE6
S3152020B020074A9368A3FB0445E40844EA457470471D
S3152020B0306CC00F40004008400041084040420F00AD
S3152020B04028180020E04008400901020002D4554873
S3152020B05081547047544A00F00F00131803F8041C3B
S3152020B060704710B5039C01F00701240104F0100459
S3152020B0702143016002B1136010BD0021016002B19D
S3152020B0801160009808B1019901607047FEB5089EAD
S3152020B0900027099C0A9D01970096FFF7E2FF30685A
S3152020B0A0012101FA05F540F410403060606820EA5D
S3152020B0B005056560F7BD7CB5069C0025019547F200
S3152020B0C0B0060094FFF7CDFF266073BD7FB5374CC1
S3152020B0D0374D3848384A19B1022919D00DD37FBDAA
S3152020B0E041F2B00600950196002300F01EF8019645
S3152020B0F00023009500F019F87FBD07212F4B0291E0
S3152020B10005210193002300920022FFF7BFFF7FBD78
S3152020B110009200230022FFF7CEFF00950023002275
S3152020B12002212046FFF7C7FF7FBD002202212046AD
S3152020B130A3E710B5224C2068000606D52149496888
S3152020B14019B1012088478021216010BD10B51D4BE3
S3152020B1501A4C596004220721204600F031FA6369EF
S3152020B1600121502043F080036361FFF76DFF4FF4E8
S3152020B17080301549086010BD80B54FF480301349C2
S3152020B1800860BFF34F8FBFF36F8F00215020FFF74A
S3152020B1905BFF00220721094800F012FA0020094906
S3152020B1A0486001BD00E400E018ED00E0D4801F4097
S3152020B1B048821F40D8801F404C821F4000801B4061
S3152020B1C018801B40A42C002008E100E088E100E044
S3152020B1D0002808BF00F01EB87047AA48AA4A01686E
S3152020B1E04FF0004341F00301016040201060A74842
S3152020B1F083634FF08041816300220260A448036864
S3152020B20043F4C0130360A34801684908490001603C
S3152020B210012070472DE9F0419F48A0490860A048A9
S3152020B2200669A04D01220068296A9F4B760D06F0FB
S3152020B230030602FA06F6C0F38000CA03DFF86C8202
S3152020B24078D52F6A27F480572F62296A0029FCD5C2
S3152020B2502F6A974A47F480372F6211694FF4405757
S3152020B26021F03F349349214311612F602968002919
S3152020B270FCD52F6827F480372F60116821F03F34C2
S3152020B2808D492143116048B17600082E414688BF5A
S3152020B2900826B1FBF6F10122884C02E01946F8E790
S3152020B2A0521CB1FBF2F7A742FAD2854F85493C685A
S3152020B2B0521E2140140404F4E0242143741EA402C7
S3152020B2C004F4E0541202214302F440720A433A6005
S3152020B2D03969C909C90141F00301396120B1796869
S3152020B2E021F44021796005E07A6822F4402242F454
S3152020B2F000227A607968744A114041F04061796071
S3152020B300BA687249114041F0C74141F00101B96044
S3152020B310BA6842F44032BA60396921F4E72141F40F
S3152020B320843139612A6A22F480322A62296821F4FA
S3152020B3308031296000B14346B3FBF6F0644A1060A1
S3152020B340BDE8F08192E0002A70B518BF012A3ED1CF
S3152020B3505748604B04681D68A409002A0CBF0FF2C9
S3152020B360A8120FF2B8120E0025F060752FD00A29E8
S3152020B370A8BF012112F8116002EB41014A785649F3
S3152020B38006F03F0646EA84140E68521ED20502F0C5
S3152020B3906072154346F002060E605A6E22F4406211
S3152020B3A05A66BFF36F8F0668B44218BF04601868C8
S3152020B3B0854218BF1D605A6E42F440625A66BFF31A
S3152020B3C06F8F086820F002000860BFF36F8F70BD72
S3152020B3D02C48016841F4406103E02A48016821F4A1
S3152020B3E040610160BFF36F8F704730B5384C002322
S3152020B3F000202468324D19B102290AD002D319E03F
S3152020B400234618E02968C1F30121491CB4FBF1F336
S3152020B41011E0A968264B1968AB68304C01F03F0132
S3152020B420B4FBF1F512214D43C3F3C251491CB5FBA0
S3152020B430F1F300E00420136030BD024604201AB93F
S3152020B44011B127480860002070471D48204A01680E
S3152020B45080681368C1F30121491C00F03F00401C7D
S3152020B460B3FBF1F1B1FBF0F0704700001448184906
S3152020B47000680A68C0F30120401CB2FBF0F0704738
S3152020B4800000000080C00F4014800D4000900D4029
S3152020B490B0810D4040012E4000366E01202B002029
S3152020B4A060441F4010800D40007B9A1700A4781F0F
S3152020B4B0F0800D401818131823231A0F01449508DD
S3152020B4C014C00F40FFE0F8FFCFFFFFE380FF7F9CF3
S3152020B4D0940500201CC00F4000802A4000389C1C68
S3152020B4E0406BED0738B504460D4602E00120FFF7F4
S3152020B4F086FD20462946441E61F100050022914200
S3152020B50008BF9042F2D131BD000022081608180645
S3152020B5101E0412060E060D050D041602000018063E
S3152020B52016040C061E021203160221010D02160114
S3152020B530F8B506460C4615465FF000003AA151F8AC
S3152020B5402020B24202D0401C0628F8D33CA1144A1F
S3152020B55031F91000032300F01F01000A02EB8000BE
S3152020B56003FA01F107688F43394301270160726985
S3152020B570A740F9430A407261287818B973681940A0
S3152020B580716007E06A782146304600F00BF8736830
S3152020B5901F437760AA7821463046BDE8F8400FE061
S3152020B5A068C00F400123002A10B503FA01F107BF16
S3152020B5B0026822EA010104682143016010BD0000CF
S3152020B5C0F0B5C369012404FA01F5AB431029C36100
S3152020B5D032BF00F10C0300F1100310394900032675
S3152020B5E08E40F743521E042A1DD8DFE802F00307B7
S3152020B5F00D151900186807401F60F0BD1A688C4089
S3152020B60017403C431C60F0BD1C68022505FA01F159
S3152020B610274039431960F0BD186806431E60F0BDE7
S3152020B620C1690D43C561F0BD0000000000801B40AC
S3152020B63000C01B4000001C400000000000000C4001
S3152020B640FFFF1A011E001A02FFFF1E01DFF8FC165B
S3152020B65000200A69D36818607047F8B5DFF8EC66D1
S3152020B6600024306A8DF800404569002D46D0316986
S3152020B670C9680F68012F30D06C6801F108020023B9
S3152020B680091DA04704001FBF42F21270844242F2D5
S3152020B69013718C4232D13069C268916800292DD02D
S3152020B6A0546823781D0007D0142B05DA806800EB18
S3152020B6B0C305A5F1080000E00020002850621CBF29
S3152020B6C00268002A03D020460024904712E042F246
S3152020B6D01074194600F09FFA10E0486A58B1416864
S3152020B6E011B16846884704460CB1002003E09DF836
S3152020B6F0000000B101203169CA6810602046F2BDE1
S3152020B70080B50178002000F0B6FADFF84026106ACE
S3152020B71041690A699047022000F048FBBFF34F8F0A
S3152020B720DFF82C16DFF82C060A6802F4E0620243C2
S3152020B7300A60BFF34F8F00BFFDE7DFF81006182100
S3152020B7400269D36803F10C0000F05CBB10B50446F7
S3152020B7506068092806D0B0F5887F06D0B0F5907F9E
S3152020B76006D008E000F019FE06E000F093FF03E083
S3152020B77001F097FB00E0042025E2DFF8D03570B5F4
S3152020B78000F0DCF9AE69B047D4E110B500F08EF8B0
S3152020B790DFF8B80562680169C8680821026180F867
S3152020B7A020102178002000F066FABDE8104001F034
S3152020B7B0D3BD7CB5DFF894450022E568019200923E
S3152020B7C0816840686B46AE6801AAC0B2B04722693C
S3152020B7D00021D3681961009A0199920800F051FA44
S3152020B7E073BDDFF8682538B5D36804466068A1683C
S3152020B7F0DD68C0B2A847E2E138B504460420626875
S3152020B800092A03D1A06800F0ACFB13E0C2F3032180
S3152020B81001290FD16946104601F05AFF50B9009DE3
S3152020B820DFF8282514219368A0684D4359190A6901
S3152020B83013699847217800F01EFA31BD10B500F023
S3152020B84035F8DFF80805E2680169042300F03FF89F
S3152020B85021780020B8E170B5DFF8F05400F026F802
S3152020B86029691320DFF8F064CA6882F82000296944
S3152020B870E068CA6882F82100E06838B92969102270
S3152020B880C868026146612178002054E106F1100142
S3152020B890304601F077FF2869482106F11002C0685A
S3152020B8A0016142610020BDE8704005E2044644E77C
S3152020B8B010B5FFF7FBFFDFF89404E2680169032344
S3152020B8C000F005F8A1680020BDE8104002E2C86813
S3152020B8D08261A16801616268426180F820307047E8
S3152020B8E038B50446DFF8645428690021C0684161D0
S3152020B8F0016190F82000042804D129680A6990471C
S3152020B90004B9044628684169884704B90446286949
S3152020B910C168204691F8201000F0ADF942F212704D
S3152020B920844201BF2969CA6892F82000082803D1D9
S3152020B930BDE8314001F053BD31BDDFF810140A694E
S3152020B940D36893F82110002908BF00F001B87CE0C5
S3152020B9502DE9FE4300F0DEF811B900F0E1F871E0A0
S3152020B960012101233170D0F818900569D0F8148070
S3152020B97000206A460090386A01A94469D4F804C098
S3152020B980E04704000AD0386A4169CA6890472046B1
S3152020B990FFF7A6FF00210020317054E0009830B92F
S3152020B9A042F21270FFF79CFF002030704BE0A84235
S3152020B9B0396988BF28460090C86890F82010082941
S3152020B9C012D10199C160009AC2610099019801F0B3
S3152020B9D0CDFC044642F27D7084421CBF42F2747133
S3152020B9E08C4216D1002414E0132907D1009A0199FC
S3152020B9F0404601F02FFF009880440AE03C68019AD7
S3152020BA0000994B464046D4F808C0E04700990446A2
S3152020BA10884400982D1A05D12046FFF761FF002182
S3152020BA2031700FE04CB1386A4169CA689047204688
S3152020BA30FFF756FF0020307004E03969C9680D6190
S3152020BA40C1F814800020BDE8FE832DE9F84F00F0D0
S3152020BA5061F811B900F064F859E00121DFF8FCA261
S3152020BA603170826900920569D0F81480C46890F8F4
S3152020BA7020B0386A41694A6990478146A94588BFDE
S3152020BA80A946ACB14A462146504601F0E3FE386A23
S3152020BA90A5EB090401234A4651464569D5F808C035
S3152020BAA0E04704B170B3FFF71BFF002030702EE073
S3152020BAB0BBF1030F09EB080419D1D7F800C0404683
S3152020BAC0009B52464946DCF80480C0475FEA000BBB
S3152020BAD0A046DCD0386A0123002251464469A56855
S3152020BAE0A8475846FFF7FCFE0020307010E0BBF137
S3152020BAF0130F01D0A046CAE74A464146504601F0D8
S3152020BB00A9FEF7E73869C0680461C0F814800020D0
S3152020BB10BDE8F28F06468D4F3869C06801697047A7
S3152020BB20002200203270DBE6884B70B500F006F844
S3152020BB30EE68B0472178BDE870409CE01D68044639
S3152020BB40E268A168606870472DE9F0410546844F78
S3152020BB506E68D5F80880E8680024386018B101F0AE
S3152020BB60FCFE00B90424304601F0E0FE00B904248E
S3152020BB7000F050F89CB97E60002000F017F9C7F835
S3152020BB800880386818B180F3088880F30988796896
S3152020BB90404688470020BDE8F04100F007B9BDE8BF
S3152020BBA0F08138B50446606801F0C0FE08B904204B
S3152020BBB005E06568012000F0F9F8A068A8472178FB
S3152020BBC0BDE8344057E02178BDE8104053E0F8B571
S3152020BBD00546644E01F0AEFFAB68696805F10C029C
S3152020BBE0304601F0EDFF04000FD1EF6800200090D1
S3152020BBF0AB6869686A46304602F040F8040004D1F2
S3152020BC000098874218BF44F6E96401F099FF00F0B6
S3152020BC1001F8F1BD297820462DE03EB500210446C5
S3152020BC20CDE9001101F086FFA36861686A464D4878
S3152020BC3002F024F8054601F083FFA26869462846CB
S3152020BC4000F05AF837BD38B504461025FFF775FDA4
S3152020BC503E48A2680169C9680A6163684B6181F818
S3152020BC6020500069E168C268002082F82110A1686E
S3152020BC70BDE8344078E03EB5002400F031F8A0231A
S3152020BC801EE070B5002588B0A7248DF801508DF8C8
S3152020BC9000400026551C01908DF8026000208DF86A
S3152020BCA003506C4605E004EB800551F82030401CFB
S3152020BCB0AB609042F7D33BE03EB500F010F8B323BB
S3152020BCC08DF800300023029144690C226946A5682C
S3152020BCD0A84737BD3EB500F002F8A323F0E701249C
S3152020BCE001908DF8014002248DF80340174C206ADC
S3152020BCF000258DF80250704770B5002588B08DF844
S3152020BD000150AF24002602258DF800408DF80260D0
S3152020BD108DF80350019050B99DF80300029200EB54
S3152020BD20920403A88DF8034001F0A4FD00E00296BA
S3152020BD3006489DF80320006A00236946446992003C
S3152020BD40121DA568A84708B070BD0000100000206D
S3152020BD500CED00E00400FA055C1C00205C18002095
S3152020BD60B41C002000401F403EB5FFF7B8FFB0238B
S3152020BD70A6E730B4002513E050F8042BD30744BFA0
S3152020BD80A9F101039A18091F042942F8045BFAD263
S3152020BD9013468C0744BF15809B1CC90748BF1D70BE
S3152020BDA050F8041B0029E7D130BC7047012870B514
S3152020BDB004461DD00025114E05E07018C1688968FB
S3152020BDC001B188476D1C1821694370580028F4D189
S3152020BDD074B901F0AFFEFFF7F9F801F0C7FF002094
S3152020BDE0074908600120FFF7F3F902F096F962B6B9
S3152020BDF0BFF36F8FBFF34F8F70BD00BF98AD20204C
S3152020BE0008ED00E0002202F0CBB9F0B4024610681B
S3152020BE1095681318506803EB5004C0071DD54D4470
S3152020BE201BE013F8017B05F8017B491EF9D1A0B14F
S3152020BE30B60813F8011B06F00306032E08BF13F8D5
S3152020BE40016B01EB06214942801C294405D011F8BB
S3152020BE50016B05F8016B401EF9D1A3420ED013F8D1
S3152020BE60016B16F0030104BF13F8011BC91C30090E
S3152020BE700F28DAD113F8010B0F30D6E7F0BC02F1E8
S3152020BE800C007047BFF34F8FDFF8082602E01060C2
S3152020BE90203020390129FADABFF34F8FBFF36F8F75
S3152020BEA0704730B504460420002C85B01EBFDFF82D
S3152020BEB0E8251178002950D023681D0F0B2D4CD151
S3152020BEC0C3F30361012902F582650DD0002944D1EF
S3152020BED0204602F07FF910B1002129703DE0A268AA
S3152020BEE001236A602B7038E02978002935D013F099
S3152020BEF00F0F32D1002101200491039104A900F0D3
S3152020BF0079FA50BB03A9102000F074FA28BB01A9A6
S3152020BF10032000F06FFA00BB6C68049D694602A8D6
S3152020BF2002F08FF96519C0B9009A0399A418A14285
S3152020BF3013D3019B5B1E1D420FD10199284600F089
S3152020BF4046F910B942F2DB7007E0029A009928469A
S3152020BF5000F0DAF808B900F071F905B030BD0120FB
S3152020BF607047F8B5ADF5007D0746042401F0DEFCC8
S3152020BF7000286CD007F2FF1001F0D8FC002866D0EC
S3152020BF803868DFF8145505F58366010F0C2918D17A
S3152020BF903A463146002003F051FD040057D10020B7
S3152020BFA03146287002F06CF9040050D1002004F0AC
S3152020BFB00EFC6946102000F01DFA00285FD00446AA
S3152020BFC045E0DFF8D81488420BD12878002849D0BC
S3152020BFD000F089F801F0CAFB00285BD142F2DB741D
S3152020BFE035E0DFF8BC14884206D14FF4007239467A
S3152020BFF0304601F02FFCD2E7000F0E282BD12878CF
S3152020C00028B3384604F076FD08B3384604F07BFD85
S3152020C01004001CD10120687000256A4601A9284603
S3152020C02004F078FE80B9DFF87C644FF4007106EBCB
S3152020C0308526304600F0CBF830B1019A009930465B
S3152020C04000F062F800F0FAF86D1C012DE5D92046A3
S3152020C0500DF5017DF0BD0B280ED13846FFF721FFC7
S3152020C0600400F4D168780028D6D104F03BFD0028BE
S3152020C070EDD001206870EAE700216970E7E7009893
S3152020C080DFF824140B6B01228A63C3185B1E4B63D3
S3152020C0902A70E7E705F2DC57B87970B100200DF158
S3152020C0A00104291891F819140DF80010335C235433
S3152020C0B0801CB0F5007FF4D36E46324600F013F88C
S3152020C0C000F022F8040004D000F00DF800F0CEF99C
S3152020C0D0BDE700F0B3F80400C4D039684FF0C04063
S3152020C0E000F02EF9B3E74FF400714FF0C0407047AF
S3152020C0F010B5DFF8A443237813B942F2DD7010BDC2
S3152020C100BDE8104004F0EEBE2DE9F8430546DFF8E1
S3152020C110887338780C46914688BB42F2DD7031E030
S3152020C120B87868B9D7F8D815491E0D4202D044F6FA
S3152020C130896027E001200021B870B9607D6004E085
S3152020C140B86879680818A84216D1B868D7F8D8856B
S3152020C15049462218424534BF2646A8EB00063844D5
S3152020C16032461030751901F075FBB868A41BB1440E
S3152020C17030184045B86002D100F060F810B9002C84
S3152020C180CED10020BDE8F28376B50D460646DFF8EF
S3152020C1900813087810B942F2DD7076BDAC08A400E9
S3152020C1A005F0030507E001AA04213046FFF7ACFF7E
S3152020C1B060B9361D241F002CF5D12DB101AA2946A0
S3152020C1C03046FFF7A1FF08B900F038F876BDF8B55C
S3152020C1D00C460546B049ADF5806D4878012620B13C
S3152020C1E02146284604F070FDB0B92146284601F0A4
S3152020C1F0BDFA064630460DF5806D01B0F0BD491CCE
S3152020C200B1EB970F06D250F8042B12F1010FF6D07E
S3152020C2100020F0E7E41B7D19002CEBD04FF480673B
S3152020C220B4F5806FA048016B684698BF27463A46EA
S3152020C230691A00F024F968460021E1E72DE9F84340
S3152020C240954E0024B078ADF5806D002872D0B4705C
S3152020C250D6F8D845B068A04206D0211A06F1100398
S3152020C260FF22184404F056FE70682146FFF7AFFFE0
S3152020C27010B942F2DB705EE0D6F8D815706804F06B
S3152020C28023FD40B1D6F8D815706806F1100204F0C7
S3152020C29088FD04004ED1844F746801F04BFC386B26
S3152020C2A006F1100306F58361221A002002F0E9F830
S3152020C2B0044601F045FC0020002CB070B06039D136
S3152020C2C07A480268D10304D5D6F8D8157068FFF7C6
S3152020C2D0D9FD7078D6F8D85506F11008D6F80490EE
S3152020C2E0F0B12946484604F0EFFCC8B115B34FF407
S3152020C2F08066B5F5806F396B684698BF2E463246E4
S3152020C300A9EB010100F0BBF832464146684604F00D
S3152020C31035FE002802BFAD1BB144B044E6D006E06E
S3152020C3202A4606F11001484604F028FE10B144F6AC
S3152020C3308A6000E020460DF5806D01B0BDE8F083CF
S3152020C34070B50446544A107810B942F2DD7070BD9B
S3152020C350D2F8DC55684200EA04060C1964420440EF
S3152020C3606442A41B2146304600F080F8A0B9294615
S3152020C370304604F075FD4D480168CA0303D5294689
S3152020C3803046FFF77FFD21463046FFF720FF10B9C4
S3152020C39044F68A6070BD002070BDE0B53E4908781D
S3152020C3A010B942F2DD700EBD01F58361002002F046
S3152020C3B0C5F8F0B901A9012000F01CF8C8B96946D2
S3152020C3C0102000F017F8A0B90099019804F048FD34
S3152020C3D036480168CA0303D500990198FFF752FD14
S3152020C3E00099019801F0C2F910B944F68A600EBD71
S3152020C3F000200EBD002930B52ED0274A02F5BB637A
S3152020C40002F58D6460B1012813D0022814D00328A8
S3152020C41017D0042818D0052818D0102819D01BE0AA
S3152020C4201078002814BF002042F2DD70086000201A
S3152020C43030BD4FF0C040F9E700F010F8AD0A0D608E
S3152020C440F5E71B680B60F2E75868EFE7186918B123
S3152020C450ECE700F003F8F2E7042030BD2568636896
S3152020C460A268E0685D195519451970470B460246A2
S3152020C4700D49086B0E49121A002003F0A1BB80B586
S3152020C48000920B4602460A49002003F0D5FB02BD46
S3152020C490000000005CEF00E0082500200F0000F0DF
S3152020C4A046434642000400605000002014ED00E080
S3152020C4B02029002030B504460420002C85B01EBF3C
S3152020C4C0DFF898251178002950D023681D0F0B2DD1
S3152020C4D04CD1C3F30361012902F23C450DD000293A
S3152020C4E044D1204601F076FE10B1002129703DE08E
S3152020C4F0A26801236A602B7038E02978002935D07C
S3152020C50013F00F0F32D1002101200491039104A9A9
S3152020C51000F068F950BB03A9102000F063F928BB6E
S3152020C52001A9032000F05EF900BB6C68049D6946D2
S3152020C53002A801F086FE6519C0B9009A0399A418AD
S3152020C540A14213D3019B5B1E1D420FD10199284680
S3152020C55000F0B6F810B942F2DB7007E0029A009993
S3152020C560284600F017F808B900F052F805B030BD7B
S3152020C5700020DFF8E8148860704710B51346DFF8EE
S3152020C580DC44227802B998E00A461946BDE81040D4
S3152020C59004F055BD2DE9F8438046DFF8C0542878AD
S3152020C5A00C469146D5F8287410B942F2DD702DE05C
S3152020C5B0B7F5806F88BF4FF4806734B3A868696861
S3152020C5C0002804BF0029C5F8048002D0411841451F
S3152020C5D016D121188F422CBF26463E1A284400F118
S3152020C5E00C01894504D0324649460C3001F032F9F7
S3152020C5F0A868A41BB144B0443018B842A860DCD146
S3152020C60000F006F80028D8D000E00020BDE8F2830C
S3152020C610F8B5DFF84864ADF5806DB5680024DDB146
S3152020C62077687460B4602A4606F10C01384604F017
S3152020C63086FD040010D12A466946384604F0FFFCC0
S3152020C640040009D12A46694606F10C0004F096FC1E
S3152020C65010B142F2DF7000E020460DF5806D01B06A
S3152020C660F0BD38B50D460446DFF8F013087810B92A
S3152020C67042F2DD7032BD2946204604F0F8FC40B94E
S3152020C6802946204600F01CF810B942F2DF7032BD50
S3152020C690002032BD10B5DFF8C443207800B90CE065
S3152020C6A004F026FD40B9D4F8241400F009F810B976
S3152020C6B042F2DF7010BD002010BD42F2DD7010BDA9
S3152020C6C070B5ADF5806D05460C4610E0491CB1EBE2
S3152020C6D0960F0AD250F8042B12F1010FF6D0002023
S3152020C6E000E001200DF5806D70BDA41B7519002C6E
S3152020C6F0F7D04FF48066B4F5806F6946284698BFF8
S3152020C7002646324604F09BFC68460021DFE72DE9C9
S3152020C710F8430646042401F009F900285FD006F1E3
S3152020C7202B0001F003F9002859D03068DFF82C536C
S3152020C73005F5826805F20C47DFF82493000F0C28B4
S3152020C7401AD12C214046FFF75DFB4FF48030012182
S3152020C750B86005F586600222017042700323052108
S3152020C76006228370C4700171314642714046C7F853
S3152020C770049000F0D5F813E03068010F0B2904D17E
S3152020C7803046FFF797FE044629E0484527D12C213D
S3152020C7904046FFF737FB2C223146404601F05AF817
S3152020C7A000203C7B2870D7F8108005F58360AD4E9D
S3152020C7B001F00AFC204601F0BFFB3146204601F05D
S3152020C7C0F5FB42463146204600F034F8396805F517
S3152020C7D0846004F007FC040004BF01202870204652
S3152020C7E0BDE8F28321B39D4A02F2244350B10128A9
S3152020C7F011D0022814D003280FD0042814D01028B2
S3152020C80014D015E01078002814BF002042F2DD70E5
S3152020C8100860002070470020FAE75A680A60F8E787
S3152020C8201B689B0A0B60F4E79868F1E71A68F5E71E
S3152020C8300420704770B58CB004460D46164607A8CE
S3152020C84091A1142201F016F81C216846FFF7DAFA86
S3152020C85000960821009B019183490022ADF80820EB
S3152020C860B1FBF3F38DF80A200A4603931346009969
S3152020C870B2FBF1F1009A049102218DF81810694635
S3152020C880B3FBF2F20592002207AB8DF81920ADF802
S3152020C8901A2053F824002A4604F0B4FD0CB070BDAB
S3152020C8A02DE9F0430746714889B088461646047814
S3152020C8B0457804A879A1142200F0DCFFE94600205F
S3152020C8C000210022002389E80F004FF480100390D6
S3152020C8D00EB9012201E0032E05D12946204601F07A
S3152020C8E045FB002019E0012E08BF019702D0022E19
S3152020C8F008BF0097CDF8088004A8694650F8240080
S3152020C90004F0EBFEB0F5C87FF6D030B100222946E0
S3152020C910204601F02BFB42F6CD1009B0BDE8F0836E
S3152020C92070B50B78524A03F00F0302EB8304E56DB2
S3152020C93085610B68C3F3031302EB8304256CC56161
S3152020C9400B68C3F3032352F823204A4B42610C6819
S3152020C950240B04F00F04012C02D0022C10D012E05C
S3152020C960012202744269B2F5803F98BF102205D970
S3152020C9709A4202D21823437436E02022427433E0AE
S3152020C9800223037430E000226024027400F1210285
S3152020C990D47145699D4213D218234224437454717D
S3152020C9A0C369B3F5803F28BFD82316D2B3F5805F5D
S3152020C9B008BF202417D0B3F5004F15D152230CE001
S3152020C9C02024122544741323002615705370567183
S3152020C9D0C369B3F5803F02D3DC23937104E0B3F51A
S3152020C9E0805F01D1212494710A68120D02F00F0272
S3152020C9F0521E032A0BD8DFE802F002040608012281
S3152020CA0006E0022204E0032202E0042200E00022C3
S3152020CA1002720A68120C02F00F02012A06D004D3F1
S3152020CA20032A03D038BF022200D3002242720A688A
S3152020CA30C2F303627AB1097901F00F01012904D0EA
S3152020CA4009D3032905D002D305E00B4904E00B497D
S3152020CA5002E00B4900E00B49C16070BD5001002067
S3152020CA606B736563005A620200CA9A3B68050020F0
S3152020CA70DC0000200100000180969800404B4C00ED
S3152020CA8080841E00002D3101000000000040394026
S3152020CA900080394000C0394000003A4000000000A4
S3152020CAA0004039400080394000C0394000003A40DB
S3152020CAB0014601F0FF0000F1804000F57C200A0AA3
S3152020CAC0006802F01F02C1F34C3191400840D0404B
S3152020CAD07047F0B504460420002C85B01FBFDFF830
S3152020CAE0242502F1AA05A97D00296AD023681E0FD4
S3152020CAF00B2E66D1C3F30361012902F1D4060DD092
S3152020CB0000295ED1204601F065FB10B1002131704D
S3152020CB1057E0A26801237260337052E031780029F1
S3152020CB204FD013F00F0F4CD10021012004910291F8
S3152020CB3004A900F0D3F9002843D102A9022000F04D
S3152020CB40CDF900283DD10298DFF8BC144FF0FF34F0
S3152020CB50884201A928BF0294052000F0BFF980BB96
S3152020CB607768049E694603A801F06BFBBE1940BB7B
S3152020CB70009A0299BF18B94223D3019B5B1E1E42FD
S3152020CB801FD12878019BC10701990198B2FBF1F1A9
S3152020CB9058BF002400FB11221000224618BF012076
S3152020CBA04118B6FBF3F000F006FA10B942F2DB701A
S3152020CBB007E0039A0099304600F0F1F808B900F012
S3152020CBC043F905B0F0BD38B5DFF83844DFF83C141A
S3152020CBD021600C2004F04AFF0546DFF83404FFF7D5
S3152020CBE067FF401CB5FBF0F06060204605F0A4F8F6
S3152020CBF060B92046B43405F0D5FE28B900F070F887
S3152020CC0020B900F072F832BD0023237332BD7CB5E3
S3152020CC10044600F08BFE68B1E01C00F087FE48B188
S3152020CC202068000F0B2803D12046FFF752FF76BD40
S3152020CC300D2801D0042076BDDFF8C853DC212846F4
S3152020CC40FFF7E0F8DFF8C40328600C2004F00EFF7D
S3152020CC500646DFF8BC03FFF72BFF401C05F1280111
S3152020CC60B6FBF0F068602068020B02F007020A701B
S3152020CC70C20D030AC60C000E00F0030003F00103C8
S3152020CC8002F0010201284B7006F001064A730E734A
S3152020CC9041F2883240F6C41306D002D3032808D0A6
S3152020CCA005D344F6206005E042F2107002E01046DB
S3152020CCB000E0184648602068C0F3005000B11A46AC
S3152020CCC08A60284605F06EFE05F1B40428B900F0E6
S3152020CCD007F820B900F009F876BD0023237376BD26
S3152020CCE069464FF4907000F0F3BC009B1421DFF8C6
S3152020CCF0242365684B43D118CD6022688A600121A0
S3152020CD00217370472DE9F84FDFF8F892824609F112
S3152020CD10C0060C463078904610B942F2DD703CE0D1
S3152020CD204FEA5A2509F1DC00AAEB45254FEA5A2776
S3152020CD3000900FE000985A46A4EB0B044119404678
S3152020CD4000F088FD5D44B5F5007FD84424BFA5F5C5
S3152020CD5000757F1C04B3707878B1706887420CD335
S3152020CD60411C8F4209D2AAEB40256019B0F5007FDD
S3152020CD7094BFA346C5F5007BDCE7002000997070A0
S3152020CD8001233A46484606F06CF8002802BF0120C7
S3152020CD9070707760E9D000E00020BDE8F28F2DE9A1
S3152020CDA0F84FDFF8609209F1C0073B7813B942F2B9
S3152020CDB0DD703EE082464FEA5A26AAEB46264FEA07
S3152020CDC05A240D46904613E009F5377041465A46B7
S3152020CDD0801900F03FFDF9685E44B6F5007FA5EB8B
S3152020CDE00B05D8445944F96024BFA6F50076641C67
S3152020CDF0F5B1387A18B33869A0421CD1411C8C422F
S3152020CE0019D2AAEB4026F868B04209D000F089F85A
S3152020CE100028EED00DE000200121F8603C61397217
S3152020CE20A819B0F5007F94BFAB46C6F5007BCBE7AB
S3152020CE300020BDE8F28F00F074F80028F9D1002EEA
S3152020CE40E9D042F2DE70F4E76E4A002092F8C8104C
S3152020CE50002918BF00F065B870476F480021C171BE
S3152020CE6001700020704770B50546664E96F8C000C2
S3152020CE700C4610B942F2DD7070BD304605F0E9FF50
S3152020CE8010B142F2E07070BD54B1690A65196D1E69
S3152020CE903046C1EB5522BDE87040521C06F02AB818
S3152020CEA070BD38B5574C04F1B405287B10B942F231
S3152020CEB0DD7032BD204605F0CCFF10B142F2E07085
S3152020CEC032BD28686968A1FB002320460021520A2A
S3152020CED042EAC352BDE8384006F00CB810B5F1B18D
S3152020CEE04E4A30B101280DD002280DD0052814D065
S3152020CEF015E0107B002814BF002042F2DD70086068
S3152020CF00002010BD0020FAE714685368A3FB0423F1
S3152020CF10920A42EA83520A60F2E75068EFE7042039
S3152020CF2010BD2DE9F041374C204605F092FF10B177
S3152020CF3042F2E0703DE004F1CC0504F5377628680E
S3152020CF4004F1AA074FF0FF38B0F5007F09D03978D1
S3152020CF50CA07C0F5007130444CBF4246002203F078
S3152020CF60D9FF39780020B877CA0758BF8046686825
S3152020CF704246012100F01FF810B942F2DB7018E07A
S3152020CF806A6801233146204605F088FF88B96A68F9
S3152020CF9004F1DC0701233946204605F062FF40B91B
S3152020CFA04FF400723946304603F0E8FF08B142F2CA
S3152020CFB0DF70BDE8F0812DE9F84305460C4616467C
S3152020CFC0DFF8408017E008F1DC093B462A4649462F
S3152020CFD0404605F046FF40B900E0001DB0EB472F44
S3152020CFE008D259F8041BB142F7D0002000E00120D6
S3152020CFF0BDE8F283E41B002CF9D0012C8CBF01273D
S3152020D0002746E0E7142E00200100400000002C4097
S3152020D01024EB0080A0000020D52E0020C82E002042
S3152020D020416882688A4209D2891A826641600FF253
S3152020D0309D210160012282600020704742F2787093
S3152020D04070470FF2090101600020704710B5416A30
S3152020D050DFF814444A898282CB689B1E43604A6843
S3152020D060A24202D1097A022902DB42F2757010BD52
S3152020D0700FF209020260002010BD0000416A4368B9
S3152020D0804A6882610A68D21E9A42826002D342F29C
S3152020D090767070470989002908BFFFF7C1BF42F281
S3152020D0A077707047F8B50446DFF8C063B4F85A3075
S3152020D0B0376804F15C05626A6968D7F808C01806E3
S3152020D0C0000F1B0A43EA00232868E047A0B93068EE
S3152020D0D00169884780B9616A102204F11C0005F095
S3152020D0E047FF00F044F80098A968884200D043E022
S3152020D0F00FF2D91020600020F2BDF8B50446102288
S3152020D100616A04F11C00DFF8646304F15C0505F014
S3152020D1102FFFB4F85A303768626A10211806000F9C
S3152020D1201B0AD7F808C043EA00232868E047E8B955
S3152020D130286810302860686810381028686088BFF2
S3152020D140DFF82C0310D810B1DFF828030CE0306864
S3152020D1500169884750B900F00AF80098A9688842E2
S3152020D16000D009E00FF2651020600020F2BD69464C
S3152020D17004F11C0005F012BF42F27A70F2BD10B500
S3152020D180044604F11C0005F0EDFE216E11292CBF6A
S3152020D190B748B8482060002010BD38B5B34B426E42
S3152020D1A01C68016EC06DE568A84732BDB0F85A20CC
S3152020D1B013061B0F110AD20741EA03214CBF08236D
S3152020D1C00423042901D00420704700F16002C16D98
S3152020D1D0A94800F0F5BC70B5044642F27F76E56D8D
S3152020D1E0284600F0A3FB80B1606E04F11801A84701
S3152020D1F00646012E03D12046BDE8704010E7022EB8
S3152020D20003D100F0A9F8002070BD304670BD10B5BE
S3152020D210436800F15C02516881608B4202D242F25F
S3152020D220767010BD147AE30707D512688469A24266
S3152020D23003D111B1C160002010BD90F85A10CA0741
S3152020D24002D542F27C7010BDBDE81040E8E638B524
S3152020D250B0F85A108A070CD40B061B0F0A0AC907E6
S3152020D26042EA032207D5092A03D1BDE83140FFF738
S3152020D27094B8042032BD7D4B5C301C684168006820
S3152020D280A569A84732BD00001CB50446B4F85A004B
S3152020D2900106090F000A40EA0120092803D1E06D82
S3152020D2A0FEF75FFE16BD01290ED1694600F010FA61
S3152020D2B058B9E06D009C6D4A142193684C43191986
S3152020D2C00A691369984716BD042016BDF8B5044689
S3152020D2D004F15806616A304610225A2500F0CAFA0F
S3152020D2E00120375C401CED191028FAD3307805F040
S3152020D2F0FF05A84202D042F27970F2BD717842F23F
S3152020D30012700A2925D8DFE801F01A060A0E2612FD
S3152020D3101A16261C20002046BDE8F24077E7204634
S3152020D320BDE8F2402BE72046BDE8F24035E720460F
S3152020D330BDE8F2404FE72046BDE8F24087E70020CF
S3152020D340F2BD2046BDE8F2409EE72046BDE8F240E9
S3152020D3502CE742F27B70F2BD10B5484C7021204656
S3152020D360FEF750FD464A0020226010BDF8B506463D
S3152020D3700C4600200027434DA74218D02969E01BE0
S3152020D380C1F1100109E080B12B69F25D7F1C491E95
S3152020D390401EEA542A69521C2A610029F3D1002012
S3152020D3A0286100F005F810B9E6E742F27D70F2BD5B
S3152020D3B080B53248334A4262C26800212AB10369C5
S3152020D3C093420AD05B1C036101E0826E1AB9016880
S3152020D3D08847014601E0521E8266084602BDF8B5FE
S3152020D3E0224C20680169884700283CD1234F97F892
S3152020D3F05900042823D107F15C052E68304600F019
S3152020D40095FAC8B10020FEF7D1FC97F85A0081077B
S3152020D41010D568686861616860B10A68904222BF49
S3152020D4204968491C814201D20420F2BD80F3088834
S3152020D43080F30988A868B04742F27E70F2BD08289A
S3152020D4400FD10220FEF7B2FCBFF34F8F0E490F48B3
S3152020D4500A6802F4E06202430A60BFF34F8F00BFDE
S3152020D460FDE742F27B70F2BD53544D501000002050
S3152020D470FBD02020A5D0202000401F408C2D00202E
S3152020D48043D02020002E00200CED00E00400FA05D9
S3152020D4907CB50C00164605461A4601D1002076BDDD
S3152020D4A0100A10F00F0002D001280AD019E06A468F
S3152020D4B0284600F0BAF8B0B900F0A1F86568A84768
S3152020D4C076BD6B46284600F0D3F860B90098A54A69
S3152020D4D003692846996951605B68324621469847F8
S3152020D4E076BD42F2D87076BDF8B50C0017460646B2
S3152020D4F01A4601D10020F2BD100A10F00F00994DD6
S3152020D50002D0012816D02CE0304600F0F6F840BB99
S3152020D5106A462146304600F088F820BB009B2146EB
S3152020D52030463A46DC68A668B047B8B90099CA683A
S3152020D530136911E06B46304600F09AF898B90098A6
S3152020D5403A4603693046996969609B68214698471F
S3152020D55020B900990A6953692B60F2BD0021296000
S3152020D560F2BD42F2D870F2BD7CB5130A13F00F0338
S3152020D57005460C4642F2D87602D0012B14D024E060
S3152020D5806A4600F052F8E8B90099CA68506998B1FD
S3152020D5902146284600F0B1F8B8B9009A21462846F7
S3152020D5A0D3685C69A04776BD6B4600F061F848B920
S3152020D5B000980169CA680AB9662076BD21462846A0
S3152020D5C0904776BD14B9002076BD304676BD7CB511
S3152020D5D00C000546164601D1002076BD00F08DF8B8
S3152020D5E010B142F2D87076BD6A462146284600F010
S3152020D5F01CF818B900F003F8E568A84776BD009B0B
S3152020D600214628463246DC68704710B5554C20689E
S3152020D61010B180470021216010BD10B5514C6068A3
S3152020D62010B180470021616010BDF0B516000D466F
S3152020D63042F2D8771AD04C494A68326015B915E09B
S3152020D6401033336033688BB11A68002A04BF5C68B4
S3152020D650002C01D1D96849B1904224BF5968814212
S3152020D660EED32818401E814228BF00273846F0BD19
S3152020D670F0B50646174642F2D87C3BB33A48826834
S3152020D6801A6019B922E005F114041C601D68EDB159
S3152020D6902A68002A04BF6C68002C07D1A8680028B5
S3152020D6A004BFEC68002C01D1286978B19742EAD1D1
S3152020D6B0AA68E8680027A0FB0245701847EB0701F7
S3152020D6C08D4203D301D8844200D3BC466046F0BDA8
S3152020D6D070B505460420002671B1234A946801E0DE
S3152020D6E0761C143444B1236833B12269002A03D02E
S3152020D6F09D42F5D10E60002070BDF0B509181A4B59
S3152020D700491E00225F68DC68256905EBC20606F102
S3152020D7107C041601BD5966682468AC4208BFAE4217
S3152020D72003D0864228BFA14204D2521C012AEAD91C
S3152020D7300020F0BD0120F0BD70B50B4D6E6803E0D2
S3152020D740006800B180471036F0680028F8D1AD680F
S3152020D75003E0096801B18847143529690029F8D1E1
S3152020D76062BD00009C2C00201000002002460120D3
S3152020D77000E0491E21B112F8013BFF2BF9D00020F1
S3152020D78070470000F0B5064604240D46002EA3B0AF
S3152020D79018BF002D56D03821284605F015FE3822F0
S3152020D7A04323AA708120EB70662128700020552201
S3152020D7B0E871102329716A710EA8AB7105F01EFE3F
S3152020D7C004003FD10020214F8DF83B000EA938467A
S3152020D7D005F0CAFF040035D1102205F1080138468C
S3152020D7E005F0F8FF04002DD10D210AA8FEF70AFB2B
S3152020D7F006A806F041F805F10801802206A806F0C1
S3152020D8004FF8102005F1280105F118020023059074
S3152020D81006A80491102103920AAA019300930D23AE
S3152020D820029606F020FB0A49802206A806F038F840
S3152020D830102005F10803009005F10802012106A811
S3152020D84006F076F9204623B0F0BD00BF00C00C407C
S3152020D850AB89DCFE62B38B0708D0521E11F8013B40
S3152020D86000F8013B00F024808B07F6D1830740F097
S3152020D870208000BF103A07D330B4B1E83810103AD0
S3152020D880A0E83810F9D230BC530724BFB1E80810DD
S3152020D890A0E8081044BF51F8043B40F8043BD207C7
S3152020D8A024BF31F8022B20F8022B44BF0B780370BB
S3152020D8B07047121F17D35B0009D151F8043B20F87B
S3152020D8C0023B1B0C121F20F8023BF6D20BE051F82C
S3152020D8D0043B00F8013B1B0A20F8023B1B0C121FBD
S3152020D8E000F8013BF3D238BF121D521E24BF11F877
S3152020D8F0013B00F8013BF8D87047000038B50446B4
S3152020D9000D460020FEF752FA764800210560764A19
S3152020D91044601160036883F3088883F3098840688C
S3152020D92080470020BDE83240FEF740BA00281CB5CB
S3152020D9301EBF10F1010F6D49884201D1002016BD6E
S3152020D9406A4602210024FFF770FE20B90098017A4A
S3152020D950CA0748BF0124204616BD10B50246644991
S3152020D96000204B6800E01033D96861B11C7A04F09E
S3152020D9701104112CF7D119689142F4D25C68641CE9
S3152020D9809442F0D3012010BD2DE9FC4D584EDFF8EE
S3152020D9906481F0684446016901F18C0709E03A7CEC
S3152020D9A0024205D06569E268A969204653689847EE
S3152020D9B0183420680028F2D14FF47A700024FDF71D
S3152020D9C015FB0025A246CDE90001AB4600F069FBF8
S3152020D9D078BBFFF7ABFF60B3F068016991F8AA2006
S3152020D9E0D00703D400210020FFF788FF788A4FF63E
S3152020D9F0FF71DDE90023884208BF41F28830A2FB6F
S3152020DA0000AB03FB00BBFDF7E7FA04460D460020DA
S3152020DA10834508BF82450CD0FDF7DEFA001BA941BD
S3152020DA20594506D301D8504503D300210020FFF7BE
S3152020DA3065FF464600E0183631680029E7D03A7C53
S3152020DA400A42F8D0F16830460B6898470028F2D071
S3152020DA50002EDCD00BE0397C014218BF464504D08D
S3152020DA60D8F80C3040469968884708F11808D8F825
S3152020DA7000000028EFD13046BDE8F68D38B500F0FD
S3152020DA8053F800F048FB1A4CE068016888470020CC
S3152020DA90FDF79EFBFDF772FA206801688847E26849
S3152020DAA050688047FFF770FF2062016900291EBF5A
S3152020DAB0096800298847226A506900281FBF016803
S3152020DAC0002910468847206901688847256A2069E9
S3152020DAD041688847EA68D1680029F8D028468847CF
S3152020DAE0F5E70000EC1E002008ED00E0F96A212071
S3152020DAF01000002098AD2020704700000A0018BF93
S3152020DB0001220260704772B60268521C026062B619
S3152020DB1001680029FCD10120704772B60168491E90
S3152020DB20FFE7016062B6704772B600200B49086095
S3152020DB3062B6704772B609480168491C0160704771
S3152020DB4006480168022903D20022026062B6704785
S3152020DB5003685B1E0360704700000000782B0020BE
S3152020DB602DE9F041FDF7EEFB80467B4C1127204620
S3152020DB7000212246E7FB08010023784F002506F0E6
S3152020DB80AFF9401E4600786042F210727448002198
S3152020DB90E2FB08012246002306F0A2F925223018AE
S3152020DBA0E2FB0845401CB8606B4A002320462946E4
S3152020DBB006F096F93618761CFE600020BDE8F08126
S3152020DBC02DE9F04104460E4615460BB9002053E0B8
S3152020DBD0042B02D1B009800101D004204CE05F4FF4
S3152020DBE0387830B92046FFF7BBFF002844D10120E2
S3152020DBF038706421204600F077F800283CD14FF475
S3152020DC00007806F03F06C4F808802069000C00043E
S3152020DC10206121697868BA68000300F47040C2F355
S3152020DC200B02104301434F4821614F49A16006430F
S3152020DC3066602A6822626421204600F055F8D8B909
S3152020DC402068810548BF44F6E96015D46421204622
S3152020DC5044F6EA6500F048F868B9C4F808802046FA
S3152020DC6000F067F84FF4806064216060204600F061
S3152020DC703BF800B900252846BDE8F081F8B50546D1
S3152020DC800E46144673B3042B02D1B009800101D06D
S3152020DC900420F2BD314F387828B92846FFF760FF97
S3152020DCA008BB012038706421284600F01DF8D0B921
S3152020DCB04FF4007006F03F06A860284600F039F899
S3152020DCC03F210120A96064216E602863284600F048
S3152020DCD00BF840B92868810502D544F6E860F2BDE4
S3152020DCE0286C20600020F2BD2DE9F04782460F46A1
S3152020DCF04FF47A700026FDF779F9A0FB078901FBFE
S3152020DD000799FDF769F904460D46DAF80010C8058B
S3152020DD100CD5002FF9D0FDF75FF9001BA941494505
S3152020DD20F3D301D84045F0D344F6EB663046BDE820
S3152020DD30F08701696FF315310161084902694B6843
S3152020DD40C9681B0303F47043090401F47C110B43B7
S3152020DD501A4302617047000000CA9A3B682B0020B4
S3152020DD600065CD1D0000773E3F00FFFF0A484FF09B
S3152020DD70FF31016041608160C16001614161816143
S3152020DD80C1610648016041608160C16001614161D5
S3152020DD908161C1617047000080E100E080E200E0FF
S3152020DDA000F01F02DFF89C33000A914003EB80002D
S3152020DDB030B5032595400468AC432143016030BD2E
S3152020DDC0DFF8841300200A68C2F3022107290BD02A
S3152020DDD0DFF878231168C1F3005100291EBF11688E
S3152020DDE0C1F30051002900D0012070472DE9F84FBA
S3152020DDF08846DFF85C1341F2F10700914046BA4687
S3152020DE00BB4608F1500402F0BCF830B1D4F810A07B
S3152020DE10E0690090D4F814B0A769DFF83893DFF8CA
S3152020DE203853DFF83863FFF7CBFFE0B120680028AE
S3152020DE3018D0012111207161C5F814A07060DFF877
S3152020DE402003C5F804B08160B160AF60C9F87810AE
S3152020DE5031612F61C9F87C10F160EF60016031607B
S3152020DE602F60416066E021686068002908BF00288D
S3152020DE7038D018B106213164C5F840A02068B949A8
S3152020DE8018B101228A60C9F808A011200122B067A2
S3152020DE90C5F878B0F267EF674A60C9F804700A605F
S3152020DEA0C9F8007072676F6798F84500082807D16F
S3152020DEB072666F66F266EF66B266AF66F265EF65EA
S3152020DEC098F80C00032818BF012803D111203067A9
S3152020DED000992967404602F05BF818B10120306688
S3152020DEE0C5F860B0A168E068002908BF002821D0C5
S3152020DEF018B106217164C5F844A0A06818B1042180
S3152020DF003165C5F850A0112001213066C5F860B0D2
S3152020DF1071666F66F166EF66B166AF66F165EF658D
S3152020DF2098F80C00032818BF012803D11420706507
S3152020DF3000996965BDE8F18F401E03288A4914D8C7
S3152020DF40DFE800F002060A0F086840F0030006E02A
S3152020DF500A6842F00C0207E0086840F030000860AA
S3152020DF6070470A6842F0C0020A607047401E0328A4
S3152020DF707E497F4B19D8DFE800F0020B0F124FF4B1
S3152020DF800060002A0A6814BF22EA0000104308E035
S3152020DF904FF080601946F4E74FF00050F1E7022059
S3152020DFA0F8E708600020FDF72AB870477148724BC1
S3152020DFB00268B3FBF1F1491E890622F0E05201F0F6
S3152020DFC0E0510A4302607047F0B500786B4D6749EF
S3152020DFD06B4E6C4FDFF898E16B4A45F20903401EE1
S3152020DFE003286A4C5AD8DFE800F002162E41012673
S3152020DFF026651365E665D3652E60A6650526936599
S3152020E00066655365486840F4006048600A6842F4B3
S3152020E01000620A60F0BD04200421B8640220B364A3
S3152020E020396533652861F9640521F364796473645D
S3152020E030DEF8040040F08060CEF80400DEF8001000
S3152020E04041F0806128E0022038603360F860F36078
S3152020E050B8600520B360786073604A6842F0005249
S3152020E0604A60086840F000500860F0BD0421012075
S3152020E07021601360E160D36028620525A16093604A
S3152020E08065605360DEF8040040F00200CEF80400FC
S3152020E090DEF8001041F00201CEF80010F0BD3C4819
S3152020E0A07047002070470000FF2027490A6809682A
S3152020E0B0920902F00302032A13D8DFE802F0020DA8
S3152020E0C00F11090911F0030102D0012902D005E020
S3152020E0D00120704710207047202070470820704765
S3152020E0E00220704701460420002900D1704710B530
S3152020E0F0087B03280CD101F1780291F840104B06B9
S3152020E10002D51324147003E0507808B92621117003
S3152020E110002010BD7047032100E000214FF4C0608D
S3152020E1203EE61C490860002070471A490A680260AA
S3152020E1300020704705480168006A10F0020018BFC9
S3152020E1400120704768C00F4004800F4040441F4084
S3152020E150F1300100F0821F4070821F40FC801F405A
S3152020E16070831F407C811F406CC00F4000801B4065
S3152020E17000001C4018C00F40E0C8B60EA4831F40E4
S3152020E180A0821F402C811F4008821F4094801F4060
S3152020E190002D310128800F4062F30F2262F31F42A7
S3152020E1A000B500BF130096469446103928BFA0E834
S3152020E1B00C50FAD85FEA417C28BF0CC048BF40F8F3
S3152020E1C0042BC90728BF20F8022B48BF00F8012BB3
S3152020E1D000BD000070B50446042584B32168080FCD
S3152020E1E00B282CD1C1F30360012828D038BBC1F3DA
S3152020E1F003161EB1022E05D002D306E0802606E0A5
S3152020E200C02604E04FF4807601E0802E17D3606884
S3152020E210F608FFF78BFB90B160683018FFF786FB76
S3152020E22068B1164D102068606168324605F10C00F1
S3152020E230FFF710FB4FF400702E60A86000252846BB
S3152020E24070BD70B5054604200C46002D18BF002C45
S3152020E25012D00A4E4FF4007106F12C00FDF7D2FDA4
S3152020E26006F12C0106F10C00FFF78CFA20B906F1F5
S3152020E2702C012960B268226070BD0000C01C0020DD
S3152020E28070B505460E4602F0C4F804000BD10123D2
S3152020E29006F180020021284602F082F9707C0128AE
S3152020E2A004BF00213174204670BDF0B50F260F24FF
S3152020E2B0054689B0029601EB041600208DF8102021
S3152020E2C08DF80000012701930123039706F1800290
S3152020E2D00121284602F064F90297694600F02BF9BD
S3152020E2E009B0F0BDF0B589B004460D4616461F4646
S3152020E2F000F01BF8B8B98DF800000E2005EB0011B0
S3152020E3000E22029201230393204601F180028DF8EA
S3152020E31010600197012102F043F9012069460290FD
S3152020E320204602F06BF909B0F0BD2DE9F84380466E
S3152020E33084B00C4616461F4604202CB304F5E675F9
S3152020E340687818B14046FFF7B0FFE8B9287804F17D
S3152020E350B00902280AD1694699E80D1081E80D10E6
S3152020E36004F1C00090E80E1089E80E103B46324694
S3152020E3702146404601F07AFF2978022904D16A46AF
S3152020E38092E83A0089E83A0005B0BDE8F083F8B56E
S3152020E3900C4684B00421ECB194F8CC1104F19005FC
S3152020E3A002290AD16E4695E8825086E8825004F1E9
S3152020E3B0A00191E8C05085E8C050214602F011FA0C
S3152020E3C0014694F8CC01022804D16A4692E85900E5
S3152020E3D085E85900084605B0F0BD2DE9FE435FEAE1
S3152020E3E00108814615464AD0012D48D808F5E476FD
S3152020E3F03078002843D008F1400748463C6802F090
S3152020E400E0F93178A40904F0010465B939B122462E
S3152020E4104846FCF798FF4146484601F0C0FDB079B2
S3152020E42088B101210CE041B1B97922464846FCF752
S3152020E4308AFF4146484601F0B2FDB07918B1002145
S3152020E440484602F065FA6A4602214846FCF7CDFF87
S3152020E45014B100984008009001AA00214846FCF7F4
S3152020E460C4FF0199009A0A20B1FBF2F1491C4143CD
S3152020E470890800E000BF0846411E0028FAD1BDE8E1
S3152020E480F7832DE9F0430546894689B017461E466F
S3152020E490484601F06FFD80460022494600F04CF99F
S3152020E4A000F041F8FFF741FF040031D10221092372
S3152020E4B08DF8001001220293039299F8471009F54E
S3152020E4C0C87200291CBF1078002803D051780291E9
S3152020E4D01378039301978DF810800596116B06917A
S3152020E4E0029809EB0011039B00F0C8F800F020F8F1
S3152020E4F004000DD100F017F8FFF749FF040007D1DB
S3152020E50099F8CF0120B100F00EF8FFF7EBFE044674
S3152020E510284602F05CF90122494600F00DF92046F2
S3152020E52009B0BDE8F0833B46424649462846704717
S3152020E530012069460290284602F060B82DE9F84766
S3152020E54089B0002401220B2389468DF800400392AE
S3152020E5500027029380468DF8104099F8471000290D
S3152020E5601EBF09F5CA710878002803D04A7802927E
S3152020E5700D78039500224946404609F1500AFFF7B7
S3152020E5802CFF04255AF8046BCEB13B46002249467F
S3152020E5904046FFF7CAFE040014D10197029809EBE2
S3152020E5A00011039B404601F18002012101F0F8FF72
S3152020E5B001206946029000F092FA040002D1F71950
S3152020E5C06D1EDFD14646ECB94FF0000809F1500701
S3152020E5D00425002057F8044B84B14346002249469F
S3152020E5E03046FFF7D4FE60B999F8CF1131B14346B2
S3152020E5F0002249463046FFF775FE10B96D1EA0440D
S3152020E600E8D10446304602F0E2F801224946304657
S3152020E610FFF7E3FE20460AB0BDE8F0872DE9F84152
S3152020E62005460E4689B01746304601F0A3FC00F079
S3152020E63080F800F06EF804001BD100220123052467
S3152020E64000F06CF81EBF06F5C6710878002800F089
S3152020E65050F800F00FF8FFF76BFF040009D100F007
S3152020E66053F8040005D196F8CF0110B100F047F8F1
S3152020E670044634E00298039B06EB0011284601F15C
S3152020E6808002012101F08CBF2DE9F84105460E4676
S3152020E69089B01746304601F06DFC00F04AF800F0AC
S3152020E6A038F804001BD100220123082400F036F874
S3152020E6B01EBF06F5CE710878002800F01AF8FFF75D
S3152020E6C0D9FFFFF735FF040009D100F01DF804001B
S3152020E6D005D196F8CF0110B100F011F8044628464E
S3152020E6E002F075F8012200F026F820460AB0BDE88F
S3152020E6F0F08103D04A7802920978039170473B46ED
S3152020E700424631462846EDE53B4642463146284696
S3152020E7103DE63B4642463146284606E601978DF899
S3152020E7200020039302948DF8108096F84710002934
S3152020E730704780460022314628464EE6F0B50546EB
S3152020E74089B00E4614461F46042084B124216846EB
S3152020E750FDF758FB032201238DF8002069460293FA
S3152020E7602846039307940897019601F047FF09B09E
S3152020E770F0BD0000F8B50D461E468EB00746002196
S3152020E78001A8002300248C4680E81A101168042949
S3152020E79002D85068402817D301212974106C000D07
S3152020E7A000F00700401E05280CD8DFE800F00307FC
S3152020E7B00903030502240CE004240AE0012408E0CE
S3152020E7C0032406E02B747BE03168C1F30324002C5C
S3152020E7D076D000930322069301218DF82430631EE0
S3152020E7E0032B8DF81420CDF830D00D910791089168
S3152020E7F00ED8DFE803F006020A02DFF8802A01920B
S3152020E80006E0DFF87C1A019102E0DFF8780A019011
S3152020E810012301AA0121384601F0C2FE05A9384666
S3152020E82001F0ECFE00284CD13068C0F303600028AC
S3152020E8301FBF7068C0F3072000280090641E0021A7
S3152020E840032C29743CD8DFE804F00210271C009AF8
S3152020E850510635D4DFF8300AC5F8C000009A02F0F8
S3152020E860C30242F04002009221E00099880727D473
S3152020E870DFF8182AC5F8C0200099090241F4007152
S3152020E88014E0009988071BD4DFF8042AC5F8C02095
S3152020E890009941F0020109E00099080610D4DFF81A
S3152020E8A0D02CC5F8C020009941F08001009101208C
S3152020E8B001210422287429756A750098A861697433
S3152020E8C000200FB0F0BD0022F8B50C46002300260C
S3152020E8D005468EB00AA90292002081E84D00032227
S3152020E8E000908DF8143001218DF804200126DFF8C0
S3152020E8F0847CCDF820D00991012303910AAA04967D
S3152020E90028460A9701F04CFE01A9FFF714FEB8B954
S3152020E9100099042201F0F7010091267400992675AA
S3152020E920090401F47F0141F0042141F08101C4F85A
S3152020E93060110E216175009BA361627484F8CF61FA
S3152020E9400FB0F0BD2DE9F847914600220C4691B034
S3152020E9508DF810204FF400710292012280460191F9
S3152020E960039254B3032109AA8DF80010102607928A
S3152020E97004F18007089601233A46012101F010FE72
S3152020E98001266946029600F0AAF8B0B9DDF82400DF
S3152020E99049A610F1010F02BF09A8416811F1010F04
S3152020E9A007D1826812F1010F04BFC06810F1010F50
S3152020E9B009D000F08FF800283CD044F68E6A5046C5
S3152020E9C012B0BDE8F0870023002221464046FFF7FB
S3152020E9D0ACFC0028F1D109201023029002220693B4
S3152020E9E0039B8DF80020029807EB00120596012143
S3152020E9F0404601F0D5FD012140460291694601F0AD
S3152020EA00FDFD0028D9D1002300222146404601F0D1
S3152020EA10E8FE0028D1D100F057F869468DF800206D
S3152020EA204046079301F0EAFD0028C6D100F052F8AF
S3152020EA300028C2D104F1400701223868B97902257D
S3152020EA40322440F0400038604046FCF77CFC00E051
S3152020EA506D1C641EB1D000210DA8002200238C46F7
S3152020EA6080E80E103969DFF81C2D4046914205F0CA
S3152020EA70FF0227BFDFF8003B0D93DFF8001B0D9127
S3152020EA80DFF8043D00211A4301230E920DAA01F03E
S3152020EA9087FD002000F018F88DF80020694607939E
S3152020EAA000F01DF85FEA000A87D100F013F800284D
S3152020EAB0CED1C9F8005082E700112233445566771B
S3152020EAC08899AABBCCDDEEFF10210290032209AB48
S3152020EAD008917047102209A9304602F04FBA4046C5
S3152020EAE001F08CBD2DE9F043CE68012504464FF474
S3152020EAF08070002E47BFF61E05FA06F6761CF6080D
S3152020EB0026654E68402E08D30E6BC6F3031605FAEB
S3152020EB1006F6B6F5004F18BF304604F5E07C0026F1
S3152020EB20CCF800006FF07F4E4FF00008B14600274A
S3152020EB3001EB470090F8240058B105FA00F0704503
S3152020EB403CBF8646B94680453EBFB0F5801F8046ED
S3152020EB503E467F1C042FEBD3C645CCF804E0CCF8E8
S3152020EB601080DFF8205C0CBF012000208CF80900E3
S3152020EB70246DAC4225D391F8580040B101F16004B0
S3152020EB80603114F809501560885D186023E001F182
S3152020EB90250010F81940202C04D0D82C04BFDC25C1
S3152020EBA0156001E021201060253111F8160020285B
S3152020EBB002D0D82803D00EE021221A600BE0DC21D7
S3152020EBC008E001F1250010F81940146001F1250212
S3152020EBD012F8161019600020BDE8F0832DE9FC4FAD
S3152020EBE085B015461A68814600244FF00408C2F3E2
S3152020EBF00350012802BFA868C0F3C044002C00F0AF
S3152020EC0083810E4600213173069A18208B468A4628
S3152020EC1006F15007137804AA03F00F0386F846302E
S3152020EC2003AB0091294601903046FFF75BFF3868F9
S3152020EC30DFF8503B984224BF202001900698016897
S3152020EC40C1F30330002809D1069BCDF808902A4627
S3152020EC5031464846FFF78EFD5FEA000840F0548192
S3152020EC60A968C1F3405038B128694FF0020AC0F391
S3152020EC70421B00F01F0008E0C1F3805030B1286904
S3152020EC80410D01F0070BC0F304400090019B06F1D3
S3152020EC90D00142F20402202B1AD195F8580098B1BF
S3152020ECA005F15803D3F8049042F20423C9F3002037
S3152020ECB010B1DFF8D80A04E0C9F3C01020B1DFF87C
S3152020ECC0D00A08644B6407E0DFF8C83A0B6402E0F8
S3152020ECD0DFF8C40A08644A64012240F206403273EF
S3152020ECE0DFF8B83A38663B640498DDF8049000F0E3
S3152020ECF0FF0040EA094040F0006040F48060086050
S3152020ED00039A4FF48C60086602F0FF0242EA094219
S3152020ED1042F0006242F480620A6306990868C0F3D2
S3152020ED20036058B14868020608D000F0FF004FF073
S3152020ED30000B0090ECB1400000901AE0CCB1019875
S3152020ED40202805D1DFF8581ADFF8582A39637A6344
S3152020ED5002983146FFF794FA5FEA00085ED10298BE
S3152020ED606A463146FFF7EEFD5FEA000856D14FF09E
S3152020ED70000B0198182819D14CB1ED20316C40EAAE
S3152020ED80094041F04001316440F00A403AE0A96848
S3152020ED90C1F3405010B12869000A2CE0C1F38050FD
S3152020EDA010B12869000E26E0032021E00CB1EE20C8
S3152020EDB0E4E705F15801087870B14968C1F340109D
S3152020EDC018B1EC204FF0020A15E0C1F3001070B103
S3152020EDD06C204FF0000A0EE0A968C1F3405008B11C
S3152020EDE0EC2008E0C1F3805008B16C2003E013200A
S3152020EDF000218B460091C0B240EA094040EA0A60D1
S3152020EE0040F0006040F4806000213863069806F2C6
S3152020EE10CD190268C2F3031040B1012874D1686865
S3152020EE20402803D32A6CC2F3402018B900985844AE
S3152020EE30009033E0120C12F0050F18BFA5210BD13C
S3152020EE40900709D5069B02982A463146FFF73BFDB7
S3152020EE505FEA000858D10121286C06F5B872800A8D
S3152020EE6010F00A0F0AD06FF0F92010605060019838
S3152020EE7020280DD140F2FF63936009E010F0110F96
S3152020EE8042D04FF0062010605060DFF89C0B906037
S3152020EE900122BBF1000F89F8002012D1009860B121
S3152020EEA000F0FF0224B1DFF8E00802437A631EE077
S3152020EEB0DFF8781B0A437A6320E042F20440786325
S3152020EEC014E0BBF1010F06BF06200909072041EAFD
S3152020EED080210098000400F47F00014341F048512E
S3152020EEE041F400717963DFF8A41CB96334B10120A1
S3152020EEF089F80100316C41F040013164306C4FF0CB
S3152020EF00000840F010003064404607B0BDE8F08F7E
S3152020EF102DE9F84F0D0096B0144608BF4FF004088F
S3152020EF2069D0834608236A460021FFF707FC5FEA5B
S3152020EF30000860D10098DFF8581C884218BF44F694
S3152020EF408B6858D19DF8040028609DF806707F1C98
S3152020EF500A2F88BF0A2708210CB14FF40061FB0035
S3152020EF6002AA5846FFF7EAFB5FEA000843D164214C
S3152020EF702846FCF747FF4FF0000A4FF6847904E035
S3152020EF80012085F858000AF1010ABA4533D202A990
S3152020EF9001EBCA000278C37902EB0322B2F57F4F38
S3152020EFA018BF4A45EFD100210223C6185B1E3679A9
S3152020EFB046EA0121F9D5C678B60004B10902B2F590
S3152020EFC07F4F0DD1502E05F10802584688BF502676
S3152020EFD03346FFF7B3FB5FEA00080CD16E60D2E719
S3152020EFE04A45D0D1334605F15C025846FFF7A6FBA9
S3152020EFF05FEA0008C4D0404617B0BDE8F08FF0B5D0
S3152020F000490089B003250191002601278DF800505B
S3152020F0106946029603978DF810600792089301F0AF
S3152020F020EDFA0AB0E0BD490060B589B0022501910C
S3152020F030002101268DF810108DF800506946029681
S3152020F04003960592069301F0D9FA09B060BD2DE901
S3152020F050F84705460C4687B00320E07304F14500A7
S3152020F0600821582301700326236426731AB1216CA4
S3152020F07041F001012164012204F1500682700F2003
S3152020F0800121B085F18504F5C2774FF400724FF443
S3152020F0908020FA6304F2C9183864C4F8D0012846BF
S3152020F0A088F800102146FFF7EBF8002862D100F0FF
S3152020F0B0F1F80DF10C0A80E80E10DFF8D81ADFF8E7
S3152020F0C0D82A03910123CAF8042003AA012128461D
S3152020F0D001F066FA00F0DEF8DFF8C09A80E80E101C
S3152020F0E0DFF8BC1ACDF80C90CAF80410012303AA25
S3152020F0F00021284601F054FA4FF4184002230290AA
S3152020F10002AA40F255512846FFF78DFF002831D11B
S3152020F11008236A4610212846FFF771FF002829D1A7
S3152020F1200098DFF8802A0199904289B2019108BF80
S3152020F130B1F5B24F40F09F8008236A462721284602
S3152020F140FFF75DFF002815D10098C0F30720A0F116
S3152020F15017010A29009080F08E8001228240326099
S3152020F1604FF470410291022302AA00212846FFF77C
S3152020F1705AFF00287CD1DFF8301A4AF20475DFF8CE
S3152020F1802CCA7163B5634FF08721C6F84CC0DFF8CF
S3152020F190202AB565DFF81C3ADFF81CEADFF81C5A6E
S3152020F1A0DFF834CCC6F854E0DFF830ECC6F83090DF
S3152020F1B0316448F2307A7264B364C6F85090DFF82E
S3152020F1C0209C31667266B366F26631677567C6F82B
S3152020F1D078C0F56704F1D006C6F84CE0DFF804ECD9
S3152020F1E0C6F850E004F5A874C6F85490DFF8F89BCA
S3152020F1F0C6F830E0DFF8F4EB31647264B364316032
S3152020F2007260B360C6F80C9031617261B361F261AD
S3152020F21031627562C6F828C0F562C6F834E0C6F8B1
S3152020F22038A031667266B366C6F86C90316772670D
S3152020F230B367F26721602161DFF8B41B6261022285
S3152020F2406560C4F808C0E560A3610323E161042159
S3152020F2503A7101247B7109233A703A730522397257
S3152020F26039740B217C707B737A72797488F8034009
S3152020F27008B0BDE8F08744F68D60F9E7350401240F
S3152020F280050401243F040124010401200104022055
S3152020F29031040120002103A8002200238C46704738
S3152020F2A02DE9F04F8DB09046D8F80020C2F30353B5
S3152020F2B0052B0CBF01260026C2F30335002DC2F3F1
S3152020F2C0034418BF032D07D18A460AF13007834607
S3152020F2D02CB1032C00D1D5B94FF0040944E168465E
S3152020F2E0FEF723FF00F04CF9B9F1000F07D16A464B
S3152020F2F05146584600F0CFFC5FEA0009EED10020A7
S3152020F30010218AF80C00032239610C920EE003208A
S3152020F31010218AF80C003961D8F80000C0F3035078
S3152020F320042804BF5021396106200C9054EA050098
S3152020F330514608BF0126032D0CBF082001207875D1
S3152020F3405846FEF79DFF5FEA0009C7D10CB9002079
S3152020F35003E0002E14BF102020200FF67831012341
S3152020F3600A180121584601F01BF900200323059095
S3152020F37002AA8DF8200001208DF8103004A90690CD
S3152020F380079058460B9201F039F95FEA000904BF2D
S3152020F3909DF80800C228A1D102A9002C4FF4803064
S3152020F3A00AF5E07B86F0010607BF897830394A794D
S3152020F3B0A2F1300100FA01F14FF4807239624FF444
S3152020F3C08051CBF810000320CBF804101021002CFC
S3152020F3D0CBF800208AF80C00396108BF032D01964E
S3152020F3E00AF1B0064AD10120022106238AF81110FB
S3152020F3F08AF810000022AAF81200DFF8F8198AF8F5
S3152020F400153007238AF8140001988DF800204FF034
S3152020F41004228DF80330DFF8E039A8B182240220B7
S3152020F4208DF80140CAF8180033637263B163D8F8A7
S3152020F4300000C0F30310032819BF00208BF80A0010
S3152020F44001218BF80A1016E0812402208DF8014034
S3152020F450DFF8A849CAF8180001203363746307240B
S3152020F460B1638AF81C008AF821408AF82000386087
S3152020F47033647264B1640098FEF753FE40F206406E
S3152020F480C64930603966C5B90122DFF874098AF881
S3152020F4900C20DFF870193865BE4A796542F20400DF
S3152020F4A03266DFF864197066DFF8602931624FF41E
S3152020F4B08C633265CAF8303156E0019840B9012371
S3152020F4C002210C24092008220525DFF844C907E05B
S3152020F4D0212322212C24292028220A25DFF834C979
S3152020F4E08902C7F850C041EA0545800240F44170A0
S3152020F4F041EA826245EA84659C0644EA8324DFF851
S3152020F500183941F4487145F0032545F020057D65DD
S3152020F5102343B865DFF80459336125433D6744F01A
S3152020F52003237B67DFF8F858BB67DFF8F838F867DE
S3152020F5302343DFF8F4083366024325437266DFF857
S3152020F540EC0835622043716230657165DFF8E0187A
S3152020F5500C43CAF83041019818B1396941F040016D
S3152020F560396102208BF80C0048460DB0BDE8F08F9B
S3152020F5703E04022085040124EE04208AED04188A04
S3152020F58081460020FEF7CDBD2DE9F84F9CB00446DC
S3152020F59016460D463068C0F30352072AC0F30340AF
S3152020F5A00CBF01270027A0B96846FEF7BEFDFFF74E
S3152020F5B0E7FFB9F1000F07D16A462946204600F019
S3152020F5C06AFB5FEA000911D10020102128732964E3
S3152020F5D003E0032250202A7328640821204685F838
S3152020F5E045102946FEF74CFE5FEA00097AD130689D
S3152020F5F00FF61012C0F3034008B9012303E00328B5
S3152020F60070D1012310320121204600F0C9FF0820A5
S3152020F610002285F8450003A92046FFF779FC5FEAFA
S3152020F62000095FD100F004FA380003D150200321CD
S3152020F6302864297305F1500140F20640574A08668E
S3152020F6400A64306805F5E67805F1D00442F2010A0D
S3152020F650DFF8E0B7C0F30342032A1CBFC0F3033010
S3152020F660032841D1DFF8D007DFF8D0270865DFF857
S3152020F670D03740F206700A634B63DFF8C827086745
S3152020F680DFF8C41721604FF4EC632263DFF8BC0750
S3152020F69023664AF20431206461643068C0F3034053
S3152020F6A0E8B90021062282238DF800108DF8032048
S3152020F6B08DF801300098FEF734FD012002212874B0
S3152020F6C0E722697406200121AA6168754FF004207B
S3152020F6D029756982C4F810B06061C4F818A0022187
S3152020F6E088F8001048469CE10028FBD10868029E35
S3152020F6F0DFF85C27B0F1807F06F0FF0627BF2020A9
S3152020F7008E231820C22346EA004643EA00431643A6
S3152020F7102660019E06F0FF0646EA00463243226313
S3152020F720DFF83027134323644FF40E5363644FB915
S3152020F730DFF82407DFF8242708634A63012188F8A5
S3152020F74002101AE00E68CB23C4F810B0B6F1807FE1
S3152020F750DFF80C676661C4F818A028BFCC230C27D5
S3152020F76043EA0040AF6101272F7406266E751043A9
S3152020F7702F750863DFF8EC0648634FF48C61216609
S3152020F780B0E700000100000100B204A63E04200AD2
S3152020F790340420081204200802041808050404242E
S3152020F7A013042008042401002DE9F84F9CB081463B
S3152020F7B010680D4644F68D684FF0000AC0F30350BA
S3152020F7C009280CBF012400240420102185F8450097
S3152020F7D010682964C0F30347C0F30336B7B96846D7
S3152020F7E0FEF7A3FC8046FFF7CCFEB8F1000F07D129
S3152020F7F06A462946484600F04EFA5FEA00085AD162
S3152020F800012085F80CA085F845000EE0022F02D1B4
S3152020F8100320287309E0032F4DD1032108202973C3
S3152020F82085F845000CB94FF0010A002E1CBF022E88
S3152020F830032E40D156EA070008BF0124022E03D109
S3152020F840042085F8450004E0032E04BF082185F80E
S3152020F8504510286C002C294614BF20F0400040F08B
S3152020F860400028644846FEF70BFD5FEA000822D1B7
S3152020F87044B1022F02D0032F02D00CE010200BE03F
S3152020F880202009E0022F02D0032F02D003E03020CF
S3152020F89002E0402000E000200FF2886101230A18B0
S3152020F8A00121484600F07CFE524603A94846FFF730
S3152020F8B02FFB5FEA000840F0B38000F0B9F8032060
S3152020F8C005F18001287340F20642DFF89C350A6351
S3152020F8D00B613CB94FF0220A2C23292028274FF0F0
S3152020F8E00C0E06E04FF0020A0C23092008274FF0C1
S3152020F8F0060E4FEA066909F040794FEA062C0CF4E9
S3152020F900407CCDF8009049EA0C0949EA8A6ADFF85A
S3152020F9105CB54CEA0E0E022E4EEA832E4BEA0A0BDB
S3152020F9204CEA8727C1F800B0009B1CBF032E00227B
S3152020F93047F0800743EA0E0305F5807E43EA80637D
S3152020F94043F480234B604AF0201343F480630B65F5
S3152020F950DFF81C3543EA0A03CEF81470CEF80030BF
S3152020F960DFF8103543EA0A03CEF810304CF48C63C6
S3152020F970CEF8303017D149EA8063DFF8FC0442EA1A
S3152020F9800C021843002308620A640222022E85F8FC
S3152020F990CC21AB6103D14FF48020A86104E0032E53
S3152020F9A002D14FF40022AA6124B9A86940F40000AC
S3152020F9B0A86106E02A6C012042F080022A6485F89C
S3152020F9C07900DFF8B82442F203030A660120002ECC
S3152020F9D04B66287414BF02200020687406206875A0
S3152020F9E001212975002069828DF800004CB1022E54
S3152020F9F008BF41200CD0032E0AD181218DF8011079
S3152020FA0008E0022E08BF422002D0032E08BF822003
S3152020FA108DF8010008228DF803200098FEF781FB3F
S3152020FA2040461DB0BDE8F08F001E1032003204265D
S3152020FA3001AB02AA03A92846FFF754B82DE9F841BD
S3152020FA400D4604241646002D99B0804618BF002E58
S3152020FA5000F098804FF400712846FCF7D3F905F181
S3152020FA60440701224FF08073BA70FB60DFF8100440
S3152020FA702860DFF810140322012069606A73AA73B4
S3152020FA8085F8C8013168C1F30360002808DD706855
S3152020FA90C0F30340012803D1296C41F480712964E5
S3152020FAA03068020D02F00F02092A61D8DFE802F041
S3152020FAB0050546484E4E54545A5AC0F30340002852
S3152020FAC056D1DFF8C413DFF8C423F96329467C70A6
S3152020FAD040463A64FEF7D4FB040049D13068C0F38F
S3152020FAE00310012810D105F5B8706FF0F9210160B7
S3152020FAF00023416040F2FF61816000222946404672
S3152020FB00FEF7D3FB040033D131680FF2883001236E
S3152020FB10C1F3034100EB01120121404600F040FDD4
S3152020FB20002269464046FFF7F3F9040020D13346E8
S3152020FB306A4629464046FFF751F818E0012200E0A0
S3152020FB40002229464046FFF782FA10E0324629460F
S3152020FB504046FFF7A5FB0AE0324629464046FFF7F6
S3152020FB6013FD04E0324629464046FFF71DFE044693
S3152020FB7034B92846FEF7B6FA307800F00F00B87070
S3152020FB800121397020461AB0BDE8F0810426017C77
S3152020FB90534644502087188B108F02A3A087188B9A
S3152020FBA0108F04A700510052108F0CB30087708746
S3152020FBB00087AA8700870587108F0BB70087558770
S3152020FBC02DE9F04180460C46042074B304F5E275F5
S3152020FBD09F1829687F42494201EA02066A790F4026
S3152020FBE07F420AB9E96889B9BE421ED200F01FF8C1
S3152020FBF0002804BF29688E19F6D016E03246214601
S3152020FC004046FEF741FD80B9E9688E19BE420CD2E6
S3152020FC10E96836EA010002D1B81B8842EED200F00C
S3152020FC2006F8002808BF2968EFD0BDE8F0813246C3
S3152020FC3021464046FEF7F2BC2DE9F84180460420B5
S3152020FC401546002989B01F4618BF002D21D0109CAB
S3152020FC50FCB1084600F08EF9032101238DF800100F
S3152020FC600021039302918DF810004FF6FF76B442BF
S3152020FC70019769460795404698BF2646089600F084
S3152020FC80BDFC30B9A41BF719B608002C05EB860558
S3152020FC90EBD1FEF72BBD2DE9F8430E461446042161
S3152020FCA0002C92B0804604D060782178884208BF04
S3152020FCB0002100F08D8006F14507082038706078F5
S3152020FCC003254FF00109422818BF412802D10420DC
S3152020FCD0022538706078822814BF42284FF02109E7
S3152020FCE0002020210A908DF834008DF82400012050
S3152020FCF00B9001A8FCF786F8E4782A0201AB062CA3
S3152020FD000ED031D3082C01D014D32DE040F206405A
S3152020FD10104340F2FF4101900A431A61022224E057
S3152020FD2040F2994140F2664414430A431A61022262
S3152020FD3001941AE042EA8922B9F1210F42EA0562AA
S3152020FD4042EA896242F4190042F4CC0240F066006D
S3152020FD5042F0990201901A6103D1306C40F04000A4
S3152020FD60306402210C9101E001220C9201204FF0F7
S3152020FD708071787006F150000160414A3260032478
S3152020FD80404B012273600A2374733146B47386F87C
S3152020FD90C82143624046FEF773FA010018D10C9B16
S3152020FDA001AA012140464FF47A7400F0F9FB09A9F3
S3152020FDB0FEF795FE364A01461368B3FBF4F4009409
S3152020FDC003E000BF009A521E009200980028F8D126
S3152020FDD0084613B0BDE8F083008702870087A087F6
S3152020FDE0108F80A30087188B00878087108F00872D
S3152020FDF000871087000401207204000400040204F6
S3152020FE000C0420080830042421042008DC042008BF
S3152020FE10EC071307EE8711870603F9030503FA0378
S3152020FE202103DE031203ED0320030403DC03230353
S3152020FE3060039F0381040004050704A7FD07208B88
S3152020FE4006B304A7DC07208B2107208B1207208BE3
S3152020FE50000400080004000BFD04208B0CB304A72B
S3152020FE60000401040C330427050404240B04200079
S3152020FE70D804200002042000050404007104000494
S3152020FE804643464200040156030418080424010070
S3152020FE90940500205A0418080830FF24000000008A
S3152020FEA0000000005A0518090831FF25000000002F
S3152020FEB0000000005A06180A0832FF26000000001B
S3152020FEC000000000000000000000000000000000EC
S3152020FED0000000009F040324000000000000000012
S3152020FEE0000000009F076007200B04270000000069
S3152020FEF0000000009F876087208B04A70000000059
S3152020FF00000000005A0418080830FF2400000000D2
S3152020FF10000000005A07208BFFA7000000000000E9
S3152020FF20000000005A0418080830FF2400000000B2
S3152020FF30000000005A06180AFF26000000000000D4
S3152020FF40000000005A07180BFF27000000000000C1
S3152020FF50000000005A06188AFFA6000000000000B4
S3152020FF60000000005A07208BFFA700000000000099
S3152020FF700000000090F8400010F0040018BF012077
S3152020FF80704790F8400010F0200018BF01207047DD
S3152020FF9090F8400010F0010018BF012070472DE98D
S3152020FFA0FF47814604200024B9F1000F0D4608BFE3
S3152020FFB0DFF88849002C18BF002D7CD0297B042906
S3152020FFC079DA032901AF15D195F84030980711D455
S3152020FFD06A4602214846FBF708FA009BDFF860298B
S3152020FFE093420CD395F840100B0608D4792201921F
S3152020FFF07A603FE04FF48070019078603AE00026E6
S315202100004FF47A7805EB46007830417829BB007881
S315202100106421484319D1286C03A9800900F0010ADB
S3152021002052464846FBF709FA0399BAF1000FDFF841
S315202100301409B0FBF1F101D1490800E089084B22CE
S3152021004008FB01F1B1FBF2F106E04B23B0FBF3F102
S3152021005003FB01F2824200D2491C402928BF3F21BD
S31520210060490201F4FC4141F4807147F82610761C9F
S31520210070022EC7D32068400800F0010090F001002D
S3152021008003D0216841F0020121602A6D04F1C003C9
S31520210090002A07BF696D0029019A1A60A96D0029D6
S315202100A007BFEA6D002A7968596018B1206820F0C7
S315202100B002002060002004B0BDE8F08710B5044678
S315202100C00420002C18BF002A0FD073B1DFF8740842
S315202100D0B0FBF2F04343B1FBF3F000E0401C00FB00
S315202100E003F28A42FAD32060002010BD38B584B0AD
S315202100F04FF6FF740194009400B909B9042028E031
S3152021010003AA0221FBF771F902AA01210020DFF8B7
S315202101103858FBF76AF9039A4FF48063294601A8D8
S31520210120FFF7CCFF029A4FF4806329466846FFF7F2
S31520210130C5FF0199DFF81438A14288BF0194009A9E
S31520210140A24288BF009401980099C1EA004200206A
S315202101501A6005B030BDD0F8E010CA07FBD5D0F81B
S31520210160E0309907FBD570472DE9FE430E46042141
S315202101700022002800924FD1002E4DD006F15008A2
S31520210180914606F5C87758F8040BDFF8B01701EB2E
S315202101908904800A2066707BB57BF17B400100F4BF
S315202101A0787005F01F05054396F84000C90201F431
S315202101B0F0410D430107706F48BF45F4806568B152
S315202101C001AA02210020FBF710F9019A716F012360
S315202101D06846FFF773FF009945EA0145256796F89A
S315202101E0470000281EBF39784A0112F0E00F09D0B6
S315202101F07878491E490301F46041000200F47060B9
S31520210200084301E04FF4106009F10109B9F1040F07
S31520210210C4F88000B7D300210846BDE8FE83042216
S31520210220002810B518BF00291ED040310A79012A8D
S315202102300AD1C26809785208520042F040024B077F
S3152021024048BF42F00102C260C168DFF8044741F08D
S315202102502001C160002100EB8102491C136A234041
S3152021026003291362F7D30022104610BDF0B50446A8
S3152021027089B0042031B30020012603278DF8000000
S31520210280039602978DF81020019391F84720002A92
S315202102901EBF01F5C4721078002803D0537802932B
S315202102A012780392029D039B01EB0516012120461C
S315202102B006F1800200F074F9012369460293204653
S315202102C000F09CF909B0F0BD78B50424002889B046
S315202102D00D46164636D1002D34D0DFF87806006833
S315202102E0C0F3012020B1687C022808BF002429D030
S315202102F0012101968DF800106A7D33460020029255
S31520210300297D00220694039105F11801059129469C
S315202103108DF81020FFF7AAFF00F06DF800F066F89F
S3152021032004000FD1688A58B9697C022918BF03298C
S3152021033006D033460022294600F053FA044601E02E
S3152021034000F062F820460AB070BD2DE9F841042458
S31520210350002889B00D4690463ED1002D3CD0012063
S3152021036000228DF800000027CDF804808DF810207A
S31520210370069405EB870202F120035978002931D012
S31520210380DFF8D005EE190068C0F3012010B1707F87
S31520210390022827D00291197802F130004346039191
S315202103A00022059029460020FFF760FF040013D183
S315202103B000F021F800F01AF804000DD1688A78B9E6
S315202103C0717F022918BF03290AD0434600222946D4
S315202103D000F007FA040005D020460AB0BDE8F081D6
S315202103E000F012F87F1C032FC3D3F5E701206946BD
S315202103F00290002002E10298039B05EB00110020C8
S3152021040001F180020121CBE0642148430021FBF741
S3152021041069B802460420002A2DE9F84F0D4614D149
S31520210420002D00F0A1802A7C002A04BF297F0029E3
S3152021043006D095F8402012F0500602D0012600E081
S3152021044000262968DFF81025914240F08D80002072
S3152021045005F14507FAF7C1FF29460020FDF7C6FC1D
S31520210460300003D000220121002001E000F07EF897
S31520210470FAF769FF0020DFF8C444FAF7A9FF00F054
S315202104807CF821684DF60F7041F002012160216828
S315202104903A780140287B082A08BF41F400510001FF
S315202104A000F03000014341F07F4141F47F010020DB
S315202104B021602946FFF71AFEA06820F40040A0609B
S315202104C095F84010C80703D5A26842F40022A260FD
S315202104D029462046FFF7A3FE29460020FFF744FEA2
S315202104E029460020FFF75BFD00F047F8287C88B1DC
S315202104F000F04FF859F8048BB8F1000F06D0524678
S3152021050029460020FFF7E0FE70BBC244BBF1010B58
S31520210510F0D148BB287F88B100F03BF859F8048BED
S31520210520B8F1000F06D0524629460020FFF70DFFCD
S31520210530D0B9C244BBF1010BF0D1A8B99EB1206834
S3152021054040F00200206000F011F8FAF7FCFE29465F
S315202105500020FFF7CBFD29460020FFF720FD20684C
S3152021056020F0020020600020BDE8F28F2A6C7978E5
S315202105700020920902F001027047206820F0020033
S315202105802060216841F0010121602268D307FCD433
S31520210590704704204FF0000A05F150098346704721
S315202105A02DE9F0420F4614461E46042118BB14B3EA
S315202105B04FF00009BA1949EB0903002B1BD8112A40
S315202105C019D200F0B5F9DFF894030221A861E96177
S315202105D0B90005EB8102F71902F5007204E054F8FF
S315202105E0043B491C42F8043BB1EB870FF7D3A861A2
S315202105F00120E86100210846BDE8F08200282DE986
S31520210600F8434FF0040871D10C0000F0CB802078FC
S31520210610042880F2C780DFF8246394F810903046AE
S31520210620DFF83C73FFF797FD0020002500F062F9E3
S31520210630706940F01E007061616839602078022857
S3152021064008BFA56902D0032801D1256AADB2A068C9
S31520210650E168000400F470200543491E090601F0D3
S31520210660E0610D4345EAC9757D602078032834D1A0
S31520210670E269206A12F0030138D11C23BB61B969D2
S3152021068041F00101B961BB69D907FCD4396941F02F
S315202106900101396108B3402807F1600314D3716938
S315202106A04FF0100C890604D414E053F8041B42F8A9
S315202106B0041B5FEA0C01ACF1010CF6D171694038BB
S315202106C041F02001716105E0396DC90001F4FF6116
S315202106D0814221D271690B07DCD52078022818BFE7
S315202106E0012839D16269A16912F003005AD11C234C
S315202106F0FB61F86940F00100F861FB69D807FCD459
S315202107000025002928DD7069964B400621D54029F0
S315202107104FF0100C38D30CE0042822BF53F8041BC9
S3152021072042F8041B001FF7D23FE052F8040B43F88E
S31520210730040B5FEA0C00ACF1010CF6D1403925B946
S315202107403869012540F001003861706940F0400088
S31520210750706173691807D4D5207818B9396941F0A1
S31520210760010139613046FFF7F6FC7069010717D57B
S31520210770786CC0F303600E280CBF41F6583841F639
S3152021078059380FE043F8040B5FEA0C00ACF1010C59
S31520210790D5D00029D2BF0020091F52F8040BF1E73A
S315202107A04FF000084046BDE8F28340B11968009118
S315202107B0694611F8013B401E02F8013BF9D17069C7
S315202107C08BE718B9684801688A07FBD5704738B97D
S315202107D05A48016841F0010101600268D307FCD41F
S315202107E0704700292DE9F84F8EB04FF004097AD0B1
S315202107F001F170049246A5890122E6890693089281
S3152021080002FA05F80325BAF1000F8DF81450079244
S3152021081002AD0C9514BF082304230D938DF824A033
S3152021082091F84730002B1EBF01F5C2752A78002A80
S3152021083003D06A7807922D7808950490079801EBC2
S315202108400015089B0146049805F18002FFF7A8FEB2
S3152021085024685FEA040B18BF4FF0010B002504988A
S3152021086005A9FFF7CBFE5FEA00093CD1BAF1000FBB
S3152021087019D001A96A4602AB042013F8017B401E38
S3152021088001F8017B13F8017B02F8017BF5D1002EBB
S315202108900199009803D0014038EA01010CE0014377
S315202108A011EA080108E026B1029838EA0000074635
S315202108B003E0029918EA01010F4618BF0127F8B271
S315202108C010EA0B0F0CD00022954208BF94420ED07D
S315202108D04FF47A700021FAF705FE641E65F10005B2
S315202108E0FFB2002FBBD148460FB0BDE8F08F41F6AD
S315202108F05A39F8E758B9114901EB8001401C0428DF
S31520210900D1F8802042F00042C1F88020F3D37047ED
S3152021091038B50C4658B900F00BF824B1296841F4B2
S315202109200061296031BD286820F40060286031BD2E
S31520210930024D2846FFF70FBC0000000000802A4008
S3152021094000E1F50500CA9A3B0065CD1D04802A40A9
S3152021095000FFF0FC00822A4046434642F05AF05AD4
S31520210960A0802A4080812A40E0802A402DE9F84330
S31520210970DFF834650220ADF5467D30607060DFF802
S315202109802C7538684FF00108C0F3400000281FBF9E
S31520210990DFF81C452068C0F30130002803D02068E9
S315202109A0C0F38130002800F09880FDF77DFB0128D7
S315202109B040F09380B869C0F30160002818BF02284F
S315202109C00CD1DFF8F0140020002200230F1D41F85E
S315202109D0302047F83030401C0228F8D920680025DD
S315202109E04FF4C077C0F3013030602168C1F38130E4
S315202109F0706002A802F040FF56F82500741906EB14
S31520210A008501012804D012D303280DD008D30EE066
S31520210A10DFF8A4248A60886860B90021217459E00E
S31520210A20DFF898048860F6E7DFF89424F2E70020BF
S31520210A308860F2E7012202A82274896880224FEA7F
S31520210A40852902F02DFF09F1C041202201F580617F
S31520210A5006A8FCF7FFFEDFF86C044FF4807200EB4A
S31520210A60090126A8FCF7F6FE202166AB009106AAED
S31520210A70002102A803F05CF866A9802202A802F0D0
S31520210A800FFF4FF4807086A9019026AB00916AAAA8
S31520210A90002102A803F022F886A9DFF82C344A681F
S31520210AA007FB05F09A4202BF8699DFF8202491425E
S31520210AB0304406D0002339462374143002F084FCB6
S31520210AC008E001213A46217466A914304FF0000826
S31520210AD0FCF7C0FE6D1C022D8ED340460DF5477DB9
S31520210AE0BDE8F08310B50024FFF740FF00B90124AB
S31520210AF0204610BD0146002021B10968090F0E2983
S31520210B0008BF012070472DE9F04395B00646FFF72F
S31520210B10E9FF054630460424FFF7ECFF002808D0DC
S31520210B203068000F0E2840F0CB803168C1F3034096
S31520210B30002800F0C58004281AD2C1F30352022AC4
S31520210B40BCBFC1F30332042A0ADA012803D9C1F32F
S31520210B500322042A04DA032804D3C1F30310042828
S31520210B6080F2AE80C1F30360032824BF001F03282F
S31520210B7080F0A6800022C1F30367032FCA4B28BF2A
S31520210B800122002D1EBF03F11001885C002871D19E
S31520210B904FF4C07111FB02F51D44143517F00307DC
S31520210BA003D0022F05D002D308E0C44802E0C24870
S31520210BB000E0C34803F1080747F82200012010333B
S31520210BC098542846FBF71EF905F18007BE48BF49F0
S31520210BD0786039603268BE4806F10808B860C2F3E9
S31520210BE003410022F960337803F00F03FB6130685B
S31520210BF0C0F30350B86115E03368C3F3032005EB36
S31520210C00421C0CF1D00306EBC20CDCF804E0C3F83D
S31520210C1000E0DCF804C058F832909860521CCC448D
S31520210C20C3F804C08A4209D2012AE5D03068022AB3
S31520210C300CBFC0F30310C0F30330E0E70129386D60
S31520210C407A6D0ED9012305EB431656F8D0CF84456C
S31520210C50766838BF6046B24238BF32465B1C8B422B
S31520210C60F1D39C4988422BD3386168467A6102F0B8
S31520210C70C5FB040024D10020974E8DF80300694638
S31520210C80304602F071FD04001AD1B869012809D134
S31520210C90102205F1A001304602F09CFD04460020D9
S31520210CA038626CB910222946304602F093FD0400A1
S31520210CB006D1102205F11001304602F08BFD0446A3
S31520210CC0204615B0BDE8F083F0B500220024764BEE
S31520210CD04FF4C075002665431D44143500E0761C6B
S31520210CE0D5F88C70BE4210D205EB461C0CF1D007EC
S31520210CF0D7F804E0AEF1010E8645F0D33F6801EB2B
S31520210D00000C6745EBD2012202E0641C012CDFD9BD
S31520210D101046F0BD2DE9F0470D460421002D86B061
S31520210D2018BF5FEA020838D00646022E35D25E4C1D
S31520210D30A3191A7C8AB302A84FF4C07902F09CFD2C
S31520210D4009FB06F18022601800F1140A00F5457787
S31520210D50514602A802F0A4FD4FF4807007F18001CC
S31520210D6001900AF1800300910AF11002012102A8C3
S31520210D7002F0B4FE04EB86008022816802A802F0EC
S31520210D808FFD20203B4600905246012102A802F0E9
S31520210D90CFFE2F600021C8F80090084606B0BDE896
S31520210DA0F0872DE9F84706460C4604201546002CE7
S31520210DB089B018BF002D4AD04FF000094FF4C077D3
S31520210DC0DFF8E48000F046F890304268521EB242A5
S31520210DD003D30068A119884204D309F10109B9F185
S31520210DE0010FEFD908EB890205A8D2F808A002F055
S31520210DF043FD802205A8514602F052FD00F02AF833
S31520210E00D0F8981001291AD1A03001AA90E88A1089
S31520210E1082E88A1036090020019601A901AB4642B3
S31520210E2033440A5CDF7B0F54401C0828DA73F5D340
S31520210E3000942B462A4605A802F0A0FE06E000943F
S31520210E402B462A46012105A802F072FE00200AB06F
S31520210E50BDE8F08707FB09F108F114000844704723
S31520210E602DE9F04105460E4600274FF4C07404FBB8
S31520210E7007F10D48014401F1140001F54578174980
S31520210E8001EB8721A94209D37219914206D2214623
S31520210E90FAF7B8FF21464046FAF7B4FF7F1C012F07
S31520210EA0E5D9BDE8F0810000F41E002004800F4022
S31520210EB060441F4048C00A40DCEFDCFE89ABDCFEE3
S31520210EC01234DCFE80040060454844525441475F79
S31520210ED0000001560010006000C00C400004006094
S31520210EE003F016B913460A460146184680B503E093
S31520210EF013460A4680B51946FCF7ACFC002002BDF4
S31520210F0010B514460A4621460123BDE81040F9F7BB
S31520210F1077BE000062F30F2262F31F42401810F0C1
S31520210F20030308D0C91A1FD3DB0748BF00F8012DB8
S31520210F3028BF20F8022D130030B414461546103947
S31520210F4028BF20E93C00FAD8490728BF20E90C0010
S31520210F5048BF40F8042D890028BF20F8022D48BF1C
S31520210F6000F8012D30BC7047C91818BF00F8012D93
S31520210F70CB0728BF00F8012D704700000300002071
S31520210F8013F0030F09D0521E22BF13F8010B11F8BB
S31520210F9001CBB0EB0C00F3D0704711F0030F14D125
S31520210FA0121F22BF53F8040B51F804CB6045F7D00A
S31520210FB0121D0AD200BA9CFA8CFCB0EB0C0038BF69
S31520210FC06FF0000088BF01207047521E22BF13F800
S31520210FD0010B11F801CBB0EB0C00F6D0521C08BF47
S31520210FE01046704770B504460D46DFF82863202148
S31520210FF03046FAF707FF2278012A02DD42F6CE1083
S3152021100070BD6078212809DA6168012202FA00F38D
S315202110108B4222BF08388240914202D242F6CF101B
S3152021102070BD1C2221463046FCF724FC7068F561F0
S31520211030B0F5007F04BF09217170002070BD1346D1
S31520211040B44A70B5957C0446526800201E19B242D6
S3152021105002D242F6CC1070BD2A0000D16CE02BB111
S315202110600A4621462846BDE87040A8E070BD2DE9F4
S31520211070F8438046002401EB0809A64F7868FD68CD
S31520211080FE7D484504D242F6CC142046BDE8F283A3
S315202110909EB9BE7DBD6886B9387830B301280CD17A
S315202110A0404600F03EF90446EFE7002CEDD1387D8D
S315202110B0D8B100F023F90028FBD1C845E5D200F0AC
S315202110C0FEF80400E1D1002300224146304600F0FB
S315202110D076F80446B8FBF5F105FB118000281ABFE6
S315202110E0481C05FB00F8A844DFE742F6D010CDE7DF
S315202110F070B5884D2E7E6968300008D12878A0B138
S31520211100012804D1002000F00CF9044612E000F059
S31520211110D6F804000ED1002300220021304600F00B
S315202111204EF8040006D1287D00B905E000F0E6F846
S315202111300028FBD1204670BD42F6D01070BD2DE986
S31520211140F84F81468A469046002408EB0901714EC4
S315202111507068B768757C884204D242F6CC14204642
S31520211160BDE8F28FCDB942F6D010F9E7C3468845BE
S315202111705246284688BF8B465B46494600F01FF8D3
S315202111800400D944DA44A8EB0B08E8D1307D0028A5
S31520211190E9D000F0B3F80028FBD1B8F1000FDED05A
S315202111A000F08DF80400DAD1B9FBF7F17943B9EBD8
S315202111B001001ABFA7EB090009183946D6E72DE900
S315202111C0FC471C46534FFB698246894690467D78CB
S315202111D00022002100209847BAF1000F2CD0397C1B
S315202111E08A4508BF012628D07A7C924508BF022647
S315202111F023D0B97C8A4508BF03261ED0FA7C924586
S3152021120008BF042619D0397D8A4508BF052614D062
S315202112107A7D924508BF06260FD0B97D8A4508BF1B
S3152021122007260AD0FA7D924508BF082605D0397EA1
S315202112308A4508BF092600D000267878092804D1B6
S31520211240B9F5807F28BF4AF0080A092D8DF800A01C
S3152021125008BF08250121B01E012884BF401F01286F
S3152021126014D86D1EAB1005EB537100200DF101052D
S31520211270C910491C07E04A1E121AD20029FA02F384
S315202112802B54401CC0B28842F5D3491C21B1FB699D
S3152021129002226846984780B94CB10122761E012E3A
S315202112A0FB692146404698BF0222984728B9FB6907
S315202112B003220021002098470020BDE8F68738B573
S315202112C01448047D457D200001D0280002D142F614
S315202112D0D01032BD00F020F80028FBD19DF8000067
S315202112E0810709D40023002200212846FFF767FF22
S315202112F09DF800008107EDD5002032BD1CB505489B
S31520211300047D00F009F80028FBD19DF8000000F0AB
S31520211310010016BDF032002001236A460021204615
S315202113204DE77FB505460C46FF2210216846FCF77E
S3152021133033FF01E07519A41B5CB11026102C6946D8
S31520211340284638BF26463246FFF7F9FE0028F1D037
S3152021135000E0002004B070BD00F01F02DFF85835F0
S31520211360000A914003EB800030B50325954004689F
S31520211370AC432143016030BD0321EDE721B1016951
S3152021138041F0010101617047026952085200026150
S315202113907047426A01F00101520841EA4201416245
S315202113A070475202036942EA01221A4302617047B9
S315202113B0120401F00F0102F4702211438165704756
S315202113C00146002010B500BF05A2C3B252F8233032
S315202113D08B4203D0401CC4B2052CF6D3C0B210BD1B
S315202113E000000000004039400080394000C03940CB
S315202113F000003A4010B50C46FFF7E2FFDFF8BC1497
S315202114000C5410BD7CB50D4600210446164600918C
S31520211410FFF7D6FF38A232F91000FFF7ADFF20469D
S3152021142000F05FF801212046FFF7B3FF6A7E297E6F
S31520211430204600F067F8616AEA7EDFF884046B466D
S31520211440920602F0806201401143A87E32460006B0
S3152021145000F04070014320466162296800F05DF862
S315202114600022002100F019FA697A287A6A6800F0A8
S3152021147029F8A87A00F02CF800982A7EC00600F0D8
S31520211480605001432046120602F040721143216624
S315202114900121FFF773FFE96833460122204600F038
S315202114A099F8296933460222204600F093F8696982
S315202114B033460322204600F08DF800212046FFF7EF
S315202114C099FF73BD890701F0804141EAC0717047B8
S315202114D0521EC2F30B02C00500F400000143114342
S315202114E07047016941F0020101610269002142F43C
S315202114F04072026101617047FFFF00010201040170
S315202115000601000010B5436A083101248C4002FAF5
S3152021151001F1A3431943416210BD2DE9F047054648
S315202115208A46686A94461C46C00702D52969CA0795
S3152021153001D5002028E04FF0FF300722FF234FF06E
S31520211540000E00210FF29848002618F80190B71CAA
S3152021155007FB09F9BCFBF9F9CA4507D3AAEB090709
S31520211560874203D238460A463346CE46761CFF2E7C
S315202115700CD80028E9D1286C03F0FF03000A43EA9E
S31520211580002370462B642260BDE8F087491C072979
S31520211590F1D80028D8D1EEE7012A04D019D3032A7D
S315202115A00FD007D37047026C090401F47F0122F47E
S315202115B07F020CE0026C22F07F4242EA0162026441
S315202115C07047026C090201F47F4122F47F421143C4
S315202115D0016470472DE9FD4783B00E4603990FF22A
S315202115E0004001254FF0FF384FF0FF0A0A6EC2F363
S315202115F0C2619DF81020445C0021032AB3FBF4F03C
S31520211600CDE900010AD1DFF8B4438946B4FBF0F4D1
S31520211610DFF8AC0300F03BF8022508E0DFF8804331
S315202116208946B4FBF0F4DFF89C0300F030F8C94575
S3152021163001D8B44207D39DF8102003980021FFF743
S31520211640ABFF204620E044460027029680467819A3
S31520211650DFF84C13A1FB000100F01AF8494501D807
S31520211660B04205D3821BA24202D21446BA468046F4
S315202116707F1CFF2F01D8002CE9D19DF8102003983B
S315202116805146FFF789FF404606B0BDE8F0873B214A
S31520211690DDE9002302F024BC8168E1B10368002B37
S315202116A004BF4168002916D0052A07D28068B0FBDD
S315202116B0F2F102FB110272B90120704712F0030FD9
S315202116C0806802D09042F7D005E0B0FBF2F102FB10
S315202116D01102002AF0D0002070472DE9F84F84B05E
S315202116E005462C6E0F46C4F30B04641CE11DC90864
S315202116F00191FFF765FEDFF8C421214612F800800B
S31520211700019A3846FFF7C8FF00285CD06869C101D5
S3152021171048BF4FF4C87057D43C6879680091BE6899
S31520211720BA6848EA08200292696840EA08400122FC
S315202117304FF0000940EA086B0120090A88400390EE
S31520211740F8680709010D800D01F0010800F0010A52
S3152021175001212846FFF725FEDFF86C1269610098E2
S3152021176008B94FF0010900212846FFF707FE686ACC
S3152021177020F008006862686A00F092F818BFB0F17C
S31520211780007F04D1E4B9686A40F080606862012153
S315202117902846FFF7F3FD286E3F0607F0407720F015
S315202117A04E7040EA485040EAC94007432F660198C7
S315202117B004280AD801A991F80090CDF804900BE0CD
S315202117C000980028E3D0042048E004229146019283
S315202117D002E00097CDF808808EB301998E423CBF56
S315202117E0F0B201900398E96D01F01F018142FAD0F0
S315202117F003903CB101995246204600F063F8834676
S3152021180001980444C5F864B001990098761A0028F5
S31520211810E2D00746DDF80880E86DC0F304400028B1
S31520211820D7D0C845696F5346384638BF5FFA88F9FD
S315202118304A464F4400F07EF8A8EB0908ECE7E86D0C
S31520211840039900F034F8FAD02A6E22F480122A66FF
S31520211850009848B969694805FCD5002005B0BDE83E
S31520211860F08F0094C146029602980028F5D0009C5C
S315202118700646C846E86DC0F304400028F1D0464507
S31520211880696F5346204638BF5FFA86F8424644445C
S3152021189000F050F8A6EB0806ECE7204688E5606ABA
S315202118A000F04070B0F1807F7047E06DE97800F05C
S315202118B01F0088427047000068C00F40402B00203F
S315202118C0F7FFFFF830B50024491E032903462ED8F9
S315202118D0DFE801F002050E1A13F8014B27E05C78A8
S315202118E01978002A14BF44EA012441EA04241EE07F
S315202118F05C789D78197824021AB90C4344EA054468
S3152021190015E044EA014411E0DD78997858781C786D
S3152021191032B944EA002444EA014444EA056406E053
S315202119202246040444EA026444EA01242C43204644
S3152021193030BD000030B50C0C0D0A521E032A21D8C9
S31520211940DFE802F002050C1500F8011B30BD13B9A2
S315202119500170457030BD0570417030BD1BB90170D5
S315202119604570847030BD04704570817030BD0A0E7B
S3152021197023B9017045708470C27030BD02704470E5
S315202119808570C17030BD436A104ADB0744BF526956
S315202119901047936918470D4841680D48F3E7000021
S315202119A000CA9A3B094881680A48ECE70748C1687A
S315202119B00948E8E7054801690848E4E700943577AE
S315202119C000CA64D60000CA9A033F0001242B0020B6
S315202119D0004039400080394000C0394000003A405B
S315202119E0010204081020408010B5DFF8E442DFF818
S315202119F0E40221688A0120D5636813F4405306D076
S31520211A00B3F5805F06D0B3F5005F0ED010E0DFF886
S31520211A10C8020AE0DFF8C4120A68D0065ABFDFF8E6
S31520211A20C0120868DFF8BC0203E000F097F800E056
S31520211A3000202168C1F3C2618BE0626812F4402242
S31520211A4009D0B2F5802F07D0B2F5002F06D0B2F5F6
S31520211A50402F05D007E073E0032074E0032075E0D2
S31520211A60DFF8840210BD002010BD0000132810B518
S31520211A70DFF85C4262D8DFE800F00A0A1024303C05
S31520211A803F424446484A4D4F515355585B5EFFF7D6
S31520211A90ABFF2168C1F382211EE0206841060AD5C9
S31520211AA02268100603D5012000F0F4F805E0022073
S31520211AB000F0D2F801E0FFF797FF2168C1F3024138
S31520211AC00AE0FFF791FF2168C1F38221491CB0FB6F
S31520211AD0F1F02168C1F301213BE0DFF80002026821
S31520211AE0D10602D5DFF8FC0110BDDFF8F40100682C
S31520211AF010BD4FF4004010BDDFF8DC011DE00020B1
S31520211B0004E0012002E0022000E003201BE0DFF8B0
S31520211B10C40112E0002004E0012002E0022000E0BE
S31520211B20032013E0DFF8C40107E0DFF8C40104E055
S31520211B30DFF8C00101E0DFF8C00101E0002010BD7F
S31520211B40BDE810400AE0BDE81040A3E0BDE8104002
S31520211B5082E0491CB0FBF1F010BD000070B56A4A45
S31520211B60C0F30B41515800F01F03D940C90701D4B6
S31520211B70002070BD0101090D5358C3F3813139B9B4
S31520211B80564C2168CB065ABF55490C68554C00E066
S31520211B900024C0F30B415158C9035AD44E4E574DF8
S31520211BA0801B5A4920D04FF40016801B0AD04FF4AF
S31520211BB08006801B1FD04FF4E006801B3ED00838BC
S31520211BC044D045E0286C2A6D2D6A0023A0FB040110
S31520211BD002F086F9EE0703D516235C43224601E05F
S31520211BE014226243841834E0286881074CBF1620CA
S31520211BF0142044432DE02E6E286F0A680023A0FB73
S31520211C00040106F07F0602F06BF92A6E06FB040416
S31520211C1012F4C01204D0B2F5002F08BF640800E0E8
S31520211C20A408384936480A680240B2F5004F03D045
S31520211C3082420ED1A4080CE064080AE0086D00BF98
S31520211C4039A100F0030051F8204002E0304C00E099
S31520211C500024204670BD000010B504461D48FFF71C
S31520211C607DFF032C2B4913D8DFE804F002060A0E48
S31520211C70096801F03F010AE00A68C2F3052106E05E
S31520211C800968C1F3054102E00A68C2F3056145E00E
S31520211C90002010BD10B504460F48FFF75FFF032C27
S31520211CA01D4913D8DFE804F002060A0E096801F05F
S31520211CB03F010AE00A68C2F3052106E00968C1F35B
S31520211CC0054102E00A68C2F3056127E0002010BD24
S31520211CD014C00F400D0030000D00100070820D4001
S31520211CE0202B002000366E010065CD1D0D00E00061
S31520211CF01500E0001600E0000D00700010800D4058
S31520211D000080800070810D4000800D4090800D4024
S31520211D1040787D0100810D40F0800D40B0FBF1F02F
S31520211D201221484310BD000040787D0180F0FA023F
S31520211D3000E1F5054059730710B5204A1168C1F312
S31520211D408111012902BF1168C1F34001002933D134
S31520211D5000F128011068C0F30110087013685B0A8E
S31520211D6003F001034B70106840F6C413C00800F03D
S31520211D700100087312480269920902F001024A738E
S31520211D80046841F28832A40F012C06D002D3032CF9
S31520211D9008D005D344F6206405E042F2107402E00F
S31520211DA0144600E01C464C600068C0F3407000B128
S31520211DB01A468A60002010BD012010BD04800F40E4
S31520211DC060441F4010B5039C01F00701240104F053
S31520211DD010042143016002B1136010BD009808B19F
S31520211DE0019901607047826A490001F0060122F0BB
S31520211DF006021143816270470B46026C416A0068D4
S31520211E0002F0BCB90A46416A006802F0E6B9416A85
S31520211E10006802F016BA0A46416A006802F021BA21
S31520211E20416A00684023132202F09ABA2DE9F84329
S31520211E3006460F46154640F2297841F66A1930683A
S31520211E40726A39469047044641F669118C4218BF79
S31520211E504C4505D07868DFF8281BC2680A4213D082
S31520211E6096F8BC00032818BF02280DD14C4505D170
S31520211E70306864224FF0B05102F033FD3046FFF72F
S31520211E80CFFF20B1444602E00CB140F2097425B1BE
S31520211E906D1E002C18BF4445D1D12046BDE8F283C2
S31520211EA02DE9F04314A58BB0044602A8D5E9008973
S31520211EB0CDE9008924210D27F9F7A4FF0297266C65
S31520211EC00121DFF8BC2A8DF81110360409920396D8
S31520211ED002A900230191022200F09BFC40B905981A
S31520211EE0C105F5D5C0F343200728F1D0002007E30B
S31520211EF040F20970FBE7000000000000000000000E
S31520211F00F0B5044611A58BB02421D5E90060CDE991
S31520211F10006002A80C27F9F775FF02970026039681
S31520211F2003210222DFF8583A02AD8DF810108DF8E0
S31520211F301120012209936946019520460096FFF733
S31520211F4075FF08B140F209700BB0F0BD000000000A
S31520211F50000000002DE9D84309A68BB000F0D8FA5D
S31520211F600327F9F74FFF0026082200F01BFB20B993
S31520211F700598000C2064002001E040F20970D4E18C
S31520211F8000000000000000002DE9FC4D074600BF9F
S31520211F901FA090B00D461A9E9046D0E900AB1C4654
S31520211FA007A8CDE900AB2421ED07F9F72BFF00F097
S31520211FB035FC06200F2107904FEA880065F07F45E2
S31520211FC081408D43844025430122089540238DF865
S31520211FD0252038460393049205960399FFF71BFF84
S31520211FE010B140F20A7011E002AA07A900920191CC
S31520211FF038687B6A69469847002802BF0A98DFF825
S315202120009C19084214BF40F20970002000F0FEBB43
S31520212010000000000000000030B50B6800F1A80286
S315202120201B0F13700C68240E04F00F0454700B68D8
S315202120301C0203D5558845F0010555801B0D03F05B
S31520212040070313710B681B0C03F00F0353710B68E5
S315202120501C0403D5558845F0020555809B0A03F0BB
S315202120601E0393710B7803F00303D37149685378C8
S3152021207091602BB1022B06D03CBF0221416409E09D
S315202120800124446406E00423436491788C0744BFE9
S315202120900823436451794B0703D5846C44F0040407
S315202120A08464D179CA0703D5836C43F08003836482
S315202120B0890703D5826C42F04002826430BD00003C
S315202120C02DE970432AA690B0044607A8D6E90089AF
S315202120D0CDE900892421DFF8C858F9F793FE00F0CD
S315202120E09DFB00F0E7F800F047F810B140F215709B
S315202120F032E0012200238DF825203321089302ABDB
S31520212100049207AA0791082105950093019203912C
S315202121102068626A69469047002803BF0A98DFF83B
S315202121207C18084240F2097016D1217B286841B1DA
S31520212130022901D013D317E000BA2860686800BAB3
S31520212140686004F16C01D5E90002C1E90002294643
S315202121502046FFF761FF002010B0BDE8708340BA0A
S315202121602860686840BAEBE74FF4E160F4E70000A5
S315202121700000000000000000216C204642E62DE9E7
S31520212180FF411746002301AA00259C46044682E8E2
S3152021219028100E46DFF8085800F08CF8616C0029CB
S315202121A07DD0B4F89000410579D500953B4632463D
S315202121B000212046FFF7E8FE00284DD1207BF0B1F3
S315202121C0022801D00FD36AE029686A6808BAE9682B
S315202121D0286010BA6860A86800BAA86008BAE860C2
S315202121E0286900BA0AE0296848BAA9682860686877
S315202121F040BA686048BAA86000F056F82861286875
S3152021220001A9ADF80E006868ADF80A00020CA8688D
S3152021221048800A81020CE8688A800122BA40030C90
S31520212220ADF8043031F81610114238D0000200F4EE
S315202122307F4029694FEA860840EA116020FA08F092
S3152021224000F00F00B8422AD100953B4632460121A3
S315202122502046FFF799FE10B140F2097021E0207B3C
S3152021226048B1022801D017D319E0E96808BAE860F5
S31520212270286900BA2861E9682869090201F47F41A1
S3152021228041EA106121FA08F101F00F01B94214BF88
S3152021229040F21670002004E000F006F8EAE74FF439
S315202122A0E16004B0BDE8F081E868296940BAE860B8
S315202122B048BA70474FF480712846F9F7A3BD00002C
S315202122C02DE9D8431AA78BB004460E46D7E90089B3
S315202122D0CDE9008902A800F0B9FDFFF74DFF10B125
S315202122E040F2157021E00621012202918DF811205C
S315202122F016B1012E15D017E00021039102AA002143
S31520212300019200912068626A69469047002802BF9F
S315202123100598DFF86C16084214BF40F20970002098
S3152021232003E002200390E9E704200CB0BDE8D08326
S31520212330000000000000000070B5CB6800F18C027F
S315202123409B0F1370CC68240C5470CB681B0A937096
S31520212350CC68D4708B681D0D1B0C03F00F03958060
S3152021236093718B681C0400F09DF85C0400F09AF8A8
S315202123709C0403D5158945F004051581DC0403D574
S31520212380158945F00805158116784FF4007416B184
S31520212390012E35D049E040F6FC70012500EA830064
S315202123A0D0604B6840EA9370D0604868C00E00F038
S315202123B0070010744B681B0E03F0070353744868FB
S315202123C0000D00F00E0090744B689B0C03F0070360
S315202123D0D3744868D368C00B00F007001075801CA1
S315202123E05B1C03FA00F09379906205FA03F3B3F5A7
S315202123F0007FD36219D05843D462400A906214E0F8
S31520212400D4628B684FF6FF751B0403F47C13D360CB
S315202124104C6843EA1443D360AB4203D3846C44F023
S31520212420100484645B1C9B0293624868430403D591
S31520212430148944F010041481C00900F07F005075DE
S31520212440087900F07F0090750B689B0E03F0070337
S31520212450D3750868800D00F00F0010760868810278
S3152021246003D5138943F040031381010403D513892E
S3152021247043F080031381410403D5138943F48073E8
S315202124801381810403D5138943F400731381C10475
S3152021249003D5138943F480631381800A00F0030056
S315202124A0507670BD03D5158945F0010515817047F4
S315202124B02DE9F04314A68BB000F02AF80927F9F765
S315202124C0A1FC0297256C032202AB8DF81120002254
S315202124D02D0401930395694600922068636A9847E3
S315202124E060B905A804F15C0190E86C0081E86C00D4
S315202124F005A92046FFF720FF002001E040F20970C0
S315202125000BB0BDE8F08300000000000000000000B1
S31520212510044602A8D6E90089CDE9008924217047FD
S315202125202DE9F0431DA68BB0FFF7F2FF0227F9F71D
S3152021253069FC0026032200F035F858BB05A804F1D2
S315202125404C0190E86C0081E86C00089A04F178002F
S31520212550120E02700899090A4180089A0271079978
S31520212560090E4171079A120C82710799090AC171C4
S31520212570079A02720699090E417206990902C160CB
S31520212580059A41EA1261C16005990903090D018263
S31520212590002001E040F20970B2E7000000000000AF
S315202125A00000000002AB0297039669468DF81120A0
S315202125B0019300962068636A184700002DE9F14FA0
S315202125C082B000F128073978DFF8D047491E032940
S315202125D000F29D80DFE801F00A080402042208E0C7
S315202125E00322DFF8BC4704E0022202E00122DFF8C1
S315202125F0A8470021FFF7C3FD002838D10298397852
S315202126002246DFF8A047DFF8A087DFF8A06780F809
S31520212610BC10029B5968DFF898B7DFF89857DFF886
S3152021262098971868DFF894A702F07BF978610298C9
S31520212630DFF88C1790F8BC20DFF88807022A19D1F9
S315202126407B784BB1012B37D1DFF87C7700F07BF8F3
S3152021265000F080F800F06FF8DFF86C0700F05AF8E8
S31520212660DFF8680700F05EF8DFF85C071AE040F231
S315202126701B704DE0032A27D17B784BB1012B1BD12F
S31520212680DFF84C7700F05FF800F064F800F053F89B
S31520212690DFF83C0700F03EF8DFF8380700F042F873
S315202126A0DFF82C07DFF830170190009100F0C2FBEC
S315202126B0DFF82807FFF792FB0298FFF7B1FB0028E6
S315202126C025D040F2297023E0042A20D17B784BB1F2
S315202126D0012B1CD1DFF8087700F035F800F03AF805
S315202126E000F029F8DFF8F80600F014F8DFF8F406F0
S315202126F000F018F8DFF8E806DFF8DC160190002351
S31520212700009100220021DFF8D406FFF767FB002085
S31520212710BDE8FE8F0096019000230022002140462D
S31520212720FFF75CBB00940190002300220021DFF8F3
S31520212730B806FFF753BB01970023009500220021FD
S315202127405846FFF74BBB0023019700220091002119
S31520212750FFF744BB01970023CDF800A000220021DA
S315202127604846FFF73BBB0A46022108E50A460321D4
S3152021277005E52DE9FC4D04460FF2D07090B000F00E
S315202127805DFB00F04BF894F84870B80702D5B8F5F0
S31520212790007F09D1D4F8B810414524BFE0694045CE
S315202127A002D318F0030F02D040F20C702EE02046FF
S315202127B0FFF776FB10B14FF4E36027E01A9ACDF8A4
S315202127C00C8004921222049B05950792012B04BFAB
S315202127D01121079100F07BF80122694B8DF82520E4
S315202127E007AA0E9302AB0192012200F012F868B9D2
S315202127F00499022909D39DF8080030B92046FFF70C
S315202128007FFB10B140F2177000E0002012B0BDE826
S31520212810F08D009369462046FFF708BB02A81421B4
S31520212820F9F7F0BA2DE9FC4D04460FF2287090B045
S3152021283000F004FBFFF7F2FF94F84870B80702D5A1
S31520212840B8F5007F09D1D4F8B810414524BFE069F5
S31520212850404502D318F0030F2DD040F20C7029E009
S315202128601A9ACDF80C8004921922049B0695079278
S31520212870012B04BF1821079100F029F8474B01228B
S315202128800E9307AD02AB8DF825200195694600935D
S315202128902046FFF7CBFA68B90499022909D39DF876
S315202128A0080030B92046FFF72BFB10B140F21770F4
S315202128B000E00020AAE72068406AC101FBD5204616
S315202128C0FFF7EEFA0028CBD04FF4E360F2E7089623
S315202128D094F84810880703D4039932464A4308922C
S315202128E070472DE9F84D0FF274640E468BB0804661
S315202128F0D4E900AB174602A8CDE900AB00F0A6FA31
S31520212900D8F80040606AC001FAD54046FFF7C8FAD8
S3152021291010B14FF4E3602FE098F84800BF197F1ECD
S315202129201E4D09958107694640465CBF76027F0286
S3152021293020220123029202AA8DF81130002301922E
S315202129400122039640F209760093FFF76FFA90B998
S31520212950212000F017F8039700F01AF858B9002221
S315202129600223039226208DF8113000F00BF80995C9
S3152021297000F00EF800B130460CB0BDE8F08D000015
S315202129800800F9FF02AA0290002301920022704733
S31520212990694600934046FFF749BA00000800F9FF2F
S315202129A07C2B00202DE9F84F8CB00646306802F0AA
S315202129B0F5F9304602F0D8F9002840F0B58106F124
S315202129C028046078002839D0012871D1DFF8F05306
S315202129D000210191002300950022DFF8E803DFF88A
S315202129E0D883FFF7EFF90020DFF8D073019000F0AC
S315202129F01BFAFFF7E7F90020DFF8B8A3DFF8B09339
S31520212A000190CDF800A000F015FA4846DFF8E4B38E
S31520212A10FFF7D8F9CDF804B0002300950022002134
S31520212A20DFF8A003FFF7DAF9CDF804B000F0FCF9BE
S31520212A30FFF7D4F9CDF804B0FFF78DFE0120DFF89A
S31520212A406C5301900023009500220021DFF85803C2
S31520212A50FFF7B8F90020DFF89083D24F0190009735
S31520212A6000F0E8F94046DFF87493FFF7ABF9002030
S31520212A70DFF864A301900023CDF800A000220021D5
S31520212A804846FFF79FF9DFF86CB30095CDF804B0DF
S31520212A9000F0D0F9C448FFF7A1F9DFF85C0300F074
S31520212AA0BDF94046FFF79AF9CDF804B0FFF753FE5A
S31520212AB0207802281CBF0328042802D14FF00109BF
S31520212AC001E04FF00009207B59EA000025D0CB4AAE
S31520212AD000210092002301910022C948C94DFFF708
S31520212AE071F90FF254406A46016828460091162151
S31520212AF0F8F71EFD627B16212846F8F753FD6068FC
S31520212B00F8F77DFA607B421E9241D20F1621284684
S31520212B10F8F748FDA068F8F772FAB9F1000F11D03D
S31520212B20012000216070B84DB84F019100970023F4
S31520212B3000222846FFF746F9AE4800F06FF92846CD
S31520212B40FFF74CF90020002120623068FFF74BF96E
S31520212B5071683068A54A01F0E4FE6061306864211D
S31520212B6001F034FF306806F1140101F0CDFE304624
S31520212B70FFF74DF9002840F0E180A54D012006F10F
S31520212B80BD01B9F1000F88700FF2B831D1E900AB40
S31520212B9018BFA04DCDE901AB03A800F057F90821B4
S31520212BA04FF4D57003910922049003AB8DF815209B
S31520212BB000224FF00A080293019240F20C7301A9D8
S31520212BC000933068726A904710B140F2097007E08D
S31520212BD00698C0F30800B0F5D57F00F0B2800098A2
S31520212BE0B8F10108009900F0A2808842E5D1009829
S31520212BF09AE005275FEA0800A8F1010800F0C580C0
S31520212C00F8F7EAF9594501D828BF504580F0BD800B
S31520212C1000213046FFF7F6F80028EBD1002203A940
S31520212C20019202913068736A01A99847002840F0E1
S31520212C30AF8006980028DCD5400003D5216A41F0D3
S31520212C40020121620698C10103D5226A42F020029F
S31520212C5022620698E06494F8201088060CD5716AC1
S31520212C60306801F02FFB10B140F225705CE0032083
S31520212C7006F1BD01887001E0EA01B8D43046FFF79C
S31520212C804FFC10B140F20D704EE03046FFF762F94D
S31520212C9010B140F20E7047E03046FFF709FC10B123
S31520212CA040F20F7040E001213046FFF7A5F810B120
S31520212CB04FF4E26038E03046FFF702FA10B140F2D5
S31520212CC0117031E071683068494A01F02AFE60614D
S31520212CD06078012802D0B9F1000F0FD094F8200096
S31520212CE0410784D501213046FFF7EAFA10B140F297
S31520212CF0127019E030680121FFF775F806F1BD043D
S31520212D0030462178FFF72FFD61783046FFF72EFDDB
S31520212D104FF400713046FFF77EF8002812BF40F2AB
S31520212D200A703046FFF74AFC0DB0BDE8F08F884285
S31520212D303FF45DAF3046FFF76AF840B140F2137099
S31520212D40F2E7226A45F0804542F0080222620FF21C
S31520212D50EC130127D3E90001CDE9010103A800F0F5
S31520212D6075F829220423039240F6B83804958DF864
S31520212D701530F8F731F982468B462748F8F736F988
S31520212D801AEB000A4BEB010B34E7002F3FF463AF1C
S31520212D9040F21470C8E7000080F0FA0200E1F50540
S31520212DA000D4650CBC821F4044811F40B8821F403D
S31520212DB040811F40B4821F403C811F40B0821F406A
S31520212DC0C4821F4050811F40B9700100B9400100C3
S31520212DD0F9700100F9400100C0821F404C811F403B
S31520212DE0997001009940010048811F40801A0600F0
S31520212DF040787D01897001004940010088821F4069
S31520212E0014811F4000801B4018811F408C821F4047
S31520212E100080FF000080FF0140420F000023019027
S31520212E2000220097002170470023009700220021CD
S31520212E304046704700230022002170470D46D0E9E5
S31520212E4000AB16469846CDE900AB07A82421F8F712
S31520212E50D9BFB0F8940010F4C06018BF0120C0B2C9
S31520212E6070472DE9F84300F03EF83919884238BFDA
S31520212E70042011D3002500E0751964B100F02AF849
S31520212E8032BFA41B264600240096EA19FFF771FCBF
S31520212E900028F1D000E00020BDE8F2832DE9F84397
S31520212EA000F021F800253919884202D204200FE0AA
S31520212EB0751964B100F00EF832BFA41B26460024F2
S31520212EC00096EA19FFF7AEFC0028F1D000E0002099
S31520212ED0BDE8F283D8F8206009EB45214FF4007331
S31520212EE04046A642704780468946D8F8B400174600
S31520212EF01C4670472DE9F04180460E46D8F8B4008D
S31520212F00144600273119884202D2042012E0EF19F3
S31520212F107CB198F8A15040466D1CA54232BF641B56
S31520212F20254600242A46B919FFF7DBFC0028EED0D6
S31520212F3000E00020BDE8F081010000000000000033
S31520212F40000000000000000000000000000000003A
S31520212F50000000000000000000000000000000002A
S31520212F60000000004FF0FF310022016042607047CF
S31520212F7030B54368D0F8004013A5D318436007E045
S31520212F8011F8013B83EA146355F8233083EA04249C
S31520212F9013465A1E002BF3D1046030BD70B542680A
S31520212FA0036812F0030F0BD002F00302C2F10402D0
S31520212FB005A41D0E521E54F8256086EA0323F8D156
S31520212FC003600B6070BD000000000000B71DC10426
S31520212FD06E3B8209D926430DDC7604136B6BC5170C
S31520212FE0B24D861A0550471EB8ED08260FF0C92284
S31520212FF0D6D68A2F61CB4B2B649B0C35D386CD31EC
S315202130000AA08E3CBDBD4F3870DB114CC7C6D048B7
S315202130101EE09345A9FD5241ACAD155F1BB0D45B93
S31520213020C2969756758B5652C836196A7F2BD86EFB
S31520213030A60D9B6311105A6714401D79A35DDC7D73
S315202130407A7B9F70CD665E74E0B6239857ABE29C5F
S315202130508E8DA191399060953CC0278B8BDDE68F93
S3152021306052FBA582E5E66486585B2BBEEF46EABA7B
S315202130703660A9B7817D68B3842D2FAD3330EEA973
S31520213080EA16ADA45D0B6CA0906D32D42770F3D0D7
S31520213090FE56B0DD494B71D94C1B36C7FB06F7C30B
S315202130A02220B4CE953D75CA28803AF29F9DFBF603
S315202130B046BBB8FBF1A679FFF4F63EE143EBFFE5EB
S315202130C09ACDBCE82DD07DEC77708634C06D473003
S315202130D0194B043DAE56C539AB0682271C1B43230B
S315202130E0C53D002E7220C12ACF9D8E1278804F1683
S315202130F0A1A60C1B16BBCD1F13EB8A01A4F64B05EB
S315202131007DD00808CACDC90C07AB9778B0B6567CB6
S3152021311069901571DE8DD475DBDD936B6CC0526F92
S31520213120B5E6116202FBD066BF469F5E085B5E5AFA
S31520213130D17D1D576660DC5363309B4DD42D5A4972
S315202131400D0B1944BA16D84097C6A5AC20DB64A826
S31520213150F9FD27A54EE0E6A14BB0A1BFFCAD60BB92
S31520213160258B23B69296E2B22F2BAD8A98366C8E7A
S3152021317041102F83F60DEE87F35DA9994440689D72
S315202131809D662B902A7BEA94E71DB4E0500075E4D6
S31520213190892636E93E3BF7ED3B6BB0F38C7671F70A
S315202131A0555032FAE24DF3FE5FF0BCC6E8ED7DC202
S315202131B031CB3ECF86D6FFCB8386B8D5349B79D1EA
S315202131C0EDBD3ADC5AA0FBD8EEE00C6959FDCD6D58
S315202131D080DB8E6037C64F643296087A858BC97E0E
S315202131E05CAD8A73EBB04B77560D044FE110C54B7E
S315202131F0383686468F2B47428A7B005C3D66C158EE
S31520213200E4408255535D43519E3B1D252926DC21D1
S31520213210F0009F2C471D5E28424D1936F550D83295
S315202132202C769B3F9B6B5A3B26D6150391CBD407F5
S3152021323048ED970AFFF0560EFAA011104DBDD01475
S31520213240949B93192386521D0E562FF1B94BEEF5D9
S31520213250606DADF8D7706CFCD2202BE2653DEAE695
S31520213260BC1BA9EB0B0668EFB6BB27D701A6E6D375
S31520213270D880A5DE6F9D64DA6ACD23C4DDD0E2C075
S3152021328004F6A1CDB3EB60C97E8D3EBDC990FFB9B1
S3152021329010B6BCB4A7AB7DB0A2FB3AAE15E6FBAA0D
S315202132A0CCC0B8A77BDD79A3C660369B717DF79FFD
S315202132B0A85BB4921F4675961A163288AD0BF38CED
S315202132C0742DB081C330718599908A5D2E8D4B598D
S315202132D0F7AB085440B6C95045E68E4EF2FB4F4A0D
S315202132E02BDD0C479CC0CD43217D827B9660437F7D
S315202132F04F460072F85BC176FD0B86684A16476CED
S3152021330093300461242DC565E94B9B115E565A15D0
S3152021331087701918306DD81C353D9F0282205E0694
S315202133205B061D0BEC1BDC0F51A69337E6BB5233F4
S315202133303F9D113E8880D03A8DD097243ACD562074
S31520213340E3EB152D54F6D4297926A9C5CE3B68C1A0
S31520213350171D2BCCA000EAC8A550ADD6124D6CD294
S31520213360CB6B2FDF7C76EEDBC1CBA1E376D660E774
S31520213370AFF023EA18EDE2EE1DBDA5F0AAA064F474
S31520213380738627F9C49BE6FD09FDB889BEE0798DB0
S3152021339067C63A80D0DBFB84D58BBC9A62967D9E0C
S315202133A0BBB03E930CADFF97B110B0AF060D71ABFC
S315202133B0DF2B32A66836F3A26D66B4BCDA7B75B8EC
S315202133C0035D36B5B440F7B10022FDF7A7BD000055
S315202133D000F01F02D24B000A914003EB800030B54A
S315202133E0032595400468AC432143016030BD014645
S315202133F00020CC4A914218BF01207047002810B5E1
S315202134003AD0002140F6C41201703F234170012495
S3152021341081704FF44861C2802222818040F25C4132
S3152021342003814FF4AD63C27240F29512C360E32348
S315202134300161DC214261622283617D23C1612521D3
S3152021344002624B2243620B2381622F21C26246F6FE
S315202134502012036345F67D734163C1634FF4C8414E
S3152021346042644FF4C862C4708472846304648364A2
S31520213470C1640265002010BD042010BD0023002A4E
S315202134802DE9F04724D056681568AE4220D2491E30
S315202134900829A5EB0608A44F07EA0847A34C40F2C2
S315202134A0FF794FF6FF7A2FD8DFE801F00513293F60
S315202134B0556B78859700D04598BF554524D8016A04
S315202134C0C5EA01020262056AADB245EA08440462F0
S315202134D099E047F6FF71884598BF8D4214D8416AF5
S315202134E0C5F30E05C90B45EAC13591494562426AA4
S315202134F001EA08446FF31E421443446283E043F6F3
S31520213500FF71884598BF8D427CD8816AC5F30D0508
S31520213510890B45EA813587498562826A01EA084411
S315202135206FF31D42144384626DE041F6FF71884595
S3152021353098BF8D4266D8C16AC5F30C05490B45EA69
S3152021354041357D49C562C26A01EA08446FF31C42AE
S315202135501443C46257E040F6FF71884598BF8D42D7
S3152021356050D8016BC5F30B05090B45EA0135734983
S315202135700563026B01EA08446FF31B42144304637B
S3152021358041E0C84598BF4D453CD8426B00F03EF8F6
S315202135904563416B21400F43476334E0C84598BFBB
S315202135A04D452FD8826B00F031F88563816B214000
S315202135B00F43876327E0D0459CBF6FF07F4295421A
S315202135C020D8C16825F07F4501F07F410D43C56094
S315202135D08268C8EA0201816015E059498E4298BF66
S315202135E08D420FD8C169C5F31505890D45EA815547
S315202135F0C56184695168A40DC1F3150141EA84543A
S31520213600846100E004231846BDE8F087C5F30A0546
S31520213610D20A45EAC225704738B504460D46A87A0E
S3152021362001007BD0102879D26168000400F4702033
S3152021363005F10C0221F4702108436060012100F07C
S3152021364085F8002869D105F11402022100F07EF8BF
S31520213650002862D105F11C02032100F077F8002809
S315202136605BD105F12402042100F070F8002854D101
S3152021367005F12C02052100F069F800284DD105F12C
S315202136803402062100F062F8002846D105F13C02D9
S31520213690072100F05BF800283FD105F144020821DB
S315202136A000F054F8002838D105F14C02092100F008
S315202136B04DF890BB21686A78D20102F0800221F46C
S315202136C08451114321602368AA781E49920002F071
S315202136D00C020B40134323602368EA781A490B40D6
S315202136E002F00302134323602369A988C3EA014216
S315202136F022612369E9881B0C41EA0343236162691C
S315202137002989920AC1F3090141EA8222626162680A
S31520213710E97A120A41EA0222626032BD042032BDD0
S3152021372068C00F4000C00C400000FF07FFFF00F8D3
S315202137300000FF7F0000FF3F0000FF1F0000FF0F5A
S31520213740FFFF3F00F3EFFFFFFCEFFFFF204695E64B
S31520213750024601F00F010F2902F1400050F8210005
S3152021376008BF116C7047000038B504000D4618BFFC
S31520213770002D2DD0FFF73BFE38A2032132F9100070
S31520213780FFF726FE206820F4883040F48030206020
S315202137902168204621F4825141F0400121602946A9
S315202137A0FFF73AFFA8B9206820F4883020602168E5
S315202137B021F4815141F0200121602A78012A05D165
S315202137C0D4F8A00040F00200C4F8A000002032BDA9
S315202137D0042032BD2DE9FC41054600260027002D77
S315202137E01446884618BF002932D08CB32868C0F3E6
S315202137F0802020B92868C0F300300028F6D0286818
S31520213800C0F3003060B9394628467F1CFFF7A0FF58
S3152021381004210090042C684698BF214600220AE004
S315202138202868012640F48050286008E010F8013BE2
S31520213830521C08F8013B8A42F8D3641AD6D107F0E4
S315202138400F070F2F05D00F212846FFF781FF00E014
S3152021385004263046BDE8F681000000000C06000053
S31520213860DFF850060168002944BF4FF040438360AA
S31520213870082141604162704710B508B9012010BD69
S31520213880DFF834160A6812F4406F03D10B6843F42B
S3152021389040630B6000F001FBFFF7E2FF002010BD23
S315202138A07FB5040018BF002901D0802A01D0012527
S315202138B04DE0DFF8086600258B1B022B2160DFF8FF
S315202138C000061CD941F234269B1B3AD042F2DE1641
S315202138D09B1B36D045F299569B1B2CD042F2DE16E5
S315202138E09B1B28D042F266269B1B1FD042F2ED1647
S315202138F09B1B1BD04FF470669B1B28D003E001F045
S315202139000301216023E010226846F9F7A3FFDFF89F
S31520213910B40530230360DFF8B065266000215DF809
S315202139202130491C03290361F9D910E000F012F84E
S3152021393022F0100203E000F00DF842F0100202609E
S3152021394003E0C16941F01001C16100F0ADFA2846BA
S3152021395004B070BDC16921F01001C16102687047B0
S3152021396038B5006815460C46DFF85025811A0229FC
S3152021397022D9C91E1CD041F23122891A23D042F2E2
S31520213980DE12891A22D045F29952891A1BD042F287
S31520213990DE12891A1AD042F26622891A13D042F2ED
S315202139A0ED12891A12D04FF47062891A18D01FE0AD
S315202139B0A06840F4407004E0A168000200F4407041
S315202139C00843A06014E06068A16803E06068A168EC
S315202139D040F4402040F48060606041F47F4106E05D
S315202139E06068A16840F48060606041F47E41A160F6
S315202139F02BB1102219462846F9F72CFF00E0002585
S31520213A000023A561E36131BDF0B503464FF0704235
S31520213A100021BFF34F8FDFF8B464DFF8B444306858
S31520213A2043F6E075C7031AD53167BFF34F8FF76E7B
S31520213A30C7F34E3CC7F3C90E05EA4C1040EA8E70F7
S31520213A40E0605FEA0E00AEF1010EF5D15FEA0C00CF
S31520213A50ACF1010CEED1BFF34F8FBFF36F8FBFF3C4
S31520213A606F8FDFF8707401203B60DFF86C3438618A
S31520213A701868000703D41046421E0028F8D1386A58
S31520213A80000602D0FF21B96204210820986012B9CC
S31520213A90042918BF0321BFF34F8F3068C20319D5DC
S31520213AA000233367BFF34F8FF26EC2F34E33C2F337
S31520213AB0C90605EA431040EA867020603046461E34
S31520213AC00028F6D11846431E0028F0D1BFF34F8F88
S31520213AD0BFF36F8FBFF36F8F0846F0BDF8B590B057
S31520213AE00C4658B1012C09DC002A18BF002B05D021
S31520213AF0169919B1179F17F00F0F01D0012015E044
S31520213B002402002504F4807440F2232600953443B0
S31520213B1001941024029403931346049108AA05972D
S31520213B206946FFF71DFF6846FFF76EFF11B0F0BD0E
S31520213B30F8B590B048B1012907DC002A18BF002B1F
S31520213B4003D0169E16F00F0F01D0012014E0090292
S31520213B5001F4807140F22325039229430027019104
S31520213B6008AA049300230097694602970596FFF732
S31520213B70F7FE6846FFF748FF12B0E0BD2DE9F04376
S31520213B8005000E4685B09146984618BF002E05D0D1
S31520213B90B9F1000F18BFB8F1000F01D1012020E0A3
S31520213BA00C9C0DE019F8011B135C401C594008F8A8
S31520213BB0011BB842F6D310213046E41B00F054F8FD
S31520213BC074B11027102C01AB324698BF27461020FE
S31520213BD0012100902846FFF7ABFF002001AAE8E744
S31520213BE0002005B0BDE8F083F8B505460E461446FB
S31520213BF00027FFF7E9FB04E0721ED21BAC54240AEE
S31520213C007F1C002CF8D1F1BDF8B50446069815463F
S31520213C10C5F10F06079F002814BF402200229B1EB4
S31520213C205B0842EAC302701E0243601C22702A46A8
S31520213C30F9F710FE631C3A46F1B25819BDE8F8404F
S31520213C40D2E770B50D46044616461021FFF7BCFB78
S31520213C502278C6F10E0029460243601C2270324684
S31520213C60BDE87040F9F7F6BD491E05D0425C521CCD
S31520213C704254D2B2002AF7D070472DE9F04F894617
S31520213C8004460121002C8FB00CD0180006931CBFAE
S31520213C901B9E002E06D0DDF87080B8F1000F1CBFC8
S31520213CA01D98002800F0D2801E9B1B1F0D2B06D2AB
S31520213CB01E98C30700F1CA80189DED1F072D80F09D
S31520213CC0C58006999246189A1A9D0346CDF804A0D6
S31520213CD0009502A8FFF798FF102207AB009202AAAF
S31520213CE001212046FFF724FF002D58D0002102A8CC
S31520213CF000220023B5F57F4F8C4680E80E10DDF893
S31520213D0064B00CD22A460221FFF76EFF0E270E2D14
S31520213D1059460DF10A0098BF2F463A4610E0FF2159
S31520213D20FE228DF8081004218DF809202A460DF14E
S31520213D300A000A27FFF758FF0A2259460DF10E00DD
S31520213D40F9F788FDBB44102007A9EF1B019007AB8B
S31520213D50009102AA0121204625463C461AE0102739
S31520213D60102C594602A898BF27463A46F9F772FDE4
S31520213D70102F05D202A8C7F11001C019FFF724FB85
S31520213D80102107AA019107AB009202AA01212846F8
S31520213D90BB44E41BFFF7A2FE002CE0D12C46189A47
S31520213DA006990BA8C3462546D2B2FFF74AFF102112
S31520213DB00BA8FFF759FF30464E465FEA0A04804694
S31520213DC02FE01027102C02A898BF2746012E00EBA2
S31520213DD00709C7F1100A0BD13A464146F9F73AFDB0
S31520213DE0102F03D251464846FFF7EEFA00F032F85B
S31520213DF000975B4642460BA92846FFF7BFFE3000B7
S31520213E000CD13A46594602A8F9F724FD102F03D2A0
S31520213E1051464846FFF7D8FA00F01CF8B844BB446F
S31520213E20E41BCED1189A06990BA8D2B2FFF709FF27
S31520213E30102002AB009007AA0BA92846FFF79EFE69
S31520213E401E9A1D9802A9F9F705FD002108460FB0F3
S31520213E50BDE8F08F102007A9019007AB009102AA97
S31520213E60012128463AE6F0B587B0009313460C9CEB
S31520213E700D9D0E9E0F9FDDF840C00A46DDF844E0D9
S31520213E80CDF814C0CDF818E00121049703960295A8
S31520213E900194FFF7F2FE07B0F0BD00210022002396
S31520213EA0002480E81E0070474FF000400B4908602F
S31520213EB0D6E4000000C02F4068C00F400000DCFE81
S31520213EC00CC00A4060C02F400300DCFE14ED00E048
S31520213ED060EF00E0C0C12F4010C02F4004C02F400A
S31520213EE0BBBBE1B1B2F5803F80F07E80022A1ED98C
S31520213EF08C46B1FBF2F102FB11C31B0443EA1043AA
S31520213F00B3FBF2FC02FB1C3380B240EA0343B3FB32
S31520213F10F2F002FB103240EA0C4000237047022ABD
S31520213F2005D98446B0FBF2F002FB10C270474AB194
S31520213F3005D100F0010249085FEA300070470022CE
S31520213F400023704700F03ABF0B0002000021002019
S31520213F507047904271EB030CF6D3B3F5803F2FD2F5
S31520213F60F0B5B3FA83F7B1FA81F4A7F10F0E3D1B11
S31520213F705340CEF1200602FA0EF2F3415340B5F119
S31520213F800F0746D80F3C2C444140C4F12006A040BF
S31520213F90F1414140B1FBF3F603FB1611A2FB064585
S31520213FA0001BA94102D2761E8018594180EA0102BE
S31520213FB021FA0EF362FA0EF200215A403046F0BD64
S31520213FC030B4B1FBF3FC03FB1C11A2FB0C45001BF7
S31520213FD0A94103D2ACF1010C8018594130BC0246CB
S31520213FE00B46604600217047B2F1807F65D3F0B53C
S31520213FF0B2FA82F7B1FA81F4C7F10F063D1B22FAF4
S3152021400006F307F1110EF24120355A40B5F10F077B
S31520214010B8D94140C4F12006A040F1414140B1FB2D
S31520214020F3FC03FB1C11A2FB0C45001BA94103D267
S31520214030BCF1010C801859410F2F12D30F3FC90310
S3152021404041EA5041B1FBF3F603FB1611A2FB0645CB
S31520214050D4EBC030A94102D2761E8018594146EAB6
S31520214060CC3C07B34140C7F12006B840F14141403D
S31520214070B1FBF3F603FB1611A2FB0645001BA94152
S3152021408002D2761E8018594180EA010221FA0EF3C6
S31520214090C7F1200462FA0EF20CFA07F05A402CFAE4
S315202140A004F13043F0BD80EA010221FA0EF300210A
S315202140B062FA0EF260465A40F0BD8C46B1FBF2F10F
S315202140C002FB11C31B0243EA1063B3FBF2FC02FB82
S315202140D01C331B024CEA002043EA1063B3FBF2FC9B
S315202140E002FB1C331B024CEA002043EA1063B3FB7C
S315202140F0F2FC02FB1C331B024CEA002043EA10632C
S31520214100B3FBF2FC02FB1C324CEA00200023704751
S315202141100020704721B1D0F8C01041F480710FE002
S31520214120D0F8C02022F480720DE021B1D0F8C01041
S3152021413041F0020104E0D0F8C02022F0020202E080
S31520214140C0F8C0107047C0F8C020704782B0002246
S31520214150019209E000BF009B5B1C009300999142CC
S31520214160F8D3019B5B1C01930199814204D2002241
S31520214170009242F21072F1E702B070472DE9F84E13
S315202141800FF2A02689468BB00746D6E900AB144606
S315202141901D46CDE900AB00F0DEF8072002902DB1B7
S315202141A02404012003948DF8110003E000220392B8
S315202141B08DF8112002A900220191694600923846E4
S315202141C0C847002802BF0598334908420CB014BFBE
S315202141D040F209700020BDE8F08E2DE9F84D0FF24E
S315202141E04C2588468BB00646D5E900AB00F023F84E
S315202141F03727F7F707FE012202978DF8112024048D
S3152021420002AB002203946946019330460092C047AF
S31520214210002803BF05982049084240F2097004D19D
S31520214220800654BF40F20C7000200CB0BDE8F08D02
S315202142300546D6E900AB144602A8CDE900AB2421D8
S3152021424070472DE9F0430FF2EC160D468BB000F0A6
S315202142507DF8002702AE02976946019620460097EF
S3152021426028E02DE9F84D0FF2D41688468BB0FFF7BA
S31520214270DFFF1027F7F7C6FD00F010F8002802BF50
S315202142800598054908420CB014BF40F20970002058
S31520214290BDE8F08D000000000800F9FF029702AA70
S315202142A00394012400238DF811400192694600933D
S315202142B028464047A84708B140F209700BB0BDE80F
S315202142C0F08300002DE9F8475EA78A468BB0044685
S315202142D0D7E9008900F03DF800F02BF810B140F223
S315202142E009701AE000F01CF814D101212046FFF7AD
S315202142F01CFF41F28830F6F782FE00F017F84FF4C2
S315202143007A70F6F77CFE002100F011F8606A10F031
S31520214310706F01D1284600E000200CB0BDE8F0875F
S31520214320606A40F22A7510F0706F7047012120468D
S31520214330F0E60B2600270296012202AB03978DF881
S315202143401120694601932046009750470446D6E915
S315202143500089CDE9008902A82421F7F753BD000061
S315202143602DE9F04D064600BF38A0B0B08846D0E9E9
S3152021437000AB14461D46CDE900AB07A82421F7F74B
S3152021438041FD02A81421F7F73DFD10A88021F7F75A
S3152021439039FD079410A80022039508920123059040
S315202143A007AC02AD8DF82530049302228DF80B300F
S315202143B00A21019430460095012700F042FC0AE0AB
S315202143C0012302220A21304600F03BFC0A213046F5
S315202143D0002700F028FC69463046C047A0B90120B5
S315202143E0FFF7B4FEF06B4102F5D4B26E12F0802FA6
S315202143F018BF002FE4D16420FFF7A8FEF06B01023D
S3152021440005D440F2297009E040F2097006E0306CAB
S3152021441020F470603064316C3164002030B0BDE806
S31520214420F08D0000000000000000000000000000C8
S315202144300000000000000000000000000000000035
S315202144400000000000000000000000000000000025
S315202144500000000000F01F02DFF84438000A9140D6
S3152021446003EB800030B5032595400468AC432143F6
S31520214470016030BD0146002010B50FF66C02C3B293
S3152021448052F823308B4203D0401CC4B2032CF6D3DE
S31520214490C0B210BD70B50D460446616BDFF8040825
S315202144A001406163A26B1040A0632046FFF7E2FF23
S315202144B00FF640016FF07F0331F9100098420FD09B
S315202144C001000DD4012600F01F0006FA00F0DFF8C6
S315202144D0D827490942F82100BFF34F8FBFF36F8FA9
S315202144E0616BDFF8C8070143616315B1A26B1043E5
S315202144F0A06370BD30B52AB19368B3F5803F01D34F
S31520214500042030BD4B7A5B1E082B17D8DFE803F039
S3152021451005090D121205090505000C6A44F4D0146B
S3152021452006E00B6A43F4D81307E00C6A44F41024FE
S315202145300C6203E00B6A43F400330B620C7A032CE2
S3152021454003D10B6A43F440030B62002A40D00C6A44
S3152021455044F400140C62D36813B144F010040C62A5
S315202145609368022B0ED30C6A44F022040C62137832
S3152021457013B144F004040C6253781BB10C6A44F045
S3152021458080040C624368546803F460439568C4F33D
S315202145900C04234343EA0543436091F820100B067C
S315202145A00CD5846C44F080048464D0F8C81041F47E
S315202145B08051C0F8C8109268026009E0816C21F010
S315202145C080018164D0F8C82022F48052C0F8C82006
S315202145D0002030BD10B54A7AD2B103694A7ACB6020
S315202145E0032A15D143690B6182694A61C0698861B1
S315202145F0042201EB820083681B02022A836003D3F3
S31520214600446843EA146383601046421E0028F0D191
S31520214610C86970B14A7A012A18BF022A03D0082A0A
S3152021462018BF062A05D1C968084202D041F666106C
S3152021463010BD002010BD70B5446C4B6813F0030FDC
S3152021464004F0FF0400F060F805E0056ACE685B1CE3
S3152021465046F82250521CA342F7D3104670BD2DE9AD
S31520214660F0410D46044669680022904611F0030068
S3152021467002D0091D091A6960AF6868684FF0B876BB
S31520214680474314E04FF0806141F66A18216322E006
S315202146904801F7D411F0B87F02D0A878C0B126639B
S315202146A029462046FFF7C7FF024620202063B2EB8A
S315202146B0970F10D2216BDFF8F8351942FAD0216BEA
S315202146C0E8780028E4D08B06E2D544F2200003E0E6
S315202146D04FF001082663022020634046BDE8F08181
S315202146E030B5436CC3F307444B6813F0030F00F036
S315202146F00BF805E00D695B1C55F82250521C05620A
S31520214700A342F7D3104630BD04D01D1D03F0030369
S31520214710EB1A4B608D684B685D43AD08AC4202D2E3
S31520214720AD1AAC4200D92C46002370472DE9F04121
S3152021473004460E4670680022002510F0030F04D08F
S31520214740011D00F00300081A7060B76870684FF0E9
S31520214750B87847430DE010F0B87F03D0B078C8B1C0
S31520214760C4F8308031462046FFF7BAFF0246102092
S315202147702063B2EB970F10D2216BDFF8383519421F
S31520214780FAD0206B4101E6D54FF08060206341F6B7
S315202147906A1010E00125C4F83080206BDFF8181547
S315202147A00842FAD0226B12F0B87F02D0B07800B935
S315202147B0012521632846BDE8F08130B5836CC26886
S315202147C00D680C6A23F036032D0605F07C5504F47A
S315202147D07B0204F0360423431543836449688160B0
S315202147E0C56030BD10B504460020A2B9206BDFF884
S315202147F0CC241042FAD0206B420148BF41F66A10E0
S3152021480006D410F4702F12BF01202046FFF7E2FEB6
S31520214810DFF8AC14216310BD38B50023BAB1026B81
S31520214820DFF8A0442242FAD0026B540148BF41F658
S315202148306A1308D4DFF890542A4204D0897809B122
S31520214840D20200D50123DFF88414016307E0CA6868
S3152021485012B1FFF704FF01E0FFF768FF0346184670
S3152021486032BDF8B504460D46FFF704FE0FF28C4201
S31520214870032132F91000FFF7EDFD64224FF08071FC
S31520214880204600F02EF8A16A626CE36A2E796879B7
S31520214890EF7921F44C7102F0E02223F470233601C2
S315202148A006F0300631430243287AAE792D6842EA52
S315202148B006423F0207F4F8572D0405F47025000619
S315202148C03A4300F0F8502B430243E3626264A1622B
S315202148D0A06C002140084000A0642046BDE8F44099
S315202148E0D8E510B5C46A01F0E0631C43C46201E037
S315202148F03AB1521EC36A0B42FAD1100002D00120CE
S3152021490000E00020C0B210BD006C4FF40072000CF4
S3152021491000F0070002FA00F088604FF6FF70C860A9
S31520214920704703461046F0B59D6C002600220024D0
S315202149304FF480772D07B1FBF0F544BF01244FF4C6
S31520214940007795B3B1FBF5FC604538BF6D1C102D62
S3152021495017D92A0900E0521CB7FBF2F002FB10708E
S315202149600028F8D1012AF6D0B5FBF2F600E0761C14
S3152021497002FB06F0A842FAD3B1FBF6F0B0FBF2F126
S315202149800BE01020B0FBF5F06843B1FBF5F1D0F137
S31520214990100008BF2A4602D02E4606B1761E22B125
S315202149A0002C14BF02200120C240D86A360106F00D
S315202149B0F006120202F47F426FF30F1006431643CC
S315202149C0DE62586A0207FCD50846F0BDC26A42F06B
S315202149D00062C26201E039B1491EC26A1301FAD4CA
S315202149E0080002D0012000E00020C0B270472DE946
S315202149F0F0470C4615466A68A9684A43E96801B911
S31520214A00296925462C78012C3DD10E0542D112F05B
S31520214A100306DFF8BC824FF6FC7984461CBF171D9E
S31520214A20BA1B1CB1022C61D037D37FE0180654BFA4
S31520214A30CCF80010CCF85810297803291AD0DCF8A4
S31520214A402820DFF890020240CCF82820DCF8281014
S31520214A502B7868781B0203F44073C00600F060505F
S31520214A6003431943CCF82810DCF8481041F0010102
S31520214A70CCF84810DCF8380020F03000CCF838008B
S31520214A800020BDE8F087022C18BF002CBFD111F0E1
S31520214A900306BCD041F66810F3E700F064F820F055
S31520214AA04040B0EB430F27D36C6800261046B6EB67
S31520214AB0430F04EB86023CD2484592BF07464F4618
S31520214AC040444FEA073ABF0844F826A04AF0110A83
S31520214AD044F826A04FEA013AC2F804A04AF0210A56
S31520214AE0C2F804A001EB8701B61CE0E700F03BF8F1
S31520214AF08000C008984201D20320C2E768680024BA
S31520214B009C4222D24A4592BF16464E464244071D12
S31520214B1047F83410370440F8347047F0210740F81D
S31520214B203470B60801EB8601641CE9E741F665106D
S31520214B30A7E752F8040C002140F0020042F8040CA9
S31520214B40CCF80010CCF8584076E700EBC40151F898
S31520214B50082C42F0020241F8082C0021CCF8001042
S31520214B60CCF8580068E7B2FBF9F309FB132000B112
S31520214B705B1CA86870472DE9F04106468846576890
S31520214B8014680025706AC107FCD414B1706A8107A4
S31520214B90FCD4326BD00402D500F03AF836E0224616
S31520214BA039463046FFF7A6FC08B104202EE0002C1A
S31520214BB018BFB8F1000F11D0E07878B93B6A2246A8
S31520214BC041463046FFF713FF41F66811884205D04A
S31520214BD010B141F6651019E0012501E000F01EF81B
S31520214BE039463046FFF7E9FD1CB1E27812B10122A0
S31520214BF000E0002239463046FFF7F4FD34B128B9CA
S31520214C002A4621463046BDE8F04105E6BDE8F08139
S31520214C104FF4805141F6691031637047B06C4008DA
S31520214C204000B0647047826E090201F4FE4122F4ED
S31520214C30FE4211438166806E10F0802018BF01202C
S31520214C40704730B5B3B1846C234B01F0FF011204B8
S31520214C5002F4E02244F000748464D0F8CC501D4044
S31520214C602943114341F08071C0F8CC10C16B41F426
S31520214C70400108E0D0F8CC2022F08072C0F8CC2068
S31520214C80C16B21F44001C16330BD144A14485168D7
S31520214C90D2681047114A13489168D26810470000FC
S31520214CA068C00F40C0AE80EA80E100E0FB507F154E
S31520214CB020007005100070050200700101000F0010
S31520214CC001000F04020070150000701102407015BA
S31520214CD00400FFFFFFFCFFC700FFF8FF7C2C00200C
S31520214CE000002C4000402C400000000000002C40F9
S31520214CF000402C4080FF6E006F000000FFFF02065F
S31520214D00040600007FB504460A46106878B1694634
S31520214D1000200023002581E82900022301258DF882
S31520214D2000301C4908238DF80150019102936946D0
S31520214D302046FFF720FF0546012D12D1666AF0078E
S31520214D4006D54FF47A724FF000712046FFF7C9FD40
S31520214D50B00706D54FF47A724FF080612046FFF7CF
S31520214D60C0FD284604B070BD10B5044680220F2010
S31520214D700823A06002216273A273E3732374217333
S31520214D80206804F10801FFF76CFD034A00206262C6
S31520214D9010BD0000B0420020054D212000F1480120
S31520214DA08A6F22F002028A670B68022223F0080307
S31520214DB00B6000230A21FFF744BF00007047000043
S31520214DC0BFF34F8F054906480A6802F4E062024381
S31520214DD00A60BFF34F8F00BFFDE700BF0CED00E057
S31520214DE00400FA0501294FF4801002D104490860F4
S31520214DF07047044A1060BFF34F8FBFF36F8F704700
S31520214E0000E100E080E100E000F01F02DFF8D4336A
S31520214E10000A914003EB800030B5032595400468B4
S31520214E20AC432143016030BD014600200FF2D03230
S31520214E3052F820308B4202D0401C0828F8D37047E4
S31520214E40088C4A8C904205D2088CCB691B18488C39
S31520214E50181A70470A8C488C101A704710B50C46C0
S31520214E60FFF7EEFFE169491E884201D1012010BDDD
S31520214E70002010BD2DE9F04104460D462868002664
S31520214E80B0460423014603FB00FCB2FBFCFC1FFABF
S31520214E908CF70FB94FF0010C1FFA8CF707FB03FE95
S31520214EA07F1C5F43B2FBFEFEAEEB000EB2FBF7F793
S31520214EB0C71B77453CBFBE460CF1010C714502D379
S31520214EC071461E46E0465B1C212BDCD36422B0FBB7
S31520214ED0F2F000EB4000884238BF40F2215050D3F7
S31520214EE02046FFF7A1FF0FF23C32032132F91000B1
S31520214EF0FFF78AFFA069321F042A20F44020A061EF
S31520214F002169DFF8E40238BF41F40031761E3606E6
S31520214F10014006F0F8560E43C8F30C0006432661DD
S31520214F20206920F000502061A16921F01001A161A2
S31520214F30A06980088000A061A16928790143A16127
S31520214F4022696879400300F4005022F4005202437A
S31520214F502261A879E97940EA0140E062A16A41F01B
S31520214F608801A162A06A40F44040A062A169287A02
S31520214F7008B141F40021687A08B141F48021A16168
S31520214F800020BDE8F08180B5C16A11F4E06FFBD124
S31520214F9042695102FCD500238361FFF745FF0FF2B9
S31520214FA08422002132F91000BDE804402CE74FF479
S31520214FB0E13100220160027142718271C271027255
S31520214FC04272704730B500F018F814430461856A9F
S31520214FD02B438362826942EA0121816130BD30B54A
S31520214FE000F00BF894430461856A25EA0303836262
S31520214FF0826922EA0121816130BD04690B0203F411
S31520215000404203F44073090A704701464869896A78
S31520215010090C01F0C3010843704730B505E0436907
S315202150201C02FCD511F8015BC56113465A1E002BC3
S31520215030F5D130BD2DE9FC4104460E4660690103B8
S315202150400FD5E2698DF800209DF80010491C8DF8B6
S315202150500010756A2DB1B36A40F21D5231462046A1
S31520215060A847656906F12C08A80237D5A1698A02C5
S3152021507034D5E76A3F0E07F0070718E0E369435462
S31520215080491C9142FAD3F068BF1A1044F060316965
S31520215090891A3161306950B9022188F80110756A5F
S315202150A02DB1B36A40F2175231462046A847F8B2AD
S315202150B050B1306940B13169FAB291423CBF32696F
S315202150C0D2B2F0680021DCE7B069002871D13169BC
S315202150D021B94FF002612046FFF781FF6069010265
S315202150E065D5A269100262D5E76A3F0A07F007074C
S315202150F0C7F104074EE030843846471EC0B2002847
S3152021510059D031462846FFF7A9FE00281CBF746ACC
S31520215110002C05D0B36A40F21C5231462846A047BE
S3152021512031462846FFF79AFE50B1708CF169401C12
S31520215130884202D10022728402E0708C401C708445
S31520215140308CE969B2691154308CF169401C88424E
S315202151501ABF308C401C0020CDE78B5C521CE361AA
S315202151608242FAD331683F1A014431607268121A99
S315202151707260706870B9002188F80010A26922F443
S315202151800002A261756A2DB1B36A40F216523146E8
S315202151902046A847F8B250B1706840B17168F8B27C
S315202151A081423CBF7068C0B231680022D8E7BDE891
S315202151B0F3812546A0E72C4690E7FFE70B48816837
S315202151C00B4837E7FFE70948C1680A4832E7FFE776
S315202151D00648016908482DE7FFE704484169074841
S315202151E028E7000068C00F4000E0FFE0482B0020A0
S315202151F00080184000C01840000019400040194086
S3152021520000000000004018400080184000C01840CF
S3152021521000001940004019400080194000C0194063
S3152021522000001A40FFFF18051C000C00180102037C
S3152021523006031A050E060000491EF8B50125082980
S31520215240434F16463C6852D8DFE801F0051525471D
S31520215250472C47514500706810F1010F18BF0028CF
S315202152600FD0A069002814DD94F82214012910D129
S3152021527004F118000BE0706810F1010F18BF002807
S3152021528001D10020F2BDE06104F114002573F8F765
S3152021529044FC00252BE040F2FD3104F12000F6F7F5
S315202152A0B1FD24E0B178002904BFF078002804D18B
S315202152B03178012908BF657319D07268314604F106
S315202152C02000F8F7C7FA70682573E06104F114000D
S315202152D0F8F723FC0BE0052509E0002104F1140051
S315202152E0F8F70CFC386800211830F8F707FC284617
S315202152F0F2BD0020012900D0704738B5144C012574
S31520215300206840F2FD3380F82254022100F1200248
S31520215310806800F0D7F9216881F8235432BD002016
S3152021532059B90B4840F2FD330068022180F8242424
S3152021533000F12002806800F0C5B970470449086051
S31520215340002070470249086009680020886070475C
S315202153508C2C002010B5134601200BB9032010BD3B
S3152021536000225A745A68002A1CBF1468002C03D0C4
S315202153700A4601211846A04710BD10B51346012023
S315202153800BB9032010BD00229A745A68002A1CBF2B
S315202153901468002C03D00A4602211846A04710BDC6
S315202153A02DE9F04385B0027B00247AB341688968D0
S315202153B04D7995422AD3096841B301EBC2010027D1
S315202153C00C23A1F10806726800E07F1C31788F42F8
S315202153D01CDA03FB07F5511991F800E0BEF1030F02
S315202153E0F3D1002600E0761C02F108077B5D9E4260
S315202153F009DA131D90F80E905F59330117F80380AF
S31520215400C845F0D1FC18C97841730CB901202AE08E
S31520215410846005464FF00008984E994F0120217946
S31520215420884520DA00208DF80400A16811F828107B
S315202154308DF80210A268C909931C02EB880233F861
S3152021544028000129694608F10108ADF800005378A2
S3152021545002AA8DF8033014BF029602970395286875
S3152021546000F08AFADBE705B0BDE8F08338B50446BB
S315202154700120A16871B1002506E0886810F8251061
S3152021548020686D1C00F098FAA1680A799542F4DB10
S315202154900021A16032BD00007FB5054614460120BA
S315202154A0002C14BF002D03200CD0491E052909D814
S315202154B0DFE801F05B0309192F450021297369745F
S315202154C0A974A960AEE0696800291EBF297B2278CC
S315202154D08A42F7D011B12846FFF7C8FF207800224B
S315202154E0AA73287311E069680029EBD021886A7B89
S315202154F00C460904B2EB116F0AD1AB7BE1B299427A
S3152021550006D02846FFF7B2FFAC732846FFF748FF9F
S3152021551088E06A68002A1CBFA9680029F8D00026DD
S31520215520AA6811798E427DDA9268217812F826307E
S31520215530994204BF286800F05AFA761CF0E76A6877
S31520215540002A1CBFA96800296CD00026AA681179D7
S315202155508E4267DA9268217812F82630994204BF62
S31520215560286800F04EFA761CF0E721680A7802F0C6
S315202155701F02012A02BF0B796A7B934252D14B78B3
S315202155802846012B0AD0022B0DD0032B14D0092B10
S315202155901CD00A2B35D00B2B3AD042E04A88032146
S315202155A000F042F81AE06B6805F10F0204211E680B
S315202155B0B04705F10F0107E06B6805F110020421C0
S315202155C01E68B04705F1100161602BE04A8800F082
S315202155D02BF8217B59B1A268092101926A466B6871
S315202155E01D68A84700996160019AA2601AE0636844
S315202155F006210093A26801926B686A461C68A0471F
S3152021560010E0498805F10F02090AE973072104E010
S31520215610498805F11002297408216B681C68A04766
S3152021562000E0052004B070BD120A8DF808202368F9
S315202156305A888DF80920704770B50C4615460346C1
S315202156400021104A14264E431644306850B1491C75
S31520215650F8DD022070BD0020FF2174603073B17304
S315202156602E6070BD3146184600F08BFA0100F8D124
S3152021567030680028EFD1032070BD00007B53212004
S31520215680555321209C42002010B5040001D103202E
S3152021569010BDFFF7EBFE0021216061602173A1730C
S315202156A010BD10B5040001D1032010BD607C08B1C6
S315202156B0022010BD206800F057F9010004BF012106
S315202156C0617410BD10B5040001D1032010BDA07C4A
S315202156D008B1022010BD206800F04BF9010004BF5B
S315202156E00121A17410BD00001CB5044600F040F82C
S315202156F00021216084F8CD1000F01FF9002016BD6D
S315202157002DE9FC4104000D461646984605F00F0169
S3152021571008BF03202AD0606830B34B000C2143EA0E
S31520215720D5124A43A718387D08B102201EE000F081
S315202157301FF8012000F000F92906D4F804C02068BA
S3152021574043463246294603D5DCF80840A04702E0E5
S31520215750DCF80C50A8470446200006D000F008F8B3
S31520215760002000F0E9F800E006242046BDE8F68175
S31520215770684600F041BB08B903207047436813B13E
S3152021578000685B69184706207047FEB504460E7AE5
S3152021579001200C25F309102E06F00F021ED104F14B
S315202157A0CC060022F0700E2120460027FFF7E3FFCA
S315202157B002230022B37000203270002305FB00F162
S315202157C0401C10282144CF600B610A75F6D3A368AB
S315202157D00121204698470020F070FEBD082A19D2C3
S315202157E043EA42036B432344DA689AB10D68009554
S315202157F04A6801924D7A8DF80850487A00281DBFB3
S315202158000021217584F8201018751A69DB686946EC
S3152021581020469847FEBD002918BF002801D1032024
S3152021582070478268002A18BFFFF7AFBF0120704753
S31520215830F8B5140005460E4601D10320F2BDFFF727
S3152021584097FF364A0021D02302F1CD0C03FB01F725
S31520215850D05918B11CF80770BD4227D0491C0129FF
S31520215860F4D9002103FB01F7D05918B3491C01298A
S31520215870F8D900F062F80220F2BD3846FFF734FF4E
S315202158800620F2BD27607B6828463A4639461D68A0
S31520215890A847050006D0384600F055F8002020609C
S315202158A02846F2BD02210020B170F2BD00F045F854
S315202158B00120F2BD174487F8CD5000F03EF8BE6096
S315202158C007F1CC060020757030700023F0708446D5
S315202158D00C224243401CB9181028CB60C1F810C0B5
S315202158E00B75F5D3A81E0128C7D80D4979A0002903
S315202158F078601CBF0B4A002A0BD00B4800281CBFFE
S315202159000A49002905D00A4800281CBF094900292F
S31520215910B8D13846FFF7E8FE0720F2BDFC4000202B
S3152021592031742120D1742120FF7421200975212051
S315202159300F752120217621203875009800F062BA32
S315202159400022002117E710B5040001D1032010BD44
S31520215950616821B120684968884700206060204617
S31520215960FFF7C2FE002010BD01F00F0141F080019A
S31520215970C6E601F00F01C3E670B508B9032070BD54
S31520215980002918BF002A15D08C7804F00F03082B84
S3152021599010D25D000C2345EAD41400255C4303195B
S315202159A01468DC6056681E610A461D750221BDE811
S315202159B07040E0E6042070BD73B504000E4606F063
S315202159C00F0501D1032076BD01AA0321FFF7D3FEBE
S315202159D0082D0AD26A000C2142EAD61600234E430C
S315202159E0A119CB600B610B7576BD042076BD02B55E
S315202159F001F00F01082902D26A4604210BE0042076
S31520215A0002BD02B501F00F01082902D26A460521FD
S31520215A1001E0042002BDFFF7AEFE02BD000000001A
S31520215A2010B501230AB9042010BD891E062900F1CB
S31520215A30CC0419D8DFE801F004061012080C140052
S31520215A400F210EE010210CE0A078002310700BE02E
S31520215A5021780023117007E0062102E0072100E0CA
S31520215A600921FFF788FE0346184610BD0B46012162
S31520215A70032B10B500F1CC040CD0062B0CD0072B10
S31520215A800FD00A2B1ED00B2B1ED00C2B16D00E2B53
S31520215A9016D01DE0112118E0D2B110780021A07076
S31520215AA016E0A378032B06D092B110780322002189
S31520215AB0A27020700CE02246082106E00A2104E08B
S31520215AC00B2102E00C2100E00D21FFF754FE0146B7
S31520215AD0084610BD31742120D1742120FF74212044
S31520215AE0097521200F7521202176212038B50446DC
S31520215AF06846002500F080F9934901EB05110868D5
S31520215B0010B18B7B9C4207D06D1C012DF4DD0098B2
S31520215B1000F078F9042032BD00200860486088739F
S31520215B20009800F06FF9002032BD7CB500F00DF809
S31520215B3085493201885818B18818837B9D4203D024
S31520215B40761C012EF5DD17E02AE005460C4668462F
S31520215B50002600F051B97CB504460D46FFF7F7FF24
S31520215B60794831014258944203D0761C012EF8DD22
S31520215B7002E00844286014E0009800F043F904204C
S31520215B8076BD7CB5FFF7E1FF6F493201885818B100
S31520215B908B189B7B9D4203D0761C012EF5DDEBE7EE
S31520215BA02060009800F02EF9002076BD2DE9FC47D3
S31520215BB08846144601261CB16946FFF7CCFF08B159
S31520215BC004202EE0002703E000B900267F1CFFB227
S31520215BD0009841680A7A974222DA0C20002210FB8B
S31520215BE007F00B687CA54FEA026E05EB1E5C03EBE2
S31520215BF00009D9F808A09CF80C509AF804E07545BC
S31520215C0004D0521CD3B2022BEBD3DFE71D1DDCF8C7
S31520215C10083028582246414698470528D4D100E005
S31520215C203046BDE8F6877CB50D46044616466946BC
S31520215C30FFF791FF010011D1012D08D100992046AE
S31520215C4000F082FB009A02212046FFF7AFFF009B3E
S31520215C502046294632465C686568A84776BD0000FD
S31520215C602DE9F84F924601240F46BAF1000F8046BE
S31520215C7018BF002F01D0786808B9042045E068466E
S31520215C8000F0BAF83049002201F10E051301C85857
S31520215C9010B1EB5C98453AD0521C012AF6DD002240
S31520215CA001EB02152868A0B3521C012AF8DD0098C1
S31520215CB0022400F0A7F8204627E0002746A41CE06E
S31520215CC04FF00C09002619FB07F96868330104EB0C
S31520215CD0030E9EF80CB0006800EB09018A68127940
S31520215CE05A4505D1001D00EB0902E3584046984745
S31520215CF0761C022EE9D37F1CFFB26868017A8F4277
S31520215D00DEDB2A680020CAF80020BDE8F28F009841
S31520215D10CFE701EBC20085F80E8000F12001A960B2
S31520215D20009800F06FF86F602A4608494046FFF731
S31520215D307FFD0700C1D02868FFF705FE4046FFF703
S31520215D40D5FE3846E1E70000CC400020275C212003
S31520215D502DE9FC4180466946FFF7E7FE05002AD159
S31520215D605FF000061CA519E0002700980C2212FBE3
S31520215D7006F24168086839016C1883189B6893F8E4
S31520215D8004E0237B9E4504D1001D80582A1D5158AD
S31520215D9088477F1C012FE8D9761CF6B200984168E6
S31520215DA00A7A9642E0DB0068FFF7CDFD050004BFA5
S31520215DB04046FFF79BFE2846BDE8F6811CB50C46DA
S31520215DC06946FFF7B2FE010005D10098224602213D
S31520215DD00068FFF725FE16BD395621208956212038
S31520215DE0995421200100000000000000000000003D
S31520215DF00000000000000000EFF3108172B6016060
S31520215E0072B6704780F31088704700002DE9FC4157
S31520215E1004460D46206890461E466A4606210527D9
S31520215E20FFF7FEFD9DF80020012A01D010002ED17A
S31520215E30287810F01F0F08D1206804F10C020421C4
S31520215E40FFF7EEFD0746207B18E000F01F02012A0E
S31520215E5002D10027A78114E000F01F00022812D1C9
S31520215E60A9880022ADF8062001AA8DF80410206801
S31520215E700521FFF7D5FD07469DF8060000F0030012
S31520215E80A0810221316004F10C02C8F80020384695
S31520215E90BDE8F6817CB5002305468DF800302868BB
S31520215EA00C460DF1010206210526FFF7B9FD9DF8C5
S31520215EB00120012A03D0100001D0052076BD60786B
S31520215EC0032804BF01218DF80010207810F01F0F20
S31520215ED008D16088012827D128686A461421FFF72E
S31520215EE0A2FE20E000F01F00022804BF60880028BF
S31520215EF01AD1A18811F00F0F0AD19DF80020286808
S31520215F00C9B2002A02D0FFF772FD01E0FFF779FD21
S31520215F109DF800102868002919BF221D0521221D60
S31520215F200621FFF743FE0646304676BD38B500F0FA
S31520215F30B3F89DF80020032A0CD0012A18BF022A83
S31520215F4002D00AB1052032BD68886A4607218DF81C
S31520215F5000000BE0206800220721FFF787FD0100C2
S31520215F6007D101206A468DF8000006212068FFF717
S31520215F707DFD32BD2DE9FF470446914620680D4619
S31520215F809A466A4606216F88FFF74AFD9DF800202A
S31520215F904FF005083E0A012A03D0100018BF022A15
S31520215FA038D1E888012E029002D101AA0B2127E0BF
S31520215FB0022E04D18DF80C7001AA0C2120E0032E8B
S31520215FC007D18DF80E70A98801AAADF80C100D21E4
S31520215FD016E0212E03D1A88801AA0E2104E0222E23
S31520215FE005D1A88801AA0F218DF80C0008E0232EBF
S31520215FF00AD18DF80C70A98801AA8DF80D101021CF
S315202160002068FFF710FE80460198C9F80000029902
S31520216010CAF80010404604B0BDE8F0877CB5044696
S31520216020154620681E4600F05AF89DF80020012AC0
S3152021603003D0100001D0052076BD012104F10C00EA
S31520216040316004F10C02286020681521FFF7EBFD51
S3152021605076BD38B500F020F89DF80020012A03D01E
S31520216060100001D0052032BD002100F00EF86888ED
S3152021607010B9012100F009F82068AA1C0321FFF795
S3152021608095FD2068AA1C092144E06A468DF8001056
S3152021609020680621FFF7EABC04460D4620686A4699
S315202160A00621FFF7BDBCF8B504460D4620681646E5
S315202160B01F4600F014F89DF8000008B10520F2BD16
S315202160C0012104F10C00396016213060AA881202C0
S315202160D0A281206804F10C02FFF7A5FDF2BD6A46D4
S315202160E00621FFF79DBC38B5FFF7D6FF9DF80000A6
S315202160F008B1052032BDA978A88804F10C0241EA0D
S315202161000021A18120680421FFF750FD206804F198
S315202161100C020A21FFF787FD32BDF8B505460E464A
S31520216120286817461C46FFF7DAFF9DF8001009B1AB
S315202161300520F2BDB08805F10C020821A881286826
S31520216140FFF76EFC05F10C01022239602260F2BDB7
S3152021615038B50D468021052A04460ED1287810F01F
S31520216160600F05D0020603D4E88808B103B90021BF
S315202161702046BDE83440FFF73ABC0599E8880A68ED
S31520216180904238BF086004980B6800210268204697
S31520216190FFF7EAFB01000BD129780A0608D520460C
S315202161A001B0002300220021BDE83040FFF7E1BBEA
S315202161B032BD2DE9F8410D4689B0002105260391EE
S315202161C0144604916968804611F1010F18BF002CED
S315202161D00ED0A76802AA0621FFF722FC2A7A0FF2FF
S315202161E0C41C002A57D06868082801D1296809B912
S315202161F005208CE0488878808A88BA80C888F880EB
S315202162004A787A70097811F0600F39700AD15CF8D2
S315202162102250002D3AD004AB03AA39462046A8475E
S31520216220064633E0F0B108061CD48A0608D5002399
S315202162300124069301218DF8204000F071F803E016
S31520216240480623D500F073F8064630000799069AAA
S31520216250049103921AD1FB88039A00214046FFF725
S3152021626088FB54E0880608D50022012306920121C5
S315202162708DF8203000F054F803E0480606D500F0CA
S3152021628056F80799069A06460491039204A803A96B
S315202162900190002333E09DF80800032808D12046E9
S315202162A07C7804AB03AA39465CF82450A8472CE015
S315202162B0696800291CBFF888002827D0387801066C
S315202162C024D482060AD52B680024069301218DF831
S315202162D0204000F01FF8FFF769FC0BE040060AD5A5
S315202162E02A680023069213218DF8203000F012F817
S315202162F0FFF799FC064604A803A9019001230091E2
S31520216300324639464046FFF723FF064630460AB035
S31520216310BDE8F081404605976A68079205AA70472D
S3152021632040460597FA88079205AAFFF73FBC002227
S315202163300123069213218DF8203040460597FA88AD
S31520216340079205AAFFF76FBC30B50123002585B03A
S31520216350134A8DF8043080238DF80350402502926C
S315202163600446039102AA8DF802306946ADF8005001
S31520216370FFF702FB010010D1002269468DF8022089
S3152021638002AA2046FFF7F8FA050005D080212046EB
S31520216390FFF712FB284600E0002005B030BD0000A3
S315202163A0B36121200D5E2120955E21200000000071
S315202163B0955E2120000000002D5F2120755F212080
S315202163C0000000001D60212053602120A76021208C
S315202163D0E76021201B6121207FB5054669466C682F
S315202163E02046F4F761FD90BB3CA201A852F8246017
S315202163F0FEF7DDFD009801902046F7F750FE024674
S3152021640001A93046FEF736FDF0B9AA6802212046B9
S31520216410304D904701212046FEF7E4FC4FF4001130
S315202164203046FEF7CFFDB06940F48020B061B169D6
S315202164305A2041F40021B161A9688847AA68A6207B
S3152021644090470120285503E02046F4F713FD00202C
S3152021645004B070BD10B504461E4A91606068A268DA
S31520216460012190476068F4F705FD002010BD00004A
S3152021647070B5044617496568485D48B117A20021C1
S3152021648052F825602846FEF7ADFC3046FEF77BFD07
S315202164902846F4F707FD6068A2680021BDE8704010
S315202164A01047000010B544680CA353F82400FEF7CA
S315202164B0B4FD002010BD10B5074C2046FEF7A5FDE2
S315202164C0810206D5E069034A9168BDE81040C0B231
S315202164D0084710BD902C00200040184000000000E5
S315202164E0004018400080184000C018400000194084
S315202164F0004019400080194000C0194000001A4070
S3152021650010B58D48FF22C36834211C6904F18C0003
S31520216510F7F742FEF7F7FEFD002010BD70B5864A3B
S315202165204B23D0680224502501690120CB700023FA
S315202165308C70542448700B70887102204871012078
S315202165400B714B720B727D4BCC727D4C8872086419
S315202165507C48CD717C4D4B6401F18403CC677B4C07
S31520216560C1F8800000201D6000255C609469C86008
S3152021657006E01E7E064202D0CE683043C8606D1CDE
S315202165801820684320580028F3D1714803688B646A
S315202165900069C864526813684B6254681068241ACB
S315202165A0641C0C6302F1100003688B624468006846
S315202165B0241A641C4C6302F120000268CA624368D3
S315202165C000681B1A5B1C8B63002070BD2DE9F843E4
S315202165D08846144658490426CA6801281D46DFF8EC
S315202165E07491176907EB880214D0022819D007283D
S315202165F027D00B2827D00C282DD00E2813D00F28B2
S3152021660018D011282AD012282ED018282FD0192870
S315202166102FD037E005B12E6004B127600020BDE8D8
S31520216620F2830C37F6E7B8F1030F34BF02F12407C2
S315202166302437EFE7B8F1030F34BF02F130073037A3
S31520216640E8E74437E6E7086A41694A699047C9F885
S3152021665000004F46DEE710267C37DBE7F7F76AFD99
S315202166600028F4D00120F2E708264837D2E7083758
S31520216670D0E7C0373946404600F01DF80028CED154
S315202166801826C7E742F63C00C9E7401E01280CD947
S31520216690801F0AD0001F012884BFC01E022804D9CA
S315202166A0001F02D0801F012802D842F63D007047E4
S315202166B042F63C007047F8B588B002460D46264C76
S315202166C0002C1CBF606800281EBF2668964208340D
S315202166D0F6D12BE002A81821F5F794FB66686946C6
S315202166E00020B0470098F8B9002103AE0291012776
S315202166F0002201A9019263683846984740B901983A
S31520216700012230600299781E82401143029101E0D4
S3152021671000203060361D7F1C062FE9D3182202A9BE
S315202167202846F7F7A7F8002009B0F0BD60680028B1
S31520216730D0D10420F8E7000010000020DFEF05006B
S3152021674000A02020857E212000000020D75A00206D
S3152021675010441F40882D002014AD2020BB49D1F89C
S315202167604828531C0A44C1F8483882F80004D1F835
S31520216770480800F03F00C1F84808704700207047BC
S31520216780B6E02DE9FC410C001546984614BF002D94
S3152021679004202AD00020AD4F286007F505667070A9
S315202167A000F0A6F858B120E03946684600F06AF98B
S315202167B0BDF80410814211D0A22000F06DF84FF4CB
S315202167C080613846F5F71EFB42463946684600F079
S315202167D005F90028E8D00021296006E00120307043
S315202167E000202760BDF802202A60BDE8F681F8B591
S315202167F00C0015461F4641D040F2014085423DD22C
S3152021680000F076F800283DD1904991F8510810B131
S31520216810002281F8512801F588665A203070A4205B
S3152021682007B1A520707001F24647758025B12A4609
S3152021683021463846F7F70EF83946304600F022F938
S31520216840B080A91D304600F061F8D8B9684600F01D
S3152021685007F9B8B99DF80100A1280BD0A2280BD1A0
S3152021686071883046891D00F051F858B99DF80100EC
S31520216870A228EBD00020F2BDA32801D00420F2BD0E
S3152021688042F21270F2BD72480121002281700270FB
S3152021689070474FF4806070471CB55A228DF801004D
S315202168A001236A4C8DF80020022184F8513868464C
S315202168B000F02CF816BD000038B50446644A10783D
S315202168C000281CBF5178002901D0907868B9236906
S315202168D05FF0020279A120465D68A84723692046F8
S315202168E05FF0080273A15C68A04742F2137032BDA3
S315202168F05749087818B10022A1200A7004E0887827
S3152021690018B10022A3208A70C6E7704710B5514BD3
S315202169100A461B6A01461C6918466368BDE8104071
S3152021692018472DE9F14F84B08B4614460027F4F7FA
S3152021693053FBCDE90001BFF36F8F4FF47A70DFF857
S315202169400CA160430AF64806F4F750FBDDE9002343
S31520216950CDE9022310E072683068824210D02046A9
S315202169605244049B92F800244146DA5574687F1CD0
S31520216970641C04F03F0474605F452BD0044688468E
S31520216980F4F72AFBCDE90201DDE90201DDE9002345
S31520216990801A9941DDE90223DDE900594B450DD8BD
S315202169A028BFAA420AD2DDE90201DDE90023D2432A
S315202169B0DB4380185941401C61F1FF310025A84550
S315202169C008BFAC42C7D04145C5D301D8A042C2D3C6
S315202169D0052000E0002005B0BDE8F08F7CB50546F6
S315202169E00C46164600F03CF870BB6878A62804D1E0
S315202169F01848006AFFF760FF76BDA42106B1A521BC
S31520216A00884201D0012076BD00F026F8BDF800107D
S31520216A106980C8B9084640F201418842A8BF4FF48F
S31520216A208060688000F018F8BDF80010A98058B958
S31520216A30698849B12046FCF7C7FC69880A200A469D
S31520216A4042432046FFF76DFF76BD0000103300201C
S31520216A50603B00201000002014220221684660E7B6
S31520216A6010B50446002201212046FFF75AFF40B9DE
S31520216A7022785A2AF6D1601C0A220121BDE810402B
S31520216A804FE710BD38B504460D46684600F017F885
S31520216A9004222146684600F015F862882946684670
S31520216AA000F010F80DF10201684600F022F8BDF839
S31520216AB0020032BD000201500000AAEA5AA7002195
S31520216AC00180704770B5048800250EE04B5D84EA6D
S31520216AD0032408236600240444BF86F4805686F0C6
S31520216AE021065B1E3446F5D16D1C9542EED30480DA
S31520216AF070BD00880880704772B605480549016037
S31520216B000A6882F308880448804762B6034800470A
S31520216B1008ED00E000A020200B6C2120597C2120AB
S31520216B2000480047BB51212000480047C55121205C
S31520216B3000480047CF51212000480047D951212024
S31520216B4000480047557C212000480047557C2120BC
S31520216B5000480047557C212000480047557C2120AC
S31520216B6000480047557C212000480047557C21209C
S31520216B7000480047557C21200048004797192120AD
S31520216B8000480047A519212000480047AD1921209A
S31520216B9000480047B519212000480047557C21206F
S31520216BA000480047557C212000480047557C21205C
S31520216BB000480047557C212000480047557C21204C
S31520216BC000480047557C2120004800478B4C212036
S31520216BD000480047954C212000480047557C21201C
S31520216BE000480047557C21200B480C4B8168816049
S31520216BF0026842F020020260436001680A05FCD542
S31520216C00036823F0800303607047034801680A065E
S31520216C1048BFFFF7E9BF704700C00B4020C528D9E0
S31520216C2005207047087A10B9314A4C2310E00520F7
S31520216C307047052070472F481222086000204A609D
S31520216C407047087A10B92C4A292301E0052070477C
S31520216C500A604B60704710B5887A284A28B913688C
S31520216C605068486000200B6010BD92680B891489FA
S31520216C70A34208D1042806DA1368526853F8203033
S31520216C8052F82000EDE7052010BD02291A4830B51B
S31520216C9000F1210209D10324FB2580F82040C57764
S31520216CA0147094715571D47109E00323FB240125B5
S31520216CB080F82030C477157093715471D5710022D4
S31520216CC040F2FB3300EB8204521C012AE385F9D9D9
S31520216CD000224FF4007500EB820302290EBFDD86C8
S31520216CE04024DC86521C012AF5D9002030BD000023
S31520216CF0000600204C06002098050020540700207D
S31520216D00F0B5C16801220161C36803EB4214521C0C
S31520216D10102A0C600968F7D3002210230A6000F19B
S31520216D2094010B7042680027D2F8404124F47F0455
S31520216D30C2F840414268D2F84031C2F84031426817
S31520216D40D2F8A84144F00804C2F8A8414268D2F8F2
S31520216D50A83123F00403C2F8A831002285689301C3
S31520216D60012405F108064025F4508468E65865F388
S31520216D701A46E65000EB82046761521C67658468D7
S31520216D8023449E6B76087600102A9E63E6D34368B9
S31520216D908268C3F8582142684723C2F85471406853
S31520216DA0C0F848318F70F0BD2DE9F84F0C460746C3
S31520216DB0A1780120E578CA0802F0100901F00F0B0D
S31520216DC0D94400FA09F920884FEAD11805F003059C
S31520216DD048EA4B06C0F30A0A384600F098FB786841
S31520216DE000F5D8710A6812EA090F06BF8B6813EAE3
S31520216DF0090F022055D1B601012D10D140F20143B0
S31520216E009A45BA68238828BF4FF4806A52F806C06B
S31520216E10DB0A5B1C63F39F7C42F806C004E0BA6858
S31520216E20935923F040439351BA6897596FF31A47E0
S31520216E3047EA0A47975193592779B7F1010C6CEB09
S31520216E400C0C23F000534FEADC7443EA447393512C
S31520216E506DB99059B8F1000F40F4004090510B695B
S31520216E6014BF4FF44000C0201843086113E0915904
S31520216E7000EB8B00B8F1000F21F400419151D0F89D
S31520216E80C01119BFAD0445F44005AD0045F0C0053C
S31520216E900D43C0F8C0519019826B42F001028263E2
S31520216EA00020BDE8F28F2DE9F041CC09CF08064616
S31520216EB001F00F0844EA480507F01007B2680120BF
S31520216EC0474400FA07F7AD015019836B5B085B0035
S31520216ED08363304600F01BFB706800F5D8710A6881
S31520216EE03A4206BF8B683B42022016D1B368002264
S31520216EF0B8F1000F5A516FF08C026FF40C0305D1B3
S31520216F0004B11A46086902400A6105E004B11A460D
S31520216F1000EB880000F023FC0020BDE8F08170B54D
S31520216F20064601F00F04CD0900F0F1FA45EA4401A5
S31520216F30B06889014258C2F3C03040B170680CB1A3
S31520216F4000EB8400D0F8C01141F001110EE04FF47E
S31520216F5080311CB905B90121706804E005B90121E8
S31520216F60706800EB8400D0F8C0211143C0F8C0110D
S31520216F70002070BD2DE9FE4390468946064608EB42
S31520216F80490706EB87050021009101914FEA8717D2
S31520216F9033E00068686111E000F054F96869696D91
S31520216FA08842F6D100200022686101216A65B068F5
S31520216FB000F10803D951B168C919CA606168C1F3C2
S31520216FC0C03018B96869400940010CD1002349EA2B
S31520216FD0C8118DF809308DF80810306800F016FC9C
S31520216FE0002300930193002060603169216096F887
S31520216FF094003461401C86F894006C69640964010C
S3152021700008D000F014F961680806C5D54FF0FF3283
S315202170100192C3E7BDE8F7832DE9F84F84B00746EF
S3152021702078684FF0010AD0F8AC41002C51D04FF0AE
S31520217030000B24FA0BF0C00746D5BB684FEA4B60FC
S31520217040594603EB904000F130052878C60932468F
S315202170503846FFF78FFF86F00102594638464FEA18
S315202170604B66FFF787FF8DF808B0082200950AFAAC
S315202170700BF101928DF809A07A68C2F8AC117968D2
S31520217080D1F8402142F40052C1F84021B96801EBE0
S3152021709096418A6A0A63BB6803EB9641C86A4863AC
S315202170A07968D1F840219304E9D5D1F8406126F4B5
S315202170B00056C1F840617968D1F8AC2122FA0BF249
S315202170C0D307F9D400F0A1FB0BF1010BBBF1080F7B
S315202170D0AFD37868D0F8BC110391C0F8BC110398BE
S315202170E0002800F0968000260398F040C10740F141
S315202170F08C80102E27BFA6F1100BD046B3464FF019
S3152021710000085FFA8BF0082880F07F8008EB4B007F
S31520217110002100910191C0B24FEA801907EB800529
S3152021712068694009400170D069694909490179D0C6
S31520217130486802066ED44868C0F3C030002808BFCC
S315202171400968F2D066E06068010622D50BEB0810AB
S315202171507A680AFA00F0C2F8B0017968D1F8B83114
S31520217160034216D1796801F5D8710A680242F9D10C
S31520217170896801420DD1BA68002102F1080343F83A
S315202171800940D7F808C0CC44CCF80C107A68C2F84C
S31520217190B00161680A06C7D400F049F800F052F818
S315202171A06869696D88420CD10020002268616A6570
S315202171B0B86800F1080343F809A0B9684944CA60B0
S315202171C001E0006868616168C1F3C03018B9686957
S315202171D0400940010BD100224BEAC8118DF8092024
S315202171E08DF8081000F011FB00210091019100215A
S315202171F06160386920603C6197F89410491C87F8B2
S3152021720094106C69640964019DD1761C202EFFF4AB
S315202172106BAF0AE148680206F7D44868C0F3C0304C
S315202172200028F2D06C6964096401EED0B1E7009898
S3152021723038B9A168E069090BC0F30B0040EA013196
S3152021724000917047E06901996268C0F312304118B4
S31520217250C2F30E40091A019170472DE9F84F0546D0
S315202172601646480001F00F0200F01E0084B040EAC5
S31520217270D119C90801F01001012089189A4600FA6E
S3152021728001F10AF57C5401910021FF340291A40BCE
S3152021729088460DB90320C8E0A8684FEA891B5844BF
S315202172A090F83810CA0703D505F19407B87808B1A4
S315202172B00120BAE004B901246846FEF79DFD97F91D
S315202172C000003346A04280F0A1800098FEF79AFD67
S315202172D00220AAE0D5F810C0801ADCF800402C61E3
S315202172E03C78661E3E7001B9E2460124CCF8004066
S315202172F00024CCF804405C18CCF80840DCF808605F
S3152021730006F58056360B3603CCF80C60DCF80C409B
S315202173106B4E04F58054CCF81040DCF8104004F56F
S315202173208054CCF81440DCF8144004F58054CCF871
S315202173301840DCF804E062F31E4ECCF804E0DCF8B9
S315202173401CE062F31E3ECCF81CE0DCF81C403440E5
S31520217350DCF80860C6F30B063443CCF81C4028B968
S31520217360DCF8044044F40044CCF80440DCF8044022
S315202173708026511866F30704CCF8044005EB8904CE
S31520217380626D12B1C2F800C003E0C4F814C04FF0F8
S315202173900108C4F854C000283CD1B8F1000F1BD1F4
S315202173A06868D0F8B011019A11423AD16868D0F8AC
S315202173B0401141F48051C0F84011686800F5A07051
S315202173C0816F0268D304F1D50768C9B227F48057A3
S315202173D007600198014224D1AA68002002F10803FE
S315202173E043F80BA0A9680C3141F80B006868019A73
S315202173F0C0F8B0210198696801F5D8718A680242DE
S3152021740002BFCB6803420860F5D00AE05046DDF87A
S315202174100CA00299B0F5804F8CBF4FF480420246D2
S3152021742058E70098FEF7EEFC002005B0BDE8F08F66
S31520217430F8B50FF2E03314461D680346022B00955A
S3152021744003DB9A1E022A00D20AB10620F2BD9C2510
S315202174501C4E15FB03F51C4A06EB43271544A5F5BF
S315202174609C75A7F58062EA60184A02EBC322A2F531
S31520217470805605F19502AE609070684600EB830335
S3152021748053F8080C6860D0F8243103F01F03082B29
S31520217490137001D20120F2BD2960D0F8A8118908E4
S315202174A08900C0F8A811D0F8A82142F00202C0F81C
S315202174B0A8212846FFF724FC25600020F2BD0000E4
S315202174C000F0FF7F00140020683B002000080020E8
S315202174D008B90320704742680021C2F84811416843
S315202174E0D1F840315B085B00C1F840314068D0F8C3
S315202174F0401141F00201C0F840110020704701F0EF
S315202175000F0141F08001A8E601F00F01A5E62DE942
S31520217510F8438846C908054608F00F0701F01001EF
S315202175200120CF1900FA07F74FEA480000F01E0084
S3152021753084B040EAD8190DB903206DE0684605EBE1
S315202175408906FEF759FC00214FF0FF320191029264
S31520217550706904E0C16941F00041C16100684009B8
S315202175604001F7D145E00168716125E0E069C00F4E
S315202175704ED0616808060ED56868D0F8B411394313
S31520217580C0F8B411686800F5DA7001683942F9D17A
S3152021759042683A42F0D1019838B9A168E069090BCD
S315202175A0C0F30B0040EA013101917069716D884267
S315202175B0D9D10020706170656168C1F3C03018B9D6
S315202175C07069400940010AD100208DF80C808DF880
S315202175D00D00286801A9FEF71EF90020019000213F
S315202175E061602869206095F894102C61491C85F8E2
S315202175F09410746964096401B8D1A9684FEA891481
S315202176000120002301F108021051A8682044C360FB
S315202176100098FEF7F7FB002005B0BDE8F0830000B7
S3152021762038B5044601200CB9032032BD0F29FCD8D8
S31520217630DFE801F0080F171F272E575B75949494C6
S3152021764094947D8F606800F5A070016841F0010156
S3152021765005E0606800F5A0700168490849000160CD
S315202176607BE0002A7AD011462046BDE83440FFF738
S315202176709BBB002A72D011782046BDE83440FFF703
S3152021768012BC002A6AD011782046BDE8344046E44F
S31520217690002A63D010786FF001026FF4803300F056
S315202176A00F01C00929B900B11A46606800F057F8C0
S315202176B053E000B11A46636803F5E07353F821506D
S315202176C02A40002843F82120626802F5E07252F808
S315202176D0213014BF4FF480004020184342F8210066
S315202176E03BE0002A3AD0108037E0002A36D01178A4
S315202176F001F00F03C909082B30D2002B60684FF403
S3152021770080341ABF00F5E07050F82300D0F8C0016C
S3152021771001B90124204018BF012050801DE0EAB183
S3152021772010786168400601F5A072506115E00025A8
S3152021773045F08001C9B22046FFF7B5FBE9B22046C4
S31520217740FFF7B1FB6D1C082DF2D32046FFF7D8FA9F
S3152021775003E01AB194F898001070002032BDD0F8B9
S31520217760C0110A40C0F8C0217047002800D17047B7
S31520217770FEB50468616801F5A2710E68486804F1B6
S315202177809605064072060E601BD5886E4FF0FF13B4
S3152021779088668A6F8A670B67C86E30F0FF20FAD118
S315202177A0096CCA0502D501232B700AE01027002176
S315202177B08DF80870009101918DF80910206800F04C
S315202177C025F8F20744BF2046FFF726FC70071BD574
S315202177D000210023009101918DF809306068D0F8AD
S315202177E08411CA0510D4D0F8840181054CBF02200A
S315202177F00020A870287838B110218DF8081020682B
S3152021780000F004F800202870F7BD38686946FEF795
S3152021781002B8000000002E40DFF8B003DFF8B023C5
S31520217820017B00235370117090F8290410B10800B0
S3152021783018BF0120704770B5002406460846012846
S31520217840DFF88833114603F5856514D009281ED023
S315202178500A2827D00B2845D00C2848D00D284BD0D4
S315202178600E284ED00F2851D0102854D0152827D095
S3152021787016282AD054E06C7029460220FEF79EFA5B
S3152021788000284DD129783046FFF7FFF948E0002915
S3152021789046D0012068700A789868AA700978FDF781
S315202178A028FD3DE0687800283AD008880246000A5B
S315202178B036D19868EA70D2B20021FDF730FD2FE04B
S315202178C000292DD0A87808702AE0002928D00A88F6
S315202178D0130A05D1E87802F47F4202430A801FE089
S315202178E005241DE0E1B13046FFF7A5F917E0B9B12E
S315202178F03046FFF7A6F912E091B13046FFF7ABF9F2
S315202179000DE069B13046FFF78BF908E041B13046E9
S31520217910FFF788F903E019B13046FFF78AF90446C3
S31520217920204670BDF8B500BFB6A2A84C127840F209
S315202179302C412046A74E8DF800201546F4F762FAF1
S31520217940F3F74BFC0028F06800690CD190F89C10C5
S3152021795001F0EF0180F89C10F0680069C16821F0E0
S315202179601001C16026E030F8A01F4FF6FF72438830
S31520217970934208BF914209D0974A11720188090A78
S315202179805172438893724188090AD172406893497A
S31520217990934E10F1010F08BF92480860002204F58A
S315202179A08560A26002803146226022460220FEF7AF
S315202179B057F908B10120F2BD306841682046A160FF
S315202179C0FDF7BCFC290003D44020874A505406E009
S315202179D0864E05F00F004023371807F8043C00296E
S315202179E008D4012005F01F0500FA05F5804A49092A
S315202179F042F821502068FDF7A3FF0020F2BD38B5BB
S31520217A0004460220FEF7A4F938BB7048FDF79AFCFC
S31520217A1061687848012330F911100A46002A0BD4CF
S31520217A2001F01F0103FA01F1734D520945F8221085
S31520217A30BFF34F8FBFF36F8F616830F911000100BB
S31520217A4006D400F01F0083406C48490940F82130B4
S31520217A506B48016889088900016031BD5C48002195
S31520217A600170012242700270704710B5574C0021D7
S31520217A7004F11400F6F742F8002104F11800F6F774
S31520217A803DF804F11400F6F748F8002010BDF8B5AA
S31520217A900C00154618BF002D01D10420F2BD00206F
S31520217AA0286013B1012B02D02BE0012600E002260B
S31520217AB04748017859B3454FB87B38B1B86840F269
S31520217AC0FD3307F120020221FDF7FCFD01204FF0B5
S31520217AD0FF31B87307F11400F6F715F897F820004F
S31520217AE0B04204D0012E08BF02280AD15AE007F15C
S31520217AF02201FA690878497840EA0120121F824238
S31520217B0001D20120F2BD07F1240121602860002045
S31520217B10F2BDF8B50C462E490878154600283FD0E7
S31520217B2040F2F932954201D30420F2BD13B1012B43
S31520217B300BD00CE00327F5F7FDFF244E707B40B1D7
S31520217B4000217173F5F7FCFF2CE00427F3E70120D0
S31520217B50F2BDF5F7F5FF06F1210000212A0A002CB6
S31520217B6086F82070017018BF002D4570827005D0CF
S31520217B702A46214606F12400F5F76CFE96F82204C2
S31520217B8001280DD1B06840F2FD3306F120020121F2
S31520217B90FDF787FD4FF0FF3106F11800F5F7B3FF0A
S31520217BA00020F2BD42F21270F2BD38B5446900239D
S31520217BB000220021A568A84731BD002070474FF437
S31520217BC07E70704701480068FFF7CFBDA03C00209A
S31520217BD0D0420020100000204C060020643B0020CB
S31520217BE0440000205407002000E400E018ED00E0C6
S31520217BF000E100E06407002080E100E080E200E06F
S31520217C0080C00F407100000000F00DF8002801D03F
S31520217C1000F00CF8AFF300800020AFF30080F5F7D9
S31520217C202DFFF5F769FF01207047000010B50749A0
S31520217C3079441831064C7C44163404E00A68081D20
S31520217C40114488470146A142F8D110BD18000000F1
S31520217C5034000000FFF7FEBFAFF30080AFF30080B2
S31520217C60FFF7D2FF0F41FFFFD43A00000008002082
S31520217C70000000009741FFFF0C00000002040000D5
S31520217C800000002010034DB620205B04100F7CAC91
S31520217C9020203418002064AD202050000020A0048C
S31520217CA012E00C12000812000142980C71013001D9
S31520217CB0395221101003F805002038245003377833
S31520217CC0212001211003FFFF0300110C52804011B6
S31520217CD01082201012201092231020040060FFFF12
S31520217CE0FF6F3BD2346421016210553300010370AA
S31520217CF0022CAE2020692101F00202020000F43874
S31520217D0041011208175210C32240722127213E1108
S31520217D1036E00100040021E11F611AF1003711012B
S31520217D20910FB15EF1FF01F1FF01F1FF01F1CA01CE
S31520217D30FC0223A1C8202013041C0C40DCB311090A
S31520217D40022900010100C0320961041C0502030039
S31520217D50000309217404200C01224C00070581030C
S31520217D60FB0301070502071161210F210C10038353
S31520217D70024000040421012D9B044FC405BC05119A
S31520217D803E1300D40C212C210412E40C22F01011D4
S31520217D900DE0180600FF0901A1018501190129011C
S31520217DA0150026FF00752895CC9102850211B20374
S31520217DB011D00281028504113001C01201771002EF
S31520217DC040A21573091201031D1F0510080309047A
S31520217DD03A03460052004502100553004300410054
S31520217DE04C0A12200C100345004D00491210054F54
S31520217DF0004E004400550A12540C12521C124912EC
S31520217E00100143002E4D10012A03552A1242142116
S31520217E102810014D00500612532032544412440694
S31520217E2032564412452C10012E034D0A1255181292
S31520217E304814124408124718124E04325224E130B3
S31520217E4010012203428E21281253502124124E3210
S31520217E50C1012DEE05223A882160213411041F60AB
S31520217E60062807110412A00412CC0412FC041F3484
S31520217E7007D906110425AF21202138474807740048
S30A20217E800280FF7100C4
S70520216AF956
