S01200006C65645F626C696E6B792E73726563F5
S315600030000000022049560060DF4500601B510060E9
S315600030104F530060E15600600757006000000000F3
S315600030200000000000000000000000001357006070
S31560003030D558006000000000D7580060A7540060B3
S315600030402D570060355700603D570060455700605A
S315600030504D570060555700605D57006065570060CA
S315600030606D570060755700607D570060855700603A
S315600030708D570060955700609D570060A5570060AA
S31560003080AD570060CD580060CD580060CD580060E7
S31560003090B5570060BD570060C5570060CD570060EA
S315600030A0D5570060DD570060E5570060ED5700605A
S315600030B0F5570060FD570060055800600D580060C8
S315600030C0155800601D580060255800602D58006036
S315600030D0355800603D580060CD580060CD5800609E
S315600030E0CD580060CD580060CD580060CD58006066
S315600030F0CD580060CD580060CD580060CD58006056
S31560003100CD580060CD580060CD580060CD58006045
S31560003110CD580060CD580060CD580060CD58006035
S31560003120455800604D580060555800605D58006015
S3156000313065580060CD580060CD580060CD5800607D
S31560003140CD580060CD580060CD580060CD58006005
S31560003150CD580060CD580060CD580060CD580060F5
S31560003160CD580060CD580060CD580060CD580060E5
S31560003170CD580060CD580060CD580060CD580060D5
S31560003180CD580060CD580060CD580060CD580060C5
S31560003190CD580060CD580060CD580060CD580060B5
S315600031A0CD580060CD5800606D580060755800605D
S315600031B0CD580060CD580060CD580060CD58006095
S315600031C0CD580060CD580060CD580060CD58006085
S315600031D0CD580060CD580060CD580060CD58006075
S315600031E0CD580060CD580060CD5800607D580060B5
S315600031F085580060CD5800608D5800609558006015
S31560003200CD580060CD5800609D580060A55800609C
S31560003210CD580060CD580060CD580060CD58006034
S31560003220CD580060CD580060CD580060CD58006024
S31560003230CD580060CD580060CD580060CD58006014
S31560003240CD580060CD580060CD580060CD58006004
S31560003250CD580060CD580060CD580060CD580060F4
S31560003260CD580060CD580060CD580060CD580060E4
S31560003270CD580060CD580060CD580060CD580060D4
S31560003280CD580060CD580060CD580060CD580060C4
S31560003290CD580060CD580060CD580060CD580060B4
S315600032A0AD580060B5580060BD580060CD580060EC
S315600032B0C5580060CD580060CD580060CD5800609C
S315600032C0CD580060CD580060CD580060CD58006084
S315600032D0CD580060CD580060CD580060CD58006074
S315600032E0CD580060CD580060CD580060CD58006064
S315600032F0CD580060CD580060CD580060CD58006054
S31560003300CD580060CD580060CD580060CD58006043
S31560003310CD580060CD580060CD580060CD58006033
S31560003320CD580060CD580060CD580060CD58006023
S31560003330CD580060CD580060CD580060CD58006013
S31560003340CD580060CD580060CD580060CD58006003
S31560003350CD580060CD580060CD580060CD580060F3
S31560003360CD580060CD580060CD580060CD580060E3
S31560003370CD580060CD580060CD580060CD580060D3
S31560003380CD580060CD580060CD580060CD580060C3
S31560003390CD580060CD580060CD580060CD580060B3
S315600033A0CD580060CD580060CD580060CD580060A3
S315600033B0CD580060CD580060CD580060CD58006093
S315600033C0CD580060CD580060CD580060CD58006083
S315600033D0CD580060CD580060CD580060CD58006073
S315600033E0CD580060CD580060CD580060CD58006063
S315600033F0CD580060CD580060CD580060FFFFFFFFDC
S3156000340070B50446A40E0246120A02F01F0200F0CE
S31560003410FF0303F1804303F57C231D68C0F34C363C
S315600034209640B54301EA5031C1F30C0191402943FE
S315600034301960202C09D940F28B320FF2AC610FF281
S31560003440906000F08FFBAFF30080202C05D0DFF892
S3156000345074050068E040C007F9D470BD70B50446D5
S31560003460A40E0246120A02F01F0200F0FF0303F1E7
S31560003470804303F57C231D68C0F34C369640B54304
S3156000348001EA5031C1F30C01914029431960202CA7
S3156000349009D94FF46C720FF250610FF2346000F08C
S315600034A061FBAFF30080202C05D0DFF818050068BB
S315600034B0E040C007F9D470BD70B504460D46264697
S315600034C0360A04F01F04082E09D340F2D2320FF2F6
S315600034D018610FF26C6000F045FBAFF30080DFF817
S315600034E0E80400EB860001680322A240914305FAD6
S315600034F004F40C43046070BD0021DDE7DFF8CC14F2
S3156000350008607047DFF8C814086070474FF480336E
S31560003510002AC1F30B4103D00818001D03607047F1
S3156000352008180830036070472DE9F8434FF40040EF
S31560003530FFF7E8FFDFF89C04016841F48031016021
S31560003540016821F400310160DFF88C04FFF7D6FFD3
S31560003550002000F051FB00F077FB012000F06AFBD1
S31560003560DFF878442068000A000240F07F0020609F
S31560003570DFF86C5401212846FFF742FFDFF86464E8
S3156000358001213046FFF73CFFDFF85C04C16849095A
S31560003590490141F01201C16001680029FCD50FF2B2
S315600035A0AC5000F058FB0FF2AC5000F074FB1B21DE
S315600035B0002000F08CFC1021012000F088FC18210E
S315600035C0022000F084FC1021032000F080FC00F053
S315600035D087FBDFF818740122DFF814143846FFF70A
S315600035E095FFDFF81084D8F8100020F40040C8F882
S315600035F01000D8F8100020F40000C8F81000386FEA
S3156000360040F40050386700F071FBDFF8EC93D9F8AE
S31560003610000040F48030C9F80000D8F8100020F0AF
S315600036204040C8F81000D9F8000040F40050C9F8CE
S31560003630000000F061FB0122DFF8C0133846FFF797
S3156000364065FFD9F840008008800040F00100C9F8A5
S315600036504000D9F8400040F40050C9F84000D9F85D
S31560003660400040F40010C9F8400000F034FB01222D
S31560003670DFF88C133846FFF749FF386A40F400508C
S3156000368038620021DF48FFF7E9FE4FF48870FFF7E4
S3156000369033FF4FF48470FFF72FFF40F21620FFF7D9
S315600036A02BFF4FF40670FFF727FF0321D648FFF77D
S315600036B0D5FE0121D548FFF7D1FE0321D448FFF797
S315600036C09FFE00213046FFF79BFE0021D148FFF7A1
S315600036D0C5FE00212846FFF793FE4FF48A70FFF778
S315600036E00BFF4FF48B70FFF707FF1820FFF704FFFF
S315600036F01A20FFF701FF4FF48670FFF7FDFE0121E8
S31560003700C548FFF7ABFE0021C448FFF779FE40F2DB
S315600037100260FFF7F1FE0121C148FFF79FFE00211D
S31560003720C048FFF76DFE40F20460FFF7E5FE012139
S31560003730BD48FFF793FE0021BC48FFF761FE4FF4DA
S315600037404170FFF7D9FE07214FF21400FFF786FE9E
S315600037500021B748FFF754FE0021B648FFF750FE38
S3156000376040F20270FFF7C8FE0021B348FFF776FE0D
S315600037700121B248FFF744FE40F20220FFF7BCFE8B
S315600037800121AF48FFF76AFE0021AE48FFF738FE19
S315600037904FF48070FFF7B0FE4FF48170FFF7ACFE18
S315600037A04FF48270FFF7A8FE4FF48370FFF7A4FE14
S315600037B00421A548FFF752FE0221A448FFF720FE28
S315600037C01620FFF799FE0221A148FFF747FE022166
S315600037D0A048FFF715FE40F21250FFF78DFE032159
S315600037E09D48FFF73BFE01219C48FFF737FE00210D
S315600037F09B48FFF705FE40F21450FFF77DFE03215C
S315600038009848FFF72BFE01219748FFF727FE002116
S315600038109648FFF7F5FD40F21650FFF76DFE03215F
S315600038209348FFF71BFE01219248FFF717FE002120
S315600038309148FFF7E5FD40F20620FFF75DFE4FF485
S315600038400270FFF759FE40F20A20FFF755FE00218D
S315600038508A48FFF703FE00218948FFF7D1FD0E2055
S31560003860FFF74AFE1220FFF747FE40F20670FFF7A9
S3156000387043FE1020FFF740FE1420FFF73DFE4FF495
S31560003880E160FFF739FE01217E48FFF7E7FD02217F
S315600038907D48FFF7B5FD4FF4A360FFF72DFE1C20B2
S315600038A0FFF72AFE0C20FFF727FE4FF48C70FFF718
S315600038B023FE40F20230FFF71FFE40F20630FFF7AC
S315600038C01BFE40F21A50FFF717FE40F20E60FFF73C
S315600038D013FE00216D48FFF7C1FD00216C48FFF71C
S315600038E08FFD40F20A30FFF707FE01216948FFF7B6
S315600038F0B5FD03216848FFF7B1FD05216748FFF76D
S315600039007FFD40F20E50FFF7F7FD01216448FFF797
S31560003910A5FD07216348FFF7A1FD03216248FFF774
S315600039206FFD40F20250FFF7E7FD01215F48FFF7A8
S3156000393095FD07215E48FFF791FD03215D48FFF77E
S315600039405FFD4FF44070FFF7D7FD01215A48FFF73E
S3156000395085FD07215948FFF781FD03215848FFF788
S315600039604FFD00215748FFF74BFDD8F8000040098E
S315600039704001C8F80000206E20F070002066206EBE
S315600039800009000140F001002066206E20F460000E
S315600039902066206E20F4F81040F490102066206EA9
S315600039A020F480702066206E20F080002066206EF5
S315600039B020F080702066444844490860BDE8F18381
S315600039C00000000048C00F4068C00F40040000209F
S315600039D008000020C0820D4000366E0100C00F4016
S315600039E0186C0080143900140000084000800D40F7
S315600039F00D00700060810D40A0800D400D00E0005C
S31560003A000D00200014EA00041468008010E00040F5
S31560003A101872008014FB00801CE007801C26008062
S31560003A2024EB00801C30008024F000801C31008074
S31560003A30142700801426008018FD00801868008016
S31560003A403CEB00803C69008018FA008018640080B6
S31560003A5024790080186E008028E6008028E00780C0
S31560003A601C6A00802CE600802CE007801C6C0080BD
S31560003A7028F6008028F007801C6E008038F30780E7
S31560003A803832008020E207802068008024E00780CA
S31560003A902426008038EC008018F7008038EF00801C
S31560003AA030F9008030F600803074008030EC0080A1
S31560003AB030E900803067008028E9008028F90080BE
S31560003AC0207300800C2000800046C3230000002085
S31560003AD0627573795368696674203C3D2028307836
S31560003AE03230552900000000443A5C7265735F69A4
S31560003AF02E6D7872745C53444B5F322E342E305F79
S31560003B0045564B2D4D494D585254313036305F49EC
S31560003B1041525F46554C4C5C646576696365735C7F
S31560003B204D494D585254313036325C64726976650F
S31560003B3072735C66736C5F636C6F636B2E68000098
S31560003B40696E646578203C3D2037000064000000A3
S31560003B5000000000010000000000000001000000FD
S31560003B600000000080B513460A46014602A000F038
S31560003B7039FA00BEFDE700004153534552542045D3
S31560003B8052524F52202220257320223A2066696CB9
S31560003B90652022257322204C696E652022256422C9
S31560003BA0200A0000DFF84C030068C00602D5DFF883
S31560003BB048037047DFF8440300687047090110EB5B
S31560003BC011500068000C00F0010070470A461201AF
S31560003BD010EB1250006801F01F01C84000F00100B0
S31560003BE07047090110EB11500068C0F3813000285E
S31560003BF000D1D7E70020704780B5002808D0992209
S31560003C000FF248310FF23430FFF7ACFFAFF30080AC
S31560003C10DFF8EC024FF080418160DFF8D812096866
S31560003C20C903FAD54FF48031416002681204FCD5AD
S31560003C30816001BDDFF8CC12002802D11020086037
S31560003C407047102048607047DFF8A802016841F0AD
S31560003C50010101607047DFF8B022116821F440412C
S31560003C6003799B0303F44043194341F480311160A7
S31560003C701368DFF898120B40007800F07F0003436A
S31560003C8043F40053136010680028FCD5106820F4D4
S31560003C90803010607047DFF87822116821F4404167
S31560003CA0037B9B0303F44043194341F48031116065
S31560003CB01368DFF860120B40007800F001000343E0
S31560003CC043F40053136010680028FCD5106820F494
S31560003CD08030106070470020DFF83C120860704743
S31560003CE04FF48050DFF83412086070474FF480500C
S31560003CF0DFF83412086070474FF48050DFF82C12FA
S31560003D00086070470000000070B50546DFF8F8618E
S31560003D1029463046FFF75AFF002801D1002070BDC2
S31560003D2029463046FFF75DFF044629463046FFF7D1
S31560003D3045FF002840F0C9800D3D1CD04FF480102F
S31560003D402D1A3DD02D1A00F0B7802D1A19D04FF4D8
S31560003D5080002D1A3CD04FF440102D1A69D04FF4D4
S31560003D6080002D1A00F09680ED1F00F09B806D1E7E
S31560003D7000F0A080A8E0306800F07F00444364084B
S31560003D80A3E096ED140A00EE904AB8EE601BB8EE1A
S31560003D90400B21EE000B96ED181AB8EE411B80EE33
S31560003DA0010B306BC00702D51620444302E004EBDA
S31560003DB084008400BCEEC00B10EE100A041984E087
S31560003DC03069800701D5162000E0142044437CE06A
S31560003DD0316F01F07F01564890ED000A00EE904A7F
S31560003DE0B8EE601BB8EE400B21EE000B90ED041AA6
S31560003DF0B8EE411B80EE010BBCEEC00B10EE100A54
S31560003E0001FB0404306F10F4C01003D0B0F5002F2E
S31560003E1002D002E0A40800E0640842480168404815
S31560003E200140B1F5004F02D0814231D04DE06408C7
S31560003E304BE03F4A116A01F07F0192ED0C0A00EEF9
S31560003E40904AB8EE601BB8EE400B21EE000B92ED87
S31560003E50101AB8EE411B80EE010BBCEEC00B10EEE3
S31560003E60100A01FB0404106A10F4C01003D0B0F508
S31560003E70002F02D002E0A40800E064082948006828
S31560003E8000F04040B0F1804FD1D0B0F1404F1CD12E
S31560003E90A4081AE02648006E00F0030041A151F81C
S31560003EA0204012E02248006EC0F381003DA151F827
S31560003EB020400AE01F4C08E0306A800701D51620D2
S31560003EC000E01420444300E00024204670BD10B496
S31560003ED0C000194A1468BF23834024EA0303802480
S31560003EE084401C43146001F03F0181401943116016
S31560003EF010BC704770820D4000366E0104000020D1
S31560003F0050810D4074820D4000800D4080EFFFFFB0
S31560003F1030800D40FEEFFFFF20800D4070800D4029
S31560003F200080800070810D40A0800D40E0800D40D3
S31560003F3080800D4040787D0100810D40216279705E
S31560003F406173735874616C4F73630000443A5C72BA
S31560003F5065735F692E6D7872745C53444B5F322E65
S31560003F60342E305F45564B2D4D494D5852543130A5
S31560003F7036305F4941525F46554C4C5C64657669A4
S31560003F806365735C4D494D585254313036325C64CA
S31560003F907269766572735C66736C5F636C6F636B14
S31560003FA02E63000040787D0180F0FA0200E1F5059D
S31560003FB040597307F8B504460D4616461F4630004D
S31560003FC007D152220FF2980121A0FFF7CBFDAFF384
S31560003FD000803B462A463146204601B0BDE8F040A7
S31560003FE000F070B80EB418B5A0B0044668468021DB
S31560003FF000F0CAF823A90FF21D036A46204600F0B6
S3156000400005F90146684600F06BF821B010BC5DF812
S3156000401010FB00002DE9F04104460D4616461F468A
S315600040204FF000080FE02968481C802804D320461A
S3156000403000F056F800202860286826542868401C3E
S31560004040286008F10108B845EDDBBDE8F0810000A5
S3156000405064657669636520213D2030550000000067
S31560004060443A5C7265735F692E6D7872745C534412
S315600040704B5F322E342E305F45564B2D4D494D5891
S315600040805254313036305F4941525F46554C4C5C34
S31560004090646576696365735C4D494D585254313039
S315600040A036325C7574696C69746965735C66736C69
S315600040B05F64656275675F636F6E736F6C652E6351
S315600040C0000000001CB514461A4600908DF80410D6
S315600040D000232146684600F0BDF9002016BD0000A9
S315600040E038B504460D46002C40F0098040F2251292
S315600040F00FF238010AA0FFF735FDAFF300802946BD
S315600041002046BDE8344010B50C0007D0002805D025
S31560004110012200F0C8F9002800D00024204610BD16
S3156000412062756620213D203000000000443A5C72D2
S3156000413065735F692E6D7872745C53444B5F322E83
S31560004140342E305F45564B2D4D494D5852543130C3
S3156000415036305F4941525F46554C4C5C64657669C2
S315600041606365735C4D494D585254313036325C75D7
S3156000417074696C69746965735C6C6F675C66736C33
S315600041805F6C6F672E630000002200F0D7B970B4D1
S3156000419004460025284604F8010B002A086814D056
S315600041A0002815D000282ED090FBF3F203FB1200F6
S315600041B0002802D43030014602E0C0433130014667
S315600041C0104604F8011B6D1CECE7039900280FD11B
S315600041D030202070012017E0612202E00A00FBD047
S315600041E041220A3A10180246304604F8012B6D1C2B
S315600041F0002808D0B0FBF3F603FB16000A28EDD2C0
S3156000420030300246F0E7284670BC70472DE9F64F1D
S315600042108DB00C469A46002100910D46019102919F
S31560004220064605E00123424601A90E98D047761C52
S3156000423096F80080B8F1000F00F0E280B8F1250F23
S31560004240F0D14FF0010B0027384605E007EB8702F7
S31560004250303901EB42010F46002840F0D58016F850
S31560004260011FA1F130020A2AF0D3761E5846F3E701
S3156000427016F8011F30390A29C0F0CC80761E5846E0
S31560004280C8E0761E16F8018FB8F1640F1AD0B8F13F
S31560004290690F17D0B8F1660F14D0B8F1460F11D078
S315600042A0B8F1780F0ED0B8F1580F0BD0B8F16F0F88
S315600042B008D0B8F1620F05D0B8F1700F02D0B8F12E
S315600042C0750F70D1B8F1640F02D0B8F1690F0ED1D5
S315600042D054F8040B0390584600900A23024603A93B
S315600042E004A8FFF754FF054604A828440090B8F1D7
S315600042F0580F02D0B8F1780F13D1B8F1780F01D109
S315600043004FF0000B54F8040B0290584600901023AF
S31560004310002202A904A8FFF73AFF054604A828442C
S315600043200090B8F16F0F08D0B8F1620F05D0B8F100
S31560004330700F02D0B8F1750F1DD154F8040B0290BE
S31560004340B8F16F0F01D108230AE0B8F1620F01D10D
S31560004350022305E0B8F1700F01D1102300E00A23B3
S31560004360CDF800B0002202A904A8FFF710FF0546A9
S3156000437004A8284400907F1B3B46202201A90E9882
S31560004380D047009800283FF452AF0E9FD046814632
S3156000439099F80000002841D0012319F8012901A9E4
S315600043A03846C047F4E7B8F1630F08D154F8040BF8
S315600043B0C0B25B46024601A90E98D04737E7B8F10E
S315600043C0730F7FF42FAF54F8049BB9F1000F3FF4DD
S315600043D02EAF484600F0E8F805467F1B3B46202294
S315600043E001A90E98D0470E9FD04699F80000002884
S315600043F018D05B4619F8012B01A93846C047F4E787
S3156000440001980FB0BDE8F08F16F8010F2E287FF4E3
S3156000441038AF002000287FF435AF29E70E97CDF836
S31560004420009004E70E9702E70029816903D041F402
S3156000443000218161704721F4002181617047002964
S31560004440816903D041F480218161704721F4802124
S3156000445081617047F0B585B004460D461646002C5E
S3156000446007D1E5220FF278011BA0FFF77BFBAFF3C4
S3156000447000802079174F387121683960022810D181
S31560004480684600F055FA009532466946386800F08D
S315600044904FF901213868FFF7C7FF01213868FFF738
S315600044A0CEFF05B0F0BD38B503460024094805794E
S315600044B0022D0BD10068002A0A46194602D000F088
S315600044C07DFA04E000F096FA044600E001242046F6
S315600044D032BD00000C0000203020213D20696F00B5
S315600044E0443A5C7265735F692E6D7872745C53448E
S315600044F04B5F322E342E305F45564B2D4D494D580D
S315600045005254313036305F4941525F46554C4C5CAF
S31560004510646576696365735C4D494D5852543130B4
S3156000452036325C7574696C69746965735C696F5CF5
S3156000453066736C5F696F2E630000000000B500BF94
S31560004540130096469446103928BFA0E80C50FAD856
S315600045505FEA417C28BF0CC048BF40F8042BC907FE
S3156000456028BF20F8022B48BF00F8012B00BD30B4ED
S31560004570002513E050F8042BD30744BFA9F10103CB
S315600045809A18091F042942F8045BFAD213468C076D
S3156000459044BF15809B1CC90748BF1D7050F8041B9B
S315600045A00029E7D130BC704700F10103810704D0D0
S315600045B010F8011B820781B1FAD10268A2F10131BC
S315600045C0914311F0803104BF50F8042FF6E709BA21
S315600045D0B1FA81F100EBD100401CC01A7047FEE7CA
S315600045E070B504460D462646360A04F01F04082EAA
S315600045F0C0F0098040F2D2320FF224011EA0FFF70C
S31560004600B1FAAFF30080DFF8A80400EB860001681A
S315600046100322A240914305FA04F40C43046070BD82
S31560004620443A5C7265735F692E6D7872745C53444C
S315600046304B5F322E342E305F45564B2D4D494D58CB
S315600046405254313036305F4941525F46554C4C5C6E
S31560004650646576696365735C4D494D585254313073
S3156000466036325C647269766572735C66736C5F63BE
S315600046706C6F636B2E680000696E646578203C3DE4
S31560004680203700000321ABE7816841F002018160B9
S31560004690816821F0020181607047000010B5002436
S315600046A0092C06D209A151F82410814201D0641C5C
S315600046B0F6E7092C07D37422DFF834140CA0FFF751
S315600046C051FAAFF30080204610BD000000000000E4
S315600046D0004018400080184000C018400000194093
S315600046E0004019400080194000C0194000001A407F
S315600046F0696E7374616E6365203C202873697A65A0
S315600047006F6628735F6C70756172744261736573EE
S3156000471029202F2073697A656F662828735F6C700D
S31560004720756172744261736573295B305D29290016
S315600047302DE9F04106460C461546002C08D1CA22E2
S315600047400FF200410FF25440FFF70CFAAFF300800E
S315600047502068002808D1CB220FF2E8310FF24440DE
S31560004760FFF700FAAFF30080207A042808DDCD2237
S315600047700FF2D0310FF24440FFF7F4F9AFF3008047
S31560004780607A042808DDCE220FF2B8310FF24C4071
S31560004790FFF7E8F9AFF30080226800273946042363
S315600047A028460D462AE003FB01FCB0FBFCFCE6460E
S315600047B01FFA8EFEBEF1000F01D14FF0010CE646E6
S315600047C01FFA8EFE0EFB03FEB0FBFEFEAEEB010E85
S315600047D0E0461FFA88F808F1010808FB03F8B0FB09
S315600047E0F8F8A1EB0801714502D28E460CF1010C76
S315600047F0724502D372461F4665465B1C2168202BB4
S31560004800D1D96420B1FBF0F000EB4000904202D2B7
S3156000481040F221508AE03046FFF740FF0FF2DC316C
S3156000482031F91000FFF72EFF3046FFF72DFF316993
S31560004830381F042801D241F40031DFF8D00201406C
S315600048407F1E3F0607F0F8570F43ADB2C5F30C0560
S315600048502F433761306920F000503061B169DFF86D
S31560004860B002014020790246E37B1B0203F4E06359
S315600048701A43A37B9B0003F004031A431143627936
S31560004880012A07D1002802D021F4006106E041F434
S31560004890006103E0002801D041F01001B161306988
S315600048A020F40050E179490301F400510843306176
S315600048B0607A217A41EA0041F162B06A40F088008C
S315600048C0B062B06A40F44040B062DFF84812706A85
S315600048D0627B120102F01002237B5B0103F020036E
S315600048E01A4310437062A07A002803D0706A40F0C1
S315600048F008007062E07A002803D0706A40F0010018
S315600049007062A079002801D0DFF80C12706901434B
S315600049107161B169207C002801D041F40021607C7E
S31560004920002801D041F48021B1610020BDE8F0810A
S3156000493010B5040009D14FF4E4720FF208210FF2AA
S315600049405C20FFF70FF9AFF300804FF4E130206091
S31560004950002020716071A071E07120726072A07297
S31560004960E07260732073A073E0732074607410BD8E
S3156000497001464869896A090C01F0C301084370471A
S3156000498010B50C46816A21F44031220402F44032AB
S31560004990114381624269DFF884110A40DFF87411BD
S315600049A021400A434261FFF7E3FF044202D040F22E
S315600049B01A5010BD002010BD0000000070B50546FD
S315600049C00C461646002C0FD140F28F220FF274115E
S315600049D035A0FFF7C7F8AFF3008005E0686900020D
S315600049E0FCD514F8010BE8613046461E0028F5D167
S315600049F070BD0000F8B506460D461746002D08D175
S31560004A0040F29E220FF23C1127A0FFF7ABF8AFF3FE
S31560004A100080B069010503D400F01200022801D1BC
S31560004A20012405E0002403E000F07F0005F8010B97
S31560004A303846471E00282FD0F06AC0F3026000286F
S31560004A402CD13046FFF794FF01030DD4410313D4F4
S31560004A50810319D4C003EFD54FF480313046FFF798
S31560004A608FFF4FF4A460F2BD4FF400213046FFF78C
S31560004A7087FF40F21D50F2BD4FF480213046FFF7AC
S31560004A807FFF40F21E50F2BD4FF400313046FFF713
S31560004A9077FF40F21F50F2BD0020F2BD002CF06996
S31560004AA0C2D105F8010BC3E76461746100000000C0
S31560004AB068C00F401A4A51681A48526A1047184A25
S31560004AC091681948526A1047154AD1681748526A60
S31560004AD01047134A11691648526A1047104A5169BD
S31560004AE01448526A10470E4A91691348526A104731
S31560004AF0444B00600A4AD1691048526A1047000068
S31560004B00074A116A0E48526A1047000000E0FFE04B
S31560004B10E8F8FFFF00C01FC000C01FE0FF3FE03F96
S31560004B2014000020004018400080184000C0184063
S31560004B3000001940004019400080194000C019402B
S31560004B4000001A40443A5C7265735F692E6D787234
S31560004B50745C53444B5F322E342E305F45564B2D7A
S31560004B604D494D585254313036305F4941525F4657
S31560004B70554C4C5C646576696365735C4D494D580C
S31560004B805254313036325C647269766572735C6633
S31560004B90736C5F6C70756172742E6300636F6E66A2
S31560004BA069670000636F6E6669672D3E6261756452
S31560004BB0526174655F4270730000000028342920DA
S31560004BC03E3D20636F6E6669672D3E747846696602
S31560004BD06F57617465726D61726B000028342920AD
S31560004BE03E3D20636F6E6669672D3E7278466966E4
S31560004BF06F57617465726D61726B0000FFFF180517
S31560004C001C000C001801020306031A050E060000BC
S31560004C1070B504460D462646360A04F01F04082E73
S31560004C20C0F0098040F2D2320FF26C1157A0FEF745
S31560004C3099FFAFF30080064800EB86000168032207
S31560004C40A240914305FA04F40C43046070BD000071
S31560004C5068C00F400321DBE75AE0000010B500246E
S31560004C600A2C06D28AA151F82410814201D0641C14
S31560004C70F6E70A2C07D33A220FF2B0115CA0FEF7D2
S31560004C8071FFAFF30080204610BD0000F8B5044602
S31560004C900D461646FFF7E2FF87A131F91000FFF7D0
S31560004CA0D9FF0127AF40F9436069084060613078F9
S31560004CB0002803D160680140616007E07278294688
S31560004CC0204600F009F8606807436760B2782946B5
S31560004CD02046BDE8F840BFE770B504460D46164667
S31560004CE0202D08D35FF05A020FF2401165A0FEF73F
S31560004CF039FFAFF30080012000FA05F5002E206829
S31560004D0003D120EA0505256070BD0543256070BDA9
S31560004D1030B4012404FA01F5C369AB43C3611029B9
S31560004D2002D200F10C0302E000F110031039521EAA
S31560004D30042A29D8DFE802F0030A131E25001A6840
S31560004D40032448008440A2431A601DE048001968A5
S31560004D5003228240914384400C431C6014E0480067
S31560004D601968032282409143022202FA00F0084346
S31560004D70186009E01A6803244800844022431A60D8
S31560004D8002E0C1690D43C56130BC7047696E6465F8
S31560004D9078203C3D20370000443A5C7265735F6959
S31560004DA02E6D7872745C53444B5F322E342E305FB6
S31560004DB045564B2D4D494D585254313036305F492A
S31560004DC041525F46554C4C5C646576696365735CBD
S31560004DD04D494D585254313036325C64726976654D
S31560004DE072735C66736C5F636C6F636B2E680000D6
S31560004DF0696E7374616E6365203C202873697A6599
S31560004E006F6628735F6770696F4261736573292087
S31560004E102F2073697A656F662828735F6770696F7C
S31560004E204261736573295B305D292900443A5C727F
S31560004E3065735F692E6D7872745C53444B5F322E76
S31560004E40342E305F45564B2D4D494D5852543130B6
S31560004E5036305F4941525F46554C4C5C64657669B5
S31560004E606365735C4D494D585254313036325C64DB
S31560004E707269766572735C66736C5F6770696F2E54
S31560004E806300000070696E203C2033320000000031
S31560004E900000000000801B4000C01B4000001C405A
S31560004EA000401C4000000C400000004200400042F0
S31560004EB00080004200C00042FFFF1A011E001A0275
S31560004EC00C031E01BFF34F8FBFF36F8F0020854920
S31560004ED00860BFF34F8FBFF36F8F8348016841F45B
S31560004EE000310160BFF34F8FBFF36F8F704730B4EF
S31560004EF07D4900200867BFF34F8FCA6EC2F34E33F9
S31560004F007A4DC2F3C90443F6E07000EA431040EA02
S31560004F10847028602046441E0028F4D11846431E3B
S31560004F200028EED1BFF34F8F086840F480300860E8
S31560004F30BFF34F8FBFF36F8F30BC704710B56A4CAD
S31560004F40606F40F47000606769490A894FF6FE70C9
S31560004F5002400A81674A1389034013810888400723
S31560004F6004D50B884FF6FB7003400B801088400712
S31560004F7004D511884FF6FB70014011805E485F4989
S31560004F8041604FF6FF718160016821F0800141F058
S31560004F90200101605A480168C90703D501684908BC
S31560004FA0490001602068800301D4FFF78BFF206809
S31560004FB0C00301D4FFF79BFFBDE8104000F0ACB81A
S31560004FC070B5504C504A6068800129D5A06810F4CD
S31560004FD0405006D0B0F5805F17D0B0F5005F16D0B0
S31560004FE016E01069C003106907D5C0F38130002848
S31560004FF001D146490DE000210BE0800701D516215D
S3156000500000E014214148414303E0404901E0106B50
S3156000501000216068C0F3C260401CB1FBF0F657E047
S315600050201068C00308D51068C0F38130002801D12C
S31560005030364D07E0002505E0156805F07F05334825
S3156000504045436D08106BC003106B07D5C0F3813004
S31560005050002801D12D4E08E0002606E0C00701D5E4
S31560005060162600E0142629484643106D2749A1FB01
S315600050700001126E002300F051F88619A06810F442
S31560005080402025D0B0F5802F06D0B0F5002F0DD08A
S31560005090B0F5402F14D01AE01D480068C0F30540F3
S315600050A0B6FBF0F000EBC0014E0011E01848006856
S315600050B000F03F00B6FBF0F000EBC0014E0007E0E9
S315600050C0206800F00700401CB5FBF0F600E0002603
S315600050D06068C0F38220401CB6FBF0F00D490860A2
S315600050E070BD000050EF00E014ED00E060EF00E0FE
S315600050F000800B4000000D4000C00B4020C528D941
S3156000510010E000E010C00F4000800D4000366E01D8
S3156000511000810D40000000207047FEE7BBBBE1B197
S31560005120B2F5803F80F07E80022A1ED98C46B1FBA4
S31560005130F2F102FB11C31B0443EA1043B3FBF2FC1A
S3156000514002FB1C3380B240EA0343B3FBF2F002FB7E
S31560005150103240EA0C4000237047022A05D9844683
S31560005160B0FBF2F002FB10C270474AB105D100F005
S31560005170010249085FEA3000704700220023704749
S3156000518000F0E4B80B000200002100207047904256
S3156000519071EB030CF6D3B3F5803F2FD2F0B5B3FABB
S315600051A083F7B1FA81F4A7F10F0E3D1B5340CEF1A0
S315600051B0200602FA0EF2F3415340B5F10F0746D8C6
S315600051C00F3C2C444140C4F12006A040F1414140CF
S315600051D0B1FBF3F603FB1611A2FB0645001BA941C2
S315600051E002D2761E8018594180EA010221FA0EF336
S315600051F062FA0EF200215A403046F0BD30B4B1FB7F
S31560005200F3FC03FB1C11A2FB0C45001BA94103D256
S31560005210ACF1010C8018594130BC02460B46604621
S3156000522000217047B2F1807F65D3F0B5B2FA82F79C
S31560005230B1FA81F4C7F10F063D1B22FA06F307F1B6
S31560005240110EF24120355A40B5F10F07B8D94140E9
S31560005250C4F12006A040F1414140B1FBF3FC03FBE1
S315600052601C11A2FB0C45001BA94103D2BCF1010C29
S31560005270801859410F2F12D30F3FC90341EA50419D
S31560005280B1FBF3F603FB1611A2FB0645D4EBC03067
S31560005290A94102D2761E8018594146EACC3C07B332
S315600052A04140C7F12006B840F1414140B1FBF3F6F9
S315600052B003FB1611A2FB0645001BA94102D2761E0E
S315600052C08018594180EA010221FA0EF3C7F12004E1
S315600052D062FA0EF20CFA07F05A402CFA04F13043E7
S315600052E0F0BD80EA010221FA0EF3002162FA0EF2A5
S315600052F060465A40F0BD8C46B1FBF2F102FB11C329
S315600053001B0243EA1063B3FBF2FC02FB1C331B0275
S315600053104CEA002043EA1063B3FBF2FC02FB1C3349
S315600053201B024CEA002043EA1063B3FBF2FC02FB6B
S315600053301C331B024CEA002043EA1063B3FBF2FC09
S3156000534002FB1C324CEA0020002370477047FEE7E0
S3156000535070B504460D462646360A04F01F04082E2C
S31560005360C0F0098040F2D2320FF2A00124A0FEF70D
S31560005370F9FBAFF300801F4800EB8600016803224B
S31560005380A240914305FA04F40C43046070BD032106
S31560005390DEE710B4029C01F00F01240104F0100452
S315600053A021430160002A00D0136010BC704700984A
S315600053B0002801D001990160704700003EB540F2B7
S315600053C00240FFF7E4FF0C4C0C4D00200190009565
S315600053D00346024605212046FFF7DBFF41F2B00097
S315600053E00190009500231A4605212046FFF7DFFF4E
S315600053F037BD000068C00F40E0801F40D0821F406C
S31560005400696E646578203C3D20370000443A5C72E2
S3156000541065735F692E6D7872745C53444B5F322E90
S31560005420342E305F45564B2D4D494D5852543130D0
S3156000543036305F4941525F46554C4C5C64657669CF
S315600054406365735C4D494D585254313036325C64F5
S315600054507269766572735C66736C5F636C6F636B3F
S315600054602E6800000901020002D431488154704759
S31560005470304802F00F02104400F8041C704710B563
S31560005480401EB0F1807F01D3012010BD2A4C6060C0
S315600054900F214FF0FF30FFF7E5FF0020A0600720E7
S315600054A02060002010BD25490868002802D00868E1
S315600054B0401E086070472149086008680028FCD1D2
S315600054C07047000038B500BF20A000680090FFF765
S315600054D075FFFEF729F800F086F8FFF771FD184CA6
S315600054E06A4609212046FFF7D1FB164800684FF44B
S315600054F07A71B0FBF1F0FFF7C2FF0028124D07D0BA
S31560005500FEE7002209212046FFF7E6FB002028700F
S315600055104FF49670FFF7CFFF28780028F1D101226B
S3156000552009212046FFF7D8FB01202870F0E700002C
S3156000553000E400E018ED00E010E000E03C00002030
S3156000554000801B4000000020400000200100000099
S3156000555001460A46120A02F01F0201F0FF0000F13E
S31560005560804000F57C200068C1F34C3191400840D2
S31560005570D040704701460A46120A02F01F0201F047
S31560005580FF0000F1804000F57C200068C1F34C31DB
S3156000559091400840D040704719480068C00601D560
S315600055A01848704718480068704738B5174C18484F
S315600055B0FFF7CEFF00280CD11648FEF7A5FB0621A3
S315600055C0B0FBF1F52046FFF7D5FF401CB5FBF0F0C8
S315600055D032BDFFF7E1FF05462046FFF7CBFF401CD3
S315600055E0B5FBF0F032BD80B5FFF7DFFF0346022260
S315600055F04FF4E1310848BDE80050FEF7DBBC00001F
S3156000560070820D4000366E010400002024E00780A1
S31560005610242600800D0010000040184030B450F879
S31560005620041B79B10268436802440830DC0744BF52
S31560005630A9F10104E31852F8045B43F8045B091FFF
S31560005640F9D1ECE730BC704772B605480549016090
S315600056500A6882F308880448804762B603480047B0
S3156000566008ED00E0003000603D4F006021570060AB
S3156000567010B5074979441831064C7C44163404E069
S315600056800A68081D114488470146A142F8D110BD39
S315600056902C0000004C0000004EF68851CEF200014E
S315600056A0086840F470000860BFF34F8FBFF36F8FD8
S315600056B04FF00070E1EE100A70470000B3EEFFFF96
S315600056C040000000040000200000000051FFFFFFC2
S315600056D004000000FC010000000000200000000043
S315600056E0FEE700000120C046002801D0FFF7C0FF9A
S315600056F0AFF300800020AFF30080FFF7E3FE00F019
S3156000570000F800F001B8FEE70746384600F002F8F8
S31560005710FBE7FEE72021090326311820ABBEF9E737
S31560005720AFF30080FFF7B8FFFFF7DCFF00480047E4
S31560005730CD58006000480047CD58006000480047DB
S31560005740CD58006000480047CD58006000480047CB
S31560005750CD58006000480047CD58006000480047BB
S31560005760CD58006000480047CD58006000480047AB
S31560005770CD58006000480047CD580060004800479B
S31560005780CD58006000480047CD580060004800478B
S31560005790CD58006000480047CD580060004800477B
S315600057A0CD58006000480047CD580060004800476B
S315600057B0CD58006000480047B54A00600048004781
S315600057C0BF4A006000480047C94A00600048004779
S315600057D0D34A006000480047DD4A00600048004741
S315600057E0E74A006000480047F54A00600048004705
S315600057F0014B006000480047CD58006000480047F4
S31560005800CD58006000480047CD580060004800470A
S31560005810CD58006000480047CD58006000480047FA
S31560005820CD58006000480047CD58006000480047EA
S31560005830CD58006000480047CD58006000480047DA
S31560005840CD58006000480047CD58006000480047CA
S31560005850CD58006000480047CD58006000480047BA
S31560005860CD58006000480047CD58006000480047AA
S31560005870CD58006000480047CD580060004800479A
S31560005880CD58006000480047CD580060004800478A
S31560005890CD58006000480047CD580060004800477A
S315600058A0CD58006000480047CD580060004800476A
S315600058B0CD58006000480047CD580060004800475A
S315600058C0CD58006000480047CD580060FFF7FEBF26
S30D600058D000A4781FFEE7FEE765
S7056000572122
