S01300006C65645F626C696E6B6C792E7372656388
S21408A00000003000E1CE08007BBE0800E3BE080072
S21408A010EBBE0800F3BF0800BBC708006FC90800FE
S21408A020000028000000000000000000BFCA08006A
S21408A0308FD0080000A008009BD0080049C8080078
S21408A040C5D20800CDD20800D5D20800DDD2080057
S21408A050E5D20800EDD20800F5D20800FDD20800C7
S21408A06005D308000DD3080015D308001DD3080033
S21408A07025D308002DD3080035D308003DD30800A3
S21408A08045D308004DD3080055D308005DD3080013
S21408A09065D308006DD3080075D308007DD3080083
S21408A0A085D308008DD3080095D308009DD30800F3
S21408A0B0A5D30800ADD30800B5D30800BDD3080063
S21408A0C0C5D30800CDD30800D5D30800DDD30800D3
S21408A0D0E5D30800EDD30800F5D30800FDD3080043
S21408A0E005D408000DD4080015D408001DD40800AF
S21408A0F025D408002DD4080035D408003DD408001F
S21408A10045D408004DD4080055D408005DD408008E
S21408A11065D408006DD4080075D408007DD40800FE
S21408A12085D408008DD4080095D408009DD408006E
S21408A130A5D40800ADD40800B5D40800BDD40800DE
S21408A14055D20800DFF8C0097047DFF8C009704725
S21408A150DFF8BC090068002803D1DFF8B8090068F2
S21408A16000E000207047DFF8B0097047DFF8AC0958
S21408A1700068C00702D54FF4004000E00020704792
S21408A18080B5DFF89C09006810F0070F0AD0FFF7C3
S21408A190EAFFDFF89019096801F0FF01491CB0FBD7
S21408A1A0F1F001E04FF4004002BD30B40100002495
S21408A1B00025022D27D22000C0B2002823D128006F
S21408A1C0C0B20001C14011F0004011F40042104333
S21408A1D0002807D00805000D00F1804010F504306F
S21408A1E0030006E00805000D00F1804010F58050D9
S21408A1F00300080503D0C1F30230186001E001200F
S21408A20004006D1CD5E730BC7047002806D502054B
S21408A210120D02F1804212F5043205E00205120D15
S21408A22002F1804212F58052136853F0005313600F
S21408A230002904D1136853F08043136001E04B1ED5
S21408A24013601368002BFCD47047F8B50026DFF8B7
S21408A2503C0A006810F00700002803D0022809D03E
S21408A26004D30CE0FFF76EFF060008E0FFF770FF68
S21408A270060004E0FFF769FF40080600FFE7DFF87E
S21408A280107A3868C00711D4DFF8080A0068A0FBFF
S21408A2900601DFF8542A1268002300F08DFE040039
S21408A2A00D003868C0F307404643A6193000F2BDD3
S21408A2B010B50400FFF7C9FF01002000C0B200284F
S21408A2C005D002281BD00ED3032824D02FE0122056
S21408A2D0A0FB0101DFF8142A126812F03F020023DF
S21408A2E000F06AFE24E01220A0FB0101DFF8FC293A
S21408A2F01268C2F30522002300F05EFE18E0122062
S21408A300A0FB0101DFF8E4291268C2F30542002326
S21408A31000F052FE0CE01220A0FB0101DFF8CC2969
S21408A3201268C2F30562002300F046FE00E0002033
S21408A33010BDF8B50026DFF8B809006810F0070069
S21408A340002803D0022809D004D30CE0FFF7FAFE51
S21408A350060008E0FFF7FCFE060004E0FFF7F5FE3F
S21408A36040080600FFE7DFF88C793868C00711D484
S21408A370DFF884090068A0FB0601DFF8A02A126847
S21408A380002300F019FE04000D003868C0F30740EB
S21408A3904643A6193000F2BD10B50400FFF7C9FF02
S21408A3A001002000C0B2002805D002281BD00ED31A
S21408A3B0032824D02FE01220A0FB0101DFF8B82ADA
S21408A3C0126812F03F02002300F0F6FD24E0122087
S21408A3D0A0FB0101DFF8A02A1268C2F305220023B9
S21408A3E000F0EAFD18E01220A0FB0101DFF8882A39
S21408A3F01268C2F30542002300F0DEFD0CE01220CE
S21408A400A0FB0101DFF8702A1268C2F30562002378
S21408A41000F0D2FD00E0002010BD10B50024DFF8E3
S21408A420000A006810F00300002805D0022826D08D
S21408A43021D3032828D02BE0DFF8A40A006810F000
S21408A4400300002805D002280CD007D303280DD017
S21408A45010E0FFF77AFE800804000BE0FFF778FEAE
S21408A460040007E0FFF77FFE040003E0FFF76DFE39
S21408A4700400FFE70CE0FFF765FE040008E0002094
S21408A480FFF716FF040003E0FFF770FE0400FFE77F
S21408A490200010BD10B50024DFF8E009006810F0B1
S21408A4A00300002805D0022826D020D3032828D069
S21408A4B02BE0DFF8381A0868002803D1FFF742FEB9
S21408A4C0040013E00868012803D1FFF741FE0400E2
S21408A4D00CE00868022803D1FFF745FE040005E0F3
S21408A4E00868032802D1FFF730FE04000DE00020BC
S21408A4F0FFF7DEFE040008E00120FFF7D9FE04009F
S21408A50003E0FFF733FE0400FFE7200010BD10B598
S21408A5100024DFF8D009006810F00700002806D0ED
S21408A520012822D0032825D0052828D02CE0DFF8DB
S21408A530B8190868002803D1FFF704FE040013E0E2
S21408A5400868012803D1FFF703FE04000CE008683A
S21408A550022803D1FFF707FE040005E00868032871
S21408A56002D1FFF7F2FD04000EE00020FFF7A0FE80
S21408A570040009E00220FFF79BFE040004E0032025
S21408A580FFF796FE0400FFE7DFF86C09006800F0A6
S21408A590FF00401CB4FBF0F010BD10B50024DFF837
S21408A5A05009006810F00700002809D0022838D0A3
S21408A5B032D304283FD039D306284ED040D350E0B3
S21408A5C0DFF830190868002803D1FFF7BBFD040040
S21408A5D021E00868012803D1FFF7BAFD04001AE055
S21408A5E00868022803D1FFF7BEFD040013E00868D8
S21408A5F0032803D1FFF7A9FD04000CE00868042827
S21408A60003D1FFF70AFF040005E00868062802D110
S21408A610FFF740FF040024E00020FFF749FE04008F
S21408A6201FE00220FFF744FE04001AE00120FFF7AF
S21408A6303FFE040015E00320FFF73AFE040010E092
S21408A6400020FFF7A9FEDFF8B418096801F0FF013B
S21408A650491CB0FBF1F0040003E0FFF787FD040097
S21408A660FFE7DFF89C08006800F0FF00401CB4FB1A
S21408A670F0F010BD2DE9F84304005FF0000901254D
S21408A680002000210022062C12D2DFF87838660156
S21408A6909E5916F0070667011F447F68C7F3072709
S21408A6A05FEA441C6344D3F8048008F0FF081EE001
S21408A6B00E2C0ED1DFF850381E6816F00706DFF8A5
S21408A6C04C381F68C7F30727D3F8008008F0FF0840
S21408A6D00DE0DFF83C381E6816F00706DFF8343859
S21408A6E01F68C7F30727D3F8008008F0FF08002E76
S21408A6F005D0022E15D006D3032E16D019E0FFF784
S21408A7008CFE814615E0DFF81008006800F0FF00B0
S21408A710401C05000020FFF7CBFDB0FBF5F0814696
S21408A72007E0FFF70FFD814603E0FFF70EFD8146C1
S21408A730FFE718F10100A0FB090118EB070818F15C
S21408A7400102002300F038FCBDE8F28370B504006F
S21408A75000250020062C05D2DFF8A8176201114450
S21408A7608E6808E00E2C03D1DFF8B0170E6802E0FA
S21408A770DFF8AC170E68002E06D0022E0CD007D3D2
S21408A780042E1AD015D31DE0FFF7DCFC050019E0EF
S21408A790FFF7DBFC050015E00020FFF7FDFDDFF8FE
S21408A7A05C17096801F0FF01491CB0FBF1F00500D1
S21408A7B008E000F078F8050004E02000FFF75AFFEC
S21408A7C00500FFE7280070BD10B50024DFF8540721
S21408A7D0006810F00700002806D002280DD007D31E
S21408A7E0042813D00ED316E0FFF717FE040012E075
S21408A7F00020FFF75DFD04000DE00220FFF758FD7E
S21408A800040008E0FFF7A1FC040004E00320FFF7BB
S21408A8104FFD0400FFE7DFF81007006800F0FF00B0
S21408A820401CB4FBF0F010BD10B50024DFF8FC06A1
S21408A830006810F00700002808D002280FD009D3B7
S21408A840042815D010D3052817D023E0FFF7E5FD18
S21408A85004001FE00020FFF72BFD04001AE002208A
S21408A860FFF726FD040015E0FFF76FFC040011E073
S21408A8700320FFF71DFD04000CE00020FFF78CFD09
S21408A880DFF87816096801F0FF01491CB0FBF1F003
S21408A8900400FFE7DFF89806006800F0FF00401C99
S21408A8A0B4FBF0F010BD10B50024DFF88806006889
S21408A8B0C00703D4DFF88006006801E000F001F85E
S21408A8C010BD10B50024DFF874160868002803D1F8
S21408A8D0FFF73BFC04000EE0086801280BD10020B7
S21408A8E0FFF75AFDDFF81416096801F0FF01491C46
S21408A8F0B0FBF1F00400DFF84806006800F0FF003F
S21408A900401CB4FBF0F010BD80B5DFF838060068D0
S21408A910002802D1FFF727FC01E0FFF77EFD02BD05
S21408A92010B50024DFF820060068002805D00228A5
S21408A93013D00ED3032814D017E0FFF76EFDDFF808
S21408A9400C16096801F0FF01491CB0FBF1F0040081
S21408A9500BE0FFF708FC040007E0FFF707FC04001D
S21408A96003E0FFF7EFFB0400FFE7200010BD70B51B
S21408A97004000D000026002C06D0022C0DD007D3AC
S21408A980042C13D00ED316E0FFF747FD060012E09E
S21408A9900020FFF78DFC06000DE00220FFF788FC7C
S21408A9A0060008E0FFF7D1FB060004E00320FFF7E7
S21408A9B07FFC0600FFE705F0FF056D1CB6FBF5F00B
S21408A9C070BD70B504000D000026002C02D0012CC6
S21408A9D004D007E0FFF721FD060003E0FFF7B5FB0C
S21408A9E00600FFE705F0FF056D1CB6FBF5F070BD29
S21408A9F010B50024DFF858150868002803D1FFF7BB
S21408AA00A7FB040005E00868012802D1FFF705FD4A
S21408AA100400DFF84005006800F0FF00401CB4FBA7
S21408AA20F0F010BD10B50024DFF82C05006810F013
S21408AA300700002809D002280FD00AD304281DD002
S21408AA4018D3062822D01DD324E0FFF77BFB04008A
S21408AA5020E0FFF77AFB04001CE00020FFF79CFCD0
S21408AA60DFF89814096801F0FF01491CB0FBF1F003
S21408AA7004000FE0FFF717FF04000BE0FFF773FB77
S21408AA80040007E0FFF77CFB040003E0FFF7C5FCC3
S21408AA900400FFE7DFF8C404006800F0FF00401C6D
S21408AAA0B4FBF0F010BD10B50024DFF8B40400685D
S21408AAB010F00700002806D002280CD007D3042878
S21408AAC012D00CD315E0FFF7A8FC040011E0FFF73E
S21408AAD039FB04000DE0FFF738FB040009E002200C
S21408AAE0FFF7E6FB040004E00320FFF7E1FB0400A1
S21408AAF0FFE7DFF87004006800F0FF00401CB4FBB6
S21408AB00F0F010BD000000000024F400006CDC0229
S21408AB106811004004001C0040420F00C0110040AD
S21408AB20301700403417004038B5040000252000D0
S21408AB30C0B200282CD001282AD0022834D00328F6
S21408AB4036D0042838D005283AD006283CD007281E
S21408AB503ED0082840D0092842D00A284AD00B28D8
S21408AB6052D00C2854D00D2856D00E2860D0102865
S21408AB7062D0112865D0122868D013286BD0142804
S21408AB806ED0152871D0162874D0172877D07BE099
S21408AB90FFF743FCDFF8D013096801F0FF01491CF2
S21408ABA0B0FBF1F005006FE0FFF78BFE05006BE0E9
S21408ABB0FFF7F3FC050067E0FFF7A9FC050063E074
S21408ABC0FFF702FE05005FE0FFF72EFE05005BE0DC
S21408ABD0FFF79AFE050057E0FFF7A2FE050053E0D0
S21408ABE0DFF888030168DFF888030068FFF7BFFE10
S21408ABF0050049E0DFF87C030168DFF87C0300689D
S21408AC00FFF7DFFE05003FE0FFF7F2FE05003BE03A
S21408AC10FFF708FF050037E0FFF73CFCDFF85C139A
S21408AC20096801F0FF01491CB0FBF1F005002BE0B4
S21408AC30FFF739FF050027E00020FFF787FD05002E
S21408AC4022E00120FFF782FD05001DE00220FFF745
S21408AC507DFD050018E00320FFF778FD050013E0EA
S21408AC600420FFF773FD05000EE00520FFF76EFDD4
S21408AC70050009E00E20FFF769FD050004E00F2037
S21408AC80FFF764FD0500FFE7280032BD001200400C
S21408AC90041200401012004010B4017806290CD2A5
S21408ACA0DFF8602243784C011351C378847854EA5D
S21408ACB003244B011A44546014E00E2909D1427843
S21408ACC0914B1A60C278837853EA02238F4A13603E
S21408ACD008E042788E4B1A60C278837853EA0223DB
S21408ACE08C4A136010BC70471412004018120040BB
S21408ACF00012024004120240101202405FF4C02103
S21408AD00DFF87C2211600278DFF878321A60426831
S21408AD10DFF874321A608268DFF870321A60027BD5
S21408AD20002A08D0022A16D00DD3042A23D01AD314
S21408AD30052A28D02FE0964A136833F47F0353F485
S21408AD408013136027E0924A136833F47F0353F4A2
S21408AD50881313601FE08E4A136833F47F0353F496
S21408AD60A013136017E08A4A136833F47F0353F47A
S21408AD70B01313600FE0864A136833F47F0353F466
S21408AD80D813136007E0824A136833F47F0353F43A
S21408AD9004131360FFE77E4A136833F00203136058
S21408ADA07C4A116000227C490B689BB219214B43F0
S21408ADB09A4202D200BF521CF5E77047F0B403006F
S21408ADC0DBB2764C2268BF261D00EDB2ED0016FAFF
S21408ADD005F532EA050580261A00D2B2D20096405A
S21408ADE02E4326600E00F6B216F03F061A00D2B2C0
S21408ADF0D20096402E432660402622681F00FFB2E7
S21408AE00FF0016FA07F73A42F6D027681A00D2B2B9
S21408AE10D20096403E432660F0BC704714120240AB
S21408AE203414004010B45FF4C011554A116002781B
S21408AE305B4B1A6042685B4B1A6082685A4B1A6012
S21408AE405A4A136833F47F03047B53EA04431360B7
S21408AE50136833F0020313604E4A11600022544907
S21408AE600B689BB219214B439A4202D200BF521C70
S21408AE70F5E710BC70470000181202403414024070
S21408AE80F0B40300DBB24B4C2268BF261D00EDB2BF
S21408AE90ED0016FA05F532EA050580261A00D2B244
S21408AEA0D20096402E4326600E00F6B216F03F06F5
S21408AEB01A00D2B2D20096402E4326604026226858
S21408AEC01F00FFB2FF0016FA07F73A42F6D02768C7
S21408AED01A00D2B2D20096403E432660F0BC7047B5
S21408AEE030140040D4160040D016004030140240FB
S21408AEF06417024060170240D8160040401202400D
S21408AF006817024000150240C0160240C4160240E8
S21408AF10E0160240E4160240FC160240C81602403C
S21408AF20E81602402016004024160040401600404E
S21408AF30441600401020024008001C00401702403B
S21408AF40441702402017004060170040641700406E
S21408AF5060160040641600400017024004170240BE
S21408AF60C0170240C4170240001400408416004070
S21408AF7080160040901702408017024000140240D6
S21408AF802026004000120040101200401412004014
S21408AF9004120040302600400C12004018120040F0
S21408AFA0001202401012024014120240041202401C
S21408AFB00C12024018120240BBBBE1B1B2F5803F4A
S21408AFC080F07E80022A1ED98C46B1FBF2F102FB85
S21408AFD011C31B0443EA1043B3FBF2FC02FB1C3309
S21408AFE080B240EA0343B3FBF2F002FB103240EAB9
S21408AFF00C4000237047022A05D98446B0FBF2F0BD
S21408B00002FB10C270474AB105D100F00102490898
S21408B0105FEA3000704700220023704700F0E4B86B
S21408B0200B000200002100207047904271EB030CD1
S21408B030F6D3B3F5803F2FD2F0B5B3FA83F7B1FA5B
S21408B04081F4A7F10F0E3D1B5340CEF1200602FAFD
S21408B0500EF2F3415340B5F10F0746D80F3C2C4487
S21408B0604140C4F12006A040F1414140B1FBF3F64F
S21408B07003FB1611A2FB0645001BA94102D2761E49
S21408B0808018594180EA010221FA0EF362FA0EF29C
S21408B09000215A403046F0BD30B4B1FBF3FC03FB48
S21408B0A01C11A2FB0C45001BA94103D2ACF1010CF4
S21408B0B08018594130BC02460B466046002170474E
S21408B0C0B2F1807F65D3F0B5B2FA82F7B1FA81F4AF
S21408B0D0C7F10F063D1B22FA06F307F1110EF241DF
S21408B0E020355A40B5F10F07B8D94140C4F12006BB
S21408B0F0A040F1414140B1FBF3FC03FB1C11A2FB4D
S21408B1000C45001BA94103D2BCF1010C801859411B
S21408B1100F2F12D30F3FC90341EA5041B1FBF3F694
S21408B12003FB1611A2FB0645D4EBC030A94102D298
S21408B130761E8018594146EACC3C07B34140C7F111
S21408B1402006B840F1414140B1FBF3F603FB161167
S21408B150A2FB0645001BA94102D2761E801859415B
S21408B16080EA010221FA0EF3C7F1200462FA0EF211
S21408B1700CFA07F05A402CFA04F13043F0BD80EA86
S21408B180010221FA0EF3002162FA0EF260465A40D6
S21408B190F0BD8C46B1FBF2F102FB11C31B0243EA79
S21408B1A01063B3FBF2FC02FB1C331B024CEA0020C4
S21408B1B043EA1063B3FBF2FC02FB1C331B024CEAA7
S21408B1C0002043EA1063B3FBF2FC02FB1C331B02AD
S21408B1D04CEA002043EA1063B3FBF2FC02FB1C3285
S21408B1E04CEA00200023704770472DE9F04F84464C
S21408B1F00D001400099E0020E2465FF0000B8AF856
S21408B20000B01AF1010A002C24D0D5F800B059462F
S21408B210002905D15FF0300B8AF800B0401C42E0E8
S21408B220002940D091FBF3FBDE4603FB1E1BBBF157
S21408B230000F05D55F467FEA070919F1310902E0D4
S21408B240D94619F1300971468AF800901AF1010AB0
S21408B250401CE5E7D5F800B05A46002A05D15FF04D
S21408B260300B8AF800B0401C1DE0002A1BD0B2FB49
S21408B270F3FBD84603FB182BBBF10A0F02D25F4636
S21408B280303709E03700FFB2002F01D0412700E031
S21408B29061270A3F17EB0B0742468AF800701AF137
S21408B2A0010A401CE1E7BDE8F08F2DE9F54F91B0A3
S21408B2B08B461F0000265FF0000800200290002042
S21408B2C08DF8040000200490DDF844A09AF80000E9
S21408B2D00500002D00F00D81252D07D0012328003C
S21408B2E00200D2B202A91298B847FFE001208DF8F2
S21408B2F0050000208146002003900398002813D1FB
S21408B3001AF1010A9AF800000500302D07DB3A2DDD
S21408B31005DA0A21B5F1300001FB0909EDE7BAF1B3
S21408B320010A01200390E8E7062005901AF10101BA
S21408B33008782E2819D1002005900020039003983D
S21408B340002813D1491C08780500302D09DB3A2D52
S21408B35007DA059A0A23B5F1300003FB02020592C4
S21408B360EDE7491E01200390E9E7491E11F1010A9D
S21408B3709AF800000500642D11D0692D0FD0662DAF
S21408B3800DD0462D0BD0782D09D0582D07D06F2D0F
S21408B39005D0622D03D0702D01D0752D72D1642D85
S21408B3A001D0692D11D1DBF800001BF1040B0690C3
S21408B3B09DF8050000900A23012206A908A8FFF7B1
S21408B3C014FF804608A840440600582D01D0782D62
S21408B3D016D1782D02D100208DF80500DBF8000084
S21408B3E01BF1040B04909DF8050000901023002222
S21408B3F004A908A8FFF7F9FE804608A840440600F6
S21408B4006F2D05D0622D03D0702D01D0752D27D154
S21408B410DBF800001BF1040B04906F2D03D1082005
S21408B4208DF804000EE0622D03D102208DF804008A
S21408B43008E0702D03D110208DF8040002E00A20E1
S21408B4408DF804009DF8050000909DF80430002251
S21408B45004A908A8FFF7C9FE804608A840440600C5
S21408B460B9EB0803202202A91298B847002E3DD04F
S21408B470307800283AD00123327802A91298B847C3
S21408B480761EF5E7632D0DD1DBF800001BF1040BE3
S21408B490C0B20790012307980200D2B202A91298F8
S21408B4A0B84723E0732D1AD1DBF800001BF1040B14
S21408B4B00400002C1AD0200000F03CF88046B9EBB7
S21408B4C00803202202A91298B847207800280DD031
S21408B4D00123227802A91298B847641CF5E70123CD
S21408B4E028000200D2B202A91298B8471AF1010A37
S21408B4F0ECE6029813B0BDE8F08F30B4002513E0F0
S21408B50050F8042BD30744BFA9F101039A18091F62
S21408B510042942F8045BFAD213468C0744BF158008
S21408B5209B1CC90748BF1D7050F8041B0029E7D1AB
S21408B53030BC704700F10103810704D010F8011BE6
S21408B540820781B1FAD10268A2F10131914311F064
S21408B550803104BF50F8042FF6E709BAB1FA81F132
S21408B56000EBD100401CC01A70473000010009B239
S21408B570C1F30721002908D0022910D00AD30429CC
S21408B58017D011D3052919D01DE001228240A14BFE
S21408B5901A6018E0012282409F4B1A6013E00122CD
S21408B5A082409E4B1A600EE0012282409C4B1A6035
S21408B5B009E0012282409B4B1A6004E00122824087
S21408B5C0994B1A60FFE7704702000800C0B20028CF
S21408B5D001D1012015E00800C0B2052806DAD2F825
S21408B5E0F80FC91CC84010F001000AE00800C0B2F5
S21408B5F0052805D1D2F8F80FC00910F0010000E0C0
S21408B6000020704738B504000025082D08DA87485A
S21408B61050F82500844201D1280009E06D1CF4E7A3
S21408B6205F228349834800F01FF9AFF300800020AB
S21408B63032BD70B505000E0014003100C9B22800EE
S21408B640FFF7C2FF002801D103201BE0D5F8F80F4A
S21408B650000709D5D5F8F80F10F007003100C9B271
S21408B660884201D001200DE0002C06D03000C0B280
S21408B67050F00800C5F8F80F03E03000C0B2C5F86F
S21408B680F80F002070BD70B504000D002000FFF70D
S21408B690B9FF0600002E01D504200FE0664830F9F1
S21408B6A01600FFF763FF654830F9160000F0AEF99C
S21408B6B000222900C9B22000FFF7BBFF70BD10B5F5
S21408B6C05F4C2068002806D1AF2259495E4800F032
S21408B6D0CBF8AFF300805B480168544800682268DE
S21408B6E0904710BD10B5564C6068002806D1BC229D
S21408B6F04F49564800F0B8F8AFF300805148416803
S21408B7004A4840686268904710BD10B54C4CA0681F
S21408B710002806D1C92246494D4800F0A5F8AFF3DF
S21408B72000804848816841488068A268904710BDF4
S21408B73010B5434CE068002806D1D6223C49454857
S21408B74000F092F8AFF300803E48C1683748C068FA
S21408B750E268904710BD10B5394C2069002806D11C
S21408B760E32233493C4800F07FF8AFF300803548C1
S21408B77001692E4800692269904710BD10B5304C03
S21408B7806069002806D1F1222949344800F06CF88F
S21408B790AFF300802B4841692448406962699047A6
S21408B7A010BD38B52E48FFF72DFF0400244D55F878
S21408B7B02400002807D14FF49B721D49294800F041
S21408B7C053F8AFF300801F4850F82410174850F875
S21408B7D0240055F82420904731BD38B52048FFF797
S21408B7E011FF0400164D55F82400002807D140F232
S21408B7F047120F491B4800F037F8AFF3008011488E
S21408B80050F82410094850F8240055F8242090478A
S21408B81031BD000040100040441000404810004071
S21408B82040100240441002404810024028D0080049
S21408B830A0CB08006AB50800A4D10800B4D1080057
S21408B8402C001C004C001C00CCD00800E4D00800DB
S21408B850FCD0080014D108002CD1080044D10800F8
S21408B8600060124008D0080070B504000D001600ED
S21408B87033002A002100024800F08AF900BEFDE7DE
S21408B88014CF0800F8B50400200000B2C0F307255E
S21408B890260036B206F0FF060127B740202E06D34C
S21408B8A02E2246494648FFF7DFFFAFF30080002DFB
S21408B8B008D0022D14D00CD3042D1FD017D3052D75
S21408B8C023D029E03F4807603F4800683842FBD04D
S21408B8D022E03E4807603E4800683842FBD01BE03E
S21408B8E03C4807603C4800683842FBD014E03B48B8
S21408B8F007603B4800683842FBD00DE039480760CF
S21408B900394800683842FBD006E0384807603848AF
S21408B91000683842FBD0FFE7F1BDF8B50400200008
S21408B92000B2C0F30725260036B206F0FF06012748
S21408B930B740202E06D3692220492148FFF794FFF6
S21408B940AFF30080002D08D0022D16D00DD3042D9D
S21408B95023D01AD3052D28D02FE0264807601A488A
S21408B960006838408742FAD027E02348076018481E
S21408B970006838408742FAD01FE02048076016481B
S21408B980006838408742FAD017E01D480760144818
S21408B990006838408742FAD00FE01A480760124815
S21408B9A0006838408742FAD007E017480760104812
S21408B9B0006838408742FAD0FFE7F1BDC8CC0800D7
S21408B9C0E4D1080040000040100000404400004059
S21408B9D014000040480000401800004040000240A4
S21408B9E01000024044000240140002404800024092
S21408B9F018000240700000407400004078000040C4
S21408BA0070000240740002407800024010B504003E
S21408BA10200000B2FFF736FF200000B2FFF77DFFD8
S21408BA2010BD010070B505000C0043F22156002D2C
S21408BA3007D14FF4DB7268496848FFF715FFAFF384
S21408BA400080002C07D140F2B71263496448FFF71C
S21408BA500BFFAFF3008022002900624800F0B0F91F
S21408BA60002801D05FF0FF34200070BD2DE9F041BA
S21408BA7004000D0016001F0000205FF00008B845FF
S21408BA8011DA2868401C802805D329682000FFF7AB
S21408BA90C9FF00202860286826542868401C2860AB
S21408BAA018F10108EBE7BDE8F0812DE9F14F88B001
S21408BAB00E001700984643F2215568464A49102258
S21408BAC000F098F9CDF8008001969DF820008DF8D2
S21408BAD00A008DF818703800C0B201281CD16846D4
S21408BAE007905FF01C0A5FF0000BDFF800914C46E9
S21408BAF05A465146200000F0C1F9C9F81090D9F806
S21408BB0010003B49086004A9D9F8100000F0C9F8ED
S21408BB100400002C0ED115E03800C0B2022801D16E
S21408BB20280032E03800C0B2032801D128002CE0F3
S21408BB3028002AE040F2992227492E48FFF794FE6B
S21408BB40AFF3008019F11401D9F8100000F0DEF800
S21408BB500500002D07D040F2A7221F492548FFF709
S21408BB6083FEAFF3008019F11801D9F8100000F031
S21408BB70F8F80400002C07D040F2B22216491D48F7
S21408BB80FFF772FEAFF30080002009B0BDE8F08F23
S21408BB900EB42DE9F841A0B004000025002668463A
S21408BBA0802100F09FF912480068002801D1002083
S21408BBB00BE027AF104B6A4639002000FFF775FBED
S21408BBC0804641466846FFF72DFF21B0BDE8F001E4
S21408BBD05DF810FB00000000C0CA08006CD2080020
S21408BBE024D2080020001C0094D108000C001C0079
S21408BBF028001C006CCF08006DBA08002DE9F0413B
S21408BC0005000C0016001F0043F22158002C0AD02D
S21408BC10287B012807D13A00310015F1080000F00A
S21408BC209CF98046FFE7404600B2BDE8F0812DE962
S21408BC30F04107000E001500002F09D140F211321E
S21408BC40DFF89011DFF89001FFF70EFEAFF30080E3
S21408BC50002E07D140F212325E496048FFF704FE14
S21408BC60AFF30080002D07D140F2133259495C48E3
S21408BC70FFF7FAFDAFF30080B846D8F80040002C6E
S21408BC8007D14FF4467253495648FFF7EDFDAFF318
S21408BC9000802B00320041462000FFF7AFFFBDE8CA
S21408BCA0F0812DE9F04704000D0043F22156002DDF
S21408BCB007D14FF44D7247494C48FFF7D5FDAFF30F
S21408BCC00080002C07D140F2393242494848FFF735
S21408BCD0CBFDAFF3008027005FF010085FF0000987
S21408BCE0BA464A464146504600F0C8F8287A38739D
S21408BCF0287A012806D1E96817F1080000F0F6F856
S21408BD000600FFE7300000B2BDE8F0872DE9F047EF
S21408BD1005000C00002D07D14FF474722D493448E5
S21408BD20FFF7A2FDAFF30080002C07D140F2D13216
S21408BD3028492948FFF798FDAFF300802E00270012
S21408BD405FF004085FF00009A2464A46414650469E
S21408BD5000F094F87068401C70603E600020BDE8F3
S21408BD60F0872DE9F04705000C00002D07D140F2BA
S21408BD70034218491E48FFF777FDAFF30080002CF2
S21408BD8007D140F2044213491748FFF76DFDAFF399
S21408BD9000802E0027003068002802D043F2225088
S21408BDA00CE05FF004085FF00009A2464A464146E8
S21408BDB0504600F063F837603E600020BDE8F08724
S21408BDC070B504000D001600320029002000FFF7A9
S21408BDD02EFF70BD04CC08003CD2080074D20800C0
S21408BDE07CD2080084D2080048D208008CD208000A
S21408BDF0F4D10800103A07D330B4B1E83810103A36
S21408BE00A0E83810F9D230BC530724BFB1E80810B0
S21408BE10A0E8081044BF51F8043B40F8043BD2079A
S21408BE2024BF31F8022B20F8022B44BF0B7803708E
S21408BE307047121F17D35B0009D151F8043B20F84E
S21408BE40023B1B0C121F20F8023BF6D20BE051F8FF
S21408BE50043B00F8013B1B0A20F8023B1B0C121F90
S21408BE6000F8013BF3D238BF121D521E24BF11F84A
S21408BE70013B00F8013BF8D87047FEE762F30F2253
S21408BE8062F31F42401810F0030308D0C91A1FD3E4
S21408BE90DB0748BF00F8012D28BF20F8022D130045
S21408BEA030B414461546103928BF20E93C00FAD8A5
S21408BEB0490728BF20E90C0048BF40F8042D890030
S21408BEC028BF20F8022D48BF00F8012D30BC704767
S21408BED0C91818BF00F8012DCB0728BF00F8012D98
S21408BEE07047FEE7002200F06BB8FEE7F8B584B0AE
S21408BEF004000D00002D06D18A222C492C48FFF795
S21408BF00B3FCAFF30080002C06D18B2227492948C2
S21408BF10FFF7AAFCAFF300802E0027007068019098
S21408BF20307A8DF80800707A8DF80900F07A8DF866
S21408BF300A00307B8DF80B0030680090B07A8DF8D8
S21408BF400C006946380000F05DF8002802D043F27D
S21408BF50215000E0002005B0F0BDF8B506000D0041
S21408BF601400002E07D140F20D1210491148FFF7B1
S21408BF707BFCAFF30080002D07D14FF487720B4986
S21408BF800D48FFF771FCAFF30080002C07D140F294
S21408BF900F1206490948FFF767FCAFF30080370021
S21408BFA022002900380000F0A3F8F2BD38CB0800BC
S21408BFB004D2080014D2080094D208009CD20800C4
S21408BFC000B500BF130096469446103928BFA0E86F
S21408BFD00C50FAD85FEA417C28BF0CC048BF40F82E
S21408BFE0042BC90728BF20F8022B48BF00F8012BEE
S21408BFF000BDFEE70100002901D1002001E042F65D
S21408C000AF7070477FB504000D00002C06D1DD2206
S21408C0104E494F48FFF728FCAFF30080002D06D1A5
S21408C020DE224A494B48FFF71FFCAFF30080287B07
S21408C030062806D3DF2245494748FFF715FCAFF325
S21408C0400080464E287B56F82000002806D1E022BD
S21408C0503E494348FFF708FCAFF30080684600F007
S21408C06005F968680090287A012803D102208DF81F
S21408C070040009E0287A022803D103208DF804007A
S21408C08002E000208DF80400687A012803D1012018
S21408C0908DF8050002E000208DF80500A87A002833
S21408C0A001D0012000E000208DF80800E87A00287A
S21408C0B001D0012000E000208DF8090000208DF84E
S21408C0C00A0000208DF80B002A686946287B56F877
S21408C0D0200000F04BF80600002E03D03000FFF7D3
S21408C0E089FF03E02100287B0870002004B070BD9B
S21408C0F0F8B506000D001400002E07D140F24512D0
S21408C10012491348FFF7B0FBAFF30080002D07D1A4
S21408C1104FF4A3720D491348FFF7A6FBAFF3008050
S21408C120002C07D140F2471208490F48FFF79CFB3E
S21408C130AFF3008037002200290008483B7850F803
S21408C140230000F00FF90020F2BD000088CD08009B
S21408C150A4D20800ACD20800E4CD08005CD10800E0
S21408C16094CF0800B4D20800BCD20800F8B5040082
S21408C1700D001600002C03D0002D01D0002E08D18B
S21408C180B722DFF83812DFF83802FFF76DFBAFF397
S21408C1900080002C03D0002D01D0002E01D10420F1
S21408C1A063E001212000FFF76EFA0700002F01D098
S21408C1B038005AE032002968200000F081F80100B3
S21408C1C0002901D0080050E0687A00281AD0D4F870
S21408C1D0000E50F00110C4F8000ED4F8080E30F423
S21408C1E07060C4F8080ED4F8080EAA7A120212F480
S21408C1F070621043C4F8080ED4F8080E50F0010018
S21408C200C4F8080E287A00281AD0D4F8000E50F081
S21408C2100210C4F8000ED4F8080E30F47020C4F8E3
S21408C220080ED4F8080EEA7A120412F470221043A4
S21408C230C4F8080ED4F8080E50F00200C4F8080E29
S21408C2402879000110F030006A79920112F0400255
S21408C2501043AA79920012F00C021043EA7950EAC9
S21408C260C23050F0010020600020F2BDF8B504008E
S21408C270002C09D140F20D12DFF84011DFF8440116
S21408C280FFF7F2FAAFF300800C25002627003200ED
S21408C29029003800FFF7F2FD5FF4E1302060002047
S21408C2A02071002060710120A0710020E07100203C
S21408C2B02072002060720020A0720020E072F1BD9B
S21408C2C02DE9F84F04000D0016005FF0FF3ACDF890
S21408C2D000A05FF00F09002C03D0002D01D0002E1F
S21408C2E009D14FF49A72DFF8D410DFF8DC00FFF7B4
S21408C2F0BBFAAFF30080002C03D0002D01D0002E2F
S21408C30001D104202CE0494608291ED3481C68435E
S21408C310B6FBF0F0401E0700B7F5803F13D24A1C64
S21408C320781C4243B6FBF2F08046454502D2B8EB8D
S21408C330050B01E0B5EB080B0098834503D2CDF852
S21408C34000B08946BA46491EDEE7BAF5803F02D3F2
S21408C35041F2516004E0C4F82890C4F820A00020F8
S21408C360BDE8F28F70B504000D001600002C01D051
S21408C370002D09D140F26712DFF84010DFF84C00B4
S21408C380FFF772FAAFF30080002C01D0002D00D121
S21408C39012E0D4F8000EC0070ED5002E09D0D4F847
S21408C3A0040E8006FBD52878C4F8200E6D1C761E71
S21408C3B0F3E7A0680007FCD570BD000028CD08008C
S21408C3C0A8CE080030D208006CCE080048D0080076
S21408C3D00100C9B2002906D00121714A1160002166
S21408C3E0704A116004E06E490A6852F002020A6058
S21408C3F070470100C9B2002905D06B490A6852F097
S21408C40001020A6004E068490A68520852000A6095
S21408C4107047664908607047F0B4002838D0644B07
S21408C4205FF480341C60D0F85C61F607FBD40668BD
S21408C43036F480460660066856F003060660002650
S21408C4403500C82D03DAD0F85C616D1CF9E706687C
S21408C45056F4804606600668B608B6000660554E6E
S21408C4603460554E3160554E376857F00057376080
S21408C470571E07F0FF0737603768002FFCD41C608C
S21408C480436A23F070434362036833F480430360CF
S21408C490F0BC704710B500244948FFF7BAFF494872
S21408C4A04FF4804101604FF4004101605FF4803131
S21408C4B001604FF4005101600120FFF789FF012059
S21408C4C0FFF797FF4048B0F1006F02D3B0F1805FE6
S21408C4D005D3B0F1C05F04D3B0F1005F01D23B488A
S21408C4E00400012203212000FFF796FF3848FDF7D5
S21408C4F05CFE3848002802D000BF401EFAE73648DF
S21408C500FEF7FCFB13210020FEF758FC1121012042
S21408C510FEF754FC18210220FEF750FC2F48FEF7C1
S21408C52081FC1A210020FEF7ABFC0F212C48FDF7F2
S21408C5306CFE02214FF48060FDF767FE42F234403D
S21408C540FDF733FE2748002802D000BF401EFAE752
S21408C5504FF4EC60FDF729FE022140F26470FDF707
S21408C56054FE022200212000FFF756FF1E48FDF762
S21408C5701CFE01211D48FDF748FE02211C48FDF758
S21408C58044FE08211B48FDF740FE1B48FDF70DFE3C
S21408C59064211A48FDF739FE00F050F810BD000077
S21408C5A06011004068110040C011004004001C00E3
S21408C5B0401000407010004020160040241600402E
S21408C5C000366E013026004095C40800004013402F
S21408C5D03034340420A1070074D1080084D1080040
S21408C5E04002008040AC270034240080000400800D
S21408C5F004040080FC06008064170080680700803A
S21408C60000204749096811F44021002909D0B1F5EE
S21408C610802F09D0B1F5002F09D0B1F5402F09D0E9
S21408C6200BE04049080008E03F49080005E03F499C
S21408C630080002E03E490800FFE77047F8B5002604
S21408C640002400253B48006810F00300002805D0A9
S21408C650022822D01ED3032854D057E03648006854
S21408C66010F00300002805D002280BD007D30328B3
S21408C6700BD00EE0FFF7C4FF8008060009E02F483D
S21408C680060006E02E48060003E0FFF7B9FF06009E
S21408C690FFE73BE02B48060038E02B48006810F020
S21408C6A00700002803D0022807D003D30AE025484D
S21408C6B0060007E02148060004E0FFF7A1FF40084F
S21408C6C00600FFE7214F3868C0070FD420480068E7
S21408C6D0A0FB06011F4A12680023FEF76DFC040043
S21408C6E00D003868C0F307404643A6191220A0FB81
S21408C6F00601194A126812F03F020023FEF75CFC96
S21408C700060003E04FF400400600FFE71348006801
S21408C71000F0FF00401CB6FBF0F011490860F1BDC0
S21408C72000110040006CDC0200751903007E5603F9
S21408C73000879303341400403014004000366E011E
S21408C74040420F000024F40000120040041200408B
S21408C7501012004014120040181200400014004046
S21408C76000001C0010B51048016851F00F01016068
S21408C7700E490A6840F6034002430A600C480168FE
S21408C780C90703D501684908490001600024032C3D
S21408C79006D25FF0FF30074941F82400641CF6E72C
S21408C7A000F00AF810BD00BF88ED00E08CED00E050
S21408C7B010E000E080E100E07047FEE710B40200F9
S21408C7C052B2002A05D44A01474B040064B21A55EF
S21408C7D008E04A01454B040064B214F00F042344F1
S21408C7E003F8042C10BC704710B50400601EB0F1A6
S21408C7F0807F01D301200EE0601E3D4908600721B6
S21408C8005FF0FF30FFF7DAFF00203A49086007209C
S21408C81039490860002010BD10B44C010444A354E4
S21408C82010BC704700EB810313F50C531A60704771
S21408C83000EB810313F502531A60704700EB81037F
S21408C84013F506531A6070472C490868002802D06A
S21408C8500868401E08607047284A1060116800295A
S21408C860FCD170471CB526480088ADF8000000F0DB
S21408C8705CF8FFF70FFE00F07BF82248FFF788F910
S21408C880214C0021200000F0BFF86B461A22002138
S21408C890200000F0E5F801231A2200212000FFF707
S21408C8A0BBFF4FF6FF7200212000FFF7C1FF5FF0C5
S21408C8B0FF3200212000FFF7C1FF144800684FF43C
S21408C8C07A71B0FBF1F0FFF78FFF002800D0FEE783
S21408C8D04FF47A70FFF7C0FF5FF0806200212000F7
S21408C8E0FFF7A0FFF4E7000000E400E018ED00E022
S21408C8F014E000E018E000E010E000E06C001C0027
S21408C90022BA0800B0D008000000104000001C0042
S21408C91030B40D00EDB28024654300EB0504150025
S21408C920EDB244F8253030BC7047F8B50124230032
S21408C930012200215FF04020FFF7EAFF41252B0087
S21408C940022200215FF04020FFF7E2FF00263300B6
S21408C9501A2200215FF04020FFF7DAFF40273B004D
S21408C9601B2200215FF04020FFF7D2FFF1BDFEE753
S21408C9701CB54FF44270FEF7D0FF0A4800680090D6
S21408C9806846FEF789F90848FDF70FFC1020FEF701
S21408C990CBF80400230001225FF4E1310020FFF702
S21408C9A084F813BDC8D4080008450080010009B201
S21408C9B0C1F30721002908D0022910D00AD3042978
S21408C9C017D011D3052919D01DE0012282401A4B31
S21408C9D01A6018E001228240184B1A6013E0012200
S21408C9E08240174B1A600EE001228240154B1A60EF
S21408C9F009E001228240144B1A6004E001228240BA
S21408CA00124B1A60FFE7704738B504000D00082D72
S21408CA1006D32E220E490F48FEF726FFAFF30080F6
S21408CA200D4830F91500FFF7C1FF0C4830F915001E
S21408CA30FEF7ECFF31BD00004010004044100040F7
S21408CA40481000404010024044100240481002407F
S21408CA5068CC08002CCE0800C4D10800D4D1080041
S21408CA6070B41C78002C0BD14FF4005400EB8105F1
S21408CA702D5901269640B54300EB810635511CE03A
S21408CA805C78002C07D10124944000EB810515F54D
S21408CA900A552C6006E00124944000EB810515F544
S21408CAA008552C604FF4005400EB81052D590126DB
S21408CAB09640354300EB8106355170BC7047FEE75B
S21408CAC0443A5C7265735F636869705F692E6D7857
S21408CAD072745F636D33335C53444B5F322E352E6E
S21408CAE0305F45564B2D4D494D5852543638355FB4
S21408CAF04941525F46554C4C5C646576696365737C
S21408CB005C4D494D585254363835535C7574696CCB
S21408CB1069746965735C64656275675F636F6E7375
S21408CB206F6C655C66736C5F64656275675F636F80
S21408CB306E736F6C652E6300443A5C7265735F6350
S21408CB406869705F692E6D7872745F636D33335CE5
S21408CB5053444B5F322E352E305F45564B2D4D498C
S21408CB604D5852543638355F4941525F46554C4CFD
S21408CB705C636F6D706F6E656E74735C73657269F7
S21408CB80616C5F6D616E616765725C736572696121
S21408CB906C5F706F72745F756172742E630000004C
S21408CBA0443A5C7265735F636869705F692E6D7876
S21408CBB072745F636D33335C53444B5F322E352E8D
S21408CBC0305F45564B2D4D494D5852543638355FD3
S21408CBD04941525F46554C4C5C646576696365739B
S21408CBE05C4D494D585254363835535C64726976F4
S21408CBF06572735C66736C5F666C6578636F6D6D83
S21408CC002E630000443A5C7265735F636869705F00
S21408CC10692E6D7872745F636D33335C53444B5F73
S21408CC20322E352E305F45564B2D4D494D585254B1
S21408CC303638355F4941525F46554C4C5C636F6DDC
S21408CC40706F6E656E74735C73657269616C5F6D28
S21408CC50616E616765725C73657269616C5F6D6150
S21408CC606E616765722E6300443A5C7265735F6333
S21408CC706869705F692E6D7872745F636D33335CB4
S21408CC8053444B5F322E352E305F45564B2D4D495B
S21408CC904D5852543638355F4941525F46554C4CCC
S21408CCA05C646576696365735C4D494D58525436C5
S21408CCB03835535C647269766572735C66736C5F4C
S21408CCC06770696F2E630000443A5C7265735F6331
S21408CCD06869705F692E6D7872745F636D33335C54
S21408CCE053444B5F322E352E305F45564B2D4D49FB
S21408CCF04D5852543638355F4941525F46554C4C6C
S21408CD005C646576696365735C4D494D5852543664
S21408CD103835535C647269766572735C66736C5FEB
S21408CD2072657365742E6300443A5C7265735F635C
S21408CD306869705F692E6D7872745F636D33335CF3
S21408CD4053444B5F322E352E305F45564B2D4D499A
S21408CD504D5852543638355F4941525F46554C4C0B
S21408CD605C646576696365735C4D494D5852543604
S21408CD703835535C647269766572735C66736C5F8B
S21408CD8075736172742E6300443A5C7265735F63F0
S21408CD906869705F692E6D7872745F636D33335C93
S21408CDA053444B5F322E352E305F45564B2D4D493A
S21408CDB04D5852543638355F4941525F46554C4CAB
S21408CDC05C636F6D706F6E656E74735C756172749C
S21408CDD05C75736172745F616461707465722E63EA
S21408CDE000000000636F6E6669672D3E696E737497
S21408CDF0616E6365203C202873697A656F662873C0
S21408CE005F557361727441646170746572426173D0
S21408CE106529202F2073697A656F66285553415215
S21408CE20545F54797065202A29290000706F72743F
S21408CE30203C202873697A656F6628735F67706977
S21408CE406F436C6F636B4E616D6529202F20736985
S21408CE507A656F662828735F6770696F436C6F63BF
S21408CE606B4E616D65295B305D29290021282830C5
S21408CE70203D3D206261736529207C7C2028302077
S21408CE803D3D2062617564726174655F4270732906
S21408CE90207C7C202830203D3D20737263436C6FD5
S21408CEA0636B5F487A29290021282830203D3D20D9
S21408CEB06261736529207C7C202830203D3D2063F4
S21408CEC06F6E66696729207C7C202830203D3D20CF
S21408CED0737263436C6F636B5F487A29290000009E
S21408CEE072B60748074901600A6882F30888064848
S21408CEF080F30A8862B60548804705480047000060
S21408CF0008ED00E000A0080000FC2F0065C7080038
S21408CF1061D20800415353455254204552524F524D
S21408CF20202220257320223A2066696C6520222557
S21408CF307322204C696E652022256422200A000090
S21408CF4030B450F8041B79B10268436802440830CC
S21408CF50DC0744BFA9F10104E31852F8045B43F860
S21408CF60045B091FF9D1ECE730BC70476B5374615A
S21408CF707475735F53657269616C4D616E61676540
S21408CF80725F53756363657373203D3D20737461E8
S21408CF9074757300735F557361727441646170745D
S21408CFA06572426173655B636F6E6669672D3E697D
S21408CFB06E7374616E63655D0000000010B5074906
S21408CFC079441831064C7C44163404E00A68081D77
S21408CFD0114488470146A142F8D110BD0800000058
S21408CFE02800000017E5FFFF6C00000004001C0086
S21408CFF0000000004DFFFFFF04000000D004000002
S21408D00000001C0000000000735F666C6578636FA4
S21408D0106D6D49727148616E646C65725B696E739A
S21408D02074616E63655D000000601040007010401B
S21408D030008010400090104000201240003012403F
S21408D040006012400070124021282830203D3D2004
S21408D0506261736529207C7C202830203D3D206451
S21408D060617461292900000000F00DF8002801D03D
S21408D070FFF7A4FFAFF300800020AFF30080FFF7B0
S21408D080F1FB00F002F80120704700F001B8FEE757
S21408D0900746384600F002F8FBE7FEE780B5AFF330
S21408D0A00080024A11001820ABBEFBE726000200EB
S21408D0B00D0A204750494F204472697665722065EC
S21408D0C078616D706C650D0A00000000735F666C11
S21408D0D06578636F6D6D49727148616E646C6572D0
S21408D0E05B305D00735F666C6578636F6D6D497263
S21408D0F07148616E646C65725B315D00735F666C67
S21408D1006578636F6D6D49727148616E646C65729F
S21408D1105B325D00735F666C6578636F6D6D497230
S21408D1207148616E646C65725B335D00735F666C34
S21408D1306578636F6D6D49727148616E646C65726F
S21408D1405B345D00735F666C6578636F6D6D4972FE
S21408D1507148616E646C65725B355D0000601040F6
S21408D16000701040008010400090104000201240D0
S21408D170003012400100000000000000010000001E
S21408D1800300000001000000B013000078690000EA
S21408D190160000000000000000000000000000016B
S21408D1A001000000080309030A030B030C030D0320
S21408D1B016031703080309030A030B030C030D03DE
S21408D1C016031703000401040204030404040504F8
S21408D1D00604070400040104020403040404050406
S21408D1E006040704626974506F73203C2033327556
S21408D1F00000000073657269616C48616E646C6556
S21408D2000000000073657269616C436F6E6669673B
S21408D2100000000073657269616C48616E646C6535
S21408D220000000003020213D2073697A6500000068
S21408D2303020213D20636F6E6669670077726974D7
S21408D2406548616E646C65007265616448616E6409
S21408D2506C65000001480047FEE7000059D2080048
S21408D260AFF30080AFF30080FFF7FEFE3020213DCD
S21408D2702063680062756666657200006C656E6796
S21408D2807468000068616E646C650000636F6E66A3
S21408D2906967000062756666657200006C656E6791
S21408D2A07468000068616E646C650000636F6E6683
S21408D2B06967000064617461000000006C656E6751
S21408D2C0746800000048004759D208000048004724
S21408D2D059D208000048004759D2080000480047BD
S21408D2E059D208000048004759D2080000480047AD
S21408D2F059D208000048004759D20800004800479D
S21408D30059D208000048004759D20800004800478C
S21408D31059D208000048004759D20800004800477C
S21408D32059D208000048004759D20800004800476C
S21408D33059D2080000480047BFB608000048004712
S21408D340E5B60800004800470BB708000048004745
S21408D35031B708000048004757B70800004800479C
S21408D3607DB7080000480047A3B7080000480047F4
S21408D370DBB708000048004759D2080000480047B5
S21408D38059D208000048004759D20800004800470C
S21408D39059D208000048004759D2080000480047FC
S21408D3A059D208000048004759D2080000480047EC
S21408D3B059D208000048004759D2080000480047DC
S21408D3C059D208000048004759D2080000480047CC
S21408D3D059D208000048004759D2080000480047BC
S21408D3E059D208000048004759D2080000480047AC
S21408D3F059D208000048004759D20800004800479C
S21408D40059D208000048004759D20800004800478B
S21408D41059D208000048004759D20800004800477B
S21408D42059D208000048004759D20800004800476B
S21408D43059D208000048004759D20800004800475B
S21408D44059D208000048004759D20800004800474B
S21408D45059D208000048004759D20800004800473B
S21408D46059D208000048004759D20800004800472B
S21408D47059D208000048004759D20800004800471B
S21408D48059D208000048004759D20800004800470B
S21408D49059D208000048004759D2080000480047FB
S21408D4A059D208000048004759D2080000480047EB
S21408D4B059D208000048004759D2080000480047DB
S21408D4C059D20800FFFFFFFF00010000001BB7004D
S80408D261C0
