S01200006C65645F626C696E6B792E73726563F5
S3156000200000000220113400600B270060532A006034
S31560002010272B0060C32F0060F731006000000000CE
S31560002020000000000000000000000000A93400600D
S31560002030CF34006000000000DB340060473300608E
S31560002040F5340060FD340060053500600D350060D4
S31560002050153500601D350060253500602D35006042
S31560002060353500603D350060453500604D350060B2
S31560002070553500605D350060653500606D35006022
S31560002080753500606D3600606D3600606D360060D7
S315600020907D350060853500608D3500609535006062
S315600020A09D350060A5350060AD350060B5350060D2
S315600020B0BD350060C5350060CD350060D535006042
S315600020C0DD350060E5350060ED350060F5350060B2
S315600020D0FD350060053600606D3600606D36006067
S315600020E06D3600606D3600606D3600606D3600607E
S315600020F06D3600606D3600606D3600606D3600606E
S315600021006D3600606D3600606D3600606D3600605D
S315600021106D3600606D3600606D3600606D3600604D
S315600021200D360060153600601D360060253600608D
S315600021302D3600606D3600606D3600606D3600606D
S315600021406D3600606D3600606D3600606D3600601D
S315600021506D3600606D3600606D3600606D3600600D
S315600021606D3600606D3600606D3600606D360060FD
S315600021706D3600606D3600606D3600606D360060ED
S315600021806D3600606D3600606D3600606D360060DD
S315600021906D3600606D3600606D3600606D360060CD
S315600021A06D3600606D360060353600603D36006025
S315600021B06D3600606D3600606D3600606D360060AD
S315600021C06D3600606D3600606D3600606D3600609D
S315600021D06D3600606D3600606D3600606D3600608D
S315600021E06D3600606D3600606D3600606D3600607D
S315600021F0453600606D3600604D36006055360060CD
S315600022006D3600606D3600605D3600606536006074
S315600022106D3600606D3600606D3600606D3600604C
S315600022206D3600606D3600606D3600606D3600603C
S315600022306D3600606D3600606D3600606D3600602C
S315600022406D3600606D3600606D3600606D3600601C
S315600022506D3600606D3600606D3600606D3600600C
S315600022606D3600606D3600606D3600606D360060FC
S315600022706D3600606D3600606D3600606D360060EC
S315600022806D3600606D3600606D3600606D360060DC
S315600022906D3600606D3600606D3600606D360060CC
S315600022A06D3600606D3600606D3600606D360060BC
S315600022B06D3600606D3600606D3600606D360060AC
S315600022C06D3600606D3600606D3600606D3600609C
S315600022D06D3600606D3600606D3600606D3600608C
S315600022E06D3600606D3600606D3600606D3600607C
S315600022F06D3600606D3600606D3600606D3600606C
S315600023006D3600606D3600606D3600606D3600605B
S315600023106D3600606D3600606D3600606D3600604B
S315600023206D3600606D3600606D3600606D3600603B
S315600023306D3600606D3600606D3600606D3600602B
S315600023406D3600606D3600606D3600606D3600601B
S315600023506D3600606D3600606D3600606D3600600B
S315600023606D3600606D3600606D3600606D360060FB
S315600023706D3600606D3600606D3600606D360060EB
S315600023806D3600606D3600606D3600606D360060DB
S315600023906D3600606D3600606D3600606D360060CB
S315600023A06D3600606D3600606D3600606D360060BB
S315600023B06D3600606D3600606D3600606D360060AB
S315600023C06D3600606D3600606D3600606D3600609B
S315600023D06D3600606D3600606D3600606D3600608B
S315600023E06D3600606D3600606D3600606D3600607B
S315600023F06D3600606D3600606D360060FFFFFFFF72
S3156000240070B404460025284604F8010B002A0868C3
S3156000241014D0002815D000282ED090FBF3F203FBD1
S315600024201200002802D43030014602E0C043313049
S315600024300146104604F8011B6D1CECE70399002861
S315600024400FD130202070012017E0612202E00A00DF
S31560002450FBD041220A3A10180246304604F8012B96
S315600024606D1C002808D0B0FBF3F603FB16000A28A3
S31560002470EDD230300246F0E7284670BC70472DE951
S31560002480F64F8DB00C469A46002100910D4601919B
S315600024900291064605E00123424601A90E98D047FF
S315600024A0761C96F80080B8F1000F00F0E280B8F173
S315600024B0250FF0D14FF0010B0027384605E007EBFA
S315600024C08702303901EB42010F46002840F0D58083
S315600024D016F8011FA1F130020A2AF0D3761E58467B
S315600024E0F3E716F8011F30390A29C0F0CC80761E52
S315600024F05846C8E0761E16F8018FB8F1640F1AD0F8
S31560002500B8F1690F17D0B8F1660F14D0B8F1460F5D
S3156000251011D0B8F1780F0ED0B8F1580F0BD0B8F1D2
S315600025206F0F08D0B8F1620F05D0B8F1700F02D006
S31560002530B8F1750F70D1B8F1640F02D0B8F1690FB8
S315600025400ED154F8040B0390584600900A230246B5
S3156000255003A904A8FFF754FF054604A82844009081
S31560002560B8F1580F02D0B8F1780F13D1B8F1780FDF
S3156000257001D14FF0000B54F8040B029058460090BE
S315600025801023002202A904A8FFF73AFF054604A813
S3156000259028440090B8F16F0F08D0B8F1620F05D0EB
S315600025A0B8F1700F02D0B8F1750F1DD154F8040B55
S315600025B00290B8F16F0F01D108230AE0B8F1620FFB
S315600025C001D1022305E0B8F1700F01D1102300E0BC
S315600025D00A23CDF800B0002202A904A8FFF710FF75
S315600025E0054604A8284400907F1B3B46202201A98B
S315600025F00E98D047009800283FF452AF0E9FD04601
S31560002600814699F80000002841D0012319F8012974
S3156000261001A93846C047F4E7B8F1630F08D154F80A
S31560002620040BC0B25B46024601A90E98D04737E755
S31560002630B8F1730F7FF42FAF54F8049BB9F1000F14
S315600026403FF42EAF484600F045F805467F1B3B46F3
S31560002650202201A90E98D0470E9FD04699F8000017
S31560002660002818D05B4619F8012B01A93846C047E7
S31560002670F4E701980FB0BDE8F08F16F8010F2E2829
S315600026807FF438AF002000287FF435AF29E70E9736
S31560002690CDF8009004E70E9702E730B4002513E00A
S315600026A050F8042BD30744BFA9F101039A18091FF8
S315600026B0042942F8045BFAD213468C0744BF15809E
S315600026C09B1CC90748BF1D7050F8041B0029E7D141
S315600026D030BC704700F10103810704D010F8011B7C
S315600026E0820781B1FAD10268A2F10131914311F0FA
S315600026F0803104BF50F8042FF6E709BAB1FA81F1C8
S3156000270000EBD100401CC01A7047FEE770B5044666
S315600027100D462646360A04F01F04072EC0F00980CF
S3156000272040F2D7320FF26C1157A000F039F9AFF3CF
S315600027300080064800EB860001680322A2409143B0
S3156000274005FA04F40C43046070BD000068C00F40D5
S315600027500321DBE75AE0000010B50024062C06D200
S3156000276086A151F82410814201D0641CF6E7062C3C
S3156000277007D354220FF2A8115AA000F011F9AFF353
S315600027800080204610BD0000F8B504460D4616468A
S31560002790FFF7E2FF7FA131F91000FFF7D9FF0127AC
S315600027A0AF40F9436069084060613078002803D122
S315600027B060680140616007E072782946204600F053
S315600027C009F8606807436760B27829462046BDE825
S315600027D0F840BFE770B504460D461646202D08D36F
S315600027E05FF074020FF2381161A000F0D9F8AFF310
S315600027F00080012000FA05F5002E206803D120EA4A
S315600028000505256070BD0543256070BD30B40124A3
S3156000281004FA01F5C369AB43C361102902D200F122
S315600028200C0302E000F110031039521E042A29D865
S31560002830DFE802F0030A131E25001A680324480025
S315600028408440A2431A601DE0480019680322824052
S31560002850914384400C431C6014E0480019680322CD
S3156000286082409143022202FA00F00843186009E0B0
S315600028701A6803244800844022431A6002E0C16952
S315600028800D43C56130BC7047696E646578203C3D18
S3156000289020360000443A5C7265735F692E6D78720B
S315600028A0745C53444B5F322E342E315F45564B4237
S315600028B02D494D585254313035305C6465766963C4
S315600028C065735C4D494D585254313035325C647293
S315600028D069766572735C66736C5F636C6F636B2E2F
S315600028E068000000696E7374616E6365203C202821
S315600028F073697A656F6628735F6770696F42617323
S31560002900657329202F2073697A656F662828735F3F
S315600029106770696F4261736573295B305D29290051
S31560002920443A5C7265735F692E6D7872745C534469
S315600029304B5F322E342E315F45564B422D494D58F2
S315600029405254313035305C646576696365735C4DCD
S31560002950494D585254313035325C647269766572CD
S31560002960735C66736C5F6770696F2E63000000004E
S3156000297070696E203C2033320000000000000000C9
S3156000298000801B4000C01B4000001C4000401C40F3
S3156000299000000C40FFFF1A011E001A020C031E0104
S315600029A080B513460A46014602A000F019F800BE3B
S315600029B0FDE70000415353455254204552524F5251
S315600029C0202220257320223A2066696C6520222504
S315600029D07322204C696E652022256422200A00003D
S315600029E00EB418B5A0B004466846802100F02EF8F3
S315600029F023A90FF21D036A462046FFF740FD0146F4
S31560002A00684600F027F821B010BC5DF810FB0000A6
S31560002A102DE9F04104460D4616461F464FF0000864
S31560002A200FE02968481C802804D3204600F012F87D
S31560002A3000202860286826542868401C286008F111
S31560002A400108B845EDDBBDE8F0810000002200F02A
S31560002A5051B8FEE738B504460D46002C40F00980B3
S31560002A6040F23F120FF238010AA0FFF799FFAFF369
S31560002A70008029462046BDE8344010B50C0007D0DA
S31560002A80002805D0012200F04FF8002800D000246D
S31560002A90204610BD62756620213D20300000000092
S31560002AA0443A5C7265735F692E6D7872745C5344E8
S31560002AB04B5F322E342E315F45564B422D494D5871
S31560002AC05254313035305C646576696365735C4D4C
S31560002AD0494D585254313035325C7574696C69743D
S31560002AE06965735C6C6F675C66736C5F6C6F672E31
S31560002AF06300000000B500BF130096469446103987
S31560002B0028BFA0E80C50FAD85FEA417C28BF0CC009
S31560002B1048BF40F8042BC90728BF20F8022B48BFDE
S31560002B2000F8012B00BDFEE738B5034600240A48CD
S31560002B300579022D0BD10068002A0A46194602D093
S31560002B4000F032F804E000F04BF8044600E001249F
S31560002B50204632BD0000000004000020014648699E
S31560002B60896A090C01F0C3010843704710B50C4629
S31560002B70816A21F44031220402F4403211438162B9
S31560002B804269DFF870110A40DFF8641121400A4398
S31560002B904261FFF7E3FF044202D040F21A5010BDD3
S31560002BA0002010BD0000000070B505460C461646B4
S31560002BB0002C0FD140F2A9220FF2601135A0FFF769
S31560002BC0EFFEAFF3008005E068690002FCD514F8FB
S31560002BD0010BE8613046461E0028F5D170BD000045
S31560002BE0F8B506460D461746002D08D14FF42E72ED
S31560002BF00FF2281127A0FFF7D3FEAFF30080B0696C
S31560002C00010503D400F01200022801D1012405E079
S31560002C10002403E000F07F0005F8010B3846471EEC
S31560002C2000282FD0F06AC0F3026000282CD130460D
S31560002C30FFF794FF01030DD4410313D4810319D424
S31560002C40C003EFD54FF480313046FFF78FFF4FF466
S31560002C50A460F2BD4FF400213046FFF787FF40F2D3
S31560002C601D50F2BD4FF480213046FFF77FFF40F2E2
S31560002C701E50F2BD4FF400313046FFF777FF40F249
S31560002C801F50F2BD0020F2BD002CF069C2D105F8DC
S31560002C90010BC3E76461746100000000164A516865
S31560002CA01648526A1047144A91681548526A104786
S31560002CB0114AD1681348526A10470F4A116912487F
S31560002CC0526A10470C4A51691048526A10470A4ABC
S31560002CD091690F48526A1047074AD1690D48526A8E
S31560002CE010470000044A116A0B48526A10470000F8
S31560002CF000C01FC0FF3FE03F0C00002000401840AE
S31560002D000080184000C0184000001940004019407B
S31560002D100080194000C0194000001A40443A5C72B5
S31560002D2065735F692E6D7872745C53444B5F322EA7
S31560002D30342E315F45564B422D494D5852543130F1
S31560002D4035305C646576696365735C4D494D585290
S31560002D5054313035325C647269766572735C667361
S31560002D606C5F6C70756172742E630000BFF34F8F79
S31560002D70BFF36F8F002085490860BFF34F8FBFF3A5
S31560002D806F8F8348016841F400310160BFF34F8F54
S31560002D90BFF36F8F704730B47D4900200867BFF37B
S31560002DA04F8FCA6EC2F34E337A4DC2F3C90443F6EF
S31560002DB0E07000EA431040EA847028602046441EB2
S31560002DC00028F4D11846431E0028EED1BFF34F8F7A
S31560002DD0086840F480300860BFF34F8FBFF36F8F91
S31560002DE030BC704710B56A4C606F40F47000606725
S31560002DF069490A894FF6FE7002400A81674A13895B
S31560002E00034013810888400704D50B884FF6FB7092
S31560002E1003400B801088400704D511884FF6FB707D
S31560002E20014011805E485F4941604FF6FF718160E5
S31560002E30016821F0800141F0200101605A48016873
S31560002E40C90703D501684908490001602068800305
S31560002E5001D4FFF78BFF2068C00301D4FFF79BFF07
S31560002E60BDE8104000F0ACB870B5504C504A606890
S31560002E70800129D5A06810F4405006D0B0F5805F77
S31560002E8017D0B0F5005F16D016E01069C003106960
S31560002E9007D5C0F38130002801D146490DE00021F5
S31560002EA00BE0800701D5162100E01421414841431B
S31560002EB003E0404901E0106B00216068C0F3C26026
S31560002EC0401CB1FBF0F657E01068C00308D51068E7
S31560002ED0C0F38130002801D1364D07E0002505E0BA
S31560002EE0156805F07F05334845436D08106BC003D0
S31560002EF0106B07D5C0F38130002801D12D4E08E054
S31560002F00002606E0C00701D5162600E014262948EB
S31560002F104643106D2749A1FB0001126E002300F0A5
S31560002F2051F88619A06810F4402025D0B0F5802F9E
S31560002F3006D0B0F5002F0DD0B0F5402F14D01AE0B2
S31560002F401D480068C0F30540B6FBF0F000EBC00119
S31560002F504E0011E01848006800F03F00B6FBF0F044
S31560002F6000EBC0014E0007E0206800F00700401C3F
S31560002F70B5FBF0F600E000266068C0F38220401CD6
S31560002F80B6FBF0F00D49086070BD000050EF00E040
S31560002F9014ED00E060EF00E000800B4000000D40A3
S31560002FA000C00B4020C528D910E000E010C00F40DB
S31560002FB000800D4000366E0100810D40000000204B
S31560002FC07047FEE7BBBBE1B1B2F5803F80F07E8023
S31560002FD0022A1ED98C46B1FBF2F102FB11C31B0417
S31560002FE043EA1043B3FBF2FC02FB1C3380B240EAB7
S31560002FF00343B3FBF2F002FB103240EA0C400023BD
S315600030007047022A05D98446B0FBF2F002FB10C273
S3156000301070474AB105D100F0010249085FEA300005
S31560003020704700220023704700F0E4B80B000200EE
S31560003030002100207047904271EB030CF6D3B3F584
S31560003040803F2FD2F0B5B3FA83F7B1FA81F4A7F1D6
S315600030500F0E3D1B5340CEF1200602FA0EF2F341ED
S315600030605340B5F10F0746D80F3C2C444140C4F19C
S315600030702006A040F1414140B1FBF3F603FB161177
S31560003080A2FB0645001BA94102D2761E8018594153
S3156000309080EA010221FA0EF362FA0EF200215A402A
S315600030A03046F0BD30B4B1FBF3FC03FB1C11A2FB50
S315600030B00C45001BA94103D2ACF1010C80185941A3
S315600030C030BC02460B46604600217047B2F1807FF5
S315600030D065D3F0B5B2FA82F7B1FA81F4C7F10F069B
S315600030E03D1B22FA06F307F1110EF24120355A40D4
S315600030F0B5F10F07B8D94140C4F12006A040F141AF
S315600031004140B1FBF3FC03FB1C11A2FB0C45001B09
S31560003110A94103D2BCF1010C801859410F2F12D37B
S315600031200F3FC90341EA5041B1FBF3F603FB1611A9
S31560003130A2FB0645D4EBC030A94102D2761E8018A8
S31560003140594146EACC3C07B34140C7F12006B84036
S31560003150F1414140B1FBF3F603FB1611A2FB0645B4
S31560003160001BA94102D2761E8018594180EA0102ED
S3156000317021FA0EF3C7F1200462FA0EF20CFA07F098
S315600031805A402CFA04F13043F0BD80EA010221FA7C
S315600031900EF3002162FA0EF260465A40F0BD8C468C
S315600031A0B1FBF2F102FB11C31B0243EA1063B3FBEE
S315600031B0F2FC02FB1C331B024CEA002043EA10635C
S315600031C0B3FBF2FC02FB1C331B024CEA002043EA11
S315600031D01063B3FBF2FC02FB1C331B024CEA0020BB
S315600031E043EA1063B3FBF2FC02FB1C324CEA00209C
S315600031F0002370477047FEE770B504460D462646C5
S31560003200360A04F01F04072EC0F0098040F2D73258
S315600032100FF2A00124A0FFF7C3FBAFF300801F48A5
S3156000322000EB860001680322A240914305FA04F48C
S315600032300C43046070BD0321DEE710B4029C01F00C
S315600032400701240104F0100421430160002A00D024
S31560003250136010BC70470098002801D00199016086
S31560003260704700003EB540F20240FFF7E4FF0C4CA9
S315600032700C4D00200190009503460246052120462C
S31560003280FFF7DBFF41F2B0000190009500231A467C
S3156000329005212046FFF7DFFF37BD000068C00F40FD
S315600032A0E0801F40D0821F40696E646578203C3D97
S315600032B020360000443A5C7265735F692E6D7872E1
S315600032C0745C53444B5F322E342E315F45564B420D
S315600032D02D494D585254313035305C64657669639A
S315600032E065735C4D494D585254313035325C647269
S315600032F069766572735C66736C5F636C6F636B2E05
S31560003300680000000901020002D42E48815470470B
S315600033102D4802F00F02104400F8041C704710B5E7
S31560003320401EB0F1807F01D3012010BD274C606044
S315600033300F214FF0FF30FFF7E5FF0020A060072068
S315600033402060002010BD22490868002802D0086865
S31560003350401E086070471E49086008680028FCD156
S315600033607047000038B500BF1DA000680090FFF7E9
S3156000337079FFFFF779FD174C6A4609212046FFF76A
S3156000338003FA154800684FF47A71B0FBF1F0FFF765
S31560003390C6FF0028114D07D0FEE70022092120460E
S315600033A0FFF718FA00202870C820FFF7D4FF2878A6
S315600033B00028F2D1012209212046FFF70BFA0120ED
S315600033C02870F1E700E400E018ED00E010E000E0AE
S315600033D03400002000801B400000002038000020E0
S315600033E00100000030B450F8041B79B102684368EC
S315600033F002440830DC0744BFA9F10104E31852F81F
S31560003400045B43F8045B091FF9D1ECE730BC7047F5
S3156000341072B60548054901600A6882F3088804485F
S31560003420804762B60348004708ED00E00020006070
S31560003430E52D0060E934006010B50749794418311C
S31560003440064C7C44163404E00A68081D114488471B
S315600034500146A142F8D110BD2C0000004C000000CE
S315600034604EF68851CEF20001086840F4700008609C
S31560003470BFF34F8FBFF36F8F4FF00070E1EE100A0E
S315600034807047000017F2FFFF3800000004000020BC
S315600034900000000051FFFFFF04000000D40100009F
S315600034A00000002000000000FEE700000120C0468A
S315600034B0002801D0FFF7C0FFAFF300800020AFF314
S315600034C00080FFF74FFF00F000F800F001B8FEE75C
S315600034D00746384600F002F8FBE7FEE720210903BD
S315600034E026311820ABBEF9E7AFF30080FFF7B8FFCF
S315600034F0FFF7DCFF004800476D3600600048004774
S315600035006D360060004800476D3600600048004731
S315600035106D360060004800476D3600600048004721
S315600035206D360060004800476D3600600048004711
S315600035306D360060004800476D3600600048004701
S315600035406D360060004800476D36006000480047F1
S315600035506D360060004800476D36006000480047E1
S315600035606D360060004800476D36006000480047D1
S315600035706D360060004800476D36006000480047C1
S315600035809D2C006000480047A72C0060004800475B
S31560003590B12C006000480047BB2C00600048004723
S315600035A0C52C006000480047CF2C006000480047EB
S315600035B0D92C006000480047E52C006000480047B1
S315600035C06D360060004800476D3600600048004771
S315600035D06D360060004800476D3600600048004761
S315600035E06D360060004800476D3600600048004751
S315600035F06D360060004800476D3600600048004741
S315600036006D360060004800476D3600600048004730
S315600036106D360060004800476D3600600048004720
S315600036206D360060004800476D3600600048004710
S315600036306D360060004800476D3600600048004700
S315600036406D360060004800476D36006000480047F0
S315600036506D360060004800476D36006000480047E0
S315600036606D360060004800476D360060FFF7FEBFAC
S3096000367000A4781FB5
S705600034E97D
