S01D00006C65645F626C696E6B795F307830303030333030302E7372656360
S113300000000220C55F0000BF490000C74A00005D
S1133010FF4A0000A3530000D75500000000000041
S1133020000000000000000000000000C75700007E
S1133030A5600000000000000F610000255800009A
S1133040E9620000F1620000F9620000016300001F
S1133050096300001163000019630000216300008C
S113306029630000316300003963000041630000FC
S1133070496300005163000059630000616300006C
S11330806963000065640000656400006564000015
S113309071630000796300008163000089630000AC
S11330A09163000099630000A1630000A96300001C
S11330B0B1630000B9630000C1630000C96300008C
S11330C0D1630000D9630000E1630000E9630000FC
S11330D0F1630000F96300006564000065640000AA
S11330E065640000656400006564000065640000B8
S11330F065640000656400006564000065640000A8
S11331006564000065640000656400006564000097
S11331106564000065640000656400006564000087
S113312001640000096400001164000019640000D7
S113313021640000656400006564000065640000AB
S11331406564000065640000656400006564000057
S11331506564000065640000656400006564000047
S11331606564000065640000656400006564000037
S11331706564000065640000656400006564000027
S11331806564000065640000656400006564000017
S11331906564000065640000656400006564000007
S11331A06564000065640000296400003164000067
S11331B065640000656400006564000065640000E7
S11331C065640000656400006564000065640000D7
S11331D065640000656400006564000065640000C7
S11331E065640000656400006564000065640000B7
S11331F03964000065640000416400004964000013
S113320065640000656400005164000059640000B6
S11332106564000065640000656400006564000086
S11332206564000065640000656400006564000076
S11332306564000065640000656400006564000066
S11332406564000065640000656400006564000056
S11332506564000065640000656400006564000046
S11332606564000065640000656400006564000036
S11332706564000065640000656400006564000026
S11332806564000065640000656400006564000016
S11332906564000065640000656400006564000006
S11332A065640000656400006564000065640000F6
S11332B065640000656400006564000065640000E6
S11332C065640000656400006564000065640000D6
S11332D065640000656400006564000065640000C6
S11332E065640000656400006564000065640000B6
S11332F065640000656400006564000065640000A6
S11333006564000065640000656400006564000095
S11333106564000065640000656400006564000085
S11333206564000065640000656400006564000075
S11333306564000065640000656400006564000065
S11333406564000065640000656400006564000055
S11333506564000065640000656400006564000045
S11333606564000065640000656400006564000035
S11333706564000065640000656400006564000025
S11333806564000065640000656400006564000015
S11333906564000065640000656400006564000005
S11333A065640000656400006564000065640000F5
S11333B065640000656400006564000065640000E5
S11333C065640000656400006564000065640000D5
S11333D065640000656400006564000065640000C5
S11333E065640000656400006564000065640000B5
S11333F0656400006564000065640000FFFFFFFF72
S1133400F8B504000D00C4F38566DFF8280704F05E
S1133410FF0141180968C4F34C3223001B1213F056
S11334201F039A4091432200121212F01F0215FA50
S113343002F2C4F34C3327003F1217F01F07BB40BE
S11334401A40114304F0FF0280180160212E09D3B1
S113345040F27A32DFF8E016DFF8E00600F012FC02
S1133460AFF30080202E05D0DFF8D4060068F040CA
S1133470C007F9D4F1BDF8B504000D00C4F38566A6
S1133480DFF8B00604F0FF0141180968C4F34C32B8
S113349023001B1213F01F039A40914322001212BF
S11334A012F01F0215FA02F2C4F34C3327003F1244
S11334B017F01F07BB401A40114304F0FF028018A5
S11334C00160212E09D340F29F32DFF86C16DFF839
S11334D06C0600F0D7FBAFF30080202E05D0DFF898
S11334E060060068F040C007F9D4F1BDF8B50400E7
S11334F00F0025002DB22D0A260036B216F01F0645
S1133500072D09D340F2C132DFF82C16DFF8340658
S113351000F0B8FBAFF30080DFF82C0600EB850069
S113352001680322B24091433A00D2B2B24011433F
S11335300160F1BD10B504000021200000B2FFF7C6
S1133540D5FF10BDDFF8041608607047DFF80016D9
S11335500860704710B41300DBB2002B07D0C1F32E
S11335600B431B181B1D5FF480341C6006E0C1F381
S11335700B431B1808335FF480341C6010BC704785
S1133580090B09031300DBB2002B03D043680B4380
S1133590436002E043688B434360704710B40B0000
S11335A0DBB2042B0CDB446803238B4034EA0303B3
S11335B01400E4B214F003048C401C4344600BE098
S11335C0446807238B4034EA03031400E4B214F084
S11335D007048C401C43446010BC704730B48468BA
S11335E0DFF870351C400B00DBB29B0613F08063E0
S11335F023431500EDB253EA0543836030BC7047A2
S1133600F8B54FF40040FFF7A1FFDFF84C0501685F
S113361051F480310160016831F400310160DFF858
S11336203C05FFF78FFF002000F06AFB00F09BFBD6
S1133630012000F08AFBDFF8FC040168090A090292
S113364051F07F010160DFF8184501212000FFF7E8
S1133650D7FEDFF8105501212800FFF7D1FEDFF86F
S1133660080501684909490151F013010160DFF8B7
S1133670FC0400680028FAD50021DFF8F404FFF701
S1133680FAFE4FF48870FFF755FF4FF48470FFF78C
S113369051FF40F21620FFF74DFF4FF40670FFF77D
S11336A049FF40F20E20FFF745FF0321DFF8C40471
S11336B0FFF7E1FE0121DFF8C004FFF7DCFE4FF461
S11336C08A70FFF737FF4FF48B70FFF733FF182032
S11336D0FFF730FF1A20FFF72DFF4FF48670FFF736
S11336E029FF0121DFF89404FFF7C5FE0021DFF86C
S11336F09004FFF785FE40F20260FFF71BFF0121F3
S1133700DFF88004FFF7B7FE0021DFF87C04FFF741
S113371077FE40F20460FFF70DFF0121DFF86C042F
S1133720FFF7A9FE0021DFF86804FFF769FE4FF4F4
S11337304170FFF7FFFE07214FF21400FFF79BFED5
S11337400021DFF85004FFF75BFE0021DFF8480496
S1133750FFF756FE40F20A60FFF7ECFE0021DFF8A7
S11337603C04FFF788FE0321DFF83404FFF748FE2A
S113377040F20220FFF7DEFE0121DFF82804FFF704
S11337807AFE0021DFF82004FFF73AFE4FF4807040
S1133790FFF7D0FE4FF48170FFF7CCFE4FF4827038
S11337A0FFF7C8FE4FF48370FFF7C4FE0421DFF86F
S11337B0FC03FFF760FE0221DFF8F403FFF720FEAD
S11337C01620FFF7B7FE0221DFF8E803FFF753FEE8
S11337D00221DFF8E403FFF713FE40F21250FFF773
S11337E0A9FE0321DFF8D403FFF745FE0121DFF82A
S11337F0D003FFF740FE0021DFF8C803FFF700FE07
S113380040F21450FFF796FE0321DFF8BC03FFF7E4
S113381032FE0121DFF8B403FFF72DFE0021DFF8AB
S1133820B003FFF7EDFD40F21650FFF783FE0321CE
S1133830DFF8A003FFF71FFE0121DFF89C03FFF769
S11338401AFE0021E548FFF7DBFD40F20620FFF7F2
S113385071FE4FF40270FFF76DFE40F20A20FFF78D
S113386069FE0021DE48FFF706FE0021DD48FFF770
S1133870C7FD0E20FFF75EFE1220FFF75BFE10204F
S1133880FFF758FE1420FFF755FE0121D648FFF735
S1133890F2FD0221D548FFF7B3FD4FF4A360FFF713
S11338A049FE1C20FFF746FE0C20FFF743FE4FF4B1
S11338B08C70FFF73FFE40F20230FFF73BFE40F210
S11338C00630FFF737FE40F21A50FFF733FE40F29E
S11338D00E60FFF72FFE0021C548FFF7CCFD002145
S11338E0C448FFF78DFD40F20A30FFF723FE0121A3
S11338F0C148FFF7C0FD0321C048FFF7BCFD052107
S1133900BF48FFF77DFD40F20E50FFF713FE012183
S1133910BC48FFF7B0FD0721BB48FFF7ACFD03210E
S1133920BA48FFF76DFD40F20250FFF703FE012194
S1133930B748FFF7A0FD0721B648FFF79CFD032118
S1133940B548FFF75DFD4FF44070FFF7F3FD01212B
S1133950B248FFF790FD0721B148FFF78CFD032122
S1133960B048FFF74DFD0021AF48FFF749FDAF48D0
S11339700168490949010160AD48016831F07001ED
S1133980016001680909090151F001010160016840
S113399031F460010160016831F4F81151F49011BF
S11339A00160016831F480710160016831F08001C7
S11339B00160016831F0807101609E4E0022002197
S11339C03000FFF7EBFD002203213000FFF7E6FD96
S11339D0002206213000FFF7E1FD0022082130001B
S11339E0FFF7DCFD00220A213000FFF7D7FD00229B
S11339F000213000FFF7F2FD00224FF400513000A7
S1133A00FFF7BEFD8C48016831F080510160016808
S1133A1031F000510160894800F0ACF9884800F0A9
S1133A20C9F91B21002000F048FB1021012000F0FF
S1133A3044FB1821022000F040FB1021032000F079
S1133A403CFB8048016831F4802101607E4800F02D
S1133A50EBF92121002000F050FB1021012000F09F
S1133A604CFB1121022000F048FB1321032000F03D
S1133A7044FB7648016831F04001016000F0F9F937
S1133A80734E012273493000FFF764FD724F3868AA
S1133A9030F400403860386830F4000038606F4813
S1133AA0016851F40051016000F0E9F96C480168C3
S1133AB051F480310160396821F040413960016876
S1133AC051F40051016000F0E0F901226549300031
S1133AD0FFF740FD644801688908890051F001013D
S1133AE00160016851F400510160016851F4001152
S1133AF0016000F0B9F901225C493000FFF72AFDAA
S1133B005B48016851F40051016003215948FFF7F3
S1133B1077FC00212800FFF773FC00215648FFF7CB
S1133B20AAFC00212000FFF76BFC544854490860AC
S1133B30F1BD000000C00F40985B00003061000040
S1133B4048C00F400062000068C00F40040000201D
S1133B5008000020FFFF00FBC0820D4000366E010C
S1133B60186C0080143900140C0008400000084050
S1133B7014EA00041468008010E000401CE0078090
S1133B801C26008024EB00801C30008024F0008080
S1133B901C31008014270080142600801CF700804C
S1133BA01C7D00803CEB00803C69008018FA00809A
S1133BB01864008024790080186E008028E6008054
S1133BC028E007801C6A00802CE600802CE0078037
S1133BD01C6C008028F6008028F007801C6E008092
S1133BE038F307803832008020E2078020680080A4
S1133BF024E007802426008038EC008018F7008039
S1133C0038EF008030F9008030F600803074008096
S1133C1030EC008030E900803067008028E90080C3
S1133C2028F90080207300800C20008060810D4002
S1133C3060C00F4000C00A4014C00A40786200000F
S1133C407861000030800D40A646000010800D40D1
S1133C5000800D400D00700070810D4070800D409B
S1133C60A0800D400D00E000E0800D400D0020001C
S1133C7020800D401872008014FB00800046C3238E
S1133C800000002070B504000D00160033002A0067
S1133C902100024800F048FB00BEFDE71C5F000065
S1133CA0DFF898040068C00602D5DFF8940402E047
S1133CB0DFF89004006870470901090D08180068CE
S1133CC0000C10F0010070470A001201120D1018C8
S1133CD0006811F01F01C84010F00100704738B5AA
S1133CE004000D0028000001000D00190068C0F355
S1133CF08130002802D1FFF7D3FF00E0002032BD5D
S1133D0010B504002000C0B2002808D09922DFF8C2
S1133D103814DFF83804FFF7B5FFAFF30080DFF89D
S1133D2030045FF080410160DFF810140968C903B2
S1133D30FAD55FF48031DFF81C241160DFF8182411
S1133D4012681204FAD5016010BD0100C9B200293D
S1133D5004D11021DFF80424116003E01021DFF8FE
S1133D60002411607047DFF8D403016851F00101A9
S1133D7001607047DFF8F023116831F440410379A2
S1133D809B0313F44043194351F4803111601368C9
S1133D90DFF8D8130B40017811F07F010B4353F483
S1133DA00053136011680029FCD5116831F4803187
S1133DB011607047DFF8B823116831F44041037B88
S1133DC09B0313F44043194351F480311160136889
S1133DD0DFF8A0130B40017811F001010B4353F4F9
S1133DE000531360416821F04041DFF88C331960BF
S1133DF0816821F04041DFF884331960418A490425
S1133E00490C037CDB0313F400431943C38951EACF
S1133E100341DFF86C33196011680029FCD511687F
S1133E2031F4803111607047DFF838130A6832F4D6
S1133E30404243789B0313F440431A4352F48032C4
S1133E400A600A6832F0020203785B0013F002038E
S1133E501A4352F441520A600A68002AFCD50A68DF
S1133E6032F480320A6070470020DFF818130860CB
S1133E7070474FF48050DFF81013086070474FF418
S1133E808050DFF81813086070474FF48050DFF853
S1133E90181308607047F8B52DED028B84B0040048
S1133EA06846DFF80813102200F06EFADFF8B872E3
S1133EB021003800FFF708FF002801D10020F8E0B6
S1133EC021003800FFF70BFF060021003800FFF740
S1133ED0F3FE002801D03000EBE020000D381ED0A6
S1133EE05FF48011401A48D05FF48011401A00F04A
S1133EF0D5805FF48011401A18D05FF48001401A15
S1133F0046D05FF44011401A00F081805FF48001D4
S1133F10401A00F0B880083800F0BE80C8E0386865
S1133F2010F07F00464376083000C2E0DFF8480214
S1133F3090ED000A00EE906AB8EE601BB8EE400BFC
S1133F4021EE000BDFF8340290ED001AB8EE411BAD
S1133F5080EE010BB0EE408BDFF814020068C0075E
S1133F6002D51620464301E014204643BCEEC80B9C
S1133F7010EE100A861930009BE0DFF8E8010068B3
S1133F80800701D5162000E014204643300090E05D
S1133F90DFF8F411086810F07F000500DFF8EC0189
S1133FA090ED000A00EE906AB8EE601BB8EE400B8C
S1133FB021EE000BDFF8D80190ED001AB8EE411B9A
S1133FC080EE010BB0EE408BBCEEC80B10EE100A75
S1133FD005FB06063000096811F4C011002903D05E
S1133FE0B1F5002F02D003E0800801E04008FFE7AC
S1133FF069490A6867490A40B2F5004F04D0654927
S11340008A4203D1800801E04008FFE751E0634998
S1134010086810F07F000500614890ED000A00EE8A
S1134020906AB8EE601BB8EE400B21EE000B5D48C1
S113403090ED001AB8EE411B80EE010BB0EE408B00
S1134040BCEEC80B10EE100A05FB0606300009682A
S113405011F4C011002903D0B1F5002F02D003E000
S1134060800801E04008FFE74B49096811F040412E
S1134070B1F1804F04D0B1F1404F03D1800801E089
S11340804008FFE715E04848006810F00300050009
S1134090684650F825000CE045480AE039480068B5
S11340A0800701D5162000E014204643300000E0CC
S11340B0002004B0BDEC028BF2BD70B40300DBB28F
S11340C03C4D2A68BF261C00E4B2E40016FA04F44E
S11340D032EA040480261A00D2B2D2009640264363
S11340E02E600E00F6B216F03F061A00D2B2D200CD
S11340F0964026432E6070BC704770B40300DBB258
S11341002D4D2A68BF261C00E4B2E40016FA04F41C
S113411032EA040480261A00D2B2D2009640264322
S11341202E600E00F6B216F03F061A00D2B2D2008C
S1134130964026432E6070BC7047000070820D408C
S113414000366E0104000020F05B0000A061000056
S113415058810D4054810D4050810D4074820D40B2
S113416078820D4010800D4000800D4080EFFFFFED
S113417030800D40FEEFFFFF50800D4060800D4009
S113418040800D4020800D4070800D4080800D40A7
S113419090800D400080800070810D40A0800D4013
S11341A0B0800D40C0800D40E0800D40B061000043
S11341B040787D0100810D40F0800D4070B5050010
S11341C00C0043F22156002D07D140F26D126549CF
S11341D06548FFF757FDAFF30080002C07D14FF47B
S11341E0B77260496148FFF74DFDAFF300802200CC
S11341F029005F4800F00AFA002801D05FF0FF347C
S1134200200070BD2DE9F04104000D0016001F00D0
S113421000205FF00008B84511DA2868401C8028A7
S113422005D329682000FFF7C9FF0020286028680B
S113423026542868401C286018F10108EBE7BDE803
S1134240F0812DE9F14F88B00E001700984643F233
S1134250215568464749102200F096F8CDF80080B1
S113426001969DF820008DF80A008DF8187038002A
S1134270C0B201281CD1684607905FF01C0A5FF0A9
S1134280000BDFF8F4904C465A465146200000F0EB
S1134290D7F9C9F81090D9F810003849086004A972
S11342A0D9F8100000F023F90400002C0ED115E019
S11342B03800C0B2022801D1280032E03800C0B270
S11342C0032801D128002CE028002AE04FF41572BD
S11342D024492B48FFF7D6FCAFF3008019F11401F1
S11342E0D9F8100000F038F90500002D07D04FF47C
S11342F018721C492248FFF7C5FCAFF3008019F17E
S11343001801D9F8100000F052F90400002C07D06D
S113431040F26B2213491A48FFF7B4FCAFF3008054
S1134320002009B0BDE8F08F0EB42DE9F841A0B02B
S1134330040000265FF000086846802100F0B4F90C
S113434027AD104B6A462900200000F010FA070040
S113435039006846FFF732FF21B0BDE8F0015DF88F
S113436010FB00006C5A0000806200000C62000028
S113437020000020C06100000C0000202800002064
S1134380745F000005420000103A07D330B4B1E86E
S11343903810103AA0E83810F9D230BC530724BFC3
S11343A0B1E80810A0E8081044BF51F8043B40F8F5
S11343B0043BD20724BF31F8022B20F8022B44BF60
S11343C00B7803707047121F17D35B0009D151F8A3
S11343D0043B20F8023B1B0C121F20F8023BF6D2D0
S11343E00BE051F8043B00F8013B1B0A20F8023BA8
S11343F01B0C121F00F8013BF3D238BF121D521ED2
S113440024BF11F8013B00F8013BF8D8704730B4E1
S1134410002513E050F8042BD30744BFA9F101038E
S11344209A18091F042942F8045BFAD213468C0730
S113443044BF15809B1CC90748BF1D7050F8041B5E
S11344400029E7D130BC70472DE9F04105000C008C
S113445016001F0043F22158002C0AD0287B0128A3
S113446007D13A00310015F1080000F0E0FA804667
S1134470FFE7404600B2BDE8F0812DE9F0410700B6
S11344800E001500002F09D140F2E722DFF8901149
S1134490DFF89001FFF7F6FBAFF30080002E07D1A1
S11344A04FF43A725E496048FFF7ECFBAFF30080CB
S11344B0002D07D140F2E92259495C48FFF7E2FB9D
S11344C0AFF30080B846D8F80040002C07D140F282
S11344D0EE2253495648FFF7D5FBAFF300802B007B
S11344E0320041462000FFF7AFFFBDE8F0812DE91F
S11344F0F04704000D0043F22156002D07D140F28D
S11345000A3247494C48FFF7BDFBAFF30080002C4B
S113451007D140F20F3242494848FFF7B3FBAFF3EB
S1134520008027005FF010085FF00009BA464A4691
S11345304146504600F084F8287A3873287A0128D6
S113454006D1E96817F1080000F03AFA0600FFE71F
S1134550300000B2BDE8F0872DE9F04705000C00FB
S1134560002D07D140F2A6322D493448FFF78AFBCB
S1134570AFF30080002C07D140F2A7322849294824
S1134580FFF780FBAFF300802E0027005FF00408E4
S11345905FF00009A2464A464146504600F050F8F2
S11345A07068401C70603E600020BDE8F0872DE913
S11345B0F04705000C00002D07D140F2D93218490C
S11345C01E48FFF75FFBAFF30080002C07D140F2D9
S11345D0DA3213491748FFF755FBAFF300802E007A
S11345E027003068002802D043F222500CE05FF02C
S11345F004085FF00009A2464A464146504600F0CE
S11346001FF837603E600020BDE8F08770B50400F5
S11346100D001600320029002000FFF72EFF70BDA8
S11346203C5B000054620000B8620000C0620000FD
S1134630C862000060620000D0620000D061000027
S113464062F30F2262F31F42401810F0030308D0F4
S1134650C91A1FD3DB0748BF00F8012D28BF20F873
S1134660022D130030B414461546103928BF20E932
S11346703C00FAD8490728BF20E90C0048BF40F89D
S1134680042D890028BF20F8022D48BF00F8012D11
S113469030BC7047C91818BF00F8012DCB0728BFDC
S11346A000F8012D70470000002200F0F3B92DE955
S11346B0F04F84460D001400099E0020E2465FF08E
S11346C0000B8AF800B01AF1010A002C24D0D5F8A6
S11346D000B05946002905D15FF0300B8AF800B0CC
S11346E0401C42E0002940D091FBF3FBDE4603FB73
S11346F01E1BBBF1000F05D55F467FEA070919F1C0
S1134700310902E0D94619F1300971468AF800905E
S11347101AF1010A401CE5E7D5F800B05A46002A10
S113472005D15FF0300B8AF800B0401C1DE0002A70
S11347301BD0B2FBF3FBD84603FB182BBBF10A0FCB
S113474002D25F46303709E03700FFB2002F01D0B4
S1134750412700E061270A3F17EB0B0742468AF81E
S113476000701AF1010A401CE1E7BDE8F08F2DE961
S1134770F54F91B08B461F0000265FF00008002023
S1134780029000208DF8040000200490DDF844A07D
S11347909AF800000500002D00F00D81252D07D0AA
S11347A0012328000200D2B202A91298B847FFE000
S11347B001208DF805000020814600200390039815
S11347C0002813D11AF1010A9AF800000500302DCF
S11347D007DB3A2D05DA0A21B5F1300001FB09099E
S11347E0EDE7BAF1010A01200390E8E706200590FD
S11347F01AF1010108782E2819D100200590002013
S113480003900398002813D1491C08780500302D23
S113481009DB3A2D07DA059A0A23B5F1300003FBC8
S113482002020592EDE7491E01200390E9E7491EC3
S113483011F1010A9AF800000500642D11D0692DC8
S11348400FD0662D0DD0462D0BD0782D09D0582DC4
S113485007D06F2D05D0622D03D0702D01D0752D9A
S113486072D1642D01D0692D11D1DBF800001BF148
S1134870040B06909DF8050000900A23012206A966
S113488008A8FFF714FF804608A840440600582DE6
S113489001D0782D16D1782D02D100208DF8050095
S11348A0DBF800001BF1040B04909DF80500009058
S11348B01023002204A908A8FFF7F9FE804608A8DF
S11348C0404406006F2D05D0622D03D0702D01D019
S11348D0752D27D1DBF800001BF1040B04906F2D1C
S11348E003D108208DF804000EE0622D03D10220CC
S11348F08DF8040008E0702D03D110208DF8040019
S113490002E00A208DF804009DF8050000909DF84F
S11349100430002204A908A8FFF7C9FE804608A8AD
S113492040440600B9EB0803202202A91298B847B4
S1134930002E3DD0307800283AD00123327802A9E5
S11349401298B847761EF5E7632D0DD1DBF8000009
S11349501BF1040BC0B20790012307980200D2B2E6
S113496002A91298B84723E0732D1AD1DBF800008E
S11349701BF1040B0400002C1AD0200000F0A4F852
S11349808046B9EB0803202202A91298B847207880
S113499000280DD00123227802A91298B847641C7C
S11349A0F5E7012328000200D2B202A91298B84701
S11349B01AF1010AECE6029813B0BDE8F08FFEE7A5
S11349C0F8B584B004000D00002D06D18A222C49CC
S11349D02C48FFF757F9AFF30080002C06D18B2247
S11349E027492948FFF74EF9AFF300802E0027002E
S11349F070680190307A8DF80800707A8DF809009B
S1134A00F07A8DF80A00307B8DF80B003068009046
S1134A10B07A8DF80C006946380000F079F8002867
S1134A2002D043F2215000E0002005B0F0BDF8B5FB
S1134A3006000D001400002E07D140F20D1210499B
S1134A401148FFF71FF9AFF30080002D07D14FF491
S1134A5087720B490D48FFF715F9AFF30080002C5E
S1134A6007D140F20F1206490948FFF70BF9AFF3DB
S1134A700080370022002900380000F0BAF8F2BDA7
S1134A80DC5A0000E0610000F0610000D862000020
S1134A90E062000000B500BF13009646944610394A
S1134AA028BFA0E80C50FAD85FEA417C28BF0CC0AC
S1134AB048BF40F8042BC90728BF20F8022B48BF81
S1134AC000F8012B00BDFEE700F10103810704D0CB
S1134AD010F8011B820781B1FAD10268A2F10131F9
S1134AE0914311F0803104BF50F8042FF6E709BA5E
S1134AF0B1FA81F100EBD100401CC01A7047FEE707
S1134B000100002901D1002001E042F6AF70704796
S1134B1078B585B004000D00002C06D1E1224C4983
S1134B204C48FFF7AFF8AFF30080002D06D1E22226
S1134B3047494948FFF7A6F8AFF30080287B0928C6
S1134B4006D3E32242494548FFF79CF8AFF30080BF
S1134B50434E287B56F82000002806D1E4223C4925
S1134B604048FFF78FF8AFF30080684600F0F4F98F
S1134B7068680090287A012803D102208DF8040087
S1134B8009E0287A022803D103208DF8040002E00A
S1134B9000208DF80400687A012803D101208DF8E3
S1134BA0070002E000208DF80700A87A002801D051
S1134BB0012000E000208DF81100E87A002801D0DF
S1134BC0012000E000208DF810002A686946287B47
S1134BD056F8200000F09BF80600002E03D03000A9
S1134BE0FFF78EFF03E02100287B0870002006B049
S1134BF070BDF8B506000D001400002E07D140F278
S1134C00531213491348FFF73DF8AFF30080002D0A
S1134C1007D14FF4AA720E491348FFF733F8AFF3E4
S1134C200080002C07D140F2551209490F48FFF7C4
S1134C3029F8AFF3008037002200290008483B78A8
S1134C4050F8230000F0BEF90020F2BD000000007F
S1134C50005E000098620000A0620000545E000044
S1134C60386000009C5F0000A8620000B062000091
S1134C70F8B504000F0025002DB22D0A260036B227
S1134C8016F01F06072D09D340F2C132DFF86C136A
S1134C90DFF86C03FEF7F6FFAFF30080DFF8640380
S1134CA000EB850001680322B24091433A00D2B27E
S1134CB0B24011430160F1BD10B50400032120008E
S1134CC000B2FFF7D5FF10BD816851F00201816089
S1134CD0816831F002018160704738B50400002515
S1134CE0092D07D2DFF8200350F82500A04201D097
S1134CF06D1CF5E7092D08D37A22DFF81013DFF8CD
S1134D001003FEF7BFFFAFF30080280032BD2DE98A
S1134D10FE4F05000C001600002C08D1EE22DFF82F
S1134D20EC12DFF8F402FEF7ADFFAFF30080206869
S1134D30002808D1EF22DFF8D412DFF8E002FEF7F2
S1134D40A1FFAFF30080207A052808DBF122DFF809
S1134D50BC12DFF8CC02FEF795FFAFF30080607A57
S1134D60052808DBF222DFF8A412DFF8B802FEF708
S1134D7089FFAFF30080D4F800805FF000090020C1
S1134D80ADF800005FF0040BBBF1210F36D22068B0
S1134D900BFB00F0B6FBF0F08246504680B20028D0
S1134DA001D101208246504680B200FB0BF0B6FBD5
S1134DB0F0F0019001992068091A0F00216850460B
S1134DC080B2401C00FB0BF0B6FBF0F0091AB942AC
S1134DD00BD22168504680B2401C00FB0BF0B6FB9E
S1134DE0F0F0091A0F001AF1010AB84503D3B846C6
S1134DF0D946ADF800A01BF1010BC5E7206864217A
S1134E00B0FBF1F103204143414502D240F221506D
S1134E10A0E02800FFF761FF0290DFF8200202996A
S1134E2030F91100FFF748FF2800FFF74DFF2A690A
S1134E30B9F1040F04D3B9F1080F01D252F40032CE
S1134E4032F0F852B9F10100000610F0F8500243B4
S1134E50520B5203BDF80000C004C00C104328617B
S1134E60286930F000502861A969DFF8F401014095
S1134E702079E37B1B0213F4E0631843A37B9B00BC
S1134E8013F00403184301436079012808D1207901
S1134E90002802D031F4006107E051F4006104E01D
S1134EA02079002801D051F01001A9612B6933F455
S1134EB00053E079400310F4005018432861607AED
S1134EC0227A52EA0042EA62A86A50F08800A86294
S1134ED0A86A50F44040A862DFF8D82152F000429A
S1134EE052F44042686A94F80DC05FEA0C1C1CF04E
S1134EF0100C94F80CE05FEA4E1E1EF0200E5EEAE1
S1134F000C0C5CEA00006862A07A002803D0686A8E
S1134F1050F008006862E07A002803D0686A50F014
S1134F2001006862A079002802D052F0005201E02A
S1134F3032F00052686910436861A969207C002836
S1134F4001D051F40021607C002801D051F480216B
S1134F50A9610020BDE8FE8FF8B50400002C09D13A
S1134F6040F20622DFF8A410DFF8AC00FEF78AFE58
S1134F70AFF30080142500262700320029003800F2
S1134F80FFF75EFB5FF4E130206000202071002019
S1134F9060710020A0710020E071002020720020C8
S1134FA060720020A0720020E07200206073002074
S1134FB020730020A0730020E073002020740020E0
S1134FC06074F1BD70B505000C001600002C09D109
S1134FD040F23F32DFF83410DFF83800FEF752FEBB
S1134FE0AFF300803000461E002806D06869000236
S1134FF0FCD52078E861641CF4E770BDF85C00001F
S11350003C62000068C00F4014600000505D000066
S1135010A05E0000886200009062000060610000F1
S1135020A8600000C860000080B523484168244897
S1135030224A1268904701BD000000008C61000004
S113504080B51D4881681F481C4A1268904701BDFD
S113505080B51948C1681C48184A1268904701BDB8
S1135060E8F8FFFF80B5144801691848134A12682C
S1135070904701BD80B51048416915480F4A126830
S1135080904701BD80B50C48816912480B4A1268EB
S1135090904701BD80B50848C1690F48074A1268A6
S11350A0904701BD80B50448016A0C48034A126860
S11350B0904701BD00001F402C000020500000203C
S11350C0004018400080184000C0184000001940FB
S11350D0004019400080194000C0194000001A40E7
S11350E0BFF34F8FBFF36F8F002093490860BFF366
S11350F04F8FBFF36F8F9148016851F40031016005
S1135100BFF34F8FBFF36F8F704710B400208C49EB
S11351100860BFF34F8F8B480168C1F34E32C1F36F
S1135120C900030043F6E07010EA421050EA8370AD
S1135130854C20601800431E0028F3D11000421E45
S11351400028ECD1BFF34F8F7C48046854F48034BA
S11351500460BFF34F8FBFF36F8F10BC704710B55F
S11351607A48016851F47001016079490A884FF660
S1135170FE7002400A8077490A884FF6FE700240AA
S11351800A8075490888400704D50A884FF6FB70E1
S113519002400A8071490888400704D50A884FF6FE
S11351A0FB7002400A806E486E4908604FF6FF703B
S11351B06D4908606D48016831F0800151F02001AB
S11351C001606B480168C90703D5016849084900B3
S11351D001605A4C2068800301D4FFF781FF2068E6
S11351E0C00301D4FFF791FF00F0DAF810BDF0B569
S11351F0604D2868800135D55F48006810F4405040
S1135200002806D0B0F5805F19D0B0F5005F18D043
S113521020E05A480168C90308D50068C0F381300A
S1135220002801D1564909E0002107E00068800701
S113523001D5162100E01421514841430BE05049A7
S113524009E050480068C0F38130002801D14C4E79
S113525000E0002600212868C0F3C260401CB1FBB6
S1135260F0F160E048480168C90308D50068C0F35C
S11352708130002801D1424C08E0002406E0016896
S113528011F07F013E48414349080C003D48016844
S1135290C90308D50068C0F38130002801D1384F14
S11352A009E0002707E00068C00701D5162700E0E1
S11352B0142733484743354800683149A1FB0001AE
S11352C0334A1268002300F06DF8C7192A480068B1
S11352D010F44020002809D0B0F5802F08D0B0F594
S11352E0002F0ED0B0F5402F14D01BE039001AE087
S11352F028480068C0F30540B7FBF0F11220414391
S113530011E02448006810F03F00B7FBF0F11220D0
S1135310414308E02048006810F00700401CB4FB3B
S1135320F0F100E000212868C0F38220401CB1FBAA
S1135330F0F01A4A1060F0BD50EF00E014ED00E008
S113534084ED00E080ED00E060EF00E088ED00E037
S113535008800B4008000D4000800B4000000D4009
S113536020C528D904C00B4008C00B4000C00B4026
S113537010E000E014C00F4018C00F4010800D4032
S113538000366E0130800D4000800D4050800D408D
S113539060800D4000810D4010C00F4000000020CF
S11353A07047FEE7BBBBE1B1B2F5803F80F07E8081
S11353B0022A1ED98C46B1FBF2F102FB11C31B0475
S11353C043EA1043B3FBF2FC02FB1C3380B240EA15
S11353D00343B3FBF2F002FB103240EA0C4000231B
S11353E07047022A05D98446B0FBF2F002FB10C2D2
S11353F070474AB105D100F0010249085FEA300064
S1135400704700220023704700F0E4B80B0002004C
S1135410002100207047904271EB030CF6D3B3F5E2
S1135420803F2FD2F0B5B3FA83F7B1FA81F4A7F134
S11354300F0E3D1B5340CEF1200602FA0EF2F3414B
S11354405340B5F10F0746D80F3C2C444140C4F1FA
S11354502006A040F1414140B1FBF3F603FB1611D5
S1135460A2FB0645001BA94102D2761E80185941B1
S113547080EA010221FA0EF362FA0EF200215A4088
S11354803046F0BD30B4B1FBF3FC03FB1C11A2FBAE
S11354900C45001BA94103D2ACF1010C8018594101
S11354A030BC02460B46604600217047B2F1807F53
S11354B065D3F0B5B2FA82F7B1FA81F4C7F10F06F9
S11354C03D1B22FA06F307F1110EF24120355A4032
S11354D0B5F10F07B8D94140C4F12006A040F1410D
S11354E04140B1FBF3FC03FB1C11A2FB0C45001B68
S11354F0A94103D2BCF1010C801859410F2F12D3DA
S11355000F3FC90341EA5041B1FBF3F603FB161107
S1135510A2FB0645D4EBC030A94102D2761E801806
S1135520594146EACC3C07B34140C7F12006B84094
S1135530F1414140B1FBF3F603FB1611A2FB064512
S1135540001BA94102D2761E8018594180EA01024B
S113555021FA0EF3C7F1200462FA0EF20CFA07F0F6
S11355605A402CFA04F13043F0BD80EA010221FADA
S11355700EF3002162FA0EF260465A40F0BD8C46EA
S1135580B1FBF2F102FB11C31B0243EA1063B3FB4C
S1135590F2FC02FB1C331B024CEA002043EA1063BA
S11355A0B3FBF2FC02FB1C331B024CEA002043EA6F
S11355B01063B3FBF2FC02FB1C331B024CEA002019
S11355C043EA1063B3FBF2FC02FB1C324CEA0020FA
S11355D0002370477047FEE7F8B504000F0025006C
S11355E02DB22D0A260036B216F01F06072D07D35A
S11355F040F2C13241494248FEF744FBAFF3008018
S1135600404800EB850001680322B24091433A0010
S1135610D2B2B24011430160F1BD10B504000321C0
S1135620200000B2FFF7D8FF10BD70B504000D00D4
S113563016003200D2B22900200000F06FF870BDCD
S113564038B504000025062D06D22F4850F8250051
S1135650A04201D06D1CF6E7062D06D339222B4952
S11356602B48FEF70FFBAFF30080280032BDF8B5DE
S113567004000D0016002000FFF7E2FF254931F970
S11356801000FFF7CAFF0127616917FA05F081438B
S113569061613078002805D16068AF4030EA0707BF
S11356A0676008E072782900200000F00AF860685A
S11356B0AF4007436760B27829002000FFF7B5FFC9
S11356C0F1BD70B504000D001600202D06D36B2229
S11356D00E491148FEF7D6FAAFF300803000C0B28D
S11356E0002805D120680121A9408843206004E0F6
S11356F020680121A9400843206070BD485C000077
S11357001862000068C00F4048610000A05C0000FF
S1135710E05E00003062000024620000F0B40C007F
S11357200126C56916FA01F39D43C561102902D209
S113573010F10C0502E010F11005103C1300DBB26F
S1135740012B07D03DD3032B1ED00CD3052B33D014
S113575029D336E02E6803272300DBB25B009F4089
S1135760BE432E602DE02F685FF0030C2300DBB2F4
S11357705B001CFA03FC37EA0C072300DBB25B0076
S11357809E403E432E601CE02E6803272300DBB2BC
S11357905B009F40BE4302272300DBB25B009F40B7
S11357A03E432E600DE02E6803272300DBB25B002E
S11357B09F403E432E6004E0C3698E401E43C66191
S11357C0FFE7F0BC7047FEE710B4020012B2002AF3
S11357D005D40A01354B040024B21A5508E00A0125
S11357E0334B040024B214F00F04234403F8042CB4
S11357F010BC704710B50400601EB0F1807F01D367
S113580001200EE0601E2B4908600F215FF0FF307D
S1135810FFF7DAFF002028490860072027490860BD
S1135820002010BD26490868002802D00868401EE0
S113583008607047224A106011680029FCD1704743
S113584038B520480068009000F083F8FDF7D8FED2
S113585000F0F4F8FFF7CBFC1B4C6A46092120004A
S1135860FFF705FF194800684FF47A71B0FBF1F0B7
S1135870FFF7C0FF002800D0FEE74FF49670FFF753
S1135880D9FF134D2878002807D0002209212000D1
S1135890FFF717FF00202870EFE7012209212000FD
S11358A0FFF70FFF01202870E7E7000000E400E0A5
S11358B018ED00E014E000E018E000E010E000E083
S11358C0540000206064000000801B4000000020A1
S11358D058000020F8B504000F0025002DB22D0A51
S11358E0260036B216F01F06072D07D340F2C13248
S11358F025492648FEF7C6F9AFF30080244800EB9B
S1135900850001680322B24091433A00D2B2B2400A
S113591011430160F1BD10B504000321200000B261
S1135920FFF7D8FF10BD70B4049C11F007052601E1
S113593016F0100635430560002A00D0136070BCD1
S1135940704730B4029C039D002C00D0256030BC0D
S113595070473EB540F20240FFF7DDFF0D4C0E4D9F
S11359600020019000950023002205212000FFF76C
S1135970DAFF41F2B00001900095002300220521D6
S11359802000FFF7DEFF37BDA85D0000486200007D
S113599068C00F40E0801F40D0821F40010001F02A
S11359A0FF0000F1804010F57C200068C1F34C3208
S11359B00B001B1213F01F039A401040091211F040
S11359C01F01C8407047010001F0FF0000F1804052
S11359D010F57C200068C1F34C320B001B1213F04D
S11359E01F039A401040091211F01F01C84070476C
S11359F018480068C00601D5174801E01748006838
S1135A00704710B51648FFF7C9FF00280CD1154898
S1135A10FEF741FA0621B0FBF1F41348FFF7D3FF78
S1135A20401CB4FBF0F008E0FFF7E2FF04000E486E
S1135A30FFF7C9FF401CB4FBF0F010BD10B5FFF731
S1135A40E0FF0400230001225FF4E1310120FEF7AE
S1135A50F8FB10BD70820D4000366E01040000207A
S1135A60242600800D00100024E00780443A5C7274
S1135A7065735F692E6D7872745C53444B5F322E8C
S1135A80352E305F45564B422D494D5852543130D6
S1135A9035305F4941525F46554C4C5C64657669CC
S1135AA06365735C4D494D585254313035325C75E1
S1135AB074696C69746965735C64656275675F6356
S1135AC06F6E736F6C655C66736C5F64656275673B
S1135AD05F636F6E736F6C652E630000443A5C7293
S1135AE065735F692E6D7872745C53444B5F322E1C
S1135AF0352E305F45564B422D494D585254313066
S1135B0035305F4941525F46554C4C5C636F6D7054
S1135B106F6E656E74735C73657269616C5F6D61E1
S1135B206E616765725C73657269616C5F706F72D8
S1135B30745F756172742E6300000000443A5C72F5
S1135B4065735F692E6D7872745C53444B5F322EBB
S1135B50352E305F45564B422D494D585254313005
S1135B6035305F4941525F46554C4C5C636F6D70F4
S1135B706F6E656E74735C73657269616C5F6D6181
S1135B806E616765725C73657269616C5F6D616E8D
S1135B90616765722E630000443A5C7265735F69E5
S1135BA02E6D7872745C53444B5F322E352E305F09
S1135BB045564B422D494D585254313035305F498A
S1135BC041525F46554C4C5C646576696365735C11
S1135BD04D494D585254313035325C6472697665A2
S1135BE072735C66736C5F636C6F636B2E6800002A
S1135BF0443A5C7265735F692E6D7872745C5344C9
S1135C004B5F322E352E305F45564B422D494D5851
S1135C105254313035305F4941525F46554C4C5CEB
S1135C20646576696365735C4D494D5852543130EF
S1135C3035325C647269766572735C66736C5F633B
S1135C406C6F636B2E630000443A5C7265735F692A
S1135C502E6D7872745C53444B5F322E352E305F58
S1135C6045564B422D494D585254313035305F49D9
S1135C7041525F46554C4C5C646576696365735C60
S1135C804D494D585254313035325C6472697665F1
S1135C9072735C66736C5F636C6F636B2E68000079
S1135CA0443A5C7265735F692E6D7872745C534418
S1135CB04B5F322E352E305F45564B422D494D58A1
S1135CC05254313035305F4941525F46554C4C5C3B
S1135CD0646576696365735C4D494D58525431303F
S1135CE035325C647269766572735C66736C5F6787
S1135CF070696F2E63000000443A5C7265735F69DB
S1135D002E6D7872745C53444B5F322E352E305FA7
S1135D1045564B422D494D585254313035305F4928
S1135D2041525F46554C4C5C646576696365735CAF
S1135D304D494D585254313035325C647269766540
S1135D4072735C66736C5F636C6F636B2E680000C8
S1135D50443A5C7265735F692E6D7872745C534467
S1135D604B5F322E352E305F45564B422D494D58F0
S1135D705254313035305F4941525F46554C4C5C8A
S1135D80646576696365735C4D494D58525431308E
S1135D9035325C647269766572735C66736C5F6CD1
S1135DA070756172742E6300443A5C7265735F6946
S1135DB02E6D7872745C53444B5F322E352E305FF7
S1135DC045564B422D494D585254313035305F4978
S1135DD041525F46554C4C5C646576696365735CFF
S1135DE04D494D585254313035325C647269766590
S1135DF072735C66736C5F636C6F636B2E68000018
S1135E00443A5C7265735F692E6D7872745C5344B6
S1135E104B5F322E352E305F45564B422D494D583F
S1135E205254313035305F4941525F46554C4C5CD9
S1135E30636F6D706F6E656E74735C756172745CA4
S1135E406C70756172745F616461707465722E63E5
S1135E5000000000636F6E6669672D3E696E73749F
S1135E60616E6365203C202873697A656F662873C8
S1135E705F4C7075617274416461707465724261E3
S1135E80736529202F2073697A656F66284C5055F5
S1135E904152545F54797065202A2929000000007A
S1135EA0696E7374616E6365203C202873697A653A
S1135EB06F6628735F6C7075617274426173657389
S1135EC029202F2073697A656F662828735F6C70A8
S1135ED0756172744261736573295B305D292900B1
S1135EE0696E7374616E6365203C202873697A65FA
S1135EF06F6628735F6770696F42617365732920E9
S1135F002F2073697A656F662828735F6770696FDD
S1135F104261736573295B305D2929004153534500
S1135F205254204552524F52202220257320223AA7
S1135F302066696C652022257322204C696E6520D9
S1135F4022256422200A000030B450F8041B79B1E1
S1135F500268436802440830DC0744BFA9F1010425
S1135F60E31852F8045B43F8045B091FF9D1ECE72A
S1135F7030BC70476B5374617475735F5365726999
S1135F80616C4D616E616765725F537563636573C0
S1135F9073203D3D2073746174757300735F4C709E
S1135FA07561727441646170746572426173655B9A
S1135FB0636F6E6669672D3E696E7374616E6365A7
S1135FC05D00000072B60548054901600A6882F365
S1135FD008880448804762B60348004708ED00E09B
S1135FE0003000005F5100006D62000010B50749E9
S1135FF079441831064C7C44163404E00A68081DC0
S1136000114488470146A142F8D110BD7400000034
S11360109400000000000000004018400080184078
S113602000C0184000001940004019400080194089
S113603000C0194000001A40000000000040184051
S11360400080184000C0184000001940004019406A
S11360500080194000C0194000001A404EF68851D3
S1136060CEF20001086840F470000860BFF34F8F5F
S1136070BFF36F8F4FF00070E1EE100A704700001D
S11360808FE3FFFF58000000040000200000000020
S1136090B9FEFFFF04000000D00300000000002050
S11360A000000000FEE70000283429203E3D206364
S11360B06F6E6669672D3E74784669666F576174C2
S11360C065726D61726B0000283429203E3D2063A7
S11360D06F6E6669672D3E72784669666F576174A4
S11360E065726D61726B000000F00DF8002801D03C
S11360F0FFF77CFFAFF300800020AFF30080FFF7D1
S11361009FFB00F002F80120704700F001B8FEE7A1
S11361100746384600F002F8FBE7000080B5AFF30D
S11361200080024A11001820ABBEFBE726000200E3
S1136130627573795368696674203C3D2028307811
S113614032305529000000000000000000801B4090
S113615000C01B4000001C4000401C4000000C40DC
S1136160636F6E6669672D3E626175645261746522
S11361705F42707300000000010000000000000096
S1136180010000000000000000000000FFFF1805EF
S11361901C000C001801020306031A050E06000079
S11361A0216279706173735874616C4F736300007A
S11361B040787D0180F0FA0200E1F505405973074B
S11361C000000000000000000000000101000000C9
S11361D073657269616C48616E646C6500000000EF
S11361E073657269616C436F6E66696700000000D5
S11361F073657269616C48616E646C6500000000CF
S1136200696E646578203C3D203600003020213DD5
S11362102073697A65000000696E646578203C3DEE
S11362202036000070696E203C20333200000000EC
S1136230FFFF1A011E001A020C031E01696E646539
S113624078203C3D20360000696E646578203C3D32
S113625020360000777269746548616E646C65006D
S11362607265616448616E646C650000AFF3008020
S1136270FFF7F4FEFFF738FF6400000000000000A1
S11362803020213D206368006461746100000000D7
S1136290636F6E666967000068616E646C65000018
S11362A0636F6E66696700006461746100000000DA
S11362B06C656E67746800006275666665720000DE
S11362C06C656E677468000068616E646C650000DC
S11362D0636F6E66696700006275666665720000CA
S11362E06C656E67746800000048004765640000D0
S11362F000480047656400000048004765640000EA
S113630000480047656400000048004765640000D9
S113631000480047656400000048004765640000C9
S113632000480047656400000048004765640000B9
S113633000480047656400000048004765640000A9
S11363400048004765640000004800476564000099
S11363500048004765640000004800476564000089
S11363600048004765640000004800476564000079
S113637000480047295000000048004741500000F1
S11363800048004751500000004800476550000095
S11363900048004775500000004800478550000041
S11363A0004800479550000000480047A5500000F1
S11363B00048004765640000004800476564000029
S11363C00048004765640000004800476564000019
S11363D00048004765640000004800476564000009
S11363E000480047656400000048004765640000F9
S11363F000480047656400000048004765640000E9
S113640000480047656400000048004765640000D8
S113641000480047656400000048004765640000C8
S113642000480047656400000048004765640000B8
S113643000480047656400000048004765640000A8
S11364400048004765640000004800476564000098
S11364500048004765640000004800476564000088
S10F646001000000FFF7FEBF00A4781F3D
S903626D2D
