S01200006C65645F626C696E6B792E73726563F5
S3158000A0000000022061AB00809FA80080F9AB008031
S3158000A0101FAC00802BAC0080C5AD00800000000026
S3158000A020000000000000000000000000C7AD0080B6
S3158000A030C9AD008000000000CBAD0080EDA9008096
S3158000A04045AC00804DAC008055AC00805DAC008096
S3158000A05065AC00806DAC008075AC00807DAC008006
S3158000A06085AC00808DAC008095AC00809DAC008076
S3158000A070A5AC0080ADAC0080B5AC0080BDAC0080E6
S3158000A080C5AC0080BDAD0080BDAD0080BDAD00809B
S3158000A090CDAC0080D5AC0080DDAC0080E5AC008026
S3158000A0A0EDAC0080F5AC0080FDAC008005AD008095
S3158000A0B00DAD008015AD00801DAD008025AD008002
S3158000A0C02DAD008035AD00803DAD008045AD008072
S3158000A0D04DAD008055AD0080BDAD0080BDAD00802A
S3158000A0E0BDAD0080BDAD0080BDAD0080BDAD008042
S3158000A0F0BDAD0080BDAD0080BDAD0080BDAD008032
S3158000A100BDAD0080BDAD0080BDAD0080BDAD008021
S3158000A110BDAD0080BDAD0080BDAD0080BDAD008011
S3158000A1205DAD008065AD00806DAD008075AD008051
S3158000A1307DAD0080BDAD0080BDAD0080BDAD008031
S3158000A140BDAD0080BDAD0080BDAD0080BDAD0080E1
S3158000A150BDAD0080BDAD0080BDAD0080BDAD0080D1
S3158000A160BDAD0080BDAD0080BDAD0080BDAD0080C1
S3158000A170BDAD0080BDAD0080BDAD0080BDAD0080B1
S3158000A180BDAD0080BDAD0080BDAD0080BDAD0080A1
S3158000A190BDAD0080BDAD0080BDAD0080BDAD008091
S3158000A1A0BDAD0080BDAD008085AD00808DAD0080E9
S3158000A1B0BDAD0080BDAD0080BDAD0080BDAD008071
S3158000A1C0BDAD0080BDAD0080BDAD0080BDAD008061
S3158000A1D0BDAD0080BDAD0080BDAD0080BDAD008051
S3158000A1E0BDAD0080BDAD0080BDAD0080BDAD008041
S3158000A1F095AD0080BDAD00809DAD0080A5AD008091
S3158000A200BDAD0080BDAD0080ADAD0080B5AD008038
S3158000A210BDAD0080BDAD0080BDAD0080BDAD008010
S3158000A220BDAD0080BDAD0080BDAD0080BDAD008000
S3158000A230BDAD0080BDAD0080BDAD0080BDAD0080F0
S3158000A240BDAD0080BDAD0080BDAD0080BDAD0080E0
S3158000A250BDAD0080BDAD0080BDAD0080BDAD0080D0
S3158000A260BDAD0080BDAD0080BDAD0080BDAD0080C0
S3158000A270BDAD0080BDAD0080BDAD0080BDAD0080B0
S3158000A280BDAD0080BDAD0080BDAD0080BDAD0080A0
S3158000A290BDAD0080BDAD0080BDAD0080BDAD008090
S3158000A2A0BDAD0080BDAD0080BDAD0080BDAD008080
S3158000A2B0BDAD0080BDAD0080BDAD0080BDAD008070
S3158000A2C0BDAD0080BDAD0080BDAD0080BDAD008060
S3158000A2D0BDAD0080BDAD0080BDAD0080BDAD008050
S3158000A2E0BDAD0080BDAD0080BDAD0080BDAD008040
S3158000A2F0BDAD0080BDAD0080BDAD0080BDAD008030
S3158000A300BDAD0080BDAD0080BDAD0080BDAD00801F
S3158000A310BDAD0080BDAD0080BDAD0080BDAD00800F
S3158000A320BDAD0080BDAD0080BDAD0080BDAD0080FF
S3158000A330BDAD0080BDAD0080BDAD0080BDAD0080EF
S3158000A340BDAD0080BDAD0080BDAD0080BDAD0080DF
S3158000A350BDAD0080BDAD0080BDAD0080BDAD0080CF
S3158000A360BDAD0080BDAD0080BDAD0080BDAD0080BF
S3158000A370BDAD0080BDAD0080BDAD0080BDAD0080AF
S3158000A380BDAD0080BDAD0080BDAD0080BDAD00809F
S3158000A390BDAD0080BDAD0080BDAD0080BDAD00808F
S3158000A3A0BDAD0080BDAD0080BDAD0080BDAD00807F
S3158000A3B0BDAD0080BDAD0080BDAD0080BDAD00806F
S3158000A3C0BDAD0080BDAD0080BDAD0080BDAD00805F
S3158000A3D0BDAD0080BDAD0080BDAD0080BDAD00804F
S3158000A3E0BDAD0080BDAD0080BDAD0080BDAD00803F
S3158000A3F0BDAD0080BDAD0080BDAD0080FFFFFFFF1D
S3158000A40078B47D4A7D4B506F4FF6FE7140F47000F4
S3158000A41050671C894FF6FE700C4079491C810D8966
S3158000A42005400D811C88660704D51D884FF6FB7094
S3158000A43005401D800B885C0704D50D884FF6FB70A0
S3158000A44005400D806F48704941604FF6FF73836009
S3158000A450046824F0800444F0200404606B4801689A
S3158000A460CB0703D504686408640004601068810320
S3158000A47012D4BFF34F8FBFF36F8F0023644C2360DA
S3158000A480BFF34F8FBFF36F8F106840F400301060BA
S3158000A490BFF34F8FBFF36F8F1168CB0322D4002099
S3158000A4A01067BFF34F8FD16E594EC1F34E3343F6CB
S3158000A4B0E075C1F3C90405EA431545EA8470306145
S3158000A4C02046441E0028F8D11846431E0028EED1A7
S3158000A4D0BFF34F8F106840F480301060BFF34F8F0A
S3158000A4E0BFF36F8F71BC00F0A3B8F0B5494C4A4AF0
S3158000A4F06068810122D5A36813F4405307D0B3F571
S3158000A500805F11D0B3F5005F08BF106B0EE0106955
S3158000A510C103106903D5C0F3813038B904E08107DF
S3158000A52054BF3E483E4802E03E4800E00020616855
S3158000A530C1F3C261491CB0FBF1F653E01068C10358
S3158000A54007D51068C0F38130002814BF0025354D2B
S3158000A55005E01568334805F07F0545436D08116BA6
S3158000A560C80307D5116BC1F38130002814BF0026BC
S3158000A5702C4E04E0106BC1074CBF294E274E106D40
S3158000A5802849126E0023A768A1FB000100F06EF82F
S3158000A590861917F4402725D0B7F5802F06D0B7F552
S3158000A5A0002F0DD0B7F5402F14D01AE01E48016851
S3158000A5B0C1F30540B6FBF0F000EBC002560011E097
S3158000A5C0194B186800F03F00B6FBF0F101EBC105AE
S3158000A5D06E0007E0226802F00702521CB5FBF2F615
S3158000A5E000E000266068114AC0F38220401CB6FB5A
S3158000A5F0F0F11160F0BD000014ED00E000800B402A
S3158000A60000000D4000C00B4020C528D910E000E0B6
S3158000A61050EF00E010C00F4000800D4000389C1CB9
S3158000A62000A4781F00366E0100810D4000000020D6
S3158000A630704730B4002513E050F8042BD30744BF8D
S3158000A640A9F101039A18091F042942F8045BFAD27A
S3158000A65013468C0744BF15809B1CC90748BF1D70D5
S3158000A66050F8041B0029E7D130BC7047BBBBE1B171
S3158000A670B2F5803F80F07E80022A1ED98C46B1FBDF
S3158000A680F2F102FB11C31B0443EA1043B3FBF2FC55
S3158000A69002FB1C3380B240EA0343B3FBF2F002FBB9
S3158000A6A0103240EA0C4000237047022A05D98446BE
S3158000A6B0B0FBF2F002FB10C270474AB105D100F040
S3158000A6C0010249085FEA3000704700220023704784
S3158000A6D000F0E4B80B000200002100207047904291
S3158000A6E071EB030CF6D3B3F5803F2FD2F0B5B3FAF6
S3158000A6F083F7B1FA81F4A7F10F0E3D1B5340CEF1DB
S3158000A700200602FA0EF2F3415340B5F10F0746D800
S3158000A7100F3C2C444140C4F12006A040F141414009
S3158000A720B1FBF3F603FB1611A2FB0645001BA941FC
S3158000A73002D2761E8018594180EA010221FA0EF370
S3158000A74062FA0EF200215A403046F0BD30B4B1FBB9
S3158000A750F3FC03FB1C11A2FB0C45001BA94103D291
S3158000A760ACF1010C8018594130BC02460B4660465C
S3158000A77000217047B2F1807F65D3F0B5B2FA82F7D7
S3158000A780B1FA81F4C7F10F063D1B22FA06F307F1F1
S3158000A790110EF24120355A40B5F10F07B8D9414024
S3158000A7A0C4F12006A040F1414140B1FBF3FC03FB1C
S3158000A7B01C11A2FB0C45001BA94103D2BCF1010C64
S3158000A7C0801859410F2F12D30F3FC90341EA5041D8
S3158000A7D0B1FBF3F603FB1611A2FB0645D4EBC030A2
S3158000A7E0A94102D2761E8018594146EACC3C07B36D
S3158000A7F04140C7F12006B840F1414140B1FBF3F634
S3158000A80003FB1611A2FB0645001BA94102D2761E48
S3158000A8108018594180EA010221FA0EF3C7F120041B
S3158000A82062FA0EF20CFA07F05A402CFA04F1304321
S3158000A830F0BD80EA010221FA0EF3002162FA0EF2DF
S3158000A84060465A40F0BD8C46B1FBF2F102FB11C363
S3158000A8501B0243EA1063B3FBF2FC02FB1C331B02B0
S3158000A8604CEA002043EA1063B3FBF2FC02FB1C3384
S3158000A8701B024CEA002043EA1063B3FBF2FC02FBA6
S3158000A8801C331B024CEA002043EA1063B3FBF2FC44
S3158000A89002FB1C324CEA0020002370477047FEE71B
S3158000A8A0F8B504460020002C0E4615461EBF012032
S3158000A8B01E498C420FD002201D4A94421EBF03209F
S3158000A8C01C498C4207D004201B4A94421FBF052096
S3158000A8D01A498C42062000BF41A2194B32F910005A
S3158000A8E0032200F01F01000A03EB800002FA01F147
S3158000A8F007688F433943012701606369B740F9438D
S3158000A9000B406361287818B963681940616007E075
S3158000A9106A783146204600F015F863681F43676001
S3158000A920AA7831462046BDE8F84019E000801B40F1
S3158000A93000C01B4000001C4000401C4000000C4032
S3158000A94068C00F400123002A03FA01F107BF02689D
S3158000A95022EA0101D0F800C041EA0C01016070478B
S3158000A96070B4C369012404FA01F5AB431029C361AD
S3158000A97032BF00F10C0300F110031039521E042A75
S3158000A9802BD8DFE802F00309131F27001A68032477
S3158000A99048008440A2431AE0480019680322824096
S3158000A9A0844091430C431C6070BC70471C6848000F
S3158000A9B003258540022101FA00F0AC43204318604C
S3158000A9C070BC70471A6803264800864032431A6076
S3158000A9D070BC7047C1690D43C56170BC704700008B
S3158000A9E0FFFF1A011E001A020C031E012149486846
S3158000A9F010B14A68521E4A607047000038B500BFE1
S3158000AA0022A01D4C0168009100F042F8FFF76DFD11
S3158000AA106A4609212046FFF743FF1848184B01680C
S3158000AA20A1FB0332500A401EB0F1807F21D2154926
S3158000AA30154A4860F020107000238B6007250D6052
S3158000AA400C4D06E0002209212046FFF77BFF0020FF
S3158000AA5028704FF47A71696068680028FCD129787B
S3158000AA600029EFD1012209212046FFF76BFF012043
S3158000AA70EEE7FEE72C00002000801B40000000204F
S3158000AA80986E128310E000E023ED00E001000000E4
S3158000AA9000BF0748074A016841F2B003DFF818C0D3
S3158000AAA041F00C01016005201060CCF80030704741
S3158000AAB078C00F40E0801F40D0821F40144A15485E
S3158000AAC05168526A1047124A13489168526A104771
S3158000AAD00F4A1248D168526A10470D4A10481169C8
S3158000AAE0526A10470A4A0F485169526A1047084A03
S3158000AAF00D489169526A1047054A0C48D169526AD5
S3158000AB001047034A0A48116A526A1047000000003B
S3158000AB1004000020004018400080184000C0184003
S3158000AB2000001940004019400080194000C01940BB
S3158000AB3000001A4030B450F8041B79B102684368AB
S3158000AB4002440830DC0744BFA9F10104E31852F837
S3158000AB50045B43F8045B091FF9D1ECE730BC70470E
S3158000AB6072B60548054901600A6882F30888044878
S3158000AB70804762B60348004708ED00E000A00080E9
S3158000AB8001A4008039AC008010B50749794418319A
S3158000AB90064C7C44163404E00A68081D1144884734
S3158000ABA00146A142F8D110BD2C0000004C000000E7
S3158000ABB04EF68851CEF20001086840F470000860B5
S3158000ABC0BFF34F8FBFF36F8F4FF00070E1EE100A27
S3158000ABD0704700005FFAFFFF30000000040000208D
S3158000ABE00000000051FFFFFF04000000D4010000B8
S3158000ABF00000002000000000FEE700000120C046A3
S3158000AC00002801D0FFF7C0FFAFF300800020AFF32C
S3158000AC100080FFF7F3FE00F000F800F001B8FEE7D1
S3158000AC200746384600F002F8FBE7FEE720210903D5
S3158000AC3026311820ABBEF9E7AFF30080FFF7B8FFE7
S3158000AC40FFF7DCFF00480047BDAD008000480047A5
S3158000AC50BDAD008000480047BDAD0080004800477C
S3158000AC60BDAD008000480047BDAD0080004800476C
S3158000AC70BDAD008000480047BDAD0080004800475C
S3158000AC80BDAD008000480047BDAD0080004800474C
S3158000AC90BDAD008000480047BDAD0080004800473C
S3158000ACA0BDAD008000480047BDAD0080004800472C
S3158000ACB0BDAD008000480047BDAD0080004800471C
S3158000ACC0BDAD008000480047BDAD0080004800470C
S3158000ACD0BDAA008000480047C7AA008000480047F8
S3158000ACE0D1AA008000480047DBAA008000480047C0
S3158000ACF0E5AA008000480047EFAA00800048004788
S3158000AD00F9AA00800048004703AB0080004800474E
S3158000AD10BDAD008000480047BDAD008000480047BB
S3158000AD20BDAD008000480047BDAD008000480047AB
S3158000AD30BDAD008000480047BDAD0080004800479B
S3158000AD40BDAD008000480047BDAD0080004800478B
S3158000AD50BDAD008000480047BDAD0080004800477B
S3158000AD60BDAD008000480047BDAD0080004800476B
S3158000AD70BDAD008000480047BDAD0080004800475B
S3158000AD80BDAD008000480047BDAD0080004800474B
S3158000AD90BDAD008000480047BDAD0080004800473B
S3158000ADA0BDAD008000480047BDAD0080004800472B
S3158000ADB0BDAD008000480047BDAD0080FFF7FEBFF7
S3118000ADC000A4781FFEE7FEE7FEE7FEE732
S7058000AC3995
